:020000040800F2
:10000000D0090120690200088D0200088F02000853
:100010005559009093020008950200080000000066
:10002000000000000000000000000000970200082F
:1000300099020008000000009B0200089D020008D1
:100040009F0200089F0200089F0200089F0200080C
:100050009F0200089F0200089F0200089F020008FC
:100060009F0200089F0200089F0200089F020008EC
:100070009F0200089F0200089F0200089F020008DC
:100080009F0200089F0200089F0200089F020008CC
:100090009F0200089F0200089F0200089F020008BC
:1000A0009F0200089F0200089F0200089F020008AC
:1000B0009F0200089F0200089F0200089F0200089C
:1000C0009F0200089F0200089F0200089F0200088C
:1000D0009F020008190B00089F0200089F020008F9
:1000E0009F0200089F0200089F0200089F0200086C
:1000F0009F0200089F0200089F0200089F0200085C
:100100009F0200089F0200089F0200089F0200084B
:100110009F0200089F0200089F0200089F0200083B
:100120009F0200089F0200089F0200089F0200082B
:100130009F0200089F0200089F0200089F0200081B
:100140009F0200089F0200089F0200089F0200080B
:100150009F0200089F0200089F0200089F020008FB
:100160009F0200089F0200089F0200089F020008EB
:100170009F0200089F0200089F0200089F020008DB
:100180009F0200089F0200089F0200089F020008CB
:100190009F0200089F0200089F0200089F020008BB
:1001A0009F0200089F0200089F0200089F020008AB
:1001B0009F0200089F0200089F0200089F0200089B
:1001C0009F0200089F02000800F002F800F03CF8CF
:1001D0000AA090E8000C82448344AAF10107DA45A2
:1001E00001D100F031F8AFF2090EBAE80F0013F0B8
:1001F000010F18BFFB1A43F00103184778100000E5
:1002000098100000103A24BF78C878C1FAD8520775
:1002100024BF30C830C144BF04680C607047000080
:100220000023002400250026103A28BF78C1FBD8FF
:10023000520728BF30C148BF0B6070471FB501F09F
:1002400009F81FBD10B510BD00F046F81146FFF7C4
:10025000F5FF00F0B5FE00F064F803B4FFF7F2FF1D
:1002600003BC00F09FFC0000DFF84000016841F48F
:1002700070010160BFF34F8FDFF83400016821F097
:1002800040410160BFF36F8F0A480047FEE7FEE779
:10029000FEE7FEE7FEE7FEE7FEE7FEE7FEE7FEE736
:1002A00005480649044A064B7047000088ED00E007
:1002B00034EF00E0C9010008D0010120D00901207D
:1002C000D0010120704770477047704770470000A9
:1002D000004870476C0101207546FFF7F9FFAE46F4
:1002E00005006946534620F00700854618B020B542
:1002F000FFF7D6FFBDE820404FF000064FF00007A3
:100300004FF000084FF0000B21F00701AC46ACE8BD
:10031000C009ACE8C009ACE8C009ACE8C0098D462A
:10032000704710B50446AFF300802046BDE810408A
:10033000FFF793BF41F6912CC9F2000C604744F6D9
:10034000A15CC9F2000C604741F6257CC9F2000CA3
:10035000604744F65D6CC9F2000C604745F63D0C01
:10036000C9F2000C604745F6B51CC9F2000C6047A5
:1003700041F6957CC9F2000C604741F6511CC9F268
:10038000000C604741F6C11CC9F2000C604746F6FC
:10039000650CC9F2000C604745F6657CC9F2000C9B
:1003A000604746F6A55CC9F2000C604710B500F046
:1003B000A9FA00F059FA0348006840F00400014926
:1003C000086010BD9CEF00E030B5CC1000F12003B8
:1003D00053F824304C07E50E0F24AC40A343CD1056
:1003E00000F1200444F82530CC1000F1200353F82C
:1003F00024304C07E40E02FA04F42343CD1000F13C
:10040000200444F8253030BD02461069084008B188
:10041000012070470020FCE702F001030BB181616D
:1004200001E00B04836170472DE9F0470C46DDE9DC
:100430000867002100258C4600BF60E04FF00108EE
:1004400008FA01F504EA050CAC4557D1D0F8008054
:100450004FEA410A4FF0030909FA0AF928EA0908A4
:10046000C0F80080D0F800804FEA410902FA09F98B
:1004700048EA0908C0F80080012A01D0022A27D1E1
:10048000D0F808804FEA410A4FF0030909FA0AF947
:1004900028EA0908C0F80880D0F808804FEA410926
:1004A00006FA09F948EA0908C0F80880D0F804906B
:1004B0004FF0010808FA01F829EA0809C0F8049089
:1004C000D0F8048003FA01F948EA0908C0F804806A
:1004D000D0F80C804FEA410A4FF0030909FA0AF9F3
:1004E00028EA0908C0F80C80D0F80C804FEA4109CE
:1004F00007FA09F948EA0908C0F80C80491C1029D4
:100500009CD3BDE8F08700001CB54FF6FF70FFF7E5
:1005100011FF1F200949086009A01021CDE9001032
:1005200008490988183988B21023C8220021FFF72A
:1005300006FF4FF47840014908601CBD0C00012003
:10054000525354003C0101202DE9F04107468846F2
:1005500014461D46284600F033F8C5F1040007FA9A
:1005600000F60F20284100EA0800064306F00F06B7
:10057000E21704EBD2625211920002F1E022D2F8AB
:1005800000212146E31704EBD3635B11A4EB431C6A
:10059000012303FA0CF31A432046E31704EBD36359
:1005A0005B119B0003F1E023C3F800210348005DC9
:1005B00040EA061001490855BDE8F08100E400E07A
:1005C0000146072323EA01021202054B18684FF681
:1005D000FF031840034B18431043014B186070474A
:1005E0000CED00E00000FA054A0A52020243014BFA
:1005F0001A60704708ED00E03CB50024914D924828
:10060000006840F00200904908600846006840F029
:10061000200008608C480830006840F002008A49D9
:10062000083108600120032100230222CDE90010D7
:1006300004218648FFF7F8FE01200321002302224F
:10064000CDE9001040218148FFF7EEFE0120032193
:1006500000230222CDE900104FF470717C48FFF7AF
:10066000E3FE092202217948FFF7AEFE0A220621A5
:100670007648FFF7A9FE092206217548FFF7A4FE78
:10068000092207217248FFF79FFE0A2208217048BD
:10069000FFF79AFE0A2209216D48FFF795FE6A4886
:1006A0001838006840F002006749183908600846A9
:1006B000006820F00200086000BF624820388068AF
:1006C00000F020000028F8D162485E492039086017
:1006D000614848600846006840F00100086000BFBB
:1006E00058482038806800F020000028F8D14FF4E6
:1006F0009C7054492039486100BF524820388068B6
:1007000000F002000028F8D04E482038C06840F0C1
:1007100002004C492039C86000BF4A482038806830
:1007200000F020000028F8D14FF4837045492039AB
:10073000486100BF43482038806800F0020000286C
:10074000F8D040482038C06840F002003D492039C8
:10075000C86000BF3B482038806800F020000028B7
:10076000F8D13E483749203948610020086100BF70
:1007700034482038806800F004000028F8D0302089
:10078000287030482038006840F004002D49203996
:10079000086000BF2B482038806800F00200002865
:1007A000F8D028482038C06840F002002549203998
:1007B000C86000BF23482038806800F0200000286F
:1007C000F8D100BF1F482038806800F020000028C2
:1007D000F8D11C492039C861EB2444F4407444F436
:1007E000406444F4005444F4404400BF44F4C01452
:1007F00044F0407444F0406408464461184800687E
:1008000020F480301649086015487030006820F0E8
:1008100001001349703108600020091D08604FF085
:100820001040091D08600F48091D086005200C498B
:10083000703108600A48006840F480300849086058
:100840003CBD0000201000A03038024000040240EF
:10085000001402401003000101041600C00300034D
:1008600024ED00E02D00030310B50023234C23608A
:1008700000BF00BF00BFBFF34F8F00BF00BF00BF6E
:10088000231F1868C0F34E3100BFC0F3C90200BF78
:1008900043F6E07303EA41134FF0404404EA8274E4
:1008A0002343174C236000BF00BF131EA2F10102B7
:1008B000EED10B1EA1F10101E7D100BF00BF00BFC7
:1008C000BFF34F8F00BF00BF00BF0C4B703B1B68D6
:1008D00043F48033094C703C236000BF00BF00BF6D
:1008E000BFF34F8F00BF00BF00BF00BF00BF00BFFE
:1008F000BFF36F8F00BF00BF00BF10BD84ED00E0ED
:1009000060EF00E000BF00BF00BFBFF34F8F00BF2C
:1009100000BF00BF00BF00BF00BFBFF36F8F00BFAD
:1009200000BF00BF00201449086000BF00BF00BF27
:10093000BFF34F8F00BF00BF00BF00BF00BF00BFAD
:10094000BFF36F8F00BF00BF00BF0C48006840F4CA
:1009500000300A49086000BF00BF00BFBFF34F8FDF
:1009600000BF00BF00BF00BF00BF00BFBFF36F8F5D
:1009700000BF00BF00BF704750EF00E014ED00E083
:100980002DE9F04104460D4616461F4616480068FC
:1009900040F0010014490860002013490831086044
:1009A00011480068114908400F4908601048091DA6
:1009B0000860081F006820F48020091F08600020DC
:1009C00009490C310860FFF717FEFFF7EFFC3B46C3
:1009D00032462946204600F00DF800214FF0006015
:1009E000FFF702FEBDE8F08100380240FFFFF6FE8F
:1009F00010300024F0B504460D46002100203F4E83
:100A0000366846F480363D4F3E6001E04E1CB1B280
:100A10003A4E366806F400361EB941F6FF76B1420A
:100A2000F4DB41F6FF76B14201D1012065E0334E9F
:100A30004036366846F08056304F40373E60304E84
:100A4000366846F440462E4F3E603E46366846F4D1
:100A500080363E603E46366846F400363E60274E9D
:100A60000836366846F41446244F08373E60234E55
:100A7000366826F08076214F3E6045EA84160127CD
:100A8000C7EB520746EA074646EA036646F4800685
:100A90001A4F3F1D3E603E1F366846F080763F1F6E
:100AA0003E6000BF154E366806F00076002EF9D085
:100AB000144E366846F48076124F3E603E463668E5
:100AC00046F400763E603E46366846F007063E60D5
:100AD0000A4E0836366826F00306084F08373E608F
:100AE0003E46366846F002063E6000BF034E0836BA
:100AF000366806F00C06082EF8D1F0BD003802402A
:100B000000700040003C0240014802490860704704
:100B10000400FA050CED00E01F49C96901F020014D
:100B200009B31D49496AC8B21C49098801F400414A
:100B3000C9B91A49098801F4804161B10A2803D072
:100B40000021164A118020E01449098841F400412F
:100B5000124A118019E00D2806D11049098841F484
:100B600080410E4A118010E00C490988C1F30D0143
:100B70000B4A505409490988491C084A11801146FA
:100B80000988C72901DD002111800349096A41F064
:100B90000801014A1162704700100140080001205D
:100BA0007400012000BF70478CB00126002400258E
:100BB00005274948808841F21801884200D10A2758
:100BC00089E0464841680020884700246EE0434899
:100BD000808E0121A1400840002860D03F480C30A1
:100BE00030F814003C49098888425DDA3B482030DF
:100BF00030F8140038494988884255DA02A830F89C
:100C000024004FF6FF7188420DD134480C3030F883
:100C1000140002A921F824003048203030F81400D4
:100C200001EB840148802E4830F814000221DFF8DF
:100C3000ACC00CF1200CCDE900103CF81430ACF144
:100C4000140C3CF814200DF1080C0CEB840CBCF8CF
:100C500002100DF1080C3CF8240000F047F91F4881
:100C60000C3030F8140002A921F824001B48203071
:100C700030F8140001EB8401488018480C3030F83B
:100C8000141015480088183881420DDD13482030B3
:100C900030F81400142807DAFFF736FC04E04FF6AA
:100CA000FF7002A921F82400601CC4B2BC428EDB94
:100CB000052000F035F8681CC5B2142095FBF0F152
:100CC00000FB115038B986F00100064602460221A9
:100CD0000448FFF7A1FB74E73C0101202800012034
:100CE0005E120008000402404FF0E021096921F083
:100CF00004014FF0E0221161C21700EB5272C2F3FF
:100D0000C702054B1A704FF47A714143C1F3CF010A
:100D1000024A1180704700000000012002000120FB
:100D200070B504464FF4077094FBF0F0C6B24FF470
:100D3000077094FBF0F100FB114085B205E04FF421
:100D4000077000F027F8701EC6B2002EF7D115B15B
:100D5000284600F01FF870BD01460D4A12784A433C
:100D60004FF0E0235A6100229A6101221A6100BF0C
:100D70004FF0E022106900F001021AB100F4803255
:100D8000002AF5D000224FF0E0231A619A617047E3
:100D90000000012001460D4A12884A434FF0E0232B
:100DA0005A6100229A6101221A6100BF4FF0E022CD
:100DB000106900F001021AB100F48032002AF5D067
:100DC00000224FF0E0231A619A617047020001206F
:100DD00000BF054AD26902F04002002AF9D0C2B22F
:100DE000014B9A627047000000100140F8B50546BB
:100DF0000E4614461F4604B9F8BD2819401E0E4978
:100E00000988884204DB0C480088001B401E85B21C
:100E100009484088B04203DC07484088401E86B23B
:100E20002819401E82B23346314628460097FFF704
:100E30008BFA00BFE0E700003C0101202DE9F05FE4
:100E40000746884616469A4640F2C32070434FF440
:100E50007A71B0FBF1F000F1010906FB06F000EB3E
:100E6000560B344671040A0CB91B88B253464146EE
:100E7000FFF7BCFF012535E005FB05F004FB04008E
:100E800058451AD94C4517D96B1E5B041A0C08EB50
:100E9000040399B27B1B5B1C98B25346FFF7A6FF75
:100EA0006B1E5B041A0CA8EB040399B27B1B5B1C42
:100EB00098B25346FFF79AFF641E63041A0C08EBBE
:100EC000050399B23B1B98B25346FFF78FFF6304AB
:100ED0001A0CA8EB050399B23B1B98B25346FFF7D7
:100EE00085FF6D1C4D45C7D9BDE8F09F2DE9FF4F2B
:100EF00085B080468946129F002003900290B84535
:100F000007DB0798B84204DBB94502DB0898B84212
:100F100002DA09B0BDE8F08F0798A0EB0804089842
:100F2000A0EB0905CDF80480CDF80090002C02DD7F
:100F30004FF0010A06E014B94FF0000A02E04FF04A
:100F4000FF3A6442002D02DD4FF0010B06E015B9B7
:100F50004FF0000B02E04FF0FF3B6D42AC4201DD71
:100F6000264600E02E460020049023E0009A91B22D
:100F7000019A90B23A46139BFFF760FF0398204412
:100F800003900298284402900398B04205DD03982C
:100F9000801B03900198504401900298B04205DDF7
:100FA0000298801B02900098584400900498401CBE
:100FB00080B20490711C04988842D7DD00BFA8E776
:100FC0001CB50923022219214FF4D870FFF7D8FC71
:100FD000D820FFF789FE4FF4E1316C2000F0DCF8F7
:100FE000FFF7B7F9FFF7BAF9FFF7BDF9FFF7C0F957
:100FF000FFF7C3F92649086880474FF47840254930
:10100000086025A010210B46C822CDE9001032212E
:101010001E20FFF794F924A010210B46C822CDE929
:10102000001046211E20FFF78AF922A010210B464E
:10103000C822CDE900105A211E20FFF780F921A017
:1010400010210B46C822CDE900106E211E20FFF7AB
:1010500076F90F4890F84400FF2809D01CA0102111
:101060000B46C822CDE9001082211E20FFF767F948
:1010700040F2DC50FFF754FEFFF746FA044890F8C0
:10108000440000F0800008B1FFF78EFD00F02CF85E
:10109000280001200C000120504F4C4152495320A0
:1010A00053544D3332000000544F554348205445AB
:1010B0005354000041544F4D40414C49454E544516
:1010C0004B000000323031392F352F32360000000E
:1010D0005072657373204B45593020746F20416402
:1010E0006A75737400000000012600254DE00020A1
:1010F000FFF748F9044625484168002088472348FF
:10110000808E00F4004008B3204880892049098877
:1011100088421EDA1D48008C1D494988884218DA29
:101120001A4881891A4800881838814206DD174814
:10113000008C102802DAFFF7E7F90AE0134A118C55
:1011400090894FF47842FFF722F902E00A20FFF776
:10115000E7FD012C09D14FF6FF70FFF7EBF8FFF721
:101160001BF9FFF71EF9FFF7CFF9681CC5B2142071
:1011700095FBF0F100FB115038B986F001000646EE
:10118000024602210348FFF747F9B0E72800012093
:101190003C010120000402407CB505460C4629486C
:1011A000684300EB5400B0FBF4F62748006840F0B9
:1011B00001002549086024481430006840F0100000
:1011C0002149143108600120022100230A46CDE99B
:1011D00000104FF4C0611D48FFF726F907220921CE
:1011E0001A48FFF7F1F807220A211848FFF7ECF830
:1011F0001748C66000201649086008460068086065
:1012000008460068086008460068086008460068EC
:1012100040F0080008600846006840F004000860DC
:101220000846006840F020000860022325220321C0
:101230000846FFF789F90648006840F001000449B4
:1012400008607CBD40420F00303802400000024080
:10125000001001404FF04070E1EE100A704700F8B6
:10126000E0071F0040BCE0FF1FF8FF077C7D07FC84
:101270003084000094120008000001207400000077
:101280000402000808130008740001205C09000033
:101290002002000800000000000000000000000024
:1012A000000000FFFFFFFFFF000000000000000043
:1012B000010000000000050000000000C56900906A
:1012C000256E0090655F00900000000000000000A7
:1012D000000000000000000000000000000000000E
:1012E00000000000000000000000000000000000FE
:1012F00000000000000000000000000000000000EE
:0813000000000000D090000085
:0200000490006A
:10000000642900F07380782900F0AC80732900F037
:100010007F810020704700000FB4044910B503AA87
:10002000029800F079F910BC5DF814FB040001207F
:100030002DE9F0410E460446002020622046E1688A
:10004000884730B3252805D0D4E901219047206A9C
:10005000401CF2E7E168204600278847050018D0D9
:10006000A5F14100192802D820354FF40067324627
:10007000294620462760FFF7C3FF40B1012804D07E
:10008000F61D26F007060836D8E7361DD6E72846BF
:10009000DAE7206ABDE8F08170B50C460546012A12
:1000A00005D02878800600D5EA69002302E0012304
:1000B00005E05B1C934202D2E05C0028F9D1A869FC
:1000C000E618C01AA861286A184428622846AFF3C7
:1000D000008004E0D5E9012114F8010B9047B442F7
:1000E000F8D32846AFF3008070BD00002DE9F04141
:1000F0000646002410687529314616A510D0AFF3C6
:100100000080002802DA404213A507E031688A0720
:1001100001D512A502E0490704D511A5012401E08B
:10012000AFF3008000210A2206F1240709E0B0FBAA
:10013000F2FCB0FBF2F302FB1C003030785418469E
:10014000491C0028F3D123462A463046BDE8F04139
:1001500000F073B8000000002D0000002B0000002C
:100160002000000070B504460D4621461068AFF32C
:1001700000802188090502D50F4A7A4402E00E4A20
:100180007A440E32002104F1240305E000F00F064A
:100190000009965D5E54491C0028F7D120780023A1
:1001A000000704D5702D02D009B102231132204678
:1001B000BDE8704000F041B84ABD00004FF0013C7E
:1001C00050F8042B51F8043B9A4215D1A2EB0C03D2
:1001D000934313EACC130BD150F8042B51F8043B92
:1001E0009A4209D1A2EB0C03934313EACC13E7D054
:1001F0004FF00000704700BFD01A01BAB1FA81F188
:1002000001F0180122FA01F0CB40C1F12001DBB26C
:10021000C0B2C01A2CFA01F3D11A914311EAC311EA
:10022000E6D1704710B500F089F8006810BD10B530
:10023000044600F083F8046010BD2DE9F0470D4638
:1002400099469246044600F124080168880604D5C0
:10025000E06921F01001216000E00120A84201DDE9
:10026000471B00E00027A1697A1902EB0900081A70
:10027000A0612078C00602D42046AFF3008000269B
:1002800008E0D4E901211AF806009047206A401CD2
:10029000761C20624E45F4DB2078C0060AD5204645
:1002A000AFF3008006E0D4E9012130209047206AB6
:1002B000401C2062381EA7F10107F4DC07E0D4E9F6
:1002C000012118F805009047206A401C2062281E72
:1002D000A5F10105F3DC2046AFF30080207800068D
:1002E00002D50220BDE8F0870120FBE710B5436985
:1002F00013B1AFF3008001E0FFF7CEFE012010BD87
:10030000127800F124010A7000224A700122EDE700
:1003100011684FF0FF32E9E7074B70B50D467B449B
:1003200000F015F80446284600F024F810B14FF00C
:10033000FF3070BD204670BDAF0A0078004870479E
:100340006C01012001694A1C02610878704700B500
:100350008FB0CDE901310021059105497944CDE9FE
:10036000031011466846FFF763FE0FB000BD0000A2
:10037000E5FFFFFF007B00F08000704740F6215C46
:10038000C0F6000C604740F6595CC0F6000C6047B0
:1003900040F2194CC0F6000C604740F2294CC0F600
:1003A000000C604740F2094CC0F6000C604740F278
:1003B000C93CC0F6000C604740F6093CC0F6000C92
:1003C000604710B501F086F910BD2DE9F0410746F0
:1003D0000C460026002509E036023919491B491E42
:1003E00088B200F008F80644681CC5B2A542F3DBE9
:1003F0003046BDE8F08170B50446002601F020FAD1
:100400002546E11704EB11610912A02202EB41011C
:10041000C8B201F0DFF901F067FAE11704EB1161EE
:100420000912A4EB0121C8B201F0D4F901F05CFA81
:1004300001F006FAA12001F0CDF901F055FA0020F3
:1004400001F092F9064601F025FA304670BD2DE91B
:10045000F04105460E461746002409E0E20026FA60
:1004600002F2D1B22A1990B200F006F8601CC4B2B0
:10047000BC42F3DBBDE8F08170B504460E4601F0E6
:10048000DFF92546E11704EB11610912A02202EB06
:100490004101C8B201F09EF901F026FAE11704EB20
:1004A00011610912A4EB0121C8B201F093F901F026
:1004B0001BFA304601F08EF901F016FA01F0EAF964
:1004C0000A20FFF75BFF70BD10B50220FFF75BFF4E
:1004D00010BD000010B5002280210D48FFF758FF25
:1004E000FFF7F2FF012240210A48FFF751FFFFF713
:1004F000EBFF002240210748FFF74AFFFFF7E4FF28
:10050000012280210248FFF743FFFFF7DDFF10BD06
:1005100000180240001C02401CB51448006840F05E
:100520008000124908600846006840F040000860FA
:100530000120009003460246402101900C48FFF73D
:100540002CFF0120009003460246802101900948BB
:10055000FFF723FF012280210648FFF719FF012240
:1005600040210348FFF714FF1CBD00003038024053
:10057000001C02400018024010B5012280210A48E8
:10058000FFF706FFFFF7A0FF012240210748FFF712
:10059000FFFEFFF799FF002240210448FFF7F8FE15
:1005A000FFF792FF10BD000000180240001C02403F
:1005B00070B505460024002618E06006040E0122EE
:1005C00040210F48FFF7E4FEFFF77EFF80210D4832
:1005D000FFF7E8FE08B1601CC4B2002240210848C1
:1005E000FFF7D6FEFFF770FF701CC6B2082EE4DBE3
:1005F00015B9FFF7C1FF01E0FFF76CFF204670BDA2
:10060000001C02400018024070B50446002516E0A8
:10061000E20980210E48FFF7BBFEFFF755FF0122DC
:1006200040210C48FFF7B4FEFFF74EFF00224021A7
:100630000848FFF7ADFE6006040E681CC5B2082D21
:10064000E6DB012280210248FFF7A2FE70BD000018
:1006500000180240001C024010B5012280210C4805
:10066000FFF796FE012240210A48FFF791FEFFF7AF
:100670002BFF002280210648FFF78AFEFFF724FFA8
:10068000002240210348FFF783FEFFF71DFF10BD46
:1006900000180240001C024010B5002280210A48C8
:1006A000FFF776FEFFF710FF012240210748FFF712
:1006B0006FFEFFF709FF012280210348FFF768FE64
:1006C000FFF702FF10BD000000180240001C0240AE
:1006D00070B500240025012280211348FFF758FE41
:1006E000FFF7F2FE012240211048FFF751FEFFF70D
:1006F000EBFE09E0601CC4B2FA2C03DDFFF7CCFF6F
:10070000012507E0FFF7E0FE80210748FFF74AFEDA
:100710000028EFD100BF002240210448FFF738FE37
:10072000FFF7D2FE284670BD00180240001C0240B0
:100730001FB501244D48006840F080004B49086017
:100740000846006840F480700860012000210B46D4
:100750000A46CDE9001080214548FFF71EFE012022
:10076000009000230246010201904248FFF715FE67
:10077000FFF7D2FE002221023E48FFF709FE1420B7
:10078000FFF7FCFD012211023A48FFF701FE32207B
:10079000FFF7F4FD00208DF80800022202A9A12035
:1007A00000F078F89DF80800302803D19DF8090082
:1007B000032807D09DF80900012803D09DF80900FF
:1007C000022824D19DF809009DF8082000EB0221A1
:1007D00029A0FFF721FC012202A9002000F036FA2F
:1007E000012202A9A42000F031FA16208DF8080099
:1007F000012202A9802000F029FA0C208DF80800BF
:10080000012202A9882000F021FA00242BE0042212
:1008100002A948F2401000F0E3FA00208DF80C0025
:1008200002A918A0FFF7F8FB1948029901600220FD
:100830008DF80800012202A948F2400000F0C6FC31
:10084000012202A948F2470000F0CAFA0A20FFF785
:1008500095FD00208DF80800012202A948F2400011
:1008600000F0B4FC0024204604B010BD3038024033
:10087000001C0240002002404354502049443A25C5
:10088000780D0A004354502049443A25730D0A005C
:100890001D0001202DE9F04106460F461546FFF7E1
:1008A000DBFE7020FFF7B0FEFFF712FFF0B2FFF79C
:1008B000ABFEFFF70DFFFFF7CFFE7120FFF7A4FEA1
:1008C000FFF706FF00240BE0691EA14201D00121C1
:1008D00000E000210846FFF76BFE3855601CC4B2EB
:1008E000AC42F1DBFFF7D8FEBDE8F08171B583B013
:1008F000002001900026CD480078401CCB490870AC
:10090000084600780A2190FBF1F201FB120018B1B1
:10091000C64800780A287DDAC5A1C648FFF74EFC14
:10092000D8B9012203A948F24E1000F059FA9DF8F7
:100930000C0000F08000A8B19DF80C0000F00F0042
:10094000BD49097888420DDC00200190012201A9EF
:1009500048F24E1000F03AFC04E0012203A9022004
:10096000FFF798FF9DF80C0000F00F00002851D011
:100970009DF80C0000F00F00AF490978884249DC6F
:100980009DF80C0000F00F014FF6FF70884084B214
:10099000AA48858EE04380B240F44040A74988864B
:1009A00008468289A4480078401E0C3121F81020A6
:1009B000A248028CA0480078401E143121F8102073
:1009C0000420FFF7DBFC00200190AAE09B48808E0A
:1009D0009DF8042001219140084000282FD094A1C7
:1009E0009448FFF7EBFBE8BB95499DF8042031F8EC
:1009F0001200042202A900F0F3F9904890F8440094
:100A000000F00100E0B19DF808009DF8091000EB2E
:100A1000012000E0C3E081B288480C309DF804203A
:100A200020F812109DF80A009DF80B1000EB012031
:100A300081B2824820309DF8042020F812106BE02B
:100A40009DF808009DF8091000EB012081B27B4859
:100A500020309DF8042020F812109DF80A009DF81F
:100A60000B1000E00CE000EB012076490988081A21
:100A700081B272480C309DF8042020F812104BE02F
:100A800071499DF8042031F81200042202A9FFF7F1
:100A900001FF6A4890F8440000F00100E0B19DF8C1
:100AA00009009DF8081001F00F0100EB01206349D7
:100AB00020319DF8042021F812009DF80B009DF8CC
:100AC0000A1001F00F0100EB01205C490C319DF888
:100AD000042021F812001FE09DF809009DF808107D
:100AE00001F00F0100EB012056490988081A81B274
:100AF00052480C309DF8042020F812109DF80B008D
:100B00009DF80A1001F00F0100EB01204B49203144
:100B10009DF8042021F812009DF80400401CC0B28A
:100B200001909DF80400444909788842FFF64EAFD1
:100B300001264248808943490988884205DC3F48AC
:100B4000008C40494988884226DD9DF80C0000F061
:100B50000F0001280ADD3948C089384988810846D4
:100B6000408C088400203149087018E03248007831
:100B7000401E32490C3131F810000C3988812E4862
:100B80000078401E203131F8100020390884802080
:100B900003900846858602E000202449087024A1BD
:100BA0002448FFF70BFBE0B99DF80C0000F08F0024
:100BB000802831D12148808E00F4004030B11F4898
:100BC000808E20F400401D49888625E04FF6FF7096
:100BD0001A49888108840846808E00F4604088861F
:100BE0001AE09DF80C0000F01F00A8B91348808E91
:100BF00000F4004030B11148808E20F400400F49CD
:100C0000888609E04FF6FF700C4988810884084601
:100C1000808E00F46040888604480078F02802DD69
:100C20000A2002490870304604B070BD230001203C
:100C3000393131001D00012022000120280001204F
:100C400028BD00903C0101201EBD00902DE9F0411F
:100C500005460E4617464FF00008FFF7FDFC7020D2
:100C6000FFF7D2FCFFF734FDE8B2FFF7CDFCFFF74A
:100C70002FFD00240BE0305DFFF7C6FCFFF728FDD9
:100C80008046B8F1000F00D003E0601CC4B2BC4243
:100C9000F1DB00BFFFF700FD4046BDE8F08100003A
:100CA0001FB54148006840F080003F490860084691
:100CB000006840F480700860012000210B460A465D
:100CC000CDE9001080213948FFF767FB0120009033
:100CD00000230246010201903548FFF75EFBFFF753
:100CE0001BFC00224FF480713148FFF751FB0A20B2
:100CF000FFF744FB012211022D48FFF749FB0A20B0
:100D0000FFF73CFB00200090034602468021019043
:100D10002648FFF742FB6420FFF730FB042202A9BC
:100D200048F2401000F05CF800208DF80C0002A999
:100D300020A0FFF771F922A102A8FFF73FFA78BBC4
:100D400002208DF80800012202A948F2400000F0BC
:100D50003DFA012202A948F2470000F041F89DF84F
:100D6000080060280DDA9DF8081017A0FFF754F965
:100D70001A48808845F21051884202D1012000F0C3
:100D8000F7F90A20FFF7FAFA00208DF8080001228F
:100D900002A948F2400000F019FA002004B010BD8A
:100DA000FFE70020FAE7000030380240001C024054
:100DB000002002404354502049443A25730D0A0054
:100DC000393134370000000044656661756C742069
:100DD0005665723A25640D0A000000003C010120AE
:100DE0002DE9F04105460F461646FFF735FC282051
:100DF000FFF70AFCFFF76CFC2812FFF705FCFFF772
:100E000067FCE8B2FFF700FCFFF762FCFFF724FC89
:100E10002920FFF7F9FBFFF75BFC00240BE0711EB4
:100E2000A14201D0012100E000210846FFF7C0FBEC
:100E30003855601CC4B2B442F1DBFFF72DFCBDE8AD
:100E4000F081000071B583B0002001900026C448F5
:100E50000078401CC2490870084600780A2190FBBF
:100E6000F1F201FB120018B1BD4800780A2877DAC8
:100E7000012203A948F24E10FFF7B2FF9DF80C00C3
:100E800000F0800068B19DF80C0000F00F0006280B
:100E900007DA00200190012201A948F24E1000F06B
:100EA00095F99DF80C0000F00F00002858D09DF82F
:100EB0000C0000F00F000628D9DA9DF80C0000F0B5
:100EC0000F014FF6FF70884084B2A648858EE0433C
:100ED00080B240F44040A3498886084681898182D7
:100EE000018C018500200190E2E09E48808E9DF8F3
:100EF0000420012191400840002830D09A499DF8F3
:100F0000042031F81200042202A9FFF769FF974874
:100F1000808845F2105188423ED1924890F84400B2
:100F200000F00100E8B19DF808009DF8091000EB01
:100F3000012081B28B4820309DF8042020F8121047
:100F40009DF80A009DF80B1000EB0120C0F54870D9
:100F500081B284480C309DF8042020F81210A2E0E1
:100F6000D8E09DF808009DF8091000EB012081B23F
:100F70007C480C309DF8042020F812109DF80A00DF
:100F80009DF80B1000EB012081B2764820309DF8CF
:100F9000042020F8121086E07448808844F2423120
:100FA00088423DD16F4890F8440000F00100D0B174
:100FB0009DF808009DF8091000EB012081B26948F6
:100FC0000C309DF8042020F812109DF80A009DF8BE
:100FD0000B1000EB012081B2624820309DF8042004
:100FE00020F812105FE09DF808009DF8091000EB52
:100FF000012081B25B4820309DF8042020F81210B7
:101000009DF80A009DF80B1000EB0120C0F58870D8
:1010100081B254480C309DF8042020F8121042E0B0
:101020005248808844F2843188423CD14D4890F83F
:10103000440000F00100D0B19DF808009DF80910AF
:1010400000EB012081B247480C309DF8042020F8C5
:1010500012109DF80A009DF80B1000EB012081B2E0
:10106000404820309DF8042020F812101BE09DF825
:1010700008009DF8091000EB012081B239482030AA
:101080009DF8042020F812109DF80A009DF80B101E
:1010900000EB0120C0F5F07081B232480C309DF8B1
:1010A000042020F812109DF80400401CC0B20190EA
:1010B0009DF804000528FFF618AF0126294880890D
:1010C0002A490988884205DC2648008C2749498836
:1010D00088421CDD9DF80C0000F00F0001280ADD9D
:1010E0002048C0891F4988810846408C0884002018
:1010F0001B4908700EE01B48808A1A4988810846FF
:10110000008D0884802003900846858602E0002038
:10111000134908709DF80C0000F08F00802815D14D
:101120001048808E00F4004030B10E48808E20F4CC
:1011300000400C49888609E04FF6FF700949888114
:1011400008840846808E00F4604088860448007851
:10115000F02802DD0A2002490870304604B070BD54
:101160002400012028000120EABD00903C0101205C
:1011700038B50546002400208DF800008DF8015098
:1011800000BF09E09DF800000F49095D0844C0B2A6
:101190008DF80000601CC4B2B82CF3D39DF8000099
:1011A000C043401CC0B28DF80000B822064948F286
:1011B000470000F00BF80222694648F2FF0000F0F9
:1011C00005F8002038BD000032BD00902DE9F04147
:1011D00004460E4617464FF00008FFF73DFA282058
:1011E000FFF712FAFFF774FA2012FFF70DFAFFF774
:1011F0006FFAE0B2FFF708FAFFF76AFA00250BE092
:10120000705DFFF701FAFFF763FA8046B8F1000F4F
:1012100000D003E0681CC5B2BD42F1DB00BFFFF7A0
:101220003BFA4046BDE8F0811FB53D48006840F0FC
:1012300080003B4908600846006840F48070086000
:10124000012000210B460A46CDE9001080213548D7
:10125000FFF7A3F80120009000230246010201904D
:101260003148FFF79AF8FFF757F900224FF48071E1
:101270002D48FFF78DF80A20FFF780F801221102B0
:101280002948FFF785F80A20FFF778F8002000903A
:1012900003460246802101902248FFF77EF8642031
:1012A000FFF76CF8042202A948F2401000F054F84D
:1012B00000208DF80C0002A91CA0FEF7ADFE1FA1B6
:1012C00002A8FEF77BFF48BB02208DF80800012230
:1012D00002A948F24000FFF779FF012202A948F273
:1012E0004700FFF77DFD9DF80800412807DA9DF8CB
:1012F000081014A0FEF790FE012000F065F90A2006
:10130000FFF73CF800208DF80800012202A948F2FE
:101310004000FFF75BFF002004B010BD0120FBE799
:1013200030380240001C024000200240435450204C
:1013300049443A25730D0A0D0A000000393237314D
:101340000000000044656661756C74205665723A51
:1013500025640D0A000000002DE9F04105460F4606
:101360001646FFF779F92820FFF74EF9FFF7B0F995
:101370002812FFF749F9FFF7ABF9E8B2FFF744F994
:10138000FFF7A6F9FFF768F92920FFF73DF9FFF706
:101390009FF900240BE0711EA14201D0012100E061
:1013A00000210846FFF704F93855601CC4B2B44266
:1013B000F1DBFFF771F9BDE8F081000071B583B092
:1013C0000020019000267C480078401C7A49087073
:1013D000084600780A2190FBF1F201FB120018B1D7
:1013E000754800780A286EDA012203A948F24E10E7
:1013F000FFF7B2FF9DF80C0000F0800068B19DF887
:101400000C0000F00F000B2807DA002001900122E9
:1014100001A948F24E1000F005F99DF80C0000F00B
:101420000F0000284FD09DF80C0000F00F000B2893
:10143000D9DA9DF80C0000F00F014FF6FF708840DC
:1014400084B25E48858EE04380B240F440405B4900
:10145000888608468189C183018C418600200190DD
:1014600053E05648808E9DF80420012191400840A9
:1014700040B353499DF8042031F81200062202A916
:10148000FFF76AFF4D4890F8440000F00100D8B122
:101490009DF80A009DF80B1000EB012081B247482F
:1014A00020309DF8042020F812109DF808009DF8C7
:1014B000091000EB012081B240480C309DF8042057
:1014C00020F812101CE051E09DF80A009DF80B1066
:1014D00000EB0120C0F5487081B238480C309DF80F
:1014E000042020F812109DF808009DF8091000EB68
:1014F000012081B2314820309DF8042020F81210DC
:101500009DF80400401CC0B201909DF804000A2818
:10151000A7DB0126294880892A490988884205DCF9
:101520002648008C2749498888421CDD9DF80C001C
:1015300000F00F0001280ADD2048C0891F4988817A
:101540000846408C088400201B4908700EE01B48A8
:10155000C08B1A4988810846408E088480200390F9
:101560000846858602E00020134908709DF80C00AB
:1015700000F08F00802815D11048808E00F40040C4
:1015800030B10E48808E20F400400C49888609E076
:101590004FF6FF700949888108840846808E00F460
:1015A0006040888604480078F02802DD0A2002495D
:1015B0000870304604B070BD2500012028000120CD
:1015C000AEBE00903C01012038B505460024002045
:1015D0008DF800008DF8015000BF09E09DF8000073
:1015E0000F49095D0844C0B28DF80000601CC4B208
:1015F000B82CF3D39DF80000C043401CC0B28DF856
:101600000000BA22064948F2470000F00BF8022217
:10161000694648F2FF0000F005F8002038BD0000E0
:10162000F4BD00902DE9F04104460E4617464FF0F8
:101630000008FFF711F82820FEF7E6FFFFF748F84B
:101640002012FEF7E1FFFFF743F8E0B2FEF7DCFF00
:10165000FFF73EF800250BE0705DFEF7D5FFFFF7C2
:1016600037F88046B8F1000F00D003E0681CC5B21F
:10167000BD42F1DB00BFFFF70FF84046BDE8F08147
:1016800010B5002210211248FEF782FE10480068B3
:1016900020F440600E4908600846006840F480600D
:1016A0000860002220210A48FEF772FE0220FEF7A1
:1016B0006AFE012210210648FEF76AFE0220FEF7AC
:1016C00062FE002210210248FEF762FE10BD0000FB
:1016D000001C02401CB50D48006840F080000B491A
:1016E0000860012000900023024630210190084844
:1016F000FEF753FE012210210548FEF749FE0122A4
:1017000020210348FEF744FE1CBD00003038024093
:10171000001C024010B5002210211248FEF738FECE
:101720001048006820F440600E49086008460068D0
:1017300040F480600860012220210A48FEF728FE5C
:101740000220FEF720FE012210210648FEF720FEAF
:101750000220FEF718FE002210210248FEF718FEB4
:1017600010BD0000001C024070B50546002418485A
:10177000006820F440601649086008460068086068
:1017800000261AE0002210211148FEF701FE022077
:10179000FEF7F9FD012210210D48FEF7F9FD600664
:1017A000040E20210A48FEF7FDFD08B1601CC4B2FA
:1017B0000120FEF7E8FD701CC6B2082EE2DB15B969
:1017C000FFF7A8FF01E0FFF75BFF204670BD0000B8
:1017D000001C024070B504461848006820F44060C0
:1017E000164908600846006840F4806008600022DE
:1017F00010211248FEF7CCFD00251BE0E209202154
:101800000E48FEF7C5FD6006040E0220FEF7BBFD84
:10181000012210210948FEF7BBFD0220FEF7B3FDAF
:10182000002210210548FEF7B3FD0220FEF7ABFDB4
:10183000681CC5B2082DE1DB70BD0000001C024031
:1018400010B51348006820F440601149086008464C
:10185000006840F480600860012220210C48FEF7F7
:1018600097FD012210210A48FEF792FD0420FEF7A1
:101870008AFD002220210648FEF78AFD0420FEF79B
:1018800082FD002210210248FEF782FD10BD0000FB
:10189000001C024010B51348006820F44060114954
:1018A00008600846006840F480600860002210214B
:1018B0000C48FEF76DFD002220210A48FEF768FD66
:1018C0000420FEF760FD012210210648FEF760FDAE
:1018D0000420FEF758FD012220210248FEF758FDA2
:1018E00010BD0000001C024010B50024174800681D
:1018F00020F440601549086008460068086001222D
:1019000020211248FEF744FD0120FEF73CFD012294
:1019100010210E48FEF73CFD0120FEF734FD07E0E4
:10192000601CC4B2FA2C03DDFFF7B4FF012010BD28
:1019300020210648FEF736FD0028F1D100221021B3
:101940000248FEF725FD0020F1E70000001C0240E0
:101950001CB51748006840F00100154908600846AA
:10196000006840F0040008600846006840F080000D
:101970000860022000210B460A46CDE90010012133
:101980000C48FEF70AFD012000210B460A46CDE96E
:10199000001041030848FEF700FD012000210B461E
:1019A0000A46CDE900100C210448FEF7F6FC1CBDE8
:1019B000303802400000024000080240001C024093
:1019C00010B5044614B101202D4908702C48007848
:1019D000002839D008212B48FEF7E4FC80B104210F
:1019E0002848FEF7DFFC58B14FF400512648FEF7B7
:1019F000D9FC28B101212548FEF7D4FC012823D1C8
:101A00000A20FEF7BBFC00201D49087008211D4874
:101A1000FEF7C8FC08B9012010BD04211948FEF7E3
:101A2000C1FC08B90220F7E74FF400511648FEF751
:101A3000B9FC08B90320EFE701211448FEF7B2FC16
:101A400001281BD10420E7E708210E48FEF7AAFC75
:101A5000012813D104210B48FEF7A4FC01280DD165
:101A600041030948FEF79EFC012807D101210748E0
:101A7000FEF798FC10B90120014908700020CBE75F
:101A80001C000120001C024000080240000002402F
:101A900070B5044600260D4805880D48006818B149
:101AA000204603F0FBF90FE0084840884543002139
:101AB000084602F0EBFF03F0BFF9002602E00549FB
:101AC0000C80761CAE42FAD370BD00003C010120B0
:101AD0004C0101200000086010B504466248847182
:101AE0006248006850B1204603F036FA5F48C08A69
:101AF0005D4908805D48008B488010BD002C57D19F
:101B0000F020594908804FF4A0704880084680882A
:101B100049F2413188420BD05348808845F2103158
:101B2000884205D05048808847F28971884214D194
:101B30002C204D4908812A2048812B208881084685
:101B4000808845F21031884206D14FF4A070464992
:101B500008804FF4F070488081E04348808845F267
:101B60001051884210D14FF430503F4908814FF452
:101B7000285048814FF42C5088814FF4F070088031
:101B80004FF4487048806AE03748808841F6631116
:101B9000884264D12C20344908812B2048812A2096
:101BA00088814FF4F07008804FF44870488056E008
:101BB0004FF4A0702C490880F020488008468088A7
:101BC00049F2413188420BD02748808845F21031D4
:101BD000884205D02448808847F28971884207D11D
:101BE0002C20214908812A2048812B20888129E046
:101BF0001D48808845F21051884210D14FF4305072
:101C0000194908814FF4285048814FF42C5088819D
:101C10004FF4487008804FF4F070488012E012488A
:101C2000808841F6631188420CD12C200E4908812E
:101C30002A2048812B2088814FF4487008804FF477
:101C4000F07048800848808845F21031884206D1FB
:101C50004FF4F070044908804FF4A07048800020D1
:101C600002F0D4FD00BF48E73C0101204C010120F7
:101C70002DE9FF4F85B081468A46002004900390ED
:101C80000798A0EB09050898A0EB0A06CDF8089084
:101C9000CDF804A0002D01DD012705E00DB90027D6
:101CA00002E04FF0FF376D42002E02DD4FF00108D9
:101CB00006E016B94FF0000802E04FF0FF38764218
:101CC000B54201DD2C4600E034464FF0000B21E028
:101CD000019A91B2029A90B200F022F80498284436
:101CE00004900398304403900498A04205DD0498C2
:101CF000001B04900298384402900398A04205DD2E
:101D00000398001B03900198404401900BF10100DF
:101D10001FFA80FB601C8345DADD09B0BDE8F08F57
:101D200070B504460D460A48006830B10948294696
:101D30000268204603F026F909E02946204602F011
:101D4000A5FE03F079F8034800880349088070BDB8
:101D50004C0101200C000120000008602DE9F04733
:101D600006460F469046002445460320A0EB48094E
:101D70003CE07A1B91B2321990B2FFF7D1FF3A1BC7
:101D800091B2721990B2FFF7CBFF3A1991B2721962
:101D900090B2FFF7C5FF7A1991B2321990B2FFF7EE
:101DA000BFFF7A1991B2321B90B2FFF7B9FF3A190F
:101DB00091B2721B90B2FFF7B3FF7A1B91B2321B44
:101DC00090B2FFF7ADFF3A1B91B2721B90B2FFF7D2
:101DD000A7FF641CB9F1000F03DAA000801D814445
:101DE00004E0601B80000A3081446D1EAC42C0DDFF
:101DF000BDE8F08770B504460D46164646480068B3
:101E000028B132462946204603F0BCF870BD43484D
:101E1000808849F2413188420BD04048808845F2A1
:101E20001031884205D03D48808847F28971884248
:101E300014D13A49488902F0F3FF201202F0E4FF7E
:101E4000E0B202F0E1FF3549888902F0E9FF28128B
:101E500002F0DAFFE8B202F0D7FF54E02F488088A2
:101E600045F21051884220D12C49488902F0D8FF10
:101E7000201202F0C9FF29494989491C88B202F0A1
:101E8000CFFFE0B202F0C0FF2449888902F0C8FF0A
:101E9000281202F0B9FF21498989491C88B202F051
:101EA000BFFFE8B202F0B0FF2DE01C48808841F689
:101EB0006311884227D11948807920B917480088D2
:101EC000401E001B84B21549488902F0A9FF201268
:101ED00002F09AFFE0B202F097FF201202F094FFA6
:101EE000E0B202F091FF0D49888902F099FF2812B3
:101EF00002F08AFFE8B202F087FF281202F084FFA6
:101F0000E8B202F081FF0548008905490880891C74
:101F10000E8000BF7AE700004C0101203C01012047
:101F2000FEFF07602DE9F84F05460E461746984616
:101F3000DDF828904FF0000B1448006840B143468C
:101F40003A4631462846CDF8009003F043F81BE0AE
:101F5000781B401C1FFA80FB344613E021462846BC
:101F600002F094FD02F068FF4FF0000A06E0084915
:101F7000A1F800900AF101001FFA80FADA45F6DBB9
:101F8000601C84B24445E9DDBDE8F88F4C010120B6
:101F9000000008601CB503F0B9FBFE4988800846C4
:101FA000808840B108468188FBA0FEF735F803F031
:101FB000B5F802F096BBFC48006840F00200FA4910
:101FC00008600846006840F018000860F6480830CD
:101FD000006840F00100F449083108600120032145
:101FE00000230246CDE900102021F048FEF7D5F984
:101FF0000120032100230222CDE900104EF2B3712B
:10200000EB48FEF7CAF90120032100230222CDE9A3
:1020100000104FF68071E748FEF7BFF90C2200214F
:10202000E348FEF7C4F90C220121E148FEF7BFF9AD
:102030000C220421DE48FEF7BAF90C220521DC4807
:10204000FEF7B5F90C220721D948FEF7B0F90C22AA
:102050000821D748FEF7ABF90C220921D448FEF736
:10206000A6F90C220A21D248FEF7A1F90C220D2173
:10207000CF48FEF79CF90C220E21CD48FEF797F9C8
:102080000C220F21CA48FEF792F90C220721C948F9
:10209000FEF78DF90C220821C648FEF788F90C22BC
:1020A0000921C448FEF783F90C220A21C148FEF732
:1020B0007EF90C220B21BF48FEF779F90C2211465C
:1020C000BC48FEF774F90C220D21BA48FEF76FF9EF
:1020D0000C220E21B748FEF76AF90C220F21B548F1
:1020E000FEF765F900204FF0204108604860B249D2
:1020F00008604FF02040006840F480504FF02041CD
:1021000008600846006840F480400860084600689F
:1021100040F0100008600846406848600846406883
:1021200040F00F0048600846406840F4A040486016
:10213000A1480068C1F804010846D0F8040140F045
:102140000F00C1F804010846D0F8040140F47060A3
:10215000C1F804010846006840F001000860322020
:10216000FEF70CF9D32002F05BFE02F015FB894963
:10217000888002F011FB8749888002F00DFB8549B9
:102180008880084680884FF6FF7101EA0020814967
:10219000888002F001FB7F49898808437D49888057
:1021A0000846808849F2413188427DD0042002F0FF
:1021B00037FE02F0F1FA7749888002F0EDFA7549AE
:1021C000888002F0E9FA73498880084680884FF6D3
:1021D000FF7101EA00206F49888002F0DDFA6D4945
:1021E000898808436B4988800846808848F25251A4
:1021F000884203D147F289706649888065488088A3
:1022000047F289718842D0D0D42002F009FE02F052
:10221000C3FA6049888002F0BFFA5E49888002F004
:10222000BBFA5C498880084680884FF6FF7101EA56
:1022300000205849888002F0AFFA5649898808433F
:10224000544988800846808845F2103188426BD016
:1022500055214FF4704002F0F9FDAA214FF2010020
:1022600002F0F4FD52214FF2020002F0EFFD0821CE
:102270004FF2030002F0EAFD01214FF2040002F0E8
:10228000E5FD4FF4454002F0CBFD02F085FA4149EF
:102290008880084680884FF6FF7101EA00203D499A
:1022A00088804CF2015000E03EE002F0B9FD02F0FF
:1022B00073FA384989880843364988800520FEF733
:1022C0005DF834488088B0F5004F03D145F21050D6
:1022D000304988802F48808845F21051884223D0A9
:1022E000A12002F09DFD02F057FA2A49888002F0F1
:1022F00053FA28498880084680884FF6FF7101EA22
:1023000000202449888002F047FA2249898808433E
:10231000204988800846808845F26171884203D14F
:1023200041F663101B4988801A4881881AA0FDF77E
:1023300073FE1848808849F2413188427ED1CF200F
:1023400002F06EFD002002F05FFDC12002F05CFD96
:10235000302002F059FDED2002F062FD642002F011
:1023600053FD032002F050FD122002F04DFD8120AC
:1023700002F04AFDE82002F053FD852002F044FD02
:10238000102002F041FD7A2002F03EFDCB2002F049
:1023900047FD13E03C010120204C43442049443ACE
:1023A00025780D0A00000000303802400004024089
:1023B000000C024000100240040100A0392002F08D
:1023C00023FD2C2002F020FD002002F01DFD342012
:1023D00002F01AFD022002F017FDF72002F020FDA6
:1023E000202002F011FDEA2002F01AFD002002F088
:1023F0000BFD002002F008FDC02002F011FD1B20A3
:1024000002F002FDC12002F00BFD012002F0FCFCF5
:10241000C52002F005FD302002F0F6FC302002F06D
:10242000F3FCC72002F0FCFCB72002F0EDFC3620E4
:1024300002F0F6FC482002F0E7FC00E0ABE03A20B6
:1024400002F0EEFC552002F0DFFCB12002F0E8FCC7
:10245000002002F0D9FC1A2002F0D6FCB62002F0CF
:10246000DFFC0A2002F0D0FCA22002F0CDFCF2201A
:1024700002F0D6FC002002F0C7FC262002F0D0FCBF
:10248000012002F0C1FCE02002F0CAFC0F2002F0A3
:10249000BBFC2A2002F0B8FC282002F0B5FC082082
:1024A00002F0B2FC0E2002F0AFFC082002F0ACFCFF
:1024B000542002F0A9FCA92002F0A6FC432002F05F
:1024C000A3FC0A2002F0A0FC0F2002F09DFC0020DB
:1024D00002F09AFC002002F097FC002002F094FC2D
:1024E000002002F091FCE12002F09AFC002002F0B2
:1024F0008BFC152002F088FC172002F085FC0720D9
:1025000002F082FC112002F07FFC062002F07CFC2D
:102510002B2002F079FC562002F076FC3C2002F0E1
:1025200073FC052002F070FC102002F06DFC0F20FF
:1025300002F06AFC3F2002F067FC3F2002F064FCDE
:102540000F2002F061FC2B2002F06AFC002002F058
:102550005BFC002002F058FC012002F055FC3F20FB
:1025600002F052FC2A2002F05BFC002002F04CFC3E
:10257000002002F049FC002002F046FCEF2002F0AF
:1025800043FC112002F04CFC7820FDF7F7FE2920D7
:1025900002F046FC0DE5FE48808847F289718842CA
:1025A0007ED1112002F03CFC7820FDF7E7FE3620BA
:1025B00002F036FC002002F027FC3A2002F030FC4A
:1025C000052002F021FCB22002F02AFC0C2002F0CF
:1025D0001BFC0C2002F018FC002002F015FC33203C
:1025E00002F012FC332002F00FFCB72002F018FCBE
:1025F000352002F009FCBB2002F012FC322002F070
:1026000003FCC02002F00CFC0C2002F0FDFBC220F9
:1026100002F006FC012002F0F7FBC32002F000FCF0
:10262000102002F0F1FBC42002F0FAFB202002F09F
:10263000EBFBC62002F0F4FB0F2002F0E5FBD020FC
:1026400002F0EEFBA42002F0DFFBA12002F0DCFB95
:10265000E02002F0E5FBD02002F0D6FB002002F0E3
:10266000D3FB022002F0D0FB072002F0CDFB0A20B2
:1026700002F0CAFB282002F0C7FB322002F0C4FBA4
:10268000442002F0C1FB422002F0BEFB062002F013
:10269000BBFB0E2002F0B8FB122002F0B5FB00E0FD
:1026A00054E0142002F0B0FB172002F0ADFBE12053
:1026B00002F0B6FBD02002F0A7FB002002F0A4FB42
:1026C000022002F0A1FB072002F09EFB0A2002F08C
:1026D0009BFB282002F098FB312002F095FB542050
:1026E00002F092FB472002F08FFB0E2002F08CFBE1
:1026F0001C2002F089FB172002F086FB1B2002F051
:1027000083FB1E2002F080FB2A2002F089FB0020C0
:1027100002F07AFB002002F077FB002002F074FB4D
:10272000EF2002F071FB2B2002F07AFB002002F078
:102730006BFB002002F068FB012002F065FB3F20EC
:1027400002F062FB292002F06BFB32E490488088A3
:1027500045F21031884240F07C87ED2002F060FBAA
:10276000012002F051FBFE2002F04EFBEE2002F0B1
:1027700057FBDE2002F048FB212002F045FBF12050
:1027800002F04EFB012002F03FFBDF2002F048FB8D
:10279000102002F039FBC42002F042FB8F2002F02F
:1027A00033FBC62002F03CFB002002F02DFBE220B0
:1027B00002F02AFBE22002F027FBE22002F024FBD9
:1027C000BF2002F02DFBAA2002F01EFBB02002F079
:1027D00027FB0D2002F018FB002002F015FB0D2056
:1027E00002F012FB002002F00FFB112002F00CFBA4
:1027F000002002F009FB192002F006FB002002F085
:1028000003FB212002F000FB002002F0FDFA2D2046
:1028100002F0FAFA002002F0F7FA3D2002F0F4FA92
:10282000002002F0F1FA5D2002F0EEFA002002F042
:10283000EBFA5D2002F0E8FA002002F0E5FAB120A0
:1028400002F0EEFA802002F0DFFA002002F0DCFA5B
:102850008B2002F0D9FA002002F0D6FA962002F07E
:10286000D3FA002002F0D0FAB22002F0D9FA002008
:1028700002F0CAFA002002F0C7FA022002F0C4FAFD
:10288000002002F0C1FA032002F0BEFA002002F09C
:10289000BBFAB32002F0C4FA002002F0B5FA00201F
:1028A00002F0B2FA002002F0AFFA002002F0ACFA17
:1028B000002002F0A9FA002002F0A6FA002002F09F
:1028C000A3FA002002F0A0FA002002F09DFA0020F6
:1028D00002F09AFA002002F097FA002002F094FA2F
:1028E000002002F091FA002002F08EFA002002F09F
:1028F0008BFA002002F088FA002002F085FA00200E
:1029000002F082FA002002F07FFA002002F07CFA46
:10291000002002F079FA002002F076FA002002F09E
:1029200073FA002002F070FAB42002F079FA8B20DA
:1029300002F06AFA002002F067FA962002F064FAC8
:10294000002002F061FAA12002F05EFA002002F0FD
:102950005BFAB52002F064FA022002F055FA00207A
:1029600002F052FA032002F04FFA002002F04CFA73
:10297000042002F049FA002002F046FAB62002F0E4
:102980004FFA002002F040FA002002F03DFA01E088
:102990003C010120B72002F043FA002002F034FA93
:1029A000002002F031FA3F2002F02EFA002002F05F
:1029B0002BFA5E2002F028FA002002F025FA6420AB
:1029C00002F022FA002002F01FFA8C2002F01CFA1A
:1029D000002002F019FAAC2002F016FA002002F0F2
:1029E00013FADC2002F010FA002002F00DFA702039
:1029F00002F00AFA002002F007FA902002F004FA2E
:102A0000002002F001FAEB2002F0FEF9002002F0B3
:102A1000FBF9DC2002F0F8F9002002F0F5F9B8200B
:102A200002F0FEF9002002F0EFF9002002F0ECF9CC
:102A3000002002F0E9F9002002F0E6F9002002F09F
:102A4000E3F9002002F0E0F9002002F0DDF90020B7
:102A500002F0DAF9BA2002F0E3F9242002F0D4F906
:102A6000002002F0D1F9002002F0CEF9002002F09F
:102A7000CBF9C12002F0D4F9202002F0C5F90020E2
:102A800002F0C2F9542002F0BFF9002002F0BCF9B4
:102A9000FF2002F0B9F9002002F0B6F9C22002F0DE
:102AA000BFF90A2002F0B0F9002002F0ADF90420CD
:102AB00002F0AAF9002002F0A7F9C32002F0B0F951
:102AC0003C2002F0A1F9002002F09EF93A2002F029
:102AD0009BF9002002F098F9392002F095F90020C6
:102AE00002F092F9372002F08FF9002002F08CF901
:102AF0003C2002F089F9002002F086F9362002F02D
:102B000083F9002002F080F9322002F07DF90020E4
:102B100002F07AF92F2002F077F9002002F074F920
:102B20002C2002F071F9002002F06EF9292002F049
:102B30006BF9002002F068F9262002F065F9002008
:102B400002F062F9242002F05FF9002002F05CF943
:102B5000242002F059F9002002F056F9232002F057
:102B600053F9002002F050F93C2002F04DF900200A
:102B700002F04AF9362002F047F9002002F044F949
:102B8000322002F041F9002002F03EF92F2002F03D
:102B90003BF9002002F038F92C2002F035F9002032
:102BA00002F032F9292002F02FF9002002F02CF96E
:102BB000262002F029F9002002F026F9242002F054
:102BC00023F9002002F020F9242002F01DF9002052
:102BD00002F01AF9232002F017F9002002F014F98C
:102BE000C42002F01DF9622002F00EF9002002F06C
:102BF0000BF9052002F008F9002002F005F9842005
:102C000002F002F9002002F0FFF8F02002F0FCF8D8
:102C1000002002F0F9F8182002F0F6F8002002F087
:102C2000F3F8A42002F0F0F8002002F0EDF81820EC
:102C300002F0EAF8002002F0E7F8502002F0E4F891
:102C4000002002F0E1F80C2002F0DEF8002002F093
:102C5000DBF8172002F0D8F8002002F0D5F8952014
:102C600002F0D2F8002002F0CFF8F32002F0CCF806
:102C7000002002F0C9F8E62002F0C6F8002002F0B9
:102C8000C3F8C52002F0CCF8322002F0BDF80020D5
:102C900002F0BAF8442002F0B7F8002002F0B4F8CD
:102CA000652002F0B1F8002002F0AEF8762002F0C4
:102CB000ABF8002002F0A8F8882002F0A5F8002068
:102CC00002F0A2F8C62002F0ABF8202002F09CF837
:102CD000002002F099F8172002F096F8002002F088
:102CE00093F8012002F090F8002002F08DF8C72040
:102CF00002F096F8002002F087F8002002F084F835
:102D0000002002F081F8002002F07EF8C82002F0D6
:102D100087F8002002F078F8002002F075F8002013
:102D200002F072F8002002F06FF8C92002F078F883
:102D3000002002F069F8002002F066F8002002F09E
:102D400063F8002002F060F8002002F05DF8002037
:102D500002F05AF8002002F057F8002002F054F870
:102D6000002002F051F8002002F04EF8002002F09E
:102D70004BF8002002F048F8002002F045F800204F
:102D800002F042F8002002F03FF8002002F03CF888
:102D9000E02002F045F8162002F036F8002002F09C
:102DA00033F81C2002F030F8002002F02DF821202A
:102DB00002F02AF8002002F027F8362002F024F86A
:102DC000002002F021F8462002F01EF8002002F058
:102DD0001BF8522002F018F8002002F015F86420C9
:102DE00002F012F8002002F00FF87A2002F00CF83E
:102DF000002002F009F88B2002F006F8002002F013
:102E000003F8992002F000F8002001F0FDFFA8204F
:102E100001F0FAFF002001F0F7FFB92001F0F4FF04
:102E2000002001F0F1FFC42001F0EEFF002001F0CE
:102E3000EBFFCA2001F0E8FF002001F0E5FFD220FF
:102E400001F0E2FF002001F0DFFFD92001F0DCFFFC
:102E5000002001F0D9FFE02001F0D6FF002001F0B2
:102E6000D3FFF32001F0D0FF002001F0CDFFE120DF
:102E700001F0D6FF162001F0C7FF002001F0C4FFCB
:102E80001C2001F0C1FF002001F0BEFF222001F054
:102E9000BBFF002001F0B8FF362001F0B5FF002095
:102EA00001F0B2FF452001F0AFFF002001F0ACFFC0
:102EB000522001F0A9FF002001F0A6FF642001F0DC
:102EC000A3FF002001F0A0FF7A2001F09DFF002069
:102ED00001F09AFF8B2001F097FF002001F094FF92
:102EE000992001F091FF002001F08EFFA82001F051
:102EF0008BFF002001F088FFB92001F085FF002042
:102F000001F082FFC42001F07FFF002001F07CFF70
:102F1000CA2001F079FF002001F076FFD22001F0F5
:102F200073FF002001F070FFD82001F06DFF00203A
:102F300001F06AFFE02001F067FF002001F064FF6C
:102F4000F32001F061FF002001F05EFFE22001F0BC
:102F500067FF052001F058FF002001F055FF0B200E
:102F600001F052FF002001F04FFF1B2001F04CFF49
:102F7000002001F049FF342001F046FF002001F05D
:102F800043FF442001F040FF002001F03DFF4F20AF
:102F900001F03AFF002001F037FF612001F034FF1B
:102FA000002001F031FF792001F02EFF002001F018
:102FB0002BFF882001F028FF002001F025FF97203B
:102FC00001F022FF002001F01FFFA62001F01CFFEE
:102FD000002001F019FFB72001F016FF002001F0DA
:102FE00013FFC22001F010FF002001F00DFFC720E9
:102FF00001F00AFF002001F007FFD12001F004FFDB
:10300000002001F001FFD62001F0FEFE002001F0BB
:10301000FBFEDD2001F0F8FE002001F0F5FEF320BC
:1030200001F0F2FE002001F0EFFEE32001F0F8FED7
:10303000052001F0E9FE002001F0E6FE0A2001F083
:10304000E3FE002001F0E0FE1C2001F0DDFE002088
:1030500001F0DAFE332001F0D7FE002001F0D4FEAB
:10306000442001F0D1FE002001F0CEFE502001F0FE
:10307000CBFE002001F0C8FE622001F0C5FE00205A
:1030800001F0C2FE782001F0BFFE002001F0BCFE7E
:10309000882001F0B9FE002001F0B6FE972001F073
:1030A000B3FE002001F0B0FEA62001F0ADFE00202E
:1030B00001F0AAFEB72001F0A7FE002001F0A4FE57
:1030C000C22001F0A1FE002001F09EFEC72001F009
:1030D0009BFE002001F098FED12001F095FE00201B
:1030E00001F092FED52001F08FFE002001F08CFE51
:1030F000DD2001F089FE002001F086FEF32001F0C2
:1031000083FE002001F080FEE42001F089FE012012
:1031100001F07AFE002001F077FE012001F074FE3C
:10312000002001F071FE022001F06EFE002001F08F
:103130006BFE2A2001F068FE002001F065FE3C20B5
:1031400001F062FE002001F05FFE4B2001F05CFE0A
:10315000002001F059FE5D2001F056FE002001F034
:1031600053FE742001F050FE002001F04DFE84203B
:1031700001F04AFE002001F047FE932001F044FEDA
:10318000002001F041FEA22001F03EFE002001F0EF
:103190003BFEB32001F038FE002001F035FEBE20DA
:1031A00001F032FE002001F02FFEC42001F02CFEC1
:1031B000002001F029FECD2001F026FE002001F0C4
:1031C00023FED32001F020FE002001F01DFEDD20B3
:1031D00001F01AFE002001F017FEF32001F014FEAA
:1031E000002001F011FEE52001F01AFE002001F0A0
:1031F0000BFE002001F008FE002001F005FE00207B
:1032000001F002FE022001F0FFFD002001F0FCFDB4
:10321000292001F0F9FD002001F0F6FD3C2001F02D
:10322000F3FD002001F0F0FD4B2001F0EDFD00204A
:1032300001F0EAFD5D2001F0E7FD002001F0E4FD72
:10324000742001F0E1FD002001F0DEFD842001F09A
:10325000DBFD002001F0D8FD932001F0D5FD00201A
:1032600001F0D2FDA22001F0CFFD002001F0CCFD45
:10327000B32001F0C9FD002001F0C6FDBE2001F021
:10328000C3FD002001F0C0FDC42001F0BDFD002001
:1032900001F0BAFDCD2001F0B7FD002001F0B4FD32
:1032A000D32001F0B1FD002001F0AEFDDC2001F0E3
:1032B000ABFD002001F0A8FDF32001F0A5FD0020EA
:1032C00001F0A2FDE62001F0ABFD112001F09CFD14
:1032D000002001F099FD342001F096FD002001F05E
:1032E00093FD562001F090FD002001F08DFD762029
:1032F00001F08AFD002001F087FD772001F084FDB8
:10330000002001F081FD662001F07EFD002001F02B
:103310007BFD882001F078FD002001F075FD9920EB
:1033200001F072FD002001F06FFDBB2001F06CFD8B
:10333000002001F069FD992001F066FD002001F0F8
:1033400063FD662001F060FD002001F05DFD552069
:1033500001F05AFD002001F057FD552001F054FD09
:10336000002001F051FD452001F04EFD002001F04C
:103370004BFD432001F048FD002001F045FD4420B5
:1033800001F042FD002001F03FFDE72001F048FD83
:10339000322001F039FD002001F036FD552001F00A
:1033A00033FD002001F030FD762001F02DFD0020DE
:1033B00001F02AFD662001F027FD002001F024FD28
:1033C000672001F021FD002001F01EFD672001F0C3
:1033D0001BFD002001F018FD872001F015FD0020E5
:1033E00001F012FD992001F00FFD002001F00CFD0D
:1033F000BB2001F009FD002001F006FD992001F03D
:1034000003FD002001F000FD772001F0FDFC00200D
:1034100001F0FAFC442001F0F7FC002001F0F4FC7C
:10342000562001F0F1FC002001F0EEFC232001F019
:10343000EBFC002001F0E8FC332001F0E5FC00206B
:1034400001F0E2FC452001F0DFFC002001F0DCFC93
:10345000E82001F0E5FC002001F0D6FC002001F09E
:10346000D3FC992001F0D0FC002001F0CDFC872096
:1034700001F0CAFC002001F0C7FC882001F0C4FC68
:10348000002001F0C1FC772001F0BEFC002001F01B
:10349000BBFC662001F0B8FC002001F0B5FC8820E0
:1034A00001F0B2FC002001F0AFFCAA2001F0ACFC5E
:1034B000002001F0A9FCBB2001F0A6FC002001F0D7
:1034C000A3FC992001F0A0FC002001F09DFC6620E7
:1034D00001F09AFC002001F097FC552001F094FCCB
:1034E000002001F091FC552001F08EFC002001F03D
:1034F0008BFC442001F088FC002001F085FC442076
:1035000001F082FC002001F07FFC552001F07CFCE2
:10351000002001F079FCE92001F082FCAA2001F0F2
:1035200073FC002001F070FC002001F06DFC002015
:1035300001F06AFC002001F073FCAA2001F064FC99
:10354000CF2001F06DFC002001F05EFC002001F0B6
:103550005BFC002001F058FC002001F055FC00202D
:1035600001F052FC002001F04FFC002001F04CFC67
:10357000002001F049FC002001F046FC002001F091
:1035800043FC002001F040FC002001F03DFC002045
:1035900001F03AFC002001F037FC002001F034FC7F
:1035A000002001F031FC002001F02EFCF02001F0A1
:1035B00037FC002001F028FC502001F025FC002001
:1035C00001F022FC002001F01FFC002001F01CFC97
:1035D000F32001F025FC002001F016FCF92001F099
:1035E0001FFC062001F010FC102001F00DFC29202A
:1035F00001F00AFC002001F007FC3A2001F010FC69
:10360000552001F001FC112001F00AFC6420FCF7B8
:10361000B5FE292001F004FC352001F001FC00205A
:1036200001F0F2FB512001F0FBFBFF2001F0ECFB6D
:10363000532001F0F5FB2C2001F0E6FB552001F0B2
:10364000EFFB822001F0E0FB2C2001F0E9FB01F010
:1036500048B8FE48808845F2105188427ED15521F5
:103660004FF4704001F0F2FBAA214FF2010001F08B
:10367000EDFB52214FF2020001F0E8FB08214FF26E
:10368000030001F0E3FB01214FF2040001F0DEFB37
:103690000D214FF4304001F0D9FB0D214BF2010018
:1036A00001F0D4FB0D214BF2020001F0CFFB3421DD
:1036B0004FF4364001F0CAFB34214BF2016001F0B7
:1036C000C5FB34214BF2026001F0C0FB0D214FF429
:1036D000314001F0BBFB0D214BF2011001F0B6FBB4
:1036E0000D214BF2021001F0B1FB34214FF43740B1
:1036F00001F0ACFB34214BF2017001F0A7FB342147
:103700004BF2027001F0A2FB00214FF4324001F0B5
:103710009DFB00214BF2012001F098FB00214BF2B0
:10372000022001F093FB24214FF4384001F08EFB7E
:1037300024214BF6010001F089FB24214BF6020005
:1037400001F084FB01214FF43F4001F07FFB0F218A
:103750004FF4334001F07AFB0F2100E0FEE34BF21F
:10376000013001F073FB0F214BF2023001F06EFBD0
:1037700034214FF4394001F069FB34214BF601103C
:1037800001F064FB34214BF6021001F05FFB0821CD
:103790004FF4354001F05AFB08214BF2015001F083
:1037A00055FB08214BF2025001F050FB03214FF46E
:1037B000424001F04BFB24214FF43A4001F046FB1C
:1037C00024214BF6012001F041FB24214BF602207D
:1037D00001F03CFB00214FF43C4001F037FB782125
:1037E0004BF6014001F032FB00214BF6024001F0A4
:1037F0002DFB00214FF43D4001F028FB78214BF6D2
:10380000015001F023FB00214BF6025001F01EFB9A
:1038100000214FF43E4001F019FB64214BF601609A
:1038200001F014FB00214FF4514001F00FFB332154
:103830004DF2011001F00AFB00214DF2021001F0DF
:1038400005FB34214DF2031001F000FB00214DF285
:10385000041001F0FBFA3A214DF2051001F0F6FADE
:1038600000214DF2061001F0F1FA4A214DF2071045
:1038700001F0ECFA00214DF2081001F0E7FA5C21AA
:103880004DF2091001F0E2FA00214DF20A1001F0A8
:10389000DDFA81214DF20B1001F0D8FA00214DF232
:1038A0000C1001F0D3FAA6214DF20D1001F0CEFA62
:1038B00000214DF20E1001F0C9FAE5214DF20F1072
:1038C00001F0C4FA01214DF2101001F0BFFA1321EA
:1038D0004DF2111001F0BAFA01214DF2121001F06F
:1038E000B5FA54214DF2131001F0B0FA01214DF256
:1038F000141001F0ABFA82214DF2151001F0A6FA76
:1039000001214DF2161001F0A1FACA214DF2171053
:1039100001F09CFA02214DF2181001F097FA0021F3
:103920004DF2191001F092FA02214DF21A1001F035
:103930008DFA01214DF21B1001F088FA02214DF29F
:103940001C1001F083FA34214DF21D1001F07EFAB3
:1039500002214DF21E1001F079FA67214DF21F107D
:1039600001F074FA02214DF2201001F06FFA842167
:103970004DF2211001F06AFA02214DF2221001F0FD
:1039800065FAA4214DF2231001F060FA02214DF2F4
:10399000241001F05BFAB7214DF2251001F056FA20
:1039A00002214DF2261001F051FACF214DF22710DD
:1039B00001F04CFA02214DF2281001F047FADE2105
:1039C0004DF2291001F042FA02214DF22A1001F0C5
:1039D0003DFAF2214DF22B1001F038FA02214DF29E
:1039E0002C1001F033FAFE214DF22D1001F02EFAC9
:1039F00003214DF22E1001F029FA10214DF22F1063
:103A000001F024FA03214DF2301001F01FFA3321A6
:103A10004DF2311001F01AFA03214DF2321001F08B
:103A200015FA6D214DF2331001F010FA00214FF418
:103A3000524001F00BFA33214DF2012001F006FA59
:103A400000214DF2022001F001FA01E03C010120C9
:103A500034214DF2032001F0F9F900214DF2042048
:103A600001F0F4F93A214DF2052001F0EFF90021BF
:103A70004DF2062001F0EAF94A214DF2072001F04B
:103A8000E5F900214DF2082001F0E0F95C214DF24A
:103A9000092001F0DBF900214DF20A2001F0D6F9EE
:103AA00081214DF20B2001F0D1F900214DF20C20C3
:103AB00001F0CCF9A6214DF20D2001F0C7F900214B
:103AC0004DF20E2001F0C2F9E5214DF20F2001F078
:103AD000BDF901214DF2102001F0B8F913214DF28A
:103AE000112001F0B3F901214DF2122001F0AEF9DD
:103AF00054214DF2132001F0A9F901214DF21420B7
:103B000001F0A4F982214DF2152001F09FF9012165
:103B10004DF2162001F09AF9CA214DF2172001F05A
:103B200095F902214DF2182001F090F900214DF293
:103B3000192001F08BF902214DF21A2001F086F9CB
:103B400001214DF21B2001F081F902214DF21C20D0
:103B500001F07CF934214DF21D2001F077F90221AA
:103B60004DF21E2001F072F967214DF21F2001F085
:103B70006DF902214DF2202001F068F984214DF207
:103B8000212001F063F902214DF2222001F05EF9BB
:103B9000A4214DF2232001F059F902214DF22420F5
:103BA00001F054F9B7214DF2252001F04FF902211F
:103BB0004DF2262001F04AF9CF214DF2272001F0E5
:103BC00045F902214DF2282001F040F9DE214DF2A5
:103BD000292001F03BF902214DF22A2001F036F9AB
:103BE000F2214DF22B2001F031F902214DF22C206F
:103BF00001F02CF9FE214DF22D2001F027F90321CF
:103C00004DF22E2001F022F910214DF22F2001F06B
:103C10001DF903214DF2302001F018F933214DF246
:103C2000312001F013F903214DF2322001F00EF999
:103C30006D214DF2332001F009F900214FF453407A
:103C400001F004F933214DF2013001F0FFF80021B9
:103C50004DF2023001F0FAF834214DF2033001F058
:103C6000F5F800214DF2043001F0F0F83A214DF260
:103C7000053001F0EBF800214DF2063001F0E6F8D6
:103C80004A214DF2073001F0E1F800214DF20830F1
:103C900001F0DCF85C214DF2093001F0D7F8002189
:103CA0004DF20A3001F0D2F881214DF20B3001F0D3
:103CB000CDF800214DF20C3001F0C8F8A6214DF2EC
:103CC0000D3001F0C3F800214DF20E3001F0BEF8C6
:103CD000E5214DF20F3001F0B9F801214DF210301D
:103CE00001F0B4F813214DF2113001F0AFF80121C9
:103CF0004DF2123001F0AAF854214DF2133001F0C8
:103D0000A5F801214DF2143001F0A0F882214DF206
:103D1000153001F09BF801214DF2163001F096F8B4
:103D2000CA214DF2173001F091F802214DF21830FE
:103D300001F08CF800214DF2193001F087F80221D2
:103D40004DF21A3001F082F801214DF21B3001F0E2
:103D50007DF802214DF21C3001F078F834214DF24B
:103D60001D3001F073F802214DF21E3001F06EF8A3
:103D700067214DF21F3001F069F802214DF2203029
:103D800001F064F884214DF2213001F05FF8022146
:103D90004DF2223001F05AF8A4214DF2233001F007
:103DA00055F802214DF2243001F050F8B7214DF2C0
:103DB000253001F04BF802214DF2263001F046F893
:103DC000CF214DF2273001F041F802214DF2283089
:103DD00001F03CF8DE214DF2293001F037F80221E4
:103DE0004DF22A3001F032F8F2214DF22B3001F081
:103DF0002DF802214DF22C3001F028F8FE214DF271
:103E00002D3001F023F803214DF22E3001F01EF881
:103E100010214DF22F3001F019F803214DF230300E
:103E200001F014F833214DF2313001F00FF8032185
:103E30004DF2323001F00AF86D214DF2333001F0CD
:103E400005F800214FF4544001F000F833214DF201
:103E5000014000F0FBFF00214DF2024000F0F6FFB0
:103E600034214DF2034000F0F1FF00214DF20440F7
:103E700000F0ECFF3A214DF2054000F0E7FF002191
:103E80004DF2064000F0E2FF4A214DF2074000F0FB
:103E9000DDFF00214DF2084000F0D8FF5C214DF21B
:103EA000094000F0D3FF00214DF20A4000F0CEFFA0
:103EB00081214DF20B4000F0C9FF00214DF20C4072
:103EC00000F0C4FFA6214DF20D4000F0BFFF00211D
:103ED0004DF20E4000F0BAFFE5214DF20F4000F028
:103EE000B5FF01214DF2104000F0B0FF13214DF25B
:103EF000114000F0ABFF01214DF2124000F0A6FF8F
:103F000054214DF2134000F0A1FF01214DF2144065
:103F100000F09CFF82214DF2154000F097FF012137
:103F20004DF2164000F092FFCA214DF2174000F00A
:103F30008DFF02214DF2184000F088FF00214DF264
:103F4000194000F083FF02214DF21A4000F07EFF7D
:103F500001214DF21B4000F079FF00E003E3022154
:103F60004DF21C4000F072FF34214DF21D4000F074
:103F70006DFF02214DF21E4000F068FF67214DF2F7
:103F80001F4000F063FF02214DF2204000F05EFF71
:103F900084214DF2214000F059FF02214DF22240D0
:103FA00000F054FFA4214DF2234000F04FFF022106
:103FB0004DF2244000F04AFFB7214DF2254000F0B9
:103FC00045FF02214DF2264000F040FFCF214DF287
:103FD000274000F03BFF02214DF2284000F036FF61
:103FE000DE214DF2294000F031FF02214DF22A403E
:103FF00000F02CFFF2214DF22B4000F027FF0221B0
:104000004DF22C4000F022FFFE214DF22D4000F039
:104010001DFF03214DF22E4000F018FF10214DF23C
:104020002F4000F013FF03214DF2304000F00EFF4F
:1040300033214DF2314000F009FF03214DF23240AF
:1040400000F004FF6D214DF2334000F0FFFE00212F
:104050004FF4554000F0FAFE33214DF2015000F0CC
:10406000F5FE00214DF2025000F0F0FE34214DF239
:10407000035000F0EBFE00214DF2045000F0E6FE8C
:104080003A214DF2055000F0E1FE00214DF20650BC
:1040900000F0DCFE4A214DF2075000F0D7FE00216F
:1040A0004DF2085000F0D2FE5C214DF2095000F0B4
:1040B000CDFE00214DF20A5000F0C8FE81214DF2E4
:1040C0000B5000F0C3FE00214DF20C5000F0BEFE7C
:1040D000A6214DF20D5000F0B9FE00214DF20E5018
:1040E00000F0B4FEE5214DF20F5000F0AFFE0121CB
:1040F0004DF2105000F0AAFE13214DF2115000F0C5
:10410000A5FE01214DF2125000F0A0FE54214DF207
:10411000135000F09BFE01214DF2145000F096FE6A
:1041200082214DF2155000F091FE01214DF2165002
:1041300000F08CFECA214DF2175000F087FE0221DC
:104140004DF2185000F082FE00214DF2195000F09F
:104150007DFE02214DF21A5000F078FE01214DF251
:104160001B5000F073FE02214DF21C5000F06EFE59
:1041700034214DF21D5000F069FE02214DF21E5017
:1041800000F064FE67214DF21F5000F05FFE022137
:104190004DF2205000F05AFE84214DF2215000F0E3
:1041A00055FE02214DF2225000F050FEA4214DF2A6
:1041B000235000F04BFE02214DF2245000F046FE49
:1041C000B7214DF2255000F041FE02214DF226505C
:1041D00000F03CFECF214DF2275000F037FE0221C7
:1041E0004DF2285000F032FEDE214DF2295000F051
:1041F0002DFE02214DF22A5000F028FEF2214DF250
:104200002B5000F023FE02214DF22C5000F01EFE38
:10421000FE214DF22D5000F019FE03214DF22E50DB
:1042200000F014FE10214DF22F5000F00FFE03217C
:104230004DF2305000F00AFE33214DF2315000F0C3
:1042400005FE03214DF2325000F000FE6D214DF2CB
:10425000335000F0FBFD00214FF4564000F0F6FD16
:1042600033214DF2016000F0F1FD00214DF20260BA
:1042700000F0ECFD34214DF2036000F0E7FD002179
:104280004DF2046000F0E2FD3A214DF2056000F0CD
:10429000DDFD00214DF2066000F0D8FD4A214DF20F
:1042A000076000F0D3FD00214DF2086000F0CEFD64
:1042B0005C214DF2096000F0C9FD00214DF20A6059
:1042C00000F0C4FD81214DF20B6000F0BFFD002124
:1042D0004DF20C6000F0BAFDA6214DF20D6000F029
:1042E000B5FD00214DF20E6000F0B0FDE5214DF26C
:1042F0000F6000F0ABFD01214DF2106000F0A6FD53
:1043000013214DF2116000F0A1FD01214DF2126068
:1043100000F09CFD54214DF2136000F097FD012147
:104320004DF2146000F092FD82214DF2156000F014
:104330008DFD01214DF2166000F088FDCA214DF27D
:10434000176000F083FD02214DF2186000F07EFD41
:1043500000214DF2196000F079FD02214DF21A6042
:1043600000F074FD01214DF21B6000F06FFD022191
:104370004DF21C6000F06AFD34214DF21D6000F02A
:1043800065FD02214DF21E6000F060FD67214DF2D7
:104390001F6000F05BFD02214DF2206000F056FD31
:1043A00084214DF2216000F051FD02214DF2226086
:1043B00000F04CFDA4214DF2236000F047FD0221E6
:1043C0004DF2246000F042FDB7214DF2256000F06F
:1043D0003DFD02214DF2266000F038FDCF214DF267
:1043E000276000F033FD02214DF2286000F02EFD21
:1043F000DE214DF2296000F029FD02214DF22A60F4
:1044000000F024FDF2214DF22B6000F01FFD02218F
:104410004DF22C6000F01AFDFE214DF22D6000F0EF
:1044200015FD03214DF22E6000F010FD10214DF21C
:104430002F6000F00BFD03214DF2306000F006FD0F
:1044400033214DF2316000F001FD03214DF2326065
:1044500000F0FCFC6D214DF2336000F0F7FC5521BB
:104460004FF4704000F0F2FCAA214FF2010000F07E
:10447000EDFC52214FF2020000F0E8FC08214FF25F
:10448000030000F0E3FC00214FF2040000F0DEFC2A
:10449000CC214FF4314000F0D9FC00214BF2011047
:1044A00000F0D4FC05214FF4364000F0CFFC702121
:1044B0004FF4374000F0CAFC70214BF2017000F05D
:1044C000C5FC01214FF4384000F0C0FC03214BF63D
:1044D000010000F0BBFC03214BF6020000F0B6FC2B
:1044E00003214BF6030000F0B1FC02214FF43C40E5
:1044F00000F0ACFC00214BF6014000F0A7FC0021CD
:104500004BF6024000F0A2FCD0214FF4494000F0ED
:104510009DFC02214CF6011000F098FC50214CF655
:10452000021000F093FC50214CF6031000F08EFCBA
:1045300050214CF6041000F089FC00214FF4545037
:1045400000F084FC55214FF4685000F07FFC4FF4DC
:10455000885000F065FC7820FBF715FF4FF42450DD
:1045600000F05EFCBDE08348808841F6631188421C
:10457000F8D1E22000F054FC1D2000F045FC0220A0
:1045800000F042FC042000F03FFC6420FBF7FBFE3F
:10459000E02000F045FC012000F036FC0A20FBF78B
:1045A000EDFEE02000F03CFC032000F02DFC0C2090
:1045B000FBF7E4FE012000F033FC0A20FBF7DEFEEF
:1045C000E62000F02DFC2F2000F01EFCFF2000F064
:1045D0001BFCFF2000F018FCB02000F021FC202084
:1045E00000F012FC002000F00FFC032000F00CFC97
:1045F00040F21F3000F008FC012000F005FC40F202
:10460000DF1000F001FC002000F0FEFBB42000F001
:1046100007FC042000F0F8FB40F21F4000F0F4FB20
:10462000002000F0F1FB2E2000F0EEFB002000F057
:10463000EBFB002000F0E8FB002000F0E5FB002091
:1046400000F0E2FBB62000F0EBFB022000F0DCFB08
:104650004FF4037000F0D8FB002000F0D5FB1720CA
:1046600000F0D2FB152000F0CFFB002000F0CCFBC7
:10467000002000F0C9FBF02000F0D2FB032000F086
:10468000C3FB292000F0CCFBD02000F0C9FB0020A8
:1046900000F0BAFBBE2000F0C3FB052000F0B4FB25
:1046A000FE2000F0B1FB012000F0AEFB002000F086
:1046B000ABFB002000F0A8FB002000F0A5FBB82019
:1046C00000F0AEFB032000F09FFB012000F09CFBFC
:1046D000BA2000F0A5FB012000F096FB642000F05A
:1046E00065F82448808849F24131884217D0214832
:1046F000808845F21031884211D01E48808845F2EA
:10470000105188420BD01B48808841F663118842C3
:1047100005D01848808847F2897188421CD1164814
:10472000006820F00F004FF02041C1F80401084656
:10473000D0F8040120F47060C1F804010846D0F8F4
:10474000040140F00500C1F804010846D0F8040156
:1047500040F4A060C1F804010020FDF7BDF901227A
:1047600020210648FBF714FE4FF6FF70FDF790F985
:104770001CBD00003C010120040100A00004024017
:1047800010B50246012000E050430B1EA1F10104C8
:10479000E1B2F9D110BD000008B5034800880090CF
:1047A000BDF8000008BD00000000086070B52DEDE8
:1047B000048B0446BE2000F033FB052000F024FBF0
:1047C000204602F04CFC41EC190B9FED0E0B53EC14
