:020000040800F2
:100000003059002459030008E96000089B56000895
:10001000B15F0008651B0008958100080000000022
:10002000000000000000000000000000CD64000897
:10003000B71B000800000000EB600008CF64000858
:1000400073030008730300087303000873030008B8
:1000500073030008730300087303000873030008A8
:100060007303000873030008730300087303000898
:100070007303000873030008730300087303000888
:100080007303000873030008730300087303000878
:100090007303000873030008730300087303000868
:1000A0007303000873030008730300087303000858
:1000B0007303000873030008730300087303000848
:1000C0007303000873030008730300087303000838
:1000D00073030008458100087303000873030008D8
:1000E0007303000873030008000000007303000896
:1000F0007303000873030008730300087303000808
:1001000073030008730300087303000873030008F7
:1001100073030008730300087303000873030008E7
:1001200073030008730300087303000873030008D7
:1001300073030008730300087303000873030008C7
:1001400000000000000000000000000000000000AF
:1001500073030008730300087303000873030008A7
:100160007303000873030008730300087303000897
:100170007303000873030008730300087303000887
:100180007303000873030008730300087303000877
:100190007303000873030008730300087303000867
:1001A0007303000873030008730300087303000857
:1001B0007303000873030008730300087303000847
:1001C0007303000873030008730300087303000837
:1001D0007303000873030008730300087303000827
:1001E0007303000873030008730300087303000817
:1001F0007303000873030008730300087303000807
:1002000073030008730300087303000873030008F6
:1002100073030008730300087303000873030008E6
:100220007303000873030008730300080000000054
:100230007303000873030008000000007303000844
:1002400073030008730300087303000873030008B6
:1002500073030008730300087303000873030008A6
:100260007303000873030008730300087303000896
:100270007303000873030008730300080000000004
:1002800073030008730300087303000800000000F4
:10029000000000007303000800F002F800F04CF8C2
:1002A0000AA090E8000C82448344AAF10107DA45D1
:1002B00001D100F041F8AFF2090EBAE80F0013F0D7
:1002C000010F18BFFB1A43F00103184798B2000052
:1002D000B8B20000103A24BF78C878C1FAD85207E3
:1002E00024BF30C830C144BF04680C6070470000B0
:1002F0000023002400250026103A28BF78C1FBD82F
:10030000520728BF30C148BF0B60704766290BF009
:100310001280642900F0F880002070471FB50BF0B0
:1003200005F800F013FC0400002000210AF0E0FFB3
:10033000E0601FBD10B510BD00F028FD1146FFF7AD
:10034000EDFF0AF0B5FB00F046FD03B4FFF7F2FF46
:1003500003BC08F07DFC00000948804709480047BD
:10036000FEE7FEE7FEE7FEE7FEE7FEE7FEE7FEE765
:10037000FEE7FEE704480549054A064B70470000C2
:10038000D964000899020008304F00243059002435
:100390003051002430510024704753EA020C00F021
:1003A00069802DE9F04B4FF00006002B1FBFB3FA18
:1003B00083F503FA05F424FA05F65E4012BF1643EE
:1003C000B2FA82F502FA05F4C5F120051EBF22FA41
:1003D00005FC44EA0C04203556EA044C4FEA144468
:1003E00018BF641C4FF000084FF00009904271EBF9
:1003F000030C39D3002919BFB1FA81F701FA07F6C6
:10040000B0FA80F700FA07F6C7F120071EBF20FAFE
:1004100007FC46EA0C062037B6FBF4FCA7EB050701
:10042000103F07F01F0BCBF120060CFA0BFB2CFA48
:1004300006F644BFB3460026202FA4BF5E464FF009
:10044000000B5BEA060C08BF4FF0010B19EB0B0920
:10045000ABFB027C48EB0608C01B06FB02CC0BFB87
:1004600003CC71EB0C01C1E70B46024641464846FE
:10047000BDE8F08B13B54FF000004FF00001AFF373
:100480000080BDE81C4070470FB4044910B503AAB2
:10049000029800F049FB10BC5DF814FB1C0000241E
:1004A0002DE9F0410E460446002020622046E16816
:1004B000884730B3252805D0D4E901219047206A28
:1004C000401CF2E7E168204600278847050018D065
:1004D000A5F14100192802D820354FF400673246B3
:1004E000294620462760FFF711FF40B1012804D0BC
:1004F000F61D26F007060836D8E7361DD6E728464B
:10050000DAE7206ABDE8F0812DE9F04106460024D3
:1005100010687529314616A510D0AFF30080002869
:1005200002DA404213A507E031688A0701D512A517
:1005300002E0490704D511A5012401E0AFF30080D2
:1005400000210A2206F1240709E0B0FBF2FCB0FB0F
:10055000F2F302FB1C00303078541846491C002886
:10056000F3D123462A463046BDE8F04100F073B887
:10057000000000002D0000002B0000002000000003
:100580004FF0000200B5134694469646203922BF2C
:10059000A0E80C50A0E80C50B1F12001BFF4F7AF77
:1005A000090728BFA0E80C5048BF0CC05DF804EB59
:1005B000890028BF40F8042B08BF704748BF20F8C7
:1005C000022B11F0804F18BF00F8012B704700007C
:1005D0004FF0013C50F8042B51F8043B9A4215D1DE
:1005E000A2EB0C03934313EACC130BD150F8042B6A
:1005F00051F8043B9A4209D1A2EB0C03934313EA4E
:10060000CC13E7D04FF00000704700BFD01A01BAFA
:10061000B1FA81F101F0180122FA01F0CB40C1F1E9
:100620002001DBB2C0B2C01A2CFA01F3D11A9143F7
:1006300011EAC311E6D170477047704770477047A1
:1006400010B500F087FA006810BD10B5044600F040
:1006500081FA046010BD2DE9F0470D469946924697
:10066000044600F124080168880604D5E06921F0F9
:100670001001216000E00120A84201DD471B00E0DD
:100680000027A1697A1902EB0900081AA0612078F5
:10069000C00602D42046AFF30080002608E0D4E96B
:1006A00001211AF806009047206A401C761C20623F
:1006B0004E45F4DB2078C0060AD52046AFF3008013
:1006C00006E0D4E9012130209047206A401C2062D6
:1006D000381EA7F10107F4DC07E0D4E9012118F87E
:1006E00005009047206A401C2062281EA5F10105E4
:1006F000F3DC2046AFF300802078000602D502200C
:10070000BDE8F0870120FBE770472DE9FF4F0C465D
:100710001E464FF0FF378BB0D2E90001DDF8608054
:100720000A908A46C1F30A5505B93D46002108469C
:100730004FF00000BAF1000F00F4400005DA00EBC2
:1007400080004FF4400101EA50004FEA9059B9F19E
:10075000010F00DDB9460A9850EA4A000ED044F66F
:100760001050A5F2FF3545432F14B8F1000F1ED0ED
:100770007542291E1EDDC9F100021CE0B8F1010F0F
:100780004FF0000001D0302103E0F24305E0215496
:10079000401CB042FBDB30460022002121540B9963
:1007A000C1F80880C1E900200FB0BDE8F08FBD1B83
:1007B0006D1CDEE74A4600DA694206A800F06CFAD2
:1007C00006AB93E8070003AB83E8070050460A999D
:1007D00000F00AFB8DE80700A0F500501F380090DC
:1007E0000398002D0ADD42F21F014A460844002307
:1007F00003A90390684600F073FD09E0A0F50050DE
:100800004A461F38002303A90390684600F07DFD87
:100810008DE807000004000C03D04FF0FF304108C2
:1008200000E01046B8F1000F03D0002200921546F8
:100830001EE0751E05D400F091F9303262556D1E30
:10084000F9D5B3460122084302D000227F1C04E000
:100850002078302801D100227F1E002A099784D0F9
:100860001DE0112D07DA00F079F9303262556D1C68
:1008700050EA0102F5D1084302D00098C8B10EE059
:100880000021681E05E0235C625C63542254401E14
:10089000491C8142F7DBAB46A81B401E0990002093
:1008A00004F80B000B98099AC0F80880C0E9002BE7
:1008B0007AE711264FF0000857E72DE9F04F8846F8
:1008C0000446D21D22F0070191B0D1E90001CDE923
:1008D0000A0107F068FC02460B98C00F01D02D20DA
:1008E00007E02068810701D52B2002E0202101EAE2
:1008F000C000032A099001D0072A05DB03464146C0
:10090000204600F089F90BE12078800601D5E069E6
:1009100000E00620B8F1650F814606D0B8F1660FF9
:1009200018D0B8F1670F70D131E00020B9F1110F84
:10093000009001DB112301E009F101030AAA01A9DA
:100940000CA8FFF7E2FEDDE90C70002609F10105B5
:10095000834647E001204B4600904FF000470AAA2B
:1009600001A90CA8FFF7D1FEDDE90DB00C995D4699
:10097000002610B909F101000D18B9EB050003D4E8
:10098000C0F1FF3609F10105A5EB09002BE0B9F133
:10099000010F01DA4FF001090020B9F1110F0090A9
:1009A000484601DD112300E003460AAA01A90CA86C
:1009B000FFF7ABFEDDE90C704D460026834620783C
:1009C00000070AD4AB4500DA5D4601A8012D04DD1D
:1009D000411911F8011C302907D04F4502DA17F1EF
:1009E000040F04DA012082460FE06D1EEEE7002FAF
:1009F00002DCED1B3E4403E0781CA84200DD7D1CB8
:100A0000B81B00F1010A4FF000472078000703D41B
:100A1000AA4501DB4FF0FF3A0021B7F1004F0DF17D
:100A200043088DF8431024D002202B23002F01DA35
:100A30007F422D230A21021EA0F1010000DC5FB1DC
:100A400097FBF1FC97FBF1F201FB1C7C17460CF1C4
:100A5000300C08F801CDEEE7A8F101000370218801
:100A6000090501D5452100E06521A0F1010800F844
:100A7000011C09980FA9A1EB0807FF1D00B1012077
:100A8000411901EBEA70A1693844081A401EA061BF
:100A90002078C00602D42046AFF30080099828B120
:100AA000D4E901219047206A401C20622078C006CA
:100AB00022D52046AFF300801EE0002E04DBB345B4
:100AC00002DD01A8805D00E03020D4E901219047DB
:100AD000206A401C2062761CAAF101005FEA000A2D
:100AE0000AD100F033F8C0680168405CD4E9012104
:100AF0009047206A401C2062281EA5F10105DCDC1D
:100B000007E0D4E9012118F8010B9047206A401C46
:100B10002062381EA7F10107F3DC2046AFF3008006
:100B2000032011B041E60000074B70B50D467B4431
:100B300000F05FF80446284600F020F910B14FF0AD
:100B4000FF3070BD204670BD639F000000487047B5
:100B5000F04E002400487047D04E002430B5B0F16C
:100B60000A024FEA900E71F100034EEA817EB0EB6B
:100B70000E0061EB91014FEA101E4EEA017E10EB70
:100B80000E0041EB11114FEA102E4EEA016E10EBF0
:100B90000E0041EB11214FEA104E4EEA014E10EBD0
:100BA0000E0041EB1141401841F100014FEAD00025
:100BB00040EA41704FEAD10110EB80054FEA810411
:100BC00044EA907444EB01046D1944EB0404521B95
:100BD000A3414FF0000348BF0A3200D530BD401C8E
:100BE00041F1000130BD000001694A1C0261087832
:100BF000704700B58FB0CDE901310021059105495D
:100C00007944CDE9031011466846FFF749FC0FB05F
:100C100000BD0000E5FFFFFF2DE9F0411F4604463F
:100C200003260168072A01F4006004DB08B116A559
:100C300005E016A503E008B115A500E015A521F013
:100C400010002060A069C01EA0610FB1401EA0610D
:100C50002046AFF300804FB1D4E9012138469047D8
:100C6000206A401C2062C01C206206E0206AFAE76D
:100C7000D4E9012115F8010B9047761EF8D22046E1
:100C8000AFF30080BDE8F0814E414E006E616E0012
:100C9000494E4600696E66002DE9F04781461646CA
:100CA0008AB0354878440DC88DE80D003248784444
:100CB000801C03AC0DC884E80D0041F69B3008444D
:100CC000372190FBF1F290FBF1F5A5F1800501FBD6
:100CD00012041B3C02D56442012000E00020DFF832
:100CE00098A080460027FA44AAF1BE0A0EE0E00769
:100CF0000AD03246684607EB470101230AEB81011F
:100D000000F003FB8DE8070064107F1C002CEED17F
:100D1000194F7F44AE3F19E0E80715D007EB0410E8
:100D20000DF1180A90E80E008AE80E00C068F04243
:100D300001D1981908903246012306A903A800F0B2
:100D4000E4FA03AB83E807006D10641C002DE3D1C7
:100D50004FF0010332466946B8F1000F03A802D0F4
:100D600000F0BEFA01E000F0D0FAC9E90001C9F8CC
:100D700008200AB0BDE8F087A4A80000007B00F0BE
:100D80008000704700487047D04E00247546FFF73A
:100D9000F9FFAE4605006946534620F00700854638
:100DA00018B020B5FFF7E6FABDE820404FF0000686
:100DB0004FF000074FF000084FF0000B21F0070143
:100DC000AC46ACE8C009ACE8C009ACE8C009ACE886
:100DD000C0098D46704710B50446AFF30080204629
:100DE000BDE81040FFF7B1BA5FEA400C08BF91F0D0
:100DF000000F4FEA8C234FEAC12243EA51514FEAD8
:100E00001C5018BF00F5F0404FEA300018BF41F009
:100E100000415FEA6C5C00F02980BCF1FF3F08BF35
:100E200040F080407047130C06BF12044FF0100CC6
:100E30004FF0000C130E04BF12020CF1080C130F3C
:100E400004BF12010CF1040C930F04BF92000CF1CB
:100E5000020CD30F04BF52000CF1010C11464FF0ED
:100E60000002A0F11F00A0EB0C00704711F0004F32
:100E700008BF704731F000413FF4D5AF0B0C06BFFF
:100E800009044FF0100C4FF0000C0B0E04BF0902C8
:100E90000CF1080C0B0F04BF09010CF1040C8B0FB3
:100EA00004BF89000CF1020CCB0F04BF49000CF108
:100EB000010CCCF12003A0EB0C0022FA03F302FAA0
:100EC0000CF241EA030100F10100704720F07F4C71
:100ED00080EA030023F07F47ACEB070303F57C5364
:100EE00000F0004003F1FF032DE980494FEA154B64
:100EF00009B44FEA144325EA0B4E24EA03480FF2E3
:100F0000042606EB132749083E785FEA320203FB0A
:100F10000667C7F5000707FB06F64FEA54374FEAA6
:100F2000D64606F1020607FB066CCCF1005C4FEAE0
:100F30001C472CEA074C07FB06F40CFB06F504EBF8
:100F400015464FEA961634BF00204FF000404FEA96
:100F5000D13706FB07FC4FEA1C4C0CFB0BF7D21BEE
:100F600003FB0CF761EB07010CFB0EF7B0EB07403E
:100F700072EB17420CFB08F734BFA2EB0742B2EB4F
:100F8000074261EB17414FEA0C444FEA910706FB19
:100F900007FC4FEA1C4C0CFB0BF7B0EBC74072EBA5
:100FA000573203FB0CF734BFA2EBC742B2EBC74288
:100FB00061EB57310CFB0EF7B0EBC70072EB5772C9
:100FC0000CFB08F734BFA2EBC702B2EBC70261EB20
:100FD0005771039F4FEA816141EA921104EBCC04FF
:100FE0004FEAD1374FEA826206FB07FC42EA9012D1
:100FF0004FEA80604FEA1C4C0CFB0BF7D21B03FB43
:101000000CF761EB07010CFB0EF7B0EB074072EB3E
:1010100017420CFB08F734BFA2EB0742B2EB0742C2
:1010200061EB17414FEA8C554FEA910704EB9C2482
:1010300006FB07FC4FEA1C4C0CFB0BF7B0EBC74060
:1010400072EB573203FB0CF734BFA2EBC742B2EB93
:10105000C74261EB57310CFB0EF7B0EBC70072EBE8
:1010600057720CFB08F734BFA2EBC702B2EBC70202
:1010700061EB577115EB4C254FEA816141EA921102
:101080004FEA82624FEAD13742EA901206FB07FC30
:1010900044F100044FEA80604FEA1C4C0CFB0BF754
:1010A000D21B03FB0CF761EB07010CFB0EF7B0EB57
:1010B000074072EB17420CFB08F734BFA2EB074264
:1010C000B2EB074261EB174115EB1C154FEA81317A
:1010D00041EA92414FEA823242EA90424FEA80303E
:1010E0004FEA0C7644F1000448EA03434EEA0B4809
:1010F0004FF0000EB2EB080C71EB030724BF624601
:1011000039464EEB0E0E4FF0000B0018524149418C
:101110004BEB0B0BB2EB080C71EB03077BF1000BF5
:1011200024BF624639464EEB0E0E4FF0000B0018FE
:10113000524149414BEB0B0BB2EB080C71EB03072F
:101140007BF1000B24BF624639464EEB0E0E51EA8E
:10115000020718BF46F0010616EB0E7655F10002A5
:1011600054F1000103D5BDE88901BDE80088BDE860
:101170008901BDE80048B619524141EB0101A3F1D4
:101180000103704780807F7E7D7C7B7A79787776DB
:1011900076757473727171706F6E6E6D6C6C6B6A54
:1011A0006A696868676666656464636362616160F2
:1011B000605F5F5E5E5D5D5C5C5B5B5A5A5959586F
:1011C00058575756565555555454535352525251D9
:1011D000515050504F4F4F4E4E4D4D4D4C4C4C4B2F
:1011E0004B4B4A4A4A494949484848474747474676
:1011F00046464545454444444443434343424242B2
:1012000042414141002B9C4630D477002BD01CB585
:101210004FEA370703B44FF010004FF01001BAF156
:10122000000F06D0BCF1000FDCBF40F0080040F01A
:1012300008014FF000000FBCBDE810400BF1010B9E
:10124000BBF1010F08BF5FEA170722BF12F10102CD
:1012500011F101014FF0004143F1000300F00040A3
:1012600043EA00007047F9D35708D0E746EA06463C
:1012700013F1400F4FEA16461FDD13F1200FDFBFB9
:1012800016430A46002120335B42BED0C3F120073B
:1012900046EA064602FA07F74FEA164646EA070606
:1012A000C3F1200722FA03F201FA07F721FA03F14A
:1012B0004FF0000342EA0702A7E746EA020646EAC1
:1012C00006464FEA164646EA0106BCBF46EA06460F
:1012D000360C4FF000034FF000024FF0000194E78E
:1012E0002DE9804C9A46934670B491E8380007C8BF
:1012F00031EA400C48BF34EA430C03D5FFF7E6FD62
:10130000FFF780FFF0BCBDE8008C2DE9804C9A46C9
:10131000934670B491E8380007C810F0804F08BFBA
:1013200013F0804F03D100F005F8FFF76BFFF0BC1E
:10133000BDE8008C20F07F4780EA030023F07F4C5B
:1013400007EB0C03A3F57C5300F00040A3F1FE0370
:1013500092F0000F00F0B38095F0000F00F077805E
:101360002DE901494FEA11404FEA144621EA0048AD
:1013700000FB06FC24EA064708FB06F607FB08F814
:1013800000FB07F718EB06484CEB164C4FEA124BE4
:1013900018EB07484FEA15464CEB174022EA0B4E74
:1013A0000BFB06FC25EA06470EFB06F607FB0EFEC6
:1013B0000BFB07F71EEB064E4CEB164C4FF00006EE
:1013C0001EEB074E4CEB174B18EB0B0840F10000DF
:1013D00018EB0E0B58EB000840F100008F1A4FF08D
:1013E00000013CBFC943661B14BFB5EB040C0021D0
:1013F0003CBFC943F61B4FEA17444EEA8E0E27EA5C
:1014000004454FEA1C4704FB07622CEA074C05FB26
:1014100007F70CFB05F604FB0CFC16EB074642EB4A
:10142000174216EB0C4642EB1C421BEB060658EB30
:101430000202414146EA9E0601D5BDE80189B6197E
:10144000524141EB0101A3F10103BDE801894FEADB
:1014500014454FEA114724EA054621EA074C05FBEB
:1014600007F406FB07F70CFB06F105FB0CFC11EB80
:10147000074144EB17444FEA124711EB0C4144EB90
:101480001C4422EA074C05FB07F206FB07F70CFB9E
:1014900006F605FB0CFC16EB074642EB174216EB73
:1014A0000C4642EB1C456A1854F1000148BF7047D6
:1014B000B619524141EB0101A3F10103704795F0C8
:1014C000000F37D04FEA11424FEA144721EA024693
:1014D00024EA074C02FB07F106FB07F70CFB06F4B6
:1014E00002FB0CFC14EB074441EB17414FEA154794
:1014F00014EB0C4441EB1C4125EA074C02FB07F5B9
:1015000006FB07F70CFB06F602FB0CFC16EB074686
:1015100045EB174516EB0C4645EB1C42121951F1F1
:10152000000148BF7047B619524141EB0101A3F1D8
:10153000010370474FEA14454FEA114724EA054674
:1015400021EA074C05FB07F106FB07F70CFB06F247
:101550004FF0000605FB0CFC12EB074241EB174174
:1015600012EB0C4251EB1C4148BF7047921841EB03
:101570000101A3F1010370472DE9F04F2DED108B10
:1015800089B006460C46B0EE40BAB0EE60DA93463B
:10159000B6F8820600902146304604F05BFBF0EE80
:1015A00040AA2146304604F0E1FAF0EE408A9FED71
:1015B000FD1A38EE811AB7EEC11AB0EE410BB1EE4A
:1015C000001B06F025FEB7EEC00BF0EE40EA9FEDE3
:1015D000F51A3DEE011AB7EEC11AB0EE410BB1EEAD
:1015E000001B06F015FEB7EEC00BF0EE40DA7DEE04
:1015F000EE0A80EE8B0A3DEEC00AF0EE40BAD4ED62
:101600000B0A9FEDE91AB7EE000A00EE810AF7EE29
:10161000000A80EE801A8DED011AB7EE000A8DEDFA
:10162000020AD4ED0D0AB4F9400000EE100AB8EE3B
:10163000C01AB7EE000A00EE810A8DED030AB4F974
:101640004210B4F94000081A00EE100AF8EEC00A81
:1016500094ED0E1AB7EE000A01EE200ADDED030A42
:1016600020EE200A8DED040AB6F8140600EE100AEA
:10167000B8EE400AB0EE409A9FEDCC0AB4EEC09AA4
:10168000F1EE10FA05DD9FEDCA0A39EE400AB0EE20
:10169000409AB4F9140000EE100AB8EEC00AC0EE89
:1016A000090AB0EE609AB6F8800600F480504FEA5E
:1016B0006018B6F8100600EE100AB8EE400A8DED7C
:1016C000070AB6F8500600EE100AB8EE400A8DED93
:1016D000080A002026E007A901EB800191ED000A2D
:1016E000DFEDB20AB4EEE00AF1EE10FA0DDD07A963
:1016F00001EB800191ED000ADFEDAD0A30EE600AEA
:1017000007A901EB800181ED000A07A901EB800127
:1017100091ED000A20EE090A07A901EB800181ED95
:10172000000A401C0228D6DBD4ED080AB3EE090AF1
:1017300038EEC01AB7EE000A00EE810A42F64C20DD
:10174000005F00EE900AF8EEE00A20EE201AD4EDD9
:10175000070A9FED980A7AEEC01AB7EE000A00EE6B
:10176000A10ADDED070A41EE400ACDED070A94F823
:101770002500404525D1D4ED080AB3EE090A38EE1C
:10178000C01AB7EE000A00EE810A42F64C2020444F
:10179000B0F9020000EE900AF8EEE00A20EE201AFE
:1017A000D4ED070A9FED830A7AEEC01AB7EE000A5D
:1017B00000EEA10ADDED080A41EE400ACDED080A6F
:1017C0002AE042F64C202044B0F9020000EE100A54
:1017D000B8EEC00A04F52050D0ED940A70EE200A4D
:1017E00094ED081AB3EE090A78EEC01AB7EE000AB3
:1017F00001EE210A20EE801AD4ED070A9FED6D0A52
:101800007AEEC01AB7EE000A00EEA10ADDED080A72
:1018100041EE400ACDED080A002591E12846EA177D
:1018200005EBD26252112946EB1705EB93639B112E
:10183000A2EB430257B205EBD0714910A5EB410171
:10184000794049B20691AB1C4FEAE37C03EB9C7CE8
:101850004FEAAC0CEA1C4FEAE27E02EB9E7EACEB58
:10186000AE0C691C4FEAE17E01EB9E7E0CEBAE0CE8
:101870004FEAE57E05EB9E7EACEBAE0C4FEA470EE1
:10188000CEF1010E0CFB0EFC4FFA8CF9B8F1000FF3
:1018900001D1059701E006980590B6F882160598E3
:1018A00081427DD136F8150000EE100AB8EE400AEC
:1018B000B0EE408A9FED3D0AB4EEC08AF1EE10FA18
:1018C00005DD9FED3B0A38EE400AB0EE408A28EE77
:1018D000090AB0EE408A41F24420204400EB850022
:1018E000D0ED000AB3EE090A38EEC01AB7EE000ACE
:1018F00000EE810A04F6444030F9150000EE900A2B
:10190000F8EEE00A20EE201A41F64460204400EB95
:101910008500D0ED000A9FED270A7AEEC01AB7EED7
:10192000000A00EEA10AF0EE480A41EE400AB0EECD
:10193000608A94F8250040451BD042F65020204490
:10194000D0ED020A7800401E00EE100AB8EEC01A70
:10195000B0EE480A00EE810A42F65020204490ED95
:10196000011A00EE909AF8EEE00A01EE600AB0EE7D
:10197000408A88EE0B0AB0EE408AD4ED060A07A929
:10198000009801EB800090ED001AB0EE480A00EEDE
:10199000C10AB0EE408A04F1440000EB85000BE080
:1019A000CDE00000339388430000204200FEFF4654
:1019B000000080473333534090ED000AD4ED060A0F
:1019C00042F644202118009801EB800090ED001AA7
:1019D00000EEC10A94ED0A1AF3EE090A78EEE01A55
:1019E000F7EE000A41EE210A60EE209AB0EE081BE5
:1019F000B7EEE90A06F00CFCB0EE481A09EEAB1A95
:101A0000B7EEC11A20EE010BB7EEC00BB0EE40EA04
:101A1000B7EECE0A07F078F8B0EE40CB07F074F8D6
:101A200094ED0C1AB7EEC11A20EE010BB7EEC00B05
:101A3000B0EE40EAD4ED0C0A1FED261AB7EE000A0C
:101A400000EEC10AF0EE4E0A49EE800A88EE200A46
:101A500030EE2B0AB7EEC00AB0EE40FB07F054F8A8
:101A6000B0EE40CB07F050F89FED3A1B30EE410B43
:101A7000B7EEC00BB0EE40AAB4F93E0000EE100A7B
:101A8000B8EEC00AB4EECA0AF1EE10FA02DD4FF069
:101A9000000A1DE0B4F9400000EE100AB8EEC00ADA
:101AA000B4EECA0AF1EE10FA02DD4FF0010A0FE0BF
:101AB000B4F9420000EE100AB8EEC00AB4EECA0A49
:101AC000F1EE10FA02DD4FF0020A01E04FF0030AD6
:101AD00004F12C0000EB8A00D0ED000A04F13C0078
:101AE00030F91A0000EE100AB8EEC00A3AEE401AB9
:101AF000B7EE000A00EE810A01A800EB8A00D0EDE3
:101B0000000A60EEA90A60EE200A88EE200A30EE94
:101B10002B0AB7EEC00AB0EE40CB06F0F5FFB0EEF0
:101B200040FB06F0F1FF9FED0D1B30EE410BB7EED1
:101B3000C00BB0EE40AA0BEB850080ED00AA6D1C37
:101B4000B5F5407FFFF66AAE09B0BDEC108BBDE87D
:101B5000F08F0000000000606612714066666666E5
:101B60006612714000BFFEE702460B46D11A11F122
:101B7000220F05DD11F11E0F02DA6FF0050070472C
:101B800011F1020F04DD022902DA6FF00500F6E719
:101B90001E2904DD222902DA6FF00500EFE700209C
:101BA000EDE70146087D00F040020AB900207047C9
:101BB0006FF00600FBE770472DE9F04F2DED028B2B
:101BC000B9B005460E46002415F8400F00F00F008E
:101BD00000902878C0F303192888C0F303282888C8
:101BE0001E2101EB103008EE100A6F88403D0020E6
:101BF00025E0840000F1220115F8111001F00F0119
:101C000021AA42F8241000F1220115F81110C1F3A5
:101C1000031221AB611C43F8212000F1220135F8A9
:101C20001110C1F30322A11C43F8212000F122016D
:101C300035F811100A0BE11C43F82120401C06283E
:101C4000D7DB00200CE021A951F82010072906DD80
:101C500021A951F82010103921AA42F82010401C67
:101C60001828F0DB002025E0840000F1280115F899
:101C7000111001F00F0101AA42F8241000F128010F
:101C800015F81110C1F3031201AB611C43F82120B8
:101C900000F1280135F81110C1F30322A11C43F80B
:101CA000212000F1280135F811100A0BE11C43F83E
:101CB0002120401C0828D7DB00200CE001A951F8A6
:101CC0002010072906DD01A951F82010103901AABA
:101CD00042F82010401C2028F0DB4FF0000A86E07C
:101CE0004FF0000B7DE0202000FB0AB404F140001F
:101CF00035F81000C0F3051000EE100AB8EEC00A67
:101D000006F1440000EB840080ED000A06F1440077
:101D100000EB840090ED000AF3EE0F0AB4EEE00A47
:101D2000F1EE10FA0FDD06F1440000EB840090EDB7
:101D3000000ADFED330A30EE600A06F1440000EBE2
:101D4000840080ED000A06F1440000EB8400D0ED31
:101D5000000A0121009801FA00F000EE100AB8EE26
:101D6000C00A20EE800A06F1440000EB840080EDFA
:101D7000000A21A850F82A0000FA08F0C11901A8A9
:101D800050F82B0000FA09F0084400EE100AB8EEF3
:101D9000C00A06F1440000EB8400D0ED000A30EEEA
:101DA000200A06F1440000EB840080ED000AB8EE42
:101DB000481BB0EE000B06F02BFA06F1440000EBD6
:101DC000840090ED001AB7EEC11A81EE002BB7EE39
:101DD000C20B06F1440000EB840080ED000A0BF119
:101DE000010BBBF1200FFFF67EAF0AF1010ABAF139
:101DF000180FFFF675AF39B0BDEC028BBDE8F08F60
:101E0000000080420EB5838A03F400631A1182F049
:101E1000800290F86A3003F03F0300EE103AB8EE0B
:101E2000C00A8DED000A9DED000AF3EE0F0AB4EE34
:101E3000E00AF1EE10FA07DD9DED000ADFED340A4D
:101E400030EE600A8DED000A9DED000AF3EE000A07
:101E500080EE201A8DED001AB0F86A30C3F38413B7
:101E600000EE103AB8EEC00A8DED010A9DED010AB0
:101E7000F2EE0E0AB4EEE00AF1EE10FA07DD9DED87
:101E8000010ADFED240A30EE600A8DED010A9DEDB6
:101E9000010AF0EE000A80EE201A8DED011AB0F86A
:101EA0006A30DB0A00EE103AB8EEC00A8DED020A85
:101EB0009DED020AF2EE0E0AB4EEE00AF1EE10FA1F
:101EC00007DD9DED020ADFED130A30EE600A8DEDAD
:101ED000020A9DED020AF2EE000A80EE201A8DED54
:101EE000021A81F825209DED000A01F5205383EDAB
:101EF000940A9DED010A42F650230B4483ED010A3A
:101F00009DED020A42F650230B4483ED020A0EBDFA
:101F10000000804200000042F0B52DED048B83B03C
:101F200004460D46B4F840001B2101EB103009EEC9
:101F3000100AB4F87400C0F30900ADF80000BDF950
:101F40000000B0F5007F06DBBDF80000A0F5806062
:101F500000B2ADF80000B4F87400800AADF80200D9
:101F6000BDF902001F2805DDBDF80200403800B2AF
:101F7000ADF80200BDF80200BDF80010084400B240
:101F8000ADF80200B4F87200C0F3090000EE100AC8
:101F9000B8EEC00A8DED010A9DED010ADFED5A0A87
:101FA000B4EEE00AF1EE10FA07DD9DED010ADFED77
:101FB000570A30EE600A8DED010AB8EE491BB0EE0B
:101FC000000B06F025F99DED011AB7EEC11A81EE5E
:101FD000002BB7EEC20B8DED010AB4F87200800A37
:101FE00000EE100AB8EEC00A8DED020A9DED020A5D
:101FF000F3EE0F0AB4EEE00AF1EE10FA07DD9DED04
:10200000020ADFED430A30EE600A8DED020A9DED13
:10201000020ADFED400A80EE201AB7EE000A31EE28
:10202000000ADDED010A20EE200A8DED020A94F887
:10203000760000EE100AF8EEC08A9FED370AF4EE43
:10204000C08AF1EE10FA05DD9FED340A38EEC00AC1
:10205000F0EE408A94F87000C0F3031000F1080617
:1020600000EE106AB8EE401BB0EE000B06F0D0F8A0
:10207000B7EEE81A81EE002BB7EEC20B85ED080A29
:10208000B4F87600000A00EE100AB8EEC08A9FEDA0
:10209000220AB4EEC08AF1EE10FA05DD9FED1F0AA8
:1020A00038EE400AB0EE408AB4F87000C0F303275F
:1020B00000EE107AB8EE401BB0EE000B06F0A8F868
:1020C000B7EEC81A81EE002BB7EEC20B85ED070AFA
:1020D0009DED010A05F5205080ED910A9DED020A63
:1020E00042F64420284480ED010ABDF8001042F673
:1020F0004C204153BDF8020042F64C21294448804F
:1021000003B0BDEC048BF0BD0080FF4300008044B1
:1021100000008042000000430000FE4200008043B7
:102120002DE9F04782460D4600240027A046A1462F
:1021300000BF0DE04FF6FF7042F65C21294421F804
:10214000140042F66621294421F81400601C84B270
:10215000052CEFDB00241EE004F140003AF81000EB
:1021600038B942F65C20284420F81740781C87B222
:102170000FE004F140001AF8100000F0010040B137
:1021800042F66620284420F8184008F101001FFAA2
:1021900080F8601C84B2B4F5407F04DA052F02DABF
:1021A000B8F1050FD8DB042F02DD6FF0020964E0FF
:1021B000B8F1040F02DD6FF003095EE007EB0800E1
:1021C000042802DD6FF0040957E0002419E0661CC2
:1021D00013E042F65C222A4432F8161042F65C22E2
:1021E0002A4432F81400FFF7BFFC8146B9F1000F12
:1021F00002D04846BDE8F087761CBE42E9DB601C91
:1022000084B2BC42E3DB002418E0661C12E042F614
:1022100066222A4432F8161042F666222A4432F820
:102220001400FFF7A1FC8146B9F1000F01D0484628
:10223000E0E7761C4645EADB601C84B24445E4DBFB
:10224000002418E0002612E042F666222A4432F802
:10225000161042F65C222A4432F81400FFF784FC80
:102260008146B9F1000F01D04846C3E7761C4645C8
:10227000EADB601C84B2BC42E4DB4846BAE70246B3
:10228000B2F8603018B2B0F5004F00DB00B28882BF
:1022900070470000B0F87820120A00EE902AF8EE9D
:1022A000E00AB0EE600ADFED0B0AB4EEE00AF1EEF0
:1022B00010FA05DDDFED080A70EE600AB0EE600A84
:1022C000DFED060A80EE201AB0EE410A81ED0A0A1F
:1022D000704700000000FE420000804300000046FE
:1022E00030B57A308288C2F3013202EB82025400A8
:1022F0006FF027028A870025CD870279C2F3031584
:10230000402255528288C2F3032542225552402270
:10231000525A12FB04F215B240225552B1F9405004
:102320004222525A12FB045215B2422255520279ED
:1023300002F00F0202F10803012202FA03F302780D
:1023400000EE102AB8EEC00A81ED0B0A0288120ACC
:1023500000EE102AB8EEC00A81ED0C0A827800EE79
:10236000102AB8EEC00A81ED0D0A42887A38120AA6
:1023700000EE102AB8EEC00A81ED0E0A00222FE00E
:1023800001F12C0505EB820595ED000ADFED160A3B
:10239000B4EEE00AF1EE10FA0FDD01F12C0505EBC9
:1023A000820595ED000ADFED110A30EE600A01F1B9
:1023B0002C0505EB820585ED000A01F12C0505EBE6
:1023C0008205D5ED000A00EE103AB8EEC00A80EEA4
:1023D000801A01F12C0505EB820585ED001A521CCF
:1023E000042ACDDB30BD00000000FE420000804327
:1023F0002DE9F04F85B006460D460024B6F86C0076
:10240000000A4FFA80FABAF17F0F01DD4FFA8AFA1B
:102410008DF810A096F86C004FFA80F8B8F17F0F95
:1024200001DD4FFA88F88DF81280B6F86E00000AC8
:1024300047B27F2F00DD7FB28DF8117096F86E00E5
:102440004FFA80F9B9F17F0F01DD4FFA89F98DF864
:10245000139096F87000C0F303100830039096F8BC
:10246000700000F00F0002904FF0000BA5E000207C
:1024700000909CE02021009801FB0B042046E3170C
:1024800004EBD3635B1121464FEAE47C04EB9C6CC4
:102490004FEAAC1CA3EB4C03224604EBD27C4FEA80
:1024A0006C0CA4EB4C0C4FF0020E0EFB03C3DBB222
:1024B0000193403016F81000C0F3420000EE100AFD
:1024C000B8EEC00A41F24420284400EB840080EDBD
:1024D000000A41F24420284400EB840090ED000AF9
:1024E000F0EE080AB4EEE00AF1EE10FA11DD41F266
:1024F0004420284400EB840090ED000AF2EE000A2C
:1025000030EE600A41F24420284400EB840080ED64
:10251000000A41F24420284400EB8400D0ED000A78
:102520000121029801FA00F000EE100AB8EEC00A8C
:1025300020EE800A41F24420284400EB840080ED24
:10254000000A04A90198085600EE100AB8EEC00A65
:1025500041F24420284400EB8400D0ED000A30EE24
:10256000200A41F24420284400EB840080ED000A58
:102570009DED030AB8EE401BB0EE000B05F048FEDF
:1025800041F24420284400EB840090ED001AB7EE9D
:10259000C11A81EE002BB7EEC20B41F24420284451
:1025A00000EB840080ED000A0098401C0090009829
:1025B0002028FFF65FAF0BF1010BBBF1180FFFF600
:1025C00056AF05B0BDE8F08F2DE9FF5F05460E461A
:1025D0000024B5F868004FEA103ABAF1070F03DD9E
:1025E000AAF110004FFA80FA8DF80CA0B5F8680037
:1025F000C0F30328B8F1070F03DDA8F110004FFA6C
:1026000080F88DF80E8095F86800C0F30317072F47
:1026100002DDA7F1100047B28DF80D7095F8680043
:1026200000F00F09B9F1070F03DDA9F110004FFA0F
:1026300080F98DF80F90B5F87000C0F30320029078
:102640000020009053E04FF0000B4AE0202100985A
:1026500001FB00B42046E31704EBD3635B11214672
:102660004FEAE47C04EB9C6C4FEAAC1CA3EB4C03FC
:10267000224604EBD27C4FEA6C0CA4EB4C0C4FF0DE
:10268000020E0EFB03C3DBB2019303A8019BC056ED
:1026900000EE100AB8EEC00A41F64460304400EB88
:1026A000840080ED000A9DED020AB8EE401BB0EEFA
:1026B000000B05F0ADFD41F64460304400EB8400B2
:1026C00090ED001AB7EEC11A81EE002BB7EEC20BE7
:1026D00041F64460304400EB840080ED000A0BF1C9
:1026E000010BBBF1200FB1DB0098401C009000985B
:1026F0001828A8DBBDE8FF9F2DE9F043B8B00246DB
:10270000002092F8203003F00F0C92F82030C3F331
:102710000317138CC3F30326538C1DB2B5F5004F7A
:1027200000DB2DB2002328E0980003F1120412F818
:10273000144004F00F040DF1800848F8204003F124
:10274000120412F81440C4F303180DF18009441C5C
:1027500049F8248003F1120432F81440C4F303282A
:10276000841C49F8248003F1120432F814404FEA23
:102770001438C41C49F824805B1C062BD4DB0023CE
:102780000DE020AC54F82340072C07DD20AC54F8B2
:102790002340103C0DF1800848F823405B1C182BA7
:1027A000EFDB002324E0980003F1180412F8144032
:1027B00004F00F044DF8204003F1180412F81440FF
:1027C000C4F30318441C4DF8248003F1180432F8B4
:1027D0001440C4F30328841C4DF8248003F118042A
:1027E00032F814404FEA1438C41C4DF824805B1CA6
:1027F000082BD8DB002309E05DF82340072C04DD1B
:102800005DF82340103C4DF823405B1C202BF3DB8C
:1028100000234CE0002447E04FF0200808FB034071
:1028200000F1400832F818804FEA982901F6444830
:1028300028F8109038F91080B8F11F0F0BDD01F661
:10284000444838F81080A8F140080FFA88F901F6DA
:10285000444828F8109001F6444838F810804FF0AA
:10286000010909FA0CF908FB09F80FFA88F901F6D1
:10287000444828F810900DF1800838F8238008FAB1
:1028800006F808EB05093DF8248008FA07F8C1446A
:1028900001F6444838F81080C8440FFA88F901F668
:1028A000444828F81090641C202CB5DB5B1C182BC6
:1028B000B0DB38B0BDE8F08370B52DED048B044675
:1028C0000D46B4F86400800A00EE100AB8EEC00AA3
:1028D000F0EE408AB3EE0F0AF4EEC08AF1EE10FA81
:1028E00005DD9FED250A38EEC00AF0EE408A9FED27
:1028F000230AC8EE800AF0EE608AB4F86400C0F3E0
:10290000090000EE100AB8EEC08A9FED1D0AB4EE71
:10291000C08AF1EE10FA05DD9FED1A0A38EE400A82
:10292000B0EE408AB2EE000AC8EE000AB0EE608A4D
:10293000B4F8620006B2B2EE0C1BB0EE000B05F06C
:1029400067FCB0EE401B208C00F4704000EE100AD3
:10295000B8EEC00B80EE012BB2EE000B32EE000B96
:10296000B7EEC09BC5ED018A85ED028AAE8185ED8B
:10297000049ABDEC048B70BD0000804200008045CD
:102980000080FF4300008044B0F87030C3F3013290
:1029900081F824207047000090F8782000EE902AFB
:1029A000F8EEE00AB0EE600ADFED0A0AB4EEE00AE3
:1029B000F1EE10FA05DDDFED080A70EE600AB0EE08
:1029C000600ADFED060A80EE201AB0EE410A81EDC2
:1029D000060A70470000FE420000804300000042EB
:1029E00030B50A46B0F8664021B2B0F86640210A18
:1029F0007F2902DDA1F5807421B24C0121B290F84B
:102A00006630A3F580744FF40055C5EB4413118074
:102A1000538030BD70B50446B3F5804F13D1D1E972
:102A2000000540EA05108D6840EA05208D692843BD
:102A30008D8940EA054054F82250064E354028431F
:102A400044F8220003E06FF0704044F822000020B8
:102A500070BD00000000F0CF30B50246086852F8A3
:102A6000200020F001000C6842F824008868082843
:102A700001D1402300E00023486818438C682043BC
:102A8000CC6820430C6920434C6920438C69204367
:102A9000CC6920430C6A20434C6A20438C6A204353
:102AA000CC6A20430C6B20434C6B20438C6B20433F
:102AB0000C6852F824400D4D2C4020430C6842F81D
:102AC0002400086BB0F5801F07D1086828B1106892
:102AD00020F480100C6B20431060086818B1106857
:102AE0004C6B20431060002030BD00008004C0FF0C
:102AF00030B50346D1E9000540EA05108D6840EA8B
:102B000005208D8940EA0545088A401E45EA0055A2
:102B1000087D801E45EA00608D692843551C53F8E6
:102B2000255005F040452843551C43F825001868FA
:102B300000F48010B0F5801F0BD1586820F47004A9
:102B4000088A401E44EA0054586820F4700020436C
:102B50005860002030BD000070B504460CB901205B
:102B600070BD94F83500022803D0802060650120F4
:102B7000F6E7DC492068884249D0DA4918312068F4
:102B8000884244D0D7493031206888423FD0D54967
:102B90004831206888423AD0D24960312068884262
:102BA00035D0D04978312068884230D0CD49903135
:102BB000206888422BD0CB49A8312068884226D093
:102BC000C9492068884222D0C74918312068884204
:102BD0001DD0C54930312068884218D0C2494831DB
:102BE0002068884213D0C0496031206888420ED0E6
:102BF000BD4978312068884209D0BB4990312068AE
:102C0000884204D0B849A8312068884201D1012007
:102C100000E00020F0B3042084F83500B1492068BA
:102C200088424BD0AF4918312068884246D0AD4920
:102C300030312068884241D0AA4948312068884212
:102C40003CD0A84960312068884237D0A549783106
:102C50002068884232D0A3499031206888422DD024
:102C6000A049A8312068884228D09F49206888421E
:102C700024D09D491831206888421FD09A493031AC
:102C8000206888421AD0984948312068884215D077
:102C9000954900E020E06031206888420ED09249DA
:102CA00078312068884209D08F4990312068884265
:102CB00004D08D49A8312068884206D12068006878
:102CC00020F001002168086009E12068006820F018
:102CD00001002168086002E12068006820F00E0011
:102CE000216808607F492068884249D07D491831B1
:102CF0002068884244D07B493031206888423FD0E8
:102D000078494831206888423AD076496031206855
:102D1000884235D0734978312068884230D0714973
:102D20009031206888422BD06E49A83120688842B3
:102D300026D06D492068884222D06B49183120681E
:102D400088421DD0684930312068884218D06649D1
:102D500048312068884213D0634960312068884236
:102D60000ED0614978312068884209D05E4990319F
:102D70002068884204D05C49A8312068884206D186
:102D80002068006820F001002168086005E02068E4
:102D9000006820F0010021680860524920688842DC
:102DA00070D050491831206888426BD04D4930317D
:102DB0002068884266D04B4948312068884261D0FB
:102DC00048496031206888425CD0464978312068A3
:102DD000884257D0434990312068884252D04149B7
:102DE000A831206888424DD03F492068884249D0A8
:102DF0003D4918312068884244D03B493031206831
:102E000088423FD038494831206888423AD0364914
:102E100060312068884235D0334978312068884253
:102E200030D031499031206888422BD02E49A831CA
:102E30002068884226D02D492068884222D02B491C
:102E40001431206888421DD02849283120688842E2
:102E500018D026493C312068884213D0234950318C
:102E6000206888420ED0214964312068884209D008
:102E70001E4978312068884204D01C498C31206872
:102E8000884201D1012000E00020D8B1206E006806
:102E900020F48070216E0860A56D94F85C0000F04D
:102EA0001F01012088406860D4E919104860E06E75
:102EB00040B1E06E006820F48070E16E0860D4E9F3
:102EC0001C10486000BF002084F8340000BF0120BF
:102ED00084F83500206D10B12046216D8847002010
:102EE0003EE6000010000240100402400854025860
:102EF0000348006840F00100014908607047000085
:102F000020040058F8B502460023734DDEE0012787
:102F10009F400E6806EA0704002C71D04E68022E0E
:102F200002D04E68122E13D1DF0802F1200656F8A7
:102F300027005E07F70E0F26BE40B0435F07FF0E67
:102F40000E69BE403043DF0802F1200646F8270034
:102F500010685F000326BE40B0430E7906F00306FA
:102F60005F00BE40304310604E68012E08D04E68AE
:102F7000022E05D04E68112E02D04E68122E13D1AB
:102F800090685F000326BE40B0435F00CE68BE403D
:102F900030439060506801269E40B0430E79C6F3DE
:102FA00000169E4030435060D0685F000326BE404C
:102FB000B0435F008E68BE403043D0604E6806F07C
:102FC0008056B6F1805F1BD100BF444E366846F094
:102FD0000206424F3E603E46366806F00206009604
:102FE00000BF00BF3E4E9F0856F827009E07370FD0
:102FF0000F26BE40B0433B4EB24202D100262EE027
:1030000063E0394EB24201D1012628E0374EB24288
:1030100001D1022623E0364EB24201D103261EE042
:10302000344EB24201D1042619E0334EB24201D1EE
:10303000052614E0314EB24201D106260FE0304E93
:10304000B24201D107260AE02E4EB24201D1082633
:1030500005E02D4EB24201D1092600E00A269F0765
:103060003F0FBE4030431E4E9F0846F82700286899
:10307000A0434E6806F48036B6F5803F00D1204369
:1030800028606868A0434E6806F40036B6F5003F35
:1030900000D1204368604FF0B0463068A0434E68CE
:1030A00006F48016B6F5801F00D120434FF0B046DD
:1030B00030607068A0434E6806F40016B6F5001F35
:1030C00000D120434FF0B04670605B1C0E68DE40BC
:1030D000002E7FF41CAFF8BD80000058F444025865
:1030E0000804005800000258000402580008025862
:1030F000000C025800100258001402580018025820
:10310000001C02580020025800240258024613698D
:103110000B400BB1012000E0002070470AB1816133
:1031200001E00B048361704701480068000C7047A0
:103130000010005C01480068704700002400002473
:10314000034800680349097808440149086070474A
:10315000240000242C00002410B5052000F00AF9FA
:1031600001F0CCFA10490968C1F303210F4A515C00
:1031700001F01F01C8400E4908600B48006800F0CC
:103180000F001146085C00F01F0109480068C840A4
:10319000084908600F2000F00FF808B1012010BDA9
:1031A00000F09AF80020FAE7184402582AB4000800
:1031B000100000241400002470B504461148007863
:1031C00008B9012070BD0F4800784FF47A71B1FB47
:1031D000F0F00D490968B1FBF0F5284601F0B1FFA8
:1031E00008B10120EEE7102C07D200222146501E24
:1031F00000F083F80548046001E00120E2E70020C8
:10320000E0E700002C000024100000242800002427
:103210004178154A11600178F9B1121D41681160B9
:10322000017B0907C27A41EA0261827A41EAC2411E
:10323000427B41EA8241827B41EA4241C27B41EAD0
:103240000241427A41EA0221027A41EA42010278CD
:103250001143054A0832116005E00021024A121D9F
:103260001160121D1160704798ED00E000BF00BFB3
:1032700000BFBFF35F8F00BF00BF00BF05480068FD
:1032800020F4803003490860002002497031086052
:103290007047000024ED00E040F001010D4A11608C
:1032A0000C497039096841F480310A4A703A11605A
:1032B00000BF00BF00BFBFF34F8F00BF00BF00BF04
:1032C00000BF00BF00BFBFF36F8F00BF00BF00BFD4
:1032D0007047000094ED00E0704701460846002862
:1032E00009DB00F01F0301229A4043099B0003F110
:1032F000E023C3F8002100BF70472DE9F05F80464E
:103300000D46164604F068FF074639462A463346FE
:1033100001F00700C0F1070ABAF1040F02D94FF01B
:10332000040A01E0C0F1070AD14600F1040ABAF12B
:10333000070F02D24FF0000A01E0A0F1030AD446C1
:103340004FF0010A0AFA09FAAAF1010A0AEA020A86
:103350000AFA0CFA4FF0010B0BFA0CFBABF1010B64
:103360000BEA030B4AEA0B042146404604F03CFFFB
:10337000BDE8F09F00BF00F00702064B19684FF64A
:10338000FF031940044B0B4343EA0221014B196030
:1033900000BF70470CED00E00000FA05034800682C
:1033A00040F0807001490860704700000C480258E6
:1033B00010B501F0A3F907490968C1F30321064AD2
:1033C000515C01F01F01C8400449086008460068CC
:1033D00010BD0000184402582AB400081000002450
:1033E00010B501F04FF905490968C1F30211044A0B
:1033F000515C01F01F01C84010BD0000204402587C
:103400002AB4000870B50146844D2D6805F0030309
:10341000824D2D68C5F30530804D2D1D2D68C5F3F7
:1034200000147E4D14352D68C5F3CC0515FB04F54D
:1034300001EE105AB8EE411AF0EE410A00286FD0A2
:1034400023B1012B4ED0022B6BD16BE0734D283D85
:103450002D68C5F340153DB3704D283D2D68C5F36B
:10346000C1066F4D25FA06F201EE102AF8EE411A58
:1034700001EE100AB8EE411A81EE812A9FED691A19
:10348000C0EE811A654D10352D68C5F3080501EEB3
:10349000105AB8EE411A31EE811AF7EE001A31EEE9
:1034A000211A22EE010A1CE001EE100AB8EE411AC0
:1034B000DFED5D1A81EE812A9FED5A1AC0EE811A66
:1034C000564D10352D68C5F3080501EE105AB8EEBB
:1034D000411A31EE811AF7EE001A31EE211A22EE6E
:1034E000010A5BE001EE100AB8EE411ADFED4F1A57
:1034F00081EE812A9FED4B1AC0EE811A474D10359F
:103500002D68C5F3080501EE105AB8EE411A31EEE8
:10351000811AF7EE001A31EE211A22EE010A3DE07F
:1035200077E01DE001EE100AB8EE411A9FED402A47
:10353000C2EE011A9FED3B1A80EE812A374D1035FD
:103540002D68C5F3080501EE105AB8EE411A32EEA7
:10355000011AB7EE002A31EE021A21EE810A1DE0AF
:1035600001EE100AB8EE411ADFED301A81EE812A21
:103570009FED2C1AC0EE811A284D10352D68C5F329
:10358000080501EE105AB8EE411A31EE811AF7EE35
:10359000001A31EE211A22EE010A00BF00BF1F4DB2
:1035A00010352D68C5F3462501EE105AB8EE411AC4
:1035B000F7EE001A31EE211AC0EE011ABCEEE11A44
:1035C00081ED001A154D10352D68C5F3064501EE45
:1035D000105AB8EE411AF7EE001A31EE211AC0EE79
:1035E000011ABCEEE11A81ED011A0C4D10352D685F
:1035F000C5F3066501EE105AB8EE411AF7EE001A4F
:1036000031EE211AC0EE011ABCEEE11A81ED021A68
:1036100003E000250D604D608D6070BD28440258A8
:103620000090D003000000460024744C0024744A2B
:103630000024F44A70B50146844D2D6805F003035B
:10364000824D2D68C5F30550804D2D1D2D68C5F3A5
:1036500000247E4D1C352D68C5F3CC0515FB04F503
:1036600001EE105AB8EE411AF0EE410A00286FD070
:1036700023B1012B4ED0022B6BD16BE0734D283D53
:103680002D68C5F340153DB3704D283D2D68C5F339
:10369000C1066F4D25FA06F201EE102AF8EE411A26
:1036A00001EE100AB8EE411A81EE812A9FED691AE7
:1036B000C0EE811A654D18352D68C5F3080501EE79
:1036C000105AB8EE411A31EE811AF7EE001A31EEB7
:1036D000211A22EE010A1CE001EE100AB8EE411A8E
:1036E000DFED5D1A81EE812A9FED5A1AC0EE811A34
:1036F000564D18352D68C5F3080501EE105AB8EE81
:10370000411A31EE811AF7EE001A31EE211A22EE3B
:10371000010A5BE001EE100AB8EE411ADFED4F1A24
:1037200081EE812A9FED4B1AC0EE811A474D183564
:103730002D68C5F3080501EE105AB8EE411A31EEB6
:10374000811AF7EE001A31EE211A22EE010A3DE04D
:1037500077E01DE001EE100AB8EE411A9FED402A15
:10376000C2EE011A9FED3B1A80EE812A374D1835C3
:103770002D68C5F3080501EE105AB8EE411A32EE75
:10378000011AB7EE002A31EE021A21EE810A1DE07D
:1037900001EE100AB8EE411ADFED301A81EE812AEF
:1037A0009FED2C1AC0EE811A284D18352D68C5F3EF
:1037B000080501EE105AB8EE411A31EE811AF7EE03
:1037C000001A31EE211A22EE010A00BF00BF1F4D80
:1037D00018352D68C5F3462501EE105AB8EE411A8A
:1037E000F7EE001A31EE211AC0EE011ABCEEE11A12
:1037F00081ED001A154D18352D68C5F3064501EE0B
:10380000105AB8EE411AF7EE001A31EE211AC0EE46
:10381000011ABCEEE11A81ED011A0C4D18352D6824
:10382000C5F3066501EE105AB8EE411AF7EE001A1C
:1038300031EE211AC0EE011ABCEEE11A81ED021A36
:1038400003E000250D604D608D6070BD2844025876
:103850000090D003000000460024744C0024744AF9
:103860000024F44A2DE9F04104460025A8462068CA
:1038700000F00060B0F1006F30D1606E48B1B0F57B
:10388000801F0DD0B0F5001F10D0B0F5401F15D12E
:1038900013E0F948006840F40030F74908600FE091
:1038A0000221201D02F022FC054609E0022104F15C
:1038B000240002F0CDFC054602E001E0012500BF36
:1038C00000BF55B9EC482430006820F44010616E08
:1038D0000843E9492431086000E0A846208800F444
:1038E0008070B0F5807F2DD1606D05281AD2DFE899
:1038F00000F0030A10171800DF48006840F4003099
:10390000DD49086010E00021201D02F0EFFB0546B4
:103910000AE0002104F1240002F09AFC054603E0CD
:1039200002E001E0012500BF00BF55B9D2482430B4
:10393000006820F00700616D0843CF49243108601A
:1039400000E0A846208800F40070B0F5007F33D175
:10395000A06D802817D003DC40B140281CD10CE0BA
:10396000C02817D0B0F5807F16D114E0C248006897
:1039700040F40030C049086010E00021201D02F032
:10398000B5FB05460AE0002104F1240002F060FCCA
:10399000054603E002E001E0012500BF00BF55B984
:1039A000B5482430006820F4E070A16D0843B249A6
:1039B0002431086000E0A846208800F48060B0F55B
:1039C000806F38D1D4F8A400B0F5800F19D004DC92
:1039D00050B1B0F5001F1DD10DE0B0F5C00F17D0EC
:1039E000B0F5000F16D114E0A348006840F4003091
:1039F000A149086010E00021201D02F077FB054678
:103A00000AE0002104F1240002F022FC054603E054
:103A100002E001E0012500BF00BF5DB996482C30EF
:103A2000006820F46000D4F8A410084392492C31B7
:103A3000086000E0A846208800F40060B0F5006F40
:103A400038D1D4F8A800B0F1007F19D004DC50B10F
:103A5000B0F1807F1DD10DE0B0F1407F17D0B0F103
:103A6000806F16D114E08448006840F40030824929
:103A7000086010E00021201D02F038FB05460AE036
:103A8000002104F1240002F0E3FB054603E002E01C
:103A900001E0012500BF00BF5DB977482C30006808
:103AA00020F0E060D4F8A810084373492C31086076
:103AB00000E0A846206800F00070B0F1007F27D138
:103AC000A06CA0B1102804D0202809D030280FD134
:103AD0000CE06948006840F400306749086009E07C
:103AE0000221201D02F002FB054603E002E001E096
:103AF000012500BF00BF55B95F482030006820F0A5
:103B00003000A16C08435C492031086000E0A84601
:103B1000208800F48050B0F5805F36D1E06DB0F5BC
:103B2000005F19D004DC50B1B0F5805F1DD10DE00D
:103B3000B0F5405F17D0B0F5804F16D114E04E4875
:103B4000006840F400304C49086010E00021201D5E
:103B500002F0CCFA05460AE0002104F1240002F04C
:103B600077FB054603E002E001E0012500BF00BF4E
:103B700055B941482430006820F4E040E16D084325
:103B80003D492431086000E0A846208800F4005038
:103B9000B0F5005F34D1206EB0F5403F1DD007DC9A
:103BA00068B1B0F5803F0BD0B0F5003F18D10DE003
:103BB000B0F5802F12D0B0F5A02F11D10FE011E099
:103BC0000121201D02F092FA05460BE0012104F1CB
:103BD000240002F03DFB054604E003E002E001E0C2
:103BE000012500BF00BF55B923482430006820F4E8
:103BF000E020216E084320492431086000E0A846F7
:103C0000208800F48040B0F5804F38D1D4F8AC0063
:103C1000B0F1405F1DD007DC68B1B0F1805F0BD020
:103C2000B0F1005F18D10DE0B0F1804F12D0B0F1CB
:103C3000A04F11D10FE011E00121201D02F056FA32
:103C400005460BE0012104F1240002F001FB0546CA
:103C500004E003E002E001E0012500BF00BF6DB910
:103C600005482C30006820F0E040D4F8AC10084340
:103C700001492C31086002E02C440258A8462088F3
:103C800000F40040B0F5004F26D1E06E98B1B0F1DD
:103C9000805F03D0B0F1005F0ED106E0F948006804
:103CA00040F40030F749086008E00121201D02F0CF
:103CB0001DFA054602E001E0012500BF00BF55B92D
:103CC000F0482430006820F04050E16E0843ED4990
:103CD0002431086000E0A846206800F08070B0F150
:103CE000807F27D1606CA0B1012804D0022809D0C0
:103CF00003280FD10CE0E348006840F40030E149AC
:103D0000086009E00221201D02F0F0F9054603E0F9
:103D100002E001E0012500BF00BF55B9D9482030BD
:103D2000006820F00300616C0843D6492031086028
:103D300000E0A846206800F48000B0F5800F7DD137
:103D4000D148006840F48070CF490860FFF7F2F96D
:103D5000064606E0FFF7EEF9801B642801D903252B
:103D600005E0C948006800F480700028F2D000BF68
:103D700085BBC4484430006800F44070B4F8B0100B
:103D800001F44071884213D0BE484430006820F4EA
:103D90004077BC484430006840F48030B949443131
:103DA00008600846006820F4803008600846076014
:103DB000D4F8B000B0F5807F15D1FFF7BBF9064607
:103DC00009E0FFF7B7F9801B41F28831884202D938
:103DD000032507E038E0AB4844300068C0F34000FA
:103DE0000028EED000BF55BB00BFB4F8B00000F40F
:103DF0004070B0F5407F0ED1A2481C38006820F416
:103E00007C51A24AD4F8B000104041EA10109D49FC
:103E10001C39086007E09B481C38006820F47C507F
:103E200098491C390860974844300068B4F8B010CD
:103E3000C1F30B0108439349443101E005E001E07F
:103E4000086002E0A84600E0A846207800F00100E3
:103E500068B3A06F182819D005DC48B1082808D02D
:103E6000102816D10BE0202811D0282811D10FE0FE
:103E700011E00121201D02F039F905460BE0012176
:103E800004F1240002F0E4F9054604E003E002E056
:103E900001E0012500BF00BF55B97A48283000680D
:103EA00020F03800A16F084376492831086000E00F
:103EB000A846207800F00200022828D1606F06286A
:103EC00015D2DFE800F003040A11121311E00121FA
:103ED000201D02F00BF905460BE0012104F124003E
:103EE00002F0B6F9054604E003E002E001E0012536
:103EF00000BF00BF55B963482830006820F00700B4
:103F0000616F08435F492831086000E0A8462078C7
:103F100000F0040004282AD1D4F89000062815D215
:103F2000DFE800F003040A11121311E00121201D43
:103F300002F0DCF805460BE0012104F1240002F058
:103F400087F9054604E003E002E001E0012500BF37
:103F500000BF5DB94B482C30006820F00700D4F852
:103F60009010084347492C31086000E0A8462078AB
:103F700000F02000202836D1D4F88C00B0F1405F4A
:103F80001DD007DC68B1B0F1805F0BD0B0F1005FED
:103F900018D10DE0B0F1804F12D0B0F1A04F11D187
:103FA0000FE011E00021201D02F0A0F805460BE013
:103FB000022104F1240002F04BF9054604E003E07D
:103FC00002E001E0012500BF00BF5DB92D482830A7
:103FD000006820F0E040D4F88C10084329492831CB
:103FE000086000E0A846207800F04000402836D164
:103FF000D4F89800B0F5406F1DD007DC68B1B0F57B
:10400000806F0BD0B0F5006F18D10DE0B0F5805F78
:1040100012D0B0F5A05F11D10FE011E00021201DFA
:1040200002F064F805460BE0022104F1240002F0DE
:104030000FF9054604E003E002E001E0012500BFBE
:1040400000BF5DB90F482C30006820F4E050D4F870
:10405000981008430B492C31086000E0A8462078EE
:1040600000F0800080283AD1D4F89C00B0F5C04F11
:1040700023D00DDC98B1B0F5005F11D0B0F5804FC2
:104080001ED113E02C44025800480258FFFCFF0FD9
:10409000B0F5004F12D0B0F5204F11D10FE011E074
:1040A0000021201D02F022F805460BE0022104F158
:1040B000240002F0CDF8054604E003E002E001E050
:1040C000012500BF00BF4DB9AD48006820F4604035
:1040D000D4F89C100843AA49086000E0A84620785C
:1040E00000F00800082817D1D4F88000B0F5805FF0
:1040F00007D1022104F1240002F0AAF808B14FF020
:1041000001089F48001F006820F44050D4F8801038
:1041100008439B49091F0860207800F01000102810
:1041200015D1D4F89400B0F5807F07D1022104F1B5
:10413000240002F08DF808B14FF0010890480068A3
:1041400020F44070D4F8941008438D49086020682A
:1041500000F40020B0F5002F26D1D4F8A00030B133
:10416000B0F5803F09D0B0F5003F0ED10CE0002142
:10417000201D01F0BBFF054609E0022104F12400E7
:1041800002F066F8054602E001E0012500BF00BF2D
:104190004DB97B48006820F44030D4F8A0100843A3
:1041A0007749086000E0A846206800F48020B0F558
:1041B000802F2DD1D4F88400B0F5801F06D0B0F543
:1041C000001F0CD0B0F5401F11D10FE06C482C3807
:1041D000006840F400306A492C39086009E0012188
:1041E00004F1240002F034F8054602E001E0012564
:1041F00000BF00BF5DB96248001F006820F4401096
:10420000D4F8841008435E49091F086000E0A846FE
:10421000206800F48030B0F5803F24D1E06C18B104
:10422000B0F5803F0FD108E055482C38006840F4C5
:10423000003053492C39086007E00221201D01F0AD
:1042400055FF054601E0012500BF00BF55B94C48A8
:104250000C38006820F48030E16C084348490C3980
:10426000086000E0A846206800F00050B0F1005F50
:1042700007D1022104F1240001F0EAFF08B14FF058
:104280000108206800F40030B0F5003F27D1E06F4E
:10429000A0B1B0F5807F06D0B0F5007F0CD0B0F5AE
:1042A000407F0CD109E036482C38006840F40030DB
:1042B00033492C39086004E003E002E001E0012505
:1042C00000BF00BF55B92E48001F006820F44070A1
:1042D000E16F08432A49091F086000E0A8462068EA
:1042E00000F48010B0F5801F09D125480838006817
:1042F00020F00040216F08432149083908602068F8
:1043000000F40010B0F5001F09D11D4808380068FE
:1043100020F08070A16E08431949083908602068B0
:1043200000F08040B0F1804F11D100BF14484838F0
:10433000006820F4004012494839086008460068C7
:10434000D4F8B81008430E494839086000BF206807
:1043500000F00040B0F1004F09D109480C38006866
:1043600020F04050216D084305490C390860B8F130
:10437000000F02D10020BDE8F0810120FBE7000022
:10438000584402582DE9F04104460D4614B9012065
:10439000BDE8F081B648006800F00F00A8420ED2D8
:1043A000B348006820F00F002843B1490860084670
:1043B000006800F00F00A84201D00120E8E7207853
:1043C00000F0040004280ED1AA492069096801F010
:1043D0007001884207D9A748006820F07000216961
:1043E0000843A4490860207800F00800082811D18B
:1043F000A049091D6069096801F07001884209D966
:104400009C48001D006820F07000616908439949CC
:10441000091D0860207800F01000102811D195497E
:10442000091DA069096801F4E061884209D9914831
:10443000001D006820F4E060A16908438D49091D52
:104440000860207800F02000202811D18949083127
:10445000E069096801F07001884209D9854808308F
:10446000006820F07000E169084382490831086063
:10447000207800F0020002280ED17E49E068096829
:1044800001F00F01884207D97A48006820F00F0038
:10449000E168084377490860207800F001000028AF
:1044A00050D07448006820F47060A16808437149D6
:1044B00008606068022807D16E4818380068C0F3A9
:1044C0004040F8B9012063E76068032807D16948D4
:1044D00018380068C0F34060A0B9012058E7606850
:1044E000012807D1634818380068C0F3002048B994
:1044F00001204DE75F4818380068C0F3800008B914
:10450000012045E75B480838006820F00700616833
:104510000843584908390860FEF70CFE064608E0D3
:10452000FEF708FE801B41F28831884201D9032042
:104530002EE750480838006800F038006168B0EB9A
:10454000C10FEDD1207800F0020002280ED14949B8
:10455000E068096801F00F01884207D24548006809
:1045600020F00F00E16808434249086040480068B5
:1045700000F00F00A8420ED93D48006820F00F005F
:1045800028433B4908600846006800F00F00A84235
:1045900001D00120FCE6207800F0040004280ED1B0
:1045A00034492069096801F07001884207D2314816
:1045B000006820F07000216908432E4908602078C7
:1045C00000F00800082811D12A49091D606909680E
:1045D00001F07001884209D22648001D006820F0D1
:1045E0007000616908432349091D0860207800F0C4
:1045F0001000102811D11F49091DA069096801F494
:10460000E061884209D21B48001D006820F4E06088
:10461000A16908431749091D0860207800F02000AF
:10462000202811D113490831E069096801F07001AF
:10463000884209D20F480830006820F07000E16914
:1046400008430C490831086000F058F80949096826
:10465000C1F30321084A515C01F01F01C84007491A
:10466000086007480068FEF7A7FD074638468FE652
:1046700000200052184402582AB4000810000024F8
:104680002800002410B5FEF793FE0749096801F0E1
:104690000F01064A515C01F01F01C840044908603F
:1046A0000846006810BD0000184402582AB40008EB
:1046B0001400002410B5FFF7E5FF05490968C1F3B0
:1046C0000211044A515C01F01F01C84010BD0000F6
:1046D0001C4402582AB4000810B5FFF7D3FF05495F
:1046E0000968C1F30221044A515C01F01F01C8406E
:1046F00010BD00001C4402582AB40008F0B5824ED8
:10470000366806F0380636B1082E15D0102E15D0B2
:10471000182E7DD114E07C4E103E3668C6F340164C
:1047200046B1794E103E3668C6F3C107774E26FA79
:1047300007F000E07548E5E07548E3E07548E1E022
:10474000714E1836366806F003046F4E1836366818
:10475000C6F305116C4E1C36366806F001056A4E2C
:1047600024363668C6F3CC0616FB05F601EE106A51
:10477000B8EE410A002971D024B1012C50D0022C8E
:104780006DD16DE0604E103E3668C6F340163EB304
:104790005D4E103E3668C6F3C1075C4E26FA07F33D
:1047A00001EE103AF8EE411A01EE101AB8EE411A75
:1047B00081EE812A9FED581AC0EE011A524E203622
:1047C0003668C6F3080601EE106AB8EE411A31EEFB
:1047D000811AF7EE001A31EE211A62EE010A1EE08C
:1047E00001EE101AB8EE411ADFED4C1A81EE812A63
:1047F0009FED491AC0EE011A434E20363668C6F3C3
:10480000080601EE106AB8EE411A31EE811A00E096
:1048100076E0F7EE001A31EE211A62EE010A5BE053
:1048200001EE101AB8EE411A9FED3D2AC2EE011AB0
:104830009FED391A80EE012A334E20363668C6F3D2
:10484000080601EE106AB8EE411A32EE011AB7EE10
:10485000002A31EE021A61EE810A3DE04EE01DE0D1
:1048600001EE101AB8EE411ADFED2E1A81EE812A00
:104870009FED291AC0EE011A234E20363668C6F382
:10488000080601EE106AB8EE411A31EE811AF7EE11
:10489000001A31EE211A62EE010A1DE001EE101A33
:1048A000B8EE411A9FED1E2AC2EE011A9FED1A1AA8
:1048B00080EE012A144E20363668C6F3080601EE53
:1048C000106AB8EE411A32EE011AB7EE002A31EE44
:1048D000021A61EE810A00BF00BF0B4E2036366817
:1048E000C6F34626721C01EE102AB8EE411AC0EE3D
:1048F000811ABCEEE11A11EE100A00E0002001E07E
:10490000034800BF00BFF0BD104402580090D00320
:1049100000093D0000127A00000000460024744C9B
:104920000024744A0024F44A2DE9F047044614B9DF
:104930000120BDE8F087207800F00100002872D047
:10494000F948006800F03808F7481830D0F80090AF
:10495000B8F1100F06D0B8F1180F0FD109F003000D
:1049600002280BD1F04810380068C0F340400028FE
:104970006ED0606800286BD10120DAE700BF606864
:10498000B0F5803F08D1E8481038006840F4803026
:10499000E549103908602EE0606868B9E2481038CF
:1049A000006820F48030E04910390860084600684B
:1049B00020F4802008601EE06068B0F5A02F0DD1C3
:1049C000D9481038006840F48020D7491039086071
:1049D0000846006840F4803008600CE0D248103887
:1049E000006820F48030D04910390860084600681B
:1049F00020F48020086000BF6068A8B1FEF79AFB31
:104A0000054608E0FEF796FB401B41F288318842DC
:104A100001D903208DE7C44810380068C0F3404036
:104A20000028EFD014E014E0FEF784FB054608E010
:104A3000FEF780FB401B41F28831884201D90320F8
:104A400077E7B94810380068C0F340400028EFD13C
:104A500000BF207800F0020002286BD1B248006845
:104A600000F03808B0481830D0F80090B8F1000FC6
:104A700005D0B8F1180F2BD109F0030040BBAA48AC
:104A800010380068C0F3800018B1E06808B9012050
:104A90004FE700BFFEF748FB41F2030188420BD805
:104AA000A1480C38006820F47C30216940EA0130CC
:104AB0009D490C3908600AE09B480C38006820F0DA
:104AC000FE40217C40EA016097490C39086058E0BB
:104AD000E06870B394481038006820F01900E1686D
:104AE0000843914910390860FEF724FB054606E0AB
:104AF000FEF720FB401B022801D9032019E78A4852
:104B000010380068C0F380000028F1D000BFFEF725
:104B10000BFB41F2030188420DD883480C38006832
:104B200020F47C30216940EA01307F490C3908606B
:104B30000CE00CE026E07C480C38006820F0FE40D9
:104B4000217C40EA016078490C39086019E0764818
:104B50001038006820F00100734910390860FEF732
:104B6000E9FA054606E0FEF7E5FA401B022801D9FE
:104B70000320DEE66C4810380068C0F3800000288F
:104B8000F1D100BF207800F0100010286ED16648E7
:104B9000006800F0380864481830D0F80090B8F188
:104BA000080F06D0B8F1180F2FD109F00300012823
:104BB0002BD15D4810380068C0F3002020B1E069B7
:104BC000802801D00120B4E600BFFEF7ADFA41F223
:104BD000030188420CD854480C38006820F0F84093
:104BE00094F8201040EA81604F490C3908600BE0CE
:104BF0004D48001F006820F07C5094F8201040EAD7
:104C000001604949091F086058E0E06968B34648F7
:104C10001038006840F08000434910390860FEF702
:104C200089FA054606E0FEF785FA401B022801D9FD
:104C300003207EE63C4810380068C0F300200028BE
:104C4000F1D000BFFEF770FA41F2030188420ED89E
:104C500035480C38006820F0F84094F8201040EAFD
:104C6000816031490C3908600DE00DE027E02E48E5
:104C7000001F006820F07C5094F8201040EA01608A
:104C80002949091F086019E027481038006820F0FA
:104C90008000254910390860FEF74CFA054606E009
:104CA000FEF748FA401B022801D9032041E61E48BE
:104CB00010380068C0F300200028F1D100BF207830
:104CC00000F00800082837D16069D0B11648643078
:104CD000006840F00100144964310860FEF72AFAC8
:104CE000054606E0FEF726FA401B022801D90320FC
:104CF0001FE60D4864300068C0F340000028F1D082
:104D00001AE009486430006820F001000649643167
:104D10000860FEF70FFA054608E0FEF70BFA401BA5
:104D2000022803D9032004E610440258DC48006836
:104D3000C0F340000028F0D1207800F020002028A7
:104D400036D1A069D0B1D6487438006840F480509C
:104D5000D34974390860FEF7EDF9054606E0FEF721
:104D6000E9F9401B022801D90320E2E5CC48743858
:104D70000068C0F340300028F1D019E0C84874380A
:104D8000006820F48050C64974390860FEF7D2F9F3
:104D9000054606E0FEF7CEF9401B022801D90320A4
:104DA000C7E5BF4874380068C0F340300028F1D12F
:104DB000207800F0040004287DD1BA48006840F44F
:104DC0008070B8490860FEF7B5F9054606E0FEF7C1
:104DD000B1F9401B642801D90320AAE5B148006855
:104DE00000F480700028F2D000BFA068012808D12C
:104DF000AB48001F006840F00100A949091F086086
:104E00002DE0A06868B9A648001F006820F00100E6
:104E1000A349091F08600846006820F004000860E4
:104E20001DE0A06805280DD19D48001F006840F0D6
:104E300004009B49091F08600846006840F0010013
:104E400008600CE09648001F006820F001009449BB
:104E5000091F08600846006820F00400086000BFD1
:104E6000A068A0B1FEF766F9054608E0FEF762F912
:104E7000401B41F28831884201D9032059E5884816
:104E8000001F0068C0F340000028EFD013E0FEF7D9
:104E900051F9054608E0FEF74DF9401B41F2883113
:104EA000884201D9032044E57D48001F0068C0F313
:104EB00040000028EFD1606A00287DD0784864382F
:104EC000006800F03800182877D0606A022875D191
:104ED00073487438006820F0807071497439086034
:104EE000FEF728F9054606E0FEF724F9401B0228E4
:104EF00001D903201DE56A4874380068C0F340609A
:104F00000028F1D100BFD4E90A1041EA0010644939
:104F10004C39096840F2F3329143084360494C39F7
:104F20000860208E401EC0F30800616B491E4FF4DC
:104F30007E4202EA41210843218F491ED20102EA42
:104F4000014108433C21095D491E120202EA016148
:104F5000084353494439086000BF081F006820F027
:104F60000100091F08604E48403800684FF6F8718C
:104F70008843A16C40EAC10049494039086048486B
:104F80004838006820F00C00216C08434449483937
:104F900008600846006820F00200616C0843404940
:104FA000483908600846006840F4803008600846C8
:104FB000006840F4003002E06FE041E025E0086066
:104FC0000846006840F4802008600846006840F009
:104FD0000100086032487438006840F08070304941
:104FE00074390860FEF7A6F8054606E0FEF7A2F859
:104FF000401B022801D903209BE42948743800682B
:10500000C0F340600028F1D047E0254874380068BC
:1050100020F08070224974390860FEF78BF805464D
:1050200006E0FEF787F8401B022801D9032080E440
:105030001B4874380068C0F340600028F1D12CE0B0
:1050400017484C380768164844380668606A0128D3
:1050500021D007F00301A06A81421CD1C7F30511DA
:10506000E06A884217D1C6F30801206B401E8142D6
:1050700011D1606B401EC6F3462188420BD1A06B54
:10508000401EC6F30641884205D1E06B401EC6F3C0
:105090000661884201D001204BE4002049E4000071
:1050A000744402580048025870B504460E4615462E
:1050B0000CB9012070BD94F8450028B9002084F88F
:1050C0004400204600F028F804F108012068FDF7AC
:1050D000C3FC3146A2682068FDF70AFD2946E36A51
:1050E000D4E90102FDF796FCA168206850F8210080
:1050F00040F00100A268216841F8220005480068DC
:1051000040F0004003490860012084F84500002079
:10511000D0E70000004000527047042808D14FF04B
:10512000E021096941F004014FF0E022116107E03C
:105130004FF0E021096921F004014FF0E0221161F4
:10514000704770B504462546681EB0F1807F01D3D4
:1051500001200FE0681E4FF0E02148610F214FF061
:10516000FF3003F041F800204FF0E0218861072074
:105170000861002070BD7047704770477047014656
:10518000D1F88030D1F8842043EA02007047000053
:105190002DE9F04704462068C56920680668206844
:1051A000876840F60F0005EA0008B8F1000F0FD13C
:1051B00005F0200060B106F0200010B907F0805023
:1051C00030B1E06E10B12046E16E8847BDE8F0874F
:1051D000B8F1000F7ED06E48384018B96D483040A5
:1051E0000028F7D005F0010058B106F4807040B1F6
:1051F000012021680862D4F8880040F00100C4F85A
:10520000880005F0020058B107F0010040B102200B
:1052100021680862D4F8880040F00400C4F88800CF
:1052200005F0040058B107F0010040B104202168E6
:105230000862D4F8880040F00200C4F8880005F045
:10524000080070B106F0200010B95148384040B154
:10525000082021680862D4F8880040F00800C4F8EB
:10526000880005F4006060B106F0806048B14FF43A
:10527000006021680862D4F8880040F02000C4F87B
:105280008800D4F88800002844D005F0200050B1F0
:1052900006F0200010B907F0805020B1E06E10B188
:1052A0002046E16E8847D4F888902068806800F036
:1052B0004000402802D009F0280028B3204601F021
:1052C00021FA2068806800F04000402818D120684A
:1052D000806800E01FE020F0400021688860A06F37
:1052E00050B12D48A16F0865A06FFDF735FC88B15E
:1052F000A06F016D88470DE02046FFF73FFF09E0F2
:105300002046FFF73BFF05E02046FFF737FF002070
:10531000C4F888005AE705F4801050B107F4800003
:1053200038B14FF48010216808622046FFF725FF4E
:105330004CE705F0800058B106F0800010B907F482
:10534000000028B1206F10B12046216F88473DE74B
:1053500005F0400030B106F0400018B1204601F0E1
:10536000E5F933E705F4000030B106F0804018B1EC
:105370002046FFF701FF29E705F0807030B106F005
:10538000004018B12046FFF7F6FE1FE700BF1DE7FB
:105390000100001020010004ED66000810B504466D
:1053A0000CB9012010BDA06900B100E000BFD4F825
:1053B000800028B9002084F87C00204600F02AF8FC
:1053C0002420C4F880002068006820F001002168D3
:1053D0000860204601F0DEFA012800D1E2E7A06A69
:1053E00010B1204601F0CCF82068406820F49040CD
:1053F000216848602068806820F02A002168886061
:105400002068006840F0010021680860204601F033
:1054100033F9C7E710B586B004462B4920688842A7
:1054200050D100BF00BF2948006840F01000274954
:1054300008600846006800F01000009000BF00BF40
:1054400000BF00BF00BF21481038006840F00100D5
:105450001E49103908600846006800F001000090FD
:1054600000BF00BF00BF00BF00BF0846006840F09B
:10547000010008600846006800F00100009000BFCD
:1054800000BF00BF4FF40070019002200290012085
:105490000390022004900720059001A90C48FDF715
:1054A00031FD4FF4806001900720059001A9084864
:1054B000FDF728FD2520FDF710FF032211462520CA
:1054C000FDF71BFF06B010BD00100140F04402586C
:1054D0000000025810B50346D3F88400202874D188
:1054E00001B10AB9012010BD00BF93F87C0001286A
:1054F00001D10220F7E7012083F87C0000BF996505
:10550000A3F85C20A3F85E200020D86600BF98684E
:10551000B0F5805F0AD1186920B940F2FF10A3F8F6
:10552000600020E0FF20A3F860001CE0986848B904
:10553000186918B9FF20A3F8600014E07F20A3F8D1
:10554000600010E09868B0F1805F09D1186918B95F
:105550007F20A3F8600006E03F20A3F8600002E08F
:105560000020A3F8600000BF0020C3F888002220BC
:10557000C3F884001868806840F001001C68A060CF
:10558000586EB0F1005F21D1B3F8680090421DDC85
:105590009868B0F5805F04D1186910B91848D866CA
:1055A00001E01848D86600BF002083F87C0000BFE7
:1055B0001868006840F480701C6820601868806873
:1055C00040F080501C68A06016E017E09868B0F5C5
:1055D000805F04D1186910B90B48D86601E00B4808
:1055E000D86600BF002083F87C0000BF1868006800
:1055F00040F490701C682060002074E7022072E77D
:10560000C1670008E16800084F6700087568000876
:105610001D4A0168914236D11C49098801F40041B4
:1056200089BB1A49098801F4804171B11849097888
:105630000A2903D00021154A118024E01349098862
:1056400041F40041114A11801DE0114909780D29EA
:1056500006D10E49098841F480410C4A118012E0BC
:105660000B490978094A1288C2F30D02094B995473
:1056700006490988491C054A118011460988C7292D
:1056800001DD00211180704700100140200000243E
:1056900022000024304D0024704700BFFEE70000C8
:1056A0002DE9F04105460F4600243FE021480068FF
:1056B00002F072FD012211021F48FDF72FFD0026A6
:1056C000B04626E01B48006802F066FD0122510248
:1056D0001948FDF723FD1748006802F05DFD7006CC
:1056E000060E4FF480711448FDF710FD08B1701CD0
:1056F000C6B21048006802F04FFD00224FF400715E
:105700000D48FDF70BFD0B48006802F045FD08F160
:105710000108B8F1080FD5DB681EA04202D100F0E5
:10572000DDF801E000F06EF83E55641CAC42BDDBD4
:10573000BDE8F081380000240004025810B50122B1
:1057400011021548FDF7EAFC1448006802F024FD38
:10575000012251021048FDF7E1FC1048006802F0F8
:105760001BFD4FF480710C48FDF7D0FC08B90024F4
:1057700000E001240948006802F00EFD00224FF409
:1057800000710548FDF7CAFC00224FF48071024801
:10579000FDF7C4FC204610BD000402583800002468
:1057A00010B500224FF400711448FDF7B7FC1448FF
:1057B000006802F0F1FC012211021048FDF7AEFC76
:1057C0000F48006802F0E8FC012251020B48FDF787
:1057D000A5FC0B48006802F0DFFC00224FF480714A
:1057E0000648FDF79BFC0648006802F0D5FC002245
:1057F0004FF400710148FDF791FC10BD0004025800
:105800003800002410B500224FF480710F48FDF7D6
:1058100085FC0F48006802F0BFFC012251020B48D2
:10582000FDF77CFC0A48006802F0B6FC00224FF449
:1058300000710648FDF772FC0548006802F0ACFCF8
:10584000012211020148FDF769FC10BD0004025855
:10585000380000242DE9F0410446012725460026A2
:105860002CE01C48006802F097FC05F0800028B18D
:10587000012211021848FDF751FC05E000224FF407
:1058800080711548FDF74AFC1248006802F084FC5C
:10589000012251021048FDF741FC0E48006802F059
:1058A0007BFC0C48006802F077FC00224FF400718A
:1058B0000948FDF733FC680045B2761C082ED0DBA2
:1058C0000448006802F068FCFFF738FF07463846D6
:1058D000BDE8F081380000240004025810B5012210
:1058E00011021248FDF71AFC1148006802F054FC3E
:1058F000012251020D48FDF711FC0D48006802F02D
:105900004BFC0B48006802F047FC00224FF400718A
:105910000648FDF703FC0648006802F03DFC012242
:1059200011020248FDF7FAFB10BD00000004025806
:105930003800002410B5012211021048FDF7EEFBDB
:10594000012251020D48FDF7E9FB0D48006802F005
:1059500023FC00224FF480710848FDF7DFFB084864
:10596000006802F019FC00224FF400710348FDF7B3
:10597000D5FB0348006802F00FFC10BD000402587C
:105980003800002410B500224FF400710F48FDF7D5
:10599000C5FB00224FF480710C48FDF7BFFB0C489B
:1059A000006802F0F9FB012251020848FDF7B6FB3E
:1059B0000748006802F0F0FB012211020348FDF7DE
:1059C000ADFB0348006802F0E7FB10BD000402587D
:1059D0003800002470B505460C4623464FF450723B
:1059E0004FF41051284600F0DDF970BD70B5054642
:1059F0000E462846FCF7D5F80446002C38D131462F
:105A00002846FCF7EDFF31462846FCF755FF3146A6
:105A10002846FCF734FC31462846FCF7BDFF3146EA
:105A20002846FCF7B1FF31462846FCF733FC3146E7
:105A30002846FCF755FC31462846FCF7BDF83146B0
:105A40002846FCF759FE31462846FCF7D1FC314682
:105A50002846FCF7B9FD31462846FCF75DFA314689
:105A60002846FCF7CFF931462846FCF759FB044697
:105A7000204670BD2DE9FC4180460D4601270124DA
:105A8000002600270EE06B460122D103404600F0BD
:105A900089F9044614B12046BDE8FC81BDF8000038
:105AA00000F00807002FEED02FE030224FF4004125
:105AB000404600F0F5F90446601C08B92046EBE7C3
:105AC0002B464FF450724FF48061404600F06AF963
:105AD00004460CB12046DFE76B460122D103404665
