:020000040800F2
:1000000020BB002459030008C57D0008C771000803
:100010008D7C0008311C0008899E0008000000004B
:10002000000000000000000000000000C181000886
:10003000F121000800000000C77D0008C38100080E
:1000400073030008730300087303000873030008B8
:1000500073030008730300087303000873030008A8
:100060007303000873030008730300087303000898
:100070007303000873030008730300087303000888
:100080007303000873030008730300087303000878
:100090007303000873030008730300087303000868
:1000A0007303000873030008730300087303000858
:1000B0007303000873030008730300087303000848
:1000C0007303000873030008730300087303000838
:1000D00073030008399E00087303000873030008C7
:1000E0007303000873030008000000007303000896
:1000F0007303000873030008730300087303000808
:1001000073030008730300087303000873030008F7
:1001100073030008730300087303000873030008E7
:1001200073030008730300087303000873030008D7
:1001300073030008730300087303000873030008C7
:1001400000000000000000000000000000000000AF
:1001500073030008730300087303000873030008A7
:100160007303000873030008730300087303000897
:100170007303000873030008730300087303000887
:100180007303000873030008730300087303000877
:100190007303000873030008730300087303000867
:1001A0007303000873030008730300087303000857
:1001B0007303000873030008730300087303000847
:1001C0007303000873030008730300087303000837
:1001D0007303000873030008730300087303000827
:1001E0007303000873030008730300087303000817
:1001F0007303000873030008730300087303000807
:1002000073030008730300087303000873030008F6
:1002100073030008730300087303000873030008E6
:100220007303000873030008730300080000000054
:100230007303000873030008000000007303000844
:1002400073030008730300087303000873030008B6
:1002500073030008730300087303000873030008A6
:100260007303000873030008730300087303000896
:100270007303000873030008730300080000000004
:1002800073030008730300087303000800000000F4
:10029000000000007303000800F002F800F04CF8C2
:1002A0000AA090E8000C82448344AAF10107DA45D1
:1002B00001D100F041F8AFF2090EBAE80F0013F0D7
:1002C000010F18BFFB1A43F00103184708D00000C4
:1002D00028D00000103A24BF78C878C1FAD8520755
:1002E00024BF30C830C144BF04680C6070470000B0
:1002F0000023002400250026103A28BF78C1FBD82F
:10030000520728BF30C148BF0B60704766290CF008
:10031000C886642900F0F880002070471FB50CF0F3
:10032000BBFE00F013FC0400002000210CF0EEFDE9
:10033000E0601FBD10B510BD00F028FD1146FFF7AD
:10034000EDFF0CF0CBFA00F046FD03B4FFF7F2FF2F
:1003500003BC0AF049FB00000948804709480047F0
:10036000FEE7FEE7FEE7FEE7FEE7FEE7FEE7FEE765
:10037000FEE7FEE704480549054A064B70470000C2
:10038000CD81000899020008D802002420BB002477
:10039000D804002420B30024704753EA020C00F074
:1003A00069802DE9F04B4FF00006002B1FBFB3FA18
:1003B00083F503FA05F424FA05F65E4012BF1643EE
:1003C000B2FA82F502FA05F4C5F120051EBF22FA41
:1003D00005FC44EA0C04203556EA044C4FEA144468
:1003E00018BF641C4FF000084FF00009904271EBF9
:1003F000030C39D3002919BFB1FA81F701FA07F6C6
:10040000B0FA80F700FA07F6C7F120071EBF20FAFE
:1004100007FC46EA0C062037B6FBF4FCA7EB050701
:10042000103F07F01F0BCBF120060CFA0BFB2CFA48
:1004300006F644BFB3460026202FA4BF5E464FF009
:10044000000B5BEA060C08BF4FF0010B19EB0B0920
:10045000ABFB027C48EB0608C01B06FB02CC0BFB87
:1004600003CC71EB0C01C1E70B46024641464846FE
:10047000BDE8F08B13B54FF000004FF00001AFF373
:100480000080BDE81C4070470FB4044910B503AAB2
:10049000029800F049FB10BC5DF814FB200000241A
:1004A0002DE9F0410E460446002020622046E16816
:1004B000884730B3252805D0D4E901219047206A28
:1004C000401CF2E7E168204600278847050018D065
:1004D000A5F14100192802D820354FF400673246B3
:1004E000294620462760FFF711FF40B1012804D0BC
:1004F000F61D26F007060836D8E7361DD6E728464B
:10050000DAE7206ABDE8F0812DE9F04106460024D3
:1005100010687529314616A510D0AFF30080002869
:1005200002DA404213A507E031688A0701D512A517
:1005300002E0490704D511A5012401E0AFF30080D2
:1005400000210A2206F1240709E0B0FBF2FCB0FB0F
:10055000F2F302FB1C00303078541846491C002886
:10056000F3D123462A463046BDE8F04100F073B887
:10057000000000002D0000002B0000002000000003
:100580004FF0000200B5134694469646203922BF2C
:10059000A0E80C50A0E80C50B1F12001BFF4F7AF77
:1005A000090728BFA0E80C5048BF0CC05DF804EB59
:1005B000890028BF40F8042B08BF704748BF20F8C7
:1005C000022B11F0804F18BF00F8012B704700007C
:1005D0004FF0013C50F8042B51F8043B9A4215D1DE
:1005E000A2EB0C03934313EACC130BD150F8042B6A
:1005F00051F8043B9A4209D1A2EB0C03934313EA4E
:10060000CC13E7D04FF00000704700BFD01A01BAFA
:10061000B1FA81F101F0180122FA01F0CB40C1F1E9
:100620002001DBB2C0B2C01A2CFA01F3D11A9143F7
:1006300011EAC311E6D170477047704770477047A1
:1006400010B500F087FA006810BD10B5044600F040
:1006500081FA046010BD2DE9F0470D469946924697
:10066000044600F124080168880604D5E06921F0F9
:100670001001216000E00120A84201DD471B00E0DD
:100680000027A1697A1902EB0900081AA0612078F5
:10069000C00602D42046AFF30080002608E0D4E96B
:1006A00001211AF806009047206A401C761C20623F
:1006B0004E45F4DB2078C0060AD52046AFF3008013
:1006C00006E0D4E9012130209047206A401C2062D6
:1006D000381EA7F10107F4DC07E0D4E9012118F87E
:1006E00005009047206A401C2062281EA5F10105E4
:1006F000F3DC2046AFF300802078000602D502200C
:10070000BDE8F0870120FBE770472DE9FF4F0C465D
:100710001E464FF0FF378BB0D2E90001DDF8608054
:100720000A908A46C1F30A5505B93D46002108469C
:100730004FF00000BAF1000F00F4400005DA00EBC2
:1007400080004FF4400101EA50004FEA9059B9F19E
:10075000010F00DDB9460A9850EA4A000ED044F66F
:100760001050A5F2FF3545432F14B8F1000F1ED0ED
:100770007542291E1EDDC9F100021CE0B8F1010F0F
:100780004FF0000001D0302103E0F24305E0215496
:10079000401CB042FBDB30460022002121540B9963
:1007A000C1F80880C1E900200FB0BDE8F08FBD1B83
:1007B0006D1CDEE74A4600DA694206A800F06CFAD2
:1007C00006AB93E8070003AB83E8070050460A999D
:1007D00000F00AFB8DE80700A0F500501F380090DC
:1007E0000398002D0ADD42F21F014A460844002307
:1007F00003A90390684600F073FD09E0A0F50050DE
:100800004A461F38002303A90390684600F07DFD87
:100810008DE807000004000C03D04FF0FF304108C2
:1008200000E01046B8F1000F03D0002200921546F8
:100830001EE0751E05D400F091F9303262556D1E30
:10084000F9D5B3460122084302D000227F1C04E000
:100850002078302801D100227F1E002A099784D0F9
:100860001DE0112D07DA00F079F9303262556D1C68
:1008700050EA0102F5D1084302D00098C8B10EE059
:100880000021681E05E0235C625C63542254401E14
:10089000491C8142F7DBAB46A81B401E0990002093
:1008A00004F80B000B98099AC0F80880C0E9002BE7
:1008B0007AE711264FF0000857E72DE9F04F8846F8
:1008C0000446D21D22F0070191B0D1E90001CDE923
:1008D0000A0109F0E2FA02460B98C00F01D02D2060
:1008E00007E02068810701D52B2002E0202101EAE2
:1008F000C000032A099001D0072A05DB03464146C0
:10090000204600F089F90BE12078800601D5E069E6
:1009100000E00620B8F1650F814606D0B8F1660FF9
:1009200018D0B8F1670F70D131E00020B9F1110F84
:10093000009001DB112301E009F101030AAA01A9DA
:100940000CA8FFF7E2FEDDE90C70002609F10105B5
:10095000834647E001204B4600904FF000470AAA2B
:1009600001A90CA8FFF7D1FEDDE90DB00C995D4699
:10097000002610B909F101000D18B9EB050003D4E8
:10098000C0F1FF3609F10105A5EB09002BE0B9F133
:10099000010F01DA4FF001090020B9F1110F0090A9
:1009A000484601DD112300E003460AAA01A90CA86C
:1009B000FFF7ABFEDDE90C704D460026834620783C
:1009C00000070AD4AB4500DA5D4601A8012D04DD1D
:1009D000411911F8011C302907D04F4502DA17F1EF
:1009E000040F04DA012082460FE06D1EEEE7002FAF
:1009F00002DCED1B3E4403E0781CA84200DD7D1CB8
:100A0000B81B00F1010A4FF000472078000703D41B
:100A1000AA4501DB4FF0FF3A0021B7F1004F0DF17D
:100A200043088DF8431024D002202B23002F01DA35
:100A30007F422D230A21021EA0F1010000DC5FB1DC
:100A400097FBF1FC97FBF1F201FB1C7C17460CF1C4
:100A5000300C08F801CDEEE7A8F101000370218801
:100A6000090501D5452100E06521A0F1010800F844
:100A7000011C09980FA9A1EB0807FF1D00B1012077
:100A8000411901EBEA70A1693844081A401EA061BF
:100A90002078C00602D42046AFF30080099828B120
:100AA000D4E901219047206A401C20622078C006CA
:100AB00022D52046AFF300801EE0002E04DBB345B4
:100AC00002DD01A8805D00E03020D4E901219047DB
:100AD000206A401C2062761CAAF101005FEA000A2D
:100AE0000AD100F033F8C0680168405CD4E9012104
:100AF0009047206A401C2062281EA5F10105DCDC1D
:100B000007E0D4E9012118F8010B9047206A401C46
:100B10002062381EA7F10107F3DC2046AFF3008006
:100B2000032011B041E60000074B70B50D467B4431
:100B300000F05FF80446284600F020F910B14FF0AD
:100B4000FF3070BD204670BD8FBD0000004870476B
:100B5000D800002400487047B800002430B5B0F138
:100B60000A024FEA900E71F100034EEA817EB0EB6B
:100B70000E0061EB91014FEA101E4EEA017E10EB70
:100B80000E0041EB11114FEA102E4EEA016E10EBF0
:100B90000E0041EB11214FEA104E4EEA014E10EBD0
:100BA0000E0041EB1141401841F100014FEAD00025
:100BB00040EA41704FEAD10110EB80054FEA810411
:100BC00044EA907444EB01046D1944EB0404521B95
:100BD000A3414FF0000348BF0A3200D530BD401C8E
:100BE00041F1000130BD000001694A1C0261087832
:100BF000704700B58FB0CDE901310021059105495D
:100C00007944CDE9031011466846FFF749FC0FB05F
:100C100000BD0000E5FFFFFF2DE9F0411F4604463F
:100C200003260168072A01F4006004DB08B116A559
:100C300005E016A503E008B115A500E015A521F013
:100C400010002060A069C01EA0610FB1401EA0610D
:100C50002046AFF300804FB1D4E9012138469047D8
:100C6000206A401C2062C01C206206E0206AFAE76D
:100C7000D4E9012115F8010B9047761EF8D22046E1
:100C8000AFF30080BDE8F0814E414E006E616E0012
:100C9000494E4600696E66002DE9F04781461646CA
:100CA0008AB0354878440DC88DE80D003248784444
:100CB000801C03AC0DC884E80D0041F69B3008444D
:100CC000372190FBF1F290FBF1F5A5F1800501FBD6
:100CD00012041B3C02D56442012000E00020DFF832
:100CE00098A080460027FA44AAF1BE0A0EE0E00769
:100CF0000AD03246684607EB470101230AEB81011F
:100D000000F003FB8DE8070064107F1C002CEED17F
:100D1000194F7F44AE3F19E0E80715D007EB0410E8
:100D20000DF1180A90E80E008AE80E00C068F04243
:100D300001D1981908903246012306A903A800F0B2
:100D4000E4FA03AB83E807006D10641C002DE3D1C7
:100D50004FF0010332466946B8F1000F03A802D0F4
:100D600000F0BEFA01E000F0D0FAC9E90001C9F8CC
:100D700008200AB0BDE8F08714C60000007B00F030
:100D80008000704700487047B80000247546FFF7A0
:100D9000F9FFAE4605006946534620F00700854638
:100DA00018B020B5FFF7E6FABDE820404FF0000686
:100DB0004FF000074FF000084FF0000B21F0070143
:100DC000AC46ACE8C009ACE8C009ACE8C009ACE886
:100DD000C0098D46704710B50446AFF30080204629
:100DE000BDE81040FFF7B1BA5FEA400C08BF91F0D0
:100DF000000F4FEA8C234FEAC12243EA51514FEAD8
:100E00001C5018BF00F5F0404FEA300018BF41F009
:100E100000415FEA6C5C00F02980BCF1FF3F08BF35
:100E200040F080407047130C06BF12044FF0100CC6
:100E30004FF0000C130E04BF12020CF1080C130F3C
:100E400004BF12010CF1040C930F04BF92000CF1CB
:100E5000020CD30F04BF52000CF1010C11464FF0ED
:100E60000002A0F11F00A0EB0C00704711F0004F32
:100E700008BF704731F000413FF4D5AF0B0C06BFFF
:100E800009044FF0100C4FF0000C0B0E04BF0902C8
:100E90000CF1080C0B0F04BF09010CF1040C8B0FB3
:100EA00004BF89000CF1020CCB0F04BF49000CF108
:100EB000010CCCF12003A0EB0C0022FA03F302FAA0
:100EC0000CF241EA030100F10100704720F07F4C71
:100ED00080EA030023F07F47ACEB070303F57C5364
:100EE00000F0004003F1FF032DE980494FEA154B64
:100EF00009B44FEA144325EA0B4E24EA03480FF2E3
:100F0000042606EB132749083E785FEA320203FB0A
:100F10000667C7F5000707FB06F64FEA54374FEAA6
:100F2000D64606F1020607FB066CCCF1005C4FEAE0
:100F30001C472CEA074C07FB06F40CFB06F504EBF8
:100F400015464FEA961634BF00204FF000404FEA96
:100F5000D13706FB07FC4FEA1C4C0CFB0BF7D21BEE
:100F600003FB0CF761EB07010CFB0EF7B0EB07403E
:100F700072EB17420CFB08F734BFA2EB0742B2EB4F
:100F8000074261EB17414FEA0C444FEA910706FB19
:100F900007FC4FEA1C4C0CFB0BF7B0EBC74072EBA5
:100FA000573203FB0CF734BFA2EBC742B2EBC74288
:100FB00061EB57310CFB0EF7B0EBC70072EB5772C9
:100FC0000CFB08F734BFA2EBC702B2EBC70261EB20
:100FD0005771039F4FEA816141EA921104EBCC04FF
:100FE0004FEAD1374FEA826206FB07FC42EA9012D1
:100FF0004FEA80604FEA1C4C0CFB0BF7D21B03FB43
:101000000CF761EB07010CFB0EF7B0EB074072EB3E
:1010100017420CFB08F734BFA2EB0742B2EB0742C2
:1010200061EB17414FEA8C554FEA910704EB9C2482
:1010300006FB07FC4FEA1C4C0CFB0BF7B0EBC74060
:1010400072EB573203FB0CF734BFA2EBC742B2EB93
:10105000C74261EB57310CFB0EF7B0EBC70072EBE8
:1010600057720CFB08F734BFA2EBC702B2EBC70202
:1010700061EB577115EB4C254FEA816141EA921102
:101080004FEA82624FEAD13742EA901206FB07FC30
:1010900044F100044FEA80604FEA1C4C0CFB0BF754
:1010A000D21B03FB0CF761EB07010CFB0EF7B0EB57
:1010B000074072EB17420CFB08F734BFA2EB074264
:1010C000B2EB074261EB174115EB1C154FEA81317A
:1010D00041EA92414FEA823242EA90424FEA80303E
:1010E0004FEA0C7644F1000448EA03434EEA0B4809
:1010F0004FF0000EB2EB080C71EB030724BF624601
:1011000039464EEB0E0E4FF0000B0018524149418C
:101110004BEB0B0BB2EB080C71EB03077BF1000BF5
:1011200024BF624639464EEB0E0E4FF0000B0018FE
:10113000524149414BEB0B0BB2EB080C71EB03072F
:101140007BF1000B24BF624639464EEB0E0E51EA8E
:10115000020718BF46F0010616EB0E7655F10002A5
:1011600054F1000103D5BDE88901BDE80088BDE860
:101170008901BDE80048B619524141EB0101A3F1D4
:101180000103704780807F7E7D7C7B7A79787776DB
:1011900076757473727171706F6E6E6D6C6C6B6A54
:1011A0006A696868676666656464636362616160F2
:1011B000605F5F5E5E5D5D5C5C5B5B5A5A5959586F
:1011C00058575756565555555454535352525251D9
:1011D000515050504F4F4F4E4E4D4D4D4C4C4C4B2F
:1011E0004B4B4A4A4A494949484848474747474676
:1011F00046464545454444444443434343424242B2
:1012000042414141002B9C4630D477002BD01CB585
:101210004FEA370703B44FF010004FF01001BAF156
:10122000000F06D0BCF1000FDCBF40F0080040F01A
:1012300008014FF000000FBCBDE810400BF1010B9E
:10124000BBF1010F08BF5FEA170722BF12F10102CD
:1012500011F101014FF0004143F1000300F00040A3
:1012600043EA00007047F9D35708D0E746EA06463C
:1012700013F1400F4FEA16461FDD13F1200FDFBFB9
:1012800016430A46002120335B42BED0C3F120073B
:1012900046EA064602FA07F74FEA164646EA070606
:1012A000C3F1200722FA03F201FA07F721FA03F14A
:1012B0004FF0000342EA0702A7E746EA020646EAC1
:1012C00006464FEA164646EA0106BCBF46EA06460F
:1012D000360C4FF000034FF000024FF0000194E78E
:1012E0002DE9804C9A46934670B491E8380007C8BF
:1012F00031EA400C48BF34EA430C03D5FFF7E6FD62
:10130000FFF780FFF0BCBDE8008C2DE9804C9A46C9
:10131000934670B491E8380007C810F0804F08BFBA
:1013200013F0804F03D100F005F8FFF76BFFF0BC1E
:10133000BDE8008C20F07F4780EA030023F07F4C5B
:1013400007EB0C03A3F57C5300F00040A3F1FE0370
:1013500092F0000F00F0B38095F0000F00F077805E
:101360002DE901494FEA11404FEA144621EA0048AD
:1013700000FB06FC24EA064708FB06F607FB08F814
:1013800000FB07F718EB06484CEB164C4FEA124BE4
:1013900018EB07484FEA15464CEB174022EA0B4E74
:1013A0000BFB06FC25EA06470EFB06F607FB0EFEC6
:1013B0000BFB07F71EEB064E4CEB164C4FF00006EE
:1013C0001EEB074E4CEB174B18EB0B0840F10000DF
:1013D00018EB0E0B58EB000840F100008F1A4FF08D
:1013E00000013CBFC943661B14BFB5EB040C0021D0
:1013F0003CBFC943F61B4FEA17444EEA8E0E27EA5C
:1014000004454FEA1C4704FB07622CEA074C05FB26
:1014100007F70CFB05F604FB0CFC16EB074642EB4A
:10142000174216EB0C4642EB1C421BEB060658EB30
:101430000202414146EA9E0601D5BDE80189B6197E
:10144000524141EB0101A3F10103BDE801894FEADB
:1014500014454FEA114724EA054621EA074C05FBEB
:1014600007F406FB07F70CFB06F105FB0CFC11EB80
:10147000074144EB17444FEA124711EB0C4144EB90
:101480001C4422EA074C05FB07F206FB07F70CFB9E
:1014900006F605FB0CFC16EB074642EB174216EB73
:1014A0000C4642EB1C456A1854F1000148BF7047D6
:1014B000B619524141EB0101A3F10103704795F0C8
:1014C000000F37D04FEA11424FEA144721EA024693
:1014D00024EA074C02FB07F106FB07F70CFB06F4B6
:1014E00002FB0CFC14EB074441EB17414FEA154794
:1014F00014EB0C4441EB1C4125EA074C02FB07F5B9
:1015000006FB07F70CFB06F602FB0CFC16EB074686
:1015100045EB174516EB0C4645EB1C42121951F1F1
:10152000000148BF7047B619524141EB0101A3F1D8
:10153000010370474FEA14454FEA114724EA054674
:1015400021EA074C05FB07F106FB07F70CFB06F247
:101550004FF0000605FB0CFC12EB074241EB174174
:1015600012EB0C4251EB1C4148BF7047921841EB03
:101570000101A3F1010370472DE9F04F2DED108B10
:1015800089B006460C46B0EE40BAB0EE60DA93463B
:10159000B6F8820600902146304606F0F1F8F0EEEB
:1015A00040AA2146304606F077F8F0EE408A9FEDDB
:1015B000FD1A38EE811AB7EEC11AB0EE410BB1EE4A
:1015C000001B08F0A1FCB7EEC00BF0EE40EA9FED67
:1015D000F51A3DEE011AB7EEC11AB0EE410BB1EEAD
:1015E000001B08F091FCB7EEC00BF0EE40DA7DEE88
:1015F000EE0A80EE8B0A3DEEC00AF0EE40BAD4ED62
:101600000B0A9FEDE91AB7EE000A00EE810AF7EE29
:10161000000A80EE801A8DED011AB7EE000A8DEDFA
:10162000020AD4ED0D0AB4F9400000EE100AB8EE3B
:10163000C01AB7EE000A00EE810A8DED030AB4F974
:101640004210B4F94000081A00EE100AF8EEC00A81
:1016500094ED0E1AB7EE000A01EE200ADDED030A42
:1016600020EE200A8DED040AB6F8140600EE100AEA
:10167000B8EE400AB0EE409A9FEDCC0AB4EEC09AA4
:10168000F1EE10FA05DD9FEDCA0A39EE400AB0EE20
:10169000409AB4F9140000EE100AB8EEC00AC0EE89
:1016A000090AB0EE609AB6F8800600F480504FEA5E
:1016B0006018B6F8100600EE100AB8EE400A8DED7C
:1016C000070AB6F8500600EE100AB8EE400A8DED93
:1016D000080A002026E007A901EB800191ED000A2D
:1016E000DFEDB20AB4EEE00AF1EE10FA0DDD07A963
:1016F00001EB800191ED000ADFEDAD0A30EE600AEA
:1017000007A901EB800181ED000A07A901EB800127
:1017100091ED000A20EE090A07A901EB800181ED95
:10172000000A401C0228D6DBD4ED080AB3EE090AF1
:1017300038EEC01AB7EE000A00EE810A42F64C20DD
:10174000005F00EE900AF8EEE00A20EE201AD4EDD9
:10175000070A9FED980A7AEEC01AB7EE000A00EE6B
:10176000A10ADDED070A41EE400ACDED070A94F823
:101770002500404525D1D4ED080AB3EE090A38EE1C
:10178000C01AB7EE000A00EE810A42F64C2020444F
:10179000B0F9020000EE900AF8EEE00A20EE201AFE
:1017A000D4ED070A9FED830A7AEEC01AB7EE000A5D
:1017B00000EEA10ADDED080A41EE400ACDED080A6F
:1017C0002AE042F64C202044B0F9020000EE100A54
:1017D000B8EEC00A04F52050D0ED940A70EE200A4D
:1017E00094ED081AB3EE090A78EEC01AB7EE000AB3
:1017F00001EE210A20EE801AD4ED070A9FED6D0A52
:101800007AEEC01AB7EE000A00EEA10ADDED080A72
:1018100041EE400ACDED080A002593E12846EA177B
:1018200005EBD26252112946EB1705EB93639B112E
:10183000A2EB430257B205EBD0714910A5EB410171
:10184000794049B20691AB1C4FEAE37C03EB9C7CE8
:101850004FEAAC0CEA1C4FEAE27E02EB9E7EACEB58
:10186000AE0C691C4FEAE17E01EB9E7E0CEBAE0CE8
:101870004FEAE57E05EB9E7EACEBAE0C4FEA470EE1
:10188000CEF1010E0CFB0EFC4FFA8CF9B8F1000FF3
:1018900001D1059701E006980590B6F882160598E3
:1018A00081427DD136F8150000EE100AB8EE400AEC
:1018B000B0EE408A9FED3D0AB4EEC08AF1EE10FA18
:1018C00005DD9FED3B0A38EE400AB0EE408A28EE77
:1018D000090AB0EE408A41F24420204400EB850022
:1018E000D0ED000AB3EE090A38EEC01AB7EE000ACE
:1018F00000EE810A04F6444030F9150000EE900A2B
:10190000F8EEE00A20EE201A41F64460204400EB95
:101910008500D0ED000A9FED270A7AEEC01AB7EED7
:10192000000A00EEA10AF0EE480A41EE400AB0EECD
:10193000608A94F8250040451BD042F65020204490
:10194000D0ED020A7800401E00EE100AB8EEC01A70
:10195000B0EE480A00EE810A42F65020204490ED95
:10196000011A00EE909AF8EEE00A01EE600AB0EE7D
:10197000408A88EE0B0AB0EE408AD4ED060A07A929
:10198000009801EB800090ED001AB0EE480A00EEDE
:10199000C10AB0EE408A04F1440000EB85000BE080
:1019A000CFE00000339388430000204200FEFF4652
:1019B000000080473333534090ED000AD4ED060A0F
:1019C00042F644202118009801EB800090ED001AA7
:1019D00000EEC10A94ED0A1AF3EE090A78EEE01A55
:1019E000F7EE000A41EE210A60EE209AB0EE081BE5
:1019F000B7EEE90A08F088FAB0EE481A09EEAB1A19
:101A0000B7EEC11A20EE010BB7EEC00BB0EE40EA04
:101A1000B7EECE0A08F044FFB0EE40CB08F040FF2E
:101A200094ED0C1AB7EEC11A20EE010BB7EEC00B05
:101A3000B0EE40EAD4ED0C0A1FED261AB7EE000A0C
:101A400000EEC10AF0EE4E0A49EE800A88EE200A46
:101A500030EE2B0AB7EEC00AB0EE40FB08F020FFD4
:101A6000B0EE40CB08F01CFF9FED3B1B30EE410B6E
:101A7000B7EEC00BB0EE40AAB4F93E0000EE100A7B
:101A8000B8EEC00AB4EECA0AF1EE10FA02DD4FF069
:101A9000000A1DE0B4F9400000EE100AB8EEC00ADA
:101AA000B4EECA0AF1EE10FA02DD4FF0010A0FE0BF
:101AB000B4F9420000EE100AB8EEC00AB4EECA0A49
:101AC000F1EE10FA02DD4FF0020A01E04FF0030AD6
:101AD00004F12C0000EB8A00D0ED000A04F13C0078
:101AE00030F91A0000EE100AB8EEC00A3AEE401AB9
:101AF000B7EE000A00EE810A01A800EB8A00D0EDE3
:101B0000000A60EEA90A60EE200A88EE200A30EE94
:101B10002B0AB7EEC00AB0EE40CB08F0C1FEB0EE23
:101B200040FB08F0BDFE9FED0E1B30EE410BB7EE03
:101B3000C00BB0EE40AABCEECA0A10EE100A2BF899
:101B400015006D1CB5F5407FFFF668AE09B0BDEC21
:101B5000108BBDE8F08F000000000060661271403D
:101B60006666666666127140FCB5662366240022CE
:101B700057E002FB04F5C5F50075ADB2ADF80050B5
:101B8000BDF80050C5F50075ADB2ADF802500021AA
:101B900044E001FB03F5C5F50075ADB2ADF80450A6
:101BA000BDF80450C5F50075ADB2ADF806501E4D38
:101BB00035F81050BDF804607543BDF800607543FA
:101BC000194F00F1200637F81660BDF804707E4307
:101BD000BDF8027006FB0756134F451C37F8155029
:101BE000BDF806707D43BDF8007005FB07660E4F1B
:101BF00000F1210537F81550BDF806707D43BDF89A
:101C0000027005FB07654FF6FF7606EAA54502EB75
:101C100082060E44054F27F81650491C0529B8DBEB
:101C2000521C052AA5DBFCBD78210024782700245E
:101C300000BFFEE702460B46D11A11F1220F05DD67
:101C400011F11E0F02DA6FF00500704711F1020F5B
:101C500004DD022902DA6FF00500F6E71E2904DD33
:101C6000222902DA6FF00500EFE70020EDE70146D8
:101C7000087D00F040020AB9002070476FF00600AE
:101C8000FBE700000146374A0868904249D0354AD0
:101C900018320868904244D0324A30320868904284
:101CA0003FD0304A4832086890423AD02D4A6032DC
:101CB0000868904235D02B4A78320868904230D07C
:101CC000284A9032086890422BD0264AA8320868E9
:101CD000904226D0244A0868904222D0224A1832E4
:101CE000086890421DD0204A30320868904218D0CF
:101CF0001D4A48320868904213D01B4A6032086877
:101D000090420ED0184A78320868904209D0164A9C
:101D100090320868904204D0134AA8320868904272
:101D200001D1012000E00020B0B10A78103A182358
:101D3000B2FBF3F000F007020C4B9A5CCA65032873
:101D400005D90A686FF30902121D8A6503E00A6863
:101D50006FF309028A6503E0086820F0FF008865D8
:101D6000886D70471000024010040240A6D10008A0
:101D700010B502682B4C0368A34222D0294C1434BE
:101D80000368A3421DD0274C28340368A34218D00F
:101D9000244C3C340368A34213D0224C50340368D3
:101DA000A3420ED01F4C64340368A34209D01D4CDB
:101DB00078340368A34204D01A4C8C340368A342DD
:101DC00001D1012300E000238BB10378083B1424E8
:101DD000B3FBF4F1144B03EB81030366124B803326
:101DE000436601F01F040123A340836618E00378D3
:101DF000103B1824B3FBF4F10C4B9A4204D80B4B64
:101E0000A83B9A4200D30831094B03EB81030366D8
:101E1000074B8033436601F01F040123A340836610
:101E200010BD00000854025800580258B80402407F
:101E3000000802400179A9B3082940D8204B026864
:101E40009A4222D01E4B143302689A421DD01C4B7A
:101E5000283302689A4218D0194B3C3302689A42E0
:101E600013D0174B503302689A420ED0144B643390
:101E700002689A4209D0124B783302689A4204D021
:101E80000F4B8C3302689A4201D1012200E00022FC
:101E90004AB14A1E0B4B03EB8202C266094A40322A
:101EA000026708E00BE04A1E074B03EB8202C266A2
:101EB000054A403202674A1E012393404367704738
:101EC00008540258005902580009024001460020F7
:101ED0008A69D2B98A6A32B1012A0DD0022A03D0A6
:101EE000032A10D10EE000BFCA6A02F08072B2F17C
:101EF000807F00D1012007E0CA6AB2F1C07F00D123
:101F0000012001E000E000BF36E08A69B2F5005F21
:101F10001BD18A6A32B1012A07D0022A03D0032AD0
:101F200011D10AE000BF01200EE0CA6A02F08072FF
:101F3000B2F1807F00D1012006E0CA6AB2F1C07F11
:101F400000D1012000E000BF16E08A6A32B1012A08
:101F500005D0022A04D0032A0CD103E000BF00BF41
:101F6000012008E0CA6A02F08072B2F1807F00D1DD
:101F7000012000E000BF00BF70470000F0B5856D94
:101F8000846D984F0668BE4270D0964F1837066829
:101F9000BE426BD0934F30370668BE4266D0914F39
:101FA00048370668BE4261D08E4F60370668BE4231
:101FB0005CD08C4F78370668BE4257D0894F903737
:101FC0000668BE4252D0874FA8370668BE424DD041
:101FD000854F0668BE4249D0834F18370668BE4217
:101FE00044D0814F30370668BE423FD07E4F4837DD
:101FF0000668BE423AD07C4F60370668BE4235D094
:10200000794F78370668BE4230D0774F90370668F0
:10201000BE422BD0744FA8370668BE4226D0734FFD
:102020000668BE4222D0714F14370668BE421DD0EA
:102030006E4F28370668BE4218D06C4F3C37066892
:10204000BE4213D0694F50370668BE420ED0674F6C
:1020500064370668BE4209D0644F78370668BE42CE
:1020600004D0624F8C370668BE4201D1012600E0E1
:1020700000263EB1D0E919767E60C66E16B1D0E971
:102080001C767E60574F0668BE4249D0554F1837C0
:102090000668BE4244D0534F30370668BE423FD038
:1020A000504F48370668BE423AD04E4F60370668F8
:1020B000BE4235D04B4F78370668BE4230D0494FCC
:1020C00090370668BE422BD0464FA8370668BE42FE
:1020D00026D0454F0668BE4222D0434F18370668C7
:1020E000BE421DD0404F30370668BE4218D03E4F2A
:1020F00048370668BE4213D03B4F60370668BE4281
:102100000ED0394F78370668BE4209D0364F903727
:102110000668BE4204D0344FA8370668BE4201D1DB
:10212000012600E00026DEB190F85C6006F01F0793
:102130003F26BE40AE600668366826F480260768F3
:102140003E60066873608668402E04D10668B260FF
:102150000668F16044E00668B1600668F2603FE03E
:10216000224F0668BE4222D0204F14370668BE4276
:102170001DD01E4F28370668BE4218D01B4F3C3773
:102180000668BE4213D0194F50370668BE420ED0C3
:10219000164F64370668BE4209D0144F7837066878
:1021A000BE4204D0114F8C370668BE4201D10126D1
:1021B00000E00026A6B190F85C6006F01F0701263B
:1021C000BE406660066873608668402E04D106686B
:1021D000B2600668F16003E00668B1600668F2600C
:1021E000F0BD0000100002401004024008540258E4
:1021F00070470000F8B500240AF0A2FB002598E023
:1022000000267FE006EB451188B2FFF7ADFC002702
:102210001EE04A4810F81700C400FA2C00DDFF2425
:10222000E0B247490B689B1C0A68521C096801F020
:10223000E9F8434B1B689A78414B1B685978404B2F
:102240001B68187805F024FF3C4921F817007F1C13
:10225000192FDEDB0024002036E0002131E0374A70
:1022600032F814204B0000EB800703EB8703354F57
:1022700027F81320314A32F814304A0000EB800767
:1022800002EB8702521C2F4F27F812302B4A32F8EC
:1022900014304A0000EB800702EB87020A32294F14
:1022A00027F81230254A32F814304A0000EB800734
:1022B00002EB87020B32234F27F81230621C94B2D4
:1022C000491C0529CBDB401C0528C6DB0024002067
:1022D00015E0002110E01B4A32F814304FF49B72D5
:1022E000424306EB860702EB47020A44164F27F8E3
:1022F0001230621C94B2491C0A29ECDB401C0A28EB
:10230000E7DB761C1F2EFFF67DAF0F48009005EB34
:102310008500132202EB400083B205EB8500092201
:1023200002EB400081B240F23B12052008F0A3FB13
:102330006D1C172DFFF664AFF8BD00007827002450
:102340004C000024AA270024722800242DE9F04F15
:102350002DED028BB9B005460E46002415F8400F4E
:1023600000F00F0000902878C0F303192888C0F30C
:10237000032828881E2101EB103008EE100A6F8810
:10238000403D002025E0840000F1220115F81110E5
:1023900001F00F0121AA42F8241000F1220115F8E2
:1023A0001110C1F3031221AB611C43F8212000F18D
:1023B000220135F81110C1F30322A11C43F821209A
:1023C00000F1220135F811100A0BE11C43F821201D
:1023D000401C0628D7DB00200CE021A951F8201072
:1023E000072906DD21A951F82010103921AA42F849
:1023F0002010401C1828F0DB002025E0840000F1AC
:10240000280115F8111001F00F0101AA42F824105B
:1024100000F1280115F81110C1F3031201AB611C82
:1024200043F8212000F1280135F81110C1F30322EF
:10243000A11C43F8212000F1280135F811100A0BE6
:10244000E11C43F82120401C0828D7DB00200CE0C9
:1024500001A951F82010072906DD01A951F8201023
:10246000103901AA42F82010401C2028F0DB4FF060
:10247000000A86E04FF0000B7DE0202000FB0AB44C
:1024800004F1400035F81000C0F3051000EE100A0A
:10249000B8EEC00A06F1440000EB840080ED000AAB
:1024A00006F1440000EB840090ED000AF3EE0F0A01
:1024B000B4EEE00AF1EE10FA0FDD06F1440000EB95
:1024C000840090ED000ADFED330A30EE600A06F179
:1024D000440000EB840080ED000A06F1440000EBAC
:1024E0008400D0ED000A0121009801FA00F000EE0E
:1024F000100AB8EEC00A20EE800A06F1440000EB94
:10250000840080ED000A21A850F82A0000FA08F0A3
:10251000C11901A850F82B0000FA09F0084400EE98
:10252000100AB8EEC00A06F1440000EB8400D0EDBA
:10253000000A30EE200A06F1440000EB840080ED32
:10254000000AB8EE481BB0EE000B07F0DDFC06F108
:10255000440000EB840090ED001AB7EEC11A81EE42
:10256000002BB7EEC20B06F1440000EB840080EDB7
:10257000000A0BF1010BBBF1200FFFF67EAF0AF151
:10258000010ABAF1180FFFF675AF39B0BDEC028B36
:10259000BDE8F08F000080420EB5838A03F400632B
:1025A0001A1182F0800290F86A3003F03F0300EEC7
:1025B000103AB8EEC00A8DED000A9DED000AF3EE68
:1025C0000F0AB4EEE00AF1EE10FA07DD9DED000A05
:1025D000DFED340A30EE600A8DED000A9DED000A51
:1025E000F3EE000A80EE201A8DED001AB0F86A3082
:1025F000C3F3841300EE103AB8EEC00A8DED010A61
:102600009DED010AF2EE0E0AB4EEE00AF1EE10FAC8
:1026100007DD9DED010ADFED240A30EE600A8DED45
:10262000010A9DED010AF0EE000A80EE201A8DED00
:10263000011AB0F86A30DB0A00EE103AB8EEC00AB0
:102640008DED020A9DED020AF2EE0E0AB4EEE00AEA
:10265000F1EE10FA07DD9DED020ADFED130A30EE10
:10266000600A8DED020A9DED020AF2EE000A80EE8C
:10267000201A8DED021A81F825209DED000A01F542
:10268000205383ED940A9DED010A42F650230B443A
:1026900083ED010A9DED020A42F650230B4483EDBF
:1026A000020A0EBD0000804200000042F0B52DED90
:1026B000048B83B004460D46B4F840001B2101EBA7
:1026C000103009EE100AB4F87400C0F30900ADF838
:1026D0000000BDF90000B0F5007F06DBBDF800008A
:1026E000A0F5806000B2ADF80000B4F87400800A74
:1026F000ADF80200BDF902001F2805DDBDF802009B
:10270000403800B2ADF80200BDF80200BDF800107C
:10271000084400B2ADF80200B4F87200C0F309003A
:1027200000EE100AB8EEC00A8DED010A9DED010A17
:10273000DFED5A0AB4EEE00AF1EE10FA07DD9DED86
:10274000010ADFED570A30EE600A8DED010AB8EE9E
:10275000491BB0EE000B07F0D7FB9DED011AB7EE59
:10276000C11A81EE002BB7EEC20B8DED010AB4F851
:102770007200800A00EE100AB8EEC00A8DED020A5F
:102780009DED020AF3EE0F0AB4EEE00AF1EE10FA44
:1027900007DD9DED020ADFED430A30EE600A8DEDA4
:1027A000020A9DED020ADFED400A80EE201AB7EE24
:1027B000000A31EE000ADDED010A20EE200A8DED5F
:1027C000020A94F8760000EE100AF8EEC08A9FED37
:1027D000370AF4EEC08AF1EE10FA05DD9FED340AF7
:1027E00038EEC00AF0EE408A94F87000C0F303108F
:1027F00000F1080600EE106AB8EE401BB0EE000BC8
:1028000007F082FBB7EEE81A81EE002BB7EEC20BA1
:1028100085ED080AB4F87600000A00EE100AB8EE5A
:10282000C08A9FED220AB4EEC08AF1EE10FA05DDEF
:102830009FED1F0A38EE400AB0EE408AB4F87000EF
:10284000C0F3032700EE107AB8EE401BB0EE000B89
:1028500007F05AFBB7EEC81A81EE002BB7EEC20B99
:1028600085ED070A9DED010A05F5205080ED910ADE
:102870009DED020A42F64420284480ED010ABDF88D
:10288000001042F64C204153BDF8020042F64C21A4
:102890002944488003B0BDEC048BF0BD0080FF43A9
:1028A0000000804400008042000000430000FE421F
:1028B000000080432DE9F04782460D4600240027A2
:1028C000A046A14600BF0DE04FF6FF7042F65C2126
:1028D000294421F8140042F66621294421F8140005
:1028E000601C84B2052CEFDB00241EE004F14000E4
:1028F0003AF8100038B942F65C20284420F8174016
:10290000781C87B20FE004F140001AF8100000F0C4
:10291000010040B142F66620284420F8184008F132
:1029200001001FFA80F8601C84B2B4F5407F04DA1D
:10293000052F02DAB8F1050FD8DB042F02DD6FF0A6
:10294000020964E0B8F1040F02DD6FF003095EE0F4
:1029500007EB0800042802DD6FF0040957E00024AB
:1029600019E0661C13E042F65C222A4432F8161085
:1029700042F65C222A4432F81400FFF75BF98146E4
:10298000B9F1000F02D04846BDE8F087761CBE4280
:10299000E9DB601C84B2BC42E3DB002418E0661C67
:1029A00012E042F666222A4432F8161042F66622F7
:1029B0002A4432F81400FFF73DF98146B9F1000FBF
:1029C00001D04846E0E7761C4645EADB601C84B24D
:1029D0004445E4DB002418E0002612E042F66622BB
:1029E0002A4432F8161042F65C222A4432F81400C7
:1029F000FFF720F98146B9F1000F01D04846C3E73F
:102A0000761C4645EADB601C84B2BC42E4DB4846E7
:102A1000BAE70246B2F8603018B2B0F5004F00DBFA
:102A200000B2888270470000B0F87820120A00EEE9
:102A3000902AF8EEE00AB0EE600ADFED0B0AB4EE81
:102A4000E00AF1EE10FA05DDDFED080A70EE600A2B
:102A5000B0EE600ADFED060A80EE201AB0EE410A01
:102A600081ED0A0A704700000000FE42000080432A
:102A70000000004630B57A308288C2F3013202EBA2
:102A8000820254006FF027028A870025CD870279E1
:102A9000C2F30315402255528288C2F30325422215
:102AA00055524022525A12FB04F215B2402255529E
:102AB000B1F940504222525A12FB045215B242223E
:102AC0005552027902F00F0202F10803012202FAC4
:102AD00003F3027800EE102AB8EEC00A81ED0B0A6B
:102AE0000288120A00EE102AB8EEC00A81ED0C0A24
:102AF000827800EE102AB8EEC00A81ED0D0A4288F5
:102B00007A38120A00EE102AB8EEC00A81ED0E0AD9
:102B100000222FE001F12C0505EB820595ED000A5E
:102B2000DFED160AB4EEE00AF1EE10FA0FDD01F166
:102B30002C0505EB820595ED000ADFED110A30EE5C
:102B4000600A01F12C0505EB820585ED000A01F113
:102B50002C0505EB8205D5ED000A00EE103AB8EE23
:102B6000C00A80EE801A01F12C0505EB820585ED87
:102B7000001A521C042ACDDB30BD00000000FE42CA
:102B8000000080432DE9F04F85B006460D46002435
:102B9000B6F86C00000A4FFA80FABAF17F0F01DD37
:102BA0004FFA8AFA8DF810A096F86C004FFA80F868
:102BB000B8F17F0F01DD4FFA88F88DF81280B6F872
:102BC0006E00000A47B27F2F00DD7FB28DF81170D2
:102BD00096F86E004FFA80F9B9F17F0F01DD4FFAD8
:102BE00089F98DF8139096F87000C0F3031008303F
:102BF000039096F8700000F00F0002904FF0000B69
:102C0000A5E0002000909CE02021009801FB0B042F
:102C10002046E31704EBD3635B1121464FEAE47CC3
:102C200004EB9C6C4FEAAC1CA3EB4C03224604EB78
:102C3000D27C4FEA6C0CA4EB4C0C4FF0020E0EFB56
:102C400003C3DBB20193403016F81000C0F342001A
:102C500000EE100AB8EEC00A41F24420284400EB0E
:102C6000840080ED000A41F24420284400EB8400F7
:102C700090ED000AF0EE080AB4EEE00AF1EE10FA68
:102C800011DD41F24420284400EB840090ED000A5D
:102C9000F2EE000A30EE600A41F24420284400EBD4
:102CA000840080ED000A41F24420284400EB8400B7
:102CB000D0ED000A0121029801FA00F000EE100A9E
:102CC000B8EEC00A20EE800A41F24420284400EB0E
:102CD000840080ED000A04A90198085600EE100A4D
:102CE000B8EEC00A41F24420284400EB8400D0ED45
:102CF000000A30EE200A41F24420284400EB840010
:102D000080ED000A9DED030AB8EE401BB0EE000B0B
:102D100007F0FAF841F24420284400EB840090EDDB
:102D2000001AB7EEC11A81EE002BB7EEC20B41F2CA
:102D30004420284400EB840080ED000A0098401CE9
:102D4000009000982028FFF65FAF0BF1010BBBF15C
:102D5000180FFFF656AF05B0BDE8F08F2DE9FF5F05
:102D600005460E460024B5F868004FEA103ABAF15D
:102D7000070F03DDAAF110004FFA80FA8DF80CA0BE
:102D8000B5F86800C0F30328B8F1070F03DDA8F118
:102D900010004FFA80F88DF80E8095F86800C0F3A7
:102DA0000317072F02DDA7F1100047B28DF80D7051
:102DB00095F8680000F00F09B9F1070F03DDA9F1DC
:102DC00010004FFA80F98DF80F90B5F87000C0F33D
:102DD000032002900020009053E04FF0000B4AE0E7
:102DE0002021009801FB00B42046E31704EBD363D5
:102DF0005B1121464FEAE47C04EB9C6C4FEAAC1C6F
:102E0000A3EB4C03224604EBD27C4FEA6C0CA4EB00
:102E10004C0C4FF0020E0EFB03C3DBB2019303A870
:102E2000019BC05600EE100AB8EEC00A41F644609D
:102E3000304400EB840080ED000A9DED020AB8EEFC
:102E4000401BB0EE000B07F05FF841F644603044E1
:102E500000EB840090ED001AB7EEC11A81EE002B52
:102E6000B7EEC20B41F64460304400EB840080EDC5
:102E7000000A0BF1010BBBF1200FB1DB0098401CE5
:102E8000009000981828A8DBBDE8FF9F2DE9F043CB
:102E9000B8B00246002092F8203003F00F0C92F8F0
:102EA0002030C3F30317138CC3F30326538C1DB2D6
:102EB000B5F5004F00DB2DB2002328E0980003F1A8
:102EC000120412F8144004F00F040DF1800848F8C1
:102ED000204003F1120412F81440C4F303180DF15A
:102EE0008009441C49F8248003F1120432F814408C
:102EF000C4F30328841C49F8248003F1120432F837
:102F000014404FEA1438C41C49F824805B1C062B7B
:102F1000D4DB00230DE020AC54F82340072C07DD60
:102F200020AC54F82340103C0DF1800848F82340B1
:102F30005B1C182BEFDB002324E0980003F118043E
:102F400012F8144004F00F044DF8204003F1180467
:102F500012F81440C4F30318441C4DF8248003F104
:102F6000180432F81440C4F30328841C4DF824805C
:102F700003F1180432F814404FEA1438C41C4DF819
:102F800024805B1C082BD8DB002309E05DF823407C
:102F9000072C04DD5DF82340103C4DF823405B1CFA
:102FA000202BF3DB00234CE0002447E04FF0200807
:102FB00008FB034000F1400832F818804FEA9829D6
:102FC00001F6444828F8109038F91080B8F11F0F26
:102FD0000BDD01F6444838F81080A8F140080FFADC
:102FE00088F901F6444828F8109001F6444838F86A
:102FF00010804FF0010909FA0CF908FB09F80FFAE3
:1030000088F901F6444828F810900DF1800838F846
:10301000238008FA06F808EB05093DF8248008FA31
:1030200007F8C14401F6444838F81080C8440FFA44
:1030300088F901F6444828F81090641C202CB5DB70
:103040005B1C182BB0DB38B0BDE8F08370B52DEDFC
:10305000048B04460D46B4F86400800A00EE100AA2
:10306000B8EEC00AF0EE408AB3EE0F0AF4EEC08A62
:10307000F1EE10FA05DD9FED250A38EEC00AF0EEFC
:10308000408A9FED230AC8EE800AF0EE608AB4F809
:103090006400C0F3090000EE100AB8EEC08A9FED8C
:1030A0001D0AB4EEC08AF1EE10FA05DD9FED1A0A92
:1030B00038EE400AB0EE408AB2EE000AC8EE000ACE
:1030C000B0EE608AB4F8620006B2B2EE0C1BB0EE4D
:1030D000000B06F019FFB0EE401B208C00F470408E
:1030E00000EE100AB8EEC00B80EE012BB2EE000B22
:1030F00032EE000BB7EEC09BC5ED018A85ED028A6A
:10310000AE8185ED049ABDEC048B70BD0000804259
:10311000000080450080FF4300008044B0F870301C
:10312000C3F3013281F824207047000090F8782022
:1031300000EE902AF8EEE00AB0EE600ADFED0A0A2F
:10314000B4EEE00AF1EE10FA05DDDFED080A70EEEC
:10315000600AB0EE600ADFED060A80EE201AB0EEDB
:10316000410A81ED060A70470000FE4200008043DC
:103170000000004230B50A46B0F8664021B2B0F80F
:103180006640210A7F2902DDA1F5807421B24C013D
:1031900021B290F86630A3F580744FF40055C5EB6A
:1031A00044131180538030BD70B50446B3F5804F91
:1031B00013D1D1E9000540EA05108D6840EA0520E9
:1031C0008D6928438D8940EA054054F82250064E07
:1031D0003540284344F8220003E06FF0704044F883
:1031E0002200002070BD00000000F0CF30B5024684
:1031F000086852F8200020F001000C6842F8240012
:103200008868082801D1402300E00023486818435B
:103210008C682043CC6820430C6920434C692043D0
:103220008C692043CC6920430C6A20434C6A2043BC
:103230008C6A2043CC6A20430C6B20434C6B2043A8
:103240008C6B20430C6852F824400D4D2C402043D9
:103250000C6842F82400086BB0F5801F07D108689D
:1032600028B1106820F480100C6B204310600868AF
:1032700018B110684C6B20431060002030BD000076
:103280008004C0FF30B50346D1E9000540EA0510CF
:103290008D6840EA05208D8940EA0545088A401E70
:1032A00045EA0055087D801E45EA00608D69284387
:1032B000551C53F8255005F040452843551C43F84C
:1032C0002500186800F48010B0F5801F0BD15868F5
:1032D00020F47004088A401E44EA0054586820F420
:1032E000700020435860002030BD000038B500BF9A
:1032F0003748006840F00200354908600846006819
:1033000000F00200009000BF00BF32483249086060
:10331000002048608021304881608900C160002120
:1033200001614FF400614161890081610021C16147
:103330004FF48031016200214162032181624FF02C
:103340008071C162016300F02BFD10B123A0FDF775
:103350009BF80123244A25491F4801F06FFA1422E3
:1033600000211D4800F080FF01231F4A921E1F49C3
:10337000891E194801F062FA14220021164800F053
:1033800073FF0123184A121F1849091F124801F040
:1033900055FA14220021104800F066FF0523124A56
:1033A0000A3A124912390C4801F048FA1422002155
:1033B000094800F059FF002407E00B480A3830F8AC
:1033C00014100BA0FDF760F8641C0A2CF5DB38BD67
:1033D000D844025810040240000B00246572726F3A
:1033E0007272727272720A007A0100241200002452
:1033F00065656565656565656565656565653A25E8
:10340000640A00002DE9F04104460D4616461F46A9
:10341000002C19DB3F2C17DC002028703070C4EB27
:1034200004284FEAE87008EB9060801101EE100A62
:10343000B8EEC11BB0EE410B07F0E2F9BCEEC00BD9
:1034400010EE100A38706FE0402C30DB7F2C2EDC41
:1034500000202870A4F14000C0EB00284FEAE8707B
:1034600008EB9060801101EE100AB8EEC11BB0EEBF
:10347000410B07F0C5F9BCEEC00B10EE100A30701E
:10348000C4F17F00C0EB00284FEAE87008EB9060C1
:10349000801101EE100AB8EEC11BB0EE410B07F02F
:1034A000AFF9BCEEC00B10EE100A38703CE0802C77
:1034B0001CDBBF2C1ADCA4F18000C0EB00284FEA13
:1034C000E87008EB9060801101EE100AB8EEC11BA5
:1034D000B0EE410B07F094F9BCEEC00B10EE100AF1
:1034E0002870FF203070002038701DE0C02C1BDBDE
:1034F000FF2C19DCFF202870C4F1FF00C0EB00286E
:103500004FEAE87008EB9060801101EE100AB8EE07
:10351000C11BB0EE410B07F073F9BCEEC00B10EE0F
:10352000100A307000203870BDE8F0812DE9F041BC
:10353000044601F095FB804614B90120BDE8F081F6
:1035400094F83500022808D08020606500BF002074
:1035500084F8340000BF0120F0E7FE49206888426B
:1035600049D0FC4918312068884244D0F9493031AB
:10357000206888423FD0F7494831206888423AD0D5
:10358000F44960312068884235D0F24978312068AA
:10359000884230D0EF499031206888422BD0ED49E5
:1035A000A8312068884226D0EB492068884222D082
:1035B000E9491831206888421DD0E7493031206838
:1035C000884218D0E44948312068884213D0E24943
:1035D0006031206888420ED0DF4978312068884207
:1035E00009D0DD4990312068884204D0DA49A831F9
:1035F0002068884201D1012000E0002068B12068E5
:10360000006820F01E00216808602068406920F0F2
:10361000800021684861256806E02068006820F085
:103620000E00216808602568CA492068884270D069
:10363000C8491831206888426BD0C64930312068AB
:10364000884266D0C34948312068884261D0C14968
:103650006031206888425CD0BE4978312068884259
:1036600057D0BC4990312068884252D0B949A8311E
:10367000206888424DD0B8492068884249D0B64970
:1036800018312068884244D0B349303120688842DC
:103690003FD0B1494831206888423AD0AE496031C4
:1036A0002068884235D0AC4978312068884230D0D3
:1036B000A9499031206888422BD0A749A8312068B9
:1036C000884226D0A5492068884222D0A3491431D7
:1036D000206888421DD0A14928312068884218D02E
:1036E0009E493C312068884213D09C495031206863
:1036F00088420ED0994964312068884209D09749A0
:1037000078312068884204D094498C3120688842FE
:1037100001D1012000E0002028B1206E006820F4D3
:103720008070216E08608B492068884249D08949A1
:1037300018312068884244D0864930312068884258
:103740003FD084494831206888423AD0814960316D
:103750002068884235D07F4978312068884230D04F
:103760007C499031206888422BD07A49A831206862
:10377000884226D078492068884222D0764918317C
:10378000206888421DD0744930312068884218D0A2
:10379000714948312068884213D06F4960312068F0
:1037A00088420ED06C4978312068884209D06A4935
:1037B00090312068884204D06749A8312068884247
:1037C00006D12068006820F001002168086005E04B
:1037D0002068006820F001002168086011E001F015
:1037E0003FFAA0EB080005280BD92020606500BF38
:1037F000002084F8340000BF032084F83500012045
:103800009CE6286800F001000028E8D151492068B2
:10381000884249D04F4918312068884244D04D49E8
:103820003031206888423FD04A4948312068884278
:103830003AD0484960312068884235D045497831CE
:103840002068884230D043499031206888422BD08C
:103850004049A8312068884226D03F4920688842E4
:1038600022D03D491831206888421DD03A49303174
:103870002068884218D0384948312068884213D0DF
:1038800035496031206888420ED03349783120684C
:10389000884209D0304990312068884204D02E49AE
:1038A000A8312068884201D1012000E0002040B109
:1038B000A66D94F85C0000F01F013F208840B060C6
:1038C00007E0A76D94F85C0000F01F01012088401C
:1038D000786020492068884276D01E4918312068D7
:1038E000884271D01B493031206888426CD0194918
:1038F00048312068884267D0164960312068884284
:1039000062D014497831206888425DD011499031E5
:103910002068884258D00F49A8312068884253D087
:103920000D49206888424FD00B49183120688842E1
:103930004AD0094930312068884245D0064948318B
:103940002068884240D004496031206888423BD0DA
:10395000014905E0100002401004024008540258DA
:103960007831206888422FD02549206888422BD0A2
:10397000234918312068884226D02249206888428D
:1039800022D020491431206888421DD01D49283199
:103990002068884218D01B493C312068884213D0E7
:1039A00018495031206888420ED016496431206889
:1039B000884209D0134978312068884204D01149DF
:1039C0008C312068884201D1012000E0002068B1DC
:1039D000D4E919104860E06E40B1E06E006820F450
:1039E0008070E16E0860D4E91C10486000BF0020C0
:1039F00084F8340000BF012084F8350000209DE5E4
:103A0000A00402400854025870B504460CB90120C5
:103A100070BD94F83500022803D080206065012035
:103A2000F6E7DC492068884249D0DA491831206835
:103A3000884244D0D7493031206888423FD0D549A8
:103A40004831206888423AD0D249603120688842A3
:103A500035D0D04978312068884230D0CD49903176
:103A6000206888422BD0CB49A8312068884226D0D4
:103A7000C9492068884222D0C74918312068884245
:103A80001DD0C54930312068884218D0C24948311C
:103A90002068884213D0C0496031206888420ED027
:103AA000BD4978312068884209D0BB4990312068EF
:103AB000884204D0B849A8312068884201D1012049
:103AC00000E00020F0B3042084F83500B1492068FC
:103AD00088424BD0AF4918312068884246D0AD4962
:103AE00030312068884241D0AA4948312068884254
:103AF0003CD0A84960312068884237D0A549783148
:103B00002068884232D0A3499031206888422DD065
:103B1000A049A8312068884228D09F49206888425F
:103B200024D09D491831206888421FD09A493031ED
:103B3000206888421AD0984948312068884215D0B8
:103B4000954900E020E06031206888420ED092491B
:103B500078312068884209D08F49903120688842A6
:103B600004D08D49A8312068884206D120680068B9
:103B700020F001002168086009E12068006820F059
:103B800001002168086002E12068006820F00E0052
:103B9000216808607F492068884249D07D491831F2
:103BA0002068884244D07B493031206888423FD029
:103BB00078494831206888423AD076496031206897
:103BC000884235D0734978312068884230D07149B5
:103BD0009031206888422BD06E49A83120688842F5
:103BE00026D06D492068884222D06B491831206860
:103BF00088421DD0684930312068884218D0664913
:103C000048312068884213D0634960312068884277
:103C10000ED0614978312068884209D05E499031E0
:103C20002068884204D05C49A8312068884206D1C7
:103C30002068006820F001002168086005E0206825
:103C4000006820F00100216808605249206888421D
:103C500070D050491831206888426BD04D493031BE
:103C60002068884266D04B4948312068884261D03C
:103C700048496031206888425CD0464978312068E4
:103C8000884257D0434990312068884252D04149F8
:103C9000A831206888424DD03F492068884249D0E9
:103CA0003D4918312068884244D03B493031206872
:103CB00088423FD038494831206888423AD0364956
:103CC00060312068884235D0334978312068884295
:103CD00030D031499031206888422BD02E49A8310C
:103CE0002068884226D02D492068884222D02B495E
:103CF0001431206888421DD0284928312068884224
:103D000018D026493C312068884213D023495031CD
:103D1000206888420ED0214964312068884209D049
:103D20001E4978312068884204D01C498C312068B3
:103D3000884201D1012000E00020D8B1206E006847
:103D400020F48070216E0860A56D94F85C0000F08E
:103D50001F01012088406860D4E919104860E06EB6
:103D600040B1E06E006820F48070E16E0860D4E934
:103D70001C10486000BF002084F8340000BF012000
:103D800084F83500206D10B12046216D8847002051
:103D90003EE60000100002401004024008540258A1
:103DA0002DE9F041044600F05BFF804614B9012084
:103DB000BDE8F081FE492068884249D0FC491831AD
:103DC0002068884244D0FA493031206888423FD088
:103DD000F7494831206888423AD0F5496031206877
:103DE000884235D0F24978312068884230D0F04995
:103DF0009031206888422BD0ED49A8312068884254
:103E000026D0EC492068884222D0EA49183120683F
:103E100088421DD0E74930312068884218D0E549F2
:103E200048312068884213D0E249603120688842D6
:103E30000ED0E04978312068884209D0DD499031C0
:103E40002068884204D0DB49A8312068884201D12B
:103E5000012000E00020002873D0606A00B100BF9C
:103E600000BF002084F8340000BF022084F8350031
:103E7000CF492068884249D0CD491831206888420E
:103E800044D0CB493031206888423FD0C8494831BE
:103E9000206888423AD0C64960312068884235D0CF
:103EA000C34978312068884230D0C14990312068B8
:103EB00088422BD0BE49A8312068884226D0BD490F
:103EC0002068884222D0BB491831206888421DD022
:103ED000B84930312068884218D0B6494831206846
:103EE000884213D0B3496031206888420ED0B1496E
:103EF00078312068884209D0AE49903120688842E4
:103F000004D0AC49A8312068884206D120680068F6
:103F100020F001002168086005E02068006820F0BA
:103F20000100216808600DE000F09AFEA0EB080097
:103F3000052807D920206065032084F8350001207A
:103F400036E745E02068006800F001000028EBD16A
:103F50002068056898480540D4E9020108432169B2
:103F6000084361690843A1690843E1690843216A7C
:103F700008430543606A042803D1D4E90B010843D0
:103F80000543206805602068456925F00705606ADB
:103F90000543606A04280DD1A06A0543E06A48B170
:103FA0002046FDF793FF28B140206065012084F88A
:103FB0003500FDE6206845612046FDF763FE0646B4
:103FC00094F85C0000F01F013F208840B0609EE044
:103FD0007A492068884222D0784914312068884282
:103FE0001DD0764928312068884218D073493C3169
:103FF0002068884213D071495031206888420ED021
:104000006E4964312068884209D06C497831206853
:10401000884204D069498C312068884201D101204E
:1040200000E00020E0B365492068884222D063495F
:104030001431206888421DD06049283120688842A8
:1040400018D05E493C312068884213D05B4950311A
:10405000206888420ED0594964312068884209D0CE
:10406000564978312068884204D054498C31206800
:10407000884201D1012000E0002000B100BF00BF54
:10408000002084F8340000BF022084F83500206846
:1040900005684B480540A068402802D1102106E081
:1040A0002EE0A068802801D1C10100E00021E06875
:1040B00041EAD001206941EAD001606941EAD001BA
:1040C000A06941EAD001E06941EAD001206A41EAF1
:1040D000101005432068056038492068401A1421F3
:1040E000B0FBF1F08000E0652046FDF7CBFD074610
:1040F00094F85C0000F01F0101208840786006E021
:1041000040206065032084F83500012050E62849EE
:10411000206888427AD0264918312068884275D0B4
:10412000234930312068884270D0214948312068C5
:1041300088426BD01E4960312068884266D01C4995
:1041400078312068884261D01949903120688842CE
:104150005CD01749A8312068884257D0154920689B
:10416000884253D013491831206888424ED01149F3
:1041700030312068884249D00E4948312068884251
:1041800044D00C496031206888423FD009497831D9
:10419000206888423AD0074990312068884235D05B
:1041A0000449A8312068884230D00449206809E0D9
:1041B00010000240100402403F8010FE08540258D4
:1041C0000F00FEFF884221D02649206888421DD07A
:1041D000244914312068884218D0224928312068A7
:1041E000884213D01F493C31206888420ED01D49B7
:1041F00050312068884209D01A49643120688842C9
:1042000004D0184978312068884201D1012000E0AB
:10421000002000B32046FDF7ABFDA068802801D147
:10422000002060602079216E0860D4E91910486090
:10423000606860B16068082809D82046FDF7FAFD7B
:104240000020E16E0860D4E91C10486003E0002003
:10425000E0662067606700206065012084F8350013
:104260000020A5E51C5402582DE9F05F044688465D
:1042700091464FF0000A00F0F3FC834614B9012088
:10428000BDE8F09F94F83500022808D080206065D2
:1042900000BF002084F8340000BF0120F0E7FE4991
:1042A0002068884249D0FC4918312068884244D0AF
:1042B000F9493031206888423FD0F74948312068B9
:1042C00088423AD0F44960312068884235D0F249BA
:1042D00078312068884230D0EF4990312068884298
:1042E0002BD0ED49A8312068884226D0EB492068C0
:1042F000884222D0E9491831206888421DD0E74918
:1043000030312068884218D0E4494831206888421A
:1043100013D0E2496031206888420ED0DF497831FD
:104320002068884209D0DD4990312068884204D055
:10433000DA49A8312068884201D1012000E000203C
:1043400000B32068006800F4807020B14FF48070E2
:104350006065012094E7B8F1000F07D194F85C0084
:1043600000F01F01202000FA01F706E094F85C003D
:1043700000F01F01102000FA01F7A66DA06D00F1FA
:1043800008051EE02068006800F0200020B14FF40E
:1043900080706065012073E7B8F1000F07D194F8D1
:1043A0005C0000F01F01022000FA01F706E094F81B
:1043B0005C0000F01F01042000FA01F7A66DA06D5B
:1043C000051D5BE1B4492068884249D0B2491831E3
:1043D0002068884244D0B0493031206888423FD0BC
:1043E000AD494831206888423AD0AB4960312068F5
:1043F000884235D0A84978312068884230D0A64913
:104400009031206888422BD0A349A8312068884287
:1044100026D0A2492068884222D0A04918312068BD
:1044200088421DD09D4930312068884218D09B4970
:1044300048312068884213D098496031206888420A
:104440000ED0964978312068884209D0934990313E
:104450002068884204D09149A8312068884201D15F
:10446000012000E00020E8B3306894F85C1001F00F
:104470001F0201219140084050B1606D40F00200E0
:10448000606594F85C0000F01F01012088402860FE
:10449000306894F85C1001F01F020421914008403C
:1044A00050B1606D40F00400606594F85C0000F06D
:1044B0001F01042088402860306894F85C1001F0E7
:1044C0001F0208219140084088B3606D40F0010050
:1044D000606594F85C0000F01F01082088402860A7
:1044E000012000E008E084F8350000BF002084F8D7
:1044F000340000BF0120C3E6306894F85C1001F07E
:104500001F0208219140084088B194F85C0000F037
:104510001F010120884030600120606584F835006B
:1045200000BF002084F8340000BF0120A8E6FFE7A8
:1045300009F1010078B100F093FBA0EB0B004845B6
:1045400002D8B9F1000F06D1202060652046FEF7A1
:10455000EDFF012094E650492068884270D04E4912
:104560001831206888426BD04B493031206888422E
:1045700066D0494948312068884261D04649603157
:10458000206888425CD0444978312068884257D0FE
:10459000414990312068884252D03F49A831206873
:1045A00088424DD03D492068884249D03B49183166
:1045B0002068884244D039493031206888423FD051
:1045C00036494831206888423AD034496031206801
:1045D000884235D0314978312068884230D02F491F
:1045E0009031206888422BD02C49A831206888421D
:1045F00026D02B492068884222D0294914312068CE
:1046000088421DD0264928312068884218D0244984
:104610003C312068884213D02149503120688842BB
:104620000ED01F4964312068884209D01C49783176
:104630002068884204D01A498C312068884201D110
:10464000012000E00020C8B1E06E58B1206F006882
:10465000616F084030B1D4E91C104860606D40F4CF
:1046600080606065606E0068A16E084030B1D4E97A
:1046700019104860606D40F4007060653068384023
:1046800000283FF49FAEB8F1000F70D102492068B6
:1046900088424FD0004905E010000240100402405B
:1046A0000854025818312068884243D06149206874
:1046B00088423FD05F491831206888423AD05D492E
:1046C00030312068884235D05A49483120688842C4
:1046D00030D058496031206888422BD05549783114
:1046E0002068884226D054492068884222D0524906
:1046F0001831206888421DD04F49303120688842E7
:1047000018D04D4948312068884213D04A49603159
:10471000206888420ED0484978312068884209D004
:10472000454990312068884204D04349A831206827
:10473000884201D1012000E0002038B194F85C00EB
:1047400000F01F0130208840286006E094F85C00EB
:1047500000F01F0102208840286000BF002084F87C
:10476000340000BF012084F8350061E0FFE73149E3
:1047700030392068884248D02E491839206888424C
:1047800043D02C49206888423FD02A4918312068FC
:1047900088423AD0274930312068884235D02549AF
:1047A00048312068884230D02249603120688842F0
:1047B0002BD0204978312068884226D01E492068B5
:1047C000884222D01C491831206888421DD01A49DD
:1047D00030312068884218D0174948312068884213
:1047E00013D015496031206888420ED012497831C3
:1047F0002068884209D0104990312068884204D04E
:104800000D49A8312068884201D1012000E0002034
:1048100038B194F85C0000F01F0110208840286037
:1048200006E094F85C0000F01F0104208840286036
:10483000504625E540000240100402402DE9F041B9
:1048400004460D4616461F464FF0000814B90120D5
:10485000BDE8F08100BF94F83400012801D10220A6
:10486000F6E7012084F8340000BF94F835000128F1
:104870007ED1022084F835000020606565492068FB
:10488000884249D0634918312068884244D0614940
:104890003031206888423FD05E49483120688842E4
:1048A0003AD05C4960312068884235D05949783126
:1048B0002068884230D057499031206888422BD0F8
:1048C0005449A8312068884226D05349206888423C
:1048D00022D051491831206888421DD04E493031CC
:1048E0002068884218D04C4948312068884213D04B
:1048F00049496031206888420ED0474978312068A4
:10490000884209D0444990312068884204D0424905
:10491000A8312068884206D12068006820F0010094
:104920002168086005E02068006820F00100216827
:1049300008603B46324629462046FDF71FFB3549B5
:10494000206888424BD0334918312068884246D0CD
:10495000304930312068884241D02E4948312068A2
:1049600088423CD02B4960312068884237D000E033
:1049700043E0284978312068884230D02549903179
:10498000206888422BD02349A8312068884226D04D
:1049900021492068884222D01F4918312068884266
:1049A0001DD01D4930312068884218D01A4948313D
:1049B0002068884213D018496031206888420ED0A0
:1049C000154978312068884209D013499031206810
:1049D000884204D01049A8312068884206D1206856
:1049E000006840F001002168086010E0206800685D
:1049F00040F001002168086009E000BF002084F851
:104A0000340000BF4FF4006060654FF0010840467D
:104A10001EE7000010000240100402400348006836
:104A200040F0010001490860704700002004005870
:104A3000F8B502460023734DDEE001279F400E6863
:104A400006EA0704002C71D04E68022E02D04E6890
:104A5000122E13D1DF0802F1200656F827005E0758
:104A6000F70E0F26BE40B0435F07FF0E0E69BE4033
:104A70003043DF0802F1200646F8270010685F0087
:104A80000326BE40B0430E7906F003065F00BE4029
:104A9000304310604E68012E08D04E68022E05D0BB
:104AA0004E68112E02D04E68122E13D190685F000E
:104AB0000326BE40B0435F00CE68BE4030439060E6
:104AC000506801269E40B0430E79C6F300169E4002
:104AD00030435060D0685F000326BE40B0435F00A3
:104AE0008E68BE403043D0604E6806F08056B6F106
:104AF000805F1BD100BF444E366846F00206424F2D
:104B00003E603E46366806F00206009600BF00BFD3
:104B10003E4E9F0856F827009E07370F0F26BE40CF
:104B2000B0433B4EB24202D100262EE063E0394E44
:104B3000B24201D1012628E0374EB24201D102260D
:104B400023E0364EB24201D103261EE0344EB2427B
:104B500001D1042619E0334EB24201D1052614E0FA
:104B6000314EB24201D106260FE0304EB24201D1A1
:104B700007260AE02E4EB24201D1082605E02D4E4E
:104B8000B24201D1092600E00A269F073F0FBE402E
:104B900030431E4E9F0846F827002868A0434E6801
:104BA00006F48036B6F5803F00D12043286068685F
:104BB000A0434E6806F40036B6F5003F00D120430E
:104BC00068604FF0B0463068A0434E6806F4801627
:104BD000B6F5801F00D120434FF0B04630607068BA
:104BE000A0434E6806F40016B6F5001F00D120431E
:104BF0004FF0B04670605B1C0E68DE40002E7FF404
:104C00001CAFF8BD80000058F44402580804005856
:104C1000000002580004025800080258000C025814
:104C2000001002580014025800180258001C0258C4
:104C30000020025800240258024613690B400BB1B1
:104C4000012000E0002070470AB1816101E00B04FF
:104C50008361704701480068000C70470010005CD9
:104C600001480068704700002800002403480068DD
:104C70000349097808440149086070472800002466
:104C80003000002410B5052000F00AF901F0CCFA3C
:104C900010490968C1F303210F4A515C01F01F015B
:104CA000C8400E4908600B48006800F00F0011462C
:104CB000085C00F01F0109480068C8400849086006
:104CC0000F2000F00FF808B1012010BD00F09AF895
:104CD0000020FAE71844025896D100081400002476
:104CE0001800002470B504461148007808B9012066
:104CF00070BD0F4800784FF47A71B1FBF0F00D49A8
:104D00000968B1FBF0F5284601F0B1FF08B10120B8
:104D1000EEE7102C07D200222146501E00F083F847
:104D20000548046001E00120E2E70020E0E7000020
:104D300030000024140000242C0000244178154A7F
:104D400011600178F9B1121D41681160017B0907FA
:104D5000C27A41EA0261827A41EAC241427B41EA77
:104D60008241827B41EA4241C27B41EA0241427A6E
:104D700041EA0221027A41EA420102781143054ADE
:104D80000832116005E00021024A121D1160121D57
:104D90001160704798ED00E000BF00BF00BFBFF397
:104DA0005F8F00BF00BF00BF0548006820F480305F
:104DB0000349086000200249703108607047000014
:104DC00024ED00E040F001010D4A11600C497039FA
:104DD000096841F480310A4A703A116000BF00BF8F
:104DE00000BFBFF34F8F00BF00BF00BF00BF00BFB9
:104DF00000BFBFF36F8F00BF00BF00BF7047000050
:104E000094ED00E0704701460846002809DB00F0F9
:104E10001F0301229A4043099B0003F1E023C3F8DA
:104E2000002100BF70472DE9F05F80460D46164611
:104E300005F04CF8074639462A46334601F007008C
:104E4000C0F1070ABAF1040F02D94FF0040A01E0D9
:104E5000C0F1070AD14600F1040ABAF1070F02D2E5
:104E60004FF0000A01E0A0F1030AD4464FF0010A16
:104E70000AFA09FAAAF1010A0AEA020A0AFA0CFA7B
:104E80004FF0010B0BFA0CFBABF1010B0BEA030B20
:104E90004AEA0B042146404605F020F8BDE8F09FA1
:104EA00000BF00F00702064B19684FF6FF031940D8
:104EB000044B0B4343EA0221014B196000BF7047CA
:104EC0000CED00E00000FA050348006840F0807037
:104ED00001490860704700000C48025810B501F005
:104EE000A3F907490968C1F30321064A515C01F09F
:104EF0001F01C840044908600846006810BD000052
:104F00001844025896D100081400002410B501F08E
:104F10004FF905490968C1F30211044A515C01F0D7
:104F20001F01C84010BD00002044025896D100085F
:104F300070B50146844D2D6805F00303824D2D6840
:104F4000C5F30530804D2D1D2D68C5F300147E4D31
:104F500014352D68C5F3CC0515FB04F501EE105A88
:104F6000B8EE411AF0EE410A00286FD023B1012BB0
:104F70004ED0022B6BD16BE0734D283D2D68C5F3ED
:104F800040153DB3704D283D2D68C5F3C1066F4DEA
:104F900025FA06F201EE102AF8EE411A01EE100A87
:104FA000B8EE411A81EE812A9FED691AC0EE811A8E
:104FB000654D10352D68C5F3080501EE105AB8EEA1
:104FC000411A31EE811AF7EE001A31EE211A22EE63
:104FD000010A1CE001EE100AB8EE411ADFED5D1A7D
:104FE00081EE812A9FED5A1AC0EE811A564D103576
:104FF0002D68C5F3080501EE105AB8EE411A31EEDE
:10500000811AF7EE001A31EE211A22EE010A5BE056
:1050100001EE100AB8EE411ADFED4F1A81EE812A37
:105020009FED4B1AC0EE811A474D10352D68C5F320
:10503000080501EE105AB8EE411A31EE811AF7EE6A
:10504000001A31EE211A22EE010A3DE077E01DE060
:1050500001EE100AB8EE411A9FED402AC2EE011A85
:105060009FED3B1A80EE812A374D10352D68C5F330
:10507000080501EE105AB8EE411A32EE011AB7EEE9
:10508000002A31EE021A21EE810A1DE001EE100A1B
:10509000B8EE411ADFED301A81EE812A9FED2C1A0D
:1050A000C0EE811A284D10352D68C5F3080501EEB4
:1050B000105AB8EE411A31EE811AF7EE001A31EEAD
:1050C000211A22EE010A00BF00BF1F4D10352D68C6
:1050D000C5F3462501EE105AB8EE411AF7EE001A54
:1050E00031EE211AC0EE011ABCEEE11A81ED001A70
:1050F000154D10352D68C5F3064501EE105AB8EE72
:10510000411AF7EE001A31EE211AC0EE011ABCEE78
:10511000E11A81ED011A0C4D10352D68C5F30665B5
:1051200001EE105AB8EE411AF7EE001A31EE211ACC
:10513000C0EE011ABCEEE11A81ED021A03E000256F
:105140000D604D608D6070BD284402580090D00302
:10515000000000460024744C0024744A0024F44AE1
:1051600070B50146844D2D6805F00303824D2D680E
:10517000C5F30550804D2D1D2D68C5F300247E4DCF
:105180001C352D68C5F3CC0515FB04F501EE105A4E
:10519000B8EE411AF0EE410A00286FD023B1012B7E
:1051A0004ED0022B6BD16BE0734D283D2D68C5F3BB
:1051B00040153DB3704D283D2D68C5F3C1066F4DB8
:1051C00025FA06F201EE102AF8EE411A01EE100A55
:1051D000B8EE411A81EE812A9FED691AC0EE811A5C
:1051E000654D18352D68C5F3080501EE105AB8EE67
:1051F000411A31EE811AF7EE001A31EE211A22EE31
:10520000010A1CE001EE100AB8EE411ADFED5D1A4A
:1052100081EE812A9FED5A1AC0EE811A564D18353B
:105220002D68C5F3080501EE105AB8EE411A31EEAB
:10523000811AF7EE001A31EE211A22EE010A5BE024
:1052400001EE100AB8EE411ADFED4F1A81EE812A05
:105250009FED4B1AC0EE811A474D18352D68C5F3E6
:10526000080501EE105AB8EE411A31EE811AF7EE38
:10527000001A31EE211A22EE010A3DE077E01DE02E
:1052800001EE100AB8EE411A9FED402AC2EE011A53
:105290009FED3B1A80EE812A374D18352D68C5F3F6
:1052A000080501EE105AB8EE411A32EE011AB7EEB7
:1052B000002A31EE021A21EE810A1DE001EE100AE9
:1052C000B8EE411ADFED301A81EE812A9FED2C1ADB
:1052D000C0EE811A284D18352D68C5F3080501EE7A
:1052E000105AB8EE411A31EE811AF7EE001A31EE7B
:1052F000211A22EE010A00BF00BF1F4D18352D688C
:10530000C5F3462501EE105AB8EE411AF7EE001A21
:1053100031EE211AC0EE011ABCEEE11A81ED001A3D
:10532000154D18352D68C5F3064501EE105AB8EE37
:10533000411AF7EE001A31EE211AC0EE011ABCEE46
:10534000E11A81ED011A0C4D18352D68C5F306657B
:1053500001EE105AB8EE411AF7EE001A31EE211A9A
:10536000C0EE011ABCEEE11A81ED021A03E000253D
:105370000D604D608D6070BD284402580090D003D0
:10538000000000460024744C0024744A0024F44AAF
:105390002DE9F04104460025A846206800F0006091
:1053A000B0F1006F30D1606E48B1B0F5801F0DD004
:1053B000B0F5001F10D0B0F5401F15D113E0F9482B
:1053C000006840F40030F74908600FE00221201D1A
:1053D00002F0FAFC054609E0022104F1240002F083
:1053E000A5FD054602E001E0012500BF00BF55B95B
:1053F000EC482430006820F44010616E0843E9490D
:105400002431086000E0A846208800F48070B0F5E0
:10541000807F2DD1606D05281AD2DFE800F0030AE5
:1054200010171800DF48006840F40030DD490860BC
:1054300010E00021201D02F0C7FC05460AE0002113
:1054400004F1240002F072FD054603E002E001E0F1
:10545000012500BF00BF55B9D2482430006820F0B4
:105460000700616D0843CF492431086000E0A84679
:10547000208800F40070B0F5007F33D1A06D802843
:1054800017D003DC40B140281CD10CE0C02817D055
:10549000B0F5807F16D114E0C248006840F40030B7
:1054A000C049086010E00021201D02F08DFC054677
:1054B0000AE0002104F1240002F038FD054603E073
:1054C00002E001E0012500BF00BF55B9B548243016
:1054D000006820F4E070A16D0843B24924310860EF
:1054E00000E0A846208800F48060B0F5806F38D1D5
:1054F000D4F8A400B0F5800F19D004DC50B1B0F599
:10550000001F1DD10DE0B0F5C00F17D0B0F5000F92
:1055100016D114E0A348006840F40030A1490860A7
:1055200010E00021201D02F04FFC05460AE000219A
:1055300004F1240002F0FAFC054603E002E001E079
:10554000012500BF00BF5DB996482C30006820F4EB
:105550006000D4F8A410084392492C31086000E0A0
:10556000A846208800F40060B0F5006F38D1D4F868
:10557000A800B0F1007F19D004DC50B1B0F1807FF9
:105580001DD10DE0B0F1407F17D0B0F1806F16D182
:1055900014E08448006840F400308249086010E05C
:1055A0000021201D02F010FC05460AE0002104F154
:1055B000240002F0BBFC054603E002E001E0012507
:1055C00000BF00BF5DB977482C30006820F0E06074
:1055D000D4F8A810084373492C31086000E0A846AD
:1055E000206800F00070B0F1007F27D1A06CA0B15E
:1055F000102804D0202809D030280FD10CE06948A9
:10560000006840F400306749086009E00221201D6D
:1056100002F0DAFB054603E002E001E0012500BFED
:1056200000BF55B95F482030006820F03000A16C01
:1056300008435C492031086000E0A846208800F457
:105640008050B0F5805F36D1E06DB0F5005F19D0C5
:1056500004DC50B1B0F5805F1DD10DE0B0F5405FC6
:1056600017D0B0F5804F16D114E04E48006840F4D2
:1056700000304C49086010E00021201D02F0A4FB1E
:1056800005460AE0002104F1240002F04FFC054623
:1056900003E002E001E0012500BF00BF55B9414829
:1056A0002430006820F4E040E16D08433D49243196
:1056B000086000E0A846208800F40050B0F5005FC4
:1056C00034D1206EB0F5403F1DD007DC68B1B0F595
:1056D000803F0BD0B0F5003F18D10DE0B0F5802F22
:1056E00012D0B0F5A02F11D10FE011E00121201D43
:1056F00002F06AFB05460BE0012104F1240002F0F0
:1057000015FC054604E003E002E001E0012500BFCE
:1057100000BF55B923482430006820F4E020216EF2
:10572000084320492431086000E0A846208800F49E
:105730008040B0F5804F38D1D4F8AC00B0F1405F74
:105740001DD007DC68B1B0F1805F0BD0B0F1005F15
:1057500018D10DE0B0F1804F12D0B0F1A04F11D1AF
:105760000FE011E00121201D02F02EFB05460BE0A9
:10577000012104F1240002F0D9FB054604E003E016
:1057800002E001E0012500BF00BF6DB905482C30E3
:10579000006820F0E040D4F8AC10084301492C31F7
:1057A000086002E02C440258A846208800F400401B
:1057B000B0F5004F26D1E06E98B1B0F1805F03D014
:1057C000B0F1005F0ED106E0F948006840F4003007
:1057D000F749086008E00121201D02F0F5FA0546AE
:1057E00002E001E0012500BF00BF55B9F0482430B8
:1057F000006820F04050E16E0843ED492431086014
:1058000000E0A846206800F08070B0F1807F27D1CA
:10581000606CA0B1012804D0022809D003280FD160
:105820000CE0E348006840F40030E149086009E01A
:105830000221201D02F0C8FA054603E002E001E063
:10584000012500BF00BF55B9D9482030006820F0BD
:105850000300616C0843D6492031086000E0A84687
:10586000206800F48000B0F5800F7DD1D148006839
:1058700040F48070CF490860FFF7F2F9064606E071
:10588000FFF7EEF9801B642801D9032505E0C9481C
:10589000006800F480700028F2D000BF85BBC448C7
:1058A0004430006800F44070B4F8B01001F4407166
:1058B000884213D0BE484430006820F44077BC488A
:1058C0004430006840F48030B949443108600846EB
:1058D000006820F48030086008460760D4F8B00003
:1058E000B0F5807F15D1FFF7BBF9064609E0FFF759
:1058F000B7F9801B41F28831884202D9032507E0BD
:1059000038E0AB4844300068C0F340000028EED0D7
:1059100000BF55BB00BFB4F8B00000F44070B0F554
:10592000407F0ED1A2481C38006820F47C51A24A66
:10593000D4F8B000104041EA10109D491C390860AD
:1059400007E09B481C38006820F47C5098491C39BB
:105950000860974844300068B4F8B010C1F30B01F8
:1059600008439349443101E005E001E0086002E0AA
:10597000A84600E0A846207800F0010068B3A06FB8
:10598000182819D005DC48B1082808D0102816D1ED
:105990000BE0202811D0282811D10FE011E00121BF
:1059A000201D02F011FA05460BE0012104F124004C
:1059B00002F0BCFA054604E003E002E001E0012544
:1059C00000BF00BF55B97A482830006820F0380081
:1059D000A16F084376492831086000E0A846207886
:1059E00000F00200022828D1606F062815D2DFE8F7
:1059F00000F003040A11121311E00121201D02F02E
:105A0000E3F905460BE0012104F1240002F08EFACF
:105A1000054604E003E002E001E0012500BF00BF0D
:105A200055B963482830006820F00700616F0843CB
:105A30005F492831086000E0A846207800F00400A3
:105A400004282AD1D4F89000062815D2DFE800F007
:105A500003040A11121311E00121201D02F0B4F910
:105A600005460BE0012104F1240002F05FFA05462F
:105A700004E003E002E001E0012500BF00BF5DB9E2
:105A80004B482C30006820F00700D4F890100843F1
:105A900047492C31086000E0A846207800F020003B
:105AA000202836D1D4F88C00B0F1405F1DD007DC3F
:105AB00068B1B0F1805F0BD0B0F1005F18D10DE09C
:105AC000B0F1804F12D0B0F1A04F11D10FE011E032
:105AD0000021201D02F078F905460BE0022104F1B7
