:020000040800F2
:100000002808012069020008C53900908F09009076
:1000100075020008D50300904D40009000000000DC
:10002000000000000000000000000000C93900903E
:10003000D903009000000000C7390090CB39009030
:10004000830200088302000883020008830200087C
:10005000830200088302000883020008830200086C
:10006000830200088302000883020008830200085C
:10007000830200088302000883020008830200084C
:10008000830200088302000883020008830200083C
:10009000830200088302000883020008830200082C
:1000A000830200088302000883020008830200081C
:1000B000830200088302000883020008830200080C
:1000C00083020008830200088302000883020008FC
:1000D0008302000859160008830200088302000802
:1000E00083020008830200088302000883020008DC
:1000F00083020008830200088302000883020008CC
:1001000083020008830200088302000883020008BB
:1001100083020008830200088302000883020008AB
:10012000830200088302000883020008830200089B
:10013000830200088302000883020008830200088B
:10014000830200088302000883020008830200087B
:10015000830200088302000883020008830200086B
:10016000830200088302000883020008830200085B
:10017000830200088302000883020008830200084B
:10018000830200088302000883020008830200083B
:10019000830200088302000883020008830200082B
:1001A000830200088302000883020008830200081B
:1001B000830200088302000883020008830200080B
:1001C000830200088302000800F002F800F03CF807
:1001D0000AA090E8000C82448344AAF10107DA45A2
:1001E00001D100F031F8AFF2090EBAE80F0013F0B8
:1001F000010F18BFFB1A43F001031847481700000E
:1002000068170000103A24BF78C878C1FAD852079E
:1002100024BF30C830C144BF04680C607047000080
:100220000023002400250026103A28BF78C1FBD8FF
:10023000520728BF30C148BF0B6070471FB501F09F
:100240006FFB1FBD10B510BD00F0AAF81146FFF7F7
:10025000F5FF01F073FA00F0C8F803B4FFF7F2FFFE
:1002600003BC01F021FA0000094880470948004713
:10027000FEE7FEE7FEE7FEE7FEE7FEE7FEE7FEE756
:10028000FEE7FEE704480549054A064B70470000B3
:10029000F5150008C90100082802012028080120DE
:1002A0002804012028040120704753EA020C00F0C2
:1002B00069802DE9F04B4FF00006002B1FBFB3FA09
:1002C00083F503FA05F424FA05F65E4012BF1643DF
:1002D000B2FA82F502FA05F4C5F120051EBF22FA32
:1002E00005FC44EA0C04203556EA044C4FEA144459
:1002F00018BF641C4FF000084FF00009904271EBEA
:10030000030C39D3002919BFB1FA81F701FA07F6B6
:10031000B0FA80F700FA07F6C7F120071EBF20FAEF
:1003200007FC46EA0C062037B6FBF4FCA7EB0507F2
:10033000103F07F01F0BCBF120060CFA0BFB2CFA39
:1003400006F644BFB3460026202FA4BF5E464FF0FA
:10035000000B5BEA060C08BF4FF0010B19EB0B0911
:10036000ABFB027C48EB0608C01B06FB02CC0BFB78
:1003700003CC71EB0C01C1E70B46024641464846EF
:10038000BDE8F08B13B54FF000004FF00001AFF364
:100390000080BDE81C407047704770477047704749
:1003A000754600F02BF8AE4605006946534620F02E
:1003B0000700854618B020B5FFF764FFBDE8204070
:1003C0004FF000064FF000074FF000084FF0000B11
:1003D00021F00701AC46ACE8C009ACE8C009ACE8C4
:1003E000C009ACE8C0098D46704710B50446AFF3AC
:1003F00000802046BDE81040FFF72FBF004870473F
:10040000C801012040F2315CC9F2000C604740F2A3
:10041000C16CC9F2000C604740F2B36CC9F2000C29
:10042000604740F6A90CC9F2000C604743F66D1C0A
:10043000C9F2000C604740F6554CC9F2000C604709
:1004400040F2250CC9F2000C604740F6951CC9F239
:10045000000C604743F6B10CC9F2000C604740F64F
:10046000350CC9F2000C604710B500BF00BF00BFDB
:1004700000BF00BFBFF34F8F00BF00BF00BF00BF72
:1004800000BF00BFBFF36F8F00BF00BF00BF0020E1
:10049000114908601148006840F400300F490860B5
:1004A00000BF00BF00BFBFF34F8F00BF00BF00BF42
:1004B00000BF00BF00BFBFF36F8F00BF00BF00BF12
:1004C00000BF00F0EDFF04484C30006840F004002D
:1004D00001494C31086010BD50EF00E014ED00E020
:1004E000F8B502460B46002100250024002000BF7D
:1004F000E4E0012606FA01F51E6806EA0504AC42AE
:1005000071D15E68022E02D05E68122E13D1CF0820
:1005100002F1200656F827004E07F70E0F26BE40C0
:10052000B0434F07FF0E1E69BE403043CF0802F1B3
:10053000200646F8270010684F000326BE40B0434F
:100540001E7906F003064F00BE40304310605E681F
:10055000012E08D05E68022E05D05E68112E02D0F2
:100560005E68122E13D190684F000326BE40B04340
:100570004F00DE68BE4030439060506801268E40D8
:10058000B0431E79C6F300168E4030435060D068E9
:100590004F000326BE40B0434F009E68BE4030432C
:1005A000D0605E6806F08056B6F1805FA8D100BFCB
:1005B000444E366846F48046424F3E603E463668BA
:1005C00006F48046009600BF00BF3F4E8F0856F8E5
:1005D00027008E07370F0F26BE40B0433B4EB24276
:1005E00002D100262EE068E0394EB24201D1012648
:1005F00028E0384EB24201D1022623E0364EB24204
:1006000001D103261EE0354EB24201D1042619E085
:10061000334EB24201D1052614E0324EB24201D12E
:1006200006260FE0304EB24201D107260AE02F4ED7
:10063000B24201D1082605E02D4EB24201D1092671
:1006400000E00A268F073F0FBE4030431E4E8F0842
:1006500046F82700274E3068A0435E6806F48036CF
:10066000B6F5803F00D12043224E3060361D306801
:10067000A0435E6806F40036B6F5003F00D1204383
:100680001C4E361D3060361D3068A0435E6806F48F
:100690008016B6F5801F00D12043164E0836306014
:1006A000361D3068A0435E6806F40016B6F5001FDC
:1006B00000D120430F4E0C363060491C1029FFF446
:1006C00018AFF8BD4438024008380140000002402D
:1006D0000004024000080240000C024000100240EA
:1006E0000014024000180240001C0240002002409A
:1006F00000240240003C014042690A408A4202D183
:100700000A04826100E0816170470AB1816101E001
:100710000B048361704700000148006870470000C7
:100720001000012003480068034909780844014982
:1007300008607047100001201800012010B508481B
:10074000006840F4807006490860032000F0E0F87B
:100750000F2000F007F800F08FF8002010BD000017
:10076000003C024070B504460E4800784FF47A71A0
:10077000B1FBF0F00C490968B1FBF0F5284600F038
:100780008FFC08B1012070BD102C07D20022214639
:10079000501E00F07FF80548046001E00120F2E7F8
:1007A0000020F0E7180001200000012014000120C3
:1007B0004178154A11600178F9B1121D4168116044
:1007C000017B0907C27A41EA0261827A41EAC241A9
:1007D000427B41EA8241827B41EA4241C27B41EA5B
:1007E0000241427A41EA0221027A41EA4201027858
:1007F0001143054A0832116005E00021024A121D2A
:100800001160121D1160704798ED00E000BF00BF3D
:1008100000BFBFF35F8F00BF00BF00BF0548006887
:1008200020F48030034908600020024970310860DC
:100830007047000024ED00E040F001010D4A116016
:100840000C497039096841F480310A4A703A1160E4
:1008500000BF00BF00BFBFF34F8F00BF00BF00BF8E
:1008600000BF00BF00BFBFF36F8F00BF00BF00BF5E
:100870007047000094ED00E0704700BF00F01F02D9
:10088000012191404209920002F1E022C2F80011D8
:1008900000BF70472DE9F05F80460D4616460027E1
:1008A00000F0A6FC074639462A46334601F0070009
:1008B000C0F1070ABAF1040F02D94FF0040A01E0AF
:1008C000C0F1070AD14600F1040ABAF1070F02D2BB
:1008D0004FF0000A01E0A0F1030AD4464FF0010AEC
:1008E0000AFA09FAAAF1010A0AEA020A0AFA0CFA51
:1008F0004FF0010B0BFA0CFBABF1010B0BEA030BF6
:100900004AEA0B042146404600F07AFCBDE8F09F1D
:1009100000BF00F00702064B19684FF6FF031940AD
:10092000044B0B4343EA0221014B196000BF70479F
:100930000CED00E00000FA0570B504460D460026F7
:100940000CB9012070BD5C48006800F00F00A8429F
:100950000ED25948006820F00F002843564908601D
:100960000846006800F00F00A84201D00120E9E726
:10097000207800F0020002281DD1207800F0040049
:10098000042805D14D48006840F4E0504B49086008
:10099000207800F00800082805D14848006840F495
:1009A0006040464908604548006820F0F000A168B2
:1009B000084342490860207800F0010090B3606865
:1009C000012807D13D4808380068C0F34040A0B96D
:1009D0000120B7E76068022807D138480838006866
:1009E000C0F3406048B90120ACE7344808380068DB
:1009F000C0F3400008B90120A4E73048006820F0A7
:100A00000300616808432D490860FFF785FE06462C
:100A100009E0FFF781FE801B41F28831884202D94C
:100A200003208FE707E02548006800F00C006168AC
:100A3000B0EB810FEDD12048006800F00F00A84214
:100A40000ED91D48006820F00F0028431A4908609D
:100A50000846006800F00F00A84201D0012071E7AD
:100A6000207800F00400042807D11448006820F41E
:100A7000E050E168084311490860207800F0080060
:100A8000082808D10D48006820F46040216940EA38
:100A9000C1000A49086000F03DF808490968C1F33F
:100AA0000311074A515CC840064908600F20FFF750
:100AB00059FE002046E70000003C02400838024092
:100AC0002A19000800000120014800687047000052
:100AD0000000012000B5FFF7F7FF04490968C1F3E2
:100AE0008221034A515CC84000BD00000838024022
:100AF0003A19000800B5FFF7E7FF04490968C1F398
:100B00004231034A515CC84000BD00000838024031
:100B10003A1900082DE9F047002400250026A146D7
:100B20002548006800F00C0020B1042805D00828F2
:100B30003AD105E0DFF8849039E0DFF8849036E0C0
:100B40001D48001F006800F03F041B48001F00689C
:100B500000F4800078B11A481749091F0968C1F3E9
:100B60008811A0FB01700146224600233846FFF79A
:100B70009CFB05460EE011480F49091F0968C1F3A7
:100B80008811A0FB01700146224600233846FFF77A
:100B90008CFB05460848001F0068C0F30140401C5C
:100BA0004600B5FBF6F902E0DFF8109000BF00BF89
:100BB0004846BDE8F0870000083802400024F400F1
:100BC00040787D01F8B5044600260CB90120F8BD37
:100BD000207800F00100002871D0F848006800F08B
:100BE0000C0004280DD0F548006800F00C0008281F
:100BF00013D1F248001F006800F48000B0F5800FA8
:100C00000BD1EE4808380068C0F34040002869D096
:100C10006068002866D10120D9E700BF6068B0F5A0
:100C2000803F08D1E5480838006840F48030E34947
:100C3000083908602EE0606868B9E0480838006844
:100C400020F48030DD49083908600846006820F447
:100C5000802008601EE06068B0F5A02F0DD1D74855
:100C60000838006840F48020D449083908600846F4
:100C7000006840F4803008600CE0D0480838006814
:100C800020F48030CD49083908600846006820F417
:100C90008020086000BF606890B1FFF73DFD054609
:100CA00006E0FFF739FD401B642801D903208EE7D9
:100CB000C24808380068C0F340400028F1D011E075
:100CC000FFF72AFD054606E0FFF726FD401B6428D6
:100CD00001D903207BE7B94808380068C0F34040D9
:100CE0000028F1D1207800F00200022869D1B34831
:100CF000006800F00C0058B1B048006800F00C002B
:100D000008281CD1AD48001F006800F48000B0B96D
:100D1000AA4808380068C0F3400020B1E068012804
:100D200001D0012053E7A5480838006820F0F800FA
:100D3000216940EAC100A1490839086041E0E06842
:100D400028B39E480838006840F001009B490839E4
:100D50000860FFF7E1FC054606E0FFF7DDFC401BFD
:100D6000022801D9032032E7944808380068C0F30C
:100D700040000028F1D091480838006820F0F800C1
:100D8000216940EAC1008D490839086019E08B48A3
:100D90000838006820F00100884908390860FFF72A
:100DA000BBFC054606E0FFF7B7FC401B022801D953
:100DB00003200CE7814808380068C0F34000002891
:100DC000F1D1207800F00800082836D16069D0B150
:100DD0007A486C30006840F0010078496C31086056
:100DE000FFF79AFC054606E0FFF796FC401B022839
:100DF00001D90320EBE671486C300068C0F3400075
:100E00000028F1D019E06D486C30006820F0010036
:100E10006A496C310860FFF77FFC054606E0FFF782
:100E20007BFC401B022801D90320D0E663486C30CC
:100E30000068C0F340000028F1D1207800F00400E1
:100E4000042874D15D483830006800F0805080B9C3
:100E500000BF5A483830006840F080505749383158
:100E600008600846006800F08050009000BF00BF96
:100E700001265348006800F48070B0B950480068FB
:100E800040F480704E490860FFF746FC054606E0D6
:100E9000FFF742FC401B642801D9032097E648482D
:100EA000006800F480700028F2D000BFA06801281C
:100EB00008D142486830006840F001003F4968317D
:100EC00008602DE0A06868B93C486830006820F0F0
:100ED00001003A49683108600846006820F00400C3
:100EE00008601DE0A06805280DD13448683000680E
:100EF00040F004003149683108600846006840F05D
:100F0000010008600CE02D486830006820F0010006
:100F10002A49683108600846006820F0040008602B
:100F200000BFA068A8B1FFF7F7FB054609E02EE077
:100F3000FFF7F2FB401B41F28831884201D90320C0
:100F400045E61E4868300068C0F340000028EFD036
:100F500013E0FFF7E1FB054608E0FFF7DDFB401B70
:100F600041F28831884201D9032030E613486830C5
:100F70000068C0F340000028EFD1012E07D10F48D0
:100F80003830006820F080500C4938310860A06982
:100F9000E8B30A48006800F00C00082866D0A06991
:100FA00002284BD105480838006820F080700349BA
:100FB00008390860FFF7B0FB05460AE00838024030
:100FC00000700040FFF7A8FB401B022801D9032056
:100FD000FDE528480068C0F340600028F2D1E069D0
:100FE00040F00050216A0843616A40EA8111012201
:100FF000A06AC2EB500041EA00412C20005D41EAAA
:1010000000601C49091D0860081F006800E02FE00F
:1010100040F08070091F0860FFF77EFB054606E080
:10102000FFF77AFB401B022801D90320CFE51148C6
:101030000068C0F340600028F2D019E00D48006855
:1010400020F080700B490860FFF766FB054606E05C
:10105000FFF762FB401B022801D90320B7E50548D2
:101060000068C0F340600028F2D101E00120AEE545
:101070000020ACE500380240042808D14FF0E02100
:10108000096941F004014FF0E022116107E04FF0DF
:10109000E021096921F004014FF0E022116170475D
:1010A00070B504462546681EB0F1807F01D301204B
:1010B0000FE0681E4FF0E02148610F214FF0FF3034
:1010C00000F09EF800204FF0E021886107200861C1
:1010D000002070BD10B586B00446204920688842C3
:1010E0003AD100BF1E48006840F001001C4908606A
:1010F0000846006800F00100009000BF00BF00BF7C
:1011000017481430006840F0100015491431086089
:101110000846006800F01000009000BF00BF4815AE
:1011200001900220029001200390022004900720E9
:10113000059001A90B48FFF7D3F94FF480600190A7
:1011400001A90848FFF7CCF92520FFF796FB0322F9
:1011500011462520FFF79EFB06B010BD0010014090
:1011600030380240000002401D4A0168914236D1E9
:101170001C49098801F4004189BB1A49098801F416
:10118000804171B1184909780A2903D00021154A14
:10119000118024E01349098841F40041114A11806B
:1011A0001DE0114909780D2906D10E49098841F43D
:1011B00080410C4A118012E00B490978094A1288D3
:1011C000C2F30D02094B995406490988491C054A86
:1011D000118011460988C72901DD0021118070475F
:1011E000001001400C0001200E000120240001200D
:1011F00002480068C0F30220704700000CED00E0D8
:1012000010B5002807DA0A07140E054A00F00F038C
:101210001B1FD45403E00A07130E024A135410BDD7
:1012200018ED00E000E400E030B587B00024934DF5
:1012300000BF9348006840F00200914908600846EA
:10124000006800F00200019000BF00BF00BF084628
:10125000006840F0200008600846006800F02000A8
:10126000019000BF00BF00BF85480830006840F013
:1012700002008349083108600846006800F0020057
:10128000019000BF00BF4020029002200390032085
:101290000590002004900A20069002A97948FFF7E3
:1012A0001FF9042002900920069002A97548FFF753
:1012B00017F9C02002900920069002A97248FFF792
:1012C0000FF94FF4407002900A20069002A96E4870
:1012D000FFF706F96A481838006840F4804068490A
:1012E000183908600846006820F48040086000BF94
:1012F00062482038806800F020000028F8D1634858
:101300005E4920390860624848600846006840F03D
:101310000100086000BF59482038806800F02000B4
:101320000028F8D14FF49C7054492039486100BF1F
:1013300052482038806800F002000028F8D04F485A
:101340002038C06840F002004C492039C86000BF16
:101350004A482038806800F020000028F8D14FF477
:10136000837046492039486100BF4448203880686E
:1013700000F002000028F8D040482038C06840F053
:1013800002003E492039C86000BF3C4820388068D0
:1013900000F020000028F8D13E4838492039486143
:1013A0000020086100BF35482038806800F0040044
:1013B0000028F8D03020287030482038006840F0ED
:1013C00004002E492039086000BF2C48203880686E
:1013D00000F002000028F8D028482038C06840F00B
:1013E000020026492039C86000BF244820388068A0
:1013F00000F020000028F8D100BF20482038806885
:1014000000F020000028F8D11C492039C861EB24E5
:1014100044F4407444F4406444F4005444F44044BC
:1014200000BF44F4C01444F0407444F040640846E3
:1014300044611948006820F4803017490860164854
:101440007030006820F001001349703108600020FE
:10145000091D08604FF01040091D08600F48091D64
:10146000086005200C49703108600B48006840F4A2
:1014700080300949086007B030BD0000201000A08E
:101480003038024000040240001402401003000102
:1014900001041600C003000324ED00E02D00030347
:1014A00010B50023234C236000BF00BF00BFBFF373
:1014B0004F8F00BF00BF00BF231F1868C0F34E311D
:1014C00000BFC0F3C90200BF43F6E07303EA411353
:1014D0004FF0404404EA82742343174C236000BF5A
:1014E00000BF131EA2F10102EED10B1EA1F10101FA
:1014F000E7D100BF00BF00BFBFF34F8F00BF00BFE9
:1015000000BF0C4B703B1B6843F48033094C703CAC
:10151000236000BF00BF00BFBFF34F8F00BF00BFFD
:1015200000BF00BF00BF00BFBFF36F8F00BF00BF91
:1015300000BF10BD84ED00E060EF00E02DE9F04158
:1015400092B00546884616461F46002400BF27482D
:10155000006840F08050254908600846006800F0A7
:101560008050009000BF00BF00BF2148006840F4D9
:1015700040401F4908600846006800F44040009061
:1015800000BF00BF012006900004079002200C90CD
:1015900041050D91CDF838800F951096119706A84A
:1015A000FFF710FB04460CB100BFFEE7FFF73CFE5F
:1015B000FEF728FF04460CB100BFFEE70F200190A4
:1015C00002200290002003904FF4A05004904FF4AA
:1015D00080500590072101A8FFF7AEF904460CB131
:1015E00000BFFEE712B0BDE8F081000040380240C5
:1015F000007000401448006840F470001249086010
:101600001248006840F001001049086000200F49AE
:10161000083108600D4800680D4908400B49086012
:101620000C48091D0860081F006820F48020091F6D
:101630000860002005490C3108604FF00060024945
:10164000803908607047000088ED00E000380240F3
:10165000FFFFF6FE1030002470B500240F4D104837
:10166000FEF7D5FE00BF03E0641CAC4200D904E0E5
:101670000B48FEF7D1FE2028F6D100BF002403E07E
:10168000641CAC4200D906E0012206490448FEF77A
:10169000C8FE0028F4D100BF70BD0000FFFF0100AC
:1016A000EC0001200E00012000BF704710B5044679
:1016B0000420FFF7E1FC0148046010BD0400012094
:1016C00030B50446002504E04FF47A7000F004F8C9
:1016D0006D1CA542F8D330BD70B5034600224FF013
:1016E000E02675690D4E366803FB06F44FF0E026E0
:1016F000B16910E04FF0E026B06988420BD0884213
:1017000002D20E1A324402E02E1A0E44324401462E
:10171000A24200D300E0EDE700BF70BD040001204D
:1017200000BF054AD26902F04002002AF9D0C2B2D5
:10173000014B9A62704700000010014086B00024FF
:10174000FEF792FEFEF7FAFF0923022219214FF459
:10175000D870FFF7F3FED820FFF7A8FF4FF4E13071
:1017600000F0C2F8FEF762FEFEF765FE4FF4784027
:10177000494908604948828849A103A8FEF760FEEC
:1017800088E00C2C41D2DFE804F0060B0F13181D83
:1017900022272C31363B4FF6FF70FEF756FE34E021
:1017A0000020FEF752FE30E01F20FEF74EFE2CE038
:1017B0004FF47840FEF749FE27E04FF61F00FEF792
:1017C00044FE22E04FF4FC60FEF73FFE1DE047F6CA
:1017D000FF70FEF73AFE18E04FF6E070FEF735FEB8
:1017E00013E04FF60740FEF730FE0EE048F23040BF
:1017F000FEF72BFE09E04CF21860FEF726FE04E02F
:101800004BF64040FEF721FE00BF00BF4FF478408A
:101810002149086025A020210B464FF48272CDE9B2
:10182000001028210A20FEF715FE24A018210B46DF
:10183000F022CDE9001050210A20FEF70BFE22A075
:1018400010210B46F022CDE900106E210A20FEF790
:1018500001FE03A810210B46F022CDE900108221E1
:101860000A20FEF7F7FD1CA00C210B46F022CDE963
:10187000001096210A20FEF7EDFD601CC4B20C2C6E
:1018800000D1002402211748FEF736FF4FF47A708A
:10189000FFF716FF75E700001C000120B8010120CA
:1018A0004C43442049443A2530345800504F4C4171
:1018B0005249532053544D33320000005446544C87
:1018C000434420544553540041544F4D40414C49EA
:1018D000454E54454B000000323031392F352F3200
:1018E000340000000004024010B5044609480A49CB
:1018F00008600846446000218160C1600161816127
:101900000C214161FEF7ABFD012204490248FEF7BC
:1019100088FD10BD00100140EC0001200E000120E8
:101920004FF04070E1EE100A704700000000000028
:10193000000001020304060708090000000001027C
:1019400003040000641900080000012024000000C6
:10195000040200088819000824000120040800007F
:10196000200200080024F400000000000000000035
:101970000000000000000000100000000100000056
:08198000000000FFFFFFFFFF64
:0200000490006A
:10000000782900F04B800020704700000FB40449AD
:1000100010B503AA029800F081F910BC5DF814FB3A
:10002000080001200FB41CB5074B06AA7B446946A3
:100030000090059800F059F90020694600F068F931
:100040001CBC5DF814FB0000E102000070B5044622
:1000500085690068C10601D5302600E02026C0076A
:1000600007D070BDD4E9012130469047206A401C7A
:1000700020626D1EF6D570BD70B5044685690078A6
:10008000C00707D170BDD4E9012120209047206A24
:10009000401C20626D1EF6D570BD000070B5044690
:1000A0000D4621461068AFF300802188090502D56E
:1000B0000F4A7A4402E00E4A7A440E32002104F1DB
:1000C000240305E000F00F060009965D5E54491C0C
:1000D0000028F7D120780023000704D5702D02D026
:1000E00009B1022311322046BDE8704000F09EB8ED
:1000F000E88600002DE9F05F894604464FF0000ACB
:10010000DFF824B1FB44C0F820A02046E16888470E
:1001100000287DD0252806D0D4E901219047206A07
:10012000401C2062F1E700255F462046E1688847D1
:100130002028064607DB312E05D2B81910F8200C0E
:1001400008B10543F1E7A80701D525F00405C4F877
:100150001CA00027C4F818A02A2E09D0304603F0AE
:1001600077FF38B304EB8708303EC8F8186019E011
:1001700059F8041B204604EB87029161E168884727
:10018000012F064618D1E069002820DA25F0200565
:100190001DE0D8F8180000EB800006EB4000303876
:1001A000C8F818002046E1688847064603F050FF6B
:1001B0000028EED1012F0AD02E2E08D12046E1686A
:1001C00088477F1C0646022F45F02005C4DBA06946
:1001D000002803DA404245F00105A061E80701D09C
:1001E00025F01005A6B1A6F14100192802D8203645
:1001F00045F400654A463146204625604D46FFF7E6
:10020000FFFE60B1012807D0ED1D25F0070000E0DA
:1002100007E000F1080978E705F1040975E73046C1
:100220007AE7206ABDE8F09FBE8600002DE9F0471E
:100230000D4699469246044600F124080168880656
:1002400004D5E06921F01001216000E00120A842FE
:1002500001DD471B00E00027A1697A1902EB0900C4
:10026000081AA0612078C00602D42046FFF7EEFEEF
:10027000002608E0D4E901211AF806009047206A18
:10028000401C761C20624E45F4DB2078C0060AD55F
:100290002046FFF7DBFE06E0D4E90121302090473D
:1002A000206A401C2062381EA7F10107F4DC07E039
:1002B000D4E9012118F805009047206A401C20620B
:1002C000281EA5F10105F3DC2046FFF7D5FE2078B6
:1002D000000602D50220BDE8F0870120FBE7000000
:1002E00001694A1C02610878704700B58FB0CDE9FA
:1002F00001310021059105497944CDE903101146EA
:100300006846FFF7F7FE0FB000BD0000E5FFFFFFF6
:100310000A6802F8010B0A6070470000074B70B5CD
:100320000D467B44FFF7E1FF0446284600F008F83D
:1003300010B14FF0FF3070BD204670BDFB13007848
:10034000007B00F08000704740F2197CC0F6000C82
:10035000604740F2E14CC0F6000C604741F2D50C1A
:10036000C0F6000C604741F2C16CC0F6000C60475B
:1003700041F2D96CC0F6000C604740F20B7CC0F62D
:10038000000C604740F60D0CC0F6000C604740F2D0
:10039000B17CC0F6000C604740F6390CC0F6000C8A
:1003A000604740F2257CC0F6000C604741F2691CB2
:1003B000C0F6000C604740F6D52CC0F6000C604734
:1003C00040F6F52CC0F6000C604740F6153CC0F630
:1003D000000C604700BFFEE77047000070B50446A0
:1003E0001D460023B5F5804F13D154F822300C4838
:1003F0000340D1E9000640EA06108E6840EA062074
:100400008E8940EA06408E693043034344F8223027
:1004100003E06FF0704044F82200002070BD00003F
:100420000000F0CF10B502460023086852F82030D3
:100430001B480340D1E901042043CC6820430C69E8
:1004400020434C6920438C692043CC6920430C6ACB
:1004500020434C6A20438C6A2043CC6A20430C6BB7
:1004600020438C6B20434C6B20430343886808284F
:1004700001D143F04003086842F82030086BB0F522
:10048000801F05D1086818B110680C6B20431060FC
:10049000086818B110684C6B20431060002010BD34
:1004A0008004C0FF30B5034614460022601C53F898
:1004B000202002F04042D1E9000540EA05108D6895
:1004C00040EA05208D8940EA0545088A401E45EA34
:1004D0000055087D801E45EA00608D69284302436F
:1004E000601C43F82020186800F48010B0F5801FCD
:1004F00007D1586820F47002088A401E42EA005270
:100500005A60002030BD014691F83500022803D022
:100510008020486501207047052081F83500086873
:10052000006820F001000A6810600020F3E7000076
:1005300038B5002400BF2048006840F080501E49B4
:1005400008600846006800F08050009000BF00BFBF
:100550001A48006840F4803018490860FFF7F4FE3C
:10056000044607E0FFF7F0FE001BB0F57A7F01D9E3
:10057000032038BD1148406800F48030B0F5803F5A
:10058000F0D10E48006840F400300C490860FFF7D5
:10059000DBFE044607E0FFF7D7FE001BB0F57A7FCD
:1005A00001D90320E5E70548406800F40030B0F5C4
:1005B000003FF0D10020DCE74038024000700040EE
:1005C00070B504460E4615460CB9012070BD94F86E
:1005D000450028B9002084F84400204600F01CF8AB
:1005E00004F108012068FFF71DFF3146A26820686A
:1005F000FFF758FF2946E36AD4E90102FFF7EEFE50
:10060000A168206850F8210040F00100A26821682C
:1006100041F822000020D9E710B586B0044600BF9B
:100620002048006840F001001E4908600846006844
:1006300000F00100009000BF00BF00BF194808385B
:10064000006840F00800174908390860084600684B
:1006500000F00800009000BF00BF00BF084600681F
:1006600040F0100008600846006800F0100000909C
:1006700000BF00BF4EF2B370019002200290012033
:100680000390032004900C20059001A90648FFF771
:1006900060FE4FF68070019001A90448FFF759FEF3
:1006A00006B010BD38380240000C02400010024075
:1006B000704701464B6F8A6F43EA020070470000A3
:1006C0002DE9F04704462068C5692068066820685F
:1006D000876805F00F08B8F1000F0CD105F0200075
:1006E00048B106F0200030B1206E10B12046216ED6
:1006F0008847BDE8F087B8F1000F71D007F001001E
:1007000018B906F49070002879D005F0010048B1BE
:1007100006F4807030B1012021680862E06F40F07B
:100720000100E06705F0020048B107F0010030B1B8
:10073000022021680862E06F40F00400E06705F0E5
:10074000040048B107F0010030B1042021680862BC
:10075000E06F40F00200E06705F0080060B106F0CD
:10076000200010B907F0010030B1082021680862AC
:10077000E06F40F00800E067E06F80B305F0200014
:1007800038B106F0200020B1206E10B12046216E55
:100790008847D4F87C902068806800F040004028AA
:1007A00002D009F0080020B3204603F0BEF920680B
:1007B000806800F04000402817D12068806820F051
:1007C000400021688860E06E58B11948E16E086504
:1007D000E06EFFF798FE10B1E06E016D88470DE006
:1007E0000DE02046FFF764FF08E02046FFF760FFBA
:1007F00004E02046FFF75CFF0020E06779E705F0A2
:10080000800040B106F0800028B1606E10B1204633
:10081000616E88476DE705F0400030B106F040009A
:1008200018B1204603F092F963E700BF61E70000CA
:10083000133B009010B504460CB9012010BDA0690F
:1008400000B100E000BF606F28B9002084F870009C
:100850002046FFF783FD242060672068006820F0B1
:10086000010021680860204603F0EAF9012800D160
:10087000E4E7606A10B1204603F0ABF820684068F6
:1008800020F49040216848602068806820F02A00A9
:10089000216888602068006840F0010021680860D5
:1008A000204603F012F9C9E710B50346986F2028D7
:1008B00065D101B10AB9012010BD00BF93F87000E5
:1008C000012801D10220F7E7012083F8700000BF62
:1008D0005965A3F85820A3F85A200020186600BFD5
:1008E0009868B0F5805F0AD1186920B940F2FF100E
:1008F000A3F85C0020E0FF20A3F85C001CE09868EF
:1009000048B9186918B9FF20A3F85C0014E07F20EB
:10091000A3F85C0010E09868B0F1805F09D1186915
:1009200018B97F20A3F85C0006E03F20A3F85C0024
:1009300002E00020A3F85C0000BF0020D86722205E
:1009400098671868806840F001001C68A06098688B
:10095000B0F5805F04D1186910B90A48186601E043
:100960000948186600BF002083F8700000BF1868AF
:10097000006840F490701C68206000209CE7022012
:100980009AE700006D3B0090D93B0090704700BF94
:10099000FEE7000070B50446002609480588408837
:1009A00045430021084602F043FE02F0CDFF00BFA0
:1009B00002E004490C80761CAE42FAD370BD000000
:1009C000B80101200000086010B50446002C58D181
:1009D0005A498871F02008804FF4A070488008467A
:1009E000808849F2413188420BD05448808845F2D2
:1009F0001031884205D05148808847F28971884279
:100A000014D12C204D4908812A2048812B2088812F
:100A10000846808845F21031884206D14FF4A07014
:100A2000464908804FF4F070488083E0434880884E
:100A300045F21051884210D14FF430503F4908819F
:100A40004FF4285048814FF42C5088814FF4F070B7
:100A500008804FF4487048806CE03848808841F640
:100A60006311884266D12C20344908812B204881AB
:100A70002A2088814FF4F07008804FF44870488035
:100A800058E001202D4988714FF4A0700880F020B3
:100A900048800846808849F2413188420BD0274877
:100AA000808845F21031884205D02448808847F27A
:100AB0008971884207D12C20204908812A20488149
:100AC0002B20888129E01D48808845F210518842FA
:100AD00010D14FF43050194908814FF42850488103
:100AE0004FF42C5088814FF4487008804FF4F07018
:100AF000488012E01148808841F6631188420CD189
:100B00002C200E4908812A2048812B2088814FF40F
:100B1000487008804FF4F07048800848808845F29B
:100B20001031884206D14FF4F070044908804FF428
:100B3000A0704880002002F03BFC10BDB8010120ED
:100B400030B504460D464148808849F2413188421B
:100B50000BD03E48808845F21031884205D03B4892
:100B6000808847F28971884214D13849488902F057
:100B7000DFFE201202F0D0FEE0B202F0CDFE3349DB
:100B8000888902F0D5FE281202F0C6FEE8B202F013
:100B9000C3FE54E02D48808845F21051884220D190
:100BA0002A49488902F0C4FE201202F0B5FE274906
:100BB0004989491C88B202F0BBFEE0B202F0ACFEEB
:100BC0002249888902F0B4FE281202F0A5FE1F49CE
:100BD0008989491C88B202F0ABFEE8B202F09CFEA3
:100BE0002DE01A48808841F66311884227D11748C2
:100BF000807920B915480088401E001B84B2134933
:100C0000488902F095FE201202F086FEE0B202F062
:100C100083FE201202F080FEE0B202F07DFE0B495E
:100C2000888902F085FE281202F076FEE8B202F012
:100C300073FE281202F070FEE8B202F06DFE034867
:100C4000008903490880891C0A8030BDB801012051
:100C5000FEFF076000B595B000BFFE48006840F099
:100C60000200FC4908600846006800F0020001909C
:100C700000BF00BF2020109001201190129003208F
:100C8000139010A9F448FFF764FB02F037FB4FF014
:100C90002040F2490860F248486000208860002146
:100CA000EE48C16001611021416109024162890081
:100CB000C1620F20099000200A9050200B90002064
:100CC0000F900F200290002003900F20049000202E
:100CD000089002AA09A9E148FFF772FC3220FFF749
:100CE00042FBD32002F024FE02F030FBDD49888075
:100CF00002F02CFBDB49888002F028FBD949888070
:100D0000084680884FF6FF7101EA0020D5498880A7
:100D100002F01CFBD34989880843D24988800846E1
:100D2000808849F2413188427DD0042002F000FEE3
:100D300002F00CFBCB49888002F008FBC94988808F
:100D400002F004FBC7498880084680884FF6FF718F
:100D500001EA0020C349888002F0F8FAC149898875
:100D60000843C04988800846808848F2525188422A
:100D700003D147F28970BB498880BA48808847F21E
:100D800089718842D0D0D42002F0D2FD02F0DEFA80
:100D9000B449888002F0DAFAB249888002F0D6FAC3
:100DA000B0498880084680884FF6FF7101EA00202C
:100DB000AC49888002F0CAFAAA4989880843A9493F
:100DC00088800846808845F2103188426BD05521D2
:100DD0004FF4704002F0C2FDAA214FF2010002F070
:100DE000BDFD52214FF2020002F0B8FD08214FF282
:100DF000030002F0B3FD01214FF2040002F0AEFD4A
:100E00004FF4454002F094FD02F0A0FA9549888025
:100E1000084680884FF6FF7101EA002091498880DA
:100E20004CF2015000E03EE002F082FD02F08EFA4A
:100E30008C49898808438B4988800520FFF793FAFD
:100E400088488088B0F5004F03D145F2105085499D
:100E500088808448808845F21051884223D0A120A0
:100E600002F066FD02F072FA7E49888002F06EFAA6
:100E70007C498880084680884FF6FF7101EA00208F
:100E80007849888002F062FA764989880843754972
:100E900088800846808845F26171884203D141F616
:100EA0006310704988806F4881886FA0FFF7AEF8A3
:100EB0006C48808849F2413188427CD1CF2002F0D1
:100EC00037FD002002F028FDC12002F025FD302072
:100ED00002F022FDED2002F02BFD642002F01CFD4B
:100EE000032002F019FD122002F016FD812002F00D
:100EF00013FDE82002F01CFD852002F00DFD1020FE
:100F000002F00AFD7A2002F007FDCB2002F010FD6E
:100F1000392002F001FD2C2002F0FEFC002002F03E
:100F2000FBFC342002F0F8FC022002F0F5FCF72074
:100F300002F0FEFC202002F0EFFCEA2002F0F8FCB8
:100F4000002002F0E9FC002002F0E6FCC02002F0E4
:100F5000EFFC1B2002F0E0FCC12002F0E9FC0120C4
:100F600002F0DAFCC52002F0E3FC302002F0D4FCF1
:100F7000302002F0D1FCC72002F0DAFCB72002F0EA
:100F8000CBFC362002F0D4FC482002F0C5FC3A200D
:100F900002F0CEFC552002F0BFFCB12002F0C8FCEC
:100FA000002002F0B9FC1A2002F0B6FCB62002F0D4
:100FB000BFFC0A2000E0ACE002F0AEFCA22002F090
:100FC000ABFCF22002F0B4FC002002F0A5FC2620CD
:100FD00002F0AEFC012002F09FFCE02002F0A8FC31
:100FE0000F2002F099FC2A2002F096FC282002F043
:100FF00093FC082002F090FC0E2002F08DFC0820EB
:1010000002F08AFC542002F087FCA92002F084FC44
:10101000432002F081FC0A2002F07EFC0F2002F047
:101020007BFC002002F078FC002002F075FC002020
:1010300002F072FC002002F06FFCE12002F078FC6C
:10104000002002F069FC152002F066FC172002F077
:1010500063FC11E030380240000402406C010120C2
:10106000040100A0B8010120204C43442049443A27
:1010700025780D0A00000000072002F04DFC112029
:1010800002F04AFC062002F047FC2B2002F044FC50
:10109000562002F041FC3C2002F03EFC052002F00C
:1010A0003BFC102002F038FC0F2002F035FC3F2002
:1010B00002F032FC3F2002F02FFC0F2002F02CFC4B
:1010C0002B2002F035FC002002F026FC002002F06C
:1010D00023FC012002F020FC3F2002F01DFC2A200E
:1010E00002F026FC002002F017FC002002F014FCA5
:1010F000002002F011FCEF2002F00EFC112002F0A3
:1011000017FC7820FFF72FF9292002F011FC02F0DC
:10111000A6B8FE48808847F2897188427ED11120A6
:1011200002F006FC7820FFF71EF9362002F000FCE2
:10113000002002F0F1FB3A2002F0FAFB052002F059
:10114000EBFBB22002F0F4FB0C2002F0E5FB0C20DC
:1011500002F0E2FB002002F0DFFB332002F0DCFBB8
:10116000332002F0D9FBB72002F0E2FB352002F079
:10117000D3FBBB2002F0DCFB322002F0CDFBC02011
:1011800002F0D6FB0C2002F0C7FBC22002F0D0FB1D
:10119000012002F0C1FBC32002F0CAFB102002F0C4
:1011A000BBFBC42002F0C4FB202002F0B5FBC6202C
:1011B00002F0BEFB0F2002F0AFFBD02002F0B8FB24
:1011C000A42002F0A9FBA12002F0A6FBE02002F07F
:1011D000AFFBD02002F0A0FB002002F09DFB02201C
:1011E00002F09AFB072002F097FB0A2002F094FB22
:1011F000282002F091FB322002F08EFB442002F006
:101200008BFB422002F088FB062002F085FB0E20BB
:1012100002F082FB122002F07FFB00E054E0142079
:1012200002F07AFB172002F077FBE12002F080FB4E
:10123000D02002F071FB002002F06EFB022002F0D1
:101240006BFB072002F068FB0A2002F065FB2820F8
:1012500002F062FB312002F05FFB542002F05CFBE5
:10126000472002F059FB0E2002F056FB1C2002F032
:1012700053FB172002F050FB1B2002F04DFB1E20F9
:1012800002F04AFB2A2002F053FB002002F044FB4C
:10129000002002F041FB002002F03EFBEF2002F0B4
:1012A0003BFB2B2002F044FB002002F035FB00202A
:1012B00002F032FB012002F02FFB3F2002F02CFB5A
:1012C000292002F035FB22E79048808845F2103152
:1012D000884240F07C87ED2002F02AFB012002F0DA
:1012E0001BFBFE2002F018FBEE2002F021FBDE20AB
:1012F00002F012FB212002F00FFBF12002F018FB9C
:10130000012002F009FBDF2002F012FB102002F0A6
:1013100003FBC42002F00CFB8F2002F0FDFAC62074
:1013200002F006FB002002F0F7FAE22002F0F4FAE5
:10133000E22002F0F1FAE22002F0EEFABF2002F021
:10134000F7FAAA2002F0E8FAB02002F0F1FA0D2034
:1013500002F0E2FA002002F0DFFA0D2002F0DCFADF
:10136000002002F0D9FA112002F0D6FA002002F093
:10137000D3FA192002F0D0FA002002F0CDFA212091
:1013800002F0CAFA002002F0C7FA2D2002F0C4FAD7
:10139000002002F0C1FA3D2002F0BEFA002002F067
:1013A000BBFA5D2002F0B8FA002002F0B5FA5D2029
:1013B00002F0B2FA002002F0AFFAB12002F0B8FA5F
:1013C000802002F0A9FA002002F0A6FA8B2002F099
:1013D000A3FA002002F0A0FA962002F09DFA002065
:1013E00002F09AFAB22002F0A3FA002002F094FA76
:1013F000002002F091FA022002F08EFA002002F0A2
:101400008BFA032002F088FA002002F085FAB3205C
:1014100002F08EFA002002F07FFA002002F07CFA3F
:10142000002002F079FA002002F076FA002002F0A3
:1014300073FA002002F070FA002002F06DFA00202A
:1014400002F06AFA002002F067FA002002F064FA63
:10145000002002F061FA002002F05EFA002002F0A3
:101460005BFA002002F058FA002002F055FA002042
:1014700002F052FA002002F04FFA002002F04CFA7B
:10148000002002F049FA002002F046FA002002F0A3
:1014900043FA002002F040FA002002F03DFA00205A
:1014A00002F03AFAB42002F043FA8B2002F034FA48
:1014B000002002F031FA962002F02EFA002002F00D
:1014C0002BFAA12002F028FA002002F025FAB5201C
:1014D00002F02EFA022002F01FFA002002F01CFA9D
:1014E000032002F019FA002002F016FA042002F09C
:1014F00013FA002002F010FAB62002F019FA0020C8
:1015000002F00AFA002002F007FA01E0B801012017
:10151000B72002F00DFA002002F0FEF9002002F0E0
:10152000FBF93F2002F0F8F9002002F0F5F95E2007
:1015300002F0F2F9002002F0EFF9642002F0ECF979
:10154000002002F0E9F98C2002F0E6F9002002F018
:10155000E3F9AC2002F0E0F9002002F0DDF9DC2034
:1015600002F0DAF9002002F0D7F9702002F0D4F985
:10157000002002F0D1F9902002F0CEF9002002F014
:10158000CBF9EB2002F0C8F9002002F0C5F9DC200D
:1015900002F0C2F9002002F0BFF9B82002F0C8F949
:1015A000002002F0B9F9002002F0B6F9002002F0A4
:1015B000B3F9002002F0B0F9002002F0ADF90020EC
:1015C00002F0AAF9002002F0A7F9002002F0A4F925
:1015D000BA2002F0ADF9242002F09EF9002002F0BA
:1015E0009BF9002002F098F9002002F095F9C12043
:1015F00002F09EF9202002F08FF9002002F08CF911
:10160000542002F089F9002002F086F9FF2002F050
:1016100083F9002002F080F9C22002F089F90A2043
:1016200002F07AF9002002F077F9042002F074F950
:10163000002002F071F9C32002F07AF93C2002F098
:101640006BF9002002F068F93A2002F065F90020F9
:1016500002F062F9392002F05FF9002002F05CF933
:10166000372002F059F9002002F056F93C2002F030
:1016700053F9002002F050F9362002F04DF9002015
:1016800002F04AF9322002F047F9002002F044F952
:101690002F2002F041F9002002F03EF92C2002F048
:1016A0003BF9002002F038F9292002F035F900203A
:1016B00002F032F9262002F02FF9002002F02CF976
:1016C000242002F029F9002002F026F9242002F05B
:1016D00023F9002002F020F9232002F01DF9002058
:1016E00002F01AF93C2002F017F9002002F014F978
:1016F000362002F011F9002002F00EF9322002F03B
:101700000BF9002002F008F92F2002F005F9002063
:1017100002F002F92C2002F0FFF8002002F0FCF8A1
:10172000292002F0F9F8002002F0F6F8262002F055
:10173000F3F8002002F0F0F8242002F0EDF8002089
:1017400002F0EAF8242002F0E7F8002002F0E4F8C2
:10175000232002F0E1F8002002F0DEF8C42002F0BD
:10176000E7F8622002F0D8F8002002F0D5F8052052
:1017700002F0D2F8002002F0CFF8842002F0CCF87A
:10178000002002F0C9F8F02002F0C6F8002002F0B4
:10179000C3F8182002F0C0F8002002F0BDF8A42021
:1017A00002F0BAF8002002F0B7F8182002F0B4F8FE
:1017B000002002F0B1F8502002F0AEF8002002F054
:1017C000ABF80C2002F0A8F8002002F0A5F81720D2
:1017D00002F0A2F8002002F09FF8952002F09CF899
:1017E000002002F099F8F32002F096F8002002F0B1
:1017F00093F8E62002F090F8002002F08DF8C52062
:1018000002F096F8322002F087F8002002F084F807
:10181000442002F081F8002002F07EF8652002F0FA
:101820007BF8002002F078F8762002F075F80020AE
:1018300002F072F8882002F06FF8002002F06CF8D5
:10184000C62002F075F8202002F066F8002002F0B1
:1018500063F8172002F060F8002002F05DF8012024
:1018600002F05AF8002002F057F8C72002F060F8A2
:10187000002002F051F8002002F04EF8002002F0A3
:101880004BF8002002F048F8C82002F051F8002080
:1018900002F042F8002002F03FF8002002F03CF88D
:1018A000002002F039F8C92002F042F8002002F0CE
:1018B00033F8002002F030F8002002F02DF800206C
:1018C00002F02AF8002002F027F8002002F024F8A5
:1018D000002002F021F8002002F01EF8002002F0A3
:1018E0001BF8002002F018F8002002F015F8002084
:1018F00002F012F8002002F00FF8002002F00CF8BD
:10190000002002F009F8002002F006F8E02002F0C2
:101910000FF8162002F000F8002001F0FDFF1C2057
:1019200001F0FAFF002001F0F7FF212001F0F4FFA1
:10193000002001F0F1FF362001F0EEFF002001F061
:10194000EBFF462001F0E8FF002001F0E5FF522008
:1019500001F0E2FF002001F0DFFF642001F0DCFF76
:10196000002001F0D9FF7A2001F0D6FF002001F01D
:10197000D3FF8B2001F0D0FF002001F0CDFF992094
:1019800001F0CAFF002001F0C7FFA82001F0C4FF4A
:10199000002001F0C1FFB92001F0BEFF002001F0DE
:1019A000BBFFC42001F0B8FF002001F0B5FFCA2042
:1019B00001F0B2FF002001F0AFFFD22001F0ACFF38
:1019C000002001F0A9FFD92001F0A6FF002001F0BE
:1019D000A3FFE02001F0A0FF002001F09DFFF32015
:1019E00001F09AFF002001F097FFE12001F0A0FF35
:1019F000162001F091FF002001F08EFF1C2001F065
:101A00008BFF002001F088FF222001F085FF0020DD
:101A100001F082FF362001F07FFF002001F07CFF03
:101A2000452001F079FF002001F076FF522001F0FF
:101A300073FF002001F070FF642001F06DFF0020B3
:101A400001F06AFF7A2001F067FF002001F064FFD7
:101A50008B2001F061FF002001F05EFF992001F072
:101A60005BFF002001F058FFA82001F055FF002087
:101A700001F052FFB92001F04FFF002001F04CFFB0
:101A8000C42001F049FF002001F046FFCA2001F008
:101A900043FF002001F040FFD22001F03DFF002075
:101AA00001F03AFFD82001F037FF002001F034FFA9
:101AB000E02001F031FF002001F02EFFF32001F0C3
:101AC0002BFF002001F028FFE22001F031FF05206C
:101AD00001F022FF002001F01FFF0B2001F01CFF8E
:101AE000002001F019FF1B2001F016FF002001F07B
:101AF00013FF342001F010FF002001F00DFF4420FF
:101B000001F00AFF002001F007FF4F2001F004FF61
:101B1000002001F001FF612001F0FEFE002001F035
:101B2000FBFE792001F0F8FE002001F0F5FE882090
:101B300001F0F2FE002001F0EFFE972001F0ECFE34
:101B4000002001F0E9FEA62001F0E6FE002001F0F1
:101B5000E3FEB72001F0E0FE002001F0DDFEC22030
:101B600001F0DAFE002001F0D7FEC72001F0D4FE1C
:101B7000002001F0D1FED12001F0CEFE002001F0C6
:101B8000CBFED62001F0C8FE002001F0C5FEDD200E
:101B900001F0C2FE002001F0BFFEF32001F0BCFE08
:101BA000002001F0B9FEE32001F0C2FE052001F0A3
:101BB000B3FE002001F0B0FE0A2001F0ADFE0020CF
:101BC00001F0AAFE1C2001F0A7FE002001F0A4FEF7
:101BD000332001F0A1FE002001F09EFE442001F020
:101BE0009BFE002001F098FE502001F095FE0020A1
:101BF00001F092FE622001F08FFE002001F08CFEC9
:101C0000782001F089FE002001F086FE882001F096
:101C100083FE002001F080FE972001F07DFE002071
:101C200001F07AFEA62001F077FE002001F074FE9C
:101C3000B72001F071FE002001F06EFEC22001F01D
:101C40006BFE002001F068FEC72001F065FE002059
:101C500001F062FED12001F05FFE002001F05CFE89
:101C6000D52001F059FE002001F056FEDD2001F0E4
:101C700053FE002001F050FEF32001F04DFE002045
:101C800001F04AFEE42001F053FE012001F044FE81
:101C9000002001F041FE012001F03EFE002001F095
:101CA0003BFE022001F038FE002001F035FE2A2024
:101CB00001F032FE002001F02FFE3C2001F02CFE4E
:101CC000002001F029FE4B2001F026FE002001F04B
:101CD00023FE5D2001F020FE002001F01DFE742097
:101CE00001F01AFE002001F017FE842001F014FE1E
:101CF000002001F011FE932001F00EFE002001F003
:101D00000BFEA22001F008FE002001F005FEB3202A
:101D100001F002FE002001F0FFFDBE2001F0FCFDFD
:101D2000002001F0F9FDC42001F0F6FD002001F0D3
:101D3000F3FDCD2001F0F0FD002001F0EDFDD320FA
:101D400001F0EAFD002001F0E7FDDD2001F0E4FDF7
:101D5000002001F0E1FDF32001F0DEFD002001F0A4
:101D6000DBFDE52001F0E4FD002001F0D5FD0020C1
:101D700001F0D2FD002001F0CFFD002001F0CCFDEC
:101D8000022001F0C9FD002001F0C6FD292001F06C
:101D9000C3FD002001F0C0FD3C2001F0BDFD00208E
:101DA00001F0BAFD4B2001F0B7FD002001F0B4FDB9
:101DB0005D2001F0B1FD002001F0AEFD742001F0C6
:101DC000ABFD002001F0A8FD842001F0A5FD00205E
:101DD00001F0A2FD932001F09FFD002001F09CFD89
:101DE000A22001F099FD002001F096FDB32001F042
:101DF00093FD002001F090FDBE2001F08DFD00203C
:101E000001F08AFDC42001F087FD002001F084FD6F
:101E1000CD2001F081FD002001F07EFDD32001F0F6
:101E20007BFD002001F078FDDC2001F075FD002035
:101E300001F072FDF32001F06FFD002001F06CFD58
:101E4000E62001F075FD112001F066FD002001F093
:101E500063FD342001F060FD002001F05DFD56209F
:101E600001F05AFD002001F057FD762001F054FDED
:101E7000002001F051FD772001F04EFD002001F01F
:101E80004BFD662001F048FD002001F045FD882053
:101E900001F042FD002001F03FFD992001F03CFDE2
:101EA000002001F039FDBB2001F036FD002001F0DB
:101EB00033FD992001F030FD002001F02DFD66205A
:101EC00001F02AFD002001F027FD552001F024FD3E
:101ED000002001F021FD552001F01EFD002001F041
:101EE0001BFD452001F018FD002001F015FD4320E9
:101EF00001F012FD002001F00FFD442001F00CFD67
:101F0000002001F009FDE72001F012FD322001F070
:101F100003FD002001F000FD552001F0FDFC002034
:101F200001F0FAFC762001F0F7FC002001F0F4FC4F
:101F3000662001F0F1FC002001F0EEFC672001F0CA
:101F4000EBFC002001F0E8FC672001F0E5FC00203C
:101F500001F0E2FC872001F0DFFC002001F0DCFC56
:101F6000992001F0D9FC002001F0D6FCBB2001F043
:101F7000D3FC002001F0D0FC992001F0CDFC002022
:101F800001F0CAFC772001F0C7FC002001F0C4FC7E
:101F9000442001F0C1FC002001F0BEFC562001F0FD
:101FA000BBFC002001F0B8FC232001F0B5FC0020B0
:101FB00001F0B2FC332001F0AFFC002001F0ACFCDA
:101FC000452001F0A9FC002001F0A6FCE82001F06A
:101FD000AFFC002001F0A0FC002001F09DFC992046
:101FE00001F09AFC002001F097FC872001F094FC9E
:101FF000002001F091FC882001F08EFC002001F00F
:102000008BFC772001F088FC002001F085FC662025
:1020100001F082FC002001F07FFC882001F07CFCB4
:10202000002001F079FCAA2001F076FC002001F0EC
:1020300073FCBB2001F070FC002001F06DFC9920C6
:1020400001F06AFC002001F067FC662001F064FCEE
:10205000002001F061FC552001F05EFC002001F041
:102060005BFC552001F058FC002001F055FC442099
:1020700001F052FC002001F04FFC442001F04CFC28
:10208000002001F049FC552001F046FC002001F041
:1020900043FCE92001F04CFCAA2001F03DFC0020AB
:1020A00001F03AFC002001F037FC002001F034FC84
:1020B000002001F03DFCAA2001F02EFCCF2001F011
:1020C00037FC002001F028FC002001F025FC002056
:1020D00001F022FC002001F01FFC002001F01CFC9C
:1020E000002001F019FC002001F016FC002001F096
:1020F00013FC002001F010FC002001F00DFC00207A
:1021000001F00AFC002001F007FC002001F004FCB3
:10211000002001F001FC002001F0FEFB002001F096
:10212000FBFB002001F0F8FBF02001F001FC002097
:1021300001F0F2FB502001F0EFFB002001F0ECFB7E
:10214000002001F0E9FB002001F0E6FBF32001F0A4
:10215000EFFB002001F0E0FBF92001F0E9FB062095
:1021600001F0DAFB102001F0D7FB292001F0D4FBAD
:10217000002001F0D1FB3A2001F0DAFB552001F0FC
:10218000CBFB112001F0D4FB6420FEF7ECF82920F2
:1021900001F0CEFB352001F0CBFB002001F0BCFBB1
:1021A000512001F0C5FBFF2001F0B6FB532001F0E8
:1021B000BFFB2C2001F0B0FB552001F0B9FB8220C1
:1021C00001F0AAFB2C2001F0B3FB01F048B8FE4857
:1021D000808845F2105188427ED155214FF47040DD
:1021E00001F0BCFBAA214FF2010001F0B7FB522124
:1021F0004FF2020001F0B2FB08214FF2030001F0A0
:10220000ADFB01214FF2040001F0A8FB0D214FF4BA
:10221000304001F0A3FB0D214BF2010001F09EFBC9
:102220000D214BF2020001F099FB34214FF43640AE
:1022300001F094FB34214BF2016001F08FFB34215B
:102240004BF2026001F08AFB0D214FF4314001F0A6
:1022500085FB0D214BF2011001F080FB0D214BF2AB
:10226000021001F07BFB34214FF4374001F076FB84
:1022700034214BF2017001F071FB34214BF20270FA
:1022800001F06CFB00214FF4324001F067FB0021AC
:102290004BF2012001F062FB00214BF2022001F021
:1022A0005DFB24214FF4384001F058FB24214BF60C
:1022B000010001F053FB24214BF6020001F04EFB1C
:1022C00001214FF43F4001F049FB0F214FF433400F
:1022D00001F044FB0F2100E0FEE34BF2013001F07E
:1022E0003DFB0F214BF2023001F038FB34214FF45B
:1022F000394001F033FB34214BF6011001F02EFB85
:1023000034214BF6021001F029FB08214FF435402F
:1023100001F024FB08214BF2015001F01FFB0821C2
:102320004BF2025001F01AFB03214FF4424001F03E
:1023300015FB24214FF43A4001F010FB24214BF609
:10234000012001F00BFB24214BF6022001F006FBDB
:1023500000214FF43C4001F001FB78214BF6014095
:1023600001F0FCFA00214BF6024001F0F7FA0021DF
:102370004FF43D4001F0F2FA78214BF6015001F0A4
:10238000EDFA00214BF6025001F0E8FA00214FF47B
:102390003E4001F0E3FA64214BF6016001F0DEFA01
:1023A00000214FF4514001F0D9FA33214DF20110D0
:1023B00001F0D4FA00214DF2021001F0CFFA3421DD
:1023C0004DF2031001F0CAFA00214DF2041001F0A1
:1023D000C5FA3A214DF2051001F0C0FA00214DF284
:1023E000061001F0BBFA4A214DF2071001F0B6FACF
:1023F00000214DF2081001F0B1FA5C214DF20910F4
:1024000001F0ACFA00214DF20A1001F0A7FA812187
:102410004DF20B1001F0A2FA00214DF20C1001F068
:102420009DFAA6214DF20D1001F098FA00214DF20F
:102430000E1001F093FAE5214DF20F1001F08EFA23
:1024400001214DF2101001F089FA13214DF2111003
:1024500001F084FA01214DF2121001F07FFA5421AB
:102460004DF2131001F07AFA01214DF2141001F02F
:1024700075FA82214DF2151001F070FA01214DF22A
:10248000161001F06BFACA214DF2171001F066FA2E
:1024900002214DF2181001F061FA00214DF21910DD
:1024A00001F05CFA02214DF21A1001F057FA0121F5
:1024B0004DF21B1001F052FA02214DF21C1001F0F6
:1024C0004DFA34214DF21D1001F048FA02214DF26F
:1024D0001E1001F043FA67214DF21F1001F03EFA81
:1024E00002214DF2201001F039FA84214DF2211021
:1024F00001F034FA02214DF2221001F02FFAA4214A
:102500004DF2231001F02AFA02214DF2241001F0BD
:1025100025FAB7214DF2251001F020FA02214DF2E3
:10252000261001F01BFACF214DF2271001F016FA08
:1025300002214DF2281001F011FADE214DF229108E
:1025400001F00CFA02214DF22A1001F007FAF221F3
:102550004DF22B1001F002FA02214DF22C1001F085
:10256000FDF9FE214DF22D1001F0F8F903214DF295
:102570002E1001F0F3F910214DF22F1001F0EEF9B9
:1025800003214DF2301001F0E9F933214DF2311001
:1025900001F0E4F903214DF2321001F0DFF96D2171
:1025A0004DF2331001F0DAF900214FF4524001F0FE
:1025B000D5F933214DF2012001F0D0F900214DF27F
:1025C000022001F0CBF901E0B801012034214DF2E5
:1025D000032001F0C3F900214DF2042001F0BEF9FF
:1025E0003A214DF2052001F0B9F900214DF2062003
:1025F00001F0B4F94A214DF2072001F0AFF90021B2
:102600004DF2082001F0AAF95C214DF2092001F0F9
:10261000A5F900214DF20A2001F0A0F981214DF227
:102620000B2001F09BF900214DF20C2001F096F9EE
:10263000A6214DF20D2001F091F900214DF20E205E
:1026400001F08CF9E5214DF20F2001F087F901210D
:102650004DF2102001F082F913214DF2112001F00A
:102660007DF901214DF2122001F078F954214DF24B
:10267000132001F073F901214DF2142001F06EF9DD
:1026800082214DF2152001F069F901214DF2162049
:1026900001F064F9CA214DF2172001F05FF902211F
:1026A0004DF2182001F05AF900214DF2192001F0E5
:1026B00055F902214DF21A2001F050F901214DF295
:1026C0001B2001F04BF902214DF21C2001F046F9CC
:1026D00034214DF21D2001F041F902214DF21E205E
:1026E00001F03CF967214DF21F2001F037F902217A
:1026F0004DF2202001F032F984214DF2212001F029
:102700002DF902214DF2222001F028F9A4214DF2E9
:10271000232001F023F902214DF2242001F01EF9BB
:10272000B7214DF2252001F019F902214DF22620A2
:1027300001F014F9CF214DF2272001F00FF9022109
:102740004DF2282001F00AF9DE214DF2292001F096
:1027500005F902214DF22A2001F000F9F2214DF293
:102760002B2001F0FBF802214DF22C2001F0F6F8AD
:10277000FE214DF22D2001F0F1F803214DF22E2023
:1027800001F0ECF810214DF22F2001F0E7F80321C1
:102790004DF2302001F0E2F833214DF2312001F00A
:1027A000DDF803214DF2322001F0D8F86D214DF211
:1027B000332001F0D3F800214FF4534001F0CEF85C
:1027C00033214DF2013001F0C9F800214DF2023001
:1027D00001F0C4F834214DF2033001F0BFF80021BC
:1027E0004DF2043001F0BAF83A214DF2053001F013
:1027F000B5F800214DF2063001F0B0F84A214DF253
:10280000073001F0ABF800214DF2083001F0A6F8D6
:102810005C214DF2093001F0A1F800214DF20A309F
:1028200001F09CF881214DF20B3001F097F8002166
:102830004DF20C3001F092F8A6214DF20D3001F06E
:102840008DF800214DF20E3001F088F8E5214DF2AF
:102850000F3001F083F801214DF2103001F07EF8C5
:1028600013214DF2113001F079F801214DF21230AF
:1028700001F074F854214DF2133001F06FF801218A
:102880004DF2143001F06AF882214DF2153001F05A
:1028900065F801214DF2163001F060F8CA214DF2C1
:1028A000173001F05BF802214DF2183001F056F8B4
:1028B00000214DF2193001F051F802214DF21A3089
:1028C00001F04CF801214DF21B3001F047F80221D4
:1028D0004DF21C3001F042F834214DF21D3001F070
:1028E0003DF802214DF21E3001F038F867214DF21B
:1028F0001F3001F033F802214DF2203001F02EF8A4
:1029000084214DF2213001F029F802214DF22230CC
:1029100001F024F8A4214DF2233001F01FF8022128
:102920004DF2243001F01AF8B7214DF2253001F0B4
:1029300015F802214DF2263001F010F8CF214DF2AA
:10294000273001F00BF802214DF2283001F006F893
:10295000DE214DF2293001F001F802214DF22A303A
:1029600000F0FCFFF2214DF22B3000F0F7FF0221C6
:102970004DF22C3000F0F2FFFE214DF22D3000F030
:10298000EDFF03214DF22E3000F0E8FF10214DF253
:102990002F3000F0E3FF03214DF2303000F0DEFF76
:1029A00033214DF2313000F0D9FF03214DF23230A6
:1029B00000F0D4FF6D214DF2333000F0CFFF002145
:1029C0004FF4544000F0CAFF33214DF2014000F0B3
:1029D000C5FF00214DF2024000F0C0FF34214DF24E
:1029E000034000F0BBFF00214DF2044000F0B6FFB1
:1029F0003A214DF2054000F0B1FF00214DF20640B2
:102A000000F0ACFF4A214DF2074000F0A7FF002183
:102A10004DF2084000F0A2FF5C214DF2094000F0A9
:102A20009DFF00214DF20A4000F098FF81214DF2F8
:102A30000B4000F093FF00214DF20C4000F08EFFA0
:102A4000A6214DF20D4000F089FF00214DF20E400D
:102A500000F084FFE5214DF20F4000F07FFF0121DF
:102A60004DF2104000F07AFF13214DF2114000F0BA
:102A700075FF01214DF2124000F070FF54214DF21C
:102A8000134000F06BFF01214DF2144000F066FF8F
:102A900082214DF2154000F061FF01214DF21640F8
:102AA00000F05CFFCA214DF2174000F057FF0221F1
:102AB0004DF2184000F052FF00214DF2194000F095
:102AC0004DFF02214DF21A4000F048FF01214DF266
:102AD0001B4000F043FF00E003E302214DF21C40E5
:102AE00000F03CFF34214DF21D4000F037FF022181
:102AF0004DF21E4000F032FF67214DF21F4000F002
:102B00002DFF02214DF2204000F028FF84214DF2DC
:102B1000214000F023FF02214DF2224000F01EFF71
:102B2000A4214DF2234000F019FF02214DF2244070
:102B300000F014FFB7214DF2254000F00FFF0221F5
:102B40004DF2264000F00AFFCF214DF2274000F061
:102B500005FF02214DF2284000F000FFDE214DF27A
:102B6000294000F0FBFE02214DF22A4000F0F6FE63
:102B7000F2214DF22B4000F0F1FE02214DF22C40EB
:102B800000F0ECFEFE214DF22D4000F0E7FE0321A7
:102B90004DF22E4000F0E2FE10214DF22F4000F0E9
:102BA000DDFE03214DF2304000F0D8FE33214DF21E
:102BB000314000F0D3FE03214DF2324000F0CEFE52
:102BC0006D214DF2334000F0C9FE00214FF4554015
:102BD00000F0C4FE33214DF2015000F0BFFE002191
:102BE0004DF2025000F0BAFE34214DF2035000F0D5
:102BF000B5FE00214DF2045000F0B0FE3A214DF236
:102C0000055000F0ABFE00214DF2065000F0A6FE8C
:102C10004A214DF2075000F0A1FE00214DF208506C
:102C200000F09CFE5C214DF2095000F097FE00215F
:102C30004DF20A5000F092FE81214DF20B5000F04F
:102C40008DFE00214DF20C5000F088FEA6214DF2C1
:102C50000D5000F083FE00214DF20E5000F07EFE7C
:102C6000E5214DF20F5000F079FE01214DF2105098
:102C700000F074FE13214DF2115000F06FFE01219F
:102C80004DF2125000F06AFE54214DF2135000F044
:102C900065FE01214DF2145000F060FE82214DF2DC
:102CA000155000F05BFE01214DF2165000F056FE6B
:102CB000CA214DF2175000F051FE02214DF218507A
:102CC00000F04CFE00214DF2195000F047FE0221A9
:102CD0004DF21A5000F042FE01214DF21B5000F05F
:102CE0003DFE02214DF21C5000F038FE34214DF221
:102CF0001D5000F033FE02214DF21E5000F02EFE5A
:102D000067214DF21F5000F029FE02214DF22050A4
:102D100000F024FE84214DF2215000F01FFE02211C
:102D20004DF2225000F01AFEA4214DF2235000F083
:102D300015FE02214DF2245000F010FEB7214DF295
:102D4000255000F00BFE02214DF2265000F006FE49
:102D5000CF214DF2275000F001FE02214DF2285004
:102D600000F0FCFDDE214DF2295000F0F7FD0221BC
:102D70004DF22A5000F0F2FDF2214DF22B5000F0FE
:102D8000EDFD02214DF22C5000F0E8FDFE214DF248
:102D90002D5000F0E3FD03214DF22E5000F0DEFD3A
:102DA00010214DF22F5000F0D9FD03214DF230508B
:102DB00000F0D4FD33214DF2315000F0CFFD03215E
:102DC0004DF2325000F0CAFD6D214DF2335000F04B
:102DD000C5FD00214FF4564000F0C0FD33214DF2F7
:102DE000016000F0BBFD00214DF2026000F0B6FD75
:102DF00034214DF2036000F0B1FD00214DF204607A
:102E000000F0ACFD3A214DF2056000F0A7FD002175
:102E10004DF2066000F0A2FD4A214DF2076000F07D
:102E20009DFD00214DF2086000F098FD5C214DF2FF
:102E3000096000F093FD00214DF20A6000F08EFD64
:102E400081214DF20B6000F089FD00214DF20C60F4
:102E500000F084FDA6214DF20D6000F07FFD002101
:102E60004DF20E6000F07AFDE5214DF20F6000F0AA
:102E700075FD01214DF2106000F070FD13214DF23F
:102E8000116000F06BFD01214DF2126000F066FD53
:102E900054214DF2136000F061FD01214DF21460E8
:102EA00000F05CFD82214DF2156000F057FD01211C
:102EB0004DF2166000F052FDCA214DF2176000F08D
:102EC0004DFD02214DF2186000F048FD00214DF249
:102ED000196000F043FD02214DF21A6000F03EFD42
:102EE00001214DF21B6000F039FD02214DF21C6002
:102EF00000F034FD34214DF21D6000F02FFD022161
:102F00004DF21E6000F02AFD67214DF21F6000F0B7
:102F100025FD02214DF2206000F020FD84214DF2BC
:102F2000216000F01BFD02214DF2226000F016FD31
:102F3000A4214DF2236000F011FD02214DF2246026
:102F400000F00CFDB7214DF2256000F007FD0221D5
:102F50004DF2266000F002FDCF214DF2276000F017
:102F6000FDFC02214DF2286000F0F8FCDE214DF25C
:102F7000296000F0F3FC02214DF22A6000F0EEFC23
:102F8000F2214DF22B6000F0E9FC02214DF22C60A1
:102F900000F0E4FCFE214DF22D6000F0DFFC032187
:102FA0004DF22E6000F0DAFC10214DF22F6000F09F
:102FB000D5FC03214DF2306000F0D0FC33214DF2FE
:102FC000316000F0CBFC03214DF2326000F0C6FC12
:102FD0006D214DF2336000F0C1FC55214FF470407B
:102FE00000F0BCFCAA214FF2010000F0B7FC522116
:102FF0004FF2020000F0B2FC08214FF2030000F093
:10300000ADFC00214FF2040000F0A8FCCC214FF4ED
:10301000314000F0A3FC00214BF2011000F09EFCB7
:1030200005214FF4364000F099FC70214FF43740F1
:1030300000F094FC70214BF2017000F08FFC012134
:103040004FF4384000F08AFC03214BF6010000F0F9
:1030500085FC03214BF6020000F080FC03214BF6B7
:10306000030000F07BFC02214FF43C4000F076FCB2
:1030700000214BF6014000F071FC00214BF60240AC
:1030800000F06CFCD0214FF4494000F067FC0221B5
:103090004CF6011000F062FC50214CF6021000F0DA
:1030A0005DFC50214CF6031000F058FC50214CF60A
:1030B000041000F053FC00214FF4545000F04EFC7B
:1030C00055214FF4685000F049FC4FF4885000F04F
:1030D0002FFC7820FDF74CF94FF4245000F028FC29
:1030E000BDE08348808841F663118842F8D1E22030
:1030F00000F01EFC1D2000F00FFC022000F00CFC74
:10310000042000F009FC6420FDF732F9E02000F013
:103110000FFC012000F000FC0A20FDF724F9E0205C
:1031200000F006FC032000F0F7FB0C20FDF71BF974
:10313000012000F0FDFB0A20FDF715F9E62000F064
:10314000F7FB2F2000F0E8FBFF2000F0E5FBFF205D
:1031500000F0E2FBB02000F0EBFB202000F0DCFBF5
:10316000002000F0D9FB032000F0D6FB40F21F3016
:1031700000F0D2FB012000F0CFFB40F2DF1000F0A6
:10318000CBFB002000F0C8FBB42000F0D1FB0420F2
:1031900000F0C2FB40F21F4000F0BEFB002000F038
:1031A000BBFB2E2000F0B8FB002000F0B5FB002098
:1031B00000F0B2FB002000F0AFFB002000F0ACFB01
:1031C000B62000F0B5FB022000F0A6FB4FF4037020
:1031D00000F0A2FB002000F09FFB172000F09CFBFA
:1031E000152000F099FB002000F096FB002000F075
:1031F00093FBF02000F09CFB032000F08DFB2920C6
:1032000000F096FBD02000F093FB002000F084FB40
:10321000BE2000F08DFB052000F07EFBFE2000F0BC
:103220007BFB012000F078FB002000F075FB002004
:1032300000F072FB002000F06FFBB82000F078FB7C
:10324000032000F069FB012000F066FBBA2000F0CB
:103250006FFB012000F060FB642000F081F824483F
:10326000808849F24131884217D02148808845F250
:103270001031884211D01E48808845F21051884292
:103280000BD01B48808841F66311884205D018484E
:10329000808847F2897188421CD11648006820F066
:1032A0000F004FF02041C1F804010846D0F8040196
:1032B00020F47060C1F804010846D0F8040140F021
:1032C0000500C1F804010846D0F8040140F4A060EC
:1032D000C1F804010020FDF777FB012220210648F8
:1032E000FDF74BF84FF6FF70FDF754FB15B000BD2E
:1032F000B8010120040100A0000402401FB5FDF741
:1033000041F801208DF8000000208DF801004FF0F9
:10331000C04001901B208DF8080000208DF80900A6
:103320008DF80A0003208DF80B0000208DF80C00AA
:103330008DF80D008DF80E0001208DF80F00684605
:10334000FDF725F80420FDF727F81FBD08B5034851
:1033500000880090BDF8000008BD00000000086073
:1033600000B50246BE2000F0E3FA052000F0D4FAD2
:1033700000EE102AB8EE400B9FED0B1B20EE010B68
:10338000BCEEC00B10EE101A88B200F0C5FA012096
:1033900000F0C2FAFF2000F0BFFA002000F0BCFAF3
:1033A000002000F0B9FA00BD6666666666660440F5
:1033B000F0B50546002400279C488079012805D1F6
:1033C0009A48808841F66311884208D197488079ED
:1033D000F0B99648808841F66311884218D1082DCB
:1033E00015D2DFE805F00406080A0C0E10120625B7
:1033F0000DE007250BE0042509E0052507E0012580
:1034000005E0002503E0032501E0022500BF00BF21
:103410008648808849F24131884217D083488088A5
:1034200045F21031884211D08048808845F2105111
:1034300088420BD07D48808841F66311884205D0D0
:103440007A48808847F2897188427DD1082D1CD244
:10345000DFE805F00406090C0F12151800BF14E090
:1034600044F0800411E044F040040EE044F0C00455
:103470000BE044F0200408E044F0600405E044F070
:10348000A00402E044F0E00400BF00BF6748808869
:1034900045F21051884202D14FF4585700E03627C8
:1034A0006248808845F2103188420DD05F4880889C
:1034B00045F21051884207D05C48808841F663117C
:1034C000884201D044F008042146384600F046FA0C
:1034D0005648808841F6631188421DD004F02000D0
:1034E00068B15248008851494988884214DA4F48E7
:1034F000068840884D490880084646800CE04B48C5
:1035000000884A494988884206DD4848068840883C
:1035100046490880084646804448808845F2105154
:10352000884254D14149488900F002FA002000F055
:10353000F3F93E494989491C88B200F0F9F90020A5
:1035400000F0EAF9394900E06FE04989891C88B246
:1035500000F0EEF935490988491EC1F30F2000F04B
:10356000DBF932494989C91C88B200F0E1F92F49D9
:103570000978491EC8B200F0CFF92C49888900F0BB
:10358000D7F9002000F0C8F928498989491C88B278
:1035900000F0CEF9002000F0BFF924498989891C88
:1035A00088B200F0C5F921494988491EC1F30F20AE
:1035B00000F0B2F91D498989C91C88B200F0B8F938
:1035C0001A498978491EC8B200F0A6F92DE01749BA
:1035D000488900F0ADF9002000F09EF9002000F0CD
:1035E0009BF912490988491EC1F30F2000F094F994
:1035F0000E490978491EC8B200F08EF90B49888936
:1036000000F096F9002000F087F9002000F084F91E
:1036100006494988491EC1F30F2000F07DF903498E
:103620008978491EC8B200F077F9F0BDB8010120D1
:1036300010B502460C464E48808849F24131884216
:103640000BD04B48808845F21031884205D048485D
:10365000808847F28971884214D14549488900F031
:1036600067F9101200F058F9D0B200F055F940494E
:10367000888900F05DF9201200F04EF9E0B200F008
:103680004BF973E03A48808841F66311884247D18C
:1036900037488079A8B936480088401E801A82B21F
:1036A0003349488900F044F9002000F035F9002042
:1036B00000F032F9101200F02FF9D0B200F02CF91E
:1036C00016E02B49488900F033F9101200F024F974
:1036D000D0B200F021F926490988491EC1F30F2014
:1036E00000F01AF922490978491EC8B200F014F90D
:1036F0001F49888900F01CF9201200F00DF9E0B292
:1037000000F00AF91A494988491EC1F30F2000F058
:1037100003F917498978491EC8B200F0FDF825E081
:103720001348808845F2105188421FD110494889BA
:1037300000F0FEF8101200F0EFF80D494989491C1D
:1037400088B200F0F5F8D0B200F0E6F808498889B0
:1037500000F0EEF8201200F0DFF805498989491CD5
:1037600088B200F0E5F8E0B200F0D6F810BD000035
:10377000B80101202DE9F84F80460F4616461C4639
:10378000BB462046E31704EB5373DB1021464FEA98
:10379000E47C04EB5C7C4FEAEC0CA4EBCC0CBCF1BD
:1037A000000F02D04FF0010C01E04FF0000C634419
:1037B000224604EBD27C4FEA6C0C03FB0CF3DBB229
:1037C0000093A6F12000C6B200255EE00C2C07D1C4
:1037D00006EB46002F4901EB800010F805901BE036
:1037E000102C05D12C4800EB061010F8059013E0C2
:1037F000182C07D106EBC600284901EB800010F811
:10380000059009E0202C05D1254800EBC61010F8E2
:10381000059001E0BDE8F88F4FF0000A2FE009F0B5
:10382000800030B11F48394602684046FDF788F9EC
:1038300007E00A9828B91C48394602684046FDF757
:103840007FF94FEA49604FEA1069781C87B2174840
:103850004088B84200DCDDE7A7EB0B00A0420AD1AC
:103860005F4608F101001FFA80F8104800884045C3
:1038700000DCCFE706E00AF1010000F0FF0ABAF130
:10388000080FCCDB00BF681CC5B2009885429DDBE9
:1038900000BFBFE75E400090D2440090C24A009053
:1038A0001E5800901C00012020000120B8010120BA
:1038B0002DE9F84704460D4690469946DDE909672B
:1038C00004F0FF0A08EB04001FFA80F809EB05007A
:1038D0001FFA80F916E0444502DB5446A81985B268
:1038E0004D4500DB14E0002000903A78334629462D
:1038F0002046FFF73FFF304606EBD07104EB610135
:103900008CB27F1C38787E2802DC38782028E2DAF6
:1039100000BFBDE8F887000001B5BDF800000090C9
:10392000BDF800000149088008BD000000000860E3
:1039300001B5BDF800000090BDF800000149088005
:1039400008BD0000FEFF07600248008902490880A8
:1039500070470000B8010120FEFF0760024A108096
:10396000921C118070470000FEFF076000B587B011
:1039700000BF1248006840F0020010490860084685
:10398000006800F00200019000BF00BF0320029019
:103990000120039004900320059002A90848FCF739
:1039A000D8FC012211460648FCF7E7FC012202215F
:1039B0000348FCF7E2FC07B000BD000030380240CD
:1039C0000004024070477047704710B5FCF7E9FCEF
:1039D00010BD90F8241001F0010139B10168496867
:1039E00021F40031826A11430268516090F824107A
:1039F00001F00201022907D10168496821F48031F0
:103A0000C26A11430268516090F8241001F0040169
:103A1000042907D10168496821F48021026B114310
:103A20000268516090F8241001F00801082907D1BC
:103A30000168496821F40041426B114302685160FA
:103A400090F8241001F01001102907D1016889684D
:103A500021F48051826B11430268916090F8241028
:103A600001F02001202907D10168896821F4005163
:103A7000C26B11430268916090F8241001F040017C
:103A8000402913D10168496821F48011026C114367
:103A900002685160016CB1F5801F07D10168496867
:103AA00021F4C001426C11430268516090F8241067
:103AB00001F08001802907D10168496821F40021C3
:103AC000826C114302685160704738B5044600208B
:103AD000E067FCF739FC05462068006800F0080044
:103AE00008280CD16FF07E402B4600224FF40011C5
:103AF0000090204600F076FA08B1032038BD20205F
:103B00006067A06700BF002084F8700000BF00BF9E
:103B1000F4E770B50546AC6B0020A4F85A00A4F891
:103B200052002046FCF7C4FD70BD0168096821F40D
:103B30009071026811600168896821F001010268D2
:103B400091602021816700210166704710B504460D
:103B50002068006820F0400021680860202060672D
:103B6000002060662046FCF711FF10BD2DE9F041F2
:103B70000446B4F85C70A06F222825D12068406A02
:103B800086B2656D06EA07002880606D801C60655E
:103B9000B4F85A00401EA4F85A00B4F85A00C8B944
:103BA0002068006820F490702168086020688068B0
:103BB00020F00100216888602020A0670020206696
:103BC0002046FCF7F3FB05E02068806940F0080020
:103BD00021688861BDE8F08170B50446B4F85C6086
:103BE000A06F222825D12068406A85B2F0B2284013
:103BF000616D0870606D401C6065B4F85A00401E2D
:103C0000A4F85A00B4F85A00C8B92068006820F433
:103C10009070216808602068806820F001002168A9
:103C200088602020A067002020662046FCF7BEFBAD
:103C300005E02068806940F008002168886170BD57
:103C40002DE9F04704460026B1462169A0680843E3
:103C500061690843E16940EA010720680068D549C5
:103C600008403843216808602068406820F44050CC
:103C7000E168084321684860A769206A0743206813
:103C8000806820F4306038432168886000BFCA49EA
:103C90002068884216D1C948006800F0030030B19E
:103CA000012808D0022804D0032808D105E0012506
:103CB00007E0022505E0042503E0082501E01025C2
:103CC00000BFC9E0BE492068884216D1BB480068E1
:103CD00000F00C0030B1042808D0082804D00C28CB
:103CE00008D105E0002507E0022505E0042503E0F2
:103CF000082501E0102500BFAEE0B24920688842E7
:103D000016D1AE48006800F0300030B1102808D05D
:103D1000202804D0302808D105E0002507E002253E
:103D200005E0042503E0082501E0102500BF93E02D
:103D3000A5492068884216D1A048006800F0C0005C
:103D400030B1402808D0802804D0C02808D105E030
:103D5000002507E0022505E0042503E0082501E031
:103D6000102500BF78E099492068884219D193480E
:103D7000006800F4407048B1B0F5807F0AD0B0F51B
:103D8000007F05D0B0F5407F08D105E0002507E0B1
:103D9000022505E0042503E0082501E0102500BF09
:103DA0005AE08B492068884219D18448006800F4A1
:103DB000406048B1B0F5806F0AD0B0F5006F05D013
:103DC000B0F5406F08D105E0012507E0022505E0C8
:103DD000042503E0082501E0102500BF3CE07D49F3
:103DE0002068884219D17548006800F4405048B1F5
:103DF000B0F5805F0AD0B0F5005F05D0B0F5405F48
:103E000008D105E0002507E0022505E0042503E0D0
:103E1000082501E0102500BF1EE06F492068884298
:103E200019D16648006800F4404048B1B0F5804FB1
:103E30000AD0B0F5004F05D0B0F5404F08D105E0ED
:103E4000002507E0022505E0042503E0082501E040
:103E5000102500BF00E0102500BFE069B0F5004F5D
:103E600057D1042D28D005DC4DB1012D11D0022DE4
:103E700036D118E0082D29D0102D31D131E0FCF7D2
:103E80009AFA4000616800EB5100B0FBF1F086B295
:103E90002AE0FCF795FA4000616800EB5100B0FBA6
:103EA000F1F086B220E04D49606801EB5000616896
:103EB000B0FBF1F086B217E0FCF787FA40006168CA
:103EC00000EB5100B0FBF1F086B20DE04FF4803111
:103ED000606801EB50006168B0FBF1F086B203E06E
:103EE00000BF4FF0010900BF00BF102E0ED3B6F582
:103EF000803F0BD24FF6F07006EA0008C6F342008E
:103F000048EA00082068C0F80C804DE04FF0010935
:103F10004AE0042D26D005DC4DB1012D10D0022D34
:103F200033D116E0082D26D0102D2ED12EE0FCF72F
:103F300042FA616800EB5100B0FBF1F086B228E074
:103F4000FCF73EFA616800EB5100B0FBF1F086B27D
:103F50001FE02349606801EB50006168B0FBF1F09D
:103F600086B216E0FCF731FA616800EB5100B0FB55
:103F7000F1F086B20DE04FF40041606801EB5000B3
:103F80006168B0FBF1F086B203E000BF4FF00109B9
:103F900000BF00BF102E05D3B6F5803F02D22068C7
:103FA000C66001E04FF001090020206660664846C7
:103FB000BDE8F087F369FFEF001001409038024040
:103FC0000044004000480040004C004000500040C9
:103FD0000014014000780040007C00400048E801E7
:103FE0000024F4002DE9F04104460D46174698469A
:103FF000069E1FE0701CE8B1FCF7A6F9A0EB0800D4
:10400000B04200D8B6B92068006820F4D0702168AA
:1040100008602068806820F0010021688860202006
:104020006067A06700BF002084F8700000BF032015
:10403000BDE8F0812068C0692840A84201D1012074
:1040400000E00020B842D5D00020F1E700BFFEE735
:1040500030380A2801D20120704700207047000044
:1040600000000000000000000000000000003F40D1
:104070000000000000000000300040003000400060
:10408000000009000BC03D000BC03D00090018C036
:1040900024407FE0224031800000180024C01B0033
:1040A0000D803240018003801C4027401C80074067
:1040B0000040100060000000000000000000000050
:1040C000000000001F8020404020000040202040D1
:1040D0001F8000000000090006001F800600090084
:1040E0000000040004003F800400040000000010F1
:1040F0000060000000000000000004000400040054
:104100000400040000000000004000000000000067
:104110000000002001C006003800400000001F80A1
:104120002040204020401F800000000010403FC081
:1041300000400000000018C02140224024401840E8
:10414000000010802040244024401B80000002001A
