:020000040800F2
:10000000F8A605245D030008BDB7000887A6000810
:10001000AFB60008891D0008CDD10008000000001F
:1000200000000000000000000000000095C0000873
:100030004526000800000000BFB7000897C0000870
:1000400077030008770300087703000877030008A8
:100050007703000877030008770300087703000898
:100060007703000877030008770300087703000888
:100070007703000877030008770300087703000878
:100080007703000877030008770300087703000868
:100090007703000877030008770300087703000858
:1000A0007703000877030008770300087703000848
:1000B0007703000877030008770300087703000838
:1000C0007703000877030008770300087703000828
:1000D00077030008BDD10008770300087703000804
:1000E000770300087703000800000000770300088A
:1000F00077030008770300087703000877030008F8
:1001000077030008770300087703000877030008E7
:1001100077030008770300087703000877030008D7
:1001200077030008D51E000877030008E51E0008C5
:1001300077030008770300087703000877030008B7
:1001400000000000000000000000000000000000AF
:100150007703000877030008770300087703000897
:100160007703000877030008770300087703000887
:100170007703000877030008C51E0008770300080E
:100180007703000877030008770300087703000867
:100190007703000877030008770300087703000857
:1001A0007703000877030008770300087703000847
:1001B0007703000877030008770300087703000837
:1001C0007703000877030008770300087703000827
:1001D0007703000877030008770300087703000817
:1001E0007703000877030008770300087703000807
:1001F00077030008770300087703000877030008F7
:1002000077030008770300087703000877030008E6
:1002100077030008770300087703000877030008D6
:100220007703000877030008770300080000000048
:100230007703000877030008000000007703000838
:1002400077030008770300087703000877030008A6
:100250007703000877030008770300087703000896
:100260007703000877030008770300087703000886
:1002700077030008770300087703000800000000F8
:1002800077030008770300087703000800000000E8
:10029000000000007703000800F002F800F04FF8BB
:1002A0000AA090E8000C82448344AAF10107DA45D1
:1002B00001D100F044F8AFF2090EBAE80F0013F0D4
:1002C000010F18BFFB1A43F001031847C82E0100A5
:1002D000E82E0100103A24BF78C878C1FAD8520736
:1002E00024BF30C830C144BF04680C6070470000B0
:1002F0000023002400250026103A28BF78C1FBD82F
:10030000520728BF30C148BF0B607047662910F004
:100310007080642900F0FA80782900F03381002091
:1003200070471FB510F060F800F008FC04000020D2
:1003300000210FF093FFE0601FBD10B510BD00F06D
:100340001DFD1146FFF7EDFF0FF088FB00F03BFDB0
:1003500003B4FFF7F2FF03BC0DF07EFD09488047B0
:1003600009480047FEE7FEE7FEE7FEE7FEE7FEE797
:10037000FEE7FEE7FEE7FEE704480549054A064BAF
:1003800070470000A1C0000899020008F8A00524E9
:10039000F8A60524F8A20524F8A20524704753EA1C
:1003A000020C00F069802DE9F04B4FF00006002BA5
:1003B0001FBFB3FA83F503FA05F424FA05F65E408D
:1003C00012BF1643B2FA82F502FA05F4C5F1200510
:1003D0001EBF22FA05FC44EA0C04203556EA044C00
:1003E0004FEA144418BF641C4FF000084FF0000996
:1003F000904271EB030C39D3002919BFB1FA81F790
:1004000001FA07F6B0FA80F700FA07F6C7F12007FD
:100410001EBF20FA07FC46EA0C062037B6FBF4FCA8
:10042000A7EB0507103F07F01F0BCBF120060CFAD6
:100430000BFB2CFA06F644BFB3460026202FA4BFC0
:100440005E464FF0000B5BEA060C08BF4FF0010B55
:1004500019EB0B09ABFB027C48EB0608C01B06FB43
:1004600002CC0BFB03CC71EB0C01C1E70B4602463F
:1004700041464846BDE8F08B13B54FF000004FF001
:100480000001AFF30080BDE81C4070470FB4044981
:1004900010B503AA029800F03FFB10BC5DF814FBF6
:1004A000140000242DE9F0410E460446002020628D
:1004B0002046E168884730B3252805D0D4E90121DA
:1004C0009047206A401CF2E7E168204600278847F1
:1004D000050018D0A5F14100192802D820354FF4A5
:1004E00000673246294620462760FFF70FFF40B1DC
:1004F000012804D0F61D26F007060836D8E7361D79
:10050000D6E72846DAE7206ABDE8F0812DE9F04118
:100510000646002410687529314616A510D0AFF3A1
:100520000080002802DA404213A507E031688A07FC
:1005300001D512A502E0490704D511A5012401E067
:10054000AFF3008000210A2206F1240709E0B0FB86
:10055000F2FCB0FBF2F302FB1C003030785418467A
:10056000491C0028F3D123462A463046BDE8F04115
:1005700000F06AB8000000002D0000002B00000011
:100580002000000070B504460D4621461068AFF308
:1005900000802188090502D50F4A7A4402E00E4AFC
:1005A0007A440E32002104F1240305E000F00F0626
:1005B0000009965D5E54491C0028F7D1207800237D
:1005C000000704D5702D02D009B102231132204654
:1005D000BDE8704000F038B8A72A01004FF00002D3
:1005E00000B5134694469646203922BFA0E80C5029
:1005F000A0E80C50B1F12001BFF4F7AF090728BF04
:10060000A0E80C5048BF0CC05DF804EB890028BF7F
:1006100040F8042B08BF704748BF20F8022B11F0A8
:10062000804F18BF00F8012B704770477047704724
:10063000704710B500F086FA006810BD10B504468A
:1006400000F080FA046010BD2DE9F0470D46994690
:100650009246044600F124080168880604D5E06942
:1006600021F01001216000E00120A84201DD471BBC
:1006700000E00027A1697A1902EB0900081AA061BD
:100680002078C00602D42046AFF30080002608E0A0
:10069000D4E901211AF806009047206A401C761C14
:1006A00020624E45F4DB2078C0060AD52046AFF321
:1006B000008006E0D4E9012130209047206A401CE8
:1006C0002062381EA7F10107F4DC07E0D4E901211C
:1006D00018F805009047206A401C2062281EA5F1EA
:1006E0000105F3DC2046AFF300802078000602D538
:1006F0000220BDE8F0870120FBE770472DE9FF4F9E
:100700000C461E464FF0FF378BB0D2E90001DDF8F2
:1007100060800A908A46C1F30A5505B93D4600211A
:1007200008464FF00000BAF1000F00F4400005DA6F
:1007300000EB80004FF4400101EA50004FEA90596D
:10074000B9F1010F00DDB9460A9850EA4A000ED00F
:1007500044F61050A5F2FF3545432F14B8F1000FB1
:100760001ED07542291E1EDDC9F100021CE0B8F141
:10077000010F4FF0000001D0302103E0F24305E00B
:100780002154401CB042FBDB3046002200212154A2
:100790000B99C1F80880C1E900200FB0BDE8F08FC7
:1007A000BD1B6D1CDEE74A4600DA694206A800F070
:1007B0006BFA06AB93E8070003AB83E807005046EB
:1007C0000A9900F03DFB8DE80700A0F500501F38A6
:1007D00000900398002D0ADD42F21F014A460844AA
:1007E000002303A90390684600F0A6FD09E0A0F5E8
:1007F00000504A461F38002303A90390684600F0C2
:10080000B0FD8DE807000004000C03D04FF0FF306E
:10081000410800E01046B8F1000F03D0002200921A
:1008200015461EE0751E05D400F090F93032625571
:100830006D1EF9D5B3460122084302D000227F1C69
:1008400004E02078302801D100227F1E002A099779
:1008500084D01DE0112D07DA00F078F930326255AE
:100860006D1C50EA0102F5D1084302D00098C8B1CE
:100870000EE00021681E05E0235C625C6354225494
:10088000401E491C8142F7DBAB46A81B401E099065
:10089000002004F80B000B98099AC0F80880C0E902
:1008A000002B7AE711264FF0000857E72DE9F04FAB
:1008B00088460446D21D22F0070191B0D1E900011B
:1008C000CDE90A010CF023FD02460B98C00F01D0C0
:1008D0002D2007E02068810701D52B2002E0202190
:1008E00001EAC000032A099001D0072A05DB03466C
:1008F0004146204600F088F90BE12078800601D5BA
:10090000E06900E00620B8F1650F814606D0B8F135
:10091000660F18D0B8F1670F70D131E00020B9F13F
:10092000110F009001DB112301E009F101030AAA74
:1009300001A90CA8FFF7E2FEDDE90C70002609F121
:100940000105834647E001204B4600904FF00047E9
:100950000AAA01A90CA8FFF7D1FEDDE90DB00C9998
:100960005D46002610B909F101000D18B9EB05002C
:1009700003D4C0F1FF3609F10105A5EB09002BE016
:10098000B9F1010F01DA4FF001090020B9F1110F9F
:100990000090484601DD112300E003460AAA01A9A0
:1009A0000CA8FFF7ABFEDDE90C704D460026834630
:1009B000207800070AD4AB4500DA5D4601A8012D76
:1009C00004DD411911F8011C302907D04F4502DA26
:1009D00017F1040F04DA012082460FE06D1EEEE7E6
:1009E000002F02DCED1B3E4403E0781CA84200DD32
:1009F0007D1CB81B00F1010A4FF00047207800076A
:100A000003D4AA4501DB4FF0FF3A0021B7F1004FB4
:100A10000DF143088DF8431024D002202B23002F22
:100A200001DA7F422D230A21021EA0F1010000DC21
:100A30005FB197FBF1FC97FBF1F201FB1C7C1746C1
:100A40000CF1300C08F801CDEEE7A8F101000370BD
:100A50002188090501D5452100E06521A0F10108A3
:100A600000F8011C09980FA9A1EB0807FF1D00B1B0
:100A70000120411901EBEA70A1693844081A401EAF
:100A8000A0612078C00602D42046AFF30080099808
:100A900028B1D4E901219047206A401C20622078C7
:100AA000C00622D52046AFF300801EE0002E04DBF6
:100AB000B34502DD01A8805D00E03020D4E90121CA
:100AC0009047206A401C2062761CAAF101005FEA70
:100AD000000A0AD100F032F8C0680168405CD4E92D
:100AE00001219047206A401C2062281EA5F10105C3
:100AF000DCDC07E0D4E9012118F8010B9047206AFB
:100B0000401C2062381EA7F10107F3DC2046AFF33A
:100B10000080032011B041E6074B70B50D467B44C1
:100B200000F05FF80446284600F020F910B14FF0BD
:100B3000FF3070BD204670BD1FEE000000487047BA
:100B4000FC03002400487047DC03002430B5B0F1FA
:100B50000A024FEA900E71F100034EEA817EB0EB7B
:100B60000E0061EB91014FEA101E4EEA017E10EB80
:100B70000E0041EB11114FEA102E4EEA016E10EB00
:100B80000E0041EB11214FEA104E4EEA014E10EBE0
:100B90000E0041EB1141401841F100014FEAD00035
:100BA00040EA41704FEAD10110EB80054FEA810421
:100BB00044EA907444EB01046D1944EB0404521BA5
:100BC000A3414FF0000348BF0A3200D530BD401C9E
:100BD00041F1000130BD000001694A1C0261087842
:100BE000704700B58FB0CDE901310021059105496D
:100BF0007944CDE9031011466846FFF753FC0FB066
:100C000000BD0000E5FFFFFF2DE9F0411F4604464F
:100C100003260168072A01F4006004DB08B116A569
:100C200005E016A503E008B115A500E015A521F023
:100C300010002060A069C01EA0610FB1401EA0611D
:100C40002046AFF300804FB1D4E9012138469047E8
:100C5000206A401C2062C01C206206E0206AFAE77D
:100C6000D4E9012115F8010B9047761EF8D22046F1
:100C7000AFF30080BDE8F0814E414E006E616E0022
:100C8000494E4600696E66002DE9F04781461646DA
:100C90008AB0354878440DC88DE80D003248784454
:100CA000801C03AC0DC884E80D0041F69B3008445D
:100CB000372190FBF1F290FBF1F5A5F1800501FBE6
:100CC00012041B3C02D56442012000E00020DFF842
:100CD00098A080460027FA44AAF1BE0A0EE0E00779
:100CE0000AD03246684607EB470101230AEB81012F
:100CF00000F037FB8DE8070064107F1C002CEED15C
:100D0000194F7F44AE3F19E0E80715D007EB0410F8
:100D10000DF1180A90E80E008AE80E00C068F04253
:100D200001D1981908903246012306A903A800F0C2
:100D300018FB03AB83E807006D10641C002DE3D1A2
:100D40004FF0010332466946B8F1000F03A802D004
:100D500000F0F2FA01E000F004FBC9E90001C9F873
:100D600008200AB0BDE8F087E4240100007B00F011
:100D70008000704700487047DC0300247546FFF789
:100D8000F9FFAE4605006946534620F00700854648
:100D900018B020B5FFF7F0FABDE820404FF000068C
:100DA0004FF000074FF000084FF0000B21F0070153
:100DB000AC46ACE8C009ACE8C009ACE8C009ACE896
:100DC000C0098D46704710B50446AFF30080204639
:100DD000BDE81040FFF7BCBA4FF0013C50F8042BBF
:100DE00051F8043B9A4215D1A2EB0C03934313EA4A
:100DF000CC130BD150F8042B51F8043B9A4209D183
:100E0000A2EB0C03934313EACC13E7D04FF000009E
:100E1000704700BFD01A01BAB1FA81F101F0180190
:100E200022FA01F0CB40C1F12001DBB2C0B2C01AFE
:100E30002CFA01F3D11A914311EAC311E6D170479C
:100E40005FEA400C08BF91F0000F4FEA8C234FEA95
:100E5000C12243EA51514FEA1C5018BF00F5F0403F
:100E60004FEA300018BF41F000415FEA6C5C00F0CF
:100E70002980BCF1FF3F08BF40F080407047130C51
:100E800006BF12044FF0100C4FF0000C130E04BFFD
:100E900012020CF1080C130F04BF12010CF1040C28
:100EA000930F04BF92000CF1020CD30F04BF520049
:100EB0000CF1010C11464FF00002A0F11F00A0EB55
:100EC0000C00704711F0004F08BF704731F000412F
:100ED0003FF4D5AF0B0C06BF09044FF0100C4FF0D8
:100EE000000C0B0E04BF09020CF1080C0B0F04BF21
:100EF00009010CF1040C8B0F04BF89000CF1020CEA
:100F0000CB0F04BF49000CF1010CCCF12003A0EB86
:100F10000C0022FA03F302FA0CF241EA030100F199
:100F20000100704720F07F4C80EA030023F07F47E8
:100F3000ACEB070303F57C5300F0004003F1FF0323
:100F40002DE980494FEA154B09B44FEA144325EACD
:100F50000B4E24EA03480FF2042606EB1327490838
:100F60003E785FEA320203FB0667C7F5000707FB1E
:100F700006F64FEA54374FEAD64606F1020607FB5B
:100F8000066CCCF1005C4FEA1C472CEA074C07FBCF
:100F900006F40CFB06F504EB15464FEA961634BF33
:100FA00000204FF000404FEAD13706FB07FC4FEA24
:100FB0001C4C0CFB0BF7D21B03FB0CF761EB07017E
:100FC0000CFB0EF7B0EB074072EB17420CFB08F777
:100FD00034BFA2EB0742B2EB074261EB17414FEA85
:100FE0000C444FEA910706FB07FC4FEA1C4C0CFB34
:100FF0000BF7B0EBC74072EB573203FB0CF734BF73
:10100000A2EBC742B2EBC74261EB57310CFB0EF7C4
:10101000B0EBC70072EB57720CFB08F734BFA2EBC2
:10102000C702B2EBC70261EB5771039F4FEA8161C0
:1010300041EA921104EBCC044FEAD1374FEA8262C5
:1010400006FB07FC42EA90124FEA80604FEA1C4C14
:101050000CFB0BF7D21B03FB0CF761EB07010CFB3E
:101060000EF7B0EB074072EB17420CFB08F734BFEA
:10107000A2EB0742B2EB074261EB17414FEA8C55F6
:101080004FEA910704EB9C2406FB07FC4FEA1C4C3B
:101090000CFB0BF7B0EBC74072EB573203FB0CF7BE
:1010A00034BFA2EBC742B2EBC74261EB57310CFB36
:1010B0000EF7B0EBC70072EB57720CFB08F734BFAA
:1010C000A2EBC702B2EBC70261EB577115EB4C25DF
:1010D0004FEA816141EA92114FEA82624FEAD137C9
:1010E00042EA901206FB07FC44F100044FEA8060DC
:1010F0004FEA1C4C0CFB0BF7D21B03FB0CF761EB0C
:1011000007010CFB0EF7B0EB074072EB17420CFB2C
:1011100008F734BFA2EB0742B2EB074261EB17417D
:1011200015EB1C154FEA813141EA92414FEA8232B8
:1011300042EA90424FEA80304FEA0C7644F10004D4
:1011400048EA03434EEA0B484FF0000EB2EB080C9E
:1011500071EB030724BF624639464EEB0E0E4FF08B
:10116000000B0018524149414BEB0B0BB2EB080C42
:1011700071EB03077BF1000B24BF624639464EEB4F
:101180000E0E4FF0000B0018524149414BEB0B0B78
:10119000B2EB080C71EB03077BF1000B24BF624636
:1011A00039464EEB0E0E51EA020718BF46F0010613
:1011B00016EB0E7655F1000254F1000103D5BDE89F
:1011C0008901BDE80088BDE88901BDE80048B6197D
:1011D000524141EB0101A3F10103704780807F7E02
:1011E0007D7C7B7A7978777676757473727171709D
:1011F0006F6E6E6D6C6C6B6A6A696868676666654F
:101200006464636362616160605F5F5E5E5D5D5CDC
:101210005C5B5B5A5A59595858575756565555554D
:101220005454535352525251515050504F4F4F4EAD
:101230004E4D4D4D4C4C4C4B4B4B4A4A4A494949FB
:10124000484848474747474646464545454444443D
:10125000444343434342424242414141002B9C4666
:1012600030D477002BD01CB54FEA370703B44FF0CA
:1012700010004FF01001BAF1000F06D0BCF1000FC2
:10128000DCBF40F0080040F008014FF000000FBC48
:10129000BDE810400BF1010BBBF1010F08BF5FEA85
:1012A000170722BF12F1010211F101014FF00041B5
:1012B00043F1000300F0004043EA00007047F9D317
:1012C0005708D0E746EA064613F1400F4FEA1646A4
:1012D0001FDD13F1200FDFBF16430A460021203324
:1012E0005B42BED0C3F1200746EA064602FA07F782
:1012F0004FEA164646EA0706C3F1200722FA03F230
:1013000001FA07F721FA03F14FF0000342EA07025E
:10131000A7E746EA020646EA06464FEA164646EAC6
:101320000106BCBF46EA0646360C4FF000034FF0FC
:1013300000024FF0000194E72DE9804C9A46934655
:1013400070B491E8380007C831EA400C48BF34EA6D
:10135000430C03D5FFF7E6FDFFF780FFF0BCBDE8C7
:10136000008C2DE9804C9A46934670B491E8380081
:1013700007C810F0804F08BF13F0804F03D100F072
:1013800005F8FFF76BFFF0BCBDE8008C20F07F474D
:1013900080EA030023F07F4C07EB0C03A3F57C539A
:1013A00000F00040A3F1FE0392F0000F00F0B380C4
:1013B00095F0000F00F077802DE901494FEA1140C8
:1013C0004FEA144621EA004800FB06FC24EA0647DF
:1013D00008FB06F607FB08F800FB07F718EB0648C2
:1013E0004CEB164C4FEA124B18EB07484FEA1546E8
:1013F0004CEB174022EA0B4E0BFB06FC25EA064796
:101400000EFB06F607FB0EFE0BFB07F71EEB064E68
:101410004CEB164C4FF000061EEB074E4CEB174BF7
:1014200018EB0B0840F1000018EB0E0B58EB00080E
:1014300040F100008F1A4FF000013CBFC943661B0A
:1014400014BFB5EB040C00213CBFC943F61B4FEAA7
:1014500017444EEA8E0E27EA04454FEA1C4704FB68
:1014600007622CEA074C05FB07F70CFB05F604FBAB
:101470000CFC16EB074642EB174216EB0C4642EB10
:101480001C421BEB060658EB0202414146EA9E064F
:1014900001D5BDE80189B619524141EB0101A3F123
:1014A0000103BDE801894FEA14454FEA114724EAD8
:1014B000054621EA074C05FB07F406FB07F70CFB82
:1014C00006F105FB0CFC11EB074144EB17444FEA16
:1014D000124711EB0C4144EB1C4422EA074C05FB7C
:1014E00007F206FB07F70CFB06F605FB0CFC16EBF8
:1014F000074642EB174216EB0C4642EB1C456A18B6
:1015000054F1000148BF7047B619524141EB010147
:10151000A3F10103704795F0000F37D04FEA114255
:101520004FEA144721EA024624EA074C02FB07F17E
:1015300006FB07F70CFB06F402FB0CFC14EB07445C
:1015400041EB17414FEA154714EB0C4441EB1C41AA
:1015500025EA074C02FB07F506FB07F70CFB06F62E
:1015600002FB0CFC16EB074645EB174516EB0C4649
:1015700045EB1C42121951F1000148BF7047B619E2
:10158000524141EB0101A3F1010370474FEA1445B9
:101590004FEA114724EA054621EA074C05FB07F10B
:1015A00006FB07F70CFB06F24FF0000605FB0CFCF0
:1015B00012EB074241EB174112EB0C4251EB1C417D
:1015C00048BF7047921841EB0101A3F10103704736
:1015D0002DE9F04F2DED108B89B006460C46B0EE8C
:1015E00040BAB0EE60DA9346B6F882060090214623
:1015F000304609F0D7FDF0EE40AA2146304609F00A
:101600005DFDF0EE408A9FEDFD1A38EE811AB7EECF
:10161000C11AB0EE410BB1EE001B0BF0ADFEB7EE00
:10162000C00BF0EE40EA9FEDF51A3DEE011AB7EE61
:10163000C11AB0EE410BB1EE001B0BF09DFEB7EEF0
:10164000C00BF0EE40DA7DEEEE0A80EE8B0A3DEE46
:10165000C00AF0EE40BAD4ED0B0A9FEDE91AB7EEDE
:10166000000A00EE810AF7EE000A80EE801A8DED86
:10167000011AB7EE000A8DED020AD4ED0D0AB4F995
:10168000400000EE100AB8EEC01AB7EE000A00EEF5
:10169000810A8DED030AB4F94210B4F94000081A2A
:1016A00000EE100AF8EEC00A94ED0E1AB7EE000A2A
:1016B00001EE200ADDED030A20EE200A8DED040A7A
:1016C000B6F8140600EE100AB8EE400AB0EE409AE2
:1016D0009FEDCC0AB4EEC09AF1EE10FA05DD9FED55
:1016E000CA0A39EE400AB0EE409AB4F9140000EE8E
:1016F000100AB8EEC00AC0EE090AB0EE609AB6F859
:10170000800600F480504FEA6018B6F8100600EE2C
:10171000100AB8EE400A8DED070AB6F8500600EE42
:10172000100AB8EE400A8DED080A002026E007A94D
:1017300001EB800191ED000ADFEDB20AB4EEE00AA0
:10174000F1EE10FA0DDD07A901EB800191ED000A21
:10175000DFEDAD0A30EE600A07A901EB800181EDF3
:10176000000A07A901EB800191ED000A20EE090AA9
:1017700007A901EB800181ED000A401C0228D6DB9D
:10178000D4ED080AB3EE090A38EEC01AB7EE000A23
:1017900000EE810A42F64C20005F00EE900AF8EE5F
:1017A000E00A20EE201AD4ED070A9FED980A7AEE9F
:1017B000C01AB7EE000A00EEA10ADDED070A41EEFD
:1017C000400ACDED070A94F82500404525D1D4ED17
:1017D000080AB3EE090A38EEC01AB7EE000A00EEA6
:1017E000810A42F64C202044B0F9020000EE900A33
:1017F000F8EEE00A20EE201AD4ED070A9FED830AE6
:101800007AEEC01AB7EE000A00EEA10ADDED080A72
:1018100041EE400ACDED080A2AE042F64C20204471
:10182000B0F9020000EE100AB8EEC00A04F520502C
:10183000D0ED940A70EE200A94ED081AB3EE090A6E
:1018400078EEC01AB7EE000A01EE210A20EE801AE7
:10185000D4ED070A9FED6D0A7AEEC01AB7EE000AC2
:1018600000EEA10ADDED080A41EE400ACDED080ABE
:10187000002591E12846EA1705EBD262521129466C
:10188000EB1705EB93639B11A2EB430257B205EBF9
:10189000D0714910A5EB4101794049B20691AB1CCA
:1018A0004FEAE37C03EB9C7C4FEAAC0CEA1C4FEA6A
:1018B000E27E02EB9E7EACEBAE0C691C4FEAE17E51
:1018C00001EB9E7E0CEBAE0C4FEAE57E05EB9E7EB7
:1018D000ACEBAE0C4FEA470ECEF1010E0CFB0EFC4A
:1018E0004FFA8CF9B8F1000F01D1059701E0069885
:1018F0000590B6F88216059881427DD136F815001C
:1019000000EE100AB8EE400AB0EE408A9FED3D0AA4
:10191000B4EEC08AF1EE10FA05DD9FED3B0A38EE19
:10192000400AB0EE408A28EE090AB0EE408A41F241
:101930004420204400EB8500D0ED000AB3EE090AF4
:1019400038EEC01AB7EE000A00EE810A04F64440F1
:1019500030F9150000EE900AF8EEE00A20EE201AA9
:1019600041F64460204400EB8500D0ED000A9FED75
:10197000270A7AEEC01AB7EE000A00EEA10AF0EECE
:10198000480A41EE400AB0EE608A94F825004045CE
:101990001BD042F650202044D0ED020A7800401EB1
:1019A00000EE100AB8EEC01AB0EE480A00EE810A46
:1019B00042F65020204490ED011A00EE909AF8EE85
:1019C000E00A01EE600AB0EE408A88EE0B0AB0EE43
:1019D000408AD4ED060A07A9009801EB800090ED3B
:1019E000001AB0EE480A00EEC10AB0EE408A04F1D7
:1019F000440000EB85000BE0CDE00000339388430A
:101A00000000204200FEFF46000080473333534071
:101A100090ED000AD4ED060A42F644202118009801
:101A200001EB800090ED001A00EEC10A94ED0A1A55
:101A3000F3EE090A78EEE01AF7EE000A41EE210A09
:101A400060EE209AB0EE081BB7EEE90A0BF094FCAA
:101A5000B0EE481A09EEAB1AB7EEC11A20EE010B30
:101A6000B7EEC00BB0EE40EAB7EECE0A0CF050F97C
:101A7000B0EE40CB0CF04CF994ED0C1AB7EEC11A55
:101A800020EE010BB7EEC00BB0EE40EAD4ED0C0A2D
:101A90001FED261AB7EE000A00EEC10AF0EE4E0A5C
:101AA00049EE800A88EE200A30EE2B0AB7EEC00A13
:101AB000B0EE40FB0CF02CF9B0EE40CB0CF028F966
:101AC0009FED3A1B30EE410BB7EEC00BB0EE40AAD3
:101AD000B4F93E0000EE100AB8EEC00AB4EECA0A2D
:101AE000F1EE10FA02DD4FF0000A1DE0B4F94000FB
:101AF00000EE100AB8EEC00AB4EECA0AF1EE10FA0F
:101B000002DD4FF0010A0FE0B4F9420000EE100AC6
:101B1000B8EEC00AB4EECA0AF1EE10FA02DD4FF0D8
:101B2000020A01E04FF0030A04F12C0000EB8A00E6
:101B3000D0ED000A04F13C0030F91A0000EE100A62
:101B4000B8EEC00A3AEE401AB7EE000A00EE810A7B
:101B500001A800EB8A00D0ED000A60EEA90A60EE51
:101B6000200A88EE200A30EE2B0AB7EEC00AB0EE4B
:101B700040CB0CF0CDF8B0EE40FB0CF0C9F89FED77
:101B80000D1B30EE410BB7EEC00BB0EE40AA0BEBD5
:101B9000850080ED00AA6D1CB5F5407FFFF66AAEAA
:101BA00009B0BDEC108BBDE8F08F000000000060B4
:101BB00066127140666666666612714010B502462E
:101BC0001388012006E032F810409C4201DD32F813
:101BD0001030401C8842F6DB184610BD10B5024696
:101BE0001388012006E032F810409C4201DA32F8F6
:101BF0001030401C8842F6DB184610BDFCB5662349
:101C00006624B0F53F7F5BDA002157E001FB04F565
:101C1000C5F50075ADB2ADF80050BDF80050C5F582
:101C20000075ADB2ADF80250002244E002FB03F5AE
:101C3000C5F50075ADB2ADF80450BDF80450C5F55A
:101C40000075ADB2ADF806504D4D35F81050BDF8E9
:101C500004607543BDF800607543494F00F12006EC
:101C600037F81660BDF804707E43BDF8027006FBBD
:101C70000756434F451C37F81550BDF806707D4395
:101C8000BDF8007005FB07663D4F00F1210537F8F0
:101C90001550BDF806707D43BDF8027005FB076561
:101CA0004FF6FF7606EAA54501EB81061644354F4F
:101CB00027F81650521C052AB8DB491C0529A5DB5C
:101CC000B0F5387F5BDD002157E001FB04F5C5F579
:101CD0000075ADB2ADF80050BDF80050C5F5007507
:101CE000ADB2ADF80250002244E002FB03F5C5F5A9
:101CF0000075ADB2ADF80450BDF80450C5F50075DF
:101D0000ADB2ADF806501E4D35F81050BDF8046068
:101D10007543BDF800607543A0F12006184F37F8F1
:101D20001660BDF804707E43BDF8027006FB0756CE
:101D3000134F451C37F81550BDF806707D43BDF8AC
:101D4000007005FB0766A0F121050D4F37F815500F
:101D5000BDF806707D43BDF8027005FB07654FF6C0
:101D6000FF7606EAA54501EB81061644054F27F8E4
:101D70001650521C052AB8DB491C0529A5DBFCBD01
:101D800088DA022488E0022400BFFEE702460B4600
:101D9000D11A11F1220F05DD11F11E0F02DA6FF0D9
:101DA0000500704711F1020F04DD022902DA6FF01D
:101DB0000500F6E71E2904DD222902DA6FF005008E
:101DC000EFE70020EDE70146087D00F040020AB988
:101DD000002070476FF00600FBE770B50546AC6B5E
:101DE000A06C406D022806D0012084F83500E06C1C
:101DF00040F04000E064204602F082F970BD70B50A
:101E00000646B46BA06B68B3A06C0068006800F471
:101E10000025A06B00F0010078B975B1A06C0068D6
:101E2000C568E26B082303FB02510022A06C02F09C
:101E3000AFFCA06B401EA0632FE0A06C00680068A0
:101E400000F4002048BBA06C00680569E26B082321
:101E500003FB02510122A06C02F09AFCA06B401E11
:101E6000A0631AE0A06C0068006800F4002020B1B4
:101E7000D4E911010968C8600FE0A06C006800682F
:101E800000F4002048B9656CE06B042101FB0050B0
:101E9000A16C09680861206CA063A06B216C88426A
:101EA0000ED12068C06840F001002168C860206839
:101EB000006800F00200022802D1012084F83500F9
:101EC00070BD000010B5024802F026F910BD0000F8
:101ED0001003002410B50249886C03F09BFB10BD71
:101EE0001003002410B5044803F094FB0348007865
:101EF000401C0249087010BD10BE022400000024DE
:101F00000146374A0868904249D0354A1832086875
:101F1000904244D0324A3032086890423FD0304A32
:101F20004832086890423AD02D4A603208689042A0
:101F300035D02B4A78320868904230D0284A903207
:101F4000086890422BD0264AA8320868904226D0D2
:101F5000244A0868904222D0224A183208689042E7
:101F60001DD0204A30320868904218D01D4A4832AD
:101F70000868904213D01B4A6032086890420ED025
:101F8000184A78320868904209D0164A9032086898
:101F9000904204D0134AA8320868904201D101202F
:101FA00000E00020B0B10A78103A1823B2FBF3F039
:101FB00000F007020C4B9A5CCA65032805D90A6831
:101FC0006FF30902121D8A6503E00A686FF30902C4
:101FD0008A6503E0086820F0FF008865886D704717
:101FE0001000024010040240F604010810B5026817
:101FF0002B4C0368A34222D0294C14340368A3421B
:102000001DD0274C28340368A34218D0244C3C34FC
:102010000368A34213D0224C50340368A3420ED06D
:102020001F4C64340368A34209D01D4C7834036804
:10203000A34204D01A4C8C340368A34201D101237B
:1020400000E000238BB10378083B1424B3FBF4F1C8
:10205000144B03EB81030366124B8033436601F09C
:102060001F040123A340836618E00378103B182463
:10207000B3FBF4F10C4B9A4204D80B4BA83B9A42A9
:1020800000D30831094B03EB81030366074B803310
:10209000436601F01F040123A340836610BD0000C6
:1020A0000854025800580258B80402400008024080
:1020B0000179A9B3082940D8204B02689A4222D05E
:1020C0001E4B143302689A421DD01C4B2833026801
:1020D0009A4218D0194B3C3302689A4213D0174BDE
:1020E000503302689A420ED0144B643302689A420D
:1020F00009D0124B783302689A4204D00F4B8C33CC
:1021000002689A4201D1012200E000224AB14A1E2F
:102110000B4B03EB8202C266094A4032026708E0B9
:102120000BE04A1E074B03EB8202C266054A4032AF
:1021300002674A1E012393404367704708540258C0
:102140000059025800090240014600208A69D2B9AC
:102150008A6A32B1012A0DD0022A03D0032A10D193
:102160000EE000BFCA6A02F08072B2F1807F00D137
:10217000012007E0CA6AB2F1C07F00D1012001E06E
:1021800000E000BF36E08A69B2F5005F1BD18A6AC1
:1021900032B1012A07D0022A03D0032A11D10AE062
:1021A00000BF01200EE0CA6A02F08072B2F1807FA7
:1021B00000D1012006E0CA6AB2F1C07F00D101203F
:1021C00000E000BF16E08A6A32B1012A05D0022A77
:1021D00004D0032A0CD103E000BF00BF012008E0B7
:1021E000CA6A02F08072B2F1807F00D1012000E063
:1021F00000BF00BF7047000030B5384D0468AC42E6
:1022000049D0364D18350468AC4244D0334D303592
:102210000468AC423FD0314D48350468AC423AD0F6
:102220002E4D60350468AC4235D02C4D78350468AD
:10223000AC4230D0294D90350468AC422BD0274DAC
:10224000A8350468AC4226D0254D0468AC4222D0A3
:10225000234D18350468AC421DD0214D303504683B
:10226000AC4218D01E4D48350468AC4213D01C4D0A
:1022700060350468AC420ED0194D78350468AC4224
:1022800009D0174D90350468AC4204D0144DA835E0
:102290000468AC4201D1012400E0002474B1046858
:1022A00063608468402C04D10468A2600468E16023
:1022B00012E00468A1600468E2600DE004686360F5
:1022C0008468402C04D10468A2600468E16003E0E3
:1022D0000468A1600468E26030BD000010000240A4
:1022E00010040240F0B5856D846D984F0668BE42BB
:1022F00070D0964F18370668BE426BD0934F303778
:102300000668BE4266D0914F48370668BE4261D02B
:102310008E4F60370668BE425CD08C4F78370668B7
:10232000BE4257D0894F90370668BE4252D0874F81
:10233000A8370668BE424DD0854F0668BE4249D0D8
:10234000834F18370668BE4244D0814F3037066845
:10235000BE423FD07E4F48370668BE423AD07C4FDF
:1023600060370668BE4235D0794F78370668BE427E
:1023700030D0774F90370668BE422BD0744FA837C5
:102380000668BE4226D0734F0668BE4222D0714F07
:1023900014370668BE421DD06E4F28370668BE420D
:1023A00018D06C4F3C370668BE4213D0694F503787
:1023B0000668BE420ED0674F64370668BE4209D039
:1023C000644F78370668BE4204D0624F8C37066887
:1023D000BE4201D1012600E000263EB1D0E91976C7
:1023E0007E60C66E16B1D0E91C767E60574F0668D7
:1023F000BE4249D0554F18370668BE4244D0534FAD
:1024000030370668BE423FD0504F48370668BE425C
:102410003AD04E4F60370668BE4235D04B4F7837C2
:102420000668BE4230D0494F90370668BE422BD076
:10243000464FA8370668BE4226D0454F0668BE42C2
:1024400022D0434F18370668BE421DD0404F303768
:102450000668BE4218D03E4F48370668BE4213D0C9
:102460003B4F60370668BE420ED0394F783706685A
:10247000BE4209D0364F90370668BE4204D0344F72
:10248000A8370668BE4201D1012600E00026DEB171
:1024900090F85C6006F01F073F26BE40AE600668FD
:1024A000366826F4802607683E6006687360866892
:1024B000402E04D10668B2600668F16044E0066808
:1024C000B1600668F2603FE0224F0668BE4222D04B
:1024D000204F14370668BE421DD01E4F28370668AD
:1024E000BE4218D01B4F3C370668BE4213D0194F6E
:1024F00050370668BE420ED0164F64370668BE429B
:1025000009D0144F78370668BE4204D0114F8C377B
:102510000668BE4201D1012600E00026A6B190F86F
:102520005C6006F01F070126BE40666006687360A7
:102530008668402E04D10668B2600668F16003E048
:102540000668B1600668F260F0BD0000100002404D
:1025500010040240085402582DE9F041074688460D
:1025600015460024002608F10F0083B207F11F0072
:1025700082B24146384608F021FC00BF0FE04FF61A
:10258000FF7000EA440635F8140000120849885527
:10259000701C86B215F814008855601C84B2B4F51E
:1025A000007FECDB024800F029F8BDE8F081000074
:1025B0000EAE022410B5044600224FF400610D480F
:1025C00004F0F0FB012291020A4804F0EBFB4FF407
:1025D000C8522146084807F08FFB4FF461700DF098
:1025E00041F9054806F070FF0122D102014804F0CC
:1025F000D9FB10BD000402587C02002410B504462B
:1026000000224FF400610D4804F0CCFB012291023E
:102610000A4804F0C7FB4FF480622146084807F0DF
:102620006BFB96200DF01EF9054806F04DFF0122C8
:10263000D102024804F0B6FB10BD000000040258AD
:102640007C020024704700002DE9FC5F07468846A5
:102650004FF0000A0020019000240DF00DFB4FF414
:1026600040717348FFF7AAFA724908804FF440712D
:102670006F48FFF7B3FA704908806D49B1F81E132F
:102680006B4AB2F820231144694AB2F85E23114420
:10269000674AB2F860238818C11700EB9171C1F343
:1026A0008F01664A11806348008863490988A0EB5E
:1026B00001090026B7E00025B1E005EB461188B21C
:1026C000FFF79CFA4FF0000B34E02FB95C4810F88C
:1026D0001B00C0EBC0040EE0012F0CD1584810F8CD
:1026E0001B0055490978401AC0B2C0EB0020B0FB6E
:1026F000F9F0203084B2FA2C00DDFF245148006844
:10270000801CE1B200904F4803685B1C02684046A1
:1027100001F01AF84B4B1B689A784A4B1B685978A2
:10272000484B1B68187809F0C9FA454921F81B0085
:102730000BF1010BBBF1190FC7DB002400203AE0BD
:10274000002135E03E4A32F814204B0000EB800CAB
:1027500003EB8C03DFF8F0C02CF81320384A32F872
:1027600014304A0000EB800C02EB8C02521CDFF8A4
:10277000D8C02CF81230324A32F814304A0000EB3C
:10278000800C02EB8C020A32DFF8BCC02CF812304D
:102790002B4A32F814304A0000EB800C02EB8C021A
:1027A0000B32DFF8A4C02CF81230621C94B2491C22
:1027B0000529C7DB401C0528C2DB002400202BE0D4
:1027C000002126E0204A32F8142000EB80039B0110
:1027D00005EB850C03EB4C030B4406EBC60C0CEB32
:1027E000061C03EBCC13DFF864C02CF81320164A48
:1027F00032F8142000EB80039B0105EB850C03EB02
:102800004C030B44DFF848C02CF81320621C94B230
:10281000491C0A29D6DB401C0A28D1DB6D1C202D5F
:10282000FFF44BAF761C182EFFF645AFBDE8FC9FBA
:1028300088DA02242C0000242E000024300000241A
:1028400088E0022438000024BAE0022482FA02243C
:1028500082E102242DE9F04F2DED028BB9B005463F
:102860000E46002415F8400F00F00F000090287865
:10287000C0F303192888C0F3032828881E2101EB20
:10288000103008EE100A6F88403D002025E08400DB
:1028900000F1220115F8111001F00F0121AA42F8F0
:1028A000241000F1220115F81110C1F3031221AB1D
:1028B000611C43F8212000F1220135F81110C1F309
:1028C0000322A11C43F8212000F1220135F8111048
:1028D0000A0BE11C43F82120401C0628D7DB00200E
:1028E0000CE021A951F82010072906DD21A951F893
:1028F0002010103921AA42F82010401C1828F0DBC3
:10290000002025E0840000F1280115F8111001F0E5
:102910000F0101AA42F8241000F1280115F8111046
:10292000C1F3031201AB611C43F8212000F128011F
:1029300035F81110C1F30322A11C43F8212000F146
:10294000280135F811100A0BE11C43F82120401C26
:102950000828D7DB00200CE001A951F82010072936
:1029600006DD01A951F82010103901AA42F8201003
:10297000401C2028F0DB4FF0000A86E04FF0000BEF
:102980007DE0202000FB0AB404F1400035F810007F
:10299000C0F3051000EE100AB8EEC00A06F14400BC
:1029A00000EB840080ED000A06F1440000EB840097
:1029B00090ED000AF3EE0F0AB4EEE00AF1EE10FA21
:1029C0000FDD06F1440000EB840090ED000ADFED1E
:1029D000330A30EE600A06F1440000EB840080ED1B
:1029E000000A06F1440000EB8400D0ED000A01214A
:1029F000009801FA00F000EE100AB8EEC00A20EECE
:102A0000800A06F1440000EB840080ED000A21A852
:102A100050F82A0000FA08F0C11901A850F82B005C
:102A200000FA09F0084400EE100AB8EEC00A06F1F8
:102A3000440000EB8400D0ED000A30EE200A06F1DD
:102A4000440000EB840080ED000AB8EE481BB0EEB5
:102A5000000B0AF091FC06F1440000EB840090EDBD
:102A6000001AB7EEC11A81EE002BB7EEC20B06F1C9
:102A7000440000EB840080ED000A0BF1010BBBF178
:102A8000200FFFF67EAF0AF1010ABAF1180FFFF628
:102A900075AF39B0BDEC028BBDE8F08F000080420D
:102AA0000EB5838A03F400631A1182F0800290F855
:102AB0006A3003F03F0300EE103AB8EEC00A8DED25
:102AC000000A9DED000AF3EE0F0AB4EEE00AF1EE03
:102AD00010FA07DD9DED000ADFED340A30EE600AE2
:102AE0008DED000A9DED000AF3EE000A80EE201A3B
:102AF0008DED001AB0F86A30C3F3841300EE103A7B
:102B0000B8EEC00A8DED010A9DED010AF2EE0E0A43
:102B1000B4EEE00AF1EE10FA07DD9DED010ADFEDFB
:102B2000240A30EE600A8DED010A9DED010AF0EEF7
:102B3000000A80EE201A8DED011AB0F86A30DB0A27
:102B400000EE103AB8EEC00A8DED020A9DED020AC1
:102B5000F2EE0E0AB4EEE00AF1EE10FA07DD9DED9A
:102B6000020ADFED130A30EE600A8DED020A9DEDD8
:102B7000020AF2EE000A80EE201A8DED021A81F8A8
:102B800025209DED000A01F5205383ED940A9DED6B
:102B9000010A42F650230B4483ED010A9DED020A1F
:102BA00042F650230B4483ED020A0EBD0000804222
:102BB00000000042F0B52DED048B83B004460D46B5
:102BC000B4F840001B2101EB103009EE100AB4F8F4
:102BD0007400C0F30900ADF80000BDF90000B0F5C5
:102BE000007F06DBBDF80000A0F5806000B2ADF804
:102BF0000000B4F87400800AADF80200BDF90200CC
:102C00001F2805DDBDF80200403800B2ADF8020013
:102C1000BDF80200BDF80010084400B2ADF8020093
:102C2000B4F87200C0F3090000EE100AB8EEC00A52
:102C30008DED010A9DED010ADFED5A0AB4EEE00ABE
:102C4000F1EE10FA07DD9DED010ADFED570A30EED7
:102C5000600A8DED010AB8EE491BB0EE000B0AF0D8
:102C60008BFB9DED011AB7EEC11A81EE002BB7EE7A
:102C7000C20B8DED010AB4F87200800A00EE100A52
:102C8000B8EEC00A8DED020A9DED020AF3EE0F0ABE
:102C9000B4EEE00AF1EE10FA07DD9DED020ADFED79
:102CA000430A30EE600A8DED020A9DED020ADFED67
:102CB000400A80EE201AB7EE000A31EE000ADDED80
:102CC000010A20EE200A8DED020A94F8760000EE4B
:102CD000100AF8EEC08A9FED370AF4EEC08AF1EED2
:102CE00010FA05DD9FED340A38EEC00AF0EE408A96
:102CF00094F87000C0F3031000F1080600EE106AAB
:102D0000B8EE401BB0EE000B0AF036FBB7EEE81A47
:102D100081EE002BB7EEC20B85ED080AB4F8760001
:102D2000000A00EE100AB8EEC08A9FED220AB4EE47
:102D3000C08AF1EE10FA05DD9FED1F0A38EE400A59
:102D4000B0EE408AB4F87000C0F3032700EE107AAA
:102D5000B8EE401BB0EE000B0AF00EFBB7EEC81A3F
:102D600081EE002BB7EEC20B85ED070A9DED010A3F
:102D700005F5205080ED910A9DED020A42F64420AF
:102D8000284480ED010ABDF8001042F64C20415362
:102D9000BDF8020042F64C212944488003B0BDEC46
:102DA000048BF0BD0080FF4300008044000080429F
:102DB000000000430000FE42000080432DE9F04780
:102DC00082460D4600240027A046A14600BF0DE024
:102DD0004FF6FF7042F65C21294421F8140042F6B8
:102DE0006621294421F81400601C84B2052CEFDB15
:102DF00000241EE004F140003AF8100038B942F611
:102E00005C20284420F81740781C87B20FE004F1BA
:102E100040001AF8100000F0010040B142F66620B0
:102E2000284420F8184008F101001FFA80F8601CBF
:102E300084B2B4F5407F04DA052F02DAB8F1050F49
:102E4000D8DB042F02DD6FF0020964E0B8F1040F53
:102E500002DD6FF003095EE007EB0800042802DDE5
:102E60006FF0040957E0002419E0661C13E042F6F5
:102E70005C222A4432F8161042F65C222A4432F8C8
:102E80001400FEF783FF8146B9F1000F02D04846D7
:102E9000BDE8F087761CBE42E9DB601C84B2BC4210
:102EA000E3DB002418E0661C12E042F666222A44A6
:102EB00032F8161042F666222A4432F81400FEF761
:102EC00065FF8146B9F1000F01D04846E0E7761C66
:102ED0004645EADB601C84B24445E4DB002418E08C
:102EE000002612E042F666222A4432F8161042F614
:102EF0005C222A4432F81400FEF748FF8146B9F1FB
:102F0000000F01D04846C3E7761C4645EADB601C4B
:102F100084B2BC42E4DB4846BAE70246B2F860300D
:102F200018B2B0F5004F00DB00B288827047000095
:102F3000B0F87820120A00EE902AF8EEE00AB0EE1F
:102F4000600ADFED0B0AB4EEE00AF1EE10FA05DDDF
:102F5000DFED080A70EE600AB0EE600ADFED060AE7
:102F600080EE201AB0EE410A81ED0A0A7047000097
:102F70000000FE42000080430000004630B57A3079
:102F80008288C2F3013202EB820254006FF0270202
:102F90008A870025CD870279C2F303154022555256
:102FA0008288C2F30325422255524022525A12FB14
:102FB00004F215B240225552B1F940504222525A01
:102FC00012FB045215B242225552027902F00F024E
:102FD00002F10803012202FA03F3027800EE102A3C
:102FE000B8EEC00A81ED0B0A0288120A00EE102A20
:102FF000B8EEC00A81ED0C0A827800EE102AB8EE15
:10300000C00A81ED0D0A42887A38120A00EE102AB1
:10301000B8EEC00A81ED0E0A00222FE001F12C0566
:1030200005EB820595ED000ADFED160AB4EEE00A25
:10303000F1EE10FA0FDD01F12C0505EB820595ED9F
:10304000000ADFED110A30EE600A01F12C0505EBF4
:10305000820585ED000A01F12C0505EB8205D5ED11
:10306000000A00EE103AB8EEC00A80EE801A01F1B4
:103070002C0505EB820585ED001A521C042ACDDBD8
:1030800030BD00000000FE42000080432DE9F04FFB
:1030900085B006460D460024B6F86C00000A4FFACB
:1030A00080FABAF17F0F01DD4FFA8AFA8DF810A08D
:1030B00096F86C004FFA80F8B8F17F0F01DD4FFAF7
:1030C00088F88DF81280B6F86E00000A47B27F2F9C
:1030D00000DD7FB28DF8117096F86E004FFA80F91E
:1030E000B9F17F0F01DD4FFA89F98DF8139096F849
:1030F0007000C0F303100830039096F8700000F0E1
:103100000F0002904FF0000BA5E0002000909CE023
:103110002021009801FB0B042046E31704EBD36346
:103120005B1121464FEAE47C04EB9C6C4FEAAC1C3B
:10313000A3EB4C03224604EBD27C4FEA6C0CA4EBCD
:103140004C0C4FF0020E0EFB03C3DBB20193403078
:1031500016F81000C0F3420000EE100AB8EEC00AE4
:1031600041F24420284400EB840080ED000A41F243
:103170004420284400EB840090ED000AF0EE080A99
:10318000B4EEE00AF1EE10FA11DD41F244202844D9
:1031900000EB840090ED000AF2EE000A30EE600AC7
:1031A00041F24420284400EB840080ED000A41F203
:1031B0004420284400EB8400D0ED000A012102984D
:1031C00001FA00F000EE100AB8EEC00A20EE800A04
:1031D00041F24420284400EB840080ED000A04A959
:1031E0000198085600EE100AB8EEC00A41F24420D9
:1031F000284400EB8400D0ED000A30EE200A41F2B2
:103200004420284400EB840080ED000A9DED030A71
:10321000B8EE401BB0EE000B0AF0AEF841F24420CD
:10322000284400EB840090ED001AB7EEC11A81EE3D
:10323000002BB7EEC20B41F24420284400EB84007F
:1032400080ED000A0098401C009000982028FFF6AE
:103250005FAF0BF1010BBBF1180FFFF656AF05B0D6
:10326000BDE8F08F2DE9FF5F05460E460024B5F856
:1032700068004FEA103ABAF1070F03DDAAF1100017
:103280004FFA80FA8DF80CA0B5F86800C0F3032857
:10329000B8F1070F03DDA8F110004FFA80F88DF8A0
:1032A0000E8095F86800C0F30317072F02DDA7F121
:1032B000100047B28DF80D7095F8680000F00F0906
:1032C000B9F1070F03DDA9F110004FFA80F98DF86D
:1032D0000F90B5F87000C0F303200290002000901A
:1032E00053E04FF0000B4AE02021009801FB00B4AE
:1032F0002046E31704EBD3635B1121464FEAE47CDD
:1033000004EB9C6C4FEAAC1CA3EB4C03224604EB91
:10331000D27C4FEA6C0CA4EB4C0C4FF0020E0EFB6F
:1033200003C3DBB2019303A8019BC05600EE100A51
:10333000B8EEC00A41F64460304400EB840080EDF2
:10334000000A9DED020AB8EE401BB0EE000B0AF039
:1033500013F841F64460304400EB840090ED001A0D
:10336000B7EEC11A81EE002BB7EEC20B41F64460F6
:10337000304400EB840080ED000A0BF1010BBBF13F
:10338000200FB1DB0098401C009000981828A8DBA3
:10339000BDE8FF9F2DE9F043B8B00246002092F847
:1033A000203003F00F0C92F82030C3F30317138C76
:1033B000C3F30326538C1DB2B5F5004F00DB2DB2CD
:1033C000002328E0980003F1120412F8144004F0DE
:1033D0000F040DF1800848F8204003F1120412F8A0
:1033E0001440C4F303180DF18009441C49F82480EB
:1033F00003F1120432F81440C4F30328841C49F882
:10340000248003F1120432F814404FEA1438C41C2B
:1034100049F824805B1C062BD4DB00230DE020AC94
:1034200054F82340072C07DD20AC54F82340103C0F
:103430000DF1800848F823405B1C182BEFDB0023BC
:1034400024E0980003F1180412F8144004F00F046B
:103450004DF8204003F1180412F81440C4F3031887
:10346000441C4DF8248003F1180432F81440C4F3CE
:103470000328841C4DF8248003F1180432F814400A
:103480004FEA1438C41C4DF824805B1C082BD8DB91
:10349000002309E05DF82340072C04DD5DF823409C
:1034A000103C4DF823405B1C202BF3DB00234CE049
:1034B000002447E04FF0200808FB034000F14008DB
:1034C00032F818804FEA982901F6444828F81090FD
:1034D00038F91080B8F11F0F0BDD01F6444838F8B9
:1034E0001080A8F140080FFA88F901F6444828F83E
:1034F000109001F6444838F810804FF0010909FA9D
:103500000CF908FB09F80FFA88F901F6444828F885
:1035100010900DF1800838F8238008FA06F808EBBF
:1035200005093DF8248008FA07F8C14401F644482B
:1035300038F81080C8440FFA88F901F6444828F892
:103540001090641C202CB5DB5B1C182BB0DB38B052
:10355000BDE8F08370B52DED048B04460D46B4F83C
:103560006400800A00EE100AB8EEC00AF0EE408A4D
:10357000B3EE0F0AF4EEC08AF1EE10FA05DD9FED0E
:10358000250A38EEC00AF0EE408A9FED230AC8EE05
:10359000800AF0EE608AB4F86400C0F3090000EE1F
:1035A000100AB8EEC08A9FED1D0AB4EEC08AF1EE93
:1035B00010FA05DD9FED1A0A38EE400AB0EE408A97
:1035C000B2EE000AC8EE000AB0EE608AB4F86200FB
:1035D00006B2B2EE0C1BB0EE000B09F0CDFEB0EE61
:1035E000401B208C00F4704000EE100AB8EEC00BB7
:1035F00080EE012BB2EE000B32EE000BB7EEC09B5B
:10360000C5ED018A85ED028AAE8185ED049ABDEC97
:10361000048B70BD00008042000080450080FF43A5
:1036200000008044B0F87030C3F3013281F82420E8
:103630007047000090F8782000EE902AF8EEE00A3B
:10364000B0EE600ADFED0A0AB4EEE00AF1EE10FA1D
:1036500005DDDFED080A70EE600AB0EE600ADFED0E
:10366000060A80EE201AB0EE410A81ED060A704784
:103670000000FE42000080430000004230B50A46D0
:10368000B0F8664021B2B0F86640210A7F2902DD19
:10369000A1F5807421B24C0121B290F86630A3F5F7
:1036A00080744FF40055C5EB44131180538030BD36
:1036B0002DE9F04F04460D4616464FF00009002054
:1036C0003CE0215C2039CFB25E2F00DB00271D4992
:1036D00001EB071C00212DE01CF80180002225E0F1
:1036E0004FF0800A4AFA02FA0AEA080ABAF1000F11
:1036F0000CD04FEA411A0AF1080AAAEB020A4FF06D
:10370000080B0BFB00AA23F81A500BE04FEA411AF2
:103710000AF1080AAAEB020A4FF0080B0BFB00AAF9
:1037200023F81A6002F1010A0AF0FF02082AD7DB27
:103730004A1CD1B21029CFDB411CC8B20428C0DB1F
:10374000BDE8F08F8A0901082DE9F0472DED028BC5
:1037500080460C4615461E460A9FB8F10B0F7DD2D7
:10376000DFE808F07C0619A8FDFCFBFAF9F8F70081
:103770006042002801DB014600E041422970C4F1AB
:103780007F00002801DB014600E041423170C4F1B6
:10379000FF003870C8E2002C19DB3F2C17DC00203A
:1037A00028703070A146E01704EB90608011C0EBE8
:1037B000002001EE100AB8EEC11BB0EE410B0AF07A
:1037C00057FABCEEC00B10EE100A387071E0402CB6
:1037D00030DB7F2C2EDC00202870A4F14000C0EBF1
:1037E00000294FEAE97009EB9060801101EE100AA0
:1037F000B8EEC11BB0EE410B0AF03AFABCEEC00BBA
:1038000010EE100A3070C4F17F00C0EB00294FEABF
:10381000E97009EB9060801101EE100AB8EEC11B4F
:10382000B0EE410B0AF024FABCEEC00B10EE100A09
:1038300038703EE0802C1EDBBF2C1CDCA4F1800025
:10384000C0EB00294FEAE97009EB9060801101EEAE
:10385000100AB8EEC11BB0EE410B00E0F0E30AF035
:1038600007FABCEEC00B10EE100A2870FF20307073
:10387000002038701DE0C02C1BDBFF2C19DCFF2062
:103880002870C4F1FF00C0EB00294FEAE97009EB92
:103890009060801101EE100AB8EEC11BB0EE410B32
:1038A0000AF0E6F9BCEEC00B10EE100A30700020F2
:1038B000387039E2002C19DB3F2C17DC002028700F
:1038C0003070C4EB04294FEAE97009EB9060801175
:1038D00001EE100AB8EEC11BB0EE410B0AF0C8F9B8
:1038E000BCEEC00B10EE100A3870AFE0402C37DB96
:1038F0005F2C35DCA4F13F00C0EBC0194FEAE97042
:1039000009EBD060401101EE100AB8EEC11BB0EE19
:10391000410B0AF0ADF9BCEEC00B10EE100A287096
:10392000A4F13F00C0EBC0194FEAE97009EBD06089
:10393000401101EE100AB8EEC11BB0EE410B0AF0C7
:1039400097F9BCEEC00B10EE100A3070FF203870F3
:103950007CE0CBE394E302E39AE2E6E11AE176E06D
:10396000602C4CDB7F2C4ADCA4F15F00C0EBC0195B
:103970004FEAE97009EBD060401101EE100AB8EE91
:10398000C11BB0EE410B0AF073F99FEDF71B30EE4F
:10399000010BBCEEC00B10EE100A2870A4F15F0002
:1039A000C0EBC0194FEAE97009EBD060401101EE9D
:1039B000100AB8EEC11BB0EE410B0AF059F99FEDA9
:1039C000EA1B30EE010BBCEEC00B10EE100A30709B
:1039D000C4F17F00C0EB00294FEAE97009EBD06029
:1039E000401101EE100AB8EEC11BB0EE410B0AF017
:1039F0003FF9BCEEC00B10EE100A387026E0802CA8
:103A000007DBBF2C05DCFF202870307000203870E9
:103A10001CE0C02C1ADBFF2C18DCFF202870307053
:103A2000A4F1C000C0EB00294FEAE97009EB9060F7
:103A3000801101EE100AB8EEC11BB0EE410B0AF086
:103A400017F9BCEEC00B10EE100A387053E30020DB
:103A5000287030703870002C03DB102C01DC2870CB
:103A60001EE0112C16DB8C2C14DCA4F11000C0EB32
:103A700000207C2190FBF1F000EE100AB8EEC00BA4
:103A8000B0EE408B0AF0F4F8BCEEC00B10EE100A5A
:103A9000287005E08D2C03DBFF2C01DCFF20287053
:103AA000002C04DB652C02DC002030701EE0662C4C
:103AB00016DBDA2C14DCA4F16500C0EB00207521C4
:103AC00090FBF1F000EE100AB8EEC00BB0EE408BA8
:103AD0000AF0CEF8BCEEC00B10EE100A307005E014
:103AE000DB2C03DBFF2C01DCFF203070002C19DB0A
:103AF0005B2C17DC20465B2190FBF1F064214843EE
:103B000000EE100AB8EEC00BB0EE408B0AF0B0F831
:103B1000B3EE0C1B30EE010BBCEEC00B10EE100A26
:103B2000387036E05C2C15DB782C13DCC4F178009F
:103B3000C0011D2190FBF1F000EE100AB8EEC00BA1
:103B4000B0EE408B0AF094F8BCEEC00B10EE100AF9
:103B500038701EE0812C04DBD62C02DC002038708B
:103B600017E0D72C15DBFF2C13DCA4F1D600C0EB3B
:103B70000020292190FBF1F000EE100AB8EEC00BF6
:103B8000B0EE408B0AF074F8BCEEC00B10EE100AD9
:103B90003870B0E2002C19DB1F2C17DC00202870D5
:103BA0003070A146E01704EBD0604011C0EB00205C
:103BB00001EE100AB8EEC11BB0EE410B0AF058F846
:103BC000BCEEC00B10EE100A3870ADE0202C1CDBF0
:103BD0003F2C1ADC00202870A4F12000C0EB002943
:103BE0004FEAE97009EBD060401101EE100AB8EE1F
:103BF000C11BB0EE410B0AF03BF8BCEEC00B10EE5F
:103C0000100A3070FF2038708EE0402C1CDB5F2CD7
:103C10001ADC00202870FF203070C4F15F00C0EB78
:103C200000294FEAE97009EBD060401101EE100A5B
:103C3000B8EEC11BB0EE410B0AF01AF8BCEEC00B97
:103C400010EE100A38706FE0602C1CDB7F2C1ADC41
:103C5000A4F16000C0EB00294FEAE97009EBD060E5
:103C6000401101EE100AB8EEC11BB0EE410B09F095
:103C7000FFFFBCEEC00B10EE100A2870FF20307062
:103C80000020387050E0802C1CDBBF2C1ADCFF2099
:103C90002870C4F1BF00C0EB00294FEAE97009EBBE
:103CA0009060801101EE100AB8EEC11BB0EE410B1E
:103CB00009F0DEFFBCEEC00B10EE100A30700020E1
:103CC000387031E0C02C2FDBFF2C2DDCFF2028705A
:103CD000A4F1C000C0EB00294FEAE97009EB906045
:103CE000801101EE100AB8EEC11BB0EE410B09F0D5
:103CF000BFFFBCEEC00B10EE100A3070A4F1C00084
:103D0000C0EB00294FEAE97009EB9060801101EEE9
:103D1000100AB8EEC11BB0EE410B09F0A9FFBCEED2
:103D2000C00B10EE100A3870E5E1002C20DB3F2CB0
:103D30001EDC002028702046C0EB00294FEAE97005
:103D400009EB9060801101EE100AB8EEC11BB0EED5
:103D5000410B09F08DFFBCEEC00B10EE100A307065
:103D6000FF20387093E00000000000000000604079
:103D7000402C1CDB5F2C1ADC00202870FF203070E8
:103D8000C4F15F00C0EB00294FEAE97009EBD06095
:103D9000401101EE100AB8EEC11BB0EE410B09F064
:103DA00067FFBCEEC00B10EE100A38706FE0602C9D
:103DB0001CDB7F2C1ADCA4F16000C0EB00294FEA69
:103DC000E97009EBD060401101EE100AB8EEC11B9A
:103DD000B0EE410B09F04CFFBCEEC00B10EE100A28
:103DE0002870FF2030700020387050E0802C1CDBE1
:103DF000BF2C1ADCFF202870C4F1BF00C0EB0029E3
:103E00004FEAE97009EB9060801101EE100AB8EEFC
:103E1000C11BB0EE410B09F02BFFBCEEC00B10EE46
:103E2000100A30700020387031E0C02C2FDBFF2CDE
:103E30002DDCFF202870A4F1C000C0EB00294FEA60
:103E4000E97009EB9060801101EE100AB8EEC11B19
:103E5000B0EE410B09F00CFFBCEEC00B10EE100AE7
:103E60003070A4F1C000C0EB00294FEAE97009EB03
:103E70009060801101EE100AB8EEC11BB0EE410B4C
:103E800009F0F6FEBCEEC00B10EE100A387032E1FD
:103E9000002C09DB332C07DC0020287004EB8400A5
:103EA0003070FF20387059E0342C0DDB662C0BDCB1
:103EB00000202870FF203070A4F1330000EB800058
:103EC000C0F1FF00387049E0672C0BDB992C09DC4E
:103ED000A4F1660000EB80002870FF203070002005
:103EE00038703BE09A2C1BDBCC2C19DCFF202870AF
:103EF000A4F19900C001332190FBF1F0C0F1FF0063
:103F000000EE100AB8EEC00BB0EE408B09F0B0FE28
:103F1000BCEEC00B10EE100A3070002038701DE0AF
:103F2000CD2C1BDBFF2C19DCFF202870A4F1CC006A
:103F3000C0EBC010332190FBF1F0C0F17F0000EE28
:103F4000100AB8EEC00BB0EE408B09F091FEBCEE4B
:103F5000C00B10EE100A307000203870CBE0002C3F
:103F60001CDB3F2C1ADC00202870C4F14000C0EBA1
:103F700000294FEAE97009EB9060801101EE100A08
:103F8000B8EEC11BB0EE410B09F072FEBCEEC00BE7
:103F900010EE100A3070FF20387070E0402C30DBDB
:103FA0007F2C2EDC00202870A4F14000C0EB0029FB
:103FB0004FEAE97009EB9060801101EE100AB8EE4B
:103FC000C11BB0EE410B09F053FEBCEEC00B10EE6E
:103FD000100A3070C4F17F00C0EB00294FEAE9708D
:103FE00009EB9060801101EE100AB8EEC11BB0EE33
:103FF000410B09F03DFEBCEEC00B10EE100A38700C
:104000003DE0802C1DDBBF2C1BDCA4F18000C0EB4D
:1040100000294FEAE97009EB9060801101EE100A67
:10402000B8EEC11BB0EE410B09F022FEBCEEC00B96
:1040300010EE100A2870FF203070002038701EE04B
:1040400058E0C02C1BDBFF2C19DCFF202870C4F1CA
:10405000FF00C0EB00294FEAE97009EB9060801186
:1040600001EE100AB8EEC11BB0EE410B09F000FEE4
:10407000BCEEC00B10EE100A3070002038703AE031
:10408000002C0ADB3F2C08DC00202870A000C0F1C7
:10409000FE003070FF20387027E0402C0BDB7F2CB7
:1040A00009DC00202870A000801C3070A000C0F542
:1040B000FF70387019E0802C09DBBF2C07DCA000F2
:1040C000801C2870FF203070002038700DE0C02C5C
:1040D0000BDBFF2C09DCFF20287040F2FE300421AE
:1040E00001FB140030700020387004E02C70347034
:1040F0003C7000E000BF00BFBDEC028BBDE8F08764
:10410000704700000349884203D10121014A82F827
:10411000501070471003002470B5044620680569EC
:1041200005F0040004280ED121684861E06C40F0DD
:104130000200E064042084F835002348A16C08657F
:10414000A06C01F097F805F0020002280ED121685A
:104150004861E06C40F00100E064042084F8350020
:104160001948A16C0865A06C01F084F805F01000F6
:10417000102804D121684861204600F077F805F046
:104180000800082804D121684861204600F0FEFAA2
:1041900005F00100B8B12068006800F002000228B4
:1041A00005D12068C06820F01E002168C860206822
:1041B000C06820F001002168C860012021684861C2
:1041C0002046FFF79FFF70BDDB1D000810B50446B9
:1041D0000CB9012010BD94F8350010B9204600F04C
:1041E00047F8022084F83500A06908B10021616217
:1041F000206800681C49084021680860616960689F
:104200000843E168084321690843A1680843A1699C
:104210000843216A0843616A0843A16A0843E16AC6
:104220000843216B08432168096808432168086036
:10423000606810280BD1217F607F41EA0021A07FB8
:1042400041EA0041E07F41EA00602168886120681E
:10425000C06840F01E002168C8600020E0640120B2
:1042600084F835000020B5E707F0E0FF7047000054
:1042700010B586B00446142101A8FCF7AFF9CE486A
:1042800084427DD100BF00BFCC48006840F00100EF
:10429000CA4908600846006800F00100009000BFAD
:1042A00000BF00BF00BF00BF081F006840F0020051
:1042B000091F08600846006800F00200009000BF77
:1042C00000BF00BF00BF00BFBC48001D006840F039
:1042D0000200BA49091D08600846006800F00200A3
:1042E000009000BF00BF00BF00BF00BF08460068CD
:1042F00040F0010008600846006800F001000090EE
:1043000000BF00BF00BF00BF00BF0846006840F00C
:10431000010008600846006800F00100009000BF3E
:1043200000BF00BF00BF00BF0846006840F00400A7
:1043300008600846006800F00400009000BF00BF5D
:1043400000BF00BF00BF0846006840F004000860DE
:104350000846006800F00400009000BF00BF00BFE6
:1043600000BF00BF0846006840F00400086008462F
:10437000006800F00400009000BF00BF00BF00E034
:1043800017E100BF00BF0846006840F00400086065
:104390000846006800F00400009000BF00BF00BFA6
:1043A00000BF00BF0846006840F0040008600846EF
:1043B000006800F00400009000BF00BF00BF00BF15
:1043C00000BF0846006840F0080008600846006822
:1043D00000F00800009000BF00BF00BF00BF00BF9A
:1043E0000846006840F0100008600846006800F0C9
:1043F0001000009000BF00BF00BF00BF00BF084614
:10440000006840F0100008600846006800F01000E6
:10441000009000BF00BF00BF8020019002200290EA
:1044200001200390022004900D20059001A964480A
:1044300002F0B2FB102001900220029001200390B4
:10444000022004900D20059001A95E4802F0A4FB13
:10445000402001900220029001200390022004904D
:104460000D20059001A9574802F096FB40200190CD
:104470000220029001200390022004900D2005905C
:1044800001A9514802F088FB80200190022002908F
:1044900001200390022004900D20059001A94A48B4
:1044A00002F07AFB4FF4807001900220029001200C
:1044B0000390022004900D20059001A9424802F0CB
:1044C0006BFB4FF4007001900220029001200390DA
:1044D000022004900D20059001A93B4802F05CFBEE
:1044E0004FF400600190022002900120039002200E
:1044F00004900D20059001A9334802F04DFB0820DF
:1045000001900220029001200390022004900D20CF
:10451000059001A92D4802F03FFB202001900220C8
:10452000029001200390022004900D20059001A923
:10453000274802F031FB4020019002200290012028
:104540000390022004900D20059001A9204802F05C
:1045500023FB2048204908604B20486000211E486A
:104560008160C16001614FF4805141614900816106
:104570004911C16149020162042141620121816244
:104580000021C162016300BFA064846300BF01F029
:10459000BDFD022211464E2002F0F7FC4E2002F033
:1045A000E0FC03220221392002F0EFFC392002F066
:1045B000D8FC06B010BD000010030024DC440258F3
:1045C000000402580000025800080258000C02586B
:1045D0000010025828040240640300242DE9F84327
:1045E00004460F4615461E4600BF94F834000128C5
:1045F00002D10220BDE8F883012084F8340000BF16
:10460000022084F835002068006840F4804021686A
:1046100008602068006820F00200216808602068B7
:1046200000683843216808603248A16CC86332488A
:10463000A16CC8640020A16C0865A0632064E063DD
:104640006064B6F5803F15D2226802F12801334636
:104650002A46A06C01F0EAFF00283DD04020E0642B
:10466000012084F8350000BF002084F8340000BF2A
:104670000120BFE71F48A16C48640120A063E663E6
:10468000656405E0E06B4008E063A06B4000A06358
:10469000E06BB0F5803FF5D2A06B801EA063A06BED
:1046A0002064E06B042101FB0058E06B009022685D
:1046B00002F1280143462A46A06C00F0D1F858B117
:1046C0004020E064012084F8350000BF002084F819
:1046D000340000BF01208DE72068006840F0010031
:1046E0002168086000BF002084F8340000BF00BFCC
:1046F00080E70000FF1D0008DB1D000870B50446C0
:1047000021480068C0084FF47A71B0FBF1F000FB5B
:1047100001F5002600BF94F83400012801D10220E1
:1047200070BD012084F8340000BF022084F83500F9
:104730002068006820F001002168086000BF6D1E3D
:104740002DB9E06C40F02000E064032605E020680D
:10475000006800F001000028F1D100BF2068006867
:1047600020F4804021680860A06C00F015FBE06C2C
:10477000E064012084F8350000BF002084F8340094
:1047800000BF3046CCE70000040000247047000062
:1047900010B50346304C1868A04249D02E4C18344E
:1047A0001868A04244D02C4C30341868A0423FD046
:1047B000294C48341868A0423AD0274C6034186815
:1047C000A04235D0244C78341868A04230D0224C16
:1047D00090341868A0422BD01F4CA8341868A0420F
:1047E00026D01E4C1868A04222D01C4C18341868E1
:1047F000A0421DD0194C30341868A04218D0174C74
:1048000048341868A04213D0144C60341868A04291
:104810000ED0124C78341868A04209D00F4C903456
:104820001868A04204D00D4CA8341868A04201D1E9
:10483000012000E0002030B112B91868C16008E022
:104840001868016105E012B91868C16001E01868D4
:104850000161002010BD0000100002401004024061
:104860002DE9F04704460F4690461E46DDF820909D
:104870004FF0000AA068802804D140006065012044
:10488000BDE8F08700BF94F83400012801D1022070
:10489000F6E7012084F8340000BF94F835000128C1
:1048A0007ED1022084F8350000206065F949206837
:1048B000884249D0F74918312068884244D0F549E8
:1048C0003031206888423FD0F24948312068884220
:1048D0003AD0F04960312068884235D0ED497831CE
:1048E0002068884230D0EB499031206888422BD034
:1048F000E849A8312068884226D0E74920688842E4
:1049000022D0E5491831206888421DD0E249303173
:104910002068884218D0E04948312068884213D086
:10492000DD496031206888420ED0DB49783120684B
:10493000884209D0D84990312068884204D0D649AD
:10494000A8312068884201D1012000E0002090B108
:104950002068006840F480202168086020680661B3
:10496000A06D00F1080594F85C0000F01F013F20E5
:104970008840286011E02068006848F22001084360
:104980002168086020680661A06D051D94F85C0030
:1049900000F01F010120884028604B46424600E09D
:1049A000EFE139462046FDF727FCBA4920688842E6
:1049B00070D0B8491831206888426BD0B549303181
:1049C0002068884266D0B34948312068884261D067
:1049D000B0496031206888425CD0AE4978312068A7
:1049E000884257D0AB4990312068884252D0A949BB
:1049F000A831206888424DD0A7492068884249D014
:104A0000A54918312068884244D0A3493031206834
:104A100088423FD0A0494831206888423AD09E4918
:104A200060312068884235D09B49783120688842BF
:104A300030D099499031206888422BD09649A831CE
:104A40002068884226D095492068884222D0934920
:104A50001431206888421DD090492831206888424E
:104A600018D08E493C312068884213D08B49503190
:104A7000206888420ED0894964312068884209D074
:104A8000864978312068884204D084498C31206876
:104A9000884201D1012000E0002038B1D4E919108A
:104AA0004860E06E10B1D4E91C1048607949206874
:104AB000884249D0774918312068884244D07549E6
:104AC0003031206888423FD072494831206888429E
:104AD0003AD0704960312068884235D06D497831CC
:104AE0002068884230D06B499031206888422BD0B2
:104AF0006849A8312068884226D0674920688842E2
:104B000022D065491831206888421DD06249303171
:104B10002068884218D0604948312068884213D004
:104B20005D496031206888420ED05B497831206849
:104B3000884209D0584990312068884204D05649AB
:104B4000A8312068884201D1012000E00020C0B1D6
:104B50002068006820F01E0040F016002168086000
:104B60002068406940F0800021684861206C08B9E5
:104B7000A06CC0B12068006840F00800216808609F
:104B800011E02068006820F00E0040F00A00216863
:104B90000860206C08B9A06C28B12068006840F05B
:104BA0000400216808603B492068884270D0394978
:104BB0001831206888426BD03649303120688842ED
:104BC00066D0344948312068884261D0314960312B
:104BD000206888425CD02F4978312068884257D0BD
:104BE0002C4990312068884252D02A49A831206847
:104BF00088424DD028492068884249D0264918313A
:104C00002068884244D024493031206888423FD00F
:104C100021494831206888423AD01F4960312068D4
:104C2000884235D01C4978312068884230D01A49F2
:104C30009031206888422BD01749A83120688842DB
:104C400026D016492068884222D0144914312068A1
:104C500088421DD0114928312068884218D00F4958
:104C60003C312068884213D00C495031206888427A
:104C70000ED00A4964312068884209D0074978314A
:104C80002068884204D005498C312068884207D1C9
:104C9000012006E0100002401004024008540258AF
:104CA000002090B1206E006800F4803028B1206EA2
:104CB000006840F48070216E0860E06E28B1E06EFC
:104CC000006840F48070E16E0860314920688842D5
:104CD00049D02F4918312068884244D02C493031BE
:104CE000206888423FD02A494831206888423AD01B
:104CF000274960312068884235D0254978312068BD
:104D0000884230D022499031206888422BD02049F7
:104D1000A8312068884226D01E492068884222D0C7
:104D20001C491831206888421DD01A49303120684A
:104D3000884218D0174948312068884213D0154955
:104D40006031206888420ED012497831206888424C
:104D500009D0104990312068884204D00D49A8310B
:104D60002068884206D12068006840F00100216870
:104D700008600BE02068006840F0010021680860CE
:104D800004E04FF4006060654FF0010A504677E59B
:104D900010000240100402402DE9F041044602F0E8
:104DA0000DF8804614B90120BDE8F08194F8350073
:104DB000022808D08020606500BF002084F83400FD
:104DC00000BF0120F0E7FE492068884249D0FC4935
:104DD00018312068884244D0F9493031206888422F
:104DE0003FD0F7494831206888423AD0F4496031D1
:104DF0002068884235D0F24978312068884230D026
:104E0000EF499031206888422BD0ED49A8312068C5
:104E1000884226D0EB492068884222D0E9491831DF
:104E2000206888421DD0E74930312068884218D078
:104E3000E44948312068884213D0E2496031206853
:104E400088420ED0DF4978312068884209D0DD4998
:104E500090312068884204D0DA49A831206888421D
:104E600001D1012000E0002068B12068006820F036
:104E70001E00216808602068406920F080002168D9
:104E80004861256806E02068006820F00E0021686F
:104E900008602568CA492068884270D0C84918311E
:104EA000206888426BD0C64930312068884266D07D
:104EB000C34948312068884261D0C14960312068C7
:104EC00088425CD0BE4978312068884257D0BC49BE
:104ED00090312068884252D0B949A8312068884270
:104EE0004DD0B8492068884249D0B6491831206869
:104EF000884244D0B3493031206888423FD0B1491C
:104F00004831206888423AD0AE49603120688842F2
:104F100035D0AC4978312068884230D0A9499031E9
:104F2000206888422BD0A749A8312068884226D023
:104F3000A5492068884222D0A349143120688842BC
:104F40001DD0A14928312068884218D09E493C31A3
:104F50002068884213D09C495031206888420ED086
:104F6000994964312068884209D09749783120688E
:104F7000884204D094498C312068884201D10120B4
:104F800000E0002028B1206E006820F48070216EBF
:104F900008608B492068884249D0894918312068C7
:104FA000884244D086493031206888423FD08449C5
:104FB0004831206888423AD081496031206888426F
:104FC00035D07F4978312068884230D07C49903193
:104FD000206888422BD07A49A8312068884226D0A0
:104FE00078492068884222D0764918312068884262
:104FF0001DD0744930312068884218D07149483139
:105000002068884213D06F496031206888420ED0F2
:105010006C4978312068884209D06A49903120680B
:10502000884204D06749A8312068884206D12068A8
:10503000006820F001002168086005E02068006831
:1050400020F001002168086011E001F0B7FEA0EB3C
:10505000080005280BD920206065032084F835005E
:1050600000BF002084F8340000BF01209CE62868BF
:1050700000F001000028E8D151492068884249D059
:105080004F4918312068884244D04D49303120685A
:1050900088423FD04A494831206888423AD048493E
:1050A00060312068884235D045497831206888428F
:1050B00030D043499031206888422BD04049A831F4
:1050C0002068884226D03F492068884222D03D4946
:1050D0001831206888421DD03A4930312068884212
:1050E00018D0384948312068884213D0354960319A
:1050F000206888420ED0334978312068884209D030
:10510000304990312068884204D02E49A831206867
:10511000884201D1012000E0002040B1A66D94F842
:105120005C0000F01F013F208840B06007E0A76DE1
:1051300094F85C0000F01F0101208840786020494D
:105140002068884276D01E4918312068884271D084
:105150001B493031206888426CD019494831206899
:10516000884267D0164960312068884262D014496D
:105170007831206888425DD011499031206888429A
:1051800058D00F49A8312068884253D00D49206873
:1051900088424FD00B491831206888424AD00949CB
:1051A00030312068884245D006494831206888421D
:1051B00040D004496031206888423BD0014905E075
:1051C0001000024010040240085402587831206850
:1051D00088422FD02549206888422BD02349183196
:1051E0002068884226D022492068884222D020495F
:1051F0001431206888421DD01D492831206888421A
:1052000018D01B493C312068884213D018495031CE
:10521000206888420ED0164964312068884209D03F
:10522000134978312068884204D011498C312068B4
:10523000884201D1012000E0002068B1D4E91910B2
:105240004860E06E40B1E06E006820F48070E16E6E
:105250000860D4E91C104860012084F8350000BFC4
:10526000002084F8340000BF00BF9DE5A004024088
:105270000854025870B504460CB9012070BD94F86A
:105280003500022803D0802060650120F6E7DC4964
:105290002068884249D0DA4918312068884244D0D1
:1052A000D7493031206888423FD0D54948312068FD
:1052B00088423AD0D24960312068884235D0D049FE
:1052C00078312068884230D0CD49903120688842BA
:1052D0002BD0CB49A8312068884226D0C949206804
:1052E000884222D0C7491831206888421DD0C5495C
:1052F00030312068884218D0C2494831206888423D
:1053000013D0C0496031206888420ED0BD49783141
:105310002068884209D0BB4990312068884204D077
:10532000B849A8312068884201D1012000E000205E
:10533000F0B3042084F83500B149206888424BD08E
:10534000AF4918312068884246D0AD4930312068D5
:10535000884241D0AA494831206888423CD0A849B7
:1053600060312068884237D0A5497831206888426A
:1053700032D0A3499031206888422DD0A049A8316D
:105380002068884228D09F492068884224D09D49BF
:105390001831206888421FD09A49303120688842ED
:1053A0001AD0984948312068884215D0954900E0C4
:1053B00020E06031206888420ED092497831206820
:1053C000884209D08F4990312068884204D08D49A5
:1053D000A8312068884206D12068006820F00100CA
:1053E0002168086009E12068006820F00100216858
:1053F000086002E12068006820F00E002168086063
:105400007F492068884249D07D4918312068884208
:1054100044D07B493031206888423FD078494831B8
:10542000206888423AD0764960312068884235D079
:10543000734978312068884230D0714990312068B2
:1054400088422BD06E49A8312068884226D06D4909
:105450002068884222D06B491831206888421DD0CC
:10546000684930312068884218D066494831206840
:10547000884213D063496031206888420ED0614968
:1054800078312068884209D05E499031206888428E
:1054900004D05C49A8312068884206D120680068A1
:1054A00020F001002168086005E02068006820F015
:1054B00001002168086052492068884270D0504934
:1054C0001831206888426BD04D49303120688842BD
:1054D00066D04B4948312068884261D048496031E4
:1054E000206888425CD0464978312068884257D08D
:1054F000434990312068884252D04149A831206800
:1055000088424DD03F492068884249D03D491831F2
:105510002068884244D03B493031206888423FD0DF
:1055200038494831206888423AD03649603120688D
:10553000884235D0334978312068884230D03149AB
:105540009031206888422BD02E49A83120688842AB
:1055500026D02D492068884222D02B49143120685A
:1055600088421DD0284928312068884218D0264911
:105570003C312068884213D023495031206888424A
:105580000ED0214964312068884209D01E49783103
:105590002068884204D01C498C312068884201D19F
:1055A000012000E00020D8B1206E006820F4807057
:1055B000216E0860A56D94F85C0000F01F010120C9
:1055C00088406860D4E919104860E06E40B1E06E30
:1055D000006820F48070E16E0860D4E91C10486017
:1055E000012084F8350000BF002084F8340000BF9B
:1055F000206D10B12046216D884700203EE6000056
:105600001000024010040240085402580146486D40
:10561000704700002DE9F84F044600200090FE4836
:1056200000684FF41651B0FBF1FAA66DD4F858801B
:105630003768D8F80090F9492068884249D0F7497E
:1056400018312068884244D0F449303120688842BB
:105650003FD0F2494831206888423AD0EF49603162
:105660002068884235D0ED4978312068884230D0B2
:10567000EA499031206888422BD0E849A831206857
:10568000884226D0E6492068884222D0E449183171
:10569000206888421DD0E24930312068884218D005
:1056A000DF4948312068884213D0DD4960312068E5
:1056B00088420ED0DA4978312068884209D0D8492A
:1056C00090312068884204D0D549A83120688842AA
:1056D00001D1012000E0002000287DD094F85C007A
:1056E00000F01F01082088403840002868D0CB49CE
:1056F0002068884249D0C94918312068884244D07E
:10570000C6493031206888423FD0C44948312068BA
:1057100088423AD0C14960312068884235D0BF49BB
:1057200078312068884230D0BC4990312068884266
:105730002BD0BA49A8312068884226D0B8492068C1
:10574000884222D0B6491831206888421DD0B44919
:1057500030312068884218D0B149483120688842E9
:1057600013D0AF496031206888420ED0AC497831FF
:105770002068884209D0AA4990312068884204D024
:10578000A749A8312068884204D12068006800F049
:10579000040003E02068006800F0080080B1206881
:1057A000006820F004002168086094F85C0000F0B4
:1057B0001F0108208840B060606D40F00100606506
:1057C00094F85C0000F01F01012088403840E8B3E5
:1057D00092492068884200E0B7E24BD08F491831E7
:1057E0002068884246D08D4930312068884241D0B7
:1057F0008A494831206888423CD088496031206815
:10580000884237D0854978312068884232D0834930
:105810009031206888422DD08049A8312068884284
:1058200028D07F492068884224D07D4918312068DB
:1058300088421FD07A493031206888421AD078498E
:1058400048312068884215D0754900E026E0603173
:10585000206888420ED0724978312068884209D089
:105860006F4990312068884204D06D49A831206882
:10587000884204D12068406900F0800002E020687E
:105880000068002050B194F85C0000F01F01012076
:105890008840B060606D40F00200606594F85C0084
:1058A00000F01F01042088403840E8B35B492068BD
:1058B00088424BD0594918312068884246D0574910
:1058C00030312068884241D05449483120688842AC
:1058D0003CD0524960312068884237D04F497831F6
:1058E0002068884232D04D499031206888422DD0BE
:1058F0004A49A8312068884228D04949206888420E
:1059000024D047491831206888421FD0444930319B
:10591000206888421AD0424948312068884215D010
:105920003F496031206800E024E088420ED03C49C5
:1059300078312068884209D03949903120688842FE
:1059400004D03749A8312068884204D12068006813
:1059500000F0020002E020680068002050B194F8D6
:105960005C0000F01F0104208840B060606D40F0D2
:105970000400606594F85C0000F01F01102088406E
:105980003840E8B325492068884251D0234918316E
:10599000206888424CD0214930312068884247D065
:1059A0001E4948312068884242D01C496031206835
:1059B00088423DD0194978312068884238D017494B
:1059C00090312068884233D01449A8312068884239
:1059D0002ED01349206888422AD0114918312068F6
:1059E000884225D00E4930312068884220D00C49A9
:1059F0004831206888421BD009496031206800E0A6
:105A00004DE0884214D006497831206888420FD092
:105A100003499031206805E0040000241000024092
:105A200010040240884203D0FE492068884204D115
:105A30002068006800F0080003E02068006800F0BB
:105A4000040060B394F85C0000F01F01102088404F
:105A5000B0602068006800F4802080B12068006891
:105A600000F4002028B9206CC8B12046216C88477A
:105A700015E0A06C98B12046A16C88470FE0206823
:105A8000006800F4807028B92068006820F00800E1
:105A900021680860206C10B12046216C884794F87A
:105AA0005C0000F01F0120208840384000287DD095
:105AB000DD492068884249D0DB4918312068884296
:105AC00044D0D9493031206888423FD0D649483146
:105AD000206888423AD0D44960312068884235D065
