:020000040800F2
:10000000300E002439030008953800906B0B0090E7
:1000100045030008E9030090E73F0090000000005E
:10002000000000000000000000000000993800906F
:10003000EB03009000000000973800909B38009080
:100040005303000853030008530300085303000838
:100050005303000853030008530300085303000828
:100060005303000853030008530300085303000818
:100070005303000853030008530300085303000808
:1000800053030008530300085303000853030008F8
:1000900053030008530300085303000853030008E8
:1000A00053030008530300085303000853030008D8
:1000B00053030008530300085303000853030008C8
:1000C00053030008530300085303000853030008B8
:1000D00053030008151500085303000853030008D4
:1000E00053030008530300080000000053030008F6
:1000F0005303000853030008530300085303000888
:100100005303000853030008530300085303000877
:100110005303000853030008530300085303000867
:100120005303000853030008530300085303000857
:100130005303000853030008530300085303000847
:1001400000000000000000000000000000000000AF
:100150005303000853030008530300085303000827
:100160005303000853030008530300085303000817
:100170005303000853030008530300085303000807
:1001800053030008530300085303000853030008F7
:1001900053030008530300085303000853030008E7
:1001A00053030008530300085303000853030008D7
:1001B00053030008530300085303000853030008C7
:1001C00053030008530300085303000853030008B7
:1001D00053030008530300085303000853030008A7
:1001E0005303000853030008530300085303000897
:1001F0005303000853030008530300085303000887
:100200005303000853030008530300085303000876
:100210005303000853030008530300085303000866
:1002200053030008530300085303000800000000B4
:1002300053030008530300080000000053030008A4
:100240005303000853030008530300085303000836
:100250005303000853030008530300085303000826
:100260005303000853030008530300085303000816
:100270005303000853030008530300080000000064
:1002800053030008000000005303000800000000B2
:10029000000000005303000800F002F800F03CF8F2
:1002A0000AA090E8000C82448344AAF10107DA45D1
:1002B00001D100F031F8AFF2090EBAE80F0013F0E7
:1002C000010F18BFFB1A43F001031847F814000090
:1002D00018150000103A24BF78C878C1FAD8520720
:1002E00024BF30C830C144BF04680C6070470000B0
:1002F0000023002400250026103A28BF78C1FBD82F
:10030000520728BF30C148BF0B6070471FB501F0CE
:100310004BFA1FBD10B510BD00F0AAF81146FFF74B
:10032000F5FF01F067F900F0C8F803B4FFF7F2FF3A
:1003300003BC01F021F90000094880470948004743
:10034000FEE7FEE7FEE7FEE7FEE7FEE7FEE7FEE785
:10035000FEE7FEE704480549054A064B70470000E2
:10036000911400089902000830020024300E002485
:100370003004002430040024704753EA020C00F0DB
:1003800069802DE9F04B4FF00006002B1FBFB3FA38
:1003900083F503FA05F424FA05F65E4012BF16430E
:1003A000B2FA82F502FA05F4C5F120051EBF22FA61
:1003B00005FC44EA0C04203556EA044C4FEA144488
:1003C00018BF641C4FF000084FF00009904271EB19
:1003D000030C39D3002919BFB1FA81F701FA07F6E6
:1003E000B0FA80F700FA07F6C7F120071EBF20FA1F
:1003F00007FC46EA0C062037B6FBF4FCA7EB050722
:10040000103F07F01F0BCBF120060CFA0BFB2CFA68
:1004100006F644BFB3460026202FA4BF5E464FF029
:10042000000B5BEA060C08BF4FF0010B19EB0B0940
:10043000ABFB027C48EB0608C01B06FB02CC0BFBA7
:1004400003CC71EB0C01C1E70B460246414648461E
:10045000BDE8F08B13B54FF000004FF00001AFF393
:100460000080BDE81C407047704770477047704778
:10047000754600F02BF8AE4605006946534620F05D
:100480000700854618B020B5FFF764FFBDE820409F
:100490004FF000064FF000074FF000084FF0000B40
:1004A00021F00701AC46ACE8C009ACE8C009ACE8F3
:1004B000C009ACE8C0098D46704710B50446AFF3DB
:1004C00000802046BDE81040FFF72FBF004870476E
:1004D000CC01002440F2955CC9F2000C604740F664
:1004E000D90CC9F2000C604740F6CD0CC9F2000CE3
:1004F000604740F6C32CC9F2000C604743F6490C34
:10050000C9F2000C604740F6795CC9F2000C604704
:1005100040F2250CC9F2000C604740F66D3CC9F270
:10052000000C604743F2A17CC9F2000C604740F622
:10053000592CC9F2000C6047F0B5BFF34F8FBFF3E1
:100540006F8F1D4900200860BFF34F8FBFF36F8F7F
:100550001A4C216841F400312160BFF34F8FBFF383
:100560006F8F164970310860BFF34F8F081F006806
:1005700043F6FF75104E1036C0F34E31C0F3C90379
:1005800005EA4112184642EA80773760401EFAD2E7
:10059000491EF5D2BFF34F8F206840F480302060B1
:1005A000BFF34F8FBFF36F8F03484C30016841F0AA
:1005B00004010160F0BD000050EF00E014ED00E028
:1005C0000248016841F001010160704720040058B1
:1005D0002DE9F84F6C4C00224FF0B04A4FF0010B60
:1005E0004FF0030E4FF00F090B680BFA02F73B4078
:1005F000BB4270D14D68022D01D0122D12D1D50809
:1006000000EB850CDCF820605507ED0E09FA05F8C3
:1006100026EA0806D1F8108008FA05F848EA060824
:10062000CCF82080D0F80080560091F804C00EFA73
:1006300006F50CF0030C28EA05080CFA06FC4CEA57
:10064000080CC0F800C0D1F804C0BCF1010F08D0FC
:10065000BCF1020F05D0BCF1110F02D0BCF1120F9A
:1006600016D1D0F808C0D1F80C802CEA050C08FA95
:1006700006F848EA0C08C0F80880D0F804C02CEA54
:10068000070C0F79C7F30017974047EA0C0747603C
:10069000C768AF438D68B5403D43C5604D68ED0008
:1006A0006BD53A4D2E6846F002062E602D6822F07A
:1006B000030606F1B04605F002050095D6F808C419
:1006C00095072F0F09FA07F52CEA050C304DA842C3
:1006D00002D100252EE050E02E4DA84201D1012587
:1006E00028E02D4DA84201D1022523E02B4DA84240
:1006F00001D103251EE02A4DA84201D1042519E0AD
:10070000284DA84201D1052514E0274DA84201D16A
:1007100006250FE0254DA84201D107250AE0244D0A
:10072000A84201D1082505E0224DA84201D10925A2
:1007300000E00A25BD4045EA0C05C6F808542568C6
:100740004E689D43F60300D51D43256065684E68DD
:100750009D43B60300D51D436560DAF80050564648
:100760004F689D43FF0200D51D43356075684F6893
:100770009D43BF0200D51D437560521C102AFFF433
:1007800033AFBDE8F88F000080000058F4440258F1
:10079000000002580004025800080258000C0258D9
:1007A000001002580014025800180258001C025889
:1007B000002002580024025842694A4042617047B2
:1007C0000AB1018370474183704700000148806887
:1007D0007047000014000024024881680278114428
:1007E0008160704714000024032010B500F0A2F8C7
:1007F0000F2000F007F808B1012010BD00F06CF8E0
:10080000002010BD70B50D4D04464FF47A71287864
:10081000B1FBF0F00A490968B1FBF0F000F0A4FC6C
:1008200048B9102C07D200222146501E00F062F871
:1008300000206C6070BD012070BD00001400002419
:1008400000000024134A41781160111D03780A1D2D
:10085000E3B143680B60017BC37A090741EA036196
:10086000837A41EAC341437B41EA8341837B41EA86
:100870004341C37B41EA0341437A41EA0321037ABE
:10088000007841EA4301014311607047002008608D
:100890001060704798ED00E0BFF35F8F0448016877
:1008A00021F48031016002490020703108607047F6
:1008B00024ED00E0074940F0010008600548703869
:1008C000016841F480310160BFF34F8FBFF36F8F38
:1008D0007047000094ED00E07047002809DB01211B
:1008E00000F01F0291404009800000F1E020C0F8B4
:1008F000001170470E4BF0B41B68C3F30223C3F121
:100900000704042C00D904241D1D072D01D2002347
:1009100000E0DB1E012606FA04F56D1E0D409D4029
:100920009E40761E164045EA0601F0BC00F014BE5B
:100930000CED00E0064A00F0070110684FF6FF03D7
:10094000184040EA01200349084310607047000046
:100950000CED00E00000FA052DE9F047DFF8BC914E
:1009600004460E46D9F8000000F00700B0420CD251
:10097000D9F8001021F007013143C9F80010D9F867
:10098000000000F00700B0427ED12078DFF89081AF
:10099000800707D5D8F80010E26821F00F01114355
:1009A000C8F800102078C00762D0D8F80010A268FC
:1009B00021F470611143C8F8001059496068183972
:1009C00002281CD003281DD0096801281DD0490722
:1009D000002960DA524F083F396821F007010143CE
:1009E0003960FFF7F3FE0546606841F2883102285E
:1009F00013D003281ED001288A4627D034E0096886
:100A00008903E5E709688901E2E7C905E0E7FFF73F
:100A1000DDFE411B514501D923E08A463868C0F309
:100A2000C2000228F3D123E0FFF7D0FE411B51455D
:100A300001D916E08A463868C0F3C2000328F3D112
:100A400016E0FFF7C3FE411B51450AD83868C0F3D2
:100A5000C2000128F5D10BE0FFF7B8FE411B51455C
:100A600002D90320BDE8F087386810F0380FF3D1C1
:100A7000D9F80010484601F00701B1420DD90168CC
:100A800021F00701314300E005E00160006800F05B
:100A90000700B04201D00120E4E72078400707D5E5
:100AA000D8F80010226921F070011143C8F8001035
:100AB000207801071B4805D50168626921F07001A3
:100AC000114301602178C90605D50168A26921F4A6
:100AD000E061114301602078800607D51149091DA6
:100AE0000868E26920F070001043086000F066F8C2
:100AF000D8F800104FF4807292FAA2F201F47061FB
:100B0000B2FA82F2D140084A515CC84007490860F5
:100B10000F20FFF777FE0020A4E70000002000521E
:100B2000184402581C440258B21700080000002460
:100B300010B5FFF7CFFC08490968012292FAA2F22A
:100B400001F00F01B2FA82F2D140044A515CC84070
:100B50000349086010BD000018440258B21700088D
:100B60000400002410B5FFF7E3FF074909681022CD
:100B700092FAA2F201F07001B2FA82F2D140034A75
:100B8000515CC84010BD00001C440258B217000858
:100B900010B5FFF7CDFF074909684FF4807292FA4C
:100BA000A2F201F4E061B2FA82F2D140024A515C51
:100BB000C84010BD1C440258B21700083548F0B5B3
:100BC0000068364D10F03801334809D00411082967
:100BD00004D0334E10290BD018290BD02046F0BD7D
:100BE00029688906FBD52968C1F3C101C840F0BD59
:100BF0003046F0BD274918310A68096812F003022F
:100C0000284BC1F305111B68274F03F001033F6810
:100C1000DFED260AB7EE001AC7F3CC0717FB03F384
:100C200000EE103A224BB8EE400A06D0012A01D05D
:100C3000022A2BD0B4FBF1F008E02A68920603D513
:100C40002A68C2F3C102D040B0FBF1F001EE900A75
:100C50001868B8EE612AC0F3080001EE900A18681F
:100C6000F8EE611A40EE201A31EE810A22EE000AF7
:100C7000C0F34620401C00EE900AF8EE600A80EEB9
:100C8000201ABCEEC10A10EE100AF0BDB6FBF1F05E
:100C9000DCE70000104402580090D00300440258E2
:100CA00040787D012C440258344402580000003939
:100CB000304402582DE9F05F04460078DFF8FC83E9
:100CC00041F28839DFF8F8A3FE4DC0074ED0D8F8BE
:100CD00000104046C1F3C20102291AD00068C0F3D7
:100CE000C200032805D1DAF8000000F00300022852
:100CF0000FD06068B0F5803F12D010B1B0F5A02FD2
:100D000019D0286820F480302860286820F48020DA
:100D100009E02868800329D56068002874D025E0A0
:100D2000286840F480302860606890B1FFF74EFD7D
:100D300006464F4609E0286840F480202860EFE727
:100D4000FFF744FD801BB8427DD828688003F7D5A3
:100D50000CE0FFF73BFD06464F4604E0FFF736FD8B
:100D6000801BB842F0D828688003F7D42078D64F8B
:100D700080075AD5D8F8001040464FF47C3B11F05C
:100D8000380F13D00068C0F3C200032803D1DAF88B
:100D9000000080070AD0E068A8B3296821F0190193
:100DA00001432960FFF712FD06461DE02868400751
:100DB00002D5E0680028B1D02868E16820F0190069
:100DC00008432860FFF702FD064604E0FFF7FEFC3B
:100DD000801B0228B8D828684007F7D507E0FFF73E
:100DE000F5FC801B0228AFD828684007F7D5386883
:100DF0009BFAABF220F47C312069B2FA82F2904087
:100E00000143396011E000E0AEE0286820F0010005
:100E10002860FFF7DBFC064604E0FFF7D7FC801BE9
:100E2000022891D828684007F7D42078C00655D505
:100E3000D8F8001040464FF0F84BC1F3C201012929
:100E400017D0006800E0EDE0C0F3C200032805D130
:100E5000DAF8000000F0030001280AD0E069002859
:100E600028682CD040F080002860FFF7AFFC0646D1
:100E700016E02868C00502D5E069802874D138687A
:100E80009BFAABF220F0F841206AB2FA82F290406D
:100E90000143396022E0FFF799FC801B022899D8B2
:100EA0002868C005F7D538689BFAABF2216AB2FA18
:100EB00082F220F0F8409140084338600EE020F0C4
:100EC00080002860FFF782FC064604E0FFF77EFC06
:100ED000801B022887D82868C005F7D4207800072F
:100EE00024D5774F60694C37002838680FD040F020
:100EF00001003860FFF76AFC064604E0FFF766FC75
:100F0000801B02288DD838688007F7D50EE020F0C6
:100F100001003860FFF75AFC064604E0FFF756FC74
:100F2000801B02287ED838688007F7D42078800696
:100F300023D5A069002828680FD040F4805028608D
:100F4000FFF744FC064604E0FFF740FC801B022844
:100F500068D828688004F7D50FE020F48050286016
:100F6000FFF734FC064605E0D6E0FFF72FFC801BB8
:100F7000022857D828688004F7D42078400744D541
:100F8000524F386840F480703860FFF71FFC064607
:100F900004E0FFF71BFC801B642843D83868C005B9
:100FA000F7D5474FA068483701280AD008B105286F
:100FB00011D0386820F001003860386820F0040053
:100FC00002E0386840F001003860A06888B1FFF79F
:100FD000FDFB064609E0386840F004003860F0E7A1
:100FE000FFF7F4FB811B49451CD838688007F7D50B
:100FF0000BE0FFF7EBFB064604E0FFF7E7FB811B86
:1010000049450FD838688007F7D4606AF0B3D8F83C
:101010000010C1F3C20103297ED00228286820F005
:10102000807000E079E0286003D0FFF7CFFB044632
:1010300087E0FFF7CBFB064604E0FFF7C7FB801B0A
:1010400002287BD828688001F7D4DAF8001040F233
:10105000F3329143E26A41EA0211A26A1143CAF8EB
:10106000001094F834004FF4FE02218E4002491E15
:10107000A0F5007080B2C1F308010843218F491E1A
:1010800002EA0141084394F83C1000E05CE0491E8C
:10109000120202EA016108430949083108600B1D88
:1010A00019684FF6F872A06C914392FAA2F2B2FA64
:1010B00082F2904001431960014809E0104402584F
:1010C0002844025800440258044402580048025878
:1010D000001D0168226C21F00C01114301600168C0
:1010E000626C21F0020111430160016841F480311A
:1010F0000160016841F400310160016841F4802120
:101100000160016841F001010160286840F08070D1
:101110002860FFF75BFB01E018E00FE0044604E005
:10112000FFF754FB001B022808D828688001F7D578
:101130000AE0FFF74BFB001B022802D90320BDE8A1
:10114000F09F28688001F4D40020F8E70120F6E73A
:101150004FF0E0210428086903D020F00400086162
:10116000704740F00400FAE7401EB0F1807F10B5F0
:1011700001D3012010BD4FF0E02460610F21601702
:1011800000F0EAF90020A06107202061002010BDD6
:1011900010B5006886B01B49884230D11A480168F2
:1011A00041F001010160006800F00100059016485F
:1011B0001030016841F01001016000680121134CFA
:1011C00000F0100005904FF4007000900220CDE96F
:1011D000010103900720694604902046FFF7F8F9C3
:1011E0004FF48061204600916946FFF7F1F9252010
:1011F000FFF773FB032225201146FFF77BFB06B0A8
:1012000010BD000000100140E044025800000258E8
:1012100030B50068114988420CD1114A5088010448
:1012200008D411464FF000034404097806D50A2972
:1012300001D0538030BD40F400400DE00D2909D0AD
:10124000084DC0F30D04401C80B2C72829555080BA
:10125000EFD830BD40F48040508030BD00100140D8
:101260000C0000242800002454482DE9F041524C81
:1012700086B0016841F002010160016841F020017F
:1012800001604E480C38016841F480410160402003
:101290000090022001900320DFF824810025694698
:1012A0000A270497CDE902504046FFF791F9042040
:1012B00069460926049600904046FFF789F904968E
:1012C000C020404E694600903046FFF781F94FF448
:1012D00040706946049700903046FFF779F9374827
:1012E0006438016841F480410160016821F4804163
:1012F00001603148203881688906FCD43249016098
:1013000032494160016841F001010160816889064C
:10131000FCD44FF49C71416181688907FCD5C16898
:1013200041F00201C16081688906FCD44FF48371E9
:10133000416181688907FCD5C16841F00201C16043
:1013400081688906FCD422494161056181684907A9
:10135000FCD530212170016841F0040101608168F1
:101360008907FCD5C16841F00201C1608168890626
:10137000FCD481688906FCD4C561164941611648D0
:10138000016821F480310160134970310A6822F04C
:1013900001020A600A1D156082060F4B78331A603D
:1013A0001B1D0E4A1A6005220A60016841F4803153
:1013B000016006B0BDE8F08120500052E0440258C0
:1013C0000004025800140258100300010104160022
:1013D000C0030003EBEF180F24ED00E02D00030322
:1013E00070B5294C9CB0256825F004052560264C75
:1013F00000260C34256845F440452560256805F431
:1014000040451B952568AD04FCD5012400940CAD26
:1014100003962404019402240994CDE90A41079615
:10142000082485E80D00CDE910466846FFF742FC28
:1014300098B9FFF719FF3F2013900320CDE9140658
:1014400040200101CDE91640CDE9180150201A9045
:10145000022113A8FFF780FA10B101201CB070BD63
:101460000A48016841F0800101600848F4300168D1
:1014700041F002010160006800F002001B90FFF7DC
:101480009FF80020EAE700000C4802580044025888
:101490001C48016841F4700101601B49086840F074
:1014A00001000860184A0020103210600A68174BCB
:1014B0001A400A60144A18321060121D1060121D82
:1014C0001060114A28321060121D1060121D106049
:1014D000121D1060121D1060121D1060121D106090
:1014E000121D10600A6822F480220A6006496031E9
:1014F000086001200649C1F80801C0060149803989
:101500000860704788ED00E0004402587FEDF6EA7D
:101510000080005170B50D4D00240D48FEF7DFFF2F
:1015200002E0641CAC4204D80948FEF7DDFF202825
:10153000F7D1002402E0641CAC4206D80549012220
:101540000348FEF7D6FF0028F5D170BDFFFF01006C
:10155000F00000240C0000240907090E002804DB19
:1015600000F1E02080F80014704700F00F0000F157
:10157000E02080F8141D70477047000010B5044645
:101580000420FFF7E5FD0148046010BD08000024B9
:1015900070B5002405464FF47A7603E0304600F03B
:1015A00005F8641CAC42F9D370BD000070B54FF073
:1015B000E02500216C69094AAB6912685043AA69A9
:1015C0009A42FCD002D2A3EB020302E0A4EB020693
:1015D0003344194413468142F1D370BD08000024FE
:1015E0000349CA695206FCD5C2B20A857047000099
:1015F0000010014086B00024FEF79EFFFFF7F4F8CC
:10160000042302220521A020FFF7EAFE4FF4C87050
:10161000FFF7B4FF4FF4E13000F0AAF8FEF76EFFD9
:10162000FEF771FF3D4E4FF478453D483DA13560D2
:10163000828802A8FEF76CFF10274FF020090DF1F9
:1016400008084FF0180A4FF00C0B0C2C0DD2DFE8F5
:1016500004F006093E404245484B4E5154574FF660
:10166000FF7000E00020FEF758FF31A13560202315
:10167000F022CDE9009128210A20FEF753FF31A185
:101680001823F022CDE900A150210A20FEF74AFFDD
:101690002FA01023F022CDE900706E210A20FEF762
:1016A00041FF1023F02282210A20CDE90078FEF7C5
:1016B00039FF2BA10C23F022CDE900B196210A209D
:1016C000FEF730FF641CE4B20C2C1CD01CE01F2081
:1016D000C9E72846C7E74FF61F00C4E74FF4FC6090
:1016E000C1E747F6FF70BEE74FF6E070BBE74FF685
:1016F0000740B8E748F23040B5E74CF21860B2E76F
:101700004BF64040AFE7002418480221FFF754F899
:101710004FF47A70FFF73CFF97E7000020000024A9
:10172000BC0100244C43442049443A25303458003D
:10173000504F4C4152495320483735302F463735AA
:10174000300000005446544C434420544553540048
:1017500041544F4D40414C49454E54454B000000CB
:10176000323031392F342F3231000000000402585A
:101770000B490A4A10B5C1E9002000208860C86002
:10178000086188610C2048610846FEF7D0FEBDE87C
:101790001040044901220248FEF7ABBE0010014090
:1017A000F00000240C0000244FF04070E1EE100A1D
:1017B0007047000000000102030401020304060751
:1017C00008090000E41700080000002428000000B9
:1017D000D40200080C18000828000024080E00009D
:1017E000F00200080090D0030090D0030000000039
:1017F00000000000000000000100000010000000D8
:0C18000000000000000000FFFFFFFFFFE1
:0200000490006A
:10000000782900F04B800020704700000FB40449AD
:1000100010B503AA029800F081F910BC5DF814FB3A
:10002000100000240FB41CB5074B06AA7B44694698
:100030000090059800F059F90020694600F068F931
:100040001CBC5DF814FB0000E102000070B5044622
:1000500085690068C10601D5302600E02026C0076A
:1000600007D070BDD4E9012130469047206A401C7A
:1000700020626D1EF6D570BD70B5044685690078A6
:10008000C00707D170BDD4E9012120209047206A24
:10009000401C20626D1EF6D570BD000070B5044690
:1000A0000D4621461068AFF300802188090502D56E
:1000B0000F4A7A4402E00E4A7A440E32002104F1DB
:1000C000240305E000F00F060009965D5E54491C0C
:1000D0000028F7D120780023000704D5702D02D026
:1000E00009B1022311322046BDE8704000F09EB8ED
:1000F000988600002DE9F05F894604464FF0000A1B
:10010000DFF824B1FB44C0F820A02046E16888470E
:1001100000287DD0252806D0D4E901219047206A07
:10012000401C2062F1E700255F462046E1688847D1
:100130002028064607DB312E05D2B81910F8200C0E
:1001400008B10543F1E7A80701D525F00405C4F877
:100150001CA00027C4F818A02A2E09D0304603F0AE
:1001600043FF38B304EB8708303EC8F8186019E045
:1001700059F8041B204604EB87029161E168884727
:10018000012F064618D1E069002820DA25F0200565
:100190001DE0D8F8180000EB800006EB4000303876
:1001A000C8F818002046E1688847064603F01CFF9F
:1001B0000028EED1012F0AD02E2E08D12046E1686A
:1001C00088477F1C0646022F45F02005C4DBA06946
:1001D000002803DA404245F00105A061E80701D09C
:1001E00025F01005A6B1A6F14100192802D8203645
:1001F00045F400654A463146204625604D46FFF7E6
:10020000FFFE60B1012807D0ED1D25F0070000E0DA
:1002100007E000F1080978E705F1040975E73046C1
:100220007AE7206ABDE8F09F6E8600002DE9F0476E
:100230000D4699469246044600F124080168880656
:1002400004D5E06921F01001216000E00120A842FE
:1002500001DD471B00E00027A1697A1902EB0900C4
:10026000081AA0612078C00602D42046FFF7EEFEEF
:10027000002608E0D4E901211AF806009047206A18
:10028000401C761C20624E45F4DB2078C0060AD55F
:100290002046FFF7DBFE06E0D4E90121302090473D
:1002A000206A401C2062381EA7F10107F4DC07E039
:1002B000D4E9012118F805009047206A401C20620B
:1002C000281EA5F10105F3DC2046FFF7D5FE2078B6
:1002D000000602D50220BDE8F0870120FBE7000000
:1002E00001694A1C02610878704700B58FB0CDE9FA
:1002F00001310021059105497944CDE903101146EA
:100300006846FFF7F7FE0FB000BD0000E5FFFFFFF6
:100310000A6802F8010B0A6070470000074B70B5CD
:100320000D467B44FFF7E1FF0446284600F008F83D
:1003300010B14FF0FF3070BD204670BDBB12007889
:10034000007B00F08000704740F6BD3CC0F6000C1A
:10035000604740F6313CC0F6000C604740F2D15C8B
:10036000C0F6000C604741F2911CC0F6000C6047DB
:1003700041F2915CC0F6000C604741F2AD5CC0F602
:10038000000C604740F2C17CC0F6000C604740F6AC
:10039000990CC0F6000C604740F6450CC0F6000C06
:1003A000604740F6B50CC0F6000C604740F2D97CBF
:1003B000C0F6000C604740F2CD7CC0F6000C6047F0
:1003C00041F2112CC0F6000C604740F27B3CC0F6B5
:1003D000000C604740F6653CC0F6000C604740F6F4
:1003E000913CC0F6000C6047FEE7704770B5B3F56E
:1003F000804F05D06FF0704140F82210002070BD92
:1004000050F82230084C2340D1E900458E8944EA57
:1004100005148D6889692D0245EA06452C430C4375
:100420001C4340F82240E9E70000F0CFF0B50C682B
:1004300050F824501A4A1540D1E90123D1E9036745
:100440001A433E4332434E6932438E693243CE698A
:1004500032430E6A32434E6A32438E6A3243CE6A68
:1004600032430E6B32438E6B32434E6B32432A4320
:10047000082B01D142F0400240F824200A6BB2F56B
:10048000801F05D10A684AB1026842F480120260F6
:100490000A681AB10268496B0A4302600020F0BD85
:1004A0008004C0FF00EB8202F0B553688E8903F030
:1004B0004044D1E9003543EA05138D682D0245EA31
:1004C00006450E8A2B430D4D05EB065633430E7D34
:1004D0006F0107EB066633438E6933432343536052
:1004E0000268D20207D54268098A22F4700205EB3D
:1004F0000151114341600020F0BD00000000F0FFF9
:1005000010B528B190F83510022903D0802141653B
:10051000012010BD1D4A4FF4956301688C189C4260
:1005200007D8042280F83520086820F00100086010
:1005300029E00C6824F00E040C6001680A440A6883
:1005400022F001020A60016E0A6822F480720A60D9
:1005500090F85C30012202FA03F10D4B1960D0E9EA
:1005600019134B60C16E31B10B6823F480730B60BB
:10057000D0E91C134B60002180F8341080F835203E
:10058000016D01B18847002010BD0000F0FFFDBFE4
:100590000454025810B5FFF7D7FE084909684FF414
:1005A000807292FAA2F201F47061B2FA82F2D14042
:1005B000034A515CC8400349086010BD1844025802
:1005C000B21700080000002410B5FFF7C2FE07496B
:1005D0000968102292FAA2F201F07001B2FA82F2D6
:1005E000D140034A515CC84010BD0000204402586D
:1005F000B2170008364930B50A68096812F00302DC
:10060000344BC1F305311B68334C03F010032468ED
:10061000DFED320AB7EE001AC4F3CC0414FB03F387
:1006200000EE103A2E4BB8EE400A07D02D4C012AAE
:1006300001D0022A4AD0B4FBF1F10BE0244C283C53
:1006400022689506284A03D52468C4F3C104E24011
:10065000B2FBF1F101EE901A1968B8EE612AC1F30C
:10066000080101EE901A1968F8EE611A40EE201A9E
:1006700031EE810A22EE000AC1F34621491C00EE48
:10068000901AF8EE600A80EE201AFCEEC10AC0ED66
:10069000000A1968C1F30641491C00EE901AF8EEF1
:1006A000600A80EE201AFCEEC10AC0ED010A19684A
:1006B000C1F30661491C00EE901AF8EE600A80EE64
:1006C000201ABCEEC10A80ED020A30BD074ABFE71E
:1006D000284402582C4402583C4402580000003977
:1006E0003844025800093D000090D00340787D0155
:1006F000364930B50A68096812F00302344BC1F379
:1007000005511B68334C03F480732468DFED320A13
:10071000B7EE001AC4F3CC0414FB03F300EE103A56
:100720002E4BB8EE400A07D02D4C012A01D0022AE8
:100730004AD0B4FBF1F10BE0244C283C226895062A
:10074000284A03D52468C4F3C104E240B2FBF1F1A6
:1007500001EE901A1968B8EE612AC1F3080101EEA2
:10076000901A1968F8EE611A40EE201A31EE810AEB
:1007700022EE000AC1F34621491C00EE901AF8EE61
:10078000600A80EE201AFCEEC10AC0ED000A19686A
:10079000C1F30641491C00EE901AF8EE600A80EEA3
:1007A000201AFCEEC10AC0ED010A1968C1F3066106
:1007B000491C00EE901AF8EE600A80EE201ABCEE9A
:1007C000C10A80ED020A30BD074ABFE7284402583B
:1007D0002C44025844440258000000394044025856
:1007E00000093D000090D00340787D0170B5040001
:1007F00015460E4603D094F8450010B107E00120DD
:1008000070BD002084F84400204600F021F82068E4
:1008100004F10801FFF70AFEA26831462068FFF7DD
:1008200041FEE36A2946D4E90102FFF7DFFDA16832
:10083000206850F8212042F0010240F821200348AE
:10084000016841F000410160002070BD004000528D
:100850001A4800B587B0016841F480510160006812
:1008600000F48050059015480C30016841F00801F3
:100870000160016801F008010591016841F0100173
:1008800001600068694600F0100005904EF2B370F8
:1008900000900220019001200290032003900C2080
:1008A00004900748FFF75AFD4FF680700090054806
:1008B0006946FFF753FD07B000BD0000D44402585D
:1008C000000C0258001002587047704790F87910D9
:1008D00090F87A000843704770B502680446D06902
:1008E0001368916810F00F0F64D0594D03F490769F
:1008F0000D40354376D0C50707D0DD0505D5012568
:100900001562E26F42F00102E267820708D5CA076A
:1009100006D0256802222A62E26F42F00402E267F2
:10092000420708D5CA0706D0256804222A62E26F6A
:1009300042F00202E26702070ED503F0200201F046
:1009400080552A4352EAC17206D0256808222A62DD
:10095000E26F42F00802E267E26F002A3AD08006B6
:1009600008D503F0200001F08051084302D0204652
:1009700003F03FF8E06F000703D42068806840066A
:100980002AD5204603F027F82068816849061ED53D
:10099000816821F040018160606FC0B12D4901651F
:1009A000606FFFF7ADFD002814D0606F016DBDE8EA
:1009B00070400847850615D503F0200501F08056E4
:1009C00035430FD02046BDE8704003F012B82046F2
:1009D000FFF77BFF70BD05E02046FFF776FF0020A4
:1009E000E067F7E7C6024FF020050CD54E020AD5A6
:1009F000E803106284F8795084F87A502046BDE804
:100A00007040FFF761BF06060AD503F0800601F4C7
:100A100000010E4304D02046BDE8704003F078BAD0
:100A200041060BD5590609D51168204621F0400131
:100A3000116084F8795000F097F8CBE70002C9D52F
:100A40005800C7D5106820F080401060C2E7000051
:100A500001000010C339009010B5040003D094F8D1
:100A6000790010B107E0012010BD002084F8780063
:100A70002046FFF778FC242084F87900206801687C
:100A800021F001010160204602F0EEFF0128EBD0C9
:100A9000606B10B1204602F002FF2068416821F42B
:100AA000904141602068816821F02A0181602068BE
:100AB000016841F0010101602046BDE8104002F0EC
:100AC00052BF90F87A30202B4CD1B9B1B2B190F826
:100AD0007830012B46D0012380F878304166A0F8A9
:100AE0006820A0F86A20FF228168B1F5805F07D0F6
:100AF0007F2351B1B1F1805F0CD010E0012070472D
:100B0000016921B940F2FF1107E0016909BBA0F8B2
:100B10006C2004E00169E1B13F21A0F86C100021D4
:100B2000C167222280F87A2080F8781001688A68EC
:100B300042F001028A6001680A6892000CD50A68D6
:100B400042F480720A600068816841F080518160DF
:100B500006E0A0F86C30E2E7086840F490700860A6
:100B600000207047022070477047FEE770B50646C8
:100B7000094800240188458820464D43214602F05B
:100B800017FD02F04FFEB1B2044801E00180641C81
:100B9000AC42FBD370BD0000BC0100240000086023
:100BA0002DE9F04F374B2C242A2547F2897B2B2641
:100BB00045F2105E4FF448774FF0F00899884FF4F3
:100BC000A0794FF4F07249F2413A45F2103C78B105
:100BD00001209871A3F800905145A3F8028003D03A
:100BE000614501D059452ED11C815D819E813FE038
:100BF00000209871A3F8008051454846A3F8029060
:100C000003D0614501D0594507D11C8161455D8103
:100C10009E8132D118805A802FE0714509D14FF45E
:100C2000305018814FF4285058814FF42C5098813F
:100C300006E0A1F5C85063381FD11C815E819D81FB
:100C40001A805F8019E0714509D14FF43050188146
:100C50004FF4285058814FF42C50988106E0A1F5AC
:100C6000C850633804D11C815D819E811F805A80E9
:100C7000614502D11A80A3F802900020BDE8F04F30
:100C800002F0B6BBBC0100242DE9F041384D0F0A3B
:100C900090460C4602462946A888160A4989A0F5BE
:100CA0001343413B10D0A0F5A643103B0CD0A0F558
:100CB000EE43893B08D0A0F5AA43103B11D0A0F524
:100CC000C853633B27D04BE0084602F09FFD3046F7
:100CD00002F090FDD0B202F08DFDA88902F096FDE1
:100CE00038E0084602F092FD304602F083FD688944
:100CF000401C80B202F08AFDD0B202F07BFDA889D0
:100D000002F084FD384602F075FDA889401C80B2CF
:100D100002F07CFD21E0A87918B92888801A401ECD
:100D200082B2084602F072FD160A304602F062FDF9
:100D3000D0B202F05FFD304602F05CFDD0B202F0AE
:100D400059FDA88902F062FD384602F053FDE0B279
:100D500002F050FD384602F04DFDE0B202F04AFDCF
:100D6000044928890880891CA1F80080BDE8F08129
:100D7000BC010024FEFF07602DE9F04FFE4895B04E
:100D8000016841F00201016000680EA900F0020054
:100D9000139020200E9001200F90109003201190AE
:100DA000F648FFF7DBFA02F0C9FAF6481022F449D8
:100DB0000160F549416000218160C160C0E9041211
:100DC00012028161C161C0E908129200C0E90A12F1
:100DD00092010163C0E90D121120CDE900015520F7
:100DE0000290152007AACDE90810CDE90610E548C4
:100DF0000D916946FFF7FAFC3220FFF7B9FAD320CC
:100E000002F004FD02F0C0FADE4E4C36B08002F073
:100E1000BBFA3146888002F0B7FA31464FF6FF7AC6
:100E20000AEA0020888002F0AFFA314649F2413BDD
:100E300047F2897445F2103745F2105541F66318B0
:100E4000898808433146584588807CD0042002F0C8
:100E5000DDFC02F099FAB08002F096FAB08002F060
:100E600093FA0AEA00205246B08002F08DFAB18867
:100E70000843B080A0F50541523960D0A04262D04D
:100E8000D42002F0C3FC02F07FFAB08002F07CFABA
:100E9000B08002F079FA02EA00209146B08002F0B8
:100EA00073FAB1880843B080B8424CD055214FF452
:100EB000704002F0C1FCAA214FF2010002F0BCFC1C
:100EC00052214FF2020002F0B7FC08214FF203005A
:100ED00002F0B2FC01214FF2040002F0ADFC4FF42D
:100EE000454002F093FC02F04FFA09EA0020B0807E
:100EF0004CF2015002F08AFC02F046FAB188084335
:100F0000B0800520FFF734FAB088B0F5004F7DD0EF
:100F1000A84218D0A12002F079FC02F035FAB08086
:100F200002F032FA09EA0020B08002F02DFAB1880E
:100F30000843B080A0F5AE41613902D003E0B4802F
:100F400001E0A6F8048091A0B188FFF75FF8B088AF
:100F5000D94648457ED1CF2002F058FC002002F04F
:100F600049FCC12002F046FC302002F043FCED2099
:100F700002F04CFC642002F03DFC032002F03AFC3D
:100F8000122002F037FC812002F034FCE82002F04D
:100F90003DFC852002F02EFC102002F02BFC7A2074
:100FA00002F028FCCB2002F031FC392002F022FCB8
:100FB0002C2002F01FFC002002F01CFC342002F068
:100FC00019FC022002F016FCF72002F01FFC202082
:100FD00002F010FCEA2002F019FC002002F00AFCEA
:100FE000002002F007FCC02002F010FC1B2002F0E1
:100FF00001FCC12002F00AFC012002F0FBFBC5202D
:1010000002F004FC302002F0F5FB00E0CCE03020E0
:1010100002F0F0FBC72002F0F9FBB72002F0EAFB78
:10102000362002F0F3FB482002F0E4FB3A2002F005
:10103000EDFB552002F0DEFBB12002F0E7FB0020C3
:1010400002F0D8FB1A2002F0D5FBB62002F0DEFB3E
:101050000A2000E0AAE002F0CDFBA22002F0CAFBC9
:10106000F22002F0D3FB002002F0C4FB262002F0A5
:10107000CDFB012002F0BEFBE02002F0C7FB0F20F9
:1010800002F0B8FB2A2002F0B5FB282002F0B2FBE8
:10109000082002F0AFFB0E2002F0ACFB082002F0AB
:1010A000A9FB542002F0A6FBA92002F0A3FB4320D9
:1010B00002F0A0FB0A2002F09DFB0F2002F09AFB39
:1010C000002002F097FB002002F094FB002002F0C9
:1010D00091FB002002F08EFBE12002F097FB002044
:1010E00002F088FB152002F085FB172002F082FB3E
:1010F000072002F07FFB112002F07CFB062002F0AB
:1011000079FB2B2002F076FB562002F073FB3C208B
:1011100002F070FB052002F06DFB102002F06AFB6C
:101120000F2002F067FB3F2002F064FB3F2002F03B
:1011300061FB0F2002F05EFB2B2002F067FB00201A
:1011400002F058FB002002F055FB012002F052FB98
:101150003F2002F04FFB2A2002F058FB002002F053
:1011600049FB002002F046FB002002F043FBEF2089
:1011700002F040FB112011E0E04402580004025844
:10118000004000527001002404410052204C4344AE
:101190002049443A25780D0A0000000002F036FB91
:1011A0007820FFF7E5F8D4E0B580CCE6A0427CD10A
:1011B000112002F02BFB7820FFF7DAF8362002F03E
:1011C00025FB002002F016FB3A2002F01FFB052051
:1011D00002F010FBB22002F019FB0C2002F00AFB17
:1011E0000C2002F007FB002002F004FB332002F089
:1011F00001FB332002F0FEFAB72002F007FB352096
:1012000002F0F8FABB2002F001FB322002F0F2FA01
:10121000C02002F0FBFA0C2002F0ECFAC22002F02F
:10122000F5FA012002F0E6FAC32002F0EFFA1020EE
:1012300002F0E0FAC42002F0E9FA202002F0DAFA23
:10124000C62002F0E3FA0F2002F0D4FAD02002F018
:10125000DDFAA42002F0CEFAA12002F0CBFAE020C1
:1012600002F0D4FAD02002F0C5FA002002F0C2FA4F
:10127000022002F0BFFA072002F0BCFA0A2002F0B6
:10128000B9FA282002F0B6FA322002F0B3FA44206C
:1012900002F0B0FA422002F0ADFA062002F0AAFAFB
:1012A0000E2002F0A7FA122000E055E002F0A2FAA8
:1012B000142002F09FFA172002F09CFAE12002F0BD
:1012C000A5FAD02002F096FA002002F093FA02204C
:1012D00002F090FA072002F08DFA0A2002F08AFA52
:1012E000282002F087FA312002F084FA542002F01C
:1012F00081FA472002F07EFA0E2002F07BFA1C20D1
:1013000002F078FA172002F075FA1B2002F072FA48
:101310001E2002F06FFA2A2002F078FA002002F074
:1013200069FA002002F066FA002002F063FAEF206A
:1013300002F060FA2B2002F069FA002002F05AFA5B
:10134000002002F057FA012002F054FA3F2002F088
:1013500051FA292001F0FEBEB8427CD1ED2002F006
:1013600055FA012002F046FAFE2002F043FAEE2080
:1013700002F04CFADE2002F03DFA212002F03AFAA7
:10138000F12002F043FA012002F034FADF2002F0EB
:101390003DFA102002F02EFAC42002F037FA8F2016
:1013A00002F028FAC62002F031FA002002F022FAF8
:1013B000E22002F01FFAE22002F01CFAE22002F022
:1013C00019FABF2002F022FAAA2002F013FAB02084
:1013D00002F01CFA0D2002F00DFA002002F00AFAC9
:1013E0000D2002F007FA002002F004FA112002F0AA
:1013F00001FA002002F0FEF9192002F0FBF90020AA
:1014000002F0F8F9212002F0F5F9002002F0F2F9DB
:101410002D2002F0EFF9002002F0ECF93D2002F05F
:10142000E9F9002002F0E6F95D2002F0E3F900207E
:1014300002F0E0F95D2002F0DDF9002002F0DAF9B7
:10144000B12002F0E3F9802002F0D4F9002002F08C
:10145000D1F98B2000E0FCE302F0CCF9002002F08F
:10146000C9F9962002F0C6F9002002F0C3F9B220B3
:1014700002F0CCF9002002F0BDF9002002F0BAF928
:10148000022002F0B7F9002002F0B4F9032002F0C4
:10149000B1F9002002F0AEF9B32002F0B7F9002054
:1014A00002F0A8F9002002F0A5F9002002F0A2F94C
:1014B000002002F09FF9002002F09CF9002002F0C9
:1014C00099F9002002F096F9002002F093F900202B
:1014D00002F090F9002002F08DF9002002F08AF964
:1014E000002002F087F9002002F084F9002002F0C9
:1014F00081F9002002F07EF9002002F07BF9002043
:1015000002F078F9002002F075F9002002F072F97B
:10151000002002F06FF9002002F06CF9002002F0C8
:1015200069F9002002F066F9002002F063F9B420A6
:1015300002F06CF98B2002F05DF9002002F05AF9FC
:10154000962002F057F9002002F054F9A12002F091
:1015500051F9002002F04EF9B52002F057F90220AF
:1015600002F048F9002002F045F9032002F042F9A8
:10157000002002F03FF9042002F03CF9002002F0C4
:1015800039F9B62002F042F9002002F033F90020C8
:1015900002F030F9B72002F039F9002002F02AF900
:1015A000002002F027F93F2002F024F9002002F089
:1015B00021F95E2002F01EF9002002F01BF96420E0
:1015C00002F018F9002002F015F98C2002F012F94F
:1015D000002002F00FF9AC2002F00CF9002002F01C
:1015E00009F9DC2002F006F9002002F003F970206E
:1015F00002F000F9002002F0FDF8902002F0FAF865
:10160000002002F0F7F8EB2002F0F4F8002002F0DE
:10161000F1F8DC2002F0EEF8002002F0EBF8B82040
:1016200002F0F4F8002002F0E5F8002002F0E2F801
:10163000002002F0DFF8002002F0DCF8002002F0C9
:10164000D9F8002002F0D6F8002002F0D3F80020EC
:1016500002F0D0F8BA2002F0D9F8242002F0CAF83B
:10166000002002F0C7F8002002F0C4F8002002F0C9
:10167000C1F8C12002F0CAF8202002F0BBF8002017
:1016800002F0B8F8542002F0B5F8002002F0B2F8E9
:10169000FF2002F0AFF8002002F0ACF8C22002F008
:1016A000B5F80A2002F0A6F8002002F0A3F8042002
:1016B00002F0A0F8002002F09DF8C32002F0A6F886
:1016C0003C2002F097F8002002F094F83A2002F053
:1016D00091F8002002F08EF8392002F08BF80020FB
:1016E00002F088F8372002F085F8002002F082F836
:1016F0003C2002F07FF8002002F07CF8362002F057
:1017000079F8002002F076F8322002F073F8002019
:1017100002F070F82F2002F06DF8002002F06AF855
:101720002C2002F067F8002002F064F8292002F073
:1017300061F8002002F05EF8262002F05BF800203D
:1017400002F058F8242002F055F8002002F052F878
:10175000242002F04FF8002002F04CF8232002F081
:1017600049F8002002F046F83C2002F043F800203F
:1017700002F040F8362002F03DF8002002F03AF87E
:10178000322002F037F8002002F034F82F2002F067
:1017900031F8002002F02EF82C2002F02BF8002067
:1017A00002F028F8292002F025F8002002F022F8A3
:1017B000262002F01FF8002002F01CF8242002F07E
:1017C00019F8002002F016F8242002F013F8002087
:1017D00002F010F8232002F00DF8002002F00AF8C1
:1017E000C42002F013F8622002F004F8002002F096
:1017F00001F8052001F0FEFF002001F0FBFF84202E
:1018000001F0F8FF002001F0F5FFF02001F0F2FFF9
:10181000002001F0EFFF182001F0ECFF002001F0A4
:10182000E9FFA42001F0E6FF002001F0E3FF18200B
:1018300001F0E0FF002001F0DDFF502001F0DAFFB1
:10184000002001F0D7FF0C2001F0D4FF002001F0B0
:10185000D1FF172001F0CEFF002001F0CBFF952033
:1018600001F0C8FF002001F0C5FFF32001F0C2FF26
:10187000002001F0BFFFE62001F0BCFF002001F0D6
:10188000B9FFC52001F0C2FF322001F0B3FF0020F4
:1018900001F0B0FF442001F0ADFF002001F0AAFFED
:1018A000652001F0A7FF002001F0A4FF762001F0E1
:1018B000A1FF002001F09EFF882001F09BFF002087
:1018C00001F098FFC62001F0A1FF202001F092FF57
:1018D000002001F08FFF172001F08CFF002001F0A5
:1018E00089FF012001F086FF002001F083FFC7205F
:1018F00001F08CFF002001F07DFF002001F07AFF55
:10190000002001F077FF002001F074FFC82001F0F3
:101910007DFF002001F06EFF002001F06BFF002032
:1019200001F068FF002001F065FFC92001F06EFFA3
:10193000002001F05FFF002001F05CFF002001F0BB
:1019400059FF002001F056FF002001F053FF002056
:1019500001F050FF002001F04DFF002001F04AFF90
:10196000002001F047FF002001F044FF002001F0BB
:1019700041FF002001F03EFF002001F03BFF00206E
:1019800001F038FF002001F035FF002001F032FFA8
:10199000E02001F03BFF162001F02CFF002001F0B9
:1019A00029FF1C2001F026FF002001F023FF212049
:1019B00001F020FF002001F01DFF362001F01AFF8A
:1019C000002001F017FF462001F014FF002001F075
:1019D00011FF522001F00EFF002001F00BFF6420E8
:1019E00001F008FF002001F005FF7A2001F002FF5E
:1019F000002001F0FFFE8B2001F0FCFE002001F032
:101A0000F9FE992001F0F6FE002001F0F3FEA82077
:101A100001F0F0FE002001F0EDFEB92001F0EAFE39
:101A2000002001F0E7FEC42001F0E4FE002001F0F8
:101A3000E1FECA2001F0DEFE002001F0DBFED22034
:101A400001F0D8FE002001F0D5FED92001F0D2FE31
:101A5000002001F0CFFEE02001F0CCFE002001F0DC
:101A6000C9FEF32001F0C6FE002001F0C3FEE12014
:101A700001F0CCFE162001F0BDFE002001F0BAFE00
:101A80001C2001F0B7FE002001F0B4FE222001F07E
:101A9000B1FE002001F0AEFE362001F0ABFE0020CA
:101AA00001F0A8FE452001F0A5FE002001F0A2FEF5
:101AB000522001F09FFE002001F09CFE642001F006
:101AC00099FE002001F096FE7A2001F093FE00209E
:101AD00001F090FE8B2001F08DFE002001F08AFEC7
:101AE000992001F087FE002001F084FEA82001F07B
:101AF00081FE002001F07EFEB92001F07BFE002077
:101B000001F078FEC42001F075FE002001F072FEA5
:101B1000CA2001F06FFE002001F06CFED22001F01F
:101B200069FE002001F066FED82001F063FE00206F
:101B300001F060FEE02001F05DFE002001F05AFEA1
:101B4000F32001F057FE002001F054FEE22001F0E6
:101B50005DFE052001F04EFE002001F04BFE0B2043
:101B600001F048FE002001F045FE1B2001F042FE7E
:101B7000002001F03FFE342001F03CFE002001F087
:101B800039FE442001F036FE002001F033FE4F20E4
:101B900001F030FE002001F02DFE612001F02AFE50
:101BA000002001F027FE792001F024FE002001F042
:101BB00021FE882001F01EFE002001F01BFE972070
:101BC00001F018FE002001F015FEA62001F012FE23
:101BD000002001F00FFEB72001F00CFE002001F004
:101BE00009FEC22001F006FE002001F003FEC7201E
:101BF00001F000FE002001F0FDFDD12001F0FAFD12
:101C0000002001F0F7FDD62001F0F4FD002001F0E6
:101C1000F1FDDD2001F0EEFD002001F0EBFDF320F1
:101C200001F0E8FD002001F0E5FDE32001F0EEFD0C
:101C3000052001F0DFFD002001F0DCFD0A2001F0AD
:101C4000D9FD002001F0D6FD1C2001F0D3FD0020BD
:101C500000E0FDE201F0CEFD332001F0CBFD0020DD
:101C600001F0C8FD442001F0C5FD002001F0C2FDD7
:101C7000502001F0BFFD002001F0BCFD622001F00A
:101C8000B9FD002001F0B6FD782001F0B3FD002081
:101C900001F0B0FD882001F0ADFD002001F0AAFDAB
:101CA000972001F0A7FD002001F0A4FDA62001F07F
:101CB000A1FD002001F09EFDB72001F09BFD00205A
:101CC00001F098FDC22001F095FD002001F092FD89
:101CD000C72001F08FFD002001F08CFDD12001F024
:101CE00089FD002001F086FDD52001F083FD002054
:101CF00001F080FDDD2001F07DFD002001F07AFD86
:101D0000F32001F077FD002001F074FDE42001F0E4
:101D10007DFD012001F06EFD002001F06BFD012032
:101D200001F068FD002001F065FD022001F062FD78
:101D3000002001F05FFD2A2001F05CFD002001F091
:101D400059FD3C2001F056FD002001F053FD4B20D1
:101D500001F050FD002001F04DFD5D2001F04AFD35
:101D6000002001F047FD742001F044FD002001F047
:101D700041FD842001F03EFD002001F03BFD932059
:101D800001F038FD002001F035FDA22001F032FD08
:101D9000002001F02FFDB32001F02CFD002001F008
:101DA00029FDBE2001F026FD002001F023FDC42006
:101DB00001F020FD002001F01DFDCD2001F01AFDF5
:101DC000002001F017FDD32001F014FD002001F0E8
:101DD00011FDDD2001F00EFD002001F00BFDF320D0
:101DE00001F008FD002001F005FDE52001F00EFDE9
:101DF000002001F0FFFC002001F0FCFC002001F0BD
:101E0000F9FC002001F0F6FC022001F0F3FC0020B8
:101E100001F0F0FC292001F0EDFC002001F0EAFCCB
:101E20003C2001F0E7FC002001F0E4FC4B2001F035
:101E3000E1FC002001F0DEFC5D2001F0DBFC002075
:101E400001F0D8FC742001F0D5FC002001F0D2FC98
:101E5000842001F0CFFC002001F0CCFC932001F0A5
:101E6000C9FC002001F0C6FCA22001F0C3FC002048
:101E700001F0C0FCB32001F0BDFC002001F0BAFC71
:101E8000BE2001F0B7FC002001F0B4FCC42001F03A
:101E9000B1FC002001F0AEFCCD2001F0ABFC002035
:101EA00001F0A8FCD32001F0A5FC002001F0A2FC69
:101EB000DC2001F09FFC002001F09CFCF32001F0ED
:101EC00099FC002001F096FCE62001F09FFC112017
:101ED00001F090FC002001F08DFC342001F08AFC20
:101EE000002001F087FC562001F084FC002001F066
:101EF00081FC762001F07EFC002001F07BFC772045
:101F000001F078FC002001F075FC662001F072FC05
:101F1000002001F06FFC882001F06CFC002001F033
:101F200069FC992001F066FC002001F063FCBB20F5
:101F300001F060FC002001F05DFC992001F05AFCEA
:101F4000002001F057FC662001F054FC002001F055
:101F500051FC552001F04EFC002001F04BFC5520B7
:101F600001F048FC002001F045FC452001F042FC56
:101F7000002001F03FFC432001F03CFC002001F078
:101F800039FC442001F036FC002001F033FCE7204E
:101F900001F03CFC322001F02DFC002001F02AFC75
:101FA000552001F027FC002001F024FC762001F0F0
:101FB00021FC002001F01EFC662001F01BFC00202B
:101FC00001F018FC672001F015FC002001F012FC64
:101FD000672001F00FFC002001F00CFC872001F0CD
:101FE00009FC002001F006FC992001F003FC002010
:101FF00001F000FCBB2001F0FDFB002001F0FAFB2A
:10200000992001F0F7FB002001F0F4FB772001F0AC
:10201000F1FB002001F0EEFB442001F0EBFB00207F
:1020200001F0E8FB562001F0E5FB002001F0E2FBA7
:10203000232001F0DFFB002001F0DCFB332001F066
:10204000D9FB002001F0D6FB452001F0D3FB002096
:1020500001F0D0FBE82001F0D9FB002001F0CAFB21
:10206000002001F0C7FB992001F0C4FB002001F023
:10207000C1FB872001F0BEFB002001F0BBFB8820E4
:1020800001F0B8FB002001F0B5FB772001F0B2FBB6
:10209000002001F0AFFB662001F0ACFB002001F056
:1020A000A9FB882001F0A6FB002001F0A3FBAA20D9
:1020B00001F0A0FB002001F09DFBBB2001F09AFB8A
:1020C000002001F097FB992001F094FB002001F023
:1020D00091FB662001F08EFB002001F08BFB552068
:1020E00001F088FB002001F085FB552001F082FB08
:1020F000002001F07FFB442001F07CFB002001F078
:1021000079FB442001F076FB002001F073FB5520A1
:1021100001F070FB002001F06DFBE92001F076FB7F
:10212000AA2001F067FB002001F064FB002001F011
:1021300061FB002001F05EFB002001F067FBAA209C
:1021400001F058FBCF2001F061FB002001F052FBB1
:10215000002001F04FFB002001F04CFB002001F0BB
:1021600049FB002001F046FB002001F043FB00206A
:1021700001F040FB002001F03DFB002001F03AFBA4
:10218000002001F037FB002001F034FB002001F0BB
:1021900031FB002001F02EFB002001F02BFB002082
:1021A00001F028FB002001F025FB002001F022FBBC
:1021B000F02001F02BFB002001F01CFB502001F06F
:1021C00019FB002001F016FB002001F013FB00209A
:1021D00001F010FBF32001F019FB002001F00AFBD5
:1021E000F92001F013FB062001F004FB102001F0A0
:1021F00001FB292001F0FEFA002001F0FBFA3A2051
:1022000001F004FB552001F0F5FA112001F0FEFA6F
:102210006420FEF7ADF8292001F0F8FA352001F02E
:10222000F5FA002001F0E6FA512001F0EFFAFF2064
:1022300001F0E0FA532001F0E9FA2C2001F0DAFA7B
:10224000552001F0E3FA822001F0D4FA2C20FDE3BE
:10225000A8427DD155214FF4704001F0EDFAAA213A
:102260004FF2010001F0E8FA52214FF2020001F0B2
:10227000E3FA4FF2030B0821584601F0DDFA4FF262
:1022800004030121184601F0D7FA0D214FF4304024
:1022900001F0D2FA0D214BF2010001F0CDFA0D212F
:1022A0004BF2020001F0C8FA34214FF4364001F03D
:1022B000C3FA34214BF2016001F0BEFA34214BF233
:1022C000026001F0B9FA0D214FF4314001F0B4FA87
:1022D0000D214BF2011001F0AFFA0D214BF202106B
:1022E00001F0AAFA34214FF4374001F0A5FA342165
:1022F0004BF2017001F0A0FA34214BF2027001F0B0
:102300009BFA00214FF4324001F096FA00214BF283
:10231000012001F091FA00214BF2022001F08CFA29
:1023200024214FF4384001F087FA24214BF60100B4
:1023300001F082FA24214BF6020001F07DFA01211E
:102340004FF43F4001F078FA0F214FF4334000E0A2
:10235000FEE301F071FA0F214BF2013001F06CFA4B
:102360000F214BF2023001F067FA34214FF439406B
:1023700001F062FA34214BF6011001F05DFA3421CC
:102380004BF6021001F058FA08214FF4354001F0E5
:1023900053FA08214BF2015001F04EFA08214BF29A
:1023A000025001F049FA03214FF4424001F044FA8F
:1023B00024214FF43A4001F03FFA24214BF601204A
:1023C00001F03AFA24214BF6022001F035FA0021FF
:1023D0004FF43C4001F030FA78214BF6014001F017
:1023E0002BFA00214BF6024001F026FA00214FF4AF
:1023F0003D4001F021FA78214BF6015001F01CFA22
:1024000000214BF6025001F017FA00214FF43E4034
:1024100001F012FA64214BF6016001F00DFA00217F
:102420004FF4514001F008FA33214DF2011001F050
:1024300003FA00214DF2021001F0FEF934214DF2B1
:10244000031001F0F9F900214DF2041001F0F4F944
:102450003A214DF2051001F0EFF900214DF206107E
:1024600001F0EAF94A214DF2071001F0E5F90021E7
:102470004DF2081001F0E0F95C214DF2091001F075
:10248000DBF900214DF20A1001F0D6F981214DF25D
:102490000B1001F0D1F900214DF20C1001F0CCF934
:1024A000A6214DF20D1001F0C7F900214DF20E10DA
:1024B00001F0C2F9E5214DF20F1001F0BDF9012143
:1024C0004DF2101001F0B8F913214DF2111001F086
:1024D000B3F901214DF2121001F0AEF954214DF281
:1024E000131001F0A9F901214DF2141001F0A4F923
:1024F00082214DF2151001F09FF901214DF21610C5
:1025000001F09AF9CA214DF2171001F095F9022154
:102510004DF2181001F090F900214DF2191001F060
:102520008BF902214DF21A1001F086F901214DF2CA
:102530001B1001F081F902214DF21C1001F07CF911
:1025400034214DF21D1001F077F902214DF21E10D9
:1025500001F072F967214DF21F1001F06DF90221AF
:102560004DF2201001F068F984214DF2211001F0A4
:1025700063F902214DF2221001F05EF9A4214DF21F
:10258000231001F059F902214DF2241001F054F901
:10259000B7214DF2251001F04FF902214DF226101E
:1025A00001F04AF9CF214DF2271001F045F902213F
:1025B0004DF2281001F040F9DE214DF2291001F012
:1025C0003BF902214DF22A1001F036F9F2214DF2C9
:1025D0002B1001F031F902214DF22C1001F02CF9F1
:1025E000FE214DF22D1001F027F903214DF22E109E
:1025F00001F022F910214DF22F1001F01DF90321F5
:102600004DF2301001F018F933214DF2311001F084
:1026100013F903214DF2321001F00EF96D214DF244
:10262000331001F009F900214FF4524001F004F990
:1026300033214DF2012001F0FFF800214DF202207C
:1026400001F0FAF834214DF2032001F0F5F80021F1
:102650004DF2042001F0F0F83A214DF2052001F08E
:10266000EBF800214DF2062001F0E6F84A214DF288
:10267000072001F0E1F800214DF2082001F0DCF81C
:102680005C214DF2092001F0D7F800214DF20A201B
:1026900001F0D2F881214DF20B2001F0CDF800219C
:1026A0004DF20C2001F0C8F8A6214DF20D2001F0EA
:1026B000C3F800214DF20E2001F0BEF8E5214DF2E5
:1026C0000F2001F0B9F801214DF2102001F0B4F80B
:1026D00013214DF2112001F0AFF801214DF212202B
:1026E00001F0AAF854214DF2132001F0A5F80121C0
:1026F0004DF2142001F0A0F882214DF2152001F0D6
:102700009BF801214DF2162001F096F8CA214DF2F6
:10271000172001F091F802214DF2182001F08CF8F9
:1027200000214DF2192001F087F802214DF21A2004
:1027300001F082F801214DF21B2001F07DF8022109
:102740004DF21C2001F078F834214DF21D2001F0EB
:1027500073F802214DF21E2001F06EF867214DF250
:102760001F2001F069F802214DF2202001F064F8E9
:1027700084214DF2212001F05FF802214DF2222048
:1027800001F05AF8A4214DF2232001F055F802215E
:102790004DF2242001F050F8B7214DF2252001F030
:1027A0004BF802214DF2262001F046F8CF214DF2E0
:1027B000272001F041F802214DF2282001F03CF8D9
:1027C000DE214DF2292001F037F802214DF22A20B6
:1027D00001F032F8F2214DF22B2001F02DF8022108
:1027E0004DF22C2001F028F8FE214DF22D2001F0B1
:1027F00023F803214DF22E2001F01EF810214DF296
:102800002F2001F019F803214DF2302001F014F8C7
:1028100033214DF2312001F00FF803214DF2322027
:1028200001F00AF86D214DF2332001F005F8002186
:102830004FF4534001F000F833214DF2013000F025
:10284000FBFF00214DF2023000F0F6FF34214DF283
:10285000033000F0F1FF00214DF2043000F0ECFFF6
:102860003A214DF2053000F0E7FF00214DF206302D
:1028700000F0E2FF4A214DF2073000F0DDFF0021B9
:102880004DF2083000F0D8FF5C214DF2093000F025
:10289000D3FF00214DF20A3000F0CEFF81214DF22E
:1028A0000B3000F0C9FF00214DF20C3000F0C4FFE6
:1028B000A6214DF20D3000F0BFFF00214DF20E3089
:1028C00000F0BAFFE5214DF20F3000F0B5FF012115
:1028D0004DF2103000F0B0FF13214DF2113000F036
:1028E000ABFF01214DF2123000F0A6FF54214DF252
:1028F000133000F0A1FF01214DF2143000F09CFFD5
:1029000082214DF2153000F097FF01214DF2163073
:1029100000F092FFCA214DF2173000F08DFF022126
:102920004DF2183000F088FF00214DF2193000F010
:1029300083FF02214DF21A3000F07EFF01214DF29B
:102940001B3000F079FF02214DF21C3000F074FFC3
:1029500034214DF21D3000F06FFF02214DF21E3088
:1029600000F06AFF67214DF21F3000F065FF022181
:102970004DF2203000F060FF84214DF2213000F054
:102980005BFF02214DF2223000F056FFA4214DF2F0
:10299000233000F051FF02214DF2243000F04CFFB3
:1029A000B7214DF2253000F047FF02214DF22630CD
:1029B00000F042FFCF214DF2273000F03DFF022111
:1029C0004DF2283000F038FFDE214DF2293000F0C2
:1029D00033FF02214DF22A3000F02EFFF2214DF29A
:1029E0002B3000F029FF02214DF22C3000F024FFA3
:1029F000FE214DF22D3000F01FFF03214DF22E304D
:102A000000F01AFF10214DF22F3000F015FF0321C6
:102A10004DF2303000F010FF33214DF2313000F034
:102A20000BFF03214DF2323000F006FF6D214DF215
:102A3000333000F001FF00214FF4544000F0FCFE61
:102A400033214DF2014000F0F7FE00E082E3002167
:102A50004DF2024000F0F0FE34214DF2034000F050
:102A6000EBFE00214DF2044000F0E6FE3A214DF26B
:102A7000054000F0E1FE00214DF2064000F0DCFED2
:102A80004A214DF2074000F0D7FE00214DF20840E8
:102A900000F0D2FE5C214DF2094000F0CDFE002195
:102AA0004DF20A4000F0C8FE81214DF20B4000F0CB
:102AB000C3FE00214DF20C4000F0BEFEA6214DF2F7
:102AC0000D4000F0B9FE00214DF20E4000F0B4FEC2
:102AD000E5214DF20F4000F0AFFE01214DF2104014
:102AE00000F0AAFE13214DF2114000F0A5FE0121D5
:102AF0004DF2124000F0A0FE54214DF2134000F0C0
:102B00009BFE01214DF2144000F096FE82214DF211
:102B1000154000F091FE01214DF2164000F08CFEB0
:102B2000CA214DF2174000F087FE02214DF21840F5
:102B300000F082FE00214DF2194000F07DFE0221DE
:102B40004DF21A4000F078FE01214DF21B4000E0EA
:102B500003E300F071FE02214DF21C4000F06CFE18
:102B600034214DF21D4000F067FE02214DF21E405F
:102B700000F062FE67214DF21F4000F05DFE022171
:102B80004DF2204000F058FE84214DF2214000F02B
:102B900053FE02214DF2224000F04EFEA4214DF2E0
:102BA000234000F049FE02214DF2244000F044FE93
:102BB000B7214DF2254000F03FFE02214DF22640A4
:102BC00000F03AFECF214DF2274000F035FE022101
:102BD0004DF2284000F030FEDE214DF2294000F099
:102BE0002BFE02214DF22A4000F026FEF2214DF28A
:102BF0002B4000F021FE02214DF22C4000F01CFE83
:102C0000FE214DF22D4000F017FE03214DF22E4023
:102C100000F012FE10214DF22F4000F00DFE0321B6
:102C20004DF2304000F008FE33214DF2314000F00B
:102C300003FE03214DF2324000F0FEFD6D214DF206
:102C4000334000F0F9FD00214FF4554000F0F4FD51
:102C500033214DF2015000F0EFFD00214DF2025002
:102C600000F0EAFD34214DF2035000F0E5FD0021B3
:102C70004DF2045000F0E0FD3A214DF2055000F015
:102C8000DBFD00214DF2065000F0D6FD4A214DF249
:102C9000075000F0D1FD00214DF2085000F0CCFDAE
:102CA0005C214DF2095000F0C7FD00214DF20A50A1
:102CB00000F0C2FD81214DF20B5000F0BDFD00215E
:102CC0004DF20C5000F0B8FDA6214DF20D5000F071
:102CD000B3FD00214DF20E5000F0AEFDE5214DF2A6
:102CE0000F5000F0A9FD01214DF2105000F0A4FD9D
:102CF00013214DF2115000F09FFD01214DF21250B1
:102D000000F09AFD54214DF2135000F095FD012181
:102D10004DF2145000F090FD82214DF2155000F05C
:102D20008BFD01214DF2165000F086FDCA214DF2B7
:102D3000175000F081FD02214DF2185000F07CFD8B
:102D400000214DF2195000F077FD02214DF21A508A
:102D500000F072FD01214DF21B5000F06DFD0221CB
:102D60004DF21C5000F068FD34214DF21D5000F072
:102D700063FD02214DF21E5000F05EFD67214DF211
:102D80001F5000F059FD02214DF2205000F054FD7B
:102D900084214DF2215000F04FFD02214DF22250CE
:102DA00000F04AFDA4214DF2235000F045FD022120
:102DB0004DF2245000F040FDB7214DF2255000F0B7
:102DC0003BFD02214DF2265000F036FDCF214DF2A1
:102DD000275000F031FD02214DF2285000F02CFD6B
:102DE000DE214DF2295000F027FD02214DF22A503C
:102DF00000F022FDF2214DF22B5000F01DFD0221CA
:102E00004DF22C5000F018FDFE214DF22D5000F037
:102E100013FD03214DF22E5000F00EFD10214DF256
:102E20002F5000F009FD03214DF2305000F004FD59
:102E300033214DF2315000F0FFFC03214DF23250AE
:102E400000F0FAFC6D214DF2335000F0F5FC00214A
:102E50004FF4564000F0F0FC33214DF2016000F0D9
:102E6000EBFC00214DF2026000F0E6FC34214DF253
:102E7000036000F0E1FC00214DF2046000F0DCFC96
:102E80003A214DF2056000F0D7FC00214DF20660BA
:102E900000F0D2FC4A214DF2076000F0CDFC002189
:102EA0004DF2086000F0C8FC5C214DF2096000F0B2
:102EB000C3FC00214DF20A6000F0BEFC81214DF2FE
:102EC0000B6000F0B9FC00214DF20C6000F0B4FC86
:102ED000A6214DF20D6000F0AFFC00214DF20E6016
:102EE00000F0AAFCE5214DF20F6000F0A5FC0121E5
:102EF0004DF2106000F0A0FC13214DF2116000F0C3
:102F00009BFC01214DF2126000F096FC54214DF221
:102F1000136000F091FC01214DF2146000F08CFC74
:102F200082214DF2156000F087FC01214DF2166000
:102F300000F082FCCA214DF2176000F07DFC0221F6
:102F40004DF2186000F078FC00214DF2196000F09D
:102F500073FC02214DF21A6000F06EFC01214DF26B
:102F60001B6000F069FC02214DF21C6000F064FC63
:102F700034214DF21D6000F05FFC02214DF21E6015
:102F800000F05AFC67214DF21F6000F055FC022151
:102F90004DF2206000F050FC84214DF2216000F0E1
:102FA0004BFC02214DF2226000F046FCA4214DF2C0
:102FB000236000F041FC02214DF2246000F03CFC53
:102FC000B7214DF2256000F037FC02214DF226605A
:102FD00000F032FCCF214DF2276000F02DFC0221E1
:102FE0004DF2286000F028FCDE214DF2296000F04F
:102FF00023FC02214DF22A6000F01EFCF2214DF26A
:103000002B6000F019FC02214DF22C6000F014FC42
:10301000FE214DF22D6000F00FFC03214DF22E60D9
:1030200000F00AFC10214DF22F6000F005FC032196
:103030004DF2306000F000FC33214DF2316000F0C1
:10304000FBFB03214DF2326000F0F6FB6D214DF2E7
:10305000336000F0F1FB55214FF4704000F0ECFBC1
:10306000AA214FF2010000F0E7FB52214FF20200CB
:1030700000F0E2FB0821584600F0DEFB0021184674
:1030800000F0DAFBCC214FF4314000F0D5FB0021F9
:103090004BF2011000F0D0FB05214FF4364000F058
:1030A000CBFB70214FF4374000F0C6FB70214BF290
:1030B000017000F0C1FB01214FF4384000F0BCFB6F
:1030C00003214BF6010000F0B7FB03214BF6020091
:1030D00000F0B2FB03214BF6030000F0ADFB022130
:1030E0004FF43C4000F0A8FB00214BF6014000F0FB
:1030F000A3FB00214BF6024000F09EFBD0214FF4D1
:10310000494000F099FB02214CF6011000F094FBBD
:1031100050214CF6021000F08FFB50214CF60310AA
:1031200000F08AFB50214CF6041000F085FB0021D2
:103130004FF4545000F080FB55214FF4685000F0DC
:103140007BFB4FF4885000F061FB7820FDF715F908
:103150004FF4245000F05AFBB9E04045FCD1E22086
:1031600000F054FB1D2000F045FB022000F042FB64
:10317000042000F03FFB6420FDF7FFF8E02000F0A2
:1031800045FB012000F036FB0A20FDF7F1F8E020B6
:1031900000F03CFB032000F02DFB0C20FDF7E8F8CD
:1031A000012000F033FB0A20FDF7E2F8E62000F0F2
:1031B0002DFB2F2000F01EFBFF2000F01BFBFF204B
:1031C00000F018FBB02000F021FB202000F012FBE3
:1031D000002000F00FFB032000F00CFB40F21F303A
:1031E00000F008FB012000F005FB40F2DF1000F0CA
:1031F00001FB002000F0FEFAB42000F007FB0420E1
:1032000000F0F8FA40F21F4000F0F4FA002000F05D
:10321000F1FA2E2000F0EEFA002000F0EBFA002088
:1032200000F0E8FA002000F0E5FA002000F0E2FAF1
:10323000B62000F0EBFA022000F0DCFA4FF4037045
:1032400000F0D8FA002000F0D5FA172000F0D2FAEA
:10325000152000F0CFFA002000F0CCFA002000F09A
:10326000C9FAF02000F0D2FA032000F0C3FA2920B6
:1032700000F0CCFAD02000F0C9FA002000F0BAFA31
:10328000BE2000F0C3FA052000F0B4FAFE2000F0E2
:10329000B1FA012000F0AEFA002000F0ABFA0020F5
:1032A00000F0A8FA002000F0A5FAB82000F0AEFA6D
:1032B000032000F09FFA012000F09CFABA2000F0F1
:1032C000A5FA012000F096FA642000F067F8B088B3
:1032D000484507D0B84205D0A84203D0404501D0A8
:1032E000A04218D11348D0F8041121F00F01C0F802
:1032F0000411D0F8041121F47061C0F80411D0F861
:10330000041141F00501C0F80411D0F8041141F492
:10331000A061C0F804110020FDF742FC064801221C
:103320002021FDF72FF85046FDF720FC15B0BDE831
:10333000F08F000000400052000402581FB5FDF756
:1033400026F800208DF80C004FF0C04201921B229D
:103350008DF8082001218DF809008DF80D00032259
:103360008DF800108DF80A008DF80E008DF8010020
:1033700068468DF80B208DF80F10FDF70DF804202E
:10338000FDF70FF81FBD0000034808B50088ADF831
:103390000000BDF8000008BD000008600246BE2025
:1033A00000B500F033FA052000F024FA00EE102AF0
:1033B0009FED0D1BB8EE400B20EE010BBCEEC00BD9
:1033C00010EE100A80B200F015FA012000F012FA97
:1033D000FF2000F00FFA002000F00CFA5DF804EB7B
:1033E000002000F007BA0000666666666666044064
:1033F000F0B56E4D002341F663142A46A9799288F0
:10340000012901D019B11BE0A24202D118E0A24269
:1034100016D1082814D2DFE800F00406080A0C0EC2
:10342000101206200CE007200AE0042008E0052026
:1034300006E0012004E0002002E0032000E002207A
:1034400045F21031A2F5134745F21056413F09D01D
:103450008A4207D0B24205D0A24203D0A2F5EE477D
:10346000893F77D1082812D2DFE800F0110406085E
:103470000A0C0E1080230AE0402308E0C02306E077
:10348000202304E0602302E0A02300E0E023B24216
:1034900002D14FF4585000E036208A4205D0B242A3
:1034A00003D0A24201D043F00803194600F0C4F94A
:1034B000A988A1420AD06A889806288802D5904235
:1034C00002D303E0904201D92A806880B142688922
:1034D00041D100F09BF9002000F08CF96889401C74
:1034E00080B200F093F9002000F084F96889801C14
:1034F00080B200F08BF92888401EC0F30F2000F046
:1035000079F96889C01C80B200F080F92878401EE3
:10351000C0B200F06FF9A88900F078F9002000F03F
:1035200069F9A889401C80B200F070F9002000F011
:1035300061F9A889801C80B200F068F96888401E93
:10354000C0F30F2000F056F9A889C01C80B200F02B
:103550005DF922E028E000F059F9002000F04AF976
:10356000002000F047F92888401EC0F30F2000F02B
:1035700041F92878401EC0B200F03CF9A88900F05B
:1035800045F9002000F036F9002000F033F9688892
:10359000401EC0F30F2000F02DF9A878BDE8F040E0
:1035A000401EC0B200F026B9F0BD0000BC010024EE
:1035B000F0B5434D0F0A0C4602462946160AA88864
:1035C0004989A0F51343413B2DD0A0F5A643103BFC
:1035D00029D0A0F5EE43893B25D0A0F5C853633B25
:1035E00031D0A0F5AA43103B68D1084600F00EF98F
:1035F000304600F0FFF86889401C80B200F006F900
:10360000D0B200F0F7F8A88900F000F9384600F0D1
:10361000F1F8A889401C80B200F0F8F8E0B2BDE8EB
:10362000F04000F0E7B8084600F0F0F8304600F04F
:10363000E1F8D0B200F0DEF8A88900F0E7F83846EB
:1036400000F0D8F8EAE7A87930B3084600F0DEF8D1
:10365000304600F0CFF8D0B200F0CCF82888401EF9
:10366000C0F30F2000F0C6F82878401EC0B200F06A
:10367000C1F8A88900F0CAF8384600F0BBF8E0B2FB
:1036800000F0B8F86888401EC0F30F2000F0B2F8D0
:10369000A878401EC0B2C2E72888801A401E82B2B5
:1036A000084600F0B3F8002000F0A4F8002000F075
:1036B000A1F8100A00F09EF8D0B2D8E7F0BD0000E3
:1036C000BC0100242DE9F84F1F460E4682468B466A
:1036D000580700D00120790800EBD700203A10FBF2
:1036E00001F0002502F0FF09C0B2009047E00C2F66
:1036F00010D0102F12D0182F14D0202F42D12249D1
:1037000001EBC9104FF00008445D200610D51F489A
:10371000026811E01E4909EB490006E01D4901EB72
:103720000910EFE71C4909EBC90001EB8000E9E74C
:103730000A9828B91548426831465046FDF7A4FA60
:103740006006761C040E1548B6B24088B04219D9FE
:10375000A6EB0B00B84209D10AF101005E461FFA40
:1037600080FA0E48018851450CD906E008F10100A5
:1037700000F0FF08B8F1080FC7D36D1CEDB2009838
:103780008542B4D3BDE8F88FCE57009020000024C6
:103790000E40009082440090724A0090BC010024C8
:1037A0002DE9F84F00F0FF08044610190D461FFAE6
:1037B00080FA4FF0000B58191FFA80F9DDE90A76FC
:1037C00011E0544502D3E819444685B24D450FD265
:1037D0003B4629462046CDF800B0FFF773FF04EBC7
:1037E000570084B2761C3278A2F120005E28E8D916
:1037F000BDE8F88F01B5BDF80000ADF80000BDF8D8
:1038000000000149088008BD0000086001B5BDF84E
:103810000000ADF80000BDF800000149088008BDB7
:10382000FEFF0760024803490089088070470000D6
:10383000BC010024FEFF0760024A1080901C01803A
:1038400070470000FEFF0760104810B586B00168A1
:1038500041F002010160006801210D4C00F00200FE
:1038600005900320CDE90001CDE90210694620460C
:10387000FCF774FD012220461146FCF783FD01226E
:1038800020460221FCF77EFD06B010BDE044025840
:1038900000040258704770477047FCF787BD90F8E6
:1038A0003410C90706D001684A68836B22F40032DD
:1038B0001A434A6090F83410890706D501684A68AF
:1038C000C36B22F480321A434A6090F834104907DF
:1038D00006D501684A68036C22F480221A434A60C4
:1038E00090F83410090706D501684A68436C22F441
:1038F00000421A434A6090F83410C90606D50168A0
:103900008A68836C22F480521A438A6090F83410DB
:10391000890606D501688A68C36C22F400521A43EE
:103920008A6090F83410490611D501684A68036D21
:1039300022F480121A434A60016DB1F5801F06D14E
:1039400001684A68436D22F4C0021A434A6090F845
:103950003410090606D501684A68806D22F40022F9
:1039600002434A607047F8B500250446C567FCF776
:1039700022FD0746206800686FF07E46000708D5E4
:1039800000223B464FF400112046009600F0FAFA60
:1039900060B92068006840070AD500223B464FF412
:1039A00080012046009600F0EDFA08B10320F8BD32
:1039B000202084F8790084F87A00002084F8785078
:1039C000F8BD10B5806B0021A0F86A10A0F8621055
:1039D000FCF77BFF10BD01680A6822F490720A6050
:1039E00001688A6822F001028A60202180F87A103A
:1039F000704710B5B0F86C2090F87A300168222B2F
:103A000005D0088B40F008000883022010BD898C87
:103A10008368B3F5805F01D103696BB11140426ED9
:103A2000531C43661170B0F86A10491E0904090C52
:103A3000A0F86A1007D015E0436E11401980416E5E
:103A4000891C4166EFE701680A6822F490720A60F7
:103A500001688A6822F001028A60202180F87A10C9
:103A6000FCF7AEFC002010BD2DE9F04F04460068C5
:103A70008025FD4B0021D4F810C087B0A6680F4602
:103A8000D4F81C8046EA0C06D4F814C0A26A4CEAAA
:103A9000080C46EA0C0632430668DFF8D0C306EA93
:103AA0000C061643066020684268E66822F440521D
:103AB000324342602268A0699A4201D0266A3043AC
:103AC000A66AB6F1005F04D1D4E90B6C46EA0C0695
:103AD00030439668DFF898C306EA0C060643966002
:103AE0002068C26A666A22F00F023243C262E14E67
:103AF0002068E14AB04210D1126802F03802182A58
:103B000074D005DCCAB3082A7AD0102A47D179E0EC
:103B1000202A7BD0282A7CD17AE0D84EB04209D125
:103B2000126802F00702062A73D2DFE802F0536936
:103B30006B6D6F71D24EB04209D1126802F007026C
:103B4000062A66D2DFE802F0465C5E606264CD4E13
:103B5000B04209D1126802F00702062A59D2DFE802
:103B600002F0394F51535557C74EB0420BD112682E
:103B700002F00702062A4CD200E00EE0DFE802F075
:103B80002A4042444648C14EB04209D1126802F070
:103B90003802182A38D0BBDCB4E74FF0010538E012
:103BA000BB4EB04209D1126802F00702062A30D299
:103BB000DFE802F01026282A2C2EB64EB0420BD198
:103BC000126802F00702062A23D2DFE802F0031986
:103BD0001B1D1F2100251CE098421AD1A64A121D68
:103BE000126802F00702062A13D202E00CE007E096
:103BF0000CE0DFE802F0030507090B0D022508E0E1
:103C0000042506E0402504E0082502E0102500E038
:103C10002025DFF864B2A04E9842DFF880A2ABF115
:103C2000540B73D1102D31D006DC022D09D0042D98
:103C30000AD0082D2FD111E0202D29D0402D2AD1D6
:103C400007E0FCF7C1FC13E06846FCF7D3FC0198E1
:103C50000EE003A8FCF74CFD049809E0DBF8001027
:103C60005846890610D50068C0F3C1012AFA01F050
:103C7000002811D06168894601EB410181420AD8D0
:103C8000B0EB093F07D808E05046F3E78448F1E776
:103C90004FF40040EEE7012733E1102D4FF000080C
:103CA0004ED006DC022D0FD0042D15D0082D04D1E6
:103CB0002DE0202D4AD0402D13D00127794AA0F5C0
:103CC0004071914270D9E6E7FCF77EFC626A0023FE
:103CD000414636F812200DE06846FCF78BFC01984F
:103CE00003E003A8FCF704FD04980023616A36F89A
:103CF00011201946FCF769FB62680902030241EAD8
:103D000010615008181841EB080115E032E0DBF8AB
:103D100000105846890609D500680023C0F3C10188
:103D20002AFA01F0616A36F8112015E0606A002372
:103D300036F8102050460FE00023FCF746FBBDE7A5
:103D4000606A002336F81020554805E0606A0023B9
:103D500036F810204FF400400021FCF736FB090232
:103D6000020241EA10614FEA590010184A4641EB3D
:103D70000801E1E7E3694FF4004293424DD1082D79
:103D800023D005DC8DB1012D12D0042D06D112E017
:103D9000102D35D0202D3AD0402D11D0012721F003
:103DA0000F00C1F3420108435AE0FCF713FB16E091
:103DB000FCF715FB13E06846FCF71CFC01980EE0CD
:103DC00003A8FCF795FC049809E0DBF800105846BE
:103DD000890608D50068C0F3C1012AFA01F0616ABA
:103DE00036F8111010E0606A36F81010BAFBF1F0E6
:103DF0004100606801EB5001B1FBF0F081B2CEE709
:103E0000606A36F810102648B0FBF1F0F0E7606AFF
:103E100036F81000B2FBF0F0EAE7082D4AD00ADCD1
:103E20000DB3012D43D0042D7FF44DAF6846FCF750
:103E3000E1FB019809E0102D52D0202D55D0402DE6
:103E4000F2D103A8FCF754FC0498616A36F811100B
:103E5000B0FBF1F1606801EB5001B1FBF0F080B212
:103E60002168C8604DE01FE0000C0058F369FFCFE7
:103E7000FFF4FF1100100140544402580044004078
:103E800000480040004C0040005000400014014039
:103E900000780040007C0040F63F00900090D00386
:103EA00000093D00FFFC0F00FCF794FACDE7FCF79A
:103EB00096FACAE7DBF80020594692060AD5096847
:103EC000C1F3C1022AFA02F1626A36F81220B1FB8C
:103ED000F2F20FE0616A36F81120BAFBF2F209E063
:103EE000616A36F811200949F1E7616A36F8111064
:103EF000B2FBF1F2616802EB5102B2FBF1F189B25F
:103F0000C16007B03846BDE8F08F000000093D00F1
:103F100090F87910212901D002207047B0F8621082
:103F200021B18168B1F5805F13D014E001680A689F
:103F3000920004D58A6822F400028A6003E00A68CD
:103F400022F080020A600068016841F040010160CF
:103F50000CE0016961B1C16D4A1CC2650268097853
:103F60001185B0F86210491EA0F862100020704759
:103F7000C16D02680988C1F308011185C16D891CF2
:103F8000C165EEE72DE9F0411E4617468846044616
:103F9000069D1CE0681C1AD025B1FCF70CFA801BAA
:103FA000A84214D92068016821F4D071016020680A
:103FB000816821F001018160202084F8790084F873
:103FC0007A00002084F878000320BDE8F0812068A2
:103FD000C16938EA010004D00020B842DAD00020DC
:103FE000F3E70120F9E7FEE730380A2801D2012083
:103FF000704700207047010002000400060008001E
:104000000A000C00100020004000800000010000A9
:1040100000000000000000000000000000003F4021
:1040200000000000000000003000400030004000B0
:10403000000009000BC03D000BC03D00090018C086
:1040400024407FE0224031800000180024C01B0083
:104050000D803240018003801C4027401C800740B7
:1040600000401000600000000000000000000000A0
:10407000000000001F802040402000004020204021
:104080001F8000000000090006001F8006000900D4
:104090000000040004003F80040004000000001041
:1040A00000600000000000000000040004000400A4
:1040B00004000400000000000040000000000000B8
:1040C0000000002001C006003800400000001F80F2
:1040D0002040204020401F800000000010403FC0D2
:1040E00000400000000018C0214022402440184039
:1040F000000010802040244024401B80000002006B
:104100000D0011003FC0014000003C8024402440CD
:104110002440238000001F8024402440344003803A
:1041200000003000200027C03800200000001B8065
:104130002440244024401B8000001C0022C0224058
:1041400022401F8000000000000008400000000026
:1041500000000000000004600000000000000000FB
:1041600004000A00110020804040090009000900F5
:1041700009000900000000004040208011000A00F2
:1041800004001800200023402400180000001F80B5
:104190002040274029401F400000004007C0390050
:1041A0000F0001C0004020403FC0244024401B803D
:1041B00000001F8020402040204030800000204030
:1041C0003FC0204020401F80000020403FC02440CE
:1041D0002E4030C0000020403FC024402E00300060
:1041E00000000F0010802040224033800200204059
:1041F0003FC0040004003FC02040204020403FC09A
:104200002040204000000060202020203FC02000EF
:10421000200020403FC024400B0030C02040204000
:104220003FC020400040004000C03FC03C0003C0F1
:104230003C003FC0000020403FC00C4023003FC076
:1042400020001F802040204020401F800000204090
:104250003FC024402400180000001F80214021405E
:1042600020E01FA0000020403FC02440260019C0CD
:10427000004018C02440244022403180000030001B
:1042800020403FC020403000000020003F80004020
:1042900000403F80200020003E0001C007003800A1
:1042A0002000380007C03C0007C038000000204054
:1042B00039C0060039C0204000002000384007C047
:1042C000384020000000304021C02640384020C047
