:020000040800F2
:1000000048080220990200083F46000827440008DB
:100010003B46000891050008C54E0008000000009E
:100020000000000000000000000000005D47000824
:10003000CB07000800000000414600085F470008A9
:10004000BF020008BF020008BF020008BF0200088C
:10005000BF020008BF020008BF020008BF0200087C
:10006000BF020008BF020008BF020008BF0200086C
:10007000BF020008BF020008BF020008BF0200085C
:10008000BF020008BF020008BF020008BF0200084C
:10009000BF020008BF020008BF020008BF0200083C
:1000A000BF020008BF020008BF020008BF0200082C
:1000B000BF020008BF020008BF020008BF0200081C
:1000C000BF020008BF020008BF020008BF0200080C
:1000D000BF020008754E0008BF020008BF020008FA
:1000E000BF020008BF020008BF020008BF020008EC
:1000F000BF020008BF020008BF020008BF020008DC
:10010000BF020008BF020008BF020008BF020008CB
:10011000BF020008BF020008BF020008BF020008BB
:10012000BF02000891060008BF020008BF020008D5
:10013000BF020008BF020008BF020008BF0200089B
:10014000BF020008BF020008BF020008BF0200088B
:10015000BF020008BF020008BF020008BF0200087B
:10016000BF020008BF020008BF020008BF0200086B
:10017000BF020008BF02000881060008000000005E
:10018000BF020008BF020008BF020008BF0200084B
:10019000BF020008BF020008BF020008BF0200083B
:1001A000BF020008BF020008BF020008BF0200082B
:1001B000BF020008BF020008BF020008BF0200081B
:1001C000BF020008BF02000800000000BF020008D4
:1001D000BF020008BF020008BF020008BF020008FB
:1001E000BF020008BF020008BF020008BF020008EB
:1001F000BF020008BF02000800F002F800F03CF85F
:100200000AA090E8000C82448344AAF10107DA4571
:1002100001D100F031F8AFF2090EBAE80F0013F087
:10022000010F18BFFB1A43F00103184788F00000C4
:10023000A8F00000103A24BF78C878C1FAD8520755
:1002400024BF30C830C144BF04680C607047000050
:100250000023002400250026103A28BF78C1FBD8CF
:10026000520728BF30C148BF0B6070471FB50AF066
:100270000BFE1FBD10B510BD00F044F91146FFF78D
:10028000F5FF0AF0EDFB00F076F903B4FFF7F2FF9B
:1002900003BC04F035FE0000DFF83000016841F4D3
:1002A000700101600A4880470A480047FEE7FEE700
:1002B000FEE7FEE7FEE7FEE7FEE7FEE7FEE7FEE716
:1002C00005480649044A064B7047000088ED00E0E7
:1002D00069470008F9010008480402204808022084
:1002E00048040220704753EA020C00F069802DE9AF
:1002F000F04B4FF00006002B1FBFB3FA83F503FA53
:1003000005F424FA05F65E4012BF1643B2FA82F5F0
:1003100002FA05F4C5F120051EBF22FA05FC44EAE5
:100320000C04203556EA044C4FEA144418BF641CF0
:100330004FF000084FF00009904271EB030C39D3E5
:10034000002919BFB1FA81F701FA07F6B0FA80F770
:1003500000FA07F6C7F120071EBF20FA07FC46EA9D
:100360000C062037B6FBF4FCA7EB0507103F07F09F
:100370001F0BCBF120060CFA0BFB2CFA06F644BF40
:10038000B3460026202FA4BF5E464FF0000B5BEA69
:10039000060C08BF4FF0010B19EB0B09ABFB027CFD
:1003A00048EB0608C01B06FB02CC0BFB03CC71EB31
:1003B0000C01C1E70B46024641464846BDE8F08BBA
:1003C00013B54FF000004FF00001AFF30080BDE81F
:1003D0001C4070470FB4044910B503AA029800F0FE
:1003E00063F810BC5DF814FB0800022010B5203A39
:1003F000C0F00B80B1E81850203AA0E81850B1E8DE
:100400001850A0E81850BFF4F5AF5FEA027C24BF93
:10041000B1E81850A0E8185044BF18C918C0BDE88A
:1004200010405FEA827C24BF51F8043B40F8043B53
:1004300008BF7047D20728BF31F8023B48BF11F808
:10044000012B28BF20F8023B48BF00F8012B704762
:100450004FF0000200B5134694469646203922BF5D
:10046000A0E80C50A0E80C50B1F12001BFF4F7AFA8
:10047000090728BFA0E80C5048BF0CC05DF804EB8A
:10048000890028BF40F8042B08BF704748BF20F8F8
:10049000022B11F0804F18BF00F8012B70477047F6
:1004A0007047704770470000074B70B50D467B449E
:1004B00000F011F80446284600F020F810B14FF083
:1004C000FF3070BD204670BD7B65000001694A1C8D
:1004D00002610878704700B58FB0CDE90131002185
:1004E000059105497944CDE903101146684600F0AD
:1004F0002EF80FB000BD0000E5FFFFFF007B00F00D
:1005000080007047754600F03FF8AE46050069462A
:10051000534620F00700854618B020B5FFF7D0FEFF
:10052000BDE820404FF000064FF000074FF00008F4
:100530004FF0000B21F00701AC46ACE8C009ACE875
:10054000C009ACE8C009ACE8C0098D4670472DE988
:10055000F04106460024D6E90170F5688046304631
:1005600003E04146B847641C3046A8470028F8D14C
:100570002046BDE8F08110B50446AFF30080204668
:10058000BDE81040FFF781BE00487047E403022039
:1005900000BFFEE770B50546AC6BA06C406D02284D
:1005A00006D0012084F83500E06C40F04000E064A3
:1005B000204600F043FA70BD70B506460025B46BC6
:1005C000A06B68B3A06C0068006800F40025A06B05
:1005D00000F0010078B975B1A06C0068C568E26BE5
:1005E000082303FB02510022A06C00F060FDA06B09
:1005F000401EA0632FE0A06C0068006800F400209B
:1006000048BBA06C00680569E26B082303FB02513C
:100610000122A06C00F04BFDA06B401EA0631AE00D
:10062000A06C0068006800F4002020B1D4E911013A
:100630000968C8600FE0A06C0068006800F4002042
:1006400048B9656CE06B042101FB0050A16C09689E
:100650000861206CA063A06B216C88420ED12068D9
:10066000C06840F001002168C8602068006800F0A0
:100670000200022802D1012084F8350070BD00007C
:1006800010B5024800F0E6F910BD0000300302206A
:1006900010B50249886C01F05FFD10BD30030220E7
:1006A0000146087810381823B0FBF3F20848805C44
:1006B000C865032A05D908686FF30900001D88651D
:1006C00003E008686FF309008865886D70470000D3
:1006D000AAAE0008014600208A6A8B69CBB932B104
:1006E000012A0DD0022A03D0032A10D10EE000BF48
:1006F000CB6A03F08073B3F1807F00D1012007E063
:10070000CB6AB3F1C07F00D1012001E000E000BF5F
:1007100034E08B69B3F5005F1AD132B1012A07D0FA
:10072000022A03D0032A11D10AE000BF01200EE003
:10073000CB6A03F08073B3F1807F00D1012006E023
:10074000CB6AB3F1C07F00D1012000E000BF15E00B
:1007500032B1012A05D0022A04D0032A0CD103E0C9
:1007600000BF00BF012008E0CB6A03F08073B3F143
:10077000807F00D1012000E000BF00BF704710B5AE
:10078000046863608468402C04D10468A260046833
:10079000E16003E00468A1600468E26010BD30B568
:1007A0000468246824F4802405682C60046863606D
:1007B0008468402C04D10468A2600468E16003E00E
:1007C0000468A1600468E26030BD704770B50446FB
:1007D0001D460023B5F5804F13D154F822300C4844
:1007E0000340D1E9000640EA06108E6840EA062080
:1007F0008E8940EA06408E693043034344F8223034
:1008000003E06FF0704044F82200002070BD00004B
:100810000000F0CF10B502460023086852F82030DF
:100820001B480340D1E901042043CC6820430C69F4
:1008300020434C6920438C692043CC6920430C6AD7
:1008400020434C6A20438C6A2043CC6A20430C6BC3
:1008500020438C6B20434C6B20430343886808285B
:1008600001D143F04003086842F82030086BB0F52E
:10087000801F05D1086818B110680C6B2043106008
:10088000086818B110684C6B20431060002010BD40
:100890008004C0FF30B5034614460022601C53F8A4
:1008A000202002F04042D1E9000540EA05108D68A1
:1008B00040EA05208D8940EA0545088A401E45EA40
:1008C0000055087D801E45EA00608D69284302437B
:1008D000601C43F82020186800F48010B0F5801FD9
:1008E00007D1586820F47002088A401E42EA00527C
:1008F0005A60002030BD30B502460023002408684D
:10090000012816D013686FF30E03D1E901052843BF
:10091000CD6828430D6928434D6928438D692843D4
:10092000CD6928430D6A28434D6A28430343136069
:1009300019E0136823F4F843D1E9070528434D6A09
:100940002843034354686FF30E04D1E9010528439B
:10095000CD6828430D6928434D6928438D69284394
:10096000044313605460002030BD0246506940EAE1
:10097000410050610020704718B5034600200090E8
:10098000D1E9000420438C68641E40EA4410CC681E
:1009900040EA4420009000981861002018BD000033
:1009A00070B50346154600220024012D1FD09A6819
:1009B00002F070420868401E4E68761E40EA061635
:1009C0008868401E46EA0026C868401E46EA00368F
:1009D000088A401E46EA0046888A401E46EA0056BB
:1009E000087E401E46EA006002439A6022E09A6850
:1009F00011480240C868401E0603888A401E46EA25
:100A000000500243DC6804F070440868401E4E68E1
:100A1000761E40EA06168868401E46EA0026088AC6
:100A2000401E46EA0046087E401E46EA0060044337
:100A30009A60DC60002070BDFF0F0FFF7047000060
:100A40000349884203D10121014A82F850107047BE
:100A50003003022070B504462068056905F00400E3
:100A600004280ED121684861E06C40F00200E06487
:100A7000042084F835002548A16C0865A06C01F0BD
:100A800056FB05F00200022812D121684861E06C93
:100A900040F00100E064042084F835001B48A16C9C
:100AA0000865A06C01F043FB10B1A06CFFF772FD6C
:100AB00005F01000102804D121684861204600F09C
:100AC00077F805F00800082804D12168486120461D
:100AD00000F0ECFA05F00100B8B12068006800F001
:100AE0000200022805D12068C06820F01E0021689D
:100AF000C8602068C06820F001002168C86001203B
:100B0000216848612046FFF79BFF70BD95050008EE
:100B100010B504460CB9012010BD94F8350010B989
:100B2000204600F047F8022084F83500A06908B19B
:100B300000216162206800681C4908402168086043
:100B4000616960680843E168084321690843A16856
:100B50000843A1690843216A0843616A0843A16AFE
:100B60000843E16A0843216B084321680968084388
:100B700021680860606810280BD1217F607F41EAFE
:100B80000021A07F41EA0041E07F41EA0060216846
:100B900088612068C06840F01E002168C86000209D
:100BA000E064012084F835000020B5E707F0E0FF9D
:100BB0007047000010B586B00446142101A8FFF765
:100BC00047FCCE4884427DD100BF00BFCC480068BE
:100BD00040F00100CA4908600846006800F00100C2
:100BE000009000BF00BF00BF00BF00BF081F00682B
:100BF00040F48000091F08600846006800F4800087
:100C0000009000BF00BF00BF00BF00BF08460068E3
:100C100040F0020008600846006800F00200009002
:100C200000BF00BF00BF00BF00BF0846006840F023
:100C3000800008600846006800F08000009000BF57
:100C400000BF00BF00BF00BF0846006840F00100C1
:100C500008600846006800F00100009000BF00BF77
:100C600000BF00BF00BF0846006840F004000860F5
:100C70000846006800F00400009000BF00BF00BFFD
:100C800000BF00BF0846006840F004000860084646
:100C9000006800F00400009000BF00BF00BF00BF6C
:100CA00000BF0846006840F004000860084600687D
:100CB00000F00400009000BF00BF00BF00BF00BFF5
:100CC000084600E018E1006840F0040008600846AB
:100CD000006800F00400009000BF00BF00BF00BF2C
:100CE00000BF0846006840F004000860084600683D
:100CF00000F00400009000BF00BF00BF00BF00BFB5
:100D00000846006840F0080008600846006800F0E7
:100D10000800009000BF00BF00BF00BF00BF084632
:100D2000006840F0020008600846006800F0020019
:100D3000009000BF00BF00BF00BF00BF08460068B2
:100D400040F0020008600846006800F002000090D1
:100D500000BF00BF00BF8020019002200290012050
:100D60000390022004900D20059001A9654801F030
:100D7000D9FB4FF480700190022002900120039073
:100D8000022004900D20059001A95F4801F0CAFBE4
:100D90004020019002200290012003900220049044
:100DA0000D20059001A9594801F0BCFB402001909D
:100DB0000220029001200390022004900D20059053
:100DC00001A9534801F0AEFB80200190022002905F
:100DD00001200390022004900D20059001A94C48A9
:100DE00001F0A0FB4FF480700190022002900120DE
:100DF0000390022004900D20059001A9444801F0C1
:100E000091FB4FF4007001900220029001200390AA
:100E1000022004900D20059001A93D4801F082FBBD
:100E20004FF4006001900220029001200390022004
:100E300004900D20059001A9354801F073FB0820AE
:100E400001900220029001200390022004900D20C6
:100E5000059001A92F4801F065FB4FF480700190C7
:100E60000220029001200390022004900D200590A2
:100E700001A9244801F056FB4FF4007001900220B4
:100E8000029001200390022004900D20059001A9FA
:100E90001C4801F047FB2048204908604FF00070D3
:100EA000486000211D488160C16001614FF480519C
:100EB0004161490081614911C16149020162042116
:100EC0004162012181620021C162016300BFA0640F
:100ED000846300BF01F060FA022211464E2001F047
:100EE000D0FE4E2001F0BDFE03220221392001F088
:100EF000C8FE392001F0B5FE06B010BD3003022057
:100F00003438024000040240001C0240000002404D
:100F100000080240000C02402864024084030220C2
:100F20002DE9F84304460F4615461E464FF00008CB
:100F300000BF94F83400012802D10220BDE8F883F4
:100F4000012084F8340000BF022084F835002068B6
:100F5000006840F48040216808602068006820F044
:100F60000200216808602068006838432168086032
:100F70002748A16CC8632748A16CC8640020A16CF5
:100F80000865A0632064E0636064B6F5803F0AD220
:100F9000226802F1280133462A46A06C01F072FA59
:100FA00048B30120CAE71A48A16C48640120A06335
:100FB000E663656405E0E06B4008E063A06B400019
:100FC000A063E06BB0F5803FF5D2A06B801EA063FC
:100FD000A06B2064E06B042101FB0058E06B0090E3
:100FE000226802F1280143462A46A06C00F068F806
:100FF00008B10120A2E72068006840F001002168E4
:10100000086000BF002084F8340000BF00BF95E7EF
:10101000B90500089505000870B504462248006827
:10102000C0084FF47A71B0FBF1F000FB01F5002627
:1010300000BF94F83400012801D1022070BD0120C6
:1010400084F8340000BF022084F83500206800686E
:1010500020F001002168086000BF281EA5F10105ED
:1010600005D1E06C40F02000E064032605E0206834
:10107000006800F001000028EFD100BF2068006880
:1010800020F4804021680860A06C00F0FBFFE06C59
:10109000E064012084F8350000BF002084F83400AB
:1010A00000BF3046CAE70000000002207047034638
:1010B00012B91868C16001E018680161002070472A
:1010C0002DE9F04704460E4617461D46DDF8208000
:1010D0004FF00009A068802804D14000606501201D
:1010E000BDE8F08700BF94F83400012801D1022048
:1010F000F6E7012084F8340000BF94F83500012899
:1011000073D1022084F835000020606520680068F3
:1011100040F48020216808602068056143463A4613
:1011200031462046FFF72BFBFA49206888425DD9FB
:10113000F9492068884201D1202052E0F549483918
:101140002068884201D120204BE0F34960312068BB
:10115000884201D1202044E0EE49183120688842BD
:1011600001D120203DE0EC4918312068884201D1AE
:10117000C01436E0E74930392068884201D1C014F4
:101180002FE0E54978312068884201D1C01428E079
:10119000E04930312068884201D1C01421E0DE49A5
:1011A00030312068884202D14FF4001019E0D9494B
:1011B00018392068884202D14FF4001011E0D64956
:1011C00090312068884202D14FF4001009E0D149E3
:1011D00048312068884202D14FF4001001E04FF0FE
:1011E0000060CC494C39086020E1EFE3CA49A831DE
:1011F000206888425CD9C8492068884201D12020F3
:1012000052E0C44948392068884201D120204BE08F
:10121000C14960312068884201D1202044E0BD49A5
:1012200018312068884201D120203DE0BA491831A8
:101230002068884201D1C01436E0B64930392068B0
:10124000884201D1C0142FE0B34978312068884228
:1012500001D1C01428E0AF4930312068884201D163
:10126000C01421E0AC4930312068884202D14FF4EB
:10127000001019E0A74918392068884202D14FF4BC
:10128000001011E0A44990312068884202D14FF447
:10129000001009E09F4948312068884202D14FF48C
:1012A000001001E04FF000609A4950390860BDE03D
:1012B00099494831206888425CD99749206888421A
:1012C00001D1202052E0934948392068884201D159
:1012D00020204BE0904960312068884201D12020D5
:1012E00044E08C4918312068884201D120203DE03B
:1012F000894918312068884201D1C01436E08549F7
:1013000030392068884201D1C0142FE082497831F9
:101310002068884201D1C01428E07E49303120681D
:10132000884201D1C01421E07B49303120688842D5
:1013300002D14FF4001019E076491839206888422C
:1013400002D14FF4001011E07349903120688842B7
:1013500002D14FF4001009E06E49483120688842FC
:1013600002D14FF4001001E04FF000606A491039DB
:10137000C8605BE068492068884201D1202052E0C3
:10138000644948392068884201D120204BE06249F5
:1013900060312068884201D1202044E05D49183145
:1013A0002068884201D120203DE05B491831206847
:1013B000884201D1C01436E056493039206888424D
:1013C00001D1C0142FE0544978312068884201D1FE
:1013D000C01428E04F4930312068884201D1C01440
:1013E00021E04D4930312068884202D14FF400108D
:1013F00019E0484918392068884202D14FF400109A
:1014000011E0454990312068884202D14FF4001024
:1014100009E0404948312068884202D14FF4001069
:1014200001E04FF000603C4910398860394920687C
:1014300088425CD938492068884201D1102052E0A6
:10144000344948392068884201D110204BE03249A4
:1014500060312068884201D1102044E02D491831C4
:101460002068884201D110203DE02B4918312068C6
:10147000884201D1001536E026493039206888427B
:1014800001D100152FE0244978312068884201D12C
:10149000001528E01F4930312068884201D100152D
:1014A00021E01D4930312068884202D14FF480107C
:1014B00019E0184918392068884202D14FF4801089
:1014C00011E0154990312068884202D14FF4801014
:1014D00009E0104948312068884202D14FF4801059
:1014E00001E04FF080600B494C39086020E10A4967
:1014F000A831206888425FD907492068884201D115
:10150000102055E0034948392068884206D1102050
:101510004EE000005864024010600240F849206824
:10152000884201D1102043E0F6492068884201D169
:1015300010203DE0F24948392068884201D1001569
:1015400036E0F04948392068884201D100152FE083
:10155000EB4918312068884201D1001528E0E9499B
:1015600018312068884201D1001521E0E449303962
:101570002068884202D14FF4801019E0E1493039E7
:101580002068884202D14FF4801011E0DC493031EC
:101590002068884202D14FF4801009E0D9493031E7
:1015A0002068884202D14FF4801001E04FF0806043
:1015B000D44968390860BBE0D149183920688842AD
:1015C0005BD9CF4960392068884201D1102050E0B2
:1015D000CC4960392068884201D1102049E0C849CF
:1015E0002068884201D1102043E0C6492068884223
:1015F00001D110203DE0C24948392068884201D11C
:10160000001536E0BF4948392068884201D10015ED
:101610002FE0BB4918312068884201D1001528E02D
:10162000B84918312068884201D1001521E0B44939
:1016300030392068884202D14FF4801019E0B14956
:1016400030392068884202D14FF4801011E0AC4953
:1016500030312068884202D14FF4801009E0A94956
:1016600030312068884202D14FF4801001E04FF001
:101670008060A3497039C8605AE0A1496039206888
:10168000884201D1102050E09E496039206888428C
:1016900001D1102049E09A492068884201D11020E8
:1016A00043E098492068884201D110203DE09449E8
:1016B00048392068884201D1001536E091494839FF
:1016C0002068884201D100152FE08D49183120682B
:1016D000884201D1001528E08A49183120688842E3
:1016E00001D1001521E0864930392068884202D1B5
:1016F0004FF4801019E0834930392068884202D1C4
:101700004FF4801011E07E4930312068884202D1C8
:101710004FF4801009E07B4930312068884202D1C3
:101720004FF4801001E04FF0806075497039886097
:1017300074491839206888425BD97149603920683A
:10174000884201D1082050E06E4960392068884203
:1017500001D1082049E06A492068884201D1082067
:1017600043E068492068884201D108203DE064498F
:1017700048392068884201D1401536E0614948392E
:101780002068884201D140152FE05D49183120685A
:10179000884201D1401528E05A4918312068884212
:1017A00001D1401521E0564930392068884202D1E4
:1017B0004FF4002019E0534930392068884202D1A3
:1017C0004FF4002011E04E4930312068884202D1A8
:1017D0004FF4002009E04B4930312068884202D1A3
:1017E0004FF4002001E04FF0007046496439086072
:1017F0001FE143494831206888425BD9404960393C
:101800002068884201D1082050E03E4960392068B4
:10181000884201D1082049E039492068884201D135
:10182000082043E037492068884201D108203DE084
:10183000334948392068884201D1401536E03149A2
:1018400048392068884201D140152FE02C491831D1
:101850002068884201D1401528E02A4918312068C3
:10186000884201D1401521E025493039206888425D
:1018700002D14FF4002019E0224930392068884213
:1018800002D14FF4002011E01D4930312068884218
:1018900002D14FF4002009E01A4930312068884213
:1018A00002D14FF4002001E04FF000701549683973
:1018B0000860BEE012491839206888425DD9104995
:1018C00060392068884201D1082052E00D49603912
:1018D0002068884201D108204BE0094920688842ED
:1018E00001D1082045E007492068884201D108203D
:1018F0003FE0034948392068884205D1401538E067
:101900007060024070640240FA492068884201D148
:1019100040152EE0F8492068884201D1401528E0A2
:10192000F44960312068884201D1401521E0F24934
:1019300048392068884202D14FF4002019E0ED496F
:1019400018312068884202D14FF4002011E0EA49A2
:1019500018312068884202D14FF4002009E0E5499F
:1019600078312068884202D14FF4002001E04FF026
:101970000070E1498839C8605BE0DF497839206848
:10198000884201D1082051E0DA491839206888429C
:1019900001D108204AE0D84918392068884201D18D
:1019A000082043E0D34948312068884201D108200B
:1019B0003CE0D14960392068884201D1401535E0CA
:1019C000CC492068884202D140152FE04CE3CA4937
:1019D0002068884201D1401528E0C649603120685E
:1019E000884201D1401521E0C34948392068884226
:1019F00002D14FF4002019E0BE4918312068884216
:101A000002D14FF4002011E0BB4918312068884210
:101A100002D14FF4002009E0B649783120688842AD
:101A200002D14FF4002001E04FF00070B249883934
:101A30008860B0493031206888425BD9AE49783936
:101A40002068884201D1042050E0AA491839206852
:101A5000884201D1042049E0A7491839206888420A
:101A600001D1042042E0A34948312068884201D1D5
:101A700004203BE0A04960392068884201D18015EC
:101A800034E09C492068884201D180152EE09A49B3
:101A90002068884201D1801528E09649603120688D
:101AA000884201D1801521E0934948392068884255
:101AB00002D14FF4802019E08E4918312068884205
:101AC00002D14FF4802011E08B4918312068884200
:101AD00002D14FF4802009E086497831206888429D
:101AE00002D14FF4802001E04FF0807081491C3911
:101AF00008601EE180493031206888425BD97E4908
:101B000078392068884201D1042050E07949183999
:101B10002068884201D1042049E0774918392068BB
:101B2000884201D1042042E072494831206888424D
:101B300001D104203BE0704960392068884201D11E
:101B4000801534E06B492068884201D180152EE071
:101B500069492068884201D1801528E065496031D3
:101B60002068884201D1801521E063494839206806
:101B7000884202D14FF4802019E05E491831206874
:101B8000884202D14FF4802011E05B49183120686F
:101B9000884202D14FF4802009E05649783120680C
:101BA000884202D14FF4802001E04FF0807051490B
:101BB00020390860BDE050493039206888425BD93F
:101BC0004D4978392068884201D1042050E04949C4
:101BD00018392068884201D1042049E04649183963
:101BE0002068884201D1042042E0424948312068FF
:101BF000884201D104203BE03F4960392068884297
:101C000001D1801534E03B492068884201D180151C
:101C10002EE039492068884201D1801528E03549F5
:101C200060312068884201D1801521E0324948396D
:101C30002068884202D14FF4802019E02D491831E4
:101C40002068884202D14FF4802011E02A491831DF
:101C50002068884202D14FF4802009E0254978317C
:101C60002068884202D14FF4802001E04FF080705C
:101C700021498839C8605CE01F497839206888426A
:101C800001D1042052E01B4918392068884201D153
:101C900004204BE0184918392068884201D10420FB
:101CA00044E0144948312068884201D104203DE0D5
:101CB000114960392068884201D1801536E00D490C
:101CC0002068884201D1801530E00B4920688842A5
:101CD00001D180152AE0074960312068884201D18E
:101CE000801523E0044948392068884206D14FF422
:101CF00080201BE02864024088600240DF492068A1
:101D0000884202D14FF4802010E0DD4920688842EB
:101D100002D14FF4802009E0D84960312068884220
:101D200002D14FF4802001E04FF08070D449A039F7
:101D30008860D2491831206888425BD9D0499039EF
:101D40002068884201D1012050E0CC493039206818
:101D5000884201D1012049E0C949303920688842D0
:101D600001D1012042E0C54930312068884201D1CB
:101D700001203BE0C24978392068884201D14020E7
:101D800034E0BE4918392068884201D140202DE056
:101D9000BB4918392068884201D1402026E0B74964
:101DA00048312068884201D140201FE0B4496039A1
:101DB0002068884202D14FF4803017E0AF49206894
:101DC000884202D14FF4803010E0AD49206888424B
:101DD00002D14FF4803009E0A84960312068884280
:101DE00002D14FF4803001E04FF48000A349343930
:101DF00008601CE1A2491831206888425BD9A049DB
:101E000090392068884201D1012050E09B49303947
:101E10002068884201D1012049E099493039206881
:101E2000884201D1012042E0944930312068884243
:101E300001D101203BE0924978392068884201D1E4
:101E4000402034E08D4918392068884201D1402073
:101E50002DE08B4918392068884201D1402026E0C6
:101E6000864948312068884201D140201FE08449DA
:101E700060392068884202D14FF4803017E07F49F2
:101E80002068884202D14FF4803010E07C492068FD
:101E9000884202D14FF4803009E0784960312068EF
:101EA000884202D14FF4803001E04FF48000734942
:101EB00038390860BBE072494839206888425BD9EC
:101EC0006F4990392068884201D1012050E06B4968
:101ED00030392068884201D1012049E06849303911
:101EE0002068884201D1012042E0644930312068F5
:101EF000884201D101203BE061497839206888425D
:101F000001D1402034E05D4918392068884201D170
:101F100040202DE05A4918392068884201D14020DC
:101F200026E0564948312068884201D140201FE010
:101F3000534960392068884202D14FF4803017E05D
:101F40004E492068884202D14FF4803010E04C495D
:101F50002068884202D14FF4803009E0474960315F
:101F60002068884202D14FF4803001E04FF48000B5
:101F70004349A039C8605AE04149903920688842F5
:101F800001D1012050E03D4930392068884201D11B
:101F9000012049E03A4930392068884201D10120C6
:101FA00042E0364930312068884201D101203BE0CF
:101FB000334978392068884201D1402034E02F49E4
:101FC00018392068884201D140202DE02C49183969
:101FD0002068884201D1402026E028494831206805
:101FE000884201D140201FE025496039206888429D
:101FF00002D14FF4803017E020492068884202D196
:102000004FF4803010E01E492068884202D14FF41E
:10201000803009E0194960312068884202D14FF4CC
:10202000803001E04FF480001549A03988602068B5
:10203000006840F01600216808602068406940F0A0
:10204000800021684861206C08B9A06C28B1206824
:10205000006840F00800216808602068006840F0CF
:1020600001002168086006E000BF002084F8340009
:1020700000BF4FF002094846FFF732B84064024003
:10208000A060024070B50446A56D00F06DFB0646E9
:1020900094F83500022808D08020606500BF002039
:1020A00084F8340000BF012070BD2068006820F073
:1020B0001600216808602068406920F080002168CF
:1020C0004861206C08B9A06C28B12068006820F035
:1020D0000800216808602068006820F0010021687D
:1020E00008600FE000F040FB801B05280AD9202083
:1020F000606500BF002084F8340000BF032084F82E
:102100003500D1E72068006800F001000028E9D11F
:1021100094F85C103F208840A86000BF002084F83D
:10212000340000BF012084F835000020BCE70146E0
:1021300091F83500022803D08020486501207047BF
:10214000052081F835000868006820F001000A6861
:1021500010600020F3E70000F8B50446002000906E
:102160008C4800684FF41651B0FBF1F7A56D2E684E
:1021700094F85C1008208840304098B120680068CE
:1021800000F0040070B12068006820F004002168AD
:10219000086094F85C1008208840A860606D40F0EA
:1021A0000100606594F85C1001208840304068B1FF
:1021B0002068406900F0800040B194F85C10012074
:1021C0008840A860606D40F00200606594F85C1083
:1021D00004208840304068B12068006800F00200A8
:1021E00040B194F85C1004208840A860606D40F015
:1021F0000400606594F85C1010208840304078B38B
:102200002068006800F0080050B394F85C101020BB
:102210008840A8602068006800F4802080B12068B1
:10222000006800F4002028B9206CC8B12046216C59
:10223000884715E0A06C98B12046A16C88470FE054
:102240002068006800F4807028B92068006820F0D9
:10225000080021680860206C10B12046216C884776
:1022600094F85C10202088403040002865D0206819
:10227000006800F0100000285FD094F85C10202067
:102280008840A86094F83500052828D120680068A7
:1022900020F01600216808602068406920F0800066
:1022A00021684861206C08B9A06C28B120680068DA
:1022B00020F008002168086094F85C103F208840F6
:1022C000A86000BF002084F8340000BF012084F81B
:1022D0003500206D10B12046216D8847F8BD20687B
:1022E000006800F4802080B12068006800F40020BD
:1022F00028B9606C10B12046616C88471DE0E06B26
:10230000D8B12046E16B884717E02068006800F4E8
:10231000807068B92068006820F0100021680860AB
:1023200000BF002084F8340000BF012084F835008D
:10233000E06B10B12046E16B8847606D38B3606D8B
:1023400000F00100F0B1052084F835002068006835
:1023500020F001002168086000BF0098401C009038
:10236000B84200D905E02068006800F001000028AC
:10237000F3D100BF00BF002084F8340000BF01206B
:1023800084F83500E06C10B12046E16C884700BF4E
:10239000A4E70000000002202DE9F04104460025DA
:1023A00000F0E2F9074614B90120BDE8F081606A47
:1023B00000B100BF00BF002084F8340000BF02203D
:1023C00084F835002068006820F00100216808606A
:1023D0000AE000F0C9F9C01B052805D92020606576
:1023E000032084F83500E0E72068006800F0010071
:1023F0000028EED12068056821480540D4E9010194
:102400000843E16808432169084361690843A169F9
:102410000843E1690843216A08430543606A0428C8
:1024200003D1D4E90B010843054320680560206807
:10243000456925F00705606A0543606A04280DD1E7
:10244000A06A0543E06A48B12046FEF743F928B187
:1024500040206065012084F83500A6E720684561CA
:102460002046FEF71DF9064694F85C103F20884090
:10247000B06000206065012084F83500002094E7FA
:102480003F8010E02DE9F04704460D4616461F46F2
:102490004FF00008D4F8589000BF94F83400012899
:1024A00002D10220BDE8F087012084F8340000BF8B
:1024B00094F8350001282BD1022084F83500002043
:1024C00060653B46324629462046FEF768F994F897
:1024D0005C103F208840C9F808002068006840F080
:1024E0001600216808602068406940F0800021687B
:1024F0004861206C28B12068006840F0080021681D
:1025000008602068006840F001002168086006E06B
:1025100000BF002084F8340000BF4FF0020840469E
:10252000C0E70000F8B502460B4600210025002454
:10253000002000BFE4E0012606FA01F51E6806EA65
:102540000504AC4271D15E68012E08D05E68022E8F
:1025500005D05E68112E02D05E68122E13D19068ED
:102560004F000326BE40B0434F00DE68BE403043FC
:102570009060506801268E40B0431E79C6F3001665
:102580008E4030435060D0684F000326BE40B043B9
:102590004F009E68BE403043D0605E68022E02D07D
:1025A0005E68122E13D1CF0802F1200656F82700DC
:1025B0004E07F70E0F26BE40B0434F07FF0E1E69B1
:1025C000BE403043CF0802F1200646F827001068CD
:1025D0004F000326BE40B0431E7906F003064F00AD
:1025E000BE40304310605E6806F08056B6F1805FF2
:1025F000A8D100BF444E366846F48046424F3E6044
:102600003E46366806F48046009600BF00BF3F4E47
:102610008F0856F827008E07370F0F26BE40B043AD
:102620003B4EB24202D100262EE068E0394EB24263
:1026300001D1012628E0384EB24201D1022623E022
:10264000364EB24201D103261EE0354EB24201D1D0
:10265000042619E0334EB24201D1052614E0324E71
:10266000B24201D106260FE0304EB24201D1072618
:102670000AE02F4EB24201D1082605E02D4EB242AB
:1026800001D1092600E00A268F073F0FBE403043E4
:102690001E4E8F0846F82700274E3068A0435E681C
:1026A00006F48036B6F5803F00D12043224E3060DC
:1026B000361D3068A0435E6806F40036B6F5003F6C
:1026C00000D120431C4E361D3060361D3068A043BB
:1026D0005E6806F48016B6F5801F00D12043164EC2
:1026E00008363060361D3068A0435E6806F4001678
:1026F000B6F5001F00D120430F4E0C363060491C48
:102700001029FFF418AFF8BD4438024008380140E2
:10271000000002400004024000080240000C024099
:10272000001002400014024000180240001C024049
:102730000020024000240240003C01400246136990
:102740000B400BB1012000E00020704742690A40B5
:1027500012B10A04826100E0816170470AB18161AF
:1027600001E00B0483617047014800687047000076
:102770001000022003480068034909780844014911
:1027800008607047100002201800022010B50A48A7
:10279000006840F40070084908600846006840F48A
:1027A00080700860052000F0ABFA0F2000F006F8FA
:1027B00000F056FA002010BD003C024070B50446FF
:1027C0000E4800784FF47A71B1FBF0F00C490968BB
:1027D000B1FBF0F5284601F0D9FB08B1012070BD2E
:1027E000102C07D200222146501E00F04AFA05485C
:1027F000046001E00120F2E70020F0E71800022069
:10280000000002201400022070B504460E46154652
:1028100000BF94F8A000012801D1022070BD012062
:1028200084F8A00000BF022084F8A10005EB850118
:1028300001EBC50204F1380101EB8200342231467C
:10284000FDF7D4FD2A463146204601F0EEFD012079
:102850002168486284F8A10000BF002084F8A0002D
:1028600000BF00BFDAE7000070B504460CB90120D4
:1028700070BD94F8A10028B9002084F8A00020467B
:1028800000F07EF8022084F8A1002068806920F022
:10289000704021688861D4E901010843E168084378
:1028A0002169084321688969084321688861206893
:1028B00080683249084021688860A08A0504206841
:1028C0008068A16929430843216888602068C0683E
:1028D0002A4908402168C860A08B05042068C068A8
:1028E000216A294308432168C86020680069234998
:1028F000084021680861A08C050420680069A16A6D
:102900002943084321680861206840691B49084041
:1029100021684861A08D050420684069216B294326
:1029200008432168486194F83500050294F83600A0
:1029300006042068C06A00F07F402168C86246EA49
:10294000050094F8341008432168C96A08432168D7
:10295000C8622068406B40F0060021684863206828
:10296000806940F00100216888610020C4F8A4005B
:10297000012084F8A10000207AE7000000F800F0B0
:1029800010B586B0044600BF4748006840F080603C
:10299000454908600846006800F08060009000BF6C
:1029A00000BF00BF40481438006840F400003E49B2
:1029B000143908600846006800F40000009000BF69
:1029C00000BF00BF0846006840F0020008600846EB
:1029D000006800F00200009000BF00BF00BF084682
:1029E000006840F0200008600846006800F0200001
:1029F000009000BF00BF00BF0846006840F04000E4
:102A000008600846006800F04000009000BF00BF6A
:102A100000BF0846006840F0800008600846006873
:102A200000F08000009000BF00BF00BF08460068B3
:102A300040F4807008600846006800F480700090E0
:102A400000BF00BF202001900120029003900320CE
:102A5000049001A91548FFF765FD4FF480600190CF
:102A60000220029000200390032004900E20059085
:102A700001A90F48FFF756FD4FF40C60019001A922
:102A80000C48FFF74FFD4FF47E40019001A90A4822
:102A9000FFF748FD40F2F760019001A90748FFF7F2
:102AA00041FD06B010BD0000443802400004024061
:102AB0000014024000180240001C024000200240A6
:102AC0002DE9F04104460E461746984600BF94F89B
:102AD000A000012802D10220BDE8F081012084F885
:102AE000A00000BF022084F8A10008EB880000EBE2
:102AF000C80104F1380000EB81052E60A86A30445B
:102B00006860AF60E86A3844E8604246294620467B
:102B100001F08BFC01202168486284F8A10000BF0D
:102B2000002084F8A00000BF00BFD5E72DE9F041E8
:102B300004460E461746984600BF94F8A0000128A8
:102B400002D10220BDE8F081012084F8A00000BF7E
:102B5000022084F8A10008EB880000EBC80104F112
:102B6000380000EB8105286830446860A868384464
:102B7000E860AE62EF6242462946204601F055FC0D
:102B800001202168486284F8A10000BF002084F879
:102B9000A00000BF00BFD5E74178154A1160017859
:102BA000F9B1121D41681160017B0907C27A41EA3F
:102BB0000261827A41EAC241427B41EA8241827BE0
:102BC00041EA4241C27B41EA0241427A41EA0221A2
:102BD000027A41EA420102781143054A0832116043
:102BE00005E00021024A121D1160121D116070479C
:102BF00098ED00E000BF00BF00BFBFF35F8F00BFD4
:102C000000BF00BF0548006820F480300349086019
:102C100000200249703108607047000024ED00E098
:102C200040F001010D4A11600C497039096841F406
:102C300080310A4A703A116000BF00BF00BFBFF385
:102C40004F8F00BF00BF00BF00BF00BF00BFBFF37A
:102C50006F8F00BF00BF00BF7047000094ED00E021
:102C6000704701460846002809DB00F01F030122D7
:102C70009A4043099B0003F1E023C3F8002100BF01
:102C800070472DE9F05F80460D461646002702F09A
:102C90001BF9074639462A46334601F00700C0F1C2
:102CA000070ABAF1040F02D94FF0040A01E0C0F19B
:102CB000070AD14600F1040ABAF1070F02D24FF019
:102CC000000A01E0A0F1030AD4464FF0010A0AFA13
:102CD00009FAAAF1010A0AEA020A0AFA0CFA4FF002
:102CE000010B0BFA0CFBABF1010B0BEA030B4AEAED
:102CF0000B042146404602F0EFF8BDE8F09F0000CB
:102D000000BF00F00702064B19684FF6FF03194099
:102D1000044B0B4343EA0221014B196000BF70478B
:102D20000CED00E00000FA0538B5002400BF204893
:102D3000006840F080501E4908600846006800F0B6
:102D40008050009000BF00BF1A48006840F48030F7
:102D500018490860FFF708FD044607E0FFF704FD87
:102D6000001BB0F57A7F01D9032038BD11484068B7
:102D700000F48030B0F5803FF0D10E48006840F498
:102D800000300C490860FFF7EFFC044607E0FFF74E
:102D9000EBFC001BB0F57A7F01D90320E5E705487D
:102DA000406800F40030B0F5003FF0D10020DCE7CF
:102DB00040380240007000402DE9F84304460026E8
:102DC00000250027A846A946207800F0010088B118
:102DD00000BFFE48006820F40000FC490860084677
:102DE0000068616B0843F949086000BF606B08B96F
:102DF0004FF00108206800F40020B0F5002F13D137
:102E0000F2488430006820F44010E16B0843EF4939
:102E100084310860E06BB0F5801F01D14FF00108EC
:102E2000E06B08B94FF00109206800F48010B0F59C
:102E3000801F13D1E5488430006820F44000216CE5
:102E40000843E24984310860206CB0F5800F01D15D
:102E50004FF00108206C08B94FF00109206800F01C
:102E60008070B0F1807F01D14FF00108207800F030
:102E70002000202870D100BFD4483830006840F0CE
:102E80008050D249383108600846006800F0805010
:102E9000009000BF00BFCE48006840F48070CC496D
:102EA0000860FFF761FC064607E0FFF75DFC801B4A
:102EB000642802D90320BDE8F883C548006800F4FF
:102EC00080700028F1D0C1486830006800F4407577
:102ED00085B3208E00F44070A8422BD0BB486830E8
:102EE000006820F44075B9486830006840F48030CC
:102EF000B649683108600846006820F480300860F0
:102F000008460560006800F0010098B1FFF72CFC4E
:102F1000064608E0FFF728FC801B41F28831884212
:102F200001D90320C7E7A94868300068C0F3400012
:102F30000028EFD000BF208E00F44070B0F5407F35
:102F40000BD1A248006820F4F810A24A216B11406E
:102F500008439E49086006E010E09C48006820F4A1
:102F6000F8109A490860994868300068218EC1F3CA
:102F70000B01084395496831086000BF207800F0D4
:102F80001000102810D100BF90488430006820F055
:102F900080708E498431086008460068A16B084340
:102FA0008A498431086000BF208800F48040B0F571
:102FB000804F09D185488830006820F44030616E28
:102FC0000843824988310860208800F40040B0F549
:102FD000004F09D17D488830006820F44020A16E60
:102FE00008437A4988310860206800F48030B0F5E1
:102FF000803F09D175488830006820F44010E16EA8
:103000000843724988310860206800F40030B0F548
:10301000003F09D16D488830006820F44000216FDE
:1030200008436A4988310860207800F04000402851
:1030300009D166488830006820F00300616C0843BD
:10304000624988310860207800F08000802809D12A
:103050005E488830006820F00C00A16C08435B4992
:1030600088310860208800F48070B0F5807F09D135
:1030700056488830006820F03000E16C084353491E
:1030800088310860208800F40070B0F5007F09D115
:103090004E488830006820F0C000216D08434B493D
:1030A00088310860208800F48060B0F5806F09D115
:1030B00046488830006820F44070616D08434349F9
:1030C00088310860208800F40060B0F5006F09D1F5
:1030D0003E488830006820F44060A16D08433B49B9
:1030E00088310860208800F48050B0F5805F09D1F5
:1030F00036488830006820F44050E16D0843334979
:1031000088310860208800F40050B0F5005F09D1D4
:103110002E488830006820F44040216E08432B4937
:1031200088310860206800F48000B0F5800F09D174
:1031300026488830006820F08060A16F084323494A
:1031400088310860206800F40010B0F5001F0FD12E
:103150001E488830006820F00060E16F08431B497A
:1031600088310860E06FB0F1006F01D14FF00109C4
:10317000207800F00800082801D14FF001092068EC
:1031800000F48020B0F5802F09D110488830006805
:1031900020F04070616F08430C4988310860206856
:1031A00000F40000B0F5000F0AD10848883000682C
:1031B00020F08050D4F8801008430449883108601A
:1031C000206800F08060B0F1806F05E008380240B0
:1031D00000700040FFFCFF0F08D1CC48006820F0D1
:1031E0000050D4F884100843C8490860206800F0F3
:1031F0000060B0F1006F0AD1C448001F006820F0E1
:103200000070D4F888100843C049091F086020687E
:1032100000F08050B0F1805F0AD1BC48001F006808
:1032200020F08060D4F88C100843B849091F08606A
:10323000B8F1010F03D02068B0F1007F7ED1B34810
:103240009038006820F08060B04990390860FFF73E
:103250008BFA064606E0FFF787FA801B642801D93F
:10326000032028E6A94890380068C0F3C060002811
:10327000F1D1207800F00100B8B1606BA8B9A34883
:103280000C380068C0F30145A0480C380068C0F352
:1032900003676068800140EA054040EA0761207AE0
:1032A00041EA007099490C390860206800F4002058
:1032B000B0F5002F03D1E06BB0F5801F09D0206876
:1032C00000F48010B0F5801F24D1206CB0F5800F81
:1032D00020D18E480C380068C0F301458B480C386B
:1032E0000068C0F302776068800140EA0541207BF6
:1032F00041EA006040EA077084490C39086083485D
:10330000001F006820F01F00616A491E08437F49C2
:10331000091F0860206800F08070B0F1807F17D12D
:103320007A480C380068C0F3036578480C380068A8
:10333000C0F3027760688101208A00E036E041EA4C
:10334000004040EA056040EA077070490C390860A7
:10335000206800F00070B0F1007F0DD1606881013D
:10336000208A41EA0041207B41EA0061207A41EA5B
:10337000007066490C39086064489038006840F075
:103380008060624990390860FFF7EEF9064606E072
:10339000FFF7EAF9801B642801D903208BE55B481D
:1033A00090380068C0F3C0600028F1D0B9F1010F77
:1033B0007ED156489038006820F0805053499039AB
:1033C0000860FFF7D1F9064606E0FFF7CDF9801B4C
:1033D000642801D903206EE54C4890380068C0F39A
:1033E00040700028F1D1206800F40020B0F5002FD3
:1033F00001D1E06B38B1206800F48010B0F5801F77
:1034000022D1206C00BB414808380068C0F3014558
:103410003E4808380068C0F302776069800140EADE
:103420000541207E41EA006040EA077037490839CB
:103430000860081D006820F4F851A06A401E41EAA7
:1034400000203249091F0860206800F40010B0F520
:10345000001F19D1E06FB0F1006F15D12B4808386B
:103460000068C0F30365294808380068C0F3027794
:1034700060698101208C41EA004040EA056040EA31
:103480000770224908390860207800F008000828F1
:1034900020D11E4808380068C0F303651B4808386F
:1034A0000068C0F301476069800140EA074000E01E
:1034B0002AE040EA0561207F41EA0070134908399B
:1034C0000860081D006820F44030E16A08430F4995
:1034D000091F08600D489038006840F080500B4983
:1034E00090390860FFF740F9064606E0FFF73CF91F
:1034F000801B642801D90320DDE40448903800686B
:10350000C0F340700028F1D00020D4E4903802408D
:1035100070B504460D4600260CB9012070BD5C480C
:10352000006800F00F00A8420ED25948006820F051
:103530000F002843564908600846006800F00F0055
:10354000A84201D00120E9E7207800F0020002281B
:103550001DD1207800F00400042805D14D480068F2
:1035600040F4E0504B490860207800F0080008283B
:1035700005D14848006840F4604046490860454825
:10358000006820F0F000A1680843424908602078F4
:1035900000F0010090B36068012807D13D48083869
:1035A0000068C0F34040A0B90120B7E76068022876
:1035B00007D1384808380068C0F3406048B9012096
:1035C000ACE7344808380068C0F3400008B901206F
:1035D000A4E73048006820F00300616808432D49E3
:1035E0000860FFF7C1F8064609E0FFF7BDF8801B49
:1035F00041F28831884202D903208FE707E025484D
:10360000006800F00C006168B0EB810FEDD120483C
:10361000006800F00F00A8420ED91D48006820F095
:103620000F0028431A4908600846006800F00F00A0
:10363000A84201D0012071E7207800F0040004289E
:1036400007D11448006820F4E050E16808431149AC
:103650000860207800F00800082808D10D480068AC
:1036600020F46040216940EAC1000A49086000F086
:103670003FF808490968C1F30311074A515CC84083
:103680000649086006480068FFF798F8002045E7FB
:10369000003C02400838024092AE000800000220C0
:1036A000140002200148006870470000000002205A
:1036B00000B5FFF7F7FF04490968C1F38221034A07
:1036C000515CC84000BD000008380240A2AE0008AE
:1036D00000B5FFF7E7FF04490968C1F34231034A27
:1036E000515CC84000BD000008380240A2AE00088E
:1036F0002DE9F047002400250026A1462548006852
:1037000000F00C0020B1042805D008283AD105E0CB
:10371000DFF8849039E0DFF8849036E01D48001F20
:10372000006800F03F041B48001F006800F48000A0
:1037300078B11A481749091F0968C1F38811A0FB1D
:1037400001700146224600233846FCF7CCFD0546B1
:103750000EE011480F49091F0968C1F38811A0FB49
:1037600001700146224600233846FCF7BCFD0546A1
:103770000848001F0068C0F30140401C4600B5FB2C
:10378000F6F902E0DFF8109000BF00BF4846BDE840
:10379000F0870000083802400024F40040787D01E2
:1037A000F8B5044600270CB90120F8BD207800F0D8
:1037B0000100002871D0F948006800F00C000428CE
:1037C0000DD0F648006800F00C00082813D1F3482B
:1037D000001F006800F48000B0F5800F0BD1EF48A7
:1037E00008380068C0F34040002869D060680028AD
:1037F00066D10120D9E700BF6068B0F5803F08D1ED
:10380000E6480838006840F48030E4490839086028
:103810002EE0606868B9E1480838006820F480301C
:10382000DE49083908600846006820F480200860F6
:103830001EE06068B0F5A02F0DD1D84808380068A8
:1038400040F48020D549083908600846006840F4F3
:10385000803008600CE0D1480838006820F48030DF
:10386000CE49083908600846006820F480200860C6
:1038700000BF606890B1FEF777FF054606E0FEF7EF
:1038800073FF401B642801D903208EE7C348083822
:103890000068C0F340400028F1D011E0FEF764FF5B
:1038A000054606E0FEF760FF401B642801D90320AF
:1038B0007BE7BA4808380068C0F340400028F1D1DF
:1038C000207800F00200022869D1B448006800F0B6
:1038D0000C0058B1B148006800F00C0008281CD159
:1038E000AE48001F006800F48000B0B9AB4808384B
:1038F0000068C0F3400020B1E068012801D0012039
:1039000053E7A6480838006820F0F800216940EA2B
:10391000C100A2490839086041E0E06828B39F4827
:103920000838006840F001009C4908390860FEF73B
:103930001BFF054606E0FEF717FF401B022801D9D2
:10394000032032E7954808380068C0F3400000289B
:10395000F1D092480838006820F0F800216940EA68
:10396000C1008E490839086019E08C4808380068A1
:1039700020F00100894908390860FEF7F5FE054688
:1039800006E0FEF7F1FE401B022801D903200CE7F8
:10399000824808380068C0F340000028F1D1207840
:1039A00000F00800082836D16069D0B17B486C303F
:1039B000006840F0010079496C310860FEF7D4FEE0
:1039C000054606E0FEF7D0FE401B022801D9032081
:1039D000EBE672486C300068C0F340000028F1D07C
:1039E00019E06E486C30006820F001006B496C31C2
:1039F0000860FEF7B9FE054606E0FEF7B5FE401B7F
:103A0000022801D90320D0E664486C300068C0F376
:103A100040000028F1D1207800F00400042874D17F
:103A20005E483830006800F0805080B900BF5B48C5
:103A30003830006840F080505849383108600846F6
:103A4000006800F08050009000BF00BF012754487C
:103A5000006800F48070B0B95148006840F480708C
:103A60004F490860FEF780FE054606E0FEF77CFE43
:103A7000401B642801D9032097E64948006800F4F8
:103A800080700028F2D000BFA068012808D1434808
:103A90006830006840F001004049683108602DE05E
:103AA000A06868B93D486830006820F001003B49D3
:103AB000683108600846006820F0040008601DE0D6
:103AC000A06805280DD135486830006840F0040032
:103AD0003249683108600846006840F0010008601B
:103AE0000CE02E486830006820F001002B49683156
:103AF00008600846006820F00400086000BFA06865
:103B0000A8B1FEF731FE054609E02EE0FEF72CFED7
:103B1000401B41F28831884201D9032045E61F4805
:103B200068300068C0F340000028EFD013E0FEF7D3
:103B30001BFE054608E0FEF717FE401B41F28831E8
:103B4000884201D9032030E6144868300068C0F389
:103B500040000028EFD1012F07D11048383000680D
:103B600020F080500D4938310860A069002854D0F9
:103B70000A48006800F00C00082867D0A0690228F5
:103B80004CD106480838006820F080700349083995
:103B90000860FEF7E9FD05460BE00000083802402A
:103BA00000700040FEF7E0FD401B022801D9032011
:103BB000FBE53F480068C0F340600028F2D1D4E93B
:103BC00007010843616A40EA81110122A06AC2EB41
:103BD000500041EA00412C20005D41EA00613020A4
:103BE000005D41EA00703249091D0860081F006845
:103BF00040F08070091F0860FEF7B6FD054606E03C
:103C0000FEF7B2FD401B022801D90320CDE528486C
:103C10000068C0F340600028F2D047E02448006804
:103C200020F0807022490860FEF79EFD054606E000
:103C3000FEF79AFD401B022801D90320B5E51C4878
:103C40000068C0F340600028F2D12FE01848001D42
:103C50000668A069012827D006F48001E069814246
:103C600022D106F03F01206A81421DD147F6C07083
:103C70003040616AB0EB811F16D106F44031012259
:103C8000A06AC2EB5000B1EB004F0DD106F070619D
:103C90002C20005DB1EB006F06D106F0E041302032
:103CA000005DB1EB007F01D001207EE500207CE5C6
:103CB0000038024070B504460D460CB9012070BDB5
:103CC00094F82C0028B9002084F82D00204600F03C
:103CD00011F8022084F82C00211D2068FCF70BFE4F
:103CE0002946D4E90002FCF75BFE012084F82C0091
:103CF0000020E4E710B586B0044600BF3E480068E7
:103D000040F001003C4908600846006800F00100EE
:103D1000009000BF00BF00BF37480838006840F07F
:103D200004003549083908600846006800F00400BE
:103D3000009000BF00BF00BF0846006840F00800C8
:103D400008600846006800F00800009000BF00BF4F
:103D500000BF0846006840F0100008600846006890
:103D600000F01000009000BF00BF00BF08460068D0
:103D700040F0200008600846006800F02000009035
:103D800000BF00BF00BF0846006840F04000086068
:103D90000846006800F04000009000BF00BF0D2002
:103DA00001900220029001200390032004900C2037
:103DB000059001A91148FEF7B5FB4CF20370019084
:103DC00001A90F48FEF7AEFB4FF68370019001A9E1
:103DD0000C48FEF7A7FB4FF63F00019001A90A48E7
:103DE000FEF7A0FB48F23710019001A90748FEF743
:103DF00099FB06B010BD00003838024000080240B0
:103E0000000C024000100240001402400018024062
:103E100070B504460D4694F82C00022800D170BD00
:103E2000022084F82C0029462068FCF79EFD012022
:103E300084F82C000020F2E770B504460D461646C3
:103E400094F82C00022800D170BD022084F82C00C8
:103E5000324629462068FCF78FFD2868022803D1E6
:103E6000052084F82C0002E0012084F82C000020BA
:103E7000EAE770B504460E4615460CB9012070BD40
:103E800094F8450028B9002084F84400204600F04A
:103E90001DF804F108012068FCF7BCFC3146A2685B
:103EA0002068FCF7F7FC2946E36AD4E90102FCF735
:103EB0008DFCA168206850F8210040F00100A26844
:103EC000216841F822000020D9E7000010B586B033
:103ED000044600BF2048006840F001001E49086009
:103EE0000846006800F00100009000BF00BF00BF5E
:103EF00019480838006840F0080017490839086078
:103F00000846006800F00800009000BF00BF00BF36
:103F10000846006840F0100008600846006800F09D
:103F20001000009000BF00BF4EF2B370019002205D
:103F3000029001200390022004900C20059001A91A
:103F40000648FEF7EFFA4FF68070019001A9044889
:103F5000FEF7E8FA06B010BD38380240000C024007
:103F600000100240042808D14FF0E021096941F017
:103F700004014FF0E022116107E04FF0E0210969F0
:103F800021F004014FF0E0221161704770B5044642
:103F90002546681EB0F1807F01D301200FE0681E26
:103FA0004FF0E02148610F214FF0FF3000F094FF07
:103FB00000204FF0E021886107200861002070BDDB
:103FC0007047704701464B6F8A6F43EA02007047A3
:103FD0002DE9F04704462068C56920680668206816
:103FE000876840F60F0005EA0008B8F1000F0CD111
:103FF00005F0200048B106F0200030B1206E10B16D
:104000002046216E8847BDE8F087B8F1000F7DD0CB
:1040100007F0010018B906F490700028F7D005F0F9
:10402000010048B106F4807030B1012021680862B7
:10403000E06F40F00100E06705F0020048B107F0D2
:10404000010030B1022021680862E06F40F00400F6
:10405000E06705F0040048B107F0010030B104202A
:1040600021680862E06F40F00200E06705F0080098
:1040700060B106F0200010B907F0010030B108204F
:1040800021680862E06F40F00800E06705F4006016
:1040900050B106F0806038B14FF4006021680862CA
:1040A000E06F40F02000E067E06F80B305F0200093
:1040B00038B106F0200020B1206E10B12046216EEC
:1040C0008847D4F87C902068806800F04000402841
:1040D00002D009F0280030B3204600F012FC20681E
:1040E000806800F04000402819D12068806820F0E6
:1040F000400021688860E06E68B12148E16E086583
:10410000E06EFEF714F810B1E06E01E011E00FE090
:10411000016D88470CE02046FFF753FF08E020467A
:10412000FFF74FFF04E02046FFF74BFF0020E0675A
:1041300069E705F4801050B107F4800038B14FF4FE
:104140008010216808622046FFF73AFF5BE705F020
:10415000800040B106F0800028B1606E10B12046AA
:10416000616E88474FE705F0400030B106F040002F
:1041700018B1204600F0D6FB45E700BF43E700003A
:10418000EB48000810B504460CB9012010BDA06929
:1041900000B100E000BF606F28B9002084F8700013
:1041A000204600F029F8242060672068006820F08D
:1041B000010021680860204600F02EFC012800D193
:1041C000E4E7606A10B1204600F0DCFA206840683D
:1041D00020F49040216848602068806820F02A0020
:1041E000216888602068006840F00100216808604C
:1041F000204600F043FBC9E710B586B004462B49C2
:10420000206888424FD100BF00BF2948006840F0B5
:104210001000274908600846006800F01000009070
:1042200000BF00BF00BF00BF00BF214814380068B6
:1042300040F001001E49143908600846006800F08B
:104240000100009000BF00BF00BF00BF00BF0846D4
:10425000006840F0010008600846006800F00100B6
:10426000009000BF00BF00BF4815019002200290DF
:1042700001200390022004900720059001A90D4819
:10428000FEF750F94FF4806001900720059001A9D6
:104290000848FEF747F92520FEF7E3FC0322114604
:1042A0002520FEF7EEFC06B010BD00000010014016
:1042B000443802400000024010B50346986F2028A1
:1042C00065D101B10AB9012010BD00BF93F870009B
:1042D000012801D10220F7E7012083F8700000BF18
:1042E0005965A3F85820A3F85A200020186600BF8B
:1042F0009868B0F5805F0AD1186920B940F2FF10C4
:10430000A3F85C0020E0FF20A3F85C001CE09868A4
:1043100048B9186918B9FF20A3F85C0014E07F20A1
:10432000A3F85C0010E09868B0F1805F09D11869CB
:1043300018B97F20A3F85C0006E03F20A3F85C00DA
:1043400002E00020A3F85C0000BF0020D867222014
:1043500098671868806840F001001C68A060986841
:10436000B0F5805F04D1186910B90A48186601E0F9
:104370000948186600BF002083F8700000BF186865
:10438000006840F490701C68206000209CE70220C8
:104390009AE7000045490008B14900081D4A016834
:1043A000914236D11C49098801F4004189BB1A4960
:1043B000098801F4804171B1184909780A2903D0AC
:1043C0000021154A118024E01349098841F4004175
:1043D000114A11801DE0114909780D2906D10E49B5
:1043E000098841F480410C4A118012E00B49097898
:1043F000094A1288C2F30D02094B995406490988EB
:10440000491C054A118011460988C72901DD002190
:1044100011807047001001400C0002200E000220A5
:104420002C000220704700BFFEE7F0B58E880768B9
:10443000FF68C7F30B473E44330406688436802781
:1044400007FB0266766806F47047066884364FF00C
:10445000800C0CFB026677600E680768FF68C7F384
:104460000B473E44761C1E43076884370CFB0277DB
:104470007E608E890768FF68C7F30A073E443304ED
:1044800006688436802707FB0266B66806F4704724
:10449000066884360CFB0266B7608E680768FF68A2
:1044A000C7F30A073E44761C46EA030706688436CB
:1044B0000CFB0266B76006688436802707FB02663D
:1044C000366926F00707066884360CFB02663761FA
:1044D0000F69066884360CFB026637613126765C0C
:1044E00033023226765C34040E7E35060668843646
:1044F000802707FB0266B6690027066884360CFB36
:104500000266B76191F830601E43264346EA05070C
:10451000066884360CFB0266B7610668843680271D
:1045200007FB0266766926F0FF07066884360CFBF7
:10453000026677614F69066884360CFB0266776114
:1045400006688436802707FB0266F66940F2077723
:10455000BE43076884370CFB0277FE61D1E907761A
:104560003743066884360CFB0266F76106688436BA
:10457000802707FB0266B66A0027066884360CFBB4
:104580000266B7624F6A066884360CFB0266B76241
:104590000E690EB9042313E00E69012E01D1032325
:1045A0000EE00E69042E08D00E69022E05D00E69A9
:1045B000032E02D00E69072E01D1022300E0012351
:1045C00006688436802707FB0266F66A06F0E02755
:1045D000066884364FF0800C0CFB0266F762D1E966
:1045E0000076F61B5E43F61C0F8D5F4346EA0747D5
:1045F000066884360CFB0266F762066884368027FC
:1046000007FB0266366BF70AFF02066884360CFB6E
:1046100002663763CF6A066884360CFB026637632E
:1046200006688436D701F65946F0010706688436D5
:104630004FEAC21C46F80C70F0BD00BFFEE77047A1
:104640007047000010B50023234C236000BF00BF5B
:1046500000BFBFF34F8F00BF00BF00BF231F18680C
:10466000C0F34E3100BFC0F3C90200BF43F6E07390
:1046700003EA41134FF0404404EA82742343174C89
:10468000236000BF00BF131EA2F10102EED10B1E7A
:10469000A1F10101E7D100BF00BF00BFBFF34F8F01
:1046A00000BF00BF00BF0C4B703B1B6843F480335E
:1046B000094C703C236000BF00BF00BFBFF34F8FA9
:1046C00000BF00BF00BF00BF00BF00BFBFF36F8FC0
:1046D00000BF00BF00BF10BD84ED00E060EF00E050
:1046E00000BF00BF00BFBFF34F8F00BF00BF00BFC0
:1046F00000BF00BF00BFBFF36F8F00BF00BF00BF90
:1047000000201449086000BF00BF00BFBFF34F8FF7
:1047100000BF00BF00BF00BF00BF00BFBFF36F8F6F
:1047200000BF00BF00BF0C48006840F400300A49D9
:10473000086000BF00BF00BFBFF34F8F00BF00BFC6
:1047400000BF00BF00BF00BFBFF36F8F00BF00BF3F
:1047500000BF704750EF00E014ED00E0704710B567
:10476000FEF708F810BD00000548006840F470002E
:10477000034908604FF000600149803908607047C4
:1047800088ED00E090F8241001F0010139B10168D2
:10479000496821F40031826A11430268516090F83F
:1047A000241001F00201022907D10168496821F4AF
:1047B0008031C26A11430268516090F8241001F000
:1047C0000401042907D10168496821F48021026BA2
:1047D00011430268516090F8241001F00801082983
:1047E00007D10168496821F40041426B1143026816
:1047F000516090F8241001F01001102907D10168D0
:10480000896821F48051826B11430268916090F8AD
:10481000241001F02001202907D10168896821F4C2
:104820000051C26B11430268916090F8241001F0AE
:104830004001402913D10168496821F48011026CBC
:10484000114302685160016CB1F5801F07D1016806
:10485000496821F4C001426C11430268516090F82C
:10486000241001F08001802907D10168496821F4F2
:104870000021826C114302685160704738B50446CC
:104880000020E067FDF770FF05462068006800F033
:10489000080008280CD16FF07E402B4600224FF410
:1048A00000110090204600F08BFA08B1032038BDBB
:1048B0002068006800F0040004280CD16FF07E40EE
:1048C0002B4600224FF480010090204600F078FA39
:1048D00008B10320EBE720206067A06700BF00203D
:1048E00084F8700000BF00BFE1E770B50546AC6B0F
:1048F0000020A4F85A00A4F852002046FFF761FBFC
:1049000070BD0168096821F4907102681160016846
:10491000896821F0010102689160202181670021EE
:104920000166704710B504462068006820F040001A
:104930002168086020206067002060662046FFF73D
:1049400071FD10BD2DE9F0410446B4F85C70A06F14
:10495000222825D12068406A86B2656D06EA0700E4
:104960002880606D801C6065B4F85A00401EA4F871
:104970005A00B4F85A00C8B92068006820F4907052
:10498000216808602068806820F001002168886044
:104990002020A067002020662046FFF7FFFC05E0EE
:1049A0002068806940F0080021688861BDE8F081D6
:1049B00070B50446B4F85C60A06F222825D1206849
:1049C000406A85B2F0B22840616D0870606D401C8D
:1049D0006065B4F85A00401EA4F85A00B4F85A00B2
:1049E000C8B92068006820F49070216808602068C9
:1049F000806820F00100216888602020A0670020E6
:104A000020662046FFF7CAFC05E02068806940F078
:104A100008002168886170BD2DE9F0470446002731
:104A2000BA462169A068084361690843E16940EA20
:104A3000010820680068D649084040EA080021685B
:104A400008602068406820F44050E168084321680D
:104A50004860D4F81880206A40EA08082068806816
:104A600020F4306040EA08002168886000BFC9492E
:104A70002068884216D1C848006800F0030030B1B1
:104A8000012808D0022804D0032808D105E0012518
:104A900007E0022505E0042503E0082501E01025D4
:104AA00000BFC9E0BD492068884216D1BA480068F5
:104AB00000F00C0030B1042808D0082804D00C28DD
:104AC00008D105E0002507E0022505E0042503E004
:104AD000082501E0102500BFAEE0B14920688842FA
:104AE00016D1AD48006800F0300030B1102808D071
:104AF000202804D0302808D105E0002507E0022551
:104B000005E0042503E0082501E0102500BF93E03F
:104B1000A4492068884216D19F48006800F0C00070
:104B200030B1402808D0802804D0C02808D105E042
:104B3000002507E0022505E0042503E0082501E043
:104B4000102500BF78E098492068884219D1924822
:104B5000006800F4407048B1B0F5807F0AD0B0F52D
:104B6000007F05D0B0F5407F08D105E0002507E0C3
:104B7000022505E0042503E0082501E0102500BF1B
:104B80005AE08A492068884219D18348006800F4B5
:104B9000406048B1B0F5806F0AD0B0F5006F05D025
:104BA000B0F5406F08D105E0012507E0022505E0DA
:104BB000042503E0082501E0102500BF3CE07C4906
:104BC0002068884219D17448006800F4405048B108
:104BD000B0F5805F0AD0B0F5005F05D0B0F5405F5A
:104BE00008D105E0002507E0022505E0042503E0E3
:104BF000082501E0102500BF1EE06E4920688842AC
:104C000019D16548006800F4404048B1B0F5804FC4
:104C10000AD0B0F5004F05D0B0F5404F08D105E0FF
:104C2000002507E0022505E0042503E0082501E052
:104C3000102500BF00E0102500BFE069B0F5004F6F
:104C400054D1092D3AD2DFE805F005101B3924397B
:104C500039392F00FEF72CFD06467000616800EB25
:104C60005100B0FBF1F087B22BE0FEF731FD0646B4
:104C70007000616800EB5100B0FBF1F087B220E0FA
:104C80004D49606801EB50006168B0FBF1F087B2FC
:104C900017E0FEF72DFD06467000616800EB51003D
:104CA000B0FBF1F087B20CE04FF48031606801EBAB
:104CB00050006168B0FBF1F087B202E04FF0010AEA
:104CC00000BF00BF102F0ED3B7F5803F0BD24FF6B9
:104CD000F07007EA0009C7F3420049EA00092068BA
:104CE000C0F80C904DE04FF0010A4AE0092D3AD28D
:104CF000DFE805F005101B39243939392F00FEF79C
:104D0000D7FC0646606806EB50006168B0FBF1F026
:104D100087B22BE0FEF7DCFC0646606806EB50002D
:104D20006168B0FBF1F087B220E02449606801EBD4
:104D300050006168B0FBF1F087B217E0FEF7D8FCD5
:104D40000646606806EB50006168B0FBF1F087B280
:104D50000CE04FF40041606801EB50006168B0FB6B
:104D6000F1F087B202E04FF0010A00BF00BF102F40
:104D700005D3B7F5803F02D22068C76001E04FF04D
:104D8000010A0020206660665046BDE8F0870000FA
:104D9000F369FFEF001001409038024000440040EA
:104DA00000480040004C004000500040001401400A
:104DB00000780040007C00400048E8010024F40036
:104DC0002DE9F04104460D4617469846069E45E0FB
:104DD000701C002842D0FDF7C7FCA0EB0800B042D1
:104DE00000D8B6B92068006820F4D0702168086047
:104DF0002068806820F001002168886020206067BA
:104E0000A06700BF002084F8700000BF0320BDE849
:104E1000F0812068006800F00400F8B12068C069E3
:104E2000C0F3C020D0B14FF4006021680862206850
:104E3000006820F4D070216808602068806820F045
:104E400001002168886020206067A067E06700BFDC
:104E5000002084F8700000BF0320D8E72068C069F4
:104E60002840A84201D1012000E00020B842AFD084
:104E70000020CCE770B500240F4D1048FFF7A8F8CC
:104E800000BF03E0641CAC4200D904E00B48FFF70C
:104E900099F82028F6D100BF002403E0641CAC423E
:104EA00000D906E0012206490448FFF705FA002868
:104EB000F4D100BF70BD0000FFFF0100F40002202C
:104EC0000E00022000BFFEE702480068C0F3022087
:104ED000704700000CED00E010B5002804DB0A0765
:104EE000130E054A135406E00A07140E034A00F095
:104EF0000F031B1FD45410BD00E400E018ED00E0C8
:104F000000BF704770B5FF240025012143F2230044
:104F100001F0B2FC082143F2220001F0ADFC09E0EF
:104F2000012001F0BDFC43F2230000F001FA044629
:104F3000681C85B21CB141F288308542F0DB0CB1AF
:104F4000052070BDFF240025012143F2230001F05C
:104F500093FC042143F2220001F08EFC09E00120C1
:104F600001F09EFC43F2230000F0E2F90446681CC5
:104F700085B21CB141F288308542F0DB0CB10520CE
:104F8000DFE70020DDE700002DE9F04100260027E3
:104F900020214FF4405001F06FFC4FF400450024F5
:104FA00007E02848015D284601F066FC681C85B2D0
:104FB000641C40F6ED708442F3D3002143F22200DA
:104FC00001F05AFC002143F2230001F055FC0021BE
:104FD00043F2240001F050FC002143F2250001F0CF
:104FE0004BFC002143F2260001F046FC002143F275
:104FF000270001F041FC002143F2280001F03CFCB5
:105000007F2143F2290001F037FC00214FF440508A
:1050100001F032FC09E0012001F042FC43F22900DA
:1050200000F086F90646781C87B2702E03D041F254
:1050300088308742EFDB702E02D00520BDE8F0817A
:105040000020FBE7C6E2000810B5084808490860E0
:10505000002048602021064881600021C160016174
:10506000416181610162FBF753FD10BD00000550F5
:10507000300302202DE9F04104460D4616461F4636
:105080001248806C05611148806C86610F49886CFC
:10509000FDF782F900200D4981F8500008460068AC
:1050A000C06840F001000968C8603B462246022102
:1050B0000648FBF735FF00BF044890F85000002871
:1050C000FAD00248FBF7A8FFBDE8F08130030220C8
:1050D00010B500BF00224FF400410D48FDF73EFB24
:1050E00000BF142001F0DCFB00BF0021022005F00E
:1050F00022FD00BF052001F0D3FB00BF0122D10338
:105100000348FDF72BFB00BF142001F0C9FB10BDC5
:105110000000024010B543F20A0000F009F9040251
:1051200043F20B0000F004F90443204610BD0000D8
:105130002DE9F04781460F469046062F3FD2DFE823
:1051400007F0030C16202A34002400252448008987
:105150002349498900FB01F634E04FF480640025BF
:105160001F4800891E49498900FB01F62AE00024F6
:105170004FF400551A48008919494989484346089F
:1051800020E04FF48064E5001548008914494989FE
:105190004843460816E000244FF480451048008933
:1051A0000F494989484386080CE04FF48064250183
:1051B0000B4800890A4949894843860802E00220D1
:1051C000BDE8F08700BFB8F1000F00D0C0473346FC
:1051D0002A4621464846FFF74DFF0020F0E7000031
:1051E000240302202DE9F047642001F059FB43F627
:1051F000080000F09DF8044643F6090000F098F816
:10520000054643F60A0000F093F8064643F60B0005
:1052100000F08EF8074604F00F0045EA002806F07B
:10522000070047EA00290348A0F80880A0F80A9080
:10523000BDE8F0872403022000B587B0142102A83E
:10524000FBF706F900BF00BF1448006840F00100FA
:10525000124908600846006800F00100019000BF94
:1052600000BF00BF4FF40040029001200390049063
:105270000220059002A90A48FDF754F900BF012257
:10528000D1030748FDF76AFA00BF00BF01210220E1
:1052900005F051FC00BF07B000BD000030380240EF
:1052A0000000024010B500BF00224FF40041094841
:1052B000FDF754FA00BF142001F0F2FA00BF0122FA
:1052C000D1030448FDF74AFA00BF142001F0E8FAC0
:1052D00010BD00000000024010B5FFF7ADFFFFF762
:1052E000F7FEFFF7DFFF00F075F801F0AFFAFFF708
:1052F00011FF044645F24060844201D0012010BDF8
:1053000000F004F8FFF7A0FE0020F8E710B5002435
:1053100009E0064A02EB84029178044A32F824003C
:1053200001F0AAFA641CCF2CF3D310BD32DE0008C2
:1053300038B504460020009021463C2000F018F8C3
:1053400069463C2000F003F89DF8000038BD70B5B8
:1053500004460D4600F0F6F8012101EB4401C8B205
:1053600000F034F9284600F079F800F00FF970BD2C
:1053700070B505460C4600F0E5F8002141EA45010C
:10538000C8B200F023F9200A00F020F9E0B200F0E2
:105390001DF900F0FBF870BD70B505460C461646C9
:1053A00000F0D0F8002141EA4501C8B200F00EF942
:1053B000200A00F00BF9E0B200F008F9304600F0E6
:1053C00005F900F0E3F870BD10B5052001F082FA90
:1053D00010BD000000B587B0142102A8FBF738F813
:1053E00000BF00BF1B48006840F002001949086078
:1053F0000846006800F00200019000BF00BF00BF37
:1054000000BF00BF0846006840F002000860084680
:10541000006800F00200019000BF00BF00BF102034
:1054200002900120039004900220059002A90A48EE
:10543000FDF778F8082002900120039004900220E4
:10544000059002A90448FDF76DF800F09FF807B039
:1054500000BD0000303802400004024070B5044630
:1054600000F044F807251DE0FFF7AEFF00BF012262
:1054700010211D48FDF772F900BF08211A48FDF7F9
:105480005DF90646207806FA05F108432070FFF71B
:105490009BFF00BF002210211348FDF75FF900BFFA
:1054A000681E45B2002DDFDAFFF78EFF00BF012234
:1054B00010210D48FDF752F900BFFFF785FF00BF2F
:1054C000002210210848FDF749F900BFFFF77CFFD3
:1054D00000BF002208210448FDF740F900BFFFF794
:1054E00073FF00F019F870BD0004024000B585B0EC
:1054F00014216846FAF7ACFF0820009000200190C4
:10550000012002900220039069460248FDF70AF844
:1055100005B000BD0004024000B585B01421684606
:10552000FAF796FF082000900120019002900220D7
:10553000039069460248FCF7F5FF05B000BD000086
:105540000004024010B500BF012208210E48FDF7FB
:1055500005F900BF00BF012210210B48FDF7FEF83E
:1055600000BFFFF731FF00BF002208210648FDF70A
:10557000F5F800BFFFF728FF00BF00221021024806
:10558000FDF7ECF800BF10BD0004024010B500BFED
:10559000002208210C48FDF7E1F800BFFFF714FFD7
:1055A00000BF012210210848FDF7D8F800BFFFF71F
:1055B0000BFF00BF012208210348FDF7CFF800BF11
:1055C000FFF702FF10BD00000004024070B5064660
:1055D000072425E046FA04F000F0010500BF2DB1D4
:1055E000012208211C48FDF7B9F804E00022082137
:1055F0001948FDF7B3F800BFFFF7E6FE00BF012230
:1056000010211548FDF7AAF800BFFFF7DDFE00BF27
:10561000002210211048FDF7A1F800BF601E44B21F
:10562000002CD7DA00BF012208210B48FDF796F8BD
:1056300000BFFFF7C9FE00BF012210210648FDF799
:105640008DF800BFFFF7C0FE00BF00221021024806
:10565000FDF784F800BF70BD0004024010B5044699
:10566000092C6FD2DFE804F0051A2F44596F849992
:10567000AE00FF2145F2010001F0FEF8402145F2A5
:10568000875001F0F9F804214FF4AB4001F0F4F831
:10569000012145F2885001F0EFF8AAE0FF2145F220
:1056A000010001F0E9F8302145F2875001F0E4F8FB
:1056B00004214FF4AB4001F0DFF8012145F288509E
:1056C00001F0DAF895E0FF2145F2010001F0D4F88D
:1056D000202145F2875001F0CFF804214FF4AB4070
:1056E00001F0CAF8012145F2885001F0C5F880E0C8
:1056F000FF2145F2010001F0BFF8102145F287506B
:1057000001F0BAF804214FF4AB4001F0B5F80121E3
:1057100045F2885001F0B0F86BE0FF2145F201003E
:1057200001F0AAF8002145F2875001F0A5F8042104
:105730004FF4AB4001F0A0F8012145F2885001F090
:105740009BF856E053E0FF2145F2010001F094F888
:10575000102145F2875001F08FF804214FF4AB403F
:1057600001F08AF8092145F2885001F085F840E0FF
:10577000FF2145F2010001F07FF8202145F287501A
:1057800001F07AF804214FF4AB4001F075F80921DB
:1057900045F2885001F070F82BE0FF2145F201003E
:1057A00001F06AF8302145F2875001F065F80421D4
:1057B0004FF4AB4001F060F8092145F2885001F048
:1057C0005BF816E0FF2145F2010001F055F8402199
:1057D00045F2875001F050F804214FF4AB4001F03E
:1057E0004BF8092145F2885001F046F801E002200B
:1057F00010BD00BF0020FBE710B50446092C6ED297
:10580000DFE804F0051F39536E88A2BCD600FF21E3
:1058100045F2010001F030F8802145F2835001F09B
:105820002BF8802145F2845001F026F802214FF434
:10583000AB4001F021F8412145F2885001F01CF8FD
:10584000D2E0FF2145F2010001F016F8702145F287
:10585000835001F011F8702145F2845001F00CF8EA
:1058600002214FF4AB4001F007F8412145F2885086
:1058700001F002F8B8E0FF2145F2010000F0FCFF62
:10588000602145F2835000F0F7FF602145F284501B
:1058900000F0F2FF02214FF4AB4000F0EDFF412198
:1058A00045F2885000F0E8FF9EE0FF2145F201003C
:1058B00000F0E2FF502145F2835000F0DDFF50215F
:1058C00045F2845000F0D8FF02214FF4AB4000F0C5
:1058D000D3FF412145F2885000F0CEFF84E081E003
:1058E000FF2145F2010000F0C7FF402145F283503F
:1058F00000F0C2FF402145F2845000F0BDFF0221BC
:105900004FF4AB4000F0B8FF412145F2885000F061
:10591000B3FF69E0FF2145F2010000F0ADFF302147
:1059200045F2835000F0A8FF302145F2845000F08A
:10593000A3FF02214FF4AB4000F09EFF412145F24E
:10594000885000F099FF4FE0FF2145F2010000F080
:1059500093FF202145F2835000F08EFF202145F275
:10596000845000F089FF02214FF4AB4000F084FF27
:10597000412145F2885000F07FFF35E0FF2145F2DC
:10598000010000F079FF102145F2835000F074FF10
:10599000102145F2845000F06FFF02214FF4AB401C
:1059A00000F06AFF412145F2885000F065FF1BE0DE
:1059B000FF2145F2010000F05FFF002145F2835016
:1059C00000F05AFF002145F2845000F055FF0221FB
:1059D0004FF4AB4000F050FF412145F2885000F0F9
:1059E0004BFF01E0022010BD00BF0020FBE710B517
:1059F0000446092C6ED2DFE804F0051F39536E8887
:105A0000A2BCD600FF2145F2010000F035FF0421C1
:105A10004FF4AB4000F030FF302145F2865000F0EB
:105A20002BFF302145F2855000F026FF412145F241
:105A3000885000F021FFD2E0FF2145F2010000F084
:105A40001BFF04214FF4AB4000F016FF2C2145F260
:105A5000865000F011FF2C2145F2855000F00CFF1C
:105A6000412145F2885000F007FFB8E0FF2145F2E0
:105A7000010000F001FF04214FF4AB4000F0FCFEF8
:105A8000282145F2865000F0F7FE282145F2855086
:105A900000F0F2FE412145F2885000F0EDFE9EE05C
:105AA000FF2145F2010000F0E7FE04214FF4AB4076
:105AB00000F0E2FE242145F2865000F0DDFE2421B4
:105AC00045F2855000F0D8FE412145F2885000F0A3
:105AD000D3FE84E081E0FF2145F2010000F0CCFE1E
