:020000040800F2
:10000000800C0024410300080F6D0008F76A000807
:100010000B6D0008810700088980000800000000BF
:10002000000000000000000000000000DD6F00087C
:10003000E50E000800000000136D0008DF6F0008E7
:1000400067030008670300086703000867030008E8
:1000500067030008670300086703000867030008D8
:1000600067030008670300086703000867030008C8
:1000700067030008670300086703000867030008B8
:1000800067030008670300086703000867030008A8
:100090006703000867030008670300086703000898
:1000A0006703000867030008670300086703000888
:1000B0006703000867030008670300086703000878
:1000C0006703000867030008670300086703000868
:1000D0006703000839800008670300086703000809
:1000E00067030008670300080000000067030008BA
:1000F0006703000867030008670300086703000838
:100100006703000867030008670300086703000827
:100110006703000867030008670300086703000817
:10012000670300087D0800086703000867030008EC
:1001300067030008670300086703000867030008F7
:1001400000000000000000000000000000000000AF
:1001500067030008670300086703000867030008D7
:1001600067030008670300086703000867030008C7
:1001700067030008670300086D080008000000001E
:1001800067030008670300086703000867030008A7
:100190006703000867030008670300086703000897
:1001A0006703000867030008670300086703000887
:1001B0006703000867030008670300086703000877
:1001C0006703000867030008670300086703000867
:1001D0006703000867030008670300086703000857
:1001E0006703000867030008670300086703000847
:1001F0006703000867030008670300086703000837
:100200006703000867030008670300086703000826
:100210006703000867030008670300086703000816
:100220006703000867030008670300080000000078
:100230006703000867030008000000006703000868
:1002400067030008670300086703000867030008E6
:1002500067030008670300086703000867030008D6
:1002600067030008670300086703000867030008C6
:100270006703000867030008670300080000000028
:100280006703000867030008670300080000000018
:10029000000000006703000800F002F800F041F8D9
:1002A0000AA090E8000C82448344AAF10107DA45D1
:1002B00001D100F036F8AFF2090EBAE80F0013F0E2
:1002C000010F18BFFB1A43F001031847C4240100B3
:1002D000E4240100103A24BF78C878C1FAD8520744
:1002E00024BF30C830C144BF04680C6070470000B0
:1002F0000023002400250026103A28BF78C1FBD82F
:10030000520728BF30C148BF0B607047782900F002
:10031000F580002070471FB50EF008F81FBD10B51E
:1003200010BD00F0FBF91146FFF7F5FF0DF09CFC46
:1003300000F019FA03B4FFF7F2FF03BC07F0C2FEA6
:10034000DFF83000016841F4700101600A4880471D
:100350000A480047FEE7FEE7FEE7FEE7FEE7FEE7A6
:10036000FEE7FEE7FEE7FEE705480649044A064BBE
:100370007047000088ED00E0E96F0008990200086E
:1003800080040024800C002480040024704753EA79
:10039000020C00F069802DE9F04B4FF00006002BB5
:1003A0001FBFB3FA83F503FA05F424FA05F65E409D
:1003B00012BF1643B2FA82F502FA05F4C5F1200520
:1003C0001EBF22FA05FC44EA0C04203556EA044C10
:1003D0004FEA144418BF641C4FF000084FF00009A6
:1003E000904271EB030C39D3002919BFB1FA81F7A0
:1003F00001FA07F6B0FA80F700FA07F6C7F120070E
:100400001EBF20FA07FC46EA0C062037B6FBF4FCB8
:10041000A7EB0507103F07F01F0BCBF120060CFAE6
:100420000BFB2CFA06F644BFB3460026202FA4BFD0
:100430005E464FF0000B5BEA060C08BF4FF0010B65
:1004400019EB0B09ABFB027C48EB0608C01B06FB53
:1004500002CC0BFB03CC71EB0C01C1E70B4602464F
:1004600041464846BDE8F08B13B54FF000004FF011
:100470000001AFF30080BDE81C4070470FB4044991
:1004800010B503AA029800F01BF910BC5DF814FB2C
:100490000C0000242DE9F0410E46044600202062A5
:1004A0002046E168884730B3252805D0D4E90121EA
:1004B0009047206A401CF2E7E16820460027884701
:1004C000050018D0A5F14100192802D820354FF4B5
:1004D00000673246294620462760FFF717FF40B1E4
:1004E000012804D0F61D26F007060836D8E7361D89
:1004F000D6E72846DAE7206ABDE8F08170B5044601
:100500000D4621461068AFF300802188090502D509
:100510000F4A7A4402E00E4A7A440E32002104F176
:10052000240305E000F00F060009965D5E54491CA7
:100530000028F7D120780023000704D5702D02D0C1
:1005400009B1022311322046BDE8704000F05FB8C7
:100550005122010010B5203AC0F00B80B1E81850CC
:10056000203AA0E81850B1E81850A0E81850BFF49D
:10057000F5AF5FEA027C24BFB1E81850A0E818503C
:1005800044BF18C918C0BDE810405FEA827C24BF90
:1005900051F8043B40F8043B08BF7047D20728BF1E
:1005A00031F8023B48BF11F8012B28BF20F8023B6D
:1005B00048BF00F8012B70474FF0000200B513460A
:1005C00094469646203922BFA0E80C50A0E80C5073
:1005D000B1F12001BFF4F7AF090728BFA0E80C5024
:1005E00048BF0CC05DF804EB890028BF40F8042B1D
:1005F00008BF704748BF20F8022B11F0804F18BF8A
:1006000000F8012B704770477047704770472DE91D
:10061000F0470D4699469246044600F124080168C9
:10062000880604D5E06921F01001216000E0012076
:10063000A84201DD471B00E00027A1697A1902EBFF
:100640000900081AA0612078C00602D42046AFF342
:100650000080002608E0D4E901211AF8060090473E
:10066000206A401C761C20624E45F4DB2078C006D0
:100670000AD52046AFF3008006E0D4E901213020FE
:100680009047206A401C2062381EA7F10107F4DC65
:1006900007E0D4E9012118F805009047206A401CC2
:1006A0002062281EA5F10105F3DC2046AFF300808F
:1006B0002078000602D50220BDE8F0870120FBE784
:1006C000074B70B50D467B4400F011F804462846F0
:1006D00000F020F810B14FF0FF3070BD204670BD23
:1006E0002795000001694A1C02610878704700B52F
:1006F0008FB0CDE901310021059105497944CDE95B
:10070000031011466846FFF7C5FE0FB000BD00009C
:10071000E5FFFFFF007B00F080007047754600F0AA
:100720002BF8AE4605006946534620F00700854683
:1007300018B020B5FFF718FEBDE820404FF00006C6
:100740004FF000074FF000084FF0000B21F00701B9
:10075000AC46ACE8C009ACE8C009ACE8C009ACE8FC
:10076000C0098D46704710B50446AFF3008020469F
:10077000BDE81040FFF7DEBD0048704720040024AC
:1007800000BFFEE770B50546AC6BA06C406D02285B
:1007900006D0012084F83500E06C40F04000E064B1
:1007A000204600F0E5FC70BD70B50646B46BA06B4A
:1007B00068B3A06C0068006800F40025A06B00F02E
:1007C000010078B975B1A06C0068C568E26B0823B8
:1007D00003FB02510022A06C01F014F8A06B401E34
:1007E000A0632FE0A06C0068006800F4002048BB04
:1007F000A06C00680569E26B082303FB025101222B
:10080000A06C00F0FFFFA06B401EA0631AE0A06C7C
:100810000068006800F4002020B1D4E911010968E3
:10082000C8600FE0A06C0068006800F4002048B9C0
:10083000656CE06B042101FB0050A16C0968086144
:10084000206CA063A06B216C88420ED12068C06828
:1008500040F001002168C8602068006800F00200D4
:10086000022802D1012084F8350070BD10B502487D
:1008700000F08AFC10BD00005403002410B50249AA
:10088000886C01F0FDFE10BD540300240146374A78
:100890000868904249D0354A18320868904244D0DE
:1008A000324A3032086890423FD0304A48320868B5
:1008B00090423AD02D4A60320868904235D02B4A97
:1008C00078320868904230D0284A903208689042C6
:1008D0002BD0264AA8320868904226D0244A0868BD
:1008E000904222D0224A1832086890421DD0204AF5
:1008F00030320868904218D01D4A48320868904249
:1009000013D01B4A6032086890420ED0184A7832E1
:100910000868904209D0164A90320868904204D084
:10092000134AA8320868904201D1012000E000205B
:10093000B0B10A78103A1823B2FBF3F000F00702C6
:100940000C4B9A5CCA65032805D90A686FF3090243
:10095000121D8A6503E00A686FF309028A6503E0E5
:10096000086820F0FF008865886D7047100002401D
:100970001004024046E3000810B502682B4C0368DF
:10098000A34222D0294C14340368A3421DD0274C23
:1009900028340368A34218D0244C3C340368A34293
:1009A00013D0224C50340368A3420ED01F4C643441
:1009B0000368A34209D01D4C78340368A34204D0D5
:1009C0001A4C8C340368A34201D1012300E00023B8
:1009D0008BB10378083B1424B3FBF4F1144B03EB05
:1009E00081030366124B8033436601F01F04012329
:1009F000A340836618E00378103B1824B3FBF4F19E
:100A00000C4B9A4204D80B4BA83B9A4200D30831B6
:100A1000094B03EB81030366074B8033436601F008
:100A20001F040123A340836610BD00000854025830
:100A300000580258B8040240000802400179A9B3E6
:100A4000082940D8204B02689A4222D01E4B14330A
:100A500002689A421DD01C4B283302689A4218D073
:100A6000194B3C3302689A4213D0174B503302683B
:100A70009A420ED0144B643302689A4209D0124B4A
:100A8000783302689A4204D00F4B8C3302689A4242
:100A900001D1012200E000224AB14A1E0B4B03EBB8
:100AA0008202C266094A4032026708E00BE04A1E31
:100AB000074B03EB8202C266054A403202674A1EB8
:100AC0000123934043677047085402580059025865
:100AD00000090240014600208A69D2B98A6A32B10F
:100AE000012A0DD0022A03D0032A10D10EE000BF44
:100AF000CA6A02F08072B2F1807F00D1012007E063
:100B0000CA6AB2F1C07F00D1012001E000E000BF5D
:100B100036E08A69B2F5005F1BD18A6A32B1012AD8
:100B200007D0022A03D0032A11D10AE000BF012016
:100B30000EE0CA6A02F08072B2F1807F00D101201B
:100B400006E0CA6AB2F1C07F00D1012000E000BF18
:100B500016E08A6A32B1012A05D0022A04D0032A9B
:100B60000CD103E000BF00BF012008E0CA6A02F018
:100B70008072B2F1807F00D1012000E000BF00BF91
:100B80007047000030B5384D0468AC4249D0364D4E
:100B900018350468AC4244D0334D30350468AC425B
:100BA0003FD0314D48350468AC423AD02E4D6035C7
:100BB0000468AC4235D02C4D78350468AC4230D056
:100BC000294D90350468AC422BD0274DA8350468D8
:100BD000AC4226D0254D0468AC4222D0234D1835B6
:100BE0000468AC421DD0214D30350468AC4218D0A9
:100BF0001E4D48350468AC4213D01C4D6035046866
:100C0000AC420ED0194D78350468AC4209D0174D6E
:100C100090350468AC4204D0144DA8350468AC4249
:100C200001D1012400E0002474B104686360846889
:100C3000402C04D10468A2600468E16012E00468FA
:100C4000A1600468E2600DE0046863608468402C81
:100C500004D10468A2600468E16003E00468A16054
:100C60000468E26030BD0000100002401004024041
:100C7000F0B5856D846D984F0668BE4270D0964F72
:100C800018370668BE426BD0934F30370668BE42B5
:100C900066D0914F48370668BE4261D08E4F6037AC
:100CA0000668BE425CD08C4F78370668BE4257D08B
:100CB000894F90370668BE4252D0874FA8370668E2
:100CC000BE424DD0854F0668BE4249D0834F18378B
:100CD0000668BE4244D0814F30370668BE423FD0DE
:100CE0007E4F48370668BE423AD07C4F6037066870
:100CF000BE4235D0794F78370668BE4230D0774F44
:100D000090370668BE422BD0744FA8370668BE42A3
:100D100026D0734F0668BE4222D0714F1437066842
:100D2000BE421DD06E4F28370668BE4218D06C4FA9
:100D30003C370668BE4213D0694F50370668BE4242
:100D40000ED0674F64370668BE4209D0644F7837CB
:100D50000668BE4204D0624F8C370668BE4201D19D
:100D6000012600E000263EB1D0E919767E60C66E0D
:100D700016B1D0E91C767E60574F0668BE4249D056
:100D8000554F18370668BE4244D0534F3037066877
:100D9000BE423FD0504F48370668BE423AD04E4F11
:100DA00060370668BE4235D04B4F78370668BE4282
:100DB00030D0494F90370668BE422BD0464FA837F7
:100DC0000668BE4226D0454F0668BE4222D0434F39
:100DD00018370668BE421DD0404F30370668BE4205
:100DE00018D03E4F48370668BE4213D03B4F60379D
:100DF0000668BE420ED0394F78370668BE4209D029
:100E0000364F90370668BE4204D0344FA837066884
:100E1000BE4201D1012600E00026DEB190F85C6000
:100E200006F01F073F26BE40AE600668366826F40F
:100E3000802607683E60066873608668402E04D18D
:100E40000668B2600668F16044E00668B160066852
:100E5000F2603FE0224F0668BE4222D0204F143796
:100E60000668BE421DD01E4F28370668BE4218D005
:100E70001B4F3C370668BE4213D0194F50370668E7
:100E8000BE420ED0164F64370668BE4209D0144FDA
:100E900078370668BE4204D0114F8C370668BE42D0
:100EA00001D1012600E00026A6B190F85C6006F0B2
:100EB0001F070126BE406660066873608668402E84
:100EC00004D10668B2600668F16003E00668B160AC
:100ED0000668F260F0BD00001000024010040240FD
:100EE000085402587047000070B50446B3F5804FAF
:100EF00013D1D1E9000540EA05108D6840EA0520CC
:100F00008D6928438D8940EA054054F82250064EE9
:100F10003540284344F8220003E06FF0704044F865
:100F20002200002070BD00000000F0CF70B5024626
:100F3000086852F8200020F001000E6842F82600F0
:100F40008868082801D1402500E00025486828432A
:100F50008E683043CE6830430E6930434E6930436B
:100F60008E693043CE6930430E6A30434E6A304357
:100F70008E6A3043CE6A40EA0603086B0343486B2F
:100F80000343886B0343114C44F4801444F400146D
:100F900044F4E024086852F82000A04318430E6887
:100FA00042F82600086BB0F5801F07D1086828B109
:100FB000106820F480100E6B30431060086818B180
:100FC00010684E6B30431060002070BD7FFB08003E
:100FD00030B50346D1E9000540EA05108D6840EAC6
:100FE00005208D8940EA0545088A401E45EA0055DE
:100FF000087D801E45EA00608D692843551C53F822
:10100000255005F040452843551C43F82500186835
:1010100000F48010B0F5801F0BD1586820F47004E4
:10102000088A401E44EA0054586820F470002043A7
:101030005860002030BD02460868B0B9D1E901030C
:101040001843CB6818430B6918434B6918438B69E5
:101050001843CB6918430B6A18434B6A184313684B
:101060006FF30E031843106019E0D1E9070318432A
:101070004B6A1843136823F4F84318431060D1E90E
:1010800001031843CB6818430B6918434B69184395
:101090008B69184353686FF30E03184350600020A8
:1010A00070470246506943F6FE73984340EA410098
:1010B00050610020704710B50346D1E90004204379
:1010C0008C68641E40EA4410CC6840EA44201C69E5
:1010D0006FF3150420431861002010BD30B503469E
:1010E000FAB90868401E4C68641E40EA0414886817
:1010F000401E44EA0024C868401E44EA0034088ABE
:10110000401E44EA0044888A401E44EA0054087E97
:10111000401E44EA00609C6804F0704420439860DC
:1011200022E0C868401E0403888A401E44EA00503A
:101130009C680E4D2C40204398600868401E4C6807
:10114000641E40EA04148868401E44EA0024088AA9
:10115000401E44EA0044087E401E44EA0060DC6809
:1011600004F070442043D860002030BDFF0F0FFF13
:10117000704700000349884203D10121014A82F8E7
:10118000501070475403002470B504462068056968
:1011900005F0040004280ED121684861E06C40F09D
:1011A0000200E064042084F835002348A16C08653F
:1011B000A06C01F099F805F0020002280ED1216818
:1011C0004861E06C40F00100E064042084F83500E0
:1011D0001948A16C0865A06C01F086F805F01000B4
:1011E000102804D121684861204600F077F805F006
:1011F0000800082804D121684861204600F000FB5F
:1012000005F00100B8B12068006800F00200022873
:1012100005D12068C06820F01E002168C8602068E1
:10122000C06820F001002168C86001202168486181
:101230002046FFF79FFF70BD8507000810B50446E4
:101240000CB9012010BD94F8350010B9204600F00B
:1012500047F8022084F83500A06908B100216162D6
:10126000206800681C49084021680860616960685E
:101270000843E168084321690843A1680843A1695C
:101280000843216A0843616A0843A16A0843E16A86
:101290000843216B084321680968084321680860F6
:1012A000606810280BD1217F607F41EA0021A07F78
:1012B00041EA0041E07F41EA0060216888612068DE
:1012C000C06840F01E002168C8600020E064012072
:1012D00084F835000020B5E707F0E0FF7047000014
:1012E00010B586B00446142101A8FFF765F9CF4870
:1012F00084427DD100BF00BFCD48006840F00100AE
:10130000CB4908600846006800F00100009000BF6B
:1013100000BF00BF00BF00BF081F006840F0020010
:10132000091F08600846006800F00200009000BF36
:1013300000BF00BF00BF00BFBD48001D006840F0F7
:101340000200BB49091D08600846006800F0020061
:10135000009000BF00BF00BF00BF00BF084600688C
:1013600040F0800008600846006800F080000090AF
:1013700000BF00BF00BF00BF00BF0846006840F0CC
:10138000010008600846006800F00100009000BFFE
:1013900000BF00BF00BF00BF0846006840F0040067
:1013A00008600846006800F00400009000BF00BF1D
:1013B00000BF00BF00BF0846006840F0040008609E
:1013C0000846006800F00400009000BF00BF00BFA6
:1013D00000BF00BF0846006840F0040008600846EF
:1013E000006800F00400009000BF00BF00BF00E0F4
:1013F0001AE100BF00BF0846006840F00400086022
:101400000846006800F00400009000BF00BF00BF65
:1014100000BF00BF0846006840F0040008600846AE
:10142000006800F00400009000BF00BF00BF00BFD4
:1014300000BF0846006840F00800086008460068E1
:1014400000F00800009000BF00BF00BF00BF00BF59
:101450000846006840F0020008600846006800F096
:101460000200009000BF00BF00BF00BF00BF0846E1
:10147000006840F0020008600846006800F00200C2
:10148000009000BF00BF00BF8020019002200290AA
:1014900001200390022004900D20059001A96548C9
:1014A00002F0F4FA4FF480700190022002900120C3
:1014B0000390022004900D20059001A95E4802F0DF
:1014C000E5FA4020019002200290012003900220C2
:1014D00004900D20059001A9584802F0D7FA402049
:1014E00001900220029001200390022004900D2020
:1014F000059001A9524802F0C9FA8020019002200B
:10150000029001200390022004900D20059001A973
:101510004B4802F0BBFA4FF4807001900220029019
:1015200001200390022004900D20059001A9444859
:1015300002F0ACFA4FF400700190022002900120FA
:101540000390022004900D20059001A93C4802F070
:101550009DFA4FF400600190022002900120039058
:10156000022004900D20059001A9354802F08EFA62
:101570000820019002200290012003900220049094
:101580000D20059001A92F4802F080FA4FF48070D9
:1015900001900220029001200390022004900D206F
:1015A000059001A9234802F071FA4FF400700190F0
:1015B0000220029001200390022004900D2005904B
:1015C00001A91C4802F062FA1F48204908604B201C
:1015D000486000211D488160C16001614FF4805165
:1015E0004161490081614911C161490201620421DF
:1015F0004162012181620021C162016300BFA064D8
:10160000846300BF01F0B8FD022211464E2002F0B3
:1016100034FE4E2002F01DFE03220221392002F08A
:101620002CFE392002F015FE06B010BD5403002434
:10163000DC44025800040258001C02580000025802
:1016400000080258000C025828040240A803002495
:101650002DE9F84304460F4615461E4600BF94F890
:101660003400012802D10220BDE8F883012084F86B
:10167000340000BF022084F835002068006840F480
:101680008040216808602068006820F0020021681E
:101690000860206800683843216808603248A16CFF
:1016A000C8633248A16CC8640020A16C0865A063BF
:1016B0002064E0636064B6F5803F15D2226802F1D1
:1016C000280133462A46A06C01F0E6FF00283DD0F1
:1016D0004020E064012084F8350000BF002084F839
:1016E000340000BF0120BFE71F48A16C48640120FF
:1016F000A063E663656405E0E06B4008E063A06B0F
:101700004000A063E06BB0F5803FF5D2A06B801E77
:10171000A063A06B2064E06B042101FB0058E06B28
:101720000090226802F1280143462A46A06C00F08E
:10173000D1F858B14020E064012084F8350000BFA2
:10174000002084F8340000BF01208DE72068006885
:1017500040F001002168086000BF002084F83400D8
:1017600000BF00BF80E70000A90700088507000848
:1017700070B5044621480068C0084FF47A71B0FB88
:10178000F1F000FB01F5002600BF94F834000128B9
:1017900001D1022070BD012084F8340000BF022076
:1017A00084F835002068006820F001002168086096
:1017B00000BF6D1E2DB9E06C40F02000E0640326F0
:1017C00005E02068006800F001000028F1D100BFAA
:1017D0002068006820F4804021680860A06C00F058
:1017E00015FBE06CE064012084F8350000BF0020A8
:1017F00084F8340000BF3046CCE70000000000242D
:101800007047000010B50346304C1868A04249D01C
:101810002E4C18341868A04244D02C4C3034186830
:10182000A0423FD0294C48341868A0423AD0274CF7
:1018300060341868A04235D0244C78341868A0422F
:1018400030D0224C90341868A0422BD01F4CA834C2
:101850001868A04226D01E4C1868A04222D01C4C0A
:1018600018341868A0421DD0194C30341868A042B2
:1018700018D0174C48341868A04213D0144C603468
:101880001868A0420ED0124C78341868A04209D0D3
:101890000F4C90341868A04204D00D4CA83418683E
:1018A000A04201D1012000E0002030B112B9186837
:1018B000C16008E01868016105E012B91868C160EC
:1018C00001E018680161002010BD00001000024016
:1018D000100402402DE9F04704460F4690461E468C
:1018E000DDF820904FF0000AA068802804D1400065
:1018F00060650120BDE8F08700BF94F8340001283E
:1019000001D10220F6E7012084F8340000BF94F8EA
:10191000350001287ED1022084F835000020606562
:10192000F9492068884249D0F7491831206888422F
:1019300044D0F5493031206888423FD0F2494831DF
:10194000206888423AD0F04960312068884235D01A
:10195000ED4978312068884230D0EB4990312068D9
:1019600088422BD0E849A8312068884226D0E74930
:101970002068884222D0E5491831206888421DD06D
:10198000E24930312068884218D0E0494831206867
:10199000884213D0DD496031206888420ED0DB498F
:1019A00078312068884209D0D8499031206888422F
:1019B00004D0D649A8312068884201D1012000E036
:1019C000002090B12068006840F480202168086001
:1019D00020680661A06D00F1080594F85C0000F035
:1019E0001F013F208840286011E02068006848F20D
:1019F000200108432168086020680661A06D051D6C
:101A000094F85C0000F01F010120884028604B46DC
:101A1000424600E0EFE139462046FFF7B3F8BA4905
:101A20002068884270D0B8491831206888426BD04D
:101A3000B54930312068884266D0B34948312068C2
:101A4000884261D0B0496031206888425CD0AE499C
:101A500078312068884257D0AB499031206888425D
:101A600052D0A949A831206888424DD0A7492068A2
:101A7000884249D0A54918312068884244D0A349FA
:101A80003031206888423FD0A049483120688842E0
:101A90003AD09E4960312068884235D09B497831E0
:101AA0002068884230D099499031206888422BD0F4
:101AB0009649A8312068884226D0954920688842F6
:101AC00022D093491431206888421DD09049283192
:101AD0002068884218D08E493C312068884213D053
:101AE0008B495031206888420ED089496431206882
:101AF000884209D0864978312068884204D08449D8
:101B00008C312068884201D1012000E0002038B1EA
:101B1000D4E919104860E06E10B1D4E91C10486097
:101B200079492068884249D077491831206888422D
:101B300044D075493031206888423FD072494831DD
:101B4000206888423AD0704960312068884235D098
:101B50006D4978312068884230D06B4990312068D7
:101B600088422BD06849A8312068884226D067492E
:101B70002068884222D065491831206888421DD0EB
:101B8000624930312068884218D060494831206865
:101B9000884213D05D496031206888420ED05B498D
:101BA00078312068884209D05849903120688842AD
:101BB00004D05649A8312068884201D1012000E0B4
:101BC0000020C0B12068006820F01E0040F0160020
:101BD000216808602068406940F080002168486101
:101BE000206C08B9A06CC0B12068006840F0080003
:101BF0002168086011E02068006820F00E0040F0C5
:101C00000A0021680860206C08B9A06C28B120681F
:101C1000006840F00400216808603B492068884261
:101C200070D039491831206888426BD0364930313C
:101C30002068884266D0344948312068884261D0A3
:101C400031496031206888425CD02F497831206862
:101C5000884257D02C4990312068884252D02A4976
:101C6000A831206888424DD028492068884249D050
:101C7000264918312068884244D0244930312068F0
:101C800088423FD021494831206888423AD01F49D4
:101C900060312068884235D01C49783120688842FC
:101CA00030D01A499031206888422BD01749A8318A
:101CB0002068884226D016492068884222D01449DC
:101CC0001431206888421DD011492831206888428B
:101CD00018D00F493C312068884213D00C4950314C
:101CE000206888420ED00A4964312068884209D0B1
:101CF000074978312068884204D005498C31206832
:101D0000884207D1012006E0100002401004024082
:101D100008540258002090B1206E006800F4803012
:101D200028B1206E006840F48070216E0860E06E7B
:101D300028B1E06E006840F48070E16E08603149BF
:101D40002068884249D02F4918312068884244D001
:101D50002C493031206888423FD02A4948312068D8
:101D600088423AD0274960312068884235D02549D9
:101D700078312068884230D02249903120688842EA
:101D80002BD02049A8312068884226D01E492068DF
:101D9000884222D01C491831206888421DD01A4937
:101DA00030312068884218D017494831206888426D
:101DB00013D015496031206888420ED0124978311D
:101DC0002068884209D0104990312068884204D0A8
:101DD0000D49A8312068884206D12068006840F08B
:101DE0000100216808600BE02068006840F00100F5
:101DF0002168086004E04FF4006060654FF0010A5C
:101E0000504677E510000240100402402DE9F041F1
:101E1000044601F057FF804614B90120BDE8F08167
:101E200094F83500022808D08020606500BF0020AB
:101E300084F8340000BF0120F0E7FE4920688842A2
:101E400049D0FC4918312068884244D0F9493031E2
:101E5000206888423FD0F7494831206888423AD00C
:101E6000F44960312068884235D0F24978312068E1
:101E7000884230D0EF499031206888422BD0ED491C
:101E8000A8312068884226D0EB492068884222D0B9
:101E9000E9491831206888421DD0E749303120686F
:101EA000884218D0E44948312068884213D0E2497A
:101EB0006031206888420ED0DF497831206888423E
:101EC00009D0DD4990312068884204D0DA49A83130
:101ED0002068884201D1012000E0002068B120681C
:101EE000006820F01E00216808602068406920F02A
:101EF000800021684861256806E02068006820F0BD
:101F00000E00216808602568CA492068884270D0A0
:101F1000C8491831206888426BD0C64930312068E2
:101F2000884266D0C34948312068884261D0C1499F
:101F30006031206888425CD0BE4978312068884290
:101F400057D0BC4990312068884252D0B949A83155
:101F5000206888424DD0B8492068884249D0B649A7
:101F600018312068884244D0B34930312068884213
:101F70003FD0B1494831206888423AD0AE496031FB
:101F80002068884235D0AC4978312068884230D00A
:101F9000A9499031206888422BD0A749A8312068F0
:101FA000884226D0A5492068884222D0A34914310E
:101FB000206888421DD0A14928312068884218D065
:101FC0009E493C312068884213D09C49503120689A
:101FD00088420ED0994964312068884209D09749D7
:101FE00078312068884204D094498C312068884236
:101FF00001D1012000E0002028B1206E006820F40B
:102000008070216E08608B492068884249D08949D8
:1020100018312068884244D086493031206888428F
:102020003FD084494831206888423AD081496031A4
:102030002068884235D07F4978312068884230D086
:102040007C499031206888422BD07A49A831206899
:10205000884226D078492068884222D076491831B3
:10206000206888421DD0744930312068884218D0D9
:10207000714948312068884213D06F496031206827
:1020800088420ED06C4978312068884209D06A496C
:1020900090312068884204D06749A831206888427E
:1020A00006D12068006820F001002168086005E082
:1020B0002068006820F001002168086011E001F04C
:1020C00001FEA0EB080005280BD920206065032045
:1020D00084F8350000BF002084F8340000BF0120E0
:1020E0009CE6286800F001000028E8D151492068EA
:1020F000884249D04F4918312068884244D04D4920
:102100003031206888423FD04A49483120688842AF
:102110003AD0484960312068884235D04549783105
:102120002068884230D043499031206888422BD0C3
:102130004049A8312068884226D03F49206888421B
:1021400022D03D491831206888421DD03A493031AB
:102150002068884218D0384948312068884213D016
:1021600035496031206888420ED033497831206883
:10217000884209D0304990312068884204D02E49E5
:10218000A8312068884201D1012000E0002040B140
:10219000A66D94F85C0000F01F013F208840B060FD
:1021A00007E0A76D94F85C0000F01F010120884053
:1021B000786020492068884276D01E49183120680E
:1021C000884271D01B493031206888426CD019494F
:1021D00048312068884267D01649603120688842BB
:1021E00062D014497831206888425DD0114990311D
:1021F0002068884258D00F49A8312068884253D0BF
:102200000D49206888424FD00B4918312068884218
:102210004AD0094930312068884245D006494831C2
:102220002068884240D004496031206888423BD011
:10223000014905E010000240100402400854025811
:102240007831206888422FD02549206888422BD0D9
:10225000234918312068884226D0224920688842C4
:1022600022D020491431206888421DD01D492831D0
:102270002068884218D01B493C312068884213D01E
:1022800018495031206888420ED0164964312068C0
:10229000884209D0134978312068884204D0114916
:1022A0008C312068884201D1012000E0002068B113
:1022B000D4E919104860E06E40B1E06E006820F487
:1022C0008070E16E0860D4E91C104860012084F839
:1022D000350000BF002084F8340000BF00BF9DE53A
:1022E000A00402400854025870B504460CB90120FD
:1022F00070BD94F83500022803D08020606501206D
:10230000F6E7DC492068884249D0DA49183120686C
:10231000884244D0D7493031206888423FD0D549DF
:102320004831206888423AD0D249603120688842DA
:1023300035D0D04978312068884230D0CD499031AD
:10234000206888422BD0CB49A8312068884226D00B
:10235000C9492068884222D0C7491831206888427C
:102360001DD0C54930312068884218D0C249483153
:102370002068884213D0C0496031206888420ED05E
:10238000BD4978312068884209D0BB499031206826
:10239000884204D0B849A8312068884201D1012080
:1023A00000E00020F0B3042084F83500B149206833
:1023B00088424BD0AF4918312068884246D0AD4999
:1023C00030312068884241D0AA494831206888428B
:1023D0003CD0A84960312068884237D0A54978317F
:1023E0002068884232D0A3499031206888422DD09D
:1023F000A049A8312068884228D09F492068884297
:1024000024D09D491831206888421FD09A49303124
:10241000206888421AD0984948312068884215D0EF
:10242000954900E020E06031206888420ED0924952
:1024300078312068884209D08F49903120688842DD
:1024400004D08D49A8312068884206D120680068F0
:1024500020F001002168086009E12068006820F090
:1024600001002168086002E12068006820F00E0089
:10247000216808607F492068884249D07D49183129
:102480002068884244D07B493031206888423FD060
:1024900078494831206888423AD0764960312068CE
:1024A000884235D0734978312068884230D07149EC
:1024B0009031206888422BD06E49A831206888422C
:1024C00026D06D492068884222D06B491831206897
:1024D00088421DD0684930312068884218D066494A
:1024E00048312068884213D06349603120688842AF
:1024F0000ED0614978312068884209D05E49903118
:102500002068884204D05C49A8312068884206D1FE
:102510002068006820F001002168086005E020685C
:10252000006820F001002168086052492068884254
:1025300070D050491831206888426BD04D493031F5
:102540002068884266D04B4948312068884261D073
:1025500048496031206888425CD04649783120681B
:10256000884257D0434990312068884252D041492F
:10257000A831206888424DD03F492068884249D020
:102580003D4918312068884244D03B4930312068A9
:1025900088423FD038494831206888423AD036498D
:1025A00060312068884235D03349783120688842CC
:1025B00030D031499031206888422BD02E49A83143
:1025C0002068884226D02D492068884222D02B4995
:1025D0001431206888421DD028492831206888425B
:1025E00018D026493C312068884213D02349503105
:1025F000206888420ED0214964312068884209D081
:102600001E4978312068884204D01C498C312068EA
:10261000884201D1012000E00020D8B1206E00687E
:1026200020F48070216E0860A56D94F85C0000F0C5
:102630001F01012088406860D4E919104860E06EED
:1026400040B1E06E006820F48070E16E0860D4E96B
:102650001C104860012084F8350000BF002084F879
:10266000340000BF206D10B12046216D8847002046
:102670003EE60000100002401004024008540258D8
:102680002DE9F84F044600200090FE4800684FF402
:102690001651B0FBF1FAA66DD4F858803768D8F817
:1026A0000090F9492068884249D0F74918312068DC
:1026B000884244D0F4493031206888423FD0F24902
:1026C0004831206888423AD0EF496031206888421A
:1026D00035D0ED4978312068884230D0EA499031D0
:1026E000206888422BD0E849A8312068884226D04B
:1026F000E6492068884222D0E4491831206888429F
:102700001DD0E24930312068884218D0DF49483175
:102710002068884213D0DD496031206888420ED09D
:10272000DA4978312068884209D0D8499031206848
:10273000884204D0D549A8312068884201D10120BF
:1027400000E0002000287DD094F85C0000F01F011C
:10275000082088403840002868D0CB49206888424B
:1027600049D0C94918312068884244D0C64930311F
:10277000206888423FD0C4494831206888423AD016
:10278000C14960312068884235D0BF49783120681E
:10279000884230D0BC499031206888422BD0BA4959
:1027A000A8312068884226D0B8492068884222D0C3
:1027B000B6491831206888421DD0B44930312068AC
:1027C000884218D0B14948312068884213D0AF49B7
:1027D0006031206888420ED0AC4978312068884248
:1027E00009D0AA4990312068884204D0A749A8316D
:1027F0002068884204D12068006800F0040003E0EB
:102800002068006800F0080080B12068006820F0AF
:1028100004002168086094F85C0000F01F010820A3
:102820008840B060606D40F00100606594F85C0025
:1028300000F01F01012088403840E8B39249206829
:10284000884200E0B7E24BD08F49183120688842B7
:1028500046D08D4930312068884241D08A4948317C
:10286000206888423CD0884960312068884237D04F
:10287000854978312068884232D083499031206878
:1028800088422DD08049A8312068884228D07F49CD
:102890002068884224D07D491831206888421FD0A2
:1028A0007A493031206888421AD078494831206806
:1028B000884215D0754900E026E0603120688842E2
:1028C0000ED0724978312068884209D06F49903122
:1028D0002068884204D06D49A8312068884204D11C
:1028E0002068406900F0800002E020680068002055
:1028F00050B194F85C0000F01F0101208840B060E6
:10290000606D40F00200606594F85C0000F01F010B
:10291000042088403840E8B35B49206888424BD0A7
:10292000594918312068884246D0574930312068CB
:10293000884241D054494831206888423CD05249AD
:1029400060312068884237D04F497831206888420A
:1029500032D04D499031206888422DD04A49A83163
:102960002068884228D049492068884224D04749B5
:102970001831206888421FD044493031206888428D
:102980001AD0424948312068884215D03F49603109
:10299000206800E024E088420ED03C49783120686D
:1029A000884209D0394990312068884204D037499B
:1029B000A8312068884204D12068006800F0020035
:1029C00002E020680068002050B194F85C0000F03C
:1029D0001F0104208840B060606D40F00400606515
:1029E00094F85C0000F01F01102088403840E8B3E4
:1029F00025492068884251D02349183120688842EF
:102A00004CD0214930312068884247D01E49483196
:102A10002068884242D01C496031206888423DD0FD
:102A2000194978312068884238D017499031206898
:102A3000884233D01449A831206888422ED01349E7
:102A4000206888422AD0114918312068884225D050
:102A50000E4930312068884220D00C494831206826
:102A600088421BD009496031206800E04DE088426F
:102A700014D006497831206888420FD0034990313C
:102A8000206805E00000002410000240100402400D
:102A9000884203D0FE492068884204D1206800683B
:102AA00000F0080003E02068006800F0040060B354
:102AB00094F85C0000F01F0110208840B06020688E
:102AC000006800F4802080B12068006800F40020D5
:102AD00028B9206CC8B12046216C884715E0A06C4D
:102AE00098B12046A16C88470FE02068006800F488
:102AF000807028B92068006820F00800216808600C
:102B0000206C10B12046216C884794F85C0000F0DE
:102B10001F0120208840384000287DD0DD492068F2
:102B2000884249D0DB4918312068884244D0D949CD
:102B30003031206888423FD0D649483120688842E9
:102B40003AD0D44960312068884235D0D1497831B3
:102B50002068884230D0CF499031206888422BD0FD
:102B6000CC49A8312068884226D0C949A8392068B4
:102B7000884221D0C6499039206888421CD0C44977
:102B800078392068884217D0C14960392068884266
:102B900012D0BF494839206888420DD0BC4930392D
:102BA0002068884208D0BA4918392068884203D082
:102BB000B7492068884204D12068006800F01000FE
:102BC00003E02068006800F0020028B394F85C007D
:102BD00000F01F0120208840B06094F835000428E0
:102BE0002DD12068006820F0160021680860206858
:102BF000406920F0800021684861206C08B9A06C11
:102C000028B12068006820F008002168086094F866
:102C10005C0000F01F0100E03FE03F208840B06012
:102C2000012084F8350000BF002084F8340000BF84
:102C3000206D10B12046216D8847BDE8F88F2068CF
:102C4000006800F4802080B12068006800F4002053
:102C500028B9606C08B32046616C88471DE0E06BC2
:102C6000D8B12046E16B884717E02068006800F47F
:102C7000807068B92068006820F010002168086042
:102C8000012084F8350000BF002084F8340000BF24
:102C9000E06B10B12046E16B8847606D00287AD068
:102CA000606D00F00100E8B3042084F83500794934
:102CB000206888424BD0774918312068884246D036
:102CC000744930312068884241D0724948312068C7
:102CD00088423CD06F4960312068884237D06D49C6
:102CE00078312068884232D06A4990312068884221
:102CF0002DD06849A8312068884228D06449A83975
:102D00002068884223D062499039206888421ED0CA
:102D10005F4978392068884219D05D496039206858
:102D2000884200E040E012D0594948392068884282
:102D30000DD0574930392068884208D05449183995
:102D40002068884203D052492068884206D1206812
:102D5000006820F001002168086005E02068006834
:102D600020F001002168086000BF0098401C00901E
:102D7000504500D905E02068006800F001000028F7
:102D8000F3D100BF2068006800F0010020B10320EB
:102D900084F8350003E00DE0012084F8350000BF21
:102DA000002084F8340000BFE06C002802D02046E8
:102DB000E16C8847D9E138492068884222D03649F9
:102DC0001431206888421DD0334928312068884258
:102DD00018D031493C312068884213D02E495031F7
:102DE000206888420ED02C4964312068884209D07E
:102DF000294978312068884204D027498C312068DD
:102E0000884201D1012000E000200028D2D02068B3
:102E1000056894F85C0000F01F010420884000EA77
:102E20000900D8B305F00400C0B394F85C0000F0CA
:102E30001F0104208840C8F8040005F4004080B158
:102E400005F4803030B9A06C0028B3D02046A16CC6
:102E500088478AE1206C0028ACD02046216C884746
:102E600083E105F02000E8BB0A492068884253D07E
:102E700008491831206888424ED006493031206810
:102E8000884249D0034948312068884244D006E04E
:102E9000B804024010000240085402584FE0B44900
:102EA00060312068884237D0B14978312068884243
:102EB00032D0AF499031206888422DD0AC49A8313A
:102EC0002068884228D0AB492068884224D0A9498C
:102ED0001831206888421FD0A649303120688842C6
:102EE0001AD000E025E0A34948312068884213D079
:102EF000A0496031206888420ED09E497831206810
:102F0000884209D09B4990312068884204D0994971
:102F1000A8312068884206D12068006820F00800A7
:102F20002168086005E02068006820F0040021683E
:102F30000860206C10B32046216C884715E194F896
:102F40005C0000F01F010220884000EA0900E8B39D
:102F500005F00200D0B394F85C0000F01F010220DD
:102F60008840C8F8040005F4004070B105F48030D2
:102F700028B9606C10B12046616C8847F5E0E06BC1
:102F8000F0B32046E16B8847EFE005F02000C0BBBE
:102F90007749206888424ED07549183120688842A8
:102FA00049D0734930312068884244D07049483153
:102FB000206888423FD06E496031206888423AD00C
:102FC0006B4978312068884235D000E04EE068498E
:102FD0009031206888422ED06549A8312068884207
:102FE00029D064492068884225D062491831206878
:102FF000884220D05F493031206888421BD001E0F0
:103000006EE02DE05B4948312068884213D0594971
:103010006031206888420ED0564978312068884255
:1030200009D0544990312068884204D05149A831D0
:103030002068884206D12068006820F014002168CA
:10304000086005E02068006820F00A002168086038
:10305000012084F8350000BF002084F8340000BF50
:10306000E06BE8B32046E16B88477EE094F85C00B3
:1030700000F01F010820884000EA090080B305F035
:10308000080068B33A49206888424BD03849183163
:103090002068884246D0364930312068884241D085
:1030A00033494831206888423CD03149603120683A
:1030B000884237D02E4978312068884232D02C4956
:1030C0009031206888422DD02949A8312068884253
:1030D00028D028492068884224D02649183100E0A9
:1030E00043E0206888421DD0224930312068884260
:1030F00018D0204948312068884213D01D496031DA
:10310000206888420ED01B4978312068884209D057
:10311000184990312068884204D01649A8312068A7
:10312000884206D12068006820F01C0021680860F1
:1031300005E02068006820F00E002168086094F81F
:103140005C0000F01F0101208840C8F80400012045
:10315000606584F8350000BF002084F8340000BFAB
:10316000E06C10B12046E16C884700BF65E50000C7
:1031700010000240100402402DE9F041044600F026
:10318000A1FD804614B90120BDE8F081FE49206808
:10319000884249D0FC4918312068884244D0FA4915
:1031A0003031206888423FD0F74948312068884252
:1031B0003AD0F54960312068884235D0F2497831FB
:1031C0002068884230D0F0499031206888422BD066
:1031D000ED49A8312068884226D0EC492068884211
:1031E00022D0EA491831206888421DD0E7493031A1
:1031F0002068884218D0E54948312068884213D0B9
:10320000E2496031206888420ED0E0497831206878
:10321000884209D0DD4990312068884204D0DB49DA
:10322000A8312068884201D1012000E00020002858
:1032300073D0606A00B100BF022084F8350000BF7F
:10324000002084F8340000BFCF492068884249D06C
:10325000CD4918312068884244D0CB4930312068AC
:1032600088423FD0C8494831206888423AD0C64990
:1032700060312068884235D0C3497831206888425F
:1032800030D0C1499031206888422BD0BE49A83146
:103290002068884226D0BD492068884222D0BB4998
:1032A0001831206888421DD0B849303120688842E2
:1032B00018D0B64948312068884213D0B3496031EC
:1032C000206888420ED0B14978312068884209D000
:1032D000AE4990312068884204D0AC49A8312068BA
:1032E000884206D12068006820F00100216808604B
:1032F00005E02068006820F00100216808600DE00A
:1033000000F0E0FCA0EB0800052807D9202060654C
:10331000032084F83500012036E76AE02068006861
:1033200000F001000028EBD12068056898480540AE
:10333000D4E9020108432169084361690843A1698E
:103340000843E1690843216A08430543606A042889
:1033500003D1D4E90B01084305438E4800686FF39D
:103360000F00B0F1005F1DD36068292802D36068A8
:103370002E2811D960683F2802D3606842280BD9F3
:103380006068472802D36068482805D960684F28DC
:1033900004D36068522801D8012000E0002008B161
:1033A00045F48015206805602068456925F007050B
:1033B000606A0543606A04280DD1A06A0543E06A8B
:1033C00048B12046FDF786FB28B14020606501200A
:1033D00084F83500D8E6206845612046FDF756FAA6
:1033E000064694F85C0000F01F013F208840B06062
:1033F0009EE069492068884222D0674914312068DC
:1034000088421DD0644928312068884218D062491A
:103410003C312068884213D05F495031206888428F
:103420000ED05D4964312068884209D05A4978310C
:103430002068884204D058498C312068884201D1E4
:10344000012000E00020E0B353492068884222D0E8
:1034500051491431206888421DD04F4928312068D5
:10346000884218D04C493C312068884213D04A49E0
:103470005031206888420ED0474964312068884224
:1034800009D0454978312068884204D042498C31BE
:103490002068884201D1012000E0002000B100BF77
:1034A000022084F8350000BF002084F8340000BFFB
:1034B0002068056839480540A068402802D11021DD
:1034C00006E02EE0A068802801D1C10100E00021C3
:1034D000E06841EAD001206941EAD001606941EA2F
:1034E000D001A06941EAD001E06941EAD001206A37
:1034F00041EA101005432068056027492068401AFA
:103500001421B0FBF1F08000E0652046FDF7BEF924
:10351000074694F85C0000F01F01012088407860A5
:1035200006E040206065032084F8350001202BE68A
:103530001549206888427FD0134918312068884295
:103540007AD0114930312068884275D00E4948310F
:103550002068884270D00C496031206888426BD066
:10356000094978312068884266D00749903120683F
:10357000884261D00449A831206888425CD0034960
:103580002068884258D00BE010000240100402402E
:103590003F8010FE0010005C085402580F00FEFF30
:1035A0003B4918312068884246D03949303120687B
:1035B000884241D036494831206888423CD034495D
:1035C00060312068884237D031497831206888429C
:1035D00032D02F499031206888422DD02C49A83113
:1035E0002068884228D02B492068884224D0294965
:1035F0001431206888421FD026492831206888422B
:103600001AD024493C312068884215D021495031D4
:103610002068884210D01F496431206888420BD04E
:103620001C4978312068884206D01A498C312068BC
:10363000884200E000E001D1012000E0002000B35A
:103640002046FDF799F9A068802801D1002060602C
:103650002079216E0860D4E919104860606860B173
:103660006068082809D82046FDF7E8F90020E16ED7
:103670000860D4E91C10486003E00020E066206781
:10368000606700206065012084F8350000207BE53C
:1036900010040240085402582DE9F04104460D463A
:1036A00016461F464FF0000814B90120BDE8F0810E
:1036B00000BF94F83400012801D10220F6E7012070
:1036C00084F8340000BF94F8350001287ED1022030
:1036D00084F8350000206065E4492068884249D0BC
:1036E000E24918312068884244D0E04930312068EE
:1036F00088423FD0DD494831206888423AD0DB49D2
:1037000060312068884235D0D849783120688842B5
:1037100030D0D6499031206888422BD0D349A83187
:103720002068884226D0D2492068884222D0D049D9
:103730001831206888421DD0CD4930312068884238
:1037400018D0CB4948312068884213D0C84960312D
:10375000206888420ED0C64978312068884209D056
:10376000C34990312068884204D0C149A8312068FB
:10377000884206D12068006820F0010021680860B6
:1037800005E02068006820F00100216808603B46E1
:10379000324629462046FDF76BFAB4492068884234
:1037A0004BD0B24918312068884246D0AF493031F9
:1037B0002068884241D0AD494831206888423CD0D9
:1037C000AA4960312068884237D000E042E1A74929
:1037D00078312068884230D0A449903120688842EE
:1037E0002BD0A249A8312068884226D0A049206861
:1037F000884222D09E491831206888421DD09C49B9
:1038000030312068884218D0994948312068884270
:1038100013D097496031206888420ED0944978319E
:103820002068884209D0924990312068884204D0AB
:103830008F49A8312068884201D1012000E0002092
:1038400080B12068006820F01E0040F0160021685A
:103850000860206CB0B12068006840F00800216862
:1038600008600FE02068006820F00E0040F00A00B9
:1038700021680860206C28B12068006840F00400CE
:103880002168086079492068884270D077491831EA
:10389000206888426BD0754930312068884266D0F4
:1038A000724948312068884261D07049603120688F
:1038B00088425CD06D4978312068884257D06B4986
:1038C00090312068884252D06849A83120688842E7
:1038D0004DD067492068884249D065491831206831
:1038E000884244D062493031206888423FD06049E4
:1038F0004831206888423AD05D496031206888426A
:1039000035D05B4978312068884230D058499031B1
:10391000206888422BD05649A8312068884226D09A
:1039200054492068884222D0524914312068884284
:103930001DD0504928312068884218D04D493C316B
:103940002068884213D04B495031206888420ED0FD
:10395000484964312068884209D046497831206856
:10396000884204D043498C312068884201D101202B
:1039700000E0002090B1206E006800F4803028B193
:10398000206E006840F48070216E0860E06E28B1FF
:10399000E06E006840F48070E16E08603349206892
:1039A000884249D0314918312068884244D02F4993
:1039B0003031206888423FD02C4948312068884205
:1039C0003AD02A4960312068884235D02749783179
:1039D0002068884230D025499031206888422BD019
:1039E0002249A8312068884226D02149206888428F
:1039F00022D01F491831206888421DD01C4930311F
:103A00002068884218D01A4948312068884213D06B
:103A100017496031206888420ED0154978312068F6
:103A2000884209D0124990312068884204D0104958
:103A3000A8312068884206D12068006840F0010063
:103A40002168086010E02068006840F001002168EB
:103A5000086009E04FF40060606500BF002084F852
:103A6000340000BF4FF0010840461FE6100002403E
:103A700010040240085402580348006840F0010056
:103A8000014908607047000020040058F8B502465C
:103A90000B4600216F4DD7E001278F401E6806EAD4
:103AA0000704002C72D01E7906F00306012E04D004
:103AB0001E7906F00306022E13D190684F000326EC
:103AC000BE40B0434F00DE68BE4030439060506857
:103AD00001268E40B0431E79C6F300168E40304357
:103AE00050601E7906F00306032E09D0D0684F00FF
:103AF0000326BE40B0434F009E68BE403043D060B6
:103B00001E7906F00306022E13D1CF0802F120061B
:103B100056F827004E07F70E0F26BE40B0434F075A
:103B2000FF0E1E69BE403043CF0802F1200646F862
:103B3000270010684F000326BE40B0431E7906F0F0
:103B400003064F00BE40304310605E6806F4403606
:103B5000002E78D000BF404E366846F002063E4F39
:103B60003E603E46366806F00206009600BF00BF83
:103B70003A4E8F0856F827008E07370F0F26BE40A3
:103B8000B043374EB24202D100262EE05BE0354E04
:103B9000B24201D1012628E0334EB24201D10226C1
:103BA00023E0324EB24201D103261EE0304EB24233
:103BB00001D1042619E02F4EB24201D1052614E0AE
:103BC0002D4EB24201D106260FE02C4EB24201D159
:103BD00007260AE02A4EB24201D1082605E0294E06
:103BE000B24201D1092600E00A268F073F0FBE40EE
:103BF00030431A4E8F0846F827004FF0B046306821
:103C0000A0435E6806F4801606B120434FF0B0462C
:103C100030607068A0435E6806F4001606B1204369
:103C20004FF0B04670606868A0435E6806F40036E6
:103C300006B1204368602868A0435E6806F48036B9
:103C400006B120432860491C1E68CE40002E7FF438
:103C500023AFF8BD80000058F4440258080400580F
:103C6000000002580004025800080258000C0258D4
:103C7000001002580014025800180258001C025884
:103C80000020025800240258024613690B400BB171
:103C9000012000E00020704710B5426921EA0203CC
:103CA00002EA010443EA0443836110BD0AB1816161
:103CB00001E00B048361704701480068000C704705
:103CC0000010005C014800687047000014000024E8
:103CD00003480068034909780844014908607047AF
:103CE000140000241C00002410B5052000F002FB85
:103CF00001F0ECFC10490968C1F303210F4A515C43
:103D000001F01F0120FA01F40B48006800F00F00D9
:103D10001146085C00F01F0024FA00F00849086012
:103D2000084804600F2000F00FF808B1012010BD12
:103D300000F08EFA0020FAE71844025836E3000833
:103D4000040000240000002470B5044611480078E7
:103D500008B9012070BD0F4800784FF47A71B1FBAB
:103D6000F0F00D490968B1FBF0F5284602F054FB6C
:103D700008B10120EEE7102C07D200222146501E88
:103D800000F07BFA0548046001E00120E2E7002032
:103D9000E0E700001C0000240000002418000024BC
:103DA00070B504460E46154600BF94F8A0000128E1
:103DB00001D1022070BD012084F8A00000BF0220C4
:103DC00084F8A10005EB850101EBC50204F138017F
:103DD00001EB820034223146FCF7BCFB2A46314617
:103DE000204602F08AFE01202168486284F8A10082
:103DF00000BF002084F8A00000BF00BFDAE7000089
:103E000070B504460CB9012070BD94F8A10028B922
:103E1000002084F8A000204600F07EF8022084F8FC
:103E2000A1002068806920F0704021688861D4E991
:103E300001010843E1680843216908432168896951
:103E400008432168886120688068324908402168F9
:103E50008860A08A050420688068A1692943084316
:103E6000216888602068C0682A4908402168C860C5
:103E7000A08B05042068C068216A29430843216893
:103E8000C860206800692349084021680861A08C47
:103E9000050420680069A16A294308432168086174
:103EA000206840691B49084021684861A08D0504CD
:103EB00020684069216B294308432168486194F8D0
:103EC0003500050294F8360006042068C06A00F048
:103ED0007F402168C86246EA050094F83410084320
:103EE0002168C96A08432168C8622068406B40F0B5
:103EF0000600216848632068806940F0010021685D
:103F000088610020C4F8A400012084F8A1000020EA
:103F10007AE7000000F800F010B586B0044600BF54
:103F20005D48006840F008005B490860084600688A
:103F300000F00800009000BF00BF00BF56481038D6
:103F4000006840F0100054491039086008460068C5
:103F500000F01000009000BF00BF00BF00BF4E483F
:103F6000001F006840F002004B49091F0860084626
:103F7000006800F00200009000BF00BF00BF00BF5B
:103F800000BF0846006840F020000860084600684E
:103F900000F02000009000BF00BF00BF00BF00BFC6
:103FA0000846006840F4807008600846006800F425
:103FB0008070009000BF00BF00BF00BF00BF084678
:103FC000006840F4807008600846006800F4807063
:103FD000009000BF00BF00BF00BF00BF08460068E0
:103FE00040F0400008600846006800F04000009083
:103FF00000BF00BF00BF00BF0846006840F080005F
:1040000008600846006800F08000009000BF00BF14
:10401000202001900120029003900320049001A928
:104020001E48FFF733FD4FF480600190022002909C
:1040300000200390032004900E20059001A9184849
:10404000FFF724FD4FF40070019001A91548FFF718
:104050001DFD4FF48060019001A91248FFF716FD85
:104060008020019001A91048FFF710FD4FF4046073
:10407000019001A90C48FFF709FD4FF47E40019023
:1040800001A90A48FFF702FDF720019001A90548A0
:10409000FFF7FCFC06B010BDE444025800040258CF
:1040A000001402580020025800180258001C025840
:1040B0002DE9F04104460E461746984600BF94F895
:1040C000A000012802D10220BDE8F081012084F87F
:1040D000A00000BF022084F8A10008EB880000EBDC
:1040E000C80104F1380000EB81052E60A86A304455
:1040F0006860AF60E86A3844E86042462946204676
:1041000002F0FBFC01202168486284F8A10000BF96
:10411000002084F8A00000BF00BFD5E72DE9F041E2
:1041200004460E461746984600BF94F8A0000128A2
:1041300002D10220BDE8F081012084F8A00000BF78
:10414000022084F8A10008EB880000EBC80104F10C
:10415000380000EB8105286830446860A86838445E
:10416000E860AE62EF6242462946204602F0C5FC96
:1041700001202168486284F8A10000BF002084F873
:10418000A00000BF00BFD5E74178154A1160017853
:10419000F9B1121D41681160017B0907C27A41EA39
:1041A0000261827A41EAC241427B41EA8241827BDA
:1041B00041EA4241C27B41EA0241427A41EA02219C
:1041C000027A41EA420102781143054A083211603D
:1041D00005E00021024A121D1160121D1160704796
:1041E00098ED00E000BF00BF00BFBFF35F8F00BFCE
:1041F00000BF00BF0548006820F480300349086014
:1042000000200249703108607047000024ED00E092
:1042100040F001010D4A11600C497039096841F400
:1042200080310A4A703A116000BF00BF00BFBFF37F
:104230004F8F00BF00BF00BF00BF00BF00BFBFF374
:104240006F8F00BF00BF00BF7047000094ED00E01B
:1042500070470146084600280DDB00BF00BF00F094
:104260001F0301229A4043099B0003F1E023C3F896
:10427000002100BF00BF00BF70472DE9F05F8046FE
:104280000D46164603F002FF074639462A463346D6
:1042900001F00700C0F1070ABAF1040F02D94FF08C
:1042A000040A01E0C0F1070AD14600F1040ABAF19C
:1042B000070F02D24FF0000A01E0A0F1030AD44632
:1042C0004FF0010A0AFA09FAAAF1010A0AEA020AF7
:1042D0000AFA0CFA4FF0010B0BFA0CFBABF1010BD5
:1042E0000BEA030B4AEA0B042146404603F0D6FED4
:1042F000BDE8F09F00BF00F00702064B19684FF6BB
:10430000FF031940044B0B4343EA0221014B1960A0
:1043100000BF70470CED00E00000FA05034800689C
:1043200040F0807001490860704700000C48025856
:1043300010B501F081F905490968C1F30211044A79
:10434000515C01F01F01C84010BD0000204402581C
:1043500036E3000870B50146844D2D6805F003036F
:10436000824D2D68C5F30530804D2D1D2D68C5F398
:1043700000147E4D14352D68C5F3CC0515FB04F5EE
:1043800001EE105AB8EE411AF0EE410A00286FD043
:1043900023B1012B4ED0022B6BD16BE0734D283D26
:1043A0002D68C5F340153DB3704D283D2D68C5F30C
:1043B000C1066F4D25FA06F201EE102AF8EE411AF9
:1043C00001EE100AB8EE411A81EE812A9FED691ABA
:1043D000C0EE811A654D10352D68C5F3080501EE54
:1043E000105AB8EE411A31EE811AF7EE001A31EE8A
:1043F000211A22EE010A1CE001EE100AB8EE411A61
:10440000DFED5D1A81EE812A9FED5A1AC0EE811A06
:10441000564D10352D68C5F3080501EE105AB8EE5B
:10442000411A31EE811AF7EE001A31EE211A22EE0E
:10443000010A5BE001EE100AB8EE411ADFED4F1AF7
:1044400081EE812A9FED4B1AC0EE811A474D10353F
:104450002D68C5F3080501EE105AB8EE411A31EE89
:10446000811AF7EE001A31EE211A22EE010A3DE020
:1044700077E01DE001EE100AB8EE411A9FED402AE8
:10448000C2EE011A9FED3B1A80EE812A374D10359E
:104490002D68C5F3080501EE105AB8EE411A32EE48
:1044A000011AB7EE002A31EE021A21EE810A1DE050
:1044B00001EE100AB8EE411ADFED301A81EE812AC2
:1044C0009FED2C1AC0EE811A284D10352D68C5F3CA
:1044D000080501EE105AB8EE411A31EE811AF7EED6
:1044E000001A31EE211A22EE010A00BF00BF1F4D53
:1044F00010352D68C5F3462501EE105AB8EE411A65
:10450000F7EE001A31EE211AC0EE011ABCEEE11AE4
:1045100081ED001A154D10352D68C5F3064501EEE5
:10452000105AB8EE411AF7EE001A31EE211AC0EE19
:10453000011ABCEEE11A81ED011A0C4D10352D68FF
:10454000C5F3066501EE105AB8EE411AF7EE001AEF
:1045500031EE211AC0EE011ABCEEE11A81ED021A09
:1045600003E000250D604D608D6070BD2844025849
:104570000090D003000000460024744C0024744ACC
:1045800020BCBE4B70B50146844D2D6805F0030379
:10459000824D2D68C5F30550804D2D1D2D68C5F346
:1045A00000247E4D1C352D68C5F3CC0515FB04F5A4
:1045B00001EE105AB8EE411AF0EE410A00286FD011
:1045C00023B1012B4ED0022B6BD16BE0734D283DF4
:1045D0002D68C5F340153DB3704D283D2D68C5F3DA
:1045E000C1066F4D25FA06F201EE102AF8EE411AC7
:1045F00001EE100AB8EE411A81EE812A9FED691A88
:10460000C0EE811A654D18352D68C5F3080501EE19
:10461000105AB8EE411A31EE811AF7EE001A31EE57
:10462000211A22EE010A1CE001EE100AB8EE411A2E
:10463000DFED5D1A81EE812A9FED5A1AC0EE811AD4
:10464000564D18352D68C5F3080501EE105AB8EE21
:10465000411A31EE811AF7EE001A31EE211A22EEDC
:10466000010A5BE001EE100AB8EE411ADFED4F1AC5
:1046700081EE812A9FED4B1AC0EE811A474D183505
:104680002D68C5F3080501EE105AB8EE411A31EE57
:10469000811AF7EE001A31EE211A22EE010A3DE0EE
:1046A00077E01DE001EE100AB8EE411A9FED402AB6
:1046B000C2EE011A9FED3B1A80EE812A374D183564
:1046C0002D68C5F3080501EE105AB8EE411A32EE16
:1046D000011AB7EE002A31EE021A21EE810A1DE01E
:1046E00001EE100AB8EE411ADFED301A81EE812A90
:1046F0009FED2C1AC0EE811A284D18352D68C5F390
:10470000080501EE105AB8EE411A31EE811AF7EEA3
:10471000001A31EE211A22EE010A00BF00BF1F4D20
:1047200018352D68C5F3462501EE105AB8EE411A2A
:10473000F7EE001A31EE211AC0EE011ABCEEE11AB2
:1047400081ED001A154D18352D68C5F3064501EEAB
:10475000105AB8EE411AF7EE001A31EE211AC0EEE7
:10476000011ABCEEE11A81ED011A0C4D18352D68C5
:10477000C5F3066501EE105AB8EE411AF7EE001ABD
:1047800031EE211AC0EE011ABCEEE11A81ED021AD7
:1047900003E000250D604D608D6070BD2844025817
:1047A0000090D003000000460024744C0024744A9A
:1047B00020BCBE4B2DE9F04104460025A8462068E8
:1047C00000F00060B0F1006F30D1606E48B1B0F51C
:1047D000801F0DD0B0F5001F10D0B0F5401F15D1CF
:1047E00013E0F948006840F40030F74908600FE032
:1047F0000221201D02F08EFA054609E0022104F193
:10480000240002F039FB054602E001E0012500BF6B
:1048100000BF55B9EC482430006820F44010616EA8
:104820000843E9492431086000E0A846208800F4E4
:104830008070B0F5807F2DD1606D05281AD2DFE839
:1048400000F0030A10171800DF48006840F4003039
:10485000DD49086010E00021201D02F05BFA0546EA
:104860000AE0002104F1240002F006FB054603E003
:1048700002E001E0012500BF00BF55B9D248243055
:10488000006820F00700616D0843CF4924310860BB
:1048900000E0A846208800F40070B0F5007F33D116
:1048A000A06D802817D003DC40B140281CD10CE05B
:1048B000C02817D0B0F5807F16D114E0C248006838
:1048C00040F40030C049086010E00021201D02F0D3
:1048D00021FA05460AE0002104F1240002F0CCFA96
:1048E000054603E002E001E0012500BF00BF55B925
:1048F000B5482430006820F4E070A16D0843B24947
:104900002431086000E0A846208800F48060B0F5FB
:10491000806F38D1D4F8A400B0F5800F19D004DC32
:1049200050B1B0F5001F1DD10DE0B0F5C00F17D08C
:10493000B0F5000F16D114E0A348006840F4003031
:10494000A149086010E00021201D02F0E3F90546AE
:104950000AE0002104F1240002F08EFA054603E08B
:1049600002E001E0012500BF00BF5DB996482C3090
:10497000006820F46000D4F8A410084392492C3158
:10498000086000E0A846208800F40060B0F5006FE1
:1049900038D1D4F8A800B0F1007F19D004DC50B1B0
:1049A000B0F1807F1DD10DE0B0F1407F17D0B0F1A4
:1049B000806F16D114E08448006840F400308249CA
:1049C000086010E00021201D02F0A4F905460AE06D
:1049D000002104F1240002F04FFA054603E002E052
:1049E00001E0012500BF00BF5DB977482C300068A9
:1049F00020F0E060D4F8A810084373492C31086017
:104A000000E0A846206800F00070B0F1007F27D1D8
:104A1000A06CA0B1102804D0202809D030280FD1D4
:104A20000CE06948006840F400306749086009E01C
:104A30000221201D02F06EF9054603E002E001E0CC
:104A4000012500BF00BF55B95F482030006820F045
:104A50003000A16C08435C492031086000E0A846A2
:104A6000208800F48050B0F5805F36D1E06DB0F55D
:104A7000005F19D004DC50B1B0F5805F1DD10DE0AE
:104A8000B0F5405F17D0B0F5804F16D114E04E4816
:104A9000006840F400304C49086010E00021201DFF
:104AA00002F038F905460AE0002104F1240002F082
:104AB000E3F9054603E002E001E0012500BF00BF85
:104AC00055B941482430006820F4E040E16D0843C6
:104AD0003D492431086000E0A846208800F40050D9
:104AE000B0F5005F34D1206EB0F5403F1DD007DC3B
:104AF00068B1B0F5803F0BD0B0F5003F18D10DE0A4
:104B0000B0F5802F12D0B0F5A02F11D10FE011E039
:104B10000121201D02F0FEF805460BE0012104F101
:104B2000240002F0A9F9054604E003E002E001E0F8
:104B3000012500BF00BF55B923482430006820F488
:104B4000E020216E084320492431086000E0A84697
:104B5000208800F48040B0F5804F38D1D4F8AC0004
:104B6000B0F1405F1DD007DC68B1B0F1805F0BD0C1
:104B7000B0F1005F18D10DE0B0F1804F12D0B0F16C
:104B8000A04F11D10FE011E00121201D02F0C2F869
:104B900005460BE0012104F1240002F06DF9054601
:104BA00004E003E002E001E0012500BF00BF6DB9B1
:104BB00005482C30006820F0E040D4F8AC100843E1
:104BC00001492C31086002E02C440258A846208894
:104BD00000F40040B0F5004F26D1E06E98B1B0F17E
:104BE000805F03D0B0F1005F0ED106E0F9480068A5
:104BF00040F40030F749086008E00121201D02F070
:104C000089F8054602E001E0012500BF00BF55B963
:104C1000F0482430006820F04050E16E0843ED4930
:104C20002431086000E0A846206800F08070B0F1F0
:104C3000807F27D1606CA0B1012804D0022809D060
:104C400003280FD10CE0E348006840F40030E1494C
:104C5000086009E00221201D02F05CF8054603E02F
:104C600002E001E0012500BF00BF55B9D94820305E
:104C7000006820F00300616C0843D64920310860C9
:104C800000E0A846206800F48000B0F5800F7DD1D8
:104C9000D148006840F48070CF490860FFF712F8EF
:104CA000064606E0FFF70EF8801B642801D90325AD
:104CB00005E0C948006800F480700028F2D000BF09
:104CC00085BBC4484430006800F44070B4F8B010AC
:104CD00001F44071884213D0BE484430006820F48B
:104CE0004077BC484430006840F48030B9494431D2
:104CF00008600846006820F48030086008460760B5
:104D0000D4F8B000B0F5807F15D1FEF7DBFF064682
:104D100009E0FEF7D7FF801B41F28831884202D9B3
:104D2000032507E038E0AB4844300068C0F340009A
:104D30000028EED000BF55BB00BFB4F8B00000F4AF
:104D40004070B0F5407F0ED1A2481C38006820F4B6
:104D50007C51A24AD4F8B000104041EA10109D499D
:104D60001C39086007E09B481C38006820F47C5020
:104D700098491C390860974844300068B4F8B0106E
:104D8000C1F30B0108439349443101E005E001E020
:104D9000086002E0A84600E0A846207800F0010084
:104DA00068B3A06F182819D005DC48B1082808D0CE
:104DB000102816D10BE0202811D0282811D10FE09F
:104DC00011E00121201D01F0A5FF05460BE00121A6
:104DD00004F1240002F050F8054604E003E002E08C
:104DE00001E0012500BF00BF55B97A4828300068AE
:104DF00020F03800A16F084376492831086000E0B0
:104E0000A846207800F00200022828D1606F06280A
:104E100015D2DFE800F003040A11121311E001219A
:104E2000201D01F077FF05460BE0012104F124006D
:104E300002F022F8054604E003E002E001E001256B
:104E400000BF00BF55B963482830006820F0070054
:104E5000616F08435F492831086000E0A846207868
:104E600000F0040004282AD1D4F89000062815D2B6
:104E7000DFE800F003040A11121311E00121201DE4
:104E800001F048FF05460BE0012104F1240001F088
:104E9000F3FF054604E003E002E001E0012500BF66
:104EA00000BF5DB94B482C30006820F00700D4F8F3
:104EB0009010084347492C31086000E0A84620784C
:104EC00000F02000202836D1D4F88C00B0F1405FEB
:104ED0001DD007DC68B1B0F1805F0BD0B0F1005F8E
:104EE00018D10DE0B0F1804F12D0B0F1A04F11D128
:104EF0000FE011E00021201D01F00CFF05460BE042
:104F0000022104F1240001F0B7FF054604E003E0AC
:104F100002E001E0012500BF00BF5DB92D48283047
:104F2000006820F0E040D4F88C100843294928316B
:104F3000086000E0A846207800F04000402836D104
:104F4000D4F89800B0F5406F1DD007DC68B1B0F51B
:104F5000806F0BD0B0F5006F18D10DE0B0F5805F19
:104F600012D0B0F5A05F11D10FE011E00021201D9B
:104F700001F0D0FE05460BE0022104F1240001F00F
:104F80007BFF054604E003E002E001E0012500BFED
:104F900000BF5DB90F482C30006820F4E050D4F811
:104FA000981008430B492C31086000E0A84620788F
:104FB00000F0800080283AD1D4F89C00B0F5C04FB2
:104FC00023D00DDC98B1B0F5005F11D0B0F5804F63
:104FD0001ED113E02C44025800480258FFFCFF0F7A
:104FE000B0F5004F12D0B0F5204F11D10FE011E015
:104FF0000021201D01F08EFE05460BE0022104F188
:10500000240001F039FF054604E003E002E001E07E
:10501000012500BF00BF4DB9BE48006820F46040C4
:10502000D4F89C100843BB49086000E0A8462078EB
:1050300000F00800082817D1D4F88000B0F5805F90
:1050400007D1022104F1240001F016FF08B14FF04E
:105050000108B048001F006820F44050D4F88010C8
:105060000843AC49091F0860207800F010001028A0
:1050700015D1D4F89400B0F5807F07D1022104F156
:10508000240001F0F9FE08B14FF00108A1480068C2
:1050900020F44070D4F8941008439E4908602068BA
:1050A00000F40020B0F5002F26D1D4F8A00030B1D4
:1050B000B0F5803F09D0B0F5003F0ED10CE00021E3
:1050C000201D01F027FE054609E0022104F124001D
:1050D00001F0D2FE054602E001E0012500BF00BF5D
:1050E0004DB98C48006820F44030D4F8A010084333
:1050F0008849086000E0A846206800F48020B0F5E8
:10510000802F2DD1D4F88400B0F5801F06D0B0F5E3
:10511000001F0CD0B0F5401F11D10FE07D482C3896
:10512000006840F400307B492C39086009E0012117
:1051300004F1240001F0A0FE054602E001E0012593
:1051400000BF00BF5DB97348001F006820F4401025
:10515000D4F8841008436F49091F086000E0A8468E
:10516000206800F48030B0F5803F24D1E06C18B1A5
:10517000B0F5803F0FD108E066482C38006840F455
:10518000003064492C39086007E00221201D01F03D
:10519000C1FD054601E0012500BF00BF55B95D48CE
:1051A0000C38006820F48030E16C084359490C3910
:1051B000086000E0A846206800F00050B0F1005FF1
:1051C00007D1022104F1240001F056FE08B14FF08E
:1051D0000108206800F40030B0F5003F27D1E06FEF
:1051E000A0B1B0F5807F06D0B0F5007F0CD0B0F54F
:1051F000407F0CD109E047482C38006840F400306B
:1052000044492C39086004E003E002E001E0012594
:1052100000BF00BF55B93F48001F006820F4407030
:10522000E16F08433B49091F086000E0A846206879
:1052300000F48010B0F5801F09D1364808380068A6
:1052400020F00040216F0843324908390860206887
:1052500000F08050B0F1805F0AD12E4848380068D5
:1052600020F48040D4F8B41008432A494839086033
:10527000206800F40010B0F5001F09D12548083857
:10528000006820F08070A16E084322490839086048
:10529000206800F08040B0F1804F11D100BF1D4860
:1052A0004838006820F400401A4948390860084628
:1052B0000068D4F8B810084316494839086000BFA0
:1052C000206800F00040B0F1004F09D111480C38BF
:1052D000006820F04050216D08430E490C390860E9
:1052E000206800F40000B0F5000F0AD10948001F43
:1052F000006820F44000D4F8881008430549091FCD
:105300000860B8F1000F02D10020BDE8F081012053
:10531000FBE70000584402582DE9F04104460D46D1
:1053200014B90120BDE8F081BD48006800F00F000D
:10533000A8420ED2BA48006820F00F002843B849AE
:1053400008600846006800F00F00A84201D0012064
:10535000E8E7207800F0040004280ED1B149206964
:10536000096801F07001884207D9AE48006820F052
:10537000700021690843AB490860207800F00800FC
:10538000082811D1A749091D6069096801F0700159
:10539000884209D9A348001D006820F070006169A7
:1053A0000843A049091D0860207800F0100010286B
:1053B00011D19C49091DA069096801F4E061884286
:1053C00009D99848001D006820F4E060A1690843ED
:1053D0009449091D0860207800F02000202811D190
:1053E00090490831E069096801F07001884209D9E3
:1053F0008C480830006820F07000E1690843894952
:1054000008310860207800F0020002280ED185499A
:10541000E068096801F00F01884207D981480068F7
:1054200020F00F00E16808437E490860207800F012
:105430000100002850D07B48006820F47060A1680B
:105440000843784908606068022807D17548183811
:105450000068C0F34040F8B9012063E760680328A2
:1054600007D1704818380068C0F34060A0B9012027
:1054700058E76068012807D16A4818380068C0F307
:10548000002048B901204DE7664818380068C0F38D
:10549000800008B9012045E762480838006820F01C
:1054A0000700616808435F4908390860FEF70AFC95
:1054B000064608E0FEF706FC801B41F28831884270
:1054C00001D903202EE757480838006800F038005B
:1054D0006168B0EBC10FEDD1207800F00200022826
:1054E0000ED15049E068096801F00F01884207D2E7
:1054F0004C48006820F00F00E16808434949086003
:105500004748006800F00F00A8420ED944480068E0
:1055100020F00F002843424908600846006800F068
:105520000F00A84201D00120FCE6207800F0040022
:1055300004280ED13B492069096801F070018842B6
:1055400007D23848006820F07000216908433549C7
:105550000860207800F00800082811D13149091DA1
:105560006069096801F07001884209D22D48001D68
:10557000006820F07000616908432A49091D08602D
:10558000207800F01000102811D12649091DA069CB
:10559000096801F4E061884209D22248001D0068D0
:1055A00020F4E060A16908431E49091D08602078C5
:1055B00000F02000202811D11A490831E06909685B
:1055C00001F07001884209D216480830006820F0C6
:1055D0007000E169084313490831086000F076F86B
:1055E00010490968C1F303210F4A515C01F01F0102
:1055F00020FA01F70B48006800F00F001146085C24
:1056000000F01F0027FA00F008490860084807600A
:1056100008480068FEF798FB8046404682E6000096
:10562000002000521844025836E300080400002409
:10563000000000241800002410B500F047F80D49C0
:105640000968C1F303210C4A515C01F01F0120FAE3
:1056500001F40848006800F00F001146085C00F0F3
:105660001F0024FA00F00549086005480460084658
:10567000006810BD1844025836E3000804000024F6
:105680000000002400B5FFF7D7FF05490968C1F302
:105690000211044A515C01F01F01C84000BD000026
:1056A0001C44025836E3000800B5FFF7C5FF054962
:1056B0000968C1F30221044A515C01F01F01C8408E
:1056C00000BD00001C44025836E30008F0B5824ECD
:1056D000366806F0380636B1082E15D0102E15D0D3
:1056E000182E7DD114E07C4E103E3668C6F340166D
:1056F00046B1794E103E3668C6F3C107774E26FA9A
:1057000007F000E07548E5E07548E3E07548E1E042
:10571000714E1836366806F003046F4E1836366838
:10572000C6F305116C4E1C36366806F001056A4E4C
:1057300024363668C6F3CC0616FB05F601EE106A71
:10574000B8EE410A002971D024B1012C50D0022CAE
:105750006DD16DE0604E103E3668C6F340163EB324
:105760005D4E103E3668C6F3C1075C4E26FA07F35D
:1057700001EE103AF8EE411A01EE101AB8EE411A95
:1057800081EE812A9FED581AC0EE011A524E203642
:105790003668C6F3080601EE106AB8EE411A31EE1B
:1057A000811AF7EE001A31EE211A62EE010A1EE0AC
:1057B00001EE101AB8EE411ADFED4C1A81EE812A83
:1057C0009FED491AC0EE011A434E20363668C6F3E3
:1057D000080601EE106AB8EE411A31EE811A00E0B7
:1057E00076E0F7EE001A31EE211A62EE010A5BE074
:1057F00001EE101AB8EE411A9FED3D2AC2EE011AD1
:105800009FED391A80EE012A334E20363668C6F3F2
:10581000080601EE106AB8EE411A32EE011AB7EE30
:10582000002A31EE021A61EE810A3DE04EE01DE0F1
:1058300001EE101AB8EE411ADFED2E1A81EE812A20
:105840009FED291AC0EE011A234E20363668C6F3A2
:10585000080601EE106AB8EE411A31EE811AF7EE31
:10586000001A31EE211A62EE010A1DE001EE101A53
:10587000B8EE411A9FED1E2AC2EE011A9FED1A1AC8
:1058800080EE012A144E20363668C6F3080601EE73
:10589000106AB8EE411A32EE011AB7EE002A31EE64
:1058A000021A61EE810A00BF00BF0B4E2036366837
:1058B000C6F34626721C01EE102AB8EE411AC0EE5D
:1058C000811ABCEEE11A11EE100A00E0002001E09E
:1058D000034800BF00BFF0BD104402580090D00341
:1058E00000093D0040787D01000000460024744C12
:1058F0000024744A20BCBE4B2DE9F047044614B97D
:105900000120BDE8F087207800F00100002870D069
:10591000FA48006800F03808F8481830D0F80090CD
:10592000B8F1100F06D0B8F1180F0FD109F003002D
:1059300002280BD1F14810380068C0F3404000281D
:105940006AD06068002867D10120DAE700BF60688C
:10595000B0F5803F08D1E9481038006840F4803045
:10596000E649103908602EE0606868B9E3481038ED
:10597000006820F48030E14910390860084600686A
:1059800020F4802008601EE06068B0F5A02F0DD1E3
:10599000DA481038006840F48020D849103908608F
:1059A0000846006840F4803008600CE0D3481038A6
:1059B000006820F48030D14910390860084600683A
:1059C00020F48020086000BF606898B1FEF77AF983
:1059D000054606E0FEF776F9401B642801D903204E
:1059E0008FE7C64810380068C0F340400028F1D067
:1059F00012E012E0FEF766F9054606E0FEF762F9EE
:105A0000401B642801D903207BE7BC48103800689C
:105A1000C0F340400028F1D100BF207800F0020020
:105A2000022874D1B548006800F03808B34818302F
:105A3000D0F80090B8F1000F05D0B8F1180F56D18A
:105A400009F00300D0BBAD4810380068C0F38000F7
:105A500018B1E06808B9012053E7A8481038006879
:105A600020F01900E1680843A44910390860FEF7E6
:105A700029F9054606E0FEF725F9401B022801D961
:105A800003203EE79D4810380068C0F380000028DE
:105A9000F1D000BFFEF710F941F2030188421AD895
:105AA000206940280BD195480C38006820F47C30E0
:105AB00040F4003091490C39086017E017E08F4836
:105AC0000C38006820F47C30216940EA01308B49B1
:105AD0000C3908600AE089480C38006820F0FE4064
