:020000040800F2
:10000000E80F00244D030008758E00080B4B000814
:10001000D98D0008B7090008A9B600080000000043
:10002000000000000000000000000000A997000888
:100030003D0C000800000000F9910008A998000894
:1000400067030008670300086703000867030008E8
:1000500067030008670300086703000867030008D8
:1000600067030008670300086703000867030008C8
:1000700067030008670300086703000867030008B8
:1000800067030008670300086703000867030008A8
:100090006703000867030008670300086703000898
:1000A0006703000867030008670300086703000888
:1000B0006703000867030008670300086703000878
:1000C0006703000867030008670300086703000868
:1000D0006703000859B600086703000867030008B3
:1000E00067030008670300080000000067030008BA
:1000F0006703000867030008670300086703000838
:100100006703000867030008670300086703000827
:100110006703000867030008670300086703000817
:100120006703000867030008670300086703000807
:1001300067030008670300086703000867030008F7
:1001400000000000000000000000000000000000AF
:1001500067030008670300086703000867030008D7
:1001600067030008670300086703000867030008C7
:1001700067030008670300086703000867030008B7
:1001800067030008670300086703000867030008A7
:100190006703000867030008670300086703000897
:1001A0006703000867030008670300086703000887
:1001B0006703000867030008670300086703000877
:1001C0006703000867030008670300086703000867
:1001D0006703000867030008670300086703000857
:1001E0006703000867030008670300086703000847
:1001F0006703000867030008670300086703000837
:100200006703000867030008670300086703000826
:100210006703000867030008670300086703000816
:100220006703000867030008670300080000000078
:100230006703000867030008000000006703000868
:1002400067030008670300086703000867030008E6
:1002500067030008670300086703000867030008D6
:1002600067030008670300086703000867030008C6
:100270006703000867030008670300080000000028
:10028000670300080000000067030008000000008A
:10029000000000006703000800F002F800F047F8D3
:1002A0000AA090E8000C82448344AAF10107DA45D1
:1002B00001D100F03CF8AFF2090EBAE80F0013F0DC
:1002C000010F18BFFB1A43F0010318479C050100FA
:1002D000BC050100103A24BF78C878C1FAD852078B
:1002E00024BF30C830C144BF04680C6070470000B0
:1002F0000023002400250026103A28BF78C1FBD82F
:10030000520728BF30C148BF0B607047642900F016
:100310001F81782900F05881732900F06182002044
:1003200070471FB50BF0E4FC1FBD10B510BD00F009
:1003300091FA1146FFF7F5FF0BF0D2FB00F0AFFA90
:1003400003B4FFF7F2FF03BC0BF0FFF90948804745
:1003500009480047FEE7FEE7FEE7FEE7FEE7FEE7A7
:10036000FEE7FEE7FEE7FEE704480549054A064BBF
:1003700070470000B198000899020008E8030024C3
:10038000E80F0024E8050024E8050024704753EA3C
:10039000020C00F069802DE9F04B4FF00006002BB5
:1003A0001FBFB3FA83F503FA05F424FA05F65E409D
:1003B00012BF1643B2FA82F502FA05F4C5F1200520
:1003C0001EBF22FA05FC44EA0C04203556EA044C10
:1003D0004FEA144418BF641C4FF000084FF00009A6
:1003E000904271EB030C39D3002919BFB1FA81F7A0
:1003F00001FA07F6B0FA80F700FA07F6C7F120070E
:100400001EBF20FA07FC46EA0C062037B6FBF4FCB8
:10041000A7EB0507103F07F01F0BCBF120060CFAE6
:100420000BFB2CFA06F644BFB3460026202FA4BFD0
:100430005E464FF0000B5BEA060C08BF4FF0010B65
:1004400019EB0B09ABFB027C48EB0608C01B06FB53
:1004500002CC0BFB03CC71EB0C01C1E70B4602464F
:1004600041464846BDE8F08B13B54FF000004FF011
:100470000001AFF30080BDE81C4070470FB4044991
:1004800010B503AA029800F0AFF910BC5DF814FB98
:100490000C0000242DE9F0410E46044600202062A5
:1004A0002046E168884730B3252805D0D4E90121EA
:1004B0009047206A401CF2E7E16820460027884701
:1004C000050018D0A5F14100192802D820354FF4B5
:1004D00000673246294620462760FFF717FF40B1E4
:1004E000012804D0F61D26F007060836D8E7361D89
:1004F000D6E72846DAE7206ABDE8F08170B50C46F9
:100500000546012A05D02878800600D5EA6900232F
:1005100002E0012305E05B1C934202D2E05C00286C
:10052000F9D1A869E618C01AA861286A1844286297
:100530002846AFF3008004E0D5E9012114F8010B4F
:100540009047B442F8D32846AFF3008070BD000056
:100550002DE9F0410646002410687529314616A59C
:1005600010D0AFF30080002802DA404213A507E064
:1005700031688A0701D512A502E0490704D511A503
:10058000012401E0AFF3008000210A2206F12407D4
:1005900009E0B0FBF2FCB0FBF2F302FB1C003030D0
:1005A00078541846491C0028F3D123462A46304681
:1005B000BDE8F04100F0A9B8000000002D000000E7
:1005C0002B0000002000000070B504460D462146B7
:1005D0001068AFF300802188090502D50F4A7A44DC
:1005E00002E00E4A7A440E32002104F1240305E0B1
:1005F00000F00F060009965D5E54491C0028F7D1F3
:1006000020780023000704D5702D02D009B1022301
:1006100011322046BDE8704000F077B8E0010100DB
:1006200010B5203AC0F00B80B1E81850203AA0E88D
:100630001850B1E81850A0E81850BFF4F5AF5FEAC1
:10064000027C24BFB1E81850A0E8185044BF18C974
:1006500018C0BDE810405FEA827C24BF51F8043B1B
:1006600040F8043B08BF7047D20728BF31F8023B6F
:1006700048BF11F8012B28BF20F8023B48BF00F803
:10068000012B70474FF0013C50F8042B51F8043B0C
:100690009A4215D1A2EB0C03934313EACC130BD16E
:1006A00050F8042B51F8043B9A4209D1A2EB0C03F9
:1006B000934313EACC13E7D04FF00000704700BF1C
:1006C000D01A01BAB1FA81F101F0180122FA01F051
:1006D000CB40C1F12001DBB2C0B2C01A2CFA01F349
:1006E000D11A914311EAC311E6D1704770477047A0
:1006F0007047704710B500F089F8006810BD10B55C
:10070000044600F083F8046010BD2DE9F0470D4663
:1007100099469246044600F124080168880604D5EB
:10072000E06921F01001216000E00120A84201DD14
:10073000471B00E00027A1697A1902EB0900081A9B
:10074000A0612078C00602D42046AFF300800026C6
:1007500008E0D4E901211AF806009047206A401CFD
:10076000761C20624E45F4DB2078C0060AD5204670
:10077000AFF3008006E0D4E9012130209047206AE1
:10078000401C2062381EA7F10107F4DC07E0D4E921
:10079000012118F805009047206A401C2062281E9D
:1007A000A5F10105F3DC2046AFF3008020780006B8
:1007B00002D50220BDE8F0870120FBE710B54369B0
:1007C00013B1AFF3008001E0FFF798FE012010BDE8
:1007D000127800F124010A7000224A700122EDE72C
:1007E00011684FF0FF32E9E7074B70B50D467B44C7
:1007F00000F015F80446284600F024F810B14FF038
:10080000FF3070BD204670BDFFB00000004870474B
:100810008803002401694A1C02610878704700B50A
:100820008FB0CDE901310021059105497944CDE929
:10083000031011466846FFF72DFE0FB000BD000003
:10084000E5FFFFFF007B00F0800070470048704725
:10085000880300247546FFF7F9FFAE460500694698
:10086000534620F00700854618B020B5FFF77CFD01
:10087000BDE820404FF000064FF000074FF00008A1
:100880004FF0000B21F00701AC46ACE8C009ACE822
:10089000C009ACE8C009ACE8C0098D46704710B586
:1008A0000446AFF300802046BDE81040FFF748BD86
:1008B00010B504F057F910BD2DE9F04107460C467C
:1008C0000026002509E036023919491B491E88B265
:1008D00000F008F80644681CC5B2A542F3DB3046B8
:1008E000BDE8F08170B50446002604F005FA2546FF
:1008F000E11704EB11610912A02202EB4101C8B219
:1009000004F0BCF904F04CFAE11704EB1161091290
:10091000A4EB0121C8B204F0B1F904F041FA04F0EB
:10092000EBF9A12004F0AAF904F03AFA002004F04F
:100930006FF9064604F00AFA304670BD2DE9F04121
:1009400005460E461746002409E0E20026FA02F2A8
:10095000D1B22A1990B200F006F8601CC4B2BC42B1
:10096000F3DBBDE8F08170B504460E4604F0C4F92F
:100970002546E11704EB11610912A02202EB4101A7
:10098000C8B204F07BF904F00BFAE11704EB116133
:100990000912A4EB0121C8B204F070F904F000FAC6
:1009A000304604F06BF904F0FBF904F0CFF90A20AB
:1009B0000AF06EFF70BD00BFFEE710B502200AF01E
:1009C00073FF10BD10B5002280210D4801F0EEFB31
:1009D000FFF7F3FF012240210A4801F0E7FBFFF790
:1009E000ECFF00224021074801F0E0FBFFF7E5FFA4
:1009F00001228021024801F0D9FBFFF7DEFF10BD84
:100A000000180258001C025800B587B000BF1748F4
:100A1000006840F08000154908600846006800F052
:100A20008000019000BF00BF00BF0846006840F092
:100A3000400008600846006800F04000019000BFD8
:100A400000BF402002901120039001200490032059
:100A5000059002A9064801F077FA8020029002A9C9
:100A6000044801F071FA07B000BD0000E0440258EC
:100A7000001C02580018025810B5012280210A48B3
:100A800001F094FBFFF799FF01224021074801F094
:100A90008DFBFFF792FF00224021044801F086FB06
:100AA000FFF78BFF10BD000000180258001C025811
:100AB00070B505460024002618E06006040E0122E9
:100AC00040210F4801F072FBFFF777FF80210D48AE
:100AD00001F060FB08B1601CC4B20022402108484C
:100AE00001F064FBFFF769FF701CC6B2082EE4DB5F
:100AF00015B9FFF7C1FF01E0FFF764FF204670BDA5
:100B0000001C02580018025870B5044600251EE06B
:100B1000E00928B101228021114801F047FB04E0DF
:100B2000002280210E4801F041FBFFF746FF012221
:100B300040210C4801F03AFBFFF73FFF0022402123
:100B4000084801F033FB6006040E681CC5B2082D8E
:100B5000DEDB01228021024801F028FB70BD00008D
:100B600000180258001C025810B5012280210C48C0
:100B700001F01CFB012240210A4801F017FBFFF79E
:100B80001CFF00228021064801F010FBFFF715FF33
:100B900000224021034801F009FBFFF70EFF10BDC2
:100BA00000180258001C025810B5002280210A4883
:100BB00001F0FCFAFFF701FF01224021074801F094
:100BC000F5FAFFF7FAFE01228021034801F0EEFA60
:100BD000FFF7F3FE10BD000000180258001C025879
:100BE00070B50024002501228021124801F0DEFAB0
:100BF000FFF7E3FE012240210F4801F0D7FAFFF78B
:100C0000DCFE07E0601CC4B2FA2C03DDFFF7CCFF6A
:100C1000012505E08021074801F0BCFA0028F1D148
:100C200000BF00224021044801F0C0FAFFF7C5FED2
:100C3000284670BD00180258001C0258704700007A
:100C400070B504461D460023B5F5804F13D154F806
:100C500022300C480340D1E9000640EA06108E68B5
:100C600040EA06208E8940EA06408E6930430343FD
:100C700044F8223003E06FF0704044F82200002076
:100C800070BD00000000F0CF10B5024600230868D8
:100C900052F820301B480340D1E901042043CC68BE
:100CA00020430C6920434C6920438C692043CC6964
:100CB00020430C6A20434C6A20438C6A2043CC6A50
:100CC00020430C6B20438C6B20434C6B204303432D
:100CD0008868082801D143F04003086842F82030B2
:100CE000086BB0F5801F05D1086818B110680C6B4F
:100CF00020431060086818B110684C6B20431060E6
:100D0000002010BD8004C0FF30B503461446002209
:100D1000601C53F8202002F04042D1E9000540EA6F
:100D200005108D6840EA05208D8940EA0545088A4E
:100D3000401E45EA0055087D801E45EA00608D6929
:100D400028430243601C43F82020186800F48010F8
:100D500038B1586820F47002088A401E42EA0052F6
:100D60005A60002030BD30B50246002300240868D8
:100D7000012816D013686FF30E03D1E9010528434B
:100D8000CD6828430D6928434D6928438D69284360
:100D9000CD6928430D6A28434D6A284303431360F5
:100DA00019E0136823F4F843D1E9070528434D6A95
:100DB0002843034354686FF30E04D1E90105284327
:100DC000CD6828430D6928434D6928438D69284320
:100DD000044313605460002030BD0246506940EA6D
:100DE000410050610020704718B503460020009074
:100DF000D1E9000420438C68641E40EA4410CC68AA
:100E000040EA4420009000981861002018BD0000BE
:100E100070B50346154600220024012D1FD09A68A4
:100E200002F070420868401E4E68761E40EA0616C0
:100E30008868401E46EA0026C868401E46EA00361A
:100E4000088A401E46EA0046888A401E46EA005646
:100E5000087E401E46EA006002439A6022E09A68DB
:100E600011480240C868401E0603888A401E46EAB0
:100E700000500243DC6804F070440868401E4E686D
:100E8000761E40EA06168868401E46EA0026088A52
:100E9000401E46EA0046087E401E46EA00600443C3
:100EA0009A60DC60002070BDFF0F0FFF10B588B0A6
:100EB000012400BF5548006840F080005349086095
:100EC0000846006800F08000009000BF00BF00BF2F
:100ED0000846006840F4807008600846006800F426
:100EE0008070009000BF00BF802001900020029021
:100EF000012003900320049001A9454801F024F843
:100F0000200201900120029001A9424801F01CF842
:100F1000FFF77AFD002221023E4801F047F9142034
:100F20000AF0B6FC012211023A4801F03FF93220E2
:100F30000AF0AEFC00208DF81800022206A9A120BC
:100F400000F078F89DF81800302803D19DF81900BA
:100F5000032807D09DF81900012803D09DF8190037
:100F6000022824D19DF819009DF8182000EB0221D9
:100F700029A0FFF783FA012206A9002000F036FA23
:100F8000012206A9A42000F031FA16208DF81800DD
:100F9000012206A9802000F029FA0C208DF8180003
:100FA000012206A9882000F021FA00242BE0042267
:100FB00006A948F2401000F0F7FA00208DF81C0056
:100FC00006A918A0FFF75AFA1948069901600220ED
:100FD0008DF81800012206A948F2400000F0BCFC80
:100FE000012206A948F2470000F0DEFA0A200AF0C2
:100FF0004FFC00208DF81800012206A948F240009D
:1010000000F0AAFC0024204608B010BDE0440258BD
:10101000001C0258002002584354502049443A25ED
:10102000780D0A004354502049443A25730D0A00B4
:10103000300000242DE9F04106460F461546FFF723
:1010400093FD7020FFF760FDFFF7CAFDF0B2FFF7D8
:101050005BFDFFF7C5FDFFF787FD7120FFF754FD2E
:10106000FFF7BEFD00240BE0691EA14201D0012163
:1010700000E000210846FFF71BFD3855601CC4B294
:10108000AC42F1DBFFF790FDBDE8F08131B582B0F5
:10109000002000900025CD480078401CCB49087006
:1010A000084600780A2190FBF1F201FB120018B10A
:1010B000C64800780A287DDAC5A1C648FFF7E2FADB
:1010C000D8B9012202A948F24E1000F06DFA9DF83D
:1010D000080000F08000A8B19DF8080000F00F00A3
:1010E000BD49097888420DDC002000900122694644
:1010F00048F24E1000F030FC04E0012202A9022068
:10110000FFF798FF9DF8080000F00F00002851D06D
:101110009DF8080000F00F00AF490978884249DCCB
:101120009DF8080000F00F01FF208840C4B2E043A2
:1011300080B240F0C000A949888608468289A64846
:101140000078401E0C3121F81020A448028CA248DF
:101150000078401E143121F8102004200AF098FB7A
:1011600000200090AAE09D48808E9DF8002001217B
:101170009140084000282FD095A19648FFF782FAA9
:10118000E8BB97499DF8002031F81200042201A91C
:1011900000F00AFA914890F8440000F00100E0B134
:1011A0009DF804009DF8051000EB012081B28B48EA
:1011B0000C3000E0C0E09DF8002020F812109DF8EF
:1011C00006009DF8071000EB012081B28348203013
:1011D0009DF8002020F812106BE09DF804009DF8A7
:1011E000051000EB012081B27C4820309DF80020E2
:1011F00020F812109DF806009DF8071000E00CE0A2
:1012000000EB012077490988081A81B273480C3035
:101210009DF8002020F812104BE073499DF8002043
:1012200031F81200042201A9FFF704FF6B4890F87F
:10123000440000F00100E0B19DF805009DF80410A5
:1012400001F00F0100EB0120644920319DF80020DE
:1012500021F812009DF807009DF8061001F00F011B
:1012600000EB01205D490C319DF8002021F81200AF
:101270001FE09DF805009DF8041001F00F0100EB40
:10128000012058490988081A81B254480C309DF849
:10129000002020F812109DF807009DF8061001F0BC
:1012A0000F0100EB01204D4920319DF8002021F86D
:1012B00012009DF80000401CC0B200909DF8000094
:1012C000454909788842FFF64EAF01254348808999
:1012D00044490988884205DC4048008C41494988D6
:1012E000884226DD9DF8080000F00F0001280ADD85
:1012F0003A48C089394988810846408C08840020D2
:101300003249087018E034480078401E33490C31E7
:1013100031F810000C3988812F480078401E2031A8
:1013200031F8100020390884802002900846868613
:1013300002E000202549087025A12648FFF7A2F900
:10134000F0B99DF8080000F08F00802835D12348BF
:1013500090F8340000F0800030B12048808E20F0FA
:1013600080001E49888628E04FF6FF701B4988815F
:101370000884084690F8340000F0E00088861CE0FD
:101380009DF8080000F01F00B8B9144890F8340028
:1013900000F0800030B11148808E20F080000F49AD
:1013A00088860AE04FF6FF700C4988810884084659
:1013B00090F8340000F0E000888604480078F028B7
:1013C00002DD0A200149087028463EBD360000248F
:1013D0003931310030000024350000243C00002465
:1013E000580501081C0200244E0501082DE9F041B2
:1013F00005460E4617464FF00008FFF7B5FB702074
:10140000FFF782FBFFF7ECFBE8B2FFF77DFBFFF78E
:10141000E7FB00240BE0305DFFF776FBFFF7E0FB16
:101420008046B8F1000F00D003E0601CC4B2BC429B
:10143000F1DB00BFFFF7B8FB4046BDE8F0810000DC
:1014400000B589B000BF4A48006840F080004849B4
:1014500008600846006800F08000019000BF00BFEF
:1014600000BF0846006840F48070086008460068C5
:1014700000F48070019000BF00BF80200290002027
:101480000390012004900320059002A9394800F040
:101490005BFD4FF4807002900120039002A9364852
:1014A00000F052FDFFF7B0FA00224FF4807132488D
:1014B00000F07CFE0A200AF0EBF9012211022E480E
:1014C00000F074FE0A200AF0E3F980200290002068
:1014D000039004900320059002A9264800F034FDF3
:1014E00064200AF0D5F9042207A948F2401000F060
:1014F0005BF800208DF8200007A920A0FEF7BEFFB2
:1015000021A107A8FFF7BEF878BB02208DF81C00C8
:10151000012207A948F2400000F01EFA012207A9A3
:1015200048F2470000F040F89DF81C0060280DDAF2
:101530009DF81C1016A0FEF7A1FF1A48808845F2FE
:101540001051884202D1012000F0D8F90A200AF097
:101550009FF900208DF81C00012207A948F24000E5
:1015600000F0FAF9002009B000BDFFE70020FAE71B
:10157000E0440258001C02580020025843545020F6
:1015800049443A25730D0A00393134370000000010
:1015900044656661756C74205665723A25640D0A5F
:1015A000000000001C0200242DE9F04105460F4612
:1015B0001646FFF7D9FA2820FFF7A6FAFFF710FB27
:1015C0002812FFF7A1FAFFF70BFBE8B2FFF79CFA2E
:1015D000FFF706FBFFF7C8FA2920FFF795FAFFF798
:1015E000FFFA00240BE0711EA14201D0012100E0AE
:1015F00000210846FFF75CFA3855601CC4B2B442BB
:10160000F1DBFFF7D1FABDE8F081000071B583B0DE
:1016100000240026B5480078401CB44908700846EC
:1016200000780A2190FBF1F201FB120018B1AF48DB
:1016300000780A2871DA012203A948F24E10FFF758
:10164000B3FF9DF80C0000F0800068B19DF80C001D
:1016500000F00F00062807DA00200190012201A9FE
:1016600048F24E1000F078F99DF80C0000F00F00E1
:10167000002852D09DF80C0000F00F000628D9DA9F
:101680009DF80C0000F00F01FF208840C0B20190CF
:10169000974890F834509DF80400C04380B240F061
:1016A000C00093498886084681898182018C018522
:1016B0000024C3E08E48808E0121A140084000280C
:1016C0002AD08C4931F81400042202A9FFF76CFFDC
:1016D0008948808845F21051884236D1844890F874
:1016E000440000F00100C8B19DF808009DF8091001
:1016F00000EB012081B27E48203020F814109DF8C4
:101700000A009DF80B1000EB0120C0F5487081B273
:1017100077480C3020F814108EE0BFE09DF80800E8
:101720009DF8091000EB012081B271480C3020F8BF
:1017300014109DF80A009DF80B1000EB012081B2F7
:101740006B48203020F8141076E06B48808844F213
:101750004231884235D1664890F8440000F00100DB
:10176000B0B19DF808009DF8091000EB012081B28E
:101770005F480C3020F814109DF80A009DF80B10FB
:1017800000EB012081B25A48203020F8141053E0B9
:101790009DF808009DF8091000EB012081B2544823
:1017A000203020F814109DF80A009DF80B1000EB73
:1017B0000120C0F5887081B24D480C3020F814101B
:1017C0003AE04D48808844F28431884234D1484818
:1017D00090F8440000F00100B0B19DF808009DF8B9
:1017E000091000EB012081B241480C3020F81410A0
:1017F0009DF80A009DF80B1000EB012081B23C48D7
:10180000203020F8141017E09DF808009DF809100A
:1018100000EB012081B23648203020F814109DF8EA
:101820000A009DF80B1000EB0120C0F5F07081B2AA
:101830002F480C3020F81410601CC4B2052CFFF6A1
:1018400039AF01262A4880892B490988884205DC5E
:101850002748008C2849498888421CDD9DF80C00E7
:1018600000F00F0001280ADD2148C0892049888145
:101870000846408C088400201C4908700EE01C4873
:10188000808A1B4988810846008D08848020039047
:101890000846858602E00020144908709DF80C0077
:1018A00000F08F00802817D1114890F8340000F024
:1018B000800030B10E48808E20F080000C49888670
:1018C0000AE04FF6FF700A4988810884084690F8BC
:1018D000340000F0E000888604480078F02802DD3B
:1018E0000A2002490870304604B070BD3700002459
:1018F0003C0000244A0601081C02002438B50546B5
:10190000002400208DF800008DF8015000BF09E090
:101910009DF800000F49095D0844C0B28DF8000031
:10192000601CC4B2B82CF3D39DF80000C043401C27
:10193000C0B28DF80000B822064948F2470000F016
:101940000BF80222694648F2FF0000F005F800207B
:1019500038BD0000920501082DE9F04104460E460D
:1019600017464FF00008FFF7FFF82820FFF7CCF8E4
:10197000FFF736F92012FFF7C7F8FFF731F9E0B2A9
:10198000FFF7C2F8FFF72CF900250BE0705DFFF7B9
:10199000BBF8FFF725F98046B8F1000F00D003E04F
:1019A000681CC5B2BD42F1DB00BFFFF7FDF8404641
:1019B000BDE8F08100B589B000BF4748006840F03D
:1019C0008000454908600846006800F080000190EA
:1019D00000BF00BF00BF0846006840F48070086088
:1019E0000846006800F48070019000BF00BF8020AE
:1019F000029000200390012004900320059002A98A
:101A0000364800F0A1FA4FF4807002900120039054
:101A100002A9334800F098FAFEF7F6FF00224FF4CF
:101A200080712F4800F0C2FB0A2009F031FF01222B
:101A300011022B4800F0BAFB0A2009F029FF802090
:101A400002900020039004900320059002A92348EF
:101A500000F07AFA642009F01BFF042207A948F27B
:101A6000401000F055F800208DF8200007A91DA0B7
:101A7000FEF704FD1FA107A8FEF704FE48BB0220E5
:101A80008DF81C00012207A948F24000FFF764FF0F
:101A9000012207A948F24700FFF786FD9DF81C00C8
:101AA000412807DA9DF81C1014A0FEF7E7FC01207E
:101AB00000F068F90A2009F0EBFE00208DF81C0008
:101AC000012207A948F24000FFF746FF002009B0B5
:101AD00000BD0120FBE70000E0440258001C025852
:101AE000002002584354502049443A25730D0A0DF2
:101AF0000A00000039323731000000004465666199
:101B0000756C74205665723A25640D0A0000000059
:101B10002DE9F04105460F461646FFF725F8282027
:101B2000FEF7F2FFFFF75CF82812FEF7EDFFFFF774
:101B300057F8E8B2FEF7E8FFFFF752F8FFF714F89E
:101B40002920FEF7E1FFFFF74BF800240BE0711EA0
:101B5000A14201D0012100E000210846FEF7A8FFC4
:101B60003855601CC4B2B442F1DBFFF71DF8BDE884
:101B7000F081000071B583B00020019000267D48FF
:101B80000078401C7B490870084600780A2190FBC9
:101B9000F1F201FB120018B1764800780A286EDADB
:101BA000012203A948F24E10FFF7B2FF9DF80C0086
:101BB00000F0800068B19DF80C0000F00F000B28C9
:101BC00007DA00200190012201A948F24E1000F02E
:101BD00007F99DF80C0000F00F0000284FD09DF889
:101BE0000C0000F00F000B28D9DA9DF80C0000F073
:101BF0000F014FF6FF70884084B25F48858EE04346
:101C000080B240F0C0005C49888608468189C18363
:101C1000018C41860020019053E05748808E9DF84A
:101C2000042001219140084040B354499DF804200C
:101C300031F81200062202A9FFF76AFF4E4890F819
:101C4000440000F00100D8B19DF80A009DF80B1087
:101C500000EB012081B2484820309DF8042020F894
:101C600012109DF808009DF8091000EB012081B2C8
:101C700041480C309DF8042020F812101CE051E07F
:101C80009DF80A009DF80B1000EB0120C0F548708C
:101C900081B239480C309DF8042020F812109DF8CC
:101CA00008009DF8091000EB012081B23248203075
:101CB0009DF8042020F812109DF80400401CC0B2CA
:101CC00001909DF804000A28A7DB01262A48808994
:101CD0002B490988884205DC2748008C2849498817
:101CE00088421CDD9DF80C0000F00F0001280ADD81
:101CF0002148C089204988810846408C08840020FA
:101D00001C4908700EE01C48C08B1B49888108469E
:101D1000408E0884802003900846858602E00020DB
:101D2000144908709DF80C0000F08F00802816D12F
:101D3000114890F8340000F0800030B10E48808ED9
:101D400020F080000C49888609E04FF6FF700A49B0
:101D5000888108840846808E00F4604088860548A3
:101D60000078F02802DD0A2002490870304604B0ED
:101D700070BD0000860000243C000024AE0701086E
:101D80001C02002438B50546002400208DF8000010
:101D90008DF8015000BF09E09DF800000F49095D72
:101DA0000844C0B28DF80000601CC4B2B82CF3D354
:101DB0009DF80000C043401CC0B28DF80000BA225C
:101DC000064948F2470000F00BF80222694648F243
:101DD000FF0000F005F8002038BD0000F4060108FF
:101DE0002DE9F04104460E4617464FF00008FEF775
:101DF000BBFE2820FEF788FEFEF7F2FE2012FEF75B
:101E000083FEFEF7EDFEE0B2FEF77EFEFEF7E8FE93
:101E100000250BE0705DFEF777FEFEF7E1FE8046E1
:101E2000B8F1000F00D003E0681CC5B2BD42F1DB81
:101E300000BFFEF7B9FE4046BDE8F08110B504468C
:101E40000CB9012010BD94F83500022803D0802081
:101E500060650120F6E734492068884205D333499C
:101E60002068884201D8012000E00020C0B1042091
:101E700084F835002C49206888420AD32B49206811
:101E8000884206D82068006820F0010021680860B8
:101E900048E02068006820F001002168086041E007
:101EA0002068006820F00E00216808601E49206844
:101EB00088420AD31D492068884206D820680068F5
:101EC00020F001002168086005E02068006820F02B
:101ED000010021680860206E006820F48070216E87
:101EE000086094F85C100120884011490860D4E92A
:101EF00019104860E06E40B1E06E006820F4807018
:101F0000E16E0860D4E91C10486000BF002084F82E
:101F1000340000BF012084F83500206D10B1204648
:101F2000216D884700208DE710000240B804024070
:101F3000045402580348006840F001000149086059
:101F40007047000020040058F8B502460B460021F7
:101F5000002600240020824D00BFFCE0012707FA84
:101F600001F61F6807EA0604B4427CD15F68022FBD
:101F700002D05F68122F1AD14FEAD10C02F120076C
:101F800057F82C004F074FEAD76C0F2707FA0CF7CA
:101F9000B8434FEA417C4FEADC6C1F6907FA0CF743
:101FA00038434FEAD10C02F1200747F82C001068A3
:101FB0004FEA410C032707FA0CF7B8431F7907F0E3
:101FC00003074FEA410C07FA0CF7384310605F68CB
:101FD000012F08D05F68022F05D05F68112F02D053
:101FE0005F68122F17D190684FEA410C032707FA58
:101FF0000CF7B8434FEA410CDF6807FA0CF7384397
:102000009060506801278F40B8431F79C7F30017CD
:102010008F4038435060D0684FEA410C032707FADD
:102020000CF7B8434FEA410C9F6807FA0CF73843A6
:10203000D0605F6807F08057B7F1805F95D100BF2F
:10204000484F3F6847F00207DFF818C1CCF800702E
:1020500067463F6807F00207009700BF00BF424F86
:102060004FEA910C00E075E057F82C008F074FEA1B
:10207000177C0F2707FA0CF7B8433C4FBA4201D13F
:1020800000272DE03A4FBA4201D1012728E0394F0D
:10209000BA4201D1022723E0374FBA4201D10327C8
:1020A0001EE0364FBA4201D1042719E0344FBA423C
:1020B00001D1052714E0334FBA4201D106270FE0C2
:1020C000314FBA4201D107270AE0304FBA4201D15D
:1020D000082705E02E4FBA4201D1092700E00A2760
:1020E0004FEA817C4FEA1C7C07FA0CF738431E4FFD
:1020F0004FEA910C47F82C002868A0435F6807F46A
:102100008037B7F5803F00D1204328606868A0433E
:102110005F6807F40037B7F5003F00D120436860DF
:102120004FF0B0473868A0435F6807F48017B7F5F1
:10213000801F00D120434FF0B04738607868A0433B
:102140005F6807F40017B7F5001F00D120434FF078
:10215000B0477860491C1029FFF400AFF8BD0000BB
:1021600080000058F4440258080400580000025847
:102170000004025800080258000C025800100258CF
:102180000014025800180258001C0258002002587F
:1021900000240258024613690B400BB1012000E0F5
:1021A0000020704742694A40426170470AB101838A
:1021B00000E041837047000001480068704700005C
:1021C00014000024034800680349097808440149C1
:1021D00008607047140000241C00002410B5032080
:1021E00000F098FA0F2000F007F808B1012010BDA8
:1021F00000F042FA0020FAE770B504460E48007875
:102200004FF47A71B1FBF0F00C490968B1FBF0F5BD
:10221000284602F039FA08B1012070BD102C07D20F
:1022200000222146501E00F038FA0548046001E003
:102230000120F2E70020F0E71C0000240000002449
:102240001800002470B504460E46154600BF94F8E9
:10225000A000012801D1022070BD012084F8A00057
:1022600000BF022084F8A10005EB850101EBC50247
:1022700004F1380101EB820034223146FEF7D0F937
:102280002A463146204606F0F1FB012021684862CB
:1022900084F8A10000BF002084F8A00000BF00BFA8
:1022A000DAE7000070B50446002500260CB90120CD
:1022B00070BD94F8A10028B9002084F8A000204641
:1022C00000F07EF8022084F8A1002068806920F0E8
:1022D000704021688861D4E901010843E16808433E
:1022E0002169084321688969084321688861206859
:1022F00080683249084021688860A08A0504206807
:102300008068A16929430843216888602068C06803
:102310002A4908402168C860A08B05042068C0686D
:10232000216A294308432168C8602068006923495D
:10233000084021680861A08C050420680069A16A32
:102340002943084321680861206840691B49084007
:1023500021684861A08D050420684069216B2943EC
:1023600008432168486194F83500050294F8360066
:1023700006042068C06A00F07F402168C86246EA0F
:10238000050094F8341008432168C96A084321689D
:10239000C8622068406B40F00600216848632068EE
:1023A000806940F00100216888610020C4F8A40021
:1023B000012084F8A10000207AE7000000F800F076
:1023C00010B586B0044600BF3E48006840F00800E3
:1023D0003C4908600846006800F00800009000BF13
:1023E00000BF00BF37481038006840F01000354982
:1023F000103908600846006800F01000009000BF27
:1024000000BF00BF2F48001F006840F002002D49A8
:10241000091F08600846006800F00200009000BF35
:1024200000BF00BF0846006840F48070086008469E
:10243000006800F48070009000BF00BF00BF084635
:10244000006840F4007008600846006800F40070FE
:10245000009000BF00BF00BF0846006840F48060E5
:1024600008600846006800F48060009000BF00BF6C
:10247000202001900120029003900320049001A9E4
:102480001148FFF761FD4FF4E040019002200290F7
:1024900000200390032004900E20059001A90B4812
:1024A000FFF752FD48F67C60019001A90848FFF74C
:1024B0004BFDFF20019001A90648FFF745FD06B03E
:1024C00010BD0000E44402580004025800200258E5
:1024D00000240258002802582DE9F04104460E4617
:1024E0001746984600BF94F8A000012802D10220A8
:1024F000BDE8F081012084F8A00000BF022084F82C
:10250000A10008EB880000EBC80104F1380000EBE3
:1025100081052E60A86A30446860AF60E86A38447C
:10252000E86042462946204606F0A0FA01202168CC
:10253000486284F8A10000BF002084F8A00000BF1A
:1025400000BFD5E72DE9F04104460E4617469846F0
:1025500000BF94F8A000012802D10220BDE8F0815C
:10256000012084F8A00000BF022084F8A10008EB3D
:10257000880000EBC80104F1380000EB81052868F1
:1025800030446860A8683844E860AE62EF62424652
:102590002946204606F06AFA01202168486284F83C
:1025A000A10000BF002084F8A00000BF00BFD5E755
:1025B0004178154A11600178F9B1121D4168116026
:1025C000017B0907C27A41EA0261827A41EAC2418B
:1025D000427B41EA8241827B41EA4241C27B41EA3D
:1025E0000241427A41EA0221027A41EA420102783A
:1025F0001143054A0832116005E00021024A121D0C
:102600001160121D1160704798ED00E000BF00BF1F
:1026100000BFBFF35F8F00BF00BF00BF0548006869
:1026200020F48030034908600020024970310860BE
:102630007047000024ED00E040F001010D4A1160F8
:102640000C497039096841F480310A4A703A1160C6
:1026500000BF00BF00BFBFF34F8F00BF00BF00BF70
:1026600000BF00BF00BFBFF36F8F00BF00BF00BF40
:102670007047000094ED00E07047014608460028CE
:1026800009DB00F01F0301229A4043099B0003F17C
:10269000E023C3F8002100BF70472DE9F05F8046BA
:1026A0000D46164609F002F8074639462A463346D3
:1026B00001F00700C0F1070ABAF1040F02D94FF088
:1026C000040A01E0C0F1070AD14600F1040ABAF198
:1026D000070F02D24FF0000A01E0A0F1030AD4462E
:1026E0004FF0010A0AFA09FAAAF1010A0AEA020AF3
:1026F0000AFA0CFA4FF0010B0BFA0CFBABF1010BD1
:102700000BEA030B4AEA0B042146404608F0D6FFC9
:10271000BDE8F09F00BF00F00702064B19684FF6B6
:10272000FF031940044B0B4343EA0221014B19609C
:1027300000BF70470CED00E00000FA0510B501F095
:1027400067F90949096801F470614FF4807292FADF
:10275000A2F2B2FA82F2D140044A515CC840044964
:1027600008600846006810BD184402586EBD000895
:102770000000002410B501F003F90749096801F0D1
:102780007001102292FAA2F2B2FA82F2D140034A08
:10279000515CC84010BD0000204402586EBD0008C6
:1027A00070B5014600220120002300249FED811A0C
:1027B000B0EE410A9FED7F1AF0EE410A7E4D2D6882
:1027C00005F003027C4D2D68C5F305307A4D2D1DB3
:1027D0002D6805F01003784D14352D68C5F3CC0530
:1027E00015FB03F501EE105AB8EE411AB0EE410A9E
:1027F00022B1012A4DD0022A7DD169E06E4D283DDB
:102800002D68C5F340152DB36B4D283D2D68C5F3DC
:10281000C1066A4D25FA06F4B4FBF0F501EE105A34
:10282000F8EE411A9FED661A80EE012A624D1035CE
:102830002D68C5F3080501EE105AB8EE411A32EEC4
:10284000011AB7EE002A31EE021A21EE811AF0EEDB
:10285000410A1DE0594DB5FBF0F501EE105AF8EEB6
:10286000411A9FED571A80EE012A534D10352D68FD
:10287000C5F3080501EE105AB8EE411A32EE011AFE
:10288000B7EE002A31EE021A21EE811AF0EE410A6B
:102890005EE04C4DB5FBF0F501EE105AB8EE412A62
:1028A0009FED471AC0EE011A434D10352D68C5F350
:1028B000080501EE105AB8EE411A31EE811AF7EE12
:1028C000001A31EE211A22EE011AF0EE410A3FE021
:1028D0003D4DB5FBF0F501EE105AF8EE411A9FEDB3
:1028E000381A80EE012A344D10352D68C5F30805DD
:1028F00001EE105A00E00CE0B8EE411A32EE011A77
:10290000B7EE002A31EE021A21EE811AF0EE410AEA
:102910001EE02C4DB5FBF0F501EE105AB8EE412A41
:102920009FED271AC0EE011A234D10352D68C5F30F
:10293000080501EE105AB8EE411A31EE811AF7EE91
:10294000001A31EE211A22EE011AF0EE410A00BF00
:1029500000BF194D10352D68C5F346256D1C01EEDD
:10296000105AB8EE411AC0EE811ABCEEE11A81EDA0
:10297000001A114D10352D68C5F306456D1C01EE8A
:10298000105AB8EE411AC0EE811ABCEEE11A81ED80
:10299000011A094D10352D68C5F306656D1C01EE51
:1029A000105AB8EE411AC0EE811ABCEEE11A81ED60
:1029B000021A70BD00000000284402580090D003A5
:1029C0000000004600093D0040787D0170B50146D9
:1029D00000220120002300249FED811AB0EE410A5D
:1029E0009FED7F1AF0EE410A7E4D2D6805F003023F
:1029F0007C4D2D68C5F305507A4D2D1D2D6805F4CD
:102A00008073784D1C352D68C5F3CC0515FB03F597
:102A100001EE105AB8EE411AB0EE410A22B1012A75
:102A20004DD0022A7DD169E06E4D283D2D68C5F359
:102A300040152DB36B4D283D2D68C5F3C1066A4D79
:102A400025FA06F4B4FBF0F501EE105AF8EE411A3F
:102A50009FED661A80EE012A624D18352D68C5F388
:102A6000080501EE105AB8EE411A32EE011AB7EE1F
:102A7000002A31EE021A21EE811AF0EE410A1DE021
:102A8000594DB5FBF0F501EE105AF8EE411A9FEDE5
:102A9000571A80EE012A534D18352D68C5F30805E5
:102AA00001EE105AB8EE411A32EE011AB7EE002AC2
:102AB00031EE021A21EE811AF0EE410A5EE04C4D31
:102AC000B5FBF0F501EE105AB8EE412A9FED471A1A
:102AD000C0EE011A434D18352D68C5F3080501EE07
:102AE000105AB8EE411A31EE811AF7EE001A31EEA3
:102AF000211A22EE011AF0EE410A3FE03D4DB5FBEE
:102B0000F0F501EE105AF8EE411A9FED381A80EEFA
:102B1000012A344D18352D68C5F3080501EE105A09
:102B200000E00CE0B8EE411A32EE011AB7EE002ACE
:102B300031EE021A21EE811AF0EE410A1EE02C4D10
:102B4000B5FBF0F501EE105AB8EE412A9FED271AB9
:102B5000C0EE011A234D18352D68C5F3080501EEA6
:102B6000105AB8EE411A31EE811AF7EE001A31EE22
:102B7000211A22EE011AF0EE410A00BF00BF194DE2
:102B800018352D68C5F346256D1C01EE105AB8EEB8
:102B9000411AC0EE811ABCEEE11A81ED001A114D06
:102BA00018352D68C5F306456D1C01EE105AB8EEB8
:102BB000411AC0EE811ABCEEE11A81ED011A094DED
:102BC00018352D68C5F306656D1C01EE105AB8EE78
:102BD000411AC0EE811ABCEEE11A81ED021A70BDF5
:102BE00000000000284402580090D0030000004676
:102BF00000093D0040787D012DE9F04104460025A3
:102C00000026206800F00060B0F1006F30D1606EE7
:102C100048B1B0F5801F0DD0B0F5001F10D0B0F551
:102C2000401F15D113E0F948006840F40030F7491F
:102C300008600FE00221201D06F004FC054609E0B3
:102C4000022104F1240006F095FC054602E001E0B3
:102C5000012500BF00BF55B9EC482430006820F4BE
:102C60004010616E0843E9492431086000E02E43BA
:102C7000208800F48070B0F5807F2DD1606D05282C
:102C80001AD2DFE800F0030A10171800DF480068C6
:102C900040F40030DD49086010E00021201D06F0FE
:102CA000D1FB05460AE0002104F1240006F062FC95
:102CB000054603E002E001E0012500BF00BF55B971
:102CC000D2482430006820F00700616D0843CF49E6
:102CD0002431086000E02E43208800F40070B0F535
:102CE000007F33D1A06D802817D003DC40B140288D
:102CF0001CD10CE0C02817D0B0F5807F16D114E0AD
:102D0000C248006840F40030C049086010E000216B
:102D1000201D06F097FB05460AE0002104F124007F
:102D200006F028FC054603E002E001E0012500BFB3
:102D300000BF55B9B5482430006820F4E070A16D9B
:102D40000843B2492431086000E02E43208800F493
:102D50008060B0F5806F38D1D4F8A400B0F5800F52
:102D600019D004DC50B1B0F5001F1DD10DE0B0F555
:102D7000C00F17D0B0F5000F16D114E0A3480068BB
:102D800040F40030A149086010E00021201D06F049
:102D900059FB05460AE0002104F1240006F0EAFB95
:102DA000054603E002E001E0012500BF00BF5DB978
:102DB00096482C30006820F46000D4F8A410084332
:102DC00092492C31086000E02E43208800F4006016
:102DD000B0F5006F38D1D4F8A800B0F1007F19D059
:102DE00004DC50B1B0F1807F1DD10DE0B0F1407F27
:102DF00017D0B0F1806F16D114E08448006840F419
:102E000000308249086010E00021201D06F01AFB06
:102E100005460AE0002104F1240006F0ABFB05465C
:102E200003E002E001E0012500BF00BF5DB9774883
:102E30002C30006820F0E060D4F8A81008437349F3
:102E40002C31086000E02E43206800F00070B0F1E3
:102E5000007F27D1A06CA0B1102804D0202809D071
:102E600030280FD10CE06948006840F40030674911
:102E7000086009E00221201D06F0E4FA054603E09F
:102E800002E001E0012500BF00BF55B95F482030D6
:102E9000006820F03000A16C08435C4920310860D4
:102EA00000E02E43208800F48050B0F5805F36D1DA
:102EB000E06DB0F5005F19D004DC50B1B0F5805F73
:102EC0001DD10DE0B0F5405F17D0B0F5804F16D1A1
:102ED00014E04E48006840F400304C49086010E0AF
:102EE0000021201D06F0AEFA05460AE0002104F19B
:102EF000240006F03FFB054603E002E001E0012567
:102F000000BF00BF55B941482430006820F4E040BC
:102F1000E16D08433D492431086000E02E432088DC
:102F200000F40050B0F5005F34D1206EB0F5403FA2
:102F30001DD007DC68B1B0F5803F0BD0B0F5003F85
:102F400018D10DE0B0F5802F12D0B0F5A02F11D11F
:102F50000FE011E00121201D06F074FA05460BE098
:102F6000012104F1240006F005FB054604E003E01E
:102F700002E001E0012500BF00BF55B9234824301D
:102F8000006820F4E020216E0843204924310860C5
:102F900000E02E43208800F48040B0F5804F38D107
:102FA000D4F8AC00B0F1405F1DD007DC68B1B0F1DF
:102FB000805F0BD0B0F1005F18D10DE0B0F1804F11
:102FC00012D0B0F1A04F11D10FE011E00121201D6E
:102FD00006F038FA05460BE0012104F1240006F062
:102FE000C9FA054604E003E002E001E0012500BF64
:102FF00000BF6DB905482C30006820F0E040D4F8DF
:10300000AC10084301492C31086002E02C440258FE
:103010002E43208800F40040B0F5004F26D1E06E2A
:1030200098B1B0F1805F03D0B0F1005F0ED106E03F
:10303000FA48006840F40030F849086008E00121CF
:10304000201D06F0FFF9054602E001E0012500BF62
:1030500000BF55B9F1482430006820F04050E16EBF
:103060000843EE492431086000E02E43206800F058
:103070008070B0F1807F27D1606CA0B1012804D0AE
:10308000022809D003280FD10CE0E448006840F47E
:103090000030E249086009E00221201D06F0D2F963
:1030A000054603E002E001E0012500BF00BF55B97D
:1030B000DA482030006820F00300616C0843D749EB
:1030C0002031086000E02E43206800F48000B0F555
:1030D000800F7DD1D248006840F48070D0490860EC
:1030E000FFF76AF8074606E0FFF766F8C01B64289A
:1030F00001D9032505E0CA48006800F48070002863
:10310000F2D000BF8DBBC5484430006800F4407069
:10311000B4F8B01001F44071884214D0BF48443074
:10312000006820F44078BD484430006840F48030A6
:10313000BA49443108600846006820F480300860CD
:103140000846C0F80080D4F8B000B0F5807F15D1F3
:10315000FFF732F8074609E0FFF72EF8C01B41F2EF
:103160008831884202D9032507E038E0AB48443073
:103170000068C0F340000028EED000BF4DBB00BF88
:10318000B4F8B00000F44070B0F5407F0ED1A34811
:103190001C38006820F47C51A24AD4F8B0001040DA
:1031A00041EA10109D491C39086007E09B481C3813
:1031B000006820F47C5099491C39086097484430D5
:1031C0000068B4F8B010C1F30B010843934901E063
:1031D00006E002E04431086002E02E4300E02E43A6
:1031E000207800F0010068B3A06F182819D005DC22
:1031F00048B1082808D0102816D10BE0202811D09B
:10320000282811D10FE011E00121201D06F01AF944
:1032100005460BE0012104F1240006F0ABF9054658
:1032200004E003E002E001E0012500BF00BF55B962
:103230007A482830006820F03800A16F08437749A9
:103240002831086000E02E43207800F002000228B8
:1032500028D1606F062815D2DFE800F003040A11B8
:10326000121311E00121201D06F0ECF805460BE0D9
:10327000012104F1240006F07DF9054604E003E095
:1032800002E001E0012500BF00BF55B963482830C6
:10329000006820F00700616F08436049283108602A
:1032A00000E02E43207800F0040004282AD1D4F84E
:1032B0009000062815D2DFE800F003040A1112136B
:1032C00011E00121201D06F0BDF805460BE00121AB
:1032D00004F1240006F04EF9054604E003E002E0A4
:1032E00001E0012500BF00BF5DB94C482C300068EB
:1032F00020F00700D4F89010084348492C310860AA
:1033000000E02E43207800F02000202836D1D4F8A9
:103310008C00B0F1405F1DD007DC68B1B0F1805F78
:103320000BD0B0F1005F18D10DE0B0F1804F12D09A
:10333000B0F1A04F11D10FE011E00021201D06F0E7
:1033400081F805460BE0022104F1240006F012F991
:10335000054604E003E002E001E0012500BF00BFF4
:103360005DB92E482830006820F0E040D4F88C1079
:1033700008432A492831086000E02E43207800F0F5
:103380004000402836D1D4F89800B0F5406F1DD0E9
:1033900007DC68B1B0F5806F0BD0B0F5006F18D1C5
:1033A0000DE0B0F5805F12D0B0F5A05F11D10FE055
:1033B00011E00021201D06F045F805460BE0022132
:1033C00004F1240006F0D6F8054604E003E002E02C
:1033D00001E0012500BF00BF5DB910482C30006836
:1033E00020F4E050D4F8981008430C492C310860C0
:1033F00000E02E43207800F0800080283BD1D4F8F4
:103400009C00B0F5C04F24D00EDCA0B1B0F5005F39
:1034100012D0B0F5804F1FD114E000002C440258A8
:1034200000480258FFFCFF0FB0F5004F12D0B0F576
:10343000204F11D10FE011E00021201D06F002F80D
:1034400005460BE0022104F1240006F093F805463E
:1034500004E003E002E001E0012500BF00BF4DB938
:10346000B248006820F46040D4F89C100843AF498B
:10347000086000E02E43207800F00800082816D1EC
:10348000D4F88000B0F5805F06D1022104F1240059
:1034900006F070F806430AE0A448001F006820F414
:1034A0004050D4F880100843A049091F08602078D4
:1034B00000F01000102814D1D4F89400B0F5807FEB
:1034C00006D1022104F1240006F054F8064308E076
:1034D0009648006820F44070D4F89410084393494B
:1034E0000860206800F40020B0F5002F26D1D4F841
:1034F000A00030B1B0F5803F09D0B0F5003F0ED14B
:103500000CE00021201D05F09DFF054609E0022189
:1035100004F1240006F02EF8054602E001E0012542
:1035200000BF00BF4DB98148006820F44030D4F896
:10353000A01008437D49086000E02E43206800F495
:103540008020B0F5802F2DD1D4F88400B0F5801FF5
:1035500006D0B0F5001F0CD0B0F5401F11D10FE020
:1035600072482C38006840F4003070492C390860EB
:1035700009E0012104F1240005F0FCFF054602E00A
:1035800001E0012500BF00BF5DB96848001F006869
:1035900020F44010D4F8841008436449091F0860DF
:1035A00000E02E43206800F48030B0F5803F24D145
:1035B000E06C18B1B0F5803F0FD108E05B482C38C3
:1035C000006840F4003059492C39086007E00221B6
:1035D000201D05F037FF054601E0012500BF00BFB3
:1035E00055B952480C38006820F48030E16C08432B
:1035F0004E490C39086000E02E43206800F000506E
:10360000B0F1005F05D1022104F1240005F0B2FF02
:103610000643206800F40030B0F5003F27D1E06F8A
:10362000A0B1B0F5807F06D0B0F5007F0CD0B0F52A
:10363000407F0CD109E03D482C38006840F4003050
:103640003A492C39086004E003E002E001E001257A
:1036500000BF00BF55B93548001F006820F4407016
:10366000E16F08433149091F086000E02E432068DC
:1036700000F48010B0F5801F09D12C48083800688C
:1036800020F00040216F084328490839086020686D
:1036900000F08050B0F1805F0AD1244848380068BB
:1036A00020F48040D4F8B410084320494839086019
:1036B000206800F40010B0F5001F09D11B4808383D
:1036C000006820F08070A16E08431849083908602E
:1036D000206800F08040B0F1804F11D100BF134846
:1036E0004838006820F4004010494839086008460E
:1036F0000068D4F8B81008430C494839086000BF86
:10370000206800F00040B0F1004F09D107480C38A4
:10371000006820F04050216D084304490C390860CE
:1037200016B90020BDE8F0810120FBE7584402589B
:1037300070B504460D4600268D48006800F007006D
:10374000A8420ED28A48006820F007002843884922
:1037500008600846006800F00700A84201D0012078
:1037600070BD207800F00200022807D1814800686F
:1037700020F00F00E16808437E490860207800F0DF
:103780000100002851D07B48006820F47060A168D7
:103790000843784908606068022807D175481838DE
:1037A0000068C0F34040F8B90120D9E760680328F9
:1037B00007D1704818380068C0F34060A0B90120F4
:1037C000CEE76068012807D16A4818380068C0F35E
:1037D000002048B90120C3E7664818380068C0F3E4
:1037E000800008B90120BBE762480838006820F073
:1037F0000700616808435F4908390860FEF7DCFC90
:1038000006466068022811D108E0FEF7D5FC801B4F
:1038100041F28831884201D90320A1E75548083890
:10382000006800F038001028EFD13AE06068032803
:1038300011D108E0FEF7C0FC801B41F288318842BC
:1038400001D903208CE74B480838006800F03800A5
:103850001828EFD125E06068012811D108E0FEF7B3
:10386000ABFC801B41F28831884201D9032077E705
:1038700040480838006800F038000828EFD110E010
:1038800008E0FEF799FC801B41F28831884201D99B
:10389000032065E737480838006800F03800002842
:1038A000EFD13348006800F00700A8420ED9304835
:1038B000006820F0070028432D490860084600688A
:1038C00000F00700A84201D0012049E7207800F06D
:1038D0000400042807D12748006820F070002169FF
:1038E000084324490860207800F00800082809D11E
:1038F0002048001D006820F07000616908431D49E0
:10390000091D0860207800F01000102809D119481E
:10391000001D006820F4E060A16908431549091DF5
:103920000860207800F02000202809D111480830D4
:10393000006820F07000E16908430E490831086012
:1039400000F066F80B49096801F470614FF4807269
:1039500092FAA2F2B2FA82F2D140074A515CC84010
:10396000064908600F20FEF747FC0020F8E600003B
:1039700000200052184402586EBD000800000024C8
:1039800010B5FEF7DBFE0949096801F00F010122BD
:1039900092FAA2F2B2FA82F2D140054A515CC840D2
:1039A000044908600846006810BD00001844025829
:1039B0006EBD00080400002410B5FFF7E1FF0749C1
:1039C000096801F07001102292FAA2F2B2FA82F2B2
:1039D000D140034A515CC84010BD00001C4402584D
:1039E0006EBD000810B5FFF7CBFF0749096801F469
:1039F000E0614FF4807292FAA2F2B2FA82F2D14000
:103A0000024A515CC84010BD1C4402586EBD0008FB
:103A100070B5012500EE905A0022012100230024F8
:103A2000DFED861AB0EE610ADFED841AB0EE611A9E
:103A30000020834D2D6805F0380535B1082D15D0CF
:103A4000102D15D0182D7CD114E07D4D103D2D6822
:103A5000C5F3401545B17A4D103D2D68C5F3C1063B
:103A6000784D25FA06F000E07648E5E07648E3E098
:103A70007648E1E0724D18352D6805F00302704D6F
:103A800018352D68C5F305116D4D1C352D6805F0F1
:103A900001036B4D24352D68C5F3CC0515FB03F5EB
:103AA00001EE905AF8EE611AB0EE610A22B1012AD5
:103AB0004FD0022A7DD16BE0614D103D2D68C5F3DA
:103AC00040152DB35E4D103D2D68C5F3C1065D4D0B
:103AD00025FA06F4B4FBF1F501EE905AB8EE612A2E
:103AE000DFED5B1AC0EE212A554D20352D68C5F358
:103AF000080501EE905AF8EE611A72EEA11AF7EE7F
:103B0000002A71EEA21A62EE211AB0EE611A1FE0CD
:103B10004C4DB5FBF1F501EE905AB8EE612ADFEDA0
:103B20004C1AC0EE212A464D20352D68C5F30805F4
:103B300001EE905AF8EE611A72EEA11AF7EE002A21
:103B400000E077E071EEA21A62EE211AB0EE611A7F
:103B50005EE03D4DB5FBF1F501EE905AB8EE612AFD
:103B6000DFED3B1AC0EE212A354D20352D68C5F317
:103B7000080501EE905AF8EE611A72EEA11AF7EEFE
:103B8000002A71EEA21A62EE211AB0EE611A3FE02D
:103B90002E4DB5FBF1F501EE905AB8EE612ADFED3E
:103BA0002C1AC0EE212A264D20352D68C5F30805B4
:103BB00000E00EE001EE905AF8EE611A72EEA11AE2
:103BC000F7EE002A71EEA21A62EE211AB0EE611A27
:103BD0001EE01D4DB5FBF1F501EE905AF8EE612A9D
:103BE000DFED1B1A80EE212A154D20352D68C5F317
:103BF000080501EE905AF8EE611A72EE211AB7EE3E
:103C0000002A71EE821A62EEA11AB0EE611A00BFAC
:103C100000BF0B4D20352D68C5F346256D1C00EE09
:103C2000905AF8EE601A81EE212AFCEEC21A11EECB
:103C3000900A01E0044800BF00BF70BD0000000012
:103C4000104402580090D00300093D0040787D01E7
:103C50000000004670B504460025207800F0010001
:103C6000002872D0F948006800F0380010280CD005
:103C7000F648006800F03800182812D1F3481830D0
:103C8000006800F0030002280BD1F04810380068EB
:103C9000C0F3404000286DD0606800286AD1012040
:103CA00070BD00BF6068B0F5803F08D1E7481038AC
:103CB000006840F48030E549103908602EE0606803
:103CC00068B9E2481038006820F48030DF491039C4
:103CD00008600846006820F4802008601EE06068E4
:103CE000B0F5A02F0DD1D9481038006840F48020DD
:103CF000D649103908600846006840F480300860F2
:103D00000CE0D2481038006820F48030CF491039D8
:103D100008600846006820F48020086000BF6068E2
:103D2000A0B1FEF749FA054608E0FEF745FA401B48
:103D300041F28831884201D90320B1E7C3481038E5
:103D40000068C0F340400028EFD013E0FEF734FADB
:103D5000054608E0FEF730FA401B41F28831884200
:103D600001D903209CE7B94810380068C0F34040EF
:103D70000028EFD1207800F00200022847D1B34894
:103D8000006800F0380058B1B048006800F0380012
:103D900018283ED1AD481830006800F00300B8BBC9
:103DA000AA4810380068C0F3800018B1E06808B96C
:103DB000012075E7A5481038006820F01900E16877
:103DC0000843A24910390860FEF7F6F9054606E0F7
:103DD000FEF7F2F9401B022801D9032060E79B4857
:103DE00010380068C0F380000028F1D097480C38E4
:103DF000006820F47C304FF47C3292FAA2F2B2FADE
:103E000082F221699140084390490C3908604AE0E8
:103E1000FFE7E06868B38D481038006820F01900AB
:103E2000E1680843894910390860FEF7C5F905467D
:103E300006E0FEF7C1F9401B022801D903202FE755
:103E4000824810380068C0F380000028F1D07F4815
:103E50000C38006820F47C304FF47C3292FAA2F2E5
:103E6000B2FA82F221699140084378490C3908601E
:103E700019E076481038006820F0010073491039C5
:103E80000860FEF799F9054606E0FEF795F9401B34
:103E9000022801D9032003E76C4810380068C0F3FA
:103EA00080000028F1D1207800F01000102877D190
:103EB0006648006800F0380008280CD063480068A5
:103EC00000F03800182823D160481830006800F04E
:103ED000030001281CD15D4810380068C0F30020A1
:103EE00020B1E069802801D00120D9E657480C387C
:103EF000006820F0F8404FF0F84292FAA2F2B2FACD
:103F000082F2216A9140084350490C39086047E029
:103F1000E06958B34D481038006840F080004B49C4
:103F200010390860FEF748F9054606E0FEF744F947
:103F3000401B022801D90320B2E64448103800682B
:103F4000C0F300200028F1D040480C38006820F071
:103F5000F8404FF0F84292FAA2F2B2FA82F2216AE5
:103F60009140084339490C39086019E03748103846
:103F7000006820F08000354910390860FEF71CF910
:103F8000054606E0FEF718F9401B022801D9032078
:103F900086E62E4810380068C0F300200028F1D1D2
:103FA000207800F00800082836D16069D0B1274891
:103FB0006430006840F00100244964310860FEF775
:103FC000FBF8054606E0FEF7F7F8401B022801D98A
:103FD000032065E61D4864300068C0F340000028F7
:103FE000F1D019E019486430006820F00100174949
:103FF00064310860FEF7E0F8054606E0FEF7DCF8FD
:10400000401B022801D903204AE6104864300068AA
:10401000C0F340000028F1D1207800F020002028D3
:1040200034D1A069D8B109481038006840F48050F4
:10403000064910390860FEF7BFF8054608E0FEF7AC
:10404000BBF8401B022803D9032029E6104402587C
:10405000AF480068C0F340300028F0D016E0AC480C
:10406000006820F48050AA490860FEF7A5F80546CC
:1040700006E0FEF7A1F8401B022801D903200FE655
:10408000A3480068C0F340300028F2D1207800F047
:10409000040004287DD19F48006840F480709D4949
:1040A0000860FEF789F8054606E0FEF785F8401B34
:1040B000642801D90320F3E59648006800F4807075
:1040C0000028F2D000BFA068012808D190487030C5
:1040D000006840F001008E49703108602DE0A06852
:1040E00068B98B487030006820F001008849703151
:1040F00008600846006820F0040008601DE0A06821
:1041000005280DD182487030006840F004008049D5
:10411000703108600846006840F0010008600CE05B
:104120007B487030006820F00100794970310860E8
:104130000846006820F00400086000BFA068A0B135
:10414000FEF73AF8054608E0FEF736F8401B41F264
:104150008831884201D90320A2E56D48703000689B
:10416000C0F340000028EFD013E0FEF725F8054625
:1041700008E0FEF721F8401B41F28831884201D95E
:1041800003208DE5624870300068C0F340000028CD
:10419000EFD1606A00287CD05D481030006800F0E4
:1041A0003800182876D0606A022874D15848006810
:1041B00020F0807056490860FDF7FEFF054606E0D6
:1041C000FDF7FAFF401B022801D9032068E550489B
:1041D0000068C0F340600028F2D100BFD4E90A10A3
:1041E00041EA00104A492831096840F2F33291430C
:1041F0000843474928310860208E401EC0F308005C
:10420000616B491E4FF47E4202EA41210843218F2F
:10421000491ED20102EA014108433C21095D491EC1
:10422000120202EA0161084339493031086000BFD7
:10423000081D00684FF6F87188434FF6F87292FA3D
:10424000A2F2B2FA82F2A16C9140084330493431B3
:1042500008602F482C30006820F00C00216C0843C7
:104260002B492C3108600846006820F00200616C80
:10427000084327492C3108600846006840F4803024
:1042800008600846006840F400300860084600688E
:1042900002E03BE038E01FE040F480200860084680
:1042A000006840F0010008601948006840F0807024
:1042B00017490860FDF780FF054606E0FDF77CFF23
:1042C000401B022801D90320EAE411480068C0F32A
:1042D00040600028F2D019E00D48006820F080709E
:1042E0000B490860FDF768FF054606E0FDF764FF2F
:1042F000401B022801D90320D2E405480068C0F31E
:1043000040600028F2D101E00120C9E40020C7E4A8
:10431000004402580048025870B504460D460CB9D6
:10432000012070BD94F82C0028B9002084F82D00DD
:10433000204600F019F8022084F82C00211D206886
:10434000FCF711FD2946D4E90002FCF761FD0548A0
:10435000006840F0004003490860012084F82C0008
:104360000020DEE70040005210B586B0044600BFD2
:104370005A48006840F00200584908600846006842
:1043800000F00200009000BF00BF00BF534820387B
:10439000006840F4805051492039086008460068A0
:1043A00000F48050009000BF00BF00BF4B4814389D
:1043B000006840F004004949143908600846006864
:1043C00000F00400009000BF00BF00BF0846006876
:1043D00040F0080008600846006800F008000090FF
:1043E00000BF00BF00BF0846006840F01000086032
:1043F0000846006800F01000009000BF00BF00BF3A
:104400000846006840F0200008600846006800F098
:104410002000009000BF00BF00BF0846006840F0C9
:10442000400008600846006800F04000009000BFAF
:1044300000BF00BF0846006840F0800008600846E2
:10444000006800F08000009000BF00BF00BF084679
:10445000006840F4807008600846006800F48070CE
:10446000009000BF00BF0D200190022002900120AB
:104470000390032004900C20059001A91848FDF733
:1044800063FD4CF20370019001A91648FDF75CFD35
:104490004FF68370019001A91348FDF755FD4FF6C3
:1044A0003F00019001A91148FDF74EFD48F2371079
:1044B000019001A90E48FDF747FD4FF47F400190A0
:1044C00001A90C48FDF740FD40F2FF60019001A9F1
:1044D0000948FDF739FD06B010BD0000F44402584C
:1044E00000080258000C025800100258001402582C
:1044F00000180258001C02580020025870B50446EB
:104500000D4694F82C00022800D170BD022084F8DA
:104510002C0029462068FCF760FC012084F82C0060
:104520000020F2E770B504460D46164694F82C00BC
:10453000022800D170BD022084F82C0032462946A2
:104540002068FCF751FC2868022803D1052084F874
:104550002C0002E0012084F82C000020EAE7000093
:1045600070B504460E4615460CB9012070BD94F88E
:10457000450028B9002084F84400204600F024F8C3
:1045800004F108012068FCF77FFB3146A26820682F
:10459000FCF7BAFB2946E36AD4E90102FCF750FBB9
:1045A000A168206850F8210040F00100A26821684D
:1045B00041F822000348006840F0004001490860CB
:1045C0000020D3E70040005210B586B0044600BF7B
:1045D0002048006840F480501E4908600846006882
:1045E00000F48050009000BF00BF00BF19480C309D
:1045F000006840F0080017490C3108600846006860
:1046000000F00800009000BF00BF00BF084600682F
:1046100040F0100008600846006800F010000090AC
:1046200000BF00BF4EF2B370019002200290012043
:104630000390032004900C20059001A90648FDF783
:1046400083FC4FF68070019001A90448FDF77CFCC3
:1046500006B010BDD4440258000C02580010025895
:10466000042808D14FF0E021096941F004014FF01E
:10467000E022116107E04FF0E021096921F0040117
:104680004FF0E0221161704770B504462546681E60
:10469000B0F1807F01D301200FE0681E4FF0E021D0
:1046A00048610F214FF0FF3007F008F800204FF06D
:1046B000E021886107200861002070BD70477047C5
:1046C00001460022002391F8792091F87A3042EADD
:1046D000030070472DE9F04104462068C569206851
:1046E00007682068866805F00F08B8F1000F0DD143
:1046F00005F0200050B107F0200010B906F08050FE
:1047000020B1204606F019FABDE8F081B8F1000F9B
:1047100072D05D48304018B907F4907000287AD004
:1047200005F0010048B107F4807030B10120216824
:104730000862E06F40F00100E06705F0020048B158
:1047400006F0010030B1022021680862E06F40F0FD
:104750000400E06705F0040048B106F0010030B144
:10476000042021680862E06F40F00200E06705F075
:10477000080078B107F0200028B906F0805010B981
:1047800006F0010030B1082021680862E06F40F0B7
:104790000800E067E06F70B305F0200040B107F05B
:1047A000200010B906F0805010B1204606F0C5F97F
:1047B000E06F00F0080020B92068806800F0400039
:1047C00018B3204606F099F92068806800F0400090
:1047D000B8B12068806820F0400021688860606F70
:1047E00058B12A48616F0865606FFDF727FB10B16B
:1047F000606F016D88470DE00DE02046FFF75FFF19
:1048000008E02046FFF75BFF04E02046FFF757FF74
:104810000020E06778E705F4801078B106F48000A6
:1048200060B14FF4801021680862202084F879007C
:1048300084F87A002046FFF741FF65E705F0800025
:1048400048B107F0800010B906F4000018B1204606
:1048500006F08AFE58E705F0400030B107F040004E
:1048600018B1204606F059F94EE705F4000040B1B2
:1048700007F0804028B12068006820F0804021685F
:10488000086000BF40E7000001000010E3AA000834
:1048900010B504460CB9012010BDA06900B100E0BC
:1048A00000BF94F8790028B9002084F878002046E9
:1048B00000F02AF8242084F879002068006820F0AD
:1048C000010021680860204606F07CF9012800D12B
:1048D000E2E7606B10B1204606F054F820684068AB
:1048E00020F49040216848602068806820F02A0009
:1048F000216888602068006840F001002168086035
:10490000204606F0B4F8C7E710B586B00446214942
:10491000206888423BD100BF1F48006840F001007A
:104920001D4908600846006800F00100009000BFC3
:1049300000BF00BF18481030006840F01000164952
:10494000103108600846006800F01000009000BFB9
:1049500000BF4FF4007001900220029001200390EC
:10496000022004900720059001A90C48FDF7ECFAFD
:104970004FF48060019001A90848FDF7E5FA252071
:10498000FDF77BFE032211462520FDF786FE06B0CB
:1049900010BD000000100140E04402580000025821
:1049A00010B5034693F87A00202867D101B10AB9FF
:1049B000012010BD00BF93F87800012801D102202A
:1049C000F7E7012083F8780000BF5966A3F8682054
:1049D000A3F86A2000BF9868B0F5805F0AD1186913
:1049E00020B940F2FF10A3F86C001CE0FF20A3F8F0
:1049F0006C0018E0986848B9186918B9FF20A3F846
:104A00006C0010E07F20A3F86C000CE09868B0F117
:104A1000805F08D1186918B97F20A3F86C0002E004
:104A20003F20A3F86C0000BF0020D867222083F845
:104A30007A0000BF002083F8780000BF1868806803
:104A400040F001001C68A0601868006800F0005089
:104A500060B11868006840F480701C6820601868B5
:104A6000806840F080501C68A06005E0186800680D
:104A700040F490701C68206000209AE7022098E7BC
:104A80001D4A0168914236D11C49098801F4004150
:104A900089BB1A49098801F4804171B11849097824
:104AA0000A2903D00021154A118024E013490988FE
:104AB00041F40041114A11801DE0114909780D2986
:104AC00006D10E49098841F480410C4A118012E058
:104AD0000B490978094A1288C2F30D02094B99540F
:104AE00006490988491C054A118011460988C729C9
:104AF00001DD0021118070470010014010000024EA
:104B00001200002488000024704700BFFEE7000068
:104B100010B5002210211248FDF748FB104800682C
:104B200020F440600E4908600846006840F4806048
:104B30000860002220210A48FDF738FB022006F019
:104B4000B3FE012210210648FDF730FB022006F0DB
:104B5000ABFE002210210248FDF728FB10BD00002B
:104B6000001C025800B587B000BF1248006840F032
:104B70008000104908600846006800F0800001903D
:104B800000BF00BF3020029001200390049003205A
:104B9000059002A90848FDF7D7F90122202106480F
:104BA000FDF704FB012210210348FDF7FFFA07B0CF
:104BB00000BD0000E0440258001C025810B500225D
:104BC00010211248FDF7F2FA1048006820F4406006
:104BD0000E4908600846006840F4806008600122C1
:104BE00020210A48FDF7E2FA022006F05DFE0122CC
:104BF00010210648FDF7DAFA022006F055FE0022E1
:104C000010210248FDF7D2FA10BD0000001C025826
:104C100070B5054600241848006820F44060164925
:104C2000086008460068086000261AE0002210218B
:104C30001148FDF7BBFA022006F036FE01221021D2
:104C40000D48FDF7B3FA6006040E20210A48FDF76F
:104C5000A1FA08B1601CC4B2012006F025FE701C48
:104C6000C6B2082EE2DB15B9FFF7A8FF01E0FFF797
:104C70004FFF204670BD0000001C025870B504466E
:104C80001C48006820F440601A4908600846006823
:104C900040F480600860002210211648FDF786FA73
:104CA000002523E0E00928B1012220211148FDF769
:104CB0007DFA04E0002220210E48FDF777FA600615
:104CC000040E022006F0F0FD012210210948FDF734
:104CD0006DFA022006F0E8FD002210210548FDF7DC
:104CE00065FA022006F0E0FD681CC5B2082DD9DB8C
:104CF00070BD0000001C025810B51348006820F475
:104D00004060114908600846006840F4806008600F
:104D1000012220210C48FDF749FA012210210A48FE
:104D2000FDF744FA042006F0BFFD002220210648CA
:104D3000FDF73CFA042006F0B7FD002210210248DE
:104D4000FDF734FA10BD0000001C025810B51348DE
:104D5000006820F44060114908600846006840F48B
:104D600080600860002210210C48FDF71FFA002225
:104D700020210A48FDF71AFA042006F095FD0122C9
:104D800010210648FDF712FA012220210348FDF701
:104D90000DFA042006F088FD10BD0000001C02582A
:104DA00010B500241748006820F4406015490860D9
:104DB000084600680860012220211248FDF7F6F934
:104DC000012006F071FD012210210E48FDF7EEF9D9
:104DD000012006F069FD07E0601CC4B2FA2C03DD77
:104DE000FFF7B4FF012010BD20210648FDF7D2F9DE
:104DF0000028F1D1002210210248FDF7D7F9002048
:104E0000F1E70000001C025800B587B000BF24483D
:104E1000006840F00100224908600846006800F080
:104E20000100019000BF00BF00BF0846006840F0CD
:104E3000040008600846006800F00400019000BF0C
:104E400000BF00BF0846006840F0800008600846C8
:104E5000006800F08000019000BF00BF01200290B8
:104E600000200390022004900320059002A90D4821
:104E7000FDF76AF84FF400500290002003900120E3
:104E800004900320059002A90748FDF75DF80C2067
:104E9000029002A90548FDF757F807B000BD0000D1
:104EA000E04402580000025800080258001C025852
:104EB00010B50446012C01D12D4908702C4800780A
:104EC000002839D008212B48FDF764F980B104216E
:104ED0002848FDF75FF958B14FF400512648FDF717
:104EE00059F928B101212548FDF754F9012823D1AA
:104EF0000A2006F0CDFC00201D49087008211D483D
:104F0000FDF748F908B9012010BD04211948FDF743
:104F100041F908B90220F7E74FF400511648FDF7B0
:104F200039F908B90320EFE701211448FDF732F9F8
:104F300001281BD10420E7E708210E48FDF72AF9D4
:104F4000012813D104210B48FDF724F901280DD1C4
:104F500041030948FDF71EF9012807D1012107483F
:104F6000FDF718F910B90120014908700020CBE7BE
:104F70001D000024001C02580008025800000258BE
:104F800070B5044600260D4805880D48006818B124
:104F9000204603F08BF90FE0084840884543002184
:104FA000084602F06FFF03F043F9002602E00549CE
:104FB0000C80761CAE42FAD370BD00001C020024A7
:104FC000680300240000086010B50446624884713C
:104FD0006248006850B1204603F092F95F48C08AE9
:104FE0005D4908805D48008B488010BD002C57D17A
:104FF000F020594908804FF4A07048800846808806
:1050000049F2413188420BD05348808845F2103133
:10501000884205D05048808847F28971884214D16F
:105020002C204D4908812A2048812B208881084660
:10503000808845F21031884206D14FF4A07046496D
:1050400008804FF4F070488081E04348808845F242
:105050001051884210D14FF430503F4908814FF42D
:10506000285048814FF42C5088814FF4F07008800C
:105070004FF4487048806AE03748808841F66311F1
:10508000884264D12C20344908812B2048812A2071
:1050900088814FF4F07008804FF44870488056E0E3
:1050A0004FF4A0702C490880F02048800846808882
:1050B00049F2413188420BD02748808845F21031AF
:1050C000884205D02448808847F28971884207D1F8
:1050D0002C20214908812A2048812B20888129E021
:1050E0001D48808845F21051884210D14FF430504D
:1050F000194908814FF4285048814FF42C50888179
:105100004FF4487008804FF4F070488012E0124865
:10511000808841F6631188420CD12C200E49088109
:105120002A2048812B2088814FF4487008804FF452
:10513000F07048800848808845F21031884206D1D6
:105140004FF4F070044908804FF4A07048800020AC
:1051500002F058FD00BF48E71C0200246803002449
:105160002DE9FF4F85B081468A46002004900390C8
:105170000798A0EB09050898A0EB0A06CDF808905F
:10518000CDF804A0002D01DD012705E00DB90027B1
:1051900002E04FF0FF376D42002E02DD4FF00108B4
:1051A00006E016B94FF0000802E04FF0FF387642F3
:1051B000B54201DD2C4600E034464FF0000B21E003
:1051C000019A91B2029A90B200F022F80498284411
:1051D00004900398304403900498A04205DD04989D
:1051E000001B04900298384402900398A04205DD09
:1051F0000398001B03900198404401900BF10100BB
:105200001FFA80FB601C8345DADD09B0BDE8F08F32
:1052100070B504460D460A48006830B10948294671
:105220000268204603F082F809E02946204602F091
:1052300029FE02F0FDFF034800880349088070BD85
:105240006803002420000024000008602DE9F047D6
:1052500006460F469046002445460320A0EB480929
:105260003CE07A1B91B2321990B2FFF7D1FF3A1BA2
:1052700091B2721990B2FFF7CBFF3A1991B272193D
:1052800090B2FFF7C5FF7A1991B2321990B2FFF7C9
:10529000BFFF7A1991B2321B90B2FFF7B9FF3A19EA
:1052A00091B2721B90B2FFF7B3FF7A1B91B2321B1F
:1052B00090B2FFF7ADFF3A1B91B2721B90B2FFF7AD
:1052C000A7FF641CB9F1000F03DAA000801D814420
:1052D00004E0601B80000A3081446D1EAC42C0DDDA
:1052E000BDE8F08770B504460D461646464800688E
:1052F00028B132462946204603F018F870BD4348CD
:10530000808849F2413188420BD04048808845F27C
:105310001031884205D03D48808847F28971884223
:1053200014D13A49488902F077FF201202F068FF51
:10533000E0B202F065FF3549888902F06DFF28125E
:1053400002F05EFFE8B202F05BFF54E02F48808875
:1053500045F21051884220D12C49488902F05CFF67
:10536000201202F04DFF29494989491C88B202F0F8
:1053700053FFE0B202F044FF2449888902F04CFF59
:10538000281202F03DFF21498989491C88B202F0A8
:1053900043FFE8B202F034FF2DE01C48808841F65C
:1053A0006311884227D11948807920B917480088AD
:1053B000401E001B84B21549488902F02DFF2012BF
:1053C00002F01EFFE0B202F01BFF201202F018FFF5
:1053D000E0B202F015FF0D49888902F01DFF281286
:1053E00002F00EFFE8B202F00BFF281202F008FFF5
:1053F000E8B202F005FF0548008905490880891CCC
:105400000E8000BF7AE70000680300241C0200241D
:10541000FEFF07602DE9F84F05460E4617469846F1
:10542000DDF828904FF0000B1448006840B1434667
:105430003A4631462846CDF8009002F09FFF1BE027
:10544000781B401C1FFA80FB344613E02146284697
:1054500002F018FD02F0ECFE4FF0000A06E00849E9
:10546000A1F800900AF101001FFA80FADA45F6DB94
:10547000601C84B24445E9DDBDE8F88F6803002470
:105480000000086000B595B003F082FAFE498880FC
:105490000846808818B103F015F802F007BB00BF7A
:1054A000FA48006840F00200F849086008460068C1
:1054B00000F00200019000BF00BF202010900120EA
:1054C000119012900320139010A9F148FCF73CFDB5
:1054D00002F034FBEF48F0490860F04848600020D3
:1054E00088600021EC48C160016110214161002108
:1054F0008161C16101624FF480514162002181628A
:105500004FF48041C1620021016341634FF4801177
:1055100081631120099000200A9055200B900020F3
:105520000F90152002900020039015200490002079
:10553000089002AA09A9D848FFF712F8322006F00D
:10554000A7F9D32002F068FE02F02AFBCE4988803A
:1055500002F026FBCC49888002F022FBCA498880F1
:10556000084680884FF6FF7101EA0020C64988800E
:1055700002F016FBC44989880843C34988800A2081
:1055800006F086F9C048808849F2413188427DD0D2
:10559000042002F041FE02F003FBBB49888002F0C8
:1055A000FFFAB949888002F0FBFAB74988800846BB
:1055B00080884FF6FF7101EA0020B349888002F02D
:1055C000EFFAB14989880843AF4988800846808846
:1055D00048F25251884203D147F28970AA49888023
:1055E000A948808847F289718842D0D0D42002F03F
:1055F00013FE02F0D5FAA449888002F0D1FAA2493C
:10560000888002F0CDFAA0498880084680884FF64D
:10561000FF7101EA00209C49888002F0C1FA9A4992
:1056200089880843984988800846808845F2103167
:1056300088426BD055214FF4704002F003FEAA213E
:105640004FF2010002F0FEFD52214FF2020002F083
:10565000F9FD08214FF2030002F0F4FD01214FF2A1
:10566000040002F0EFFD4FF4454002F0D5FD02F0DA
:1056700097FA85498880084680884FF6FF7101EACD
:105680000020814988804CF2015000E03EE002F0A9
:10569000C3FD02F085FA7C49898808437A498880ED
:1056A000052006F0F5F878488088B0F5004F03D162
:1056B00045F21050744988807348808845F2105133
:1056C000884223D0A12002F0A7FD02F069FA6E49BA
:1056D000888002F065FA6C498880084680884FF619
:1056E000FF7101EA00206849888002F059FA664992
:1056F00089880843644988800846808845F261713A
:10570000884203D141F663105F4988805E488088F3
:1057100049F2413188427CD1CF2002F07DFD00204A
:1057200002F06EFDC12002F06BFD302002F068FD3A
:10573000ED2002F071FD642002F062FD032002F012
:105740005FFD122002F05CFD812002F059FDE8208F
:1057500002F062FD852002F053FD102002F050FDA2
:105760007A2002F04DFDCB2002F056FD392002F0E8
:1057700047FD2C2002F044FD002002F041FD3420C2
:1057800002F03EFD022002F03BFDF72002F044FD56
:10579000202002F035FDEA2002F03EFD002002F05C
:1057A0002FFD002002F02CFDC02002F035FD1B2053
:1057B00002F026FDC12002F02FFD012002F020FDA5
:1057C000C52002F029FD302002F01AFD302002F041
:1057D00017FDC72002F020FDB72002F011FD362092
:1057E00002F01AFD482002F00BFD3A2002F014FDF1
:1057F000552002F005FDB12002F00EFD002002F060
:10580000FFFC1A2002F0FCFCB62002F005FD0A2085
:1058100000E0A5E002F0F4FCA22002F0F1FCF2208E
:1058200002F0FAFC002002F0EBFC262002F0F4FC6F
:10583000012002F0E5FCE02002F0EEFC0F2002F077
:10584000DFFC2A2002F0DCFC282002F0D9FC082032
:1058500002F0D6FC0E2002F0D3FC082002F0D0FCAF
:10586000542002F0CDFCA92002F0CAFC432002F033
:10587000C7FC0A2002F0C4FC0F2002F0C1FC00208B
:1058800002F0BEFC00200BE01C020024E0440258A1
:105890000004025800400052D0010024044100528C
:1058A00002F0AEFC002002F0ABFC002002F0A8FCED
:1058B000E12002F0B1FC002002F0A2FC152002F071
:1058C0009FFC172002F09CFC072002F099FC11209D
:1058D00002F096FC062002F093FC2B2002F090FCD4
:1058E000562002F08DFC3C2002F08AFC052002F0DC
:1058F00087FC102002F084FC0F2002F081FC3F2086
:1059000002F07EFC3F2002F07BFC0F2002F078FCCE
:105910002B2002F081FC002002F072FC002002F03B
:105920006FFC012002F06CFC3F2002F069FC2A2091
:1059300002F072FC002002F063FC002002F060FC28
:10594000002002F05DFCEF2002F05AFC112002F072
:1059500063FC782005F09CFF292002F05DFC9CE5AB
:10596000FE48808847F2897188427CD1112002F07C
:1059700053FC782005F08CFF362002F04DFC00200F
:1059800002F03EFC3A2002F047FC052002F038FC11
:10599000B22002F041FC0C2002F032FC0C2002F09C
:1059A0002FFC002002F02CFC332002F029FC3320D5
:1059B00002F026FCB72002F02FFC352002F020FC7C
:1059C000BB2002F029FC322002F01AFCC02002F0B9
:1059D00023FC0C2002F014FCC22002F01DFC01206C
:1059E00002F00EFCC32002F017FC102002F008FCAD
:1059F000C42002F011FC202002F002FCC62002F0BC
:105A00000BFC0F2002F0FCFBD02002F005FCA420D0
:105A100002F0F6FBA12002F0F3FBE02002F0FCFB19
:105A2000D02002F0EDFB002002F0EAFB022002F0A1
:105A3000E7FB072002F0E4FB0A2002F0E1FB28204C
:105A400002F0DEFB322002F0DBFB442002F0D8FB48
:105A5000422002F0D5FB062002F0D2FB0E2002F01D
:105A6000CFFB122000E056E002F0CAFB142002F047
:105A7000C7FB172002F0C4FBE12002F0CDFBD020D1
:105A800002F0BEFB002002F0BBFB022002F0B8FBDC
:105A9000072002F0B5FB0A2002F0B2FB282002F03A
:105AA000AFFB312002F0ACFB542002F0A9FB4720F1
:105AB00002F0A6FB0E2002F0A3FB1C2002F0A0FBCC
:105AC000172002F09DFB1B2002F09AFB1E2002F023
:105AD00097FB2A2002F0A0FB002002F091FB00209F
