:020000040800F2
:10000000100D002439030008355100083151000853
:100010000D110090430500081D5600080000000067
:10002000000000000000000000000000195500085A
:10003000A10B000800000000375100081B55000804
:100040005303000853030008530300085303000838
:100050005303000853030008530300085303000828
:100060005303000853030008530300085303000818
:100070005303000853030008530300085303000808
:1000800053030008530300085303000853030008F8
:1000900053030008530300085303000853030008E8
:1000A00053030008530300085303000853030008D8
:1000B00053030008530300085303000853030008C8
:1000C00053030008530300085303000853030008B8
:1000D00053030008CD5500085303000853030008DC
:1000E00053030008530300080000000053030008F6
:1000F0005303000853030008530300085303000888
:100100005303000853030008530300085303000877
:100110005303000853030008530300085303000867
:1001200053030008490400905303000853030008D8
:100130005303000853030008530300085303000847
:1001400000000000000000000000000000000000AF
:100150005303000853030008530300085303000827
:100160005303000853030008530300085303000817
:100170005303000853030008390400905303000898
:1001800053030008530300085303000853030008F7
:1001900053030008530300085303000853030008E7
:1001A00053030008530300085303000853030008D7
:1001B00053030008530300085303000853030008C7
:1001C00053030008530300085303000853030008B7
:1001D00053030008530300085303000853030008A7
:1001E0005303000853030008530300085303000897
:1001F0005303000853030008530300085303000887
:100200005303000853030008530300085303000876
:100210005303000853030008530300085303000866
:1002200053030008530300085303000800000000B4
:1002300053030008530300080000000053030008A4
:100240005303000853030008530300085303000836
:100250005303000853030008530300085303000826
:100260005303000853030008530300085303000816
:100270005303000853030008530300080000000064
:100280005303000853030008530300080000000054
:10029000000000005303000800F002F800F03CF8F2
:1002A0000AA090E8000C82448344AAF10107DA45D1
:1002B00001D100F031F8AFF2090EBAE80F0013F0E7
:1002C000010F18BFFB1A43F001031847285900001B
:1002D00048590000103A24BF78C878C1FAD85207AC
:1002E00024BF30C830C144BF04680C6070470000B0
:1002F0000023002400250026103A28BF78C1FBD82F
:10030000520728BF30C148BF0B6070471FB505F0CA
:100310005FFC1FBD10B510BD00F0AAF81146FFF735
:10032000F5FF05F0F1F900F0C8F803B4FFF7F2FFAC
:1003300003BC05F091F900000948804709480047CF
:10034000FEE7FEE7FEE7FEE7FEE7FEE7FEE7FEE785
:10035000FEE7FEE704480549054A064B70470000E2
:10036000255500089902000810030024100D0024F0
:100370001005002410050024704753EA020C00F019
:1003800069802DE9F04B4FF00006002B1FBFB3FA38
:1003900083F503FA05F424FA05F65E4012BF16430E
:1003A000B2FA82F502FA05F4C5F120051EBF22FA61
:1003B00005FC44EA0C04203556EA044C4FEA144488
:1003C00018BF641C4FF000084FF00009904271EB19
:1003D000030C39D3002919BFB1FA81F701FA07F6E6
:1003E000B0FA80F700FA07F6C7F120071EBF20FA1F
:1003F00007FC46EA0C062037B6FBF4FCA7EB050722
:10040000103F07F01F0BCBF120060CFA0BFB2CFA68
:1004100006F644BFB3460026202FA4BF5E464FF029
:10042000000B5BEA060C08BF4FF0010B19EB0B0940
:10043000ABFB027C48EB0608C01B06FB02CC0BFBA7
:1004400003CC71EB0C01C1E70B460246414648461E
:10045000BDE8F08B13B54FF000004FF00001AFF393
:100460000080BDE81C407047704770477047704778
:10047000754600F02BF8AE4605006946534620F05D
:100480000700854618B020B5FFF764FFBDE820409F
:100490004FF000064FF000074FF000084FF0000B40
:1004A00021F00701AC46ACE8C009ACE8C009ACE8F3
:1004B000C009ACE8C0098D46704710B50446AFF3DB
:1004C00000802046BDE81040FFF72FBF004870476E
:1004D000B002002440F6495CC9F2000C604740F6C7
:1004E000395CC9F2000C604740F6CD7CC9F2000CC3
:1004F000604747F6916CC9F2000C604747F6C95C4B
:10050000C9F2000C604744F6590CC9F2000C604770
:1005100047F2F92CC9F2000C604744F2597CC9F249
:10052000000C604747F6B94CC9F2000C604740F236
:100530000D0CC9F2000C604740F6557CC9F2000C66
:10054000604700BFFEE700000146374A0868904256
:1005500049D0354A18320868904244D0324A303285
:10056000086890423FD0304A4832086890423AD0FA
:100570002D4A60320868904235D02B4A783208689C
:10058000904230D0284A9032086890422BD0264AB8
:10059000A8320868904226D0244A0868904222D0A7
:1005A000224A1832086890421DD0204A303208682A
:1005B000904218D01D4A48320868904213D01B4A16
:1005C0006032086890420ED0184A7832086890422B
:1005D00009D0164A90320868904204D0134AA832D3
:1005E0000868904201D1012000E00020B0B10A78F3
:1005F000103A1823B2FBF3F000F007020C4B9A5CA0
:10060000CA65032805D90A686FF30902121D8A65B5
:1006100003E00A686FF309028A6503E0086820F0C6
:10062000FF008865886D704710000240100402408A
:10063000EA5B000810B502682B4C0368A34222D085
:10064000294C14340368A3421DD0274C2834036876
:10065000A34218D0244C3C340368A34213D0224C4C
:1006600050340368A3420ED01F4C64340368A34285
:1006700009D01D4C78340368A34204D01A4C8C3442
:100680000368A34201D1012300E000238BB103786A
:10069000083B1424B3FBF4F1144B03EB8103036612
:1006A000124B8033436601F01F040123A34083668D
:1006B00018E00378103B1824B3FBF4F10C4B9A427A
:1006C00004D80B4BA83B9A4200D30831094B03EBEB
:1006D00081030366074B8033436601F01F04012347
:1006E000A340836610BD0000085402580058025809
:1006F000B8040240000802400179A9B3082940D893
:10070000204B02689A4222D01E4B143302689A4250
:100710001DD01C4B283302689A4218D0194B3C3329
:1007200002689A4213D0174B503302689A420ED097
:10073000144B643302689A4209D0124B7833026832
:100740009A4204D00F4B8C3302689A4201D10122A5
:1007500000E000224AB14A1E0B4B03EB8202C26644
:10076000094A4032026708E00BE04A1E074B03EBE0
:100770008202C266054A403202674A1E0123934044
:100780004367704708540258005902580009024054
:10079000014600208A69D2B98A6A32B1012A0DD095
:1007A000022A03D0032A10D10EE000BFCA6A02F069
:1007B0008072B2F1807F00D1012007E0CA6AB2F1F5
:1007C000C07F00D1012001E000E000BF36E08A696F
:1007D000B2F5005F1BD18A6A32B1012A07D0022A22
:1007E00003D0032A11D10AE000BF01200EE0CA6A3B
:1007F00002F08072B2F1807F00D1012006E0CA6A67
:10080000B2F1C07F00D1012000E000BF16E08A6A8B
:1008100032B1012A05D0022A04D0032A0CD103E008
:1008200000BF00BF012008E0CA6A02F08072B2F186
:10083000807F00D1012000E000BF00BF70470000B2
:1008400030B5384D0468AC4249D0364D183504688F
:10085000AC4244D0334D30350468AC423FD0314DCA
:1008600048350468AC423AD02E4D60350468AC423D
:1008700035D02C4D78350468AC4230D0294D9035B8
:100880000468AC422BD0274DA8350468AC4226D072
:10089000254D0468AC4222D0234D18350468AC4283
:1008A0001DD0214D30350468AC4218D01E4D48355E
:1008B0000468AC4213D01C4D60350468AC420ED0C5
:1008C000194D78350468AC4209D0174D903504684D
:1008D000AC4204D0144DA8350468AC4201D10124C7
:1008E00000E0002474B1046863608468402C04D183
:1008F0000468A2600468E16012E00468A160046812
:10090000E2600DE0046863608468402C04D10468F0
:10091000A2600468E16003E00468A1600468E2602A
:1009200030BD00001000024010040240F0B5856D9B
:10093000846D984F0668BE4270D0964F183706688F
:10094000BE426BD0934F30370668BE4266D0914F9F
:1009500048370668BE4261D08E4F60370668BE4297
:100960005CD08C4F78370668BE4257D0894F90379D
:100970000668BE4252D0874FA8370668BE424DD0A7
:10098000854F0668BE4249D0834F18370668BE427D
:1009900044D0814F30370668BE423FD07E4F483743
:1009A0000668BE423AD07C4F60370668BE4235D0FA
:1009B000794F78370668BE4230D0774F9037066857
:1009C000BE422BD0744FA8370668BE4226D0734F64
:1009D0000668BE4222D0714F14370668BE421DD051
:1009E0006E4F28370668BE4218D06C4F3C370668F9
:1009F000BE4213D0694F50370668BE420ED0674FD3
:100A000064370668BE4209D0644F78370668BE4234
:100A100004D0624F8C370668BE4201D1012600E047
:100A200000263EB1D0E919767E60C66E16B1D0E9D7
:100A30001C767E60574F0668BE4249D0554F183726
:100A40000668BE4244D0534F30370668BE423FD09E
:100A5000504F48370668BE423AD04E4F603706685E
:100A6000BE4235D04B4F78370668BE4230D0494F32
:100A700090370668BE422BD0464FA8370668BE4264
:100A800026D0454F0668BE4222D0434F183706682D
:100A9000BE421DD0404F30370668BE4218D03E4F90
:100AA00048370668BE4213D03B4F60370668BE42E7
:100AB0000ED0394F78370668BE4209D0364F90378E
:100AC0000668BE4204D0344FA8370668BE4201D142
:100AD000012600E00026DEB190F85C6006F01F07FA
:100AE0003F26BE40AE600668366826F4802607685A
:100AF0003E60066873608668402E04D10668B26066
:100B00000668F16044E00668B1600668F2603FE0A4
:100B1000224F0668BE4222D0204F14370668BE42DC
:100B20001DD01E4F28370668BE4218D01B4F3C37D9
:100B30000668BE4213D0194F50370668BE420ED029
:100B4000164F64370668BE4209D0144F78370668DE
:100B5000BE4204D0114F8C370668BE4201D1012637
:100B600000E00026A6B190F85C6006F01F070126A1
:100B7000BE406660066873608668402E04D10668D1
:100B8000B2600668F16003E00668B1600668F26072
:100B9000F0BD00001000024010040240085402584A
:100BA0007047000010B50346304C1868A04249D089
:100BB0002E4C18341868A04244D02C4C303418689D
:100BC000A0423FD0294C48341868A0423AD0274C64
:100BD00060341868A04235D0244C78341868A0429C
:100BE00030D0224C90341868A0422BD01F4CA8342F
:100BF0001868A04226D01E4C1868A04222D01C4C77
:100C000018341868A0421DD0194C30341868A0421E
:100C100018D0174C48341868A04213D0144C6034D4
:100C20001868A0420ED0124C78341868A04209D03F
:100C30000F4C90341868A04204D00D4CA8341868AA
:100C4000A04201D1012000E0002030B112B91868A3
:100C5000C16008E01868016105E012B91868C16058
:100C600001E018680161002010BD00001000024082
:100C7000100402402DE9F04704460F4690461E46F8
:100C8000DDF820904FF0000AA068802804D14000D1
:100C900060650120BDE8F08700BF94F834000128AA
:100CA00001D10220F6E7012084F8340000BF94F857
:100CB000350001287ED1022084F8350000206065CF
:100CC000F9492068884249D0F7491831206888429C
:100CD00044D0F5493031206888423FD0F24948314C
:100CE000206888423AD0F04960312068884235D087
:100CF000ED4978312068884230D0EB499031206846
:100D000088422BD0E849A8312068884226D0E7499C
:100D10002068884222D0E5491831206888421DD0D9
:100D2000E24930312068884218D0E04948312068D3
:100D3000884213D0DD496031206888420ED0DB49FB
:100D400078312068884209D0D8499031206888429B
:100D500004D0D649A8312068884201D1012000E0A2
:100D6000002090B12068006840F48020216808606D
:100D700020680661A06D00F1080594F85C0000F0A1
:100D80001F013F208840286011E02068006848F279
:100D9000200108432168086020680661A06D051DD8
:100DA00094F85C0000F01F010120884028604B4649
:100DB000424600E0EFE139462046FFF741FDBA49DF
:100DC0002068884270D0B8491831206888426BD0BA
:100DD000B54930312068884266D0B349483120682F
:100DE000884261D0B0496031206888425CD0AE4909
:100DF00078312068884257D0AB49903120688842CA
:100E000052D0A949A831206888424DD0A74920680E
:100E1000884249D0A54918312068884244D0A34966
:100E20003031206888423FD0A0494831206888424C
:100E30003AD09E4960312068884235D09B4978314C
:100E40002068884230D099499031206888422BD060
:100E50009649A8312068884226D095492068884262
:100E600022D093491431206888421DD090492831FE
:100E70002068884218D08E493C312068884213D0BF
:100E80008B495031206888420ED0894964312068EE
:100E9000884209D0864978312068884204D0844944
:100EA0008C312068884201D1012000E0002038B157
:100EB000D4E919104860E06E10B1D4E91C10486004
:100EC00079492068884249D077491831206888429A
:100ED00044D075493031206888423FD0724948314A
:100EE000206888423AD0704960312068884235D005
:100EF0006D4978312068884230D06B499031206844
:100F000088422BD06849A8312068884226D067499A
:100F10002068884222D065491831206888421DD057
:100F2000624930312068884218D0604948312068D1
:100F3000884213D05D496031206888420ED05B49F9
:100F400078312068884209D0584990312068884219
:100F500004D05649A8312068884201D1012000E020
:100F60000020C0B12068006820F01E0040F016008C
:100F7000216808602068406940F08000216848616D
:100F8000206C08B9A06CC0B12068006840F008006F
:100F90002168086011E02068006820F00E0040F031
:100FA0000A0021680860206C08B9A06C28B120688C
:100FB000006840F00400216808603B4920688842CE
:100FC00070D039491831206888426BD036493031A9
:100FD0002068884266D0344948312068884261D010
:100FE00031496031206888425CD02F4978312068CF
:100FF000884257D02C4990312068884252D02A49E3
:10100000A831206888424DD028492068884249D0BC
:10101000264918312068884244D02449303120685C
:1010200088423FD021494831206888423AD01F4940
:1010300060312068884235D01C4978312068884268
:1010400030D01A499031206888422BD01749A831F6
:101050002068884226D016492068884222D0144948
:101060001431206888421DD01149283120688842F7
:1010700018D00F493C312068884213D00C495031B8
:10108000206888420ED00A4964312068884209D01D
:10109000074978312068884204D005498C3120689E
:1010A000884207D1012006E01000024010040240EF
:1010B00008540258002090B1206E006800F480307F
:1010C00028B1206E006840F48070216E0860E06EE8
:1010D00028B1E06E006840F48070E16E086031492C
:1010E0002068884249D02F4918312068884244D06E
:1010F0002C493031206888423FD02A494831206845
:1011000088423AD0274960312068884235D0254945
:1011100078312068884230D0224990312068884256
:101120002BD02049A8312068884226D01E4920684B
:10113000884222D01C491831206888421DD01A49A3
:1011400030312068884218D01749483120688842D9
:1011500013D015496031206888420ED01249783189
:101160002068884209D0104990312068884204D014
:101170000D49A8312068884206D12068006840F0F7
:101180000100216808600BE02068006840F0010061
:101190002168086004E04FF4006060654FF0010AC8
:1011A000504677E510000240100402402DE9F0415E
:1011B000044601F031FF804614B90120BDE8F081FA
:1011C00094F83500022808D08020606500BF002018
:1011D00084F8340000BF0120F0E7FE49206888420F
:1011E00049D0FC4918312068884244D0F94930314F
:1011F000206888423FD0F7494831206888423AD079
:10120000F44960312068884235D0F249783120684D
:10121000884230D0EF499031206888422BD0ED4988
:10122000A8312068884226D0EB492068884222D025
:10123000E9491831206888421DD0E74930312068DB
:10124000884218D0E44948312068884213D0E249E6
:101250006031206888420ED0DF49783120688842AA
:1012600009D0DD4990312068884204D0DA49A8319C
:101270002068884201D1012000E0002068B1206888
:10128000006820F01E00216808602068406920F096
:10129000800021684861256806E02068006820F029
:1012A0000E00216808602568CA492068884270D00D
:1012B000C8491831206888426BD0C649303120684F
:1012C000884266D0C34948312068884261D0C1490C
:1012D0006031206888425CD0BE49783120688842FD
:1012E00057D0BC4990312068884252D0B949A831C2
:1012F000206888424DD0B8492068884249D0B64914
:1013000018312068884244D0B3493031206888427F
:101310003FD0B1494831206888423AD0AE49603167
:101320002068884235D0AC4978312068884230D076
:10133000A9499031206888422BD0A749A83120685C
:10134000884226D0A5492068884222D0A34914317A
:10135000206888421DD0A14928312068884218D0D1
:101360009E493C312068884213D09C495031206806
:1013700088420ED0994964312068884209D0974943
:1013800078312068884204D094498C3120688842A2
:1013900001D1012000E0002028B1206E006820F477
:1013A0008070216E08608B492068884249D0894945
:1013B00018312068884244D08649303120688842FC
:1013C0003FD084494831206888423AD08149603111
:1013D0002068884235D07F4978312068884230D0F3
:1013E0007C499031206888422BD07A49A831206806
:1013F000884226D078492068884222D07649183120
:10140000206888421DD0744930312068884218D045
:10141000714948312068884213D06F496031206893
:1014200088420ED06C4978312068884209D06A49D8
:1014300090312068884204D06749A83120688842EA
:1014400006D12068006820F001002168086005E0EE
:101450002068006820F001002168086011E001F0B8
:10146000DBFDA0EB080005280BD92020606500BF3C
:10147000002084F8340000BF032084F835000120E8
:101480009CE6286800F001000028E8D15149206856
:10149000884249D04F4918312068884244D04D498C
:1014A0003031206888423FD04A494831206888421C
:1014B0003AD0484960312068884235D04549783172
:1014C0002068884230D043499031206888422BD030
:1014D0004049A8312068884226D03F492068884288
:1014E00022D03D491831206888421DD03A49303118
:1014F0002068884218D0384948312068884213D083
:1015000035496031206888420ED0334978312068EF
:10151000884209D0304990312068884204D02E4951
:10152000A8312068884201D1012000E0002040B1AC
:10153000A66D94F85C0000F01F013F208840B06069
:1015400007E0A76D94F85C0000F01F0101208840BF
:10155000786020492068884276D01E49183120687A
:10156000884271D01B493031206888426CD01949BB
:1015700048312068884267D0164960312068884227
:1015800062D014497831206888425DD01149903189
:101590002068884258D00F49A8312068884253D02B
:1015A0000D49206888424FD00B4918312068884285
:1015B0004AD0094930312068884245D0064948312F
:1015C0002068884240D004496031206888423BD07E
:1015D000014905E01000024010040240085402587E
:1015E0007831206888422FD02549206888422BD046
:1015F000234918312068884226D022492068884231
:1016000022D020491431206888421DD01D4928313C
:101610002068884218D01B493C312068884213D08A
:1016200018495031206888420ED01649643120682C
:10163000884209D0134978312068884204D0114982
:101640008C312068884201D1012000E0002068B17F
:10165000D4E919104860E06E40B1E06E006820F4F3
:101660008070E16E0860D4E91C10486000BF002063
:1016700084F8340000BF012084F8350000209DE587
:10168000A00402400854025870B504460CB9012069
:1016900070BD94F83500022803D0802060650120D9
:1016A000F6E7DC492068884249D0DA4918312068D9
:1016B000884244D0D7493031206888423FD0D5494C
:1016C0004831206888423AD0D24960312068884247
:1016D00035D0D04978312068884230D0CD4990311A
:1016E000206888422BD0CB49A8312068884226D078
:1016F000C9492068884222D0C749183120688842E9
:101700001DD0C54930312068884218D0C2494831BF
:101710002068884213D0C0496031206888420ED0CA
:10172000BD4978312068884209D0BB499031206892
:10173000884204D0B849A8312068884201D10120EC
:1017400000E00020F0B3042084F83500B14920689F
:1017500088424BD0AF4918312068884246D0AD4905
:1017600030312068884241D0AA49483120688842F7
:101770003CD0A84960312068884237D0A5497831EB
:101780002068884232D0A3499031206888422DD009
:10179000A049A8312068884228D09F492068884203
:1017A00024D09D491831206888421FD09A49303191
:1017B000206888421AD0984948312068884215D05C
:1017C000954900E020E06031206888420ED09249BF
:1017D00078312068884209D08F499031206888424A
:1017E00004D08D49A8312068884206D1206800685D
:1017F00020F001002168086009E12068006820F0FD
:1018000001002168086002E12068006820F00E00F5
:10181000216808607F492068884249D07D49183195
:101820002068884244D07B493031206888423FD0CC
:1018300078494831206888423AD07649603120683A
:10184000884235D0734978312068884230D0714958
:101850009031206888422BD06E49A8312068884298
:1018600026D06D492068884222D06B491831206803
:1018700088421DD0684930312068884218D06649B6
:1018800048312068884213D063496031206888421B
:101890000ED0614978312068884209D05E49903184
:1018A0002068884204D05C49A8312068884206D16B
:1018B0002068006820F001002168086005E02068C9
:1018C000006820F0010021680860524920688842C1
:1018D00070D050491831206888426BD04D49303162
:1018E0002068884266D04B4948312068884261D0E0
:1018F00048496031206888425CD046497831206888
:10190000884257D0434990312068884252D041499B
:10191000A831206888424DD03F492068884249D08C
:101920003D4918312068884244D03B493031206815
:1019300088423FD038494831206888423AD03649F9
:1019400060312068884235D0334978312068884238
:1019500030D031499031206888422BD02E49A831AF
:101960002068884226D02D492068884222D02B4901
:101970001431206888421DD02849283120688842C7
:1019800018D026493C312068884213D02349503171
:10199000206888420ED0214964312068884209D0ED
:1019A0001E4978312068884204D01C498C31206857
:1019B000884201D1012000E00020D8B1206E0068EB
:1019C00020F48070216E0860A56D94F85C0000F032
:1019D0001F01012088406860D4E919104860E06E5A
:1019E00040B1E06E006820F48070E16E0860D4E9D8
:1019F0001C10486000BF002084F8340000BF0120A4
:101A000084F83500206D10B12046216D88470020F4
:101A10003EE6000010000240100402400854025844
:101A20002DE9F84F044600200090FE4800684FF46E
:101A30001651B0FBF1FAA66DD4F858803768D8F883
:101A40000090F9492068884249D0F7491831206848
:101A5000884244D0F4493031206888423FD0F2496E
:101A60004831206888423AD0EF4960312068884286
:101A700035D0ED4978312068884230D0EA4990313C
:101A8000206888422BD0E849A8312068884226D0B7
:101A9000E6492068884222D0E4491831206888420B
:101AA0001DD0E24930312068884218D0DF494831E2
:101AB0002068884213D0DD496031206888420ED00A
:101AC000DA4978312068884209D0D84990312068B5
:101AD000884204D0D549A8312068884201D101202C
:101AE00000E0002000287DD094F85C0000F01F0189
:101AF000082088403840002868D0CB4920688842B8
:101B000049D0C94918312068884244D0C64930318B
:101B1000206888423FD0C4494831206888423AD082
:101B2000C14960312068884235D0BF49783120688A
:101B3000884230D0BC499031206888422BD0BA49C5
:101B4000A8312068884226D0B8492068884222D02F
:101B5000B6491831206888421DD0B4493031206818
:101B6000884218D0B14948312068884213D0AF4923
:101B70006031206888420ED0AC49783120688842B4
:101B800009D0AA4990312068884204D0A749A831D9
:101B90002068884204D12068006800F0040003E057
:101BA0002068006800F0080080B12068006820F01C
:101BB00004002168086094F85C0000F01F01082010
:101BC0008840B060606D40F00100606594F85C0092
:101BD00000F01F01012088403840E8B39249206896
:101BE000884200E0B8E24BD08F4918312068884223
:101BF00046D08D4930312068884241D08A494831E9
:101C0000206888423CD0884960312068884237D0BB
:101C1000854978312068884232D0834990312068E4
:101C200088422DD08049A8312068884228D07F4939
:101C30002068884224D07D491831206888421FD00E
:101C40007A493031206888421AD078494831206872
:101C5000884215D0754900E026E06031206888424E
:101C60000ED0724978312068884209D06F4990318E
:101C70002068884204D06D49A8312068884204D188
:101C80002068406900F0800002E0206800680020C1
:101C900050B194F85C0000F01F0101208840B06052
:101CA000606D40F00200606594F85C0000F01F0178
:101CB000042088403840E8B35B49206888424BD014
:101CC000594918312068884246D057493031206838
:101CD000884241D054494831206888423CD052491A
:101CE00060312068884237D04F4978312068884277
:101CF00032D04D499031206888422DD04A49A831D0
:101D00002068884228D049492068884224D0474921
:101D10001831206888421FD04449303120688842F9
:101D20001AD0424948312068884215D03F49603175
:101D3000206800E024E088420ED03C4978312068D9
:101D4000884209D0394990312068884204D0374907
:101D5000A8312068884204D12068006800F00200A1
:101D600002E020680068002050B194F85C0000F0A8
:101D70001F0104208840B060606D40F00400606581
:101D800094F85C0000F01F01102088403840E8B350
:101D900025492068884251D023491831206888425B
:101DA0004CD0214930312068884247D01E49483103
:101DB0002068884242D01C496031206888423DD06A
:101DC000194978312068884238D017499031206805
:101DD000884233D01449A831206888422ED0134954
:101DE000206888422AD0114918312068884225D0BD
:101DF0000E4930312068884220D00C494831206893
:101E000088421BD009496031206800E04DE08842DB
:101E100014D006497831206888420FD003499031A8
:101E2000206805E000000024100002401004024079
:101E3000884203D0FE492068884204D120680068A7
:101E400000F0080003E02068006800F0040060B3C0
:101E500094F85C0000F01F0110208840B0602068FA
:101E6000006800F4802080B12068006800F4002041
:101E700028B9206CC8B12046216C884715E0A06CB9
:101E800098B12046A16C88470FE02068006800F4F4
:101E9000807028B92068006820F008002168086078
:101EA000206C10B12046216C884794F85C0000F04B
:101EB0001F0120208840384000287DD0DD4920685F
:101EC000884249D0DB4918312068884244D0D9493A
:101ED0003031206888423FD0D64948312068884256
:101EE0003AD0D44960312068884235D0D149783120
:101EF0002068884230D0CF499031206888422BD06A
:101F0000CC49A8312068884226D0C949A839206820
:101F1000884221D0C6499039206888421CD0C449E3
:101F200078392068884217D0C149603920688842D2
:101F300012D0BF494839206888420DD0BC49303999
:101F40002068884208D0BA4918392068884203D0EE
:101F5000B7492068884204D12068006800F010006A
:101F600003E02068006800F0020028B394F85C00E9
:101F700000F01F0120208840B06094F8350004284C
:101F80002DD12068006820F01600216808602068C4
:101F9000406920F0800021684861206C08B9A06C7D
:101FA00028B12068006820F008002168086094F8D3
:101FB0005C0000F01F0100E03FE03F208840B0607F
:101FC00000BF002084F8340000BF012084F83500F1
:101FD000206D10B12046216D8847BDE8F88F20683C
:101FE000006800F4802080B12068006800F40020C0
:101FF00028B9606C08B32046616C88471DE0E06B2F
:10200000D8B12046E16B884717E02068006800F4EB
:10201000807068B92068006820F0100021680860AE
:1020200000BF002084F8340000BF012084F8350090
:10203000E06B10B12046E16B8847606D00287DD0D1
:10204000606D00F00100E8B3042084F835007949A0
:10205000206888424BD0774918312068884246D0A2
:10206000744930312068884241D072494831206833
:1020700088423CD06F4960312068884237D06D4932
:1020800078312068884232D06A499031206888428D
:102090002DD06849A8312068884228D06449A839E1
:1020A0002068884223D062499039206888421ED037
:1020B0005F4978392068884219D05D4960392068C5
:1020C000884200E041E012D05949483920688842EE
:1020D0000DD0574930392068884208D05449183902
:1020E0002068884203D052492068884206D120687F
:1020F000006820F001002168086005E020680068A1
:1021000020F001002168086000BF0098401C00908A
:10211000504500D905E02068006800F00100002863
:10212000F3D100BF00BF002084F8340000BF206856
:10213000006800F0010028B1032000E00BE084F803
:10214000350002E0012084F83500E06C002802D060
:102150002046E16C8847D9E137492068884222D07F
:1021600035491431206888421DD033492831206810
:10217000884218D030493C312068884213D02E491B
:102180005031206888420ED02B4964312068884243
:1021900009D0294978312068884204D026498C31F9
:1021A0002068884201D1012000E000200028D2D020
:1021B0002068056894F85C0000F01F010420884046
:1021C00000EA0900D0B305F00400B8B394F85C004D
:1021D00000F01F0104208840C8F8040005F4004006
:1021E00080B105F4803030B9A06C0028B3D020460F
:1021F000A16C88478AE1206C0028ACD02046216C75
:10220000884783E105F02000F0BB0A492068884236
:1022100052D008491831206888424DD005493031E4
:102220002068884248D0034948312068884206E047
:10223000B804024010000240085402584FE03BD05E
:10224000B3492068884237D0B149183120688842A4
:1022500032D0AF493031206888422DD0AC49483166
:102260002068884228D0AB492068884224D0A949F8
:102270001831206888421FD0A64930312068884232
:102280001AD0A449483100E023E02068884213D0E6
:10229000A0496031206888420ED09E49783120687C
:1022A000884209D09B4990312068884204D09949DE
:1022B000A8312068884206D12068006820F0080014
:1022C0002168086005E02068006820F004002168AB
:1022D0000860206C10B32046216C884716E194F802
:1022E0005C0000F01F010220884000EA0900E8B30A
:1022F00005F00200D0B394F85C0000F01F0102204A
:102300008840C8F8040005F4004070B105F480303E
:1023100028B9606C10B12046616C8847F6E0E06B2C
:10232000F0B32046E16B8847F0E005F02000C0BB29
:1023300077496039206888424DD07549483920680E
:10234000884248D0724930392068884243D0704969
:102350001839206888423ED06D49206888423AD0BA
:102360006B4918312068884235D000E04EE068495A
:102370003031206888422ED0654948312068884233
:1023800029D064492068884225D0624918312068E4
:10239000884220D05F493031206888421BD001E05C
:1023A0006EE02DE05B4948312068884213D05949DE
:1023B0006031206888420ED05649783120688842C2
:1023C00009D0544990312068884204D05149A8313D
:1023D0002068884206D12068006820F01400216837
:1023E000086005E02068006820F00A0021680860A5
:1023F00000BF002084F8340000BF012084F83500BD
:10240000E06BE8B32046E16B88477FE094F85C001E
:1024100000F01F010820884000EA090080B305F0A1
:10242000080068B33A496039206888424AD0384980
:1024300048392068884245D035493039206888427B
:1024400040D033491839206888423BD03049206851
:10245000884237D02E4918312068884232D02C4922
:102460003031206888422DD029494831206888427F
:1024700028D028492068884224D02649183100E015
:1024800044E0206888421DD02249303120688842CB
:1024900018D0204948312068884213D01D49603146
:1024A000206888420ED01B4978312068884209D0C4
:1024B000184990312068884204D01649A831206814
:1024C000884206D12068006820F01C00216808605E
:1024D00005E02068006820F00E002168086094F88C
:1024E0005C0000F01F0101208840C8F804000120B2
:1024F000606500BF002084F8340000BF012084F82C
:102500003500E06C10B12046E16C884700BF64E5FF
:1025100070000240100402402DE9F041044600F032
:102520007BFD804614B90120BDE8F081FE4920689A
:10253000884249D0FC4918312068884244D0FA4981
:102540003031206888423FD0F749483120688842BE
:102550003AD0F54960312068884235D0F249783167
:102560002068884230D0F0499031206888422BD0D2
:10257000ED49A8312068884226D0EC49206888427D
:1025800022D0EA491831206888421DD0E74930310D
:102590002068884218D0E54948312068884213D025
:1025A000E2496031206888420ED0E04978312068E5
:1025B000884209D0DD4990312068884204D0DB4947
:1025C000A8312068884201D1012000E000200028C5
:1025D00073D0606A00B100BF00BF002084F83400EF
:1025E00000BF022084F83500CF492068884249D0D6
:1025F000CD4918312068884244D0CB493031206819
:1026000088423FD0C8494831206888423AD0C649FC
:1026100060312068884235D0C349783120688842CB
:1026200030D0C1499031206888422BD0BE49A831B2
:102630002068884226D0BD492068884222D0BB4904
:102640001831206888421DD0B8493031206888424E
:1026500018D0B64948312068884213D0B349603158
:10266000206888420ED0B14978312068884209D06C
:10267000AE4990312068884204D0AC49A831206826
:10268000884206D12068006820F0010021680860B7
:1026900005E02068006820F00100216808600DE076
:1026A00000F0BAFCA0EB0800052807D920206065DF
:1026B000032084F83500012036E745E020680068F3
:1026C00000F001000028EBD120680568984805401B
:1026D000D4E9020108432169084361690843A169FB
:1026E0000843E1690843216A08430543606A0428F6
:1026F00003D1D4E90B010843054320680560206835
:10270000456925F00705606A0543606A04280DD114
:10271000A06A0543E06A48B12046FEF739F828B1BF
:1027200040206065012084F83500FDE620684561A1
:102730002046FDF709FF064694F85C0000F01F01F3
:102740003F208840B0609EE07A492068884222D0CD
:1027500078491431206888421DD076492831206894
:10276000884218D073493C312068884213D071499F
:102770005031206888420ED06E496431206888420A
:1027800009D06C4978312068884204D069498C317D
:102790002068884201D1012000E00020E0B36549B3
:1027A0002068884222D063491431206888421DD0B5
:1027B000604928312068884218D05E493C31206841
:1027C000884213D05B495031206888420ED0594965
:1027D00064312068884209D056497831206888429F
:1027E00004D054498C312068884201D1012000E096
:1027F000002000B100BF00BF002084F8340000BFFB
:10280000022084F83500206805684B480540A06820
:10281000402802D1102106E02EE0A068802801D1D6
:10282000C10100E00021E06841EAD001206941EAED
:10283000D001606941EAD001A06941EAD001E069B4
:1028400041EAD001206A41EA101005432068056082
:1028500038492068401A1421B0FBF1F08000E0658F
:102860002046FDF771FE074694F85C0000F01F015A
:1028700001208840786006E040206065032084F8ED
:102880003500012050E62849206888427AD0264940
:1028900018312068884275D0234930312068884239
:1028A00070D021494831206888426BD01E49603180
:1028B0002068884266D01C4978312068884261D0FF
:1028C00019499031206888425CD01749A8312068A6
:1028D000884257D015492068884253D0134918318F
:1028E000206888424ED0114930312068884249D052
:1028F0000E4948312068884244D00C496031206834
:1029000088423FD009497831206888423AD0074947
:1029100090312068884235D00449A8312068884227
:1029200030D00449206809E0100002401004024041
:102930003F8010FE085402580F00FEFF884221D04D
:102940002649206888421DD02449143120688842D5
:1029500018D0224928312068884213D01F493C31C1
:10296000206888420ED01D4950312068884209D025
:102970001A4964312068884204D0184978312068A7
:10298000884201D1012000E0002000B32046FDF77D
:1029900051FEA068802801D1002060602079216E5E
:1029A0000860D4E919104860606860B16068082860
:1029B00009D82046FDF7A0FE0020E16E0860D4E9AA
:1029C0001C10486003E00020E0662067606700207C
:1029D0006065012084F835000020A5E51C540258EC
:1029E0002DE9F04104460D4616461F464FF00008FB
:1029F00014B90120BDE8F08100BF94F8340001282B
:102A000001D10220F6E7012084F8340000BF94F8D9
:102A1000350001287ED1022084F835000020606551
:102A2000E4492068884249D0E24918312068884248
:102A300044D0E0493031206888423FD0DD494831F8
:102A4000206888423AD0DB4960312068884235D01E
:102A5000D84978312068884230D0D64990312068F2
:102A600088422BD0D349A8312068884226D0D24949
:102A70002068884222D0D0491831206888421DD071
:102A8000CD4930312068884218D0CB494831206880
:102A9000884213D0C8496031206888420ED0C649A8
:102AA00078312068884209D0C34990312068884233
:102AB00004D0C149A8312068884206D12068006846
:102AC00020F001002168086005E02068006820F01F
:102AD0000100216808603B46324629462046FDF742
:102AE00025FFB449206888424BD0B249183120688C
:102AF000884246D0AF4930312068884241D0AD4944
:102B00004831206888423CD0AA4960312068884218
:102B100037D000E042E1A74978312068884230D0C0
:102B2000A4499031206888422BD0A249A83120685E
:102B3000884226D0A0492068884222D09E49183178
:102B4000206888421DD09C4930312068884218D0C6
:102B5000994948312068884213D0974960312068EC
:102B600088420ED0944978312068884209D0924931
:102B700090312068884204D08F49A831206888426B
:102B800001D1012000E0002080B12068006820F021
:102B90001E0040F0160021680860206CB0B120686B
:102BA000006840F00800216808600FE020680068B5
:102BB00020F00E0040F00A0021680860206C28B167
:102BC0002068006840F004002168086079492068A6
:102BD000884270D077491831206888426BD0754997
:102BE00030312068884266D0724948312068884276
:102BF00061D070496031206888425CD06D4978317D
:102C00002068884257D06B4990312068884252D062
:102C10006849A831206888424DD0674920688842B9
:102C200049D0654918312068884244D06249303122
:102C3000206888423FD060494831206888423AD0B5
:102C40005D4960312068884235D05B497831206821
:102C5000884230D058499031206888422BD056495C
:102C6000A8312068884226D054492068884222D062
:102C700052491431206888421DD0504928312068BB
:102C8000884218D04D493C312068884213D04B49C6
:102C90005031206888420ED048496431206888420B
:102CA00009D0464978312068884204D043498C31A4
:102CB0002068884201D1012000E0002090B1206E00
:102CC000006800F4803028B1206E006840F4807005
:102CD000216E0860E06E28B1E06E006840F48070FC
:102CE000E16E086033492068884249D03149183183
:102CF0002068884244D02F493031206888423FD034
:102D00002C494831206888423AD02A4960312068ED
:102D1000884235D0274978312068884230D025490B
:102D20009031206888422BD02249A83120688842FF
:102D300026D021492068884222D01F4918312068B6
:102D400088421DD01C4930312068884218D01A4969
:102D500048312068884213D0174960312068884282
:102D60000ED0154978312068884209D01249903137
:102D70002068884204D01049A8312068884206D1D2
:102D80002068006840F001002168086010E02068B9
:102D9000006840F001002168086009E000BF0020E1
:102DA00084F8340000BF4FF4006060654FF0010804
:102DB00040461FE61000024010040240085402582A
:102DC0000348006840F001000149086070470000B6
:102DD00020040058F8B502460023734DDEE00127B9
:102DE0009F400E6806EA0704002C71D04E68022E40
:102DF00002D04E68122E13D1DF0802F1200656F8D9
:102E000027005E07F70E0F26BE40B0435F07FF0E98
:102E10000E69BE403043DF0802F1200646F8270065
:102E200010685F000326BE40B0430E7906F003062B
:102E30005F00BE40304310604E68012E08D04E68DF
:102E4000022E05D04E68112E02D04E68122E13D1DC
:102E500090685F000326BE40B0435F00CE68BE406E
:102E600030439060506801269E40B0430E79C6F30F
:102E700000169E4030435060D0685F000326BE407D
:102E8000B0435F008E68BE403043D0604E6806F0AD
:102E90008056B6F1805F1BD100BF444E366846F0C5
:102EA0000206424F3E603E46366806F00206009635
:102EB00000BF00BF3E4E9F0856F827009E07370F01
:102EC0000F26BE40B0433B4EB24202D100262EE058
:102ED00063E0394EB24201D1012628E0374EB242BA
:102EE00001D1022623E0364EB24201D103261EE074
:102EF000344EB24201D1042619E0334EB24201D120
:102F0000052614E0314EB24201D106260FE0304EC4
:102F1000B24201D107260AE02E4EB24201D1082664
:102F200005E02D4EB24201D1092600E00A269F0796
:102F30003F0FBE4030431E4E9F0846F827002868CA
:102F4000A0434E6806F48036B6F5803F00D120439A
:102F500028606868A0434E6806F40036B6F5003F66
:102F600000D1204368604FF0B0463068A0434E68FF
:102F700006F48016B6F5801F00D120434FF0B0460E
:102F800030607068A0434E6806F40016B6F5001F66
:102F900000D120434FF0B04670605B1C0E68DE40ED
:102FA000002E7FF41CAFF8BD80000058F444025896
:102FB0000804005800000258000402580008025893
:102FC000000C025800100258001402580018025851
:102FD000001C0258002002580024025802461369BF
:102FE0000B400BB1012000E00020704742690A400D
:102FF0008A4202D10A04826100E0816170470AB10D
:10300000816101E00B0483617047000001480068A2
:10301000000C70470010005C014800687047000019
:103020001400002403480068034909780844014952
:1030300008607047140000241C00002410B505200F
:1030400000F00AF901F0CCFA10490968C1F3032134
:103050000F4A515C01F01F01C8400E4908600B483F
:10306000006800F00F001146085C00F01F010948DD
:103070000068C840084908600F2000F00FF808B148
:10308000012010BD00F09AF80020FAE71844025819
:10309000DA5B0008000000240400002470B5044638
:1030A0001148007808B9012070BD0F4800784FF42E
:1030B0007A71B1FBF0F00D490968B1FBF0F52846D3
:1030C00001F078FF08B10120EEE7102C07D20022B2
:1030D0002146501E00F083F80548046001E00120FD
:1030E000E2E70020E0E700001C00002400000024CC
:1030F000180000244178154A11600178F9B1121DB9
:1031000041681160017B0907C27A41EA0261827A53
:1031100041EAC241427B41EA8241827B41EA42412B
:10312000C27B41EA0241427A41EA0221027A41EA43
:10313000420102781143054A0832116005E000217E
:10314000024A121D1160121D1160704798ED00E0D7
:1031500000BF00BF00BFBFF35F8F00BF00BF00BF55
:103160000548006820F480300349086000200249C7
:10317000703108607047000024ED00E040F001016C
:103180000D4A11600C497039096841F480310A4ACE
:10319000703A116000BF00BF00BFBFF34F8F00BF88
:1031A00000BF00BF00BF00BF00BFBFF36F8F00BFF5
:1031B00000BF00BF7047000094ED00E0704701467B
:1031C0000846002809DB00F01F0301229A4043094A
:1031D0009B0003F1E023C3F8002100BF70472DE9F5
:1031E000F05F80460D46164602F01AFA0746394649
:1031F0002A46334601F00700C0F1070ABAF1040F6E
:1032000002D94FF0040A01E0C0F1070AD14600F1EB
:10321000040ABAF1070F02D24FF0000A01E0A0F150
:10322000030AD4464FF0010A0AFA09FAAAF1010A80
:103230000AEA020A0AFA0CFA4FF0010B0BFA0CFB2D
:10324000ABF1010B0BEA030B4AEA0B0421464046A3
:1032500002F0EEF9BDE8F09F00BF00F00702064B58
:1032600019684FF6FF031940044B0B4343EA022150
:10327000014B196000BF70470CED00E00000FA053B
:103280000348006840F08070014908607047000002
:103290000C48025810B501F0A3F907490968C1F3B9
:1032A0000321064A515C01F01F01C840044908602F
:1032B0000846006810BD000018440258DA5B000898
:1032C0000000002410B501F04FF905490968C1F369
:1032D0000211044A515C01F01F01C84010BD0000FA
:1032E00020440258DA5B000870B50146844D2D6811
:1032F00005F00303824D2D68C5F30530804D2D1D6B
:103300002D68C5F300147E4D14352D68C5F3CC052A
:1033100015FB04F501EE105AB8EE411AF0EE410A21
:1033200000286FD023B1012B4ED0022B6BD16BE064
:10333000734D283D2D68C5F340153DB3704D283DB4
:103340002D68C5F3C1066F4D25FA06F201EE102A6D
:10335000F8EE411A01EE100AB8EE411A81EE812A08
:103360009FED691AC0EE811A654D10352D68C5F3C1
:10337000080501EE105AB8EE411A31EE811AF7EE47
:10338000001A31EE211A22EE010A1CE001EE100AA9
:10339000B8EE411ADFED5D1A81EE812A9FED5A1ACF
:1033A000C0EE811A564D10352D68C5F3080501EEA3
:1033B000105AB8EE411A31EE811AF7EE001A31EECA
:1033C000211A22EE010A5BE001EE100AB8EE411A62
:1033D000DFED4F1A81EE812A9FED4B1AC0EE811A64
:1033E000474D10352D68C5F3080501EE105AB8EEAB
:1033F000411A31EE811AF7EE001A31EE211A22EE4F
:10340000010A3DE077E01DE001EE100AB8EE411A36
:103410009FED402AC2EE011A9FED3B1A80EE812AF1
:10342000374D10352D68C5F3080501EE105AB8EE7A
:10343000411A32EE011AB7EE002A31EE021A21EEDD
:10344000810A1DE001EE100AB8EE411ADFED301AD4
:1034500081EE812A9FED2C1AC0EE811A284D10357D
:103460002D68C5F3080501EE105AB8EE411A31EE89
:10347000811AF7EE001A31EE211A22EE010A00BF7E
:1034800000BF1F4D10352D68C5F3462501EE105ABB
:10349000B8EE411AF7EE001A31EE211AC0EE011A09
:1034A000BCEEE11A81ED001A154D10352D68C5F3FB
:1034B000064501EE105AB8EE411AF7EE001A31EE49
:1034C000211AC0EE011ABCEEE11A81ED011A0C4D71
:1034D00010352D68C5F3066501EE105AB8EE411A95
:1034E000F7EE001A31EE211AC0EE011ABCEEE11A15
:1034F00081ED021A03E000250D604D608D6070BD06
:10350000284402580090D003000000460024744C68
:103510000024744A0024F44A70B50146844D2D6895
:1035200005F00303824D2D68C5F30550804D2D1D18
:103530002D68C5F300247E4D1C352D68C5F3CC05E0
:1035400015FB04F501EE105AB8EE411AF0EE410AEF
:1035500000286FD023B1012B4ED0022B6BD16BE032
:10356000734D283D2D68C5F340153DB3704D283D82
:103570002D68C5F3C1066F4D25FA06F201EE102A3B
:10358000F8EE411A01EE100AB8EE411A81EE812AD6
:103590009FED691AC0EE811A654D18352D68C5F387
:1035A000080501EE105AB8EE411A31EE811AF7EE15
:1035B000001A31EE211A22EE010A1CE001EE100A77
:1035C000B8EE411ADFED5D1A81EE812A9FED5A1A9D
:1035D000C0EE811A564D18352D68C5F3080501EE69
:1035E000105AB8EE411A31EE811AF7EE001A31EE98
:1035F000211A22EE010A5BE001EE100AB8EE411A30
:10360000DFED4F1A81EE812A9FED4B1AC0EE811A31
:10361000474D18352D68C5F3080501EE105AB8EE70
:10362000411A31EE811AF7EE001A31EE211A22EE1C
:10363000010A3DE077E01DE001EE100AB8EE411A04
:103640009FED402AC2EE011A9FED3B1A80EE812ABF
:10365000374D18352D68C5F3080501EE105AB8EE40
:10366000411A32EE011AB7EE002A31EE021A21EEAB
:10367000810A1DE001EE100AB8EE411ADFED301AA2
:1036800081EE812A9FED2C1AC0EE811A284D183543
:103690002D68C5F3080501EE105AB8EE411A31EE57
:1036A000811AF7EE001A31EE211A22EE010A00BF4C
:1036B00000BF1F4D18352D68C5F3462501EE105A81
:1036C000B8EE411AF7EE001A31EE211AC0EE011AD7
:1036D000BCEEE11A81ED001A154D18352D68C5F3C1
:1036E000064501EE105AB8EE411AF7EE001A31EE17
:1036F000211AC0EE011ABCEEE11A81ED011A0C4D3F
:1037000018352D68C5F3066501EE105AB8EE411A5A
:10371000F7EE001A31EE211AC0EE011ABCEEE11AE2
:1037200081ED021A03E000250D604D608D6070BDD3
:10373000284402580090D003000000460024744C36
:103740000024744A0024F44A2DE9F041044600257F
:10375000A846206800F00060B0F1006F30D1606EC4
:1037600048B1B0F5801F0DD0B0F5001F10D0B0F5F6
:10377000401F15D113E0F948006840F40030F749C4
:1037800008600FE00221201D01F0D6FC054609E08B
:10379000022104F1240001F081FD054602E001E070
:1037A000012500BF00BF55B9EC482430006820F463
:1037B0004010616E0843E9492431086000E0A846E2
:1037C000208800F48070B0F5807F2DD1606D0528D1
:1037D0001AD2DFE800F0030A10171800DF4800686B
:1037E00040F40030DD49086010E00021201D01F0A8
:1037F000A3FC05460AE0002104F1240001F04EFD7F
:10380000054603E002E001E0012500BF00BF55B915
:10381000D2482430006820F00700616D0843CF498A
:103820002431086000E0A846208800F40070B0F55C
:10383000007F33D1A06D802817D003DC40B1402831
:103840001CD10CE0C02817D0B0F5807F16D114E051
:10385000C248006840F40030C049086010E0002110
:10386000201D01F069FC05460AE0002104F1240056
:1038700001F014FD054603E002E001E0012500BF70
:1038800000BF55B9B5482430006820F4E070A16D40
:103890000843B2492431086000E0A846208800F4BB
:1038A0008060B0F5806F38D1D4F8A400B0F5800FF7
:1038B00019D004DC50B1B0F5001F1DD10DE0B0F5FA
:1038C000C00F17D0B0F5000F16D114E0A348006860
:1038D00040F40030A149086010E00021201D01F0F3
:1038E0002BFC05460AE0002104F1240001F0D6FC7F
:1038F000054603E002E001E0012500BF00BF5DB91D
:1039000096482C30006820F46000D4F8A4100843D6
:1039100092492C31086000E0A846208800F400603D
:10392000B0F5006F38D1D4F8A800B0F1007F19D0FD
:1039300004DC50B1B0F1807F1DD10DE0B0F1407FCB
:1039400017D0B0F1806F16D114E08448006840F4BD
:1039500000308249086010E00021201D01F0ECFBDE
:1039600005460AE0002104F1240001F097FC054619
:1039700003E002E001E0012500BF00BF5DB9774828
:103980002C30006820F0E060D4F8A8100843734998
:103990002C31086000E0A846206800F00070B0F10B
:1039A000007F27D1A06CA0B1102804D0202809D016
:1039B00030280FD10CE06948006840F400306749B6
:1039C000086009E00221201D01F0B6FB054603E076
:1039D00002E001E0012500BF00BF55B95F4820307B
:1039E000006820F03000A16C08435C492031086079
:1039F00000E0A846208800F48050B0F5805F36D102
:103A0000E06DB0F5005F19D004DC50B1B0F5805F17
:103A10001DD10DE0B0F5405F17D0B0F5804F16D145
:103A200014E04E48006840F400304C49086010E053
:103A30000021201D01F080FB05460AE0002104F171
:103A4000240001F02BFC054603E002E001E0012523
:103A500000BF00BF55B941482430006820F4E04061
:103A6000E16D08433D492431086000E0A846208804
:103A700000F40050B0F5005F34D1206EB0F5403F47
:103A80001DD007DC68B1B0F5803F0BD0B0F5003F2A
:103A900018D10DE0B0F5802F12D0B0F5A02F11D1C4
:103AA0000FE011E00121201D01F046FB05460BE06F
:103AB000012104F1240001F0F1FB054604E003E0DC
:103AC00002E001E0012500BF00BF55B923482430C2
:103AD000006820F4E020216E08432049243108606A
:103AE00000E0A846208800F48040B0F5804F38D12F
:103AF000D4F8AC00B0F1405F1DD007DC68B1B0F184
:103B0000805F0BD0B0F1005F18D10DE0B0F1804FB5
:103B100012D0B0F1A04F11D10FE011E00121201D12
:103B200001F00AFB05460BE0012104F1240001F03D
:103B3000B5FB054604E003E002E001E0012500BF1B
:103B400000BF6DB905482C30006820F0E040D4F883
:103B5000AC10084301492C31086002E02C440258A3
:103B6000A846208800F40040B0F5004F26D1E06E52
:103B700098B1B0F1805F03D0B0F1005F0ED106E0E4
:103B8000F948006840F40030F749086008E0012176
:103B9000201D01F0D1FA054602E001E0012500BF39
:103BA00000BF55B9F0482430006820F04050E16E65
:103BB0000843ED492431086000E0A846206800F081
:103BC0008070B0F1807F27D1606CA0B1012804D053
:103BD000022809D003280FD10CE0E348006840F424
:103BE0000030E149086009E00221201D01F0A4FA3B
:103BF000054603E002E001E0012500BF00BF55B922
:103C0000D9482030006820F00300616C0843D64991
:103C10002031086000E0A846206800F48000B0F57C
:103C2000800F7DD1D148006840F48070CF49086092
:103C3000FFF7F2F9064606E0FFF7EEF9801B64286D
:103C400001D9032505E0C948006800F48070002808
:103C5000F2D000BF85BBC4484430006800F4407017
:103C6000B4F8B01001F44071884213D0BE4844301B
:103C7000006820F44077BC484430006840F480304D
:103C8000B949443108600846006820F48030086073
:103C900008460760D4F8B000B0F5807F15D1FFF773
:103CA000BBF9064609E0FFF7B7F9801B41F28831FE
:103CB000884202D9032507E038E0AB484430006869
:103CC000C0F340000028EED000BF55BB00BFB4F8E1
:103CD000B00000F44070B0F5407F0ED1A2481C380F
:103CE000006820F47C51A24AD4F8B000104041EAA8
:103CF00010109D491C39086007E09B481C3800687B
:103D000020F47C5098491C3908609748443000687A
:103D1000B4F8B010C1F30B0108439349443101E0FA
:103D200005E001E0086002E0A84600E0A84620782F
:103D300000F0010068B3A06F182819D005DC48B165
:103D4000082808D0102816D10BE0202811D02828E8
:103D500011D10FE011E00121201D01F0EDF9054620
:103D60000BE0012104F1240001F098FA054604E07B
:103D700003E002E001E0012500BF00BF55B97A4829
:103D80002830006820F03800A16F084376492831B8
:103D9000086000E0A846207800F00200022828D140
:103DA000606F062815D2DFE800F003040A11121331
:103DB00011E00121201D01F0BFF905460BE00121B2
:103DC00004F1240001F06AFA054604E003E002E091
:103DD00001E0012500BF00BF55B9634828300068E5
:103DE00020F00700616F08435F492831086000E058
:103DF000A846207800F0040004282AD1D4F89000C6
:103E0000062815D2DFE800F003040A11121311E0AE
:103E10000121201D01F090F905460BE0012104F17C
:103E2000240001F03BFA054604E003E002E001E073
:103E3000012500BF00BF5DB94B482C30006820F061
:103E40000700D4F89010084347492C31086000E07F
:103E5000A846207800F02000202836D1D4F88C0025
:103E6000B0F1405F1DD007DC68B1B0F1805F0BD0CE
:103E7000B0F1005F18D10DE0B0F1804F12D0B0F179
:103E8000A04F11D10FE011E00021201D01F054F9E5
:103E900005460BE0022104F1240001F0FFF905467C
:103EA00004E003E002E001E0012500BF00BF5DB9CE
:103EB0002D482830006820F0E040D4F88C100843EA
:103EC00029492831086000E0A846207800F0400029
:103ED000402836D1D4F89800B0F5406F1DD007DCEB
:103EE00068B1B0F5806F0BD0B0F5006F18D10DE060
:103EF000B0F5805F12D0B0F5A05F11D10FE011E0F6
:103F00000021201D01F018F905460BE0022104F103
:103F1000240001F0C3F9054604E003E002E001E0FB
:103F2000012500BF00BF5DB90F482C30006820F4A8
:103F3000E050D4F8981008430B492C31086000E099
:103F4000A846207800F0800080283AD1D4F89C0060
:103F5000B0F5C04F23D00DDC98B1B0F5005F11D0A3
:103F6000B0F5804F1ED113E02C440258004802588F
:103F7000FFFCFF0FB0F5004F12D0B0F5204F11D16C
:103F80000FE011E00021201D01F0D6F805460BE0FE
:103F9000022104F1240001F081F9054604E003E068
:103FA00002E001E0012500BF00BF4DB9AD48006847
:103FB00020F46040D4F89C100843AA49086000E04F
:103FC000A846207800F00800082817D1D4F880000F
:103FD000B0F5805F07D1022104F1240001F05EF901
:103FE00008B14FF001089F48001F006820F44050BE
:103FF000D4F8801008439B49091F0860207800F01E
:104000001000102815D1D4F89400B0F5807F07D1A6
:10401000022104F1240001F041F908B14FF0010838
:104020009048006820F44070D4F8941008438D49FB
:104030000860206800F40020B0F5002F26D1D4F8E5
:10404000A00030B1B0F5803F09D0B0F5003F0ED1EF
:104050000CE00021201D01F06FF8054609E0022167
:1040600004F1240001F01AF9054602E001E00125FF
:1040700000BF00BF4DB97B48006820F44030D4F841
:10408000A01008437749086000E0A846206800F4C3
:104090008020B0F5802F2DD1D4F88400B0F5801F9A
:1040A00006D0B0F5001F0CD0B0F5401F11D10FE0C5
:1040B0006C482C38006840F400306A492C3908609C
:1040C00009E0012104F1240001F0E8F8054602E0CE
:1040D00001E0012500BF00BF5DB96248001F006814
:1040E00020F44010D4F8841008435E49091F08608A
:1040F00000E0A846206800F48030B0F5803F24D16D
:10410000E06C18B1B0F5803F0FD108E055482C386D
:10411000006840F4003053492C39086007E0022160
:10412000201D01F009F8054601E0012500BF00BF90
:1041300055B94C480C38006820F48030E16C0843D5
:1041400048490C39086000E0A846206800F000509B
:10415000B0F1005F07D1022104F1240001F09EF8C4
:1041600008B14FF00108206800F40030B0F5003FBE
:1041700027D1E06FA0B1B0F5807F06D0B0F5007F09
:104180000CD0B0F5407F0CD109E036482C380068DF
:1041900040F4003033492C39086004E003E002E0C9
:1041A00001E0012500BF00BF55B92E48001F00687F
:1041B00020F44070E16F08432A49091F086000E0BD
:1041C000A846206800F48010B0F5801F09D125486A
:1041D0000838006820F00040216F08432149083961
:1041E0000860206800F40010B0F5001F09D11D48D8
:1041F0000838006820F08070A16E0843194908391A
:104200000860206800F08040B0F1804F11D100BFFD
:1042100014484838006820F40040124948390860C2
:1042200008460068D4F8B81008430E4948390860B9
:1042300000BF206800F00040B0F1004F09D10948EC
:104240000C38006820F04050216D084305490C39B6
:104250000860B8F1000F02D10020BDE8F081012014
:10426000FBE70000584402582DE9F04104460D4692
:1042700014B90120BDE8F081B648006800F00F00D5
:10428000A8420ED2B348006820F00F002843B1497D
:1042900008600846006800F00F00A84201D0012025
:1042A000E8E7207800F0040004280ED1AA4920692C
:1042B000096801F07001884207D9A748006820F01A
:1042C000700021690843A4490860207800F00800C4
:1042D000082811D1A049091D6069096801F0700121
:1042E000884209D99C48001D006820F0700061696F
:1042F00008439949091D0860207800F01000102833
:1043000011D19549091DA069096801F4E06188424D
:1043100009D99148001D006820F4E060A1690843B4
:104320008D49091D0860207800F02000202811D157
:1043300089490831E069096801F07001884209D9AA
:1043400085480830006820F07000E1690843824920
:1043500008310860207800F0020002280ED17E4962
:10436000E068096801F00F01884207D97A480068BF
:1043700020F00F00E168084377490860207800F0DA
:104380000100002850D07448006820F47060A168D3
:104390000843714908606068022807D16E481838E0
:1043A0000068C0F34040F8B9012063E76068032863
:1043B00007D1694818380068C0F34060A0B90120EF
:1043C00058E76068012807D1634818380068C0F3CF
:1043D000002048B901204DE75F4818380068C0F355
:1043E000800008B9012045E75B480838006820F0E4
:1043F000070061680843584908390860FEF70CFE59
:10440000064608E0FEF708FE801B41F2883188422C
:1044100001D903202EE750480838006800F0380022
:104420006168B0EBC10FEDD1207800F002000228E6
:104430000ED14949E068096801F00F01884207D2AE
:104440004548006820F00F00E168084342490860D1
:104450004048006800F00F00A8420ED93D480068AF
:1044600020F00F0028433B4908600846006800F030
:104470000F00A84201D00120FCE6207800F00400E3
:1044800004280ED134492069096801F0700188427E
:1044900007D23148006820F07000216908432E4996
:1044A0000860207800F00800082811D12A49091D69
:1044B0006069096801F07001884209D22648001D30
:1044C000006820F07000616908432349091D0860F5
:1044D000207800F01000102811D11F49091DA06993
:1044E000096801F4E061884209D21B48001D006898
:1044F00020F4E060A16908431749091D086020788D
:1045000000F02000202811D113490831E069096822
:1045100001F07001884209D20F480830006820F08D
:104520007000E16908430C490831086000F058F850
:1045300009490968C1F30321084A515C01F01F01D0
:10454000C8400749086007480068FEF7A7FD07460E
:1045500038468FE60020005218440258DA5B000803
:10456000000000241800002410B5FEF793FE074950
:10457000096801F00F01064A515C01F01F01C840B3
:10458000044908600846006810BD0000184402583D
:10459000DA5B00080400002410B5FFF7E5FF0549C9
:1045A0000968C1F30211044A515C01F01F01C840BF
:1045B00010BD00001C440258DA5B000810B5FFF77C
:1045C000D3FF05490968C1F30221044A515C01F097
:1045D0001F01C84010BD00001C440258DA5B0008EF
:1045E000F0B5824E366806F0380636B1082E15D082
:1045F000102E15D0182E7DD114E07C4E103E36685A
:10460000C6F3401646B1794E103E3668C6F3C10770
:10461000774E26FA07F000E07548E5E07548E3E0DC
:104620007548E1E0714E1836366806F003046F4EA7
:1046300018363668C6F305116C4E1C36366806F01F
:1046400001056A4E24363668C6F3CC0616FB05F61D
:1046500001EE106AB8EE410A002971D024B1012C94
:1046600050D0022C6DD16DE0604E103E3668C6F31E
:1046700040163EB35D4E103E3668C6F3C1075C4E31
:1046800026FA07F301EE103AF8EE411A01EE101A7D
:10469000B8EE411A81EE812A9FED581AC0EE011A38
:1046A000524E20363668C6F3080601EE106AB8EEA0
:1046B000411A31EE811AF7EE001A31EE211A62EE3C
:1046C000010A1EE001EE101AB8EE411ADFED4C1A95
:1046D00081EE812A9FED491AC0EE011A434E203621
:1046E0003668C6F3080601EE106AB8EE411A31EEDC
:1046F000811A00E076E0F7EE001A31EE211A62EE40
:10470000010A5BE001EE101AB8EE411A9FED3D2A56
:10471000C2EE011A9FED391A80EE012A334E20367F
:104720003668C6F3080601EE106AB8EE411A32EE9A
:10473000011AB7EE002A31EE021A61EE810A3DE05D
:104740004EE01DE001EE101AB8EE411ADFED2E1A10
:1047500081EE812A9FED291AC0EE011A234E2036E0
:104760003668C6F3080601EE106AB8EE411A31EE5B
:10477000811AF7EE001A31EE211A62EE010A1DE0ED
:1047800001EE101AB8EE411A9FED1E2AC2EE011A70
:104790009FED1A1A80EE012A144E20363668C6F3B1
:1047A000080601EE106AB8EE411A32EE011AB7EEB1
:1047B000002A31EE021A61EE810A00BF00BF0B4EE3
:1047C00020363668C6F34626721C01EE102AB8EE73
:1047D000411AC0EE811ABCEEE11A11EE100A00E097
:1047E000002001E0034800BF00BFF0BD10440258A4
:1047F0000090D00300093D0000127A00000000463E
:104800000024744C0024744A0024F44A2DE9F04733
:10481000044614B90120BDE8F087207800F00100BB
:10482000002872D0F948006800F03808F7481830BE
:10483000D0F80090B8F1100F06D0B8F1180F0FD1D2
:1048400009F0030002280BD1F04810380068C0F3CB
:10485000404000286ED0606800286BD10120DAE764
:1048600000BF6068B0F5803F08D1E84810380068A4
:1048700040F48030E549103908602EE0606868B97E
:10488000E2481038006820F48030E04910390860B0
:104890000846006820F4802008601EE06068B0F5DB
:1048A000A02F0DD1D9481038006840F48020D74996
:1048B000103908600846006840F4803008600CE059
:1048C000D2481038006820F48030D0491039086090
:1048D0000846006820F48020086000BF6068A8B126
:1048E000FEF79AFB054608E0FEF796FB401B41F2F7
:1048F0008831884201D903208DE7C4481038006808
:10490000C0F340400028EFD014E014E0FEF784FB31
:10491000054608E0FEF780FB401B41F288318842E3
:1049200001D9032077E7B94810380068C0F3404048
:104930000028EFD100BF207800F0020002286BD1E0
:10494000B248006800F03808B0481830D0F800903D
:10495000B8F1000F05D0B8F1180F2BD109F0030002
:1049600040BBAA4810380068C0F3800018B1E06866
:1049700008B901204FE700BFFEF748FB41F20301F1
:1049800088420BD8A1480C38006820F47C3021699B
:1049900040EA01309D490C3908600AE09B480C3818
:1049A000006820F0FE40217C40EA016097490C3904
:1049B000086058E0E06870B394481038006820F050
:1049C0001900E1680843914910390860FEF724FB9B
:1049D000054606E0FEF720FB401B022801D9032014
:1049E00019E78A4810380068C0F380000028F1D029
:1049F00000BFFEF70BFB41F2030188420DD883484C
:104A00000C38006820F47C30216940EA01307F498D
:104A10000C3908600CE00CE026E07C480C3800689B
:104A200020F0FE40217C40EA016078490C390860A2
:104A300019E076481038006820F0010073491039F9
:104A40000860FEF7E9FA054606E0FEF7E5FA401BC6
:104A5000022801D90320DEE66C4810380068C0F354
:104A600080000028F1D100BF207800F0100010284D
:104A70006ED16648006800F0380864481830D0F8F5
:104A80000090B8F1080F06D0B8F1180F2FD109F037
:104A9000030001282BD15D4810380068C0F30020C6
:104AA00020B1E069802801D00120B4E600BFFEF704
:104AB000ADFA41F2030188420CD854480C38006822
:104AC00020F0F84094F8201040EA81604F490C39FA
:104AD00008600BE04D48001F006820F07C5094F8FF
:104AE000201040EA01604949091F086058E0E06968
:104AF00068B346481038006840F0800043491039D8
:104B00000860FEF789FA054606E0FEF785FA401BC5
:104B1000022801D903207EE63C4810380068C0F323
:104B200000200028F1D000BFFEF770FA41F2030127
:104B300088420ED835480C38006820F0F84094F8C8
:104B4000201040EA816031490C3908600DE00DE029
:104B500027E02E48001F006820F07C5094F82010B9
:104B600040EA01602949091F086019E02748103808
:104B7000006820F08000254910390860FEF74CFAE3
:104B8000054606E0FEF748FA401B022801D903203B
:104B900041E61E4810380068C0F300200028F1D11B
:104BA00000BF207800F00800082837D16069D0B134
:104BB00016486430006840F0010014496431086010
:104BC000FEF72AFA054606E0FEF726FA401B022801
:104BD00001D903201FE60D4864300068C0F340008F
:104BE0000028F1D01AE009486430006820F0010084
:104BF000064964310860FEF70FFA054608E0FEF743
:104C00000BFA401B022803D9032004E61044025883
:104C1000DC480068C0F340000028F0D1207800F0A4
:104C20002000202836D1A069D0B1D6487438006859
:104C300040F48050D34974390860FEF7EDF9054619
:104C400006E0FEF7E9F9401B022801D90320E2E55E
:104C5000CC4874380068C0F340300028F1D019E027
:104C6000C8487438006820F48050C6497439086018
:104C7000FEF7D2F9054606E0FEF7CEF9401B022802
:104C800001D90320C7E5BF4874380068C0F340303D
:104C90000028F1D1207800F0040004287DD1BA4822
:104CA000006840F48070B8490860FEF7B5F9054621
:104CB00006E0FEF7B1F9401B642801D90320AAE5FC
:104CC000B148006800F480700028F2D000BFA068EE
:104CD000012808D1AB48001F006840F00100A94935
:104CE000091F08602DE0A06868B9A648001F006889
:104CF00020F00100A349091F08600846006820F061
:104D0000040008601DE0A06805280DD19D48001F23
:104D1000006840F004009B49091F086008460068CD
:104D200040F0010008600CE09648001F006820F089
:104D300001009449091F08600846006820F004003B
:104D4000086000BFA068A0B1FEF766F9054608E05C
:104D5000FEF762F9401B41F28831884201D90320F5
:104D600059E58848001F0068C0F340000028EFD0D4
:104D700013E0FEF751F9054608E0FEF74DF9401B38
:104D800041F28831884201D9032044E57D48001F63
:104D90000068C0F340000028EFD1606A00287DD091
:104DA00078486438006800F03800182877D0606AC6
:104DB000022875D173487438006820F080707149FA
:104DC00074390860FEF728F9054606E0FEF724F975
:104DD000401B022801D903201DE56A487438006889
:104DE000C0F340600028F1D100BFD4E90A1041EAC5
:104DF000001064494C39096840F2F332914308438A
:104E000060494C390860208E401EC0F30800616B79
:104E1000491E4FF47E4202EA41210843218F491E78
:104E2000D20102EA014108433C21095D491E1202F8
:104E300002EA0161084353494439086000BF081F72
:104E4000006820F00100091F08604E4840380068E3
:104E50004FF6F8718843A16C40EAC10049494039D6
:104E6000086048484838006820F00C00216C08436E
:104E70004449483908600846006820F00200616C27
:104E800008434049483908600846006840F48030CB
:104E900008600846006840F4003002E06FE041E03E
:104EA00025E008600846006840F480200860084655
:104EB000006840F00100086032487438006840F033
:104EC0008070304974390860FEF7A6F8054606E0A0
:104ED000FEF7A2F8401B022801D903209BE42948D1
:104EE00074380068C0F340600028F1D047E02548DE
:104EF0007438006820F08070224974390860FEF729
:104F00008BF8054606E0FEF787F8401B022801D91A
:104F1000032080E41B4874380068C0F34060002818
:104F2000F1D12CE017484C38076816484438066819
:104F3000606A012821D007F00301A06A81421CD1D8
:104F4000C7F30511E06A884217D1C6F30801206B48
:104F5000401E814211D1606B401EC6F3462188423B
:104F60000BD1A06B401EC6F30641884205D1E06B11
:104F7000401EC6F30661884201D001204BE40020A8
:104F800049E400007444025800480258042808D13B
:104F90004FF0E021096941F004014FF0E022116176
:104FA00007E04FF0E021096921F004014FF0E02211
:104FB0001161704770B504462546681EB0F1807FC8
:104FC00001D301200FE0681E4FF0E02148610F215E
:104FD0004FF0FF3000F02CFB00204FF0E021886103
:104FE00007200861002070BD10B586B004462B492B
:104FF0002068884250D100BF00BF2948006840F0B7
:105000001000274908600846006800F01000009072
:1050100000BF00BF00BF00BF00BF214810380068BC
:1050200040F001001E49103908600846006800F091
:105030000100009000BF00BF00BF00BF00BF0846D6
:10504000006840F0010008600846006800F00100B8
:10505000009000BF00BF00BF4FF40070019002201D
:10506000029001200390022004900720059001A9DE
:105070000C48FDF7AFFE4FF48060019007200590CB
:1050800001A90848FDF7A6FE2520FEF798F803229F
:1050900011462520FEF7A3F806B010BD0010014010
:1050A000F0440258000002581D4A0168914236D16E
:1050B0001C49098801F4004189BB1A49098801F497
:1050C000804171B1184909780A2903D00021154A95
:1050D000118024E01349098841F40041114A1180EC
:1050E0001DE0114909780D2906D10E49098841F4BE
:1050F00080410C4A118012E00B490978094A128854
:10510000C2F30D02094B995406490988491C054A06
:10511000118011460988C72901DD002111807047DF
:105120000010014010000024120000242800002478
:1051300000BFFEE7704770472DE9F04104460E4678
:1051400000275548006800F00300032802D1012021
:10515000BDE8F08150482838006820F080604E4952
:1051600028390860FDF758FF054606E0FDF754FFB3
:10517000401B022801D90320EAE747482838006885
:10518000C0F3C0600028F1D100BF4348006820F49C
:105190007C30216840EA01303F490860A088401E09
:1051A000C0F30800A168491E4FF47E4202EA412183
:1051B0000843A189491ED20102EA01410843217C2A
:1051C000491E120202EA01610843334910310860A6
:1051D00000BF3148001D006820F0C000616908432D
:1051E0002D49091D08600846006820F02000A169CB
:1051F00008432949091D08600846006820F010008E
:1052000008602548143000684FF6F8718843E1695A
:1052100040EAC1002049143108601F48001D0068A1
:1052200040F010001C49091D08602EB908460068AE
:1052300040F40020086012E0012E08D11648001D3D
:10524000006840F480101449091D086007E0124806
:10525000001D006840F400100F49091D08600E4849
:105260002838006840F080600B4928390860FDF755
:10527000D3FE054606E0FDF7CFFE401B022801D90C
:10528000032065E7044828380068C0F3C0600028A0
:10529000F1D038465CE70000284402582DE9F0417F
:1052A00004460E4600275548006800F00300032816
:1052B00002D10120BDE8F08150482838006820F074
:1052C00080504E4928390860FDF7A6FE054606E0E5
:1052D000FDF7A2FE401B022801D90320EAE7474858
:1052E00028380068C0F340700028F1D100BF43485F
:1052F000006820F07C70218840EA01503F49086036
:10530000A088401EC0F30800A168491E4FF47E42E9
:1053100002EA41210843A189491ED20102EA014162
:105320000843217C491E120202EA01610843334905
:105330001831086000BF3148001D006820F440604B
:10534000616908432D49091D08600846006820F47A
:105350000070A16908432949091D086008460068D2
:1053600020F48070086025481C3000684FF6F87102
:105370008843E16940EAC10020491C3108601F48A8
:10538000001D006840F480701C49091D08602EB99A
:105390000846006840F48000086012E0012E08D141
:1053A0001648001D006840F400001449091D0860FB
:1053B00007E01248001D006840F080700F49091D89
:1053C00008600E482838006840F080500B492839A2
:1053D0000860FDF721FE054606E0FDF71DFE401BB7
:1053E000022801D9032065E7044828380068C0F383
:1053F00040700028F1D038465CE70000284402588D
:1054000010B50023234C236000BF00BF00BFBFF3D3
:105410004F8F00BF00BF00BF231F1868C0F34E317D
:1054200000BFC0F3C90200BF43F6E07303EA4113B3
:105430004FF0404404EA82742343174C236000BFBA
:1054400000BF131EA2F10102EED10B1EA1F101015A
:10545000E7D100BF00BF00BFBFF34F8F00BF00BF49
:1054600000BF0C4B703B1B6843F48033094C703C0D
:10547000236000BF00BF00BFBFF34F8F00BF00BF5E
:1054800000BF00BF00BF00BFBFF36F8F00BF00BFF2
:1054900000BF10BD84ED00E060EF00E000BF00BF82
:1054A00000BFBFF34F8F00BF00BF00BF00BF00BFF2
:1054B00000BFBFF36F8F00BF00BF00BF00201449C3
:1054C000086000BF00BF00BFBFF34F8F00BF00BF29
:1054D00000BF00BF00BF00BFBFF36F8F00BF00BFA2
:1054E00000BF0C48006840F400300A49086000BF63
:1054F00000BF00BFBFF34F8F00BF00BF00BF00BFA2
:1055000000BF00BFBFF36F8F00BF00BF00BF704779
:1055100050EF00E014ED00E0704710B5FDF782FD9C
:1055200010BD00002448006840F470002249086063
:105530002248006840F001002049086000201F490F
:10554000103108601D4800681D4908401B4908606B
:1055500000201A4918310860091D0860091D0860FB
:10556000164928310860091D0860091D0860091DD9
:105570000860091D0860091D0860091D0860091DF3
:1055800008600E48006820F480200C490860002064
:105590000A49603108600B4800686FF30F00B0F1F2
:1055A000005F02D20120084908604FF00060024904
:1055B000803908607047000088ED00E00044025820
:1055C0007FEDF6EA0010005C0881005170B5002400
:1055D0000F4D1048FAF77EFF00BF03E0641CAC4299
:1055E00000D904E00B48FAF77AFF2028F6D100BF73
:1055F000002403E0641CAC4200D906E00122064905
:105600000448FAF771FF0028F4D100BF70BD000014
:10561000FFFF0100F00000241200002400BFFEE79D
:1056200002480068C0F30220704700000CED00E063
:1056300010B5002804DB0A07130E054A135406E0D0
:105640000A07140E034A00F00F031B1FD45410BDA9
:1056500000E400E018ED00E000BF704710B504461C
:105660000420FFF793FC0148046010BD08000024EB
:1056700070B504461E2094FBF0F594FBF0F100FB9E
:10568000114604E047F2305000F00CF86D1E002D7A
:10569000F8D12EB14FF47A7106FB01F000F002F858
:1056A00070BD000070B5034600224FF0E02675691A
:1056B0000D4E366803FB06F44FF0E026B16910E0AA
:1056C0004FF0E026B06988420BD0884202D20E1A11
:1056D000324402E02E1A0E4432440146A24200D364
:1056E00000E0EDE700BF70BD0800002400BF054AE0
:1056F000D26902F04002002AF9D0C2B2014B9A628C
:10570000704700000010014010B500F097F8FDF759
:1057100095FC042302221146F02000F089F94FF491
:10572000F070FFF79BFF4FF4E13000F035FAFAF725
:10573000E0FEFAF7E3FEFAF7E6FEFAF7E9FE00F01C
:1057400005F8FAF7EAFE002010BD00000EB54FF490
:1057500078401DA120221346CDE900210290DC22D1
:105760000A210846FAF7DEFE4FF4784018A1182205
:105770001346CDE900210290DC222F210A20FAF7FE
:10578000D1FE4FF4784015A110221346CDE9002137
:105790000290DC224C210A20FAF7C4FE13A0FAF78B
:1057A000C6FE13A0FAF7C3FE1AA0FAF7C0FE1BA0AC
:1057B000FAF7BDFE1DA0FAF7BAFE0DA0FAF7B7FE84
:1057C00013A0FAF7B4FE0EBD53544D33320000005F
:1057D00041544B2D4D4335363430000041544F4D2C
:1057E00040414C49454E54454B0000000A00000022
:1057F0002A2A2A2A2A2A2A2A2A2A2A2A2A2A2A2A09
:105800002A2A2A2A2A2A2A2A2A2A2A2A2A2A2A2AF8
:105810000D0A000053544D33320D0A0041544B2DF4
:105820004D43353634300D0A0000000041544F4DD1
:1058300040414C49454E54454B0D0A0010B5FFF709
:105840002DFEFFF7DDFD0348006840F0040001492C
:10585000086010BD9CEF00E030B587B0054600241D
:1058600000BF6A48006840F00200684908600846C6
:10587000006800F00200019000BF00BF00BF0846B2
:10588000006840F0080008600846006800F0080062
:10589000019000BF00BF00BF0846006840F0100044
:1058A00008600846006800F01000019000BF00BFCB
:1058B00000BF56480C38006840F4804053490C390A
:1058C00008600846006800F48040019000BF00BFF7
:1058D00040200290022003900320059001200490B4
:1058E0000A20069002A94A48FDF774FA04200290A3
:1058F0000920069002A94648FDF76CFA4FF4605063
:1059000002900920069002A94248FDF763FA04209C
:1059100002900920069002A93F48FDF75BFA3B4838
:105920006438006840F480403849643908600846AB
:10593000006820F48040086000BF3848806800F0AC
:1059400020000028F9D136483449086035484860BD
:105950000846006840F00100086000BF2F488068DA
:1059600000F020000028F9D14FF483702B494861E2
:1059700000BF2A48806800F002000028F9D02748BC
:10598000C06840F002002549C86000BF2348806815
:1059900000F020000028F9D12049C861EB2444F42C
:1059A000807444F44064A81C44EA003444F4404445
:1059B00000BF44F4801444F0407444F0406408464E
:1059C00044611948006820F480301749086016487F
:1059D0007030006820F00100134970310860002029
:1059E000091D08604FF01040091D08600F48091D8F
:1059F000086005200C49703108600B48006840F4CD
:105A000080300949086007B030BD0000E04402580A
:105A100000040258000C02580010025800500052B6
:105A2000100300010102180024ED00E02D00030323
:105A30002DE9F041CCB080460D4616461F460024A5
:105A40005148006820F004004F49086000BF002062
:105A500001904E48006820F001004C49086008465B
:105A6000006800F00100019047480C30006840F4E5
:105A7000404045490C3108600846006800F4404049
:105A8000019000BF00BF00BF3F480C30006800F429
:105A90000050B0F5005FF7D1212031904FF48030F5
:105AA00032900020349038900120379002203A90B4
:105AB000022131A88162CDF8F480C5624663876314
:105AC000002141640821016400218164FEF79EFEEB
:105AD00004461CB101204CB0BDE8F0813F20449049
