:020000040800F2
:1000000050090120690200088D0200088F020008D3
:10001000F1350090930200089502000800000000EE
:10002000000000000000000000000000970200082F
:1000300099020008000000009B0200089D020008D1
:100040009F0200089F0200089F0200089F0200080C
:100050009F0200089F0200089F0200089F020008FC
:100060009F0200089F0200089F0200089F020008EC
:100070009F0200089F0200089F0200089F020008DC
:100080009F0200089F0200089F0200089F020008CC
:100090009F0200089F0200089F0200089F020008BC
:1000A0009F0200089F0200089F0200089F020008AC
:1000B0009F0200089F0200089F0200089F0200089C
:1000C0009F0200089F0200089F0200089F0200088C
:1000D0009F0200088D0A00089F0200089F02000886
:1000E0009F0200089F0200089F0200089F0200086C
:1000F0009F0200089F0200089F0200089F0200085C
:100100009F0200089F0200089F0200089F0200084B
:100110009F0200089F0200089F0200089F0200083B
:100120009F0200089F0200089F0200089F0200082B
:100130009F0200089F0200089F0200089F0200081B
:100140009F0200089F0200089F0200089F0200080B
:100150009F0200089F0200089F0200089F020008FB
:100160009F0200089F0200089F0200089F020008EB
:100170009F0200089F0200089F0200089F020008DB
:100180009F0200089F0200089F0200089F020008CB
:100190009F0200089F0200089F0200089F020008BB
:1001A0009F0200089F0200089F0200089F020008AB
:1001B0009F0200089F0200089F0200089F0200089B
:1001C0009F0200089F02000800F002F800F03CF8CF
:1001D0000AA090E8000C82448344AAF10107DA45A2
:1001E00001D100F031F8AFF2090EBAE80F0013F0B8
:1001F000010F18BFFB1A43F0010318479C0C0000C5
:10020000BC0C0000103A24BF78C878C1FAD8520755
:1002100024BF30C830C144BF04680C607047000080
:100220000023002400250026103A28BF78C1FBD8FF
:10023000520728BF30C148BF0B6070471FB500F0A0
:1002400025FE1FBD10B510BD00F041F81146FFF7A7
:10025000F5FF00F0E5FC00F05FF803B4FFF7F2FFF4
:1002600003BC00F059FC0000DFF84000016841F4D5
:1002700070010160BFF34F8FDFF83400016821F097
:1002800040410160BFF36F8F0A480047FEE7FEE779
:10029000FEE7FEE7FEE7FEE7FEE7FEE7FEE7FEE736
:1002A00005480649044A064B7047000088ED00E007
:1002B00034EF00E0C901000850010120500901207D
:1002C000500101207047704770477047704775466E
:1002D00000F02CF8AE4605006946534620F00700B2
:1002E000854618B020B5FFF7DBFFBDE820404FF092
:1002F00000064FF000074FF000084FF0000B21F010
:100300000701AC46ACE8C009ACE8C009ACE8C009DC
:10031000ACE8C0098D46704710B50446AFF30080C5
:100320002046BDE81040FFF798BF00000048704726
:10033000EC00012043F2454CC9F2000C604743F247
:10034000D94CC9F2000C604740F2456CC9F2000C70
:10035000604740F2250CC9F2000C604740F2853C32
:10036000C9F2000C604743F2893CC9F2000C6047B7
:1003700010B500F081FA00F031FA0348006840F04F
:1003800004000149086010BD9CEF00E030B5CC10BE
:1003900000F1200353F824304C07E50E0F24AC4045
:1003A000A343CD1000F1200444F82530CC1000F117
:1003B000200353F824304C07E40E02FA04F42343DC
:1003C000CD1000F1200444F8253030BD02F00103C7
:1003D0000BB1816101E00B04836170472DE9F047A7
:1003E0000C46DDE90867002100258C4600BF60E06F
:1003F0004FF0010808FA01F504EA050CAC4557D1A5
:10040000D0F800804FEA410A4FF0030909FA0AF9CF
:1004100028EA0908C0F80080D0F800804FEA4109B6
:1004200002FA09F948EA0908C0F80080012A01D057
:10043000022A27D1D0F808804FEA410A4FF0030979
:1004400009FA0AF928EA0908C0F80880D0F80880F3
:100450004FEA410906FA09F948EA0908C0F8088094
:10046000D0F804904FF0010808FA01F829EA0809C9
:10047000C0F80490D0F8048003FA01F948EA0908AA
:10048000C0F80480D0F80C804FEA410A4FF003090D
:1004900009FA0AF928EA0908C0F80C80D0F80C809B
:1004A0004FEA410907FA09F948EA0908C0F80C803F
:1004B000491C10299CD3BDE8F08700002DE9F041CC
:1004C0000746884614461D46284600F033F8C5F115
:1004D000040007FA00F60F20284100EA080006434E
:1004E00006F00F06E21704EBD2625211920002F1FD
:1004F000E022D2F800212146E31704EBD3635B111D
:10050000A4EB431C012303FA0CF31A432046E31720
:1005100004EBD3635B119B0003F1E023C3F80021DC
:100520000348005D40EA061001490855BDE8F08126
:1005300000E400E00146072323EA01021202054B12
:1005400018684FF6FF031840034B18431043014B44
:10055000186070470CED00E00000FA054A0A5202EC
:100560000243014B1A60704708ED00E03CB50024DF
:10057000914D9248006840F002009049086008469A
:10058000006840F0200008608C480830006840F0A7
:1005900002008A4908310860012003210023022259
:1005A000CDE9001004218648FFF718FF0120032140
:1005B00000230222CDE9001040218148FFF70EFF01
:1005C0000120032100230222CDE900104FF47071B5
:1005D0007C48FFF703FF092202217948FFF7D6FE86
:1005E0000A2206217648FFF7D1FE09220621754826
:1005F000FFF7CCFE092207217248FFF7C7FE0A2247
:1006000008217048FFF7C2FE0A2209216D48FFF752
:10061000BDFE6A481838006840F002006749183982
:1006200008600846006820F00200086000BF6248C9
:100630002038806800F020000028F8D162485E4928
:1006400020390860614848600846006840F00100B1
:10065000086000BF58482038806800F0200000285B
:10066000F8D14FF49C7054492039486100BF52487A
:100670002038806800F002000028F8D04E4820386A
:10068000C06840F002004C492039C86000BF4A48A9
:100690002038806800F020000028F8D14FF48370E3
:1006A00045492039486100BF43482038806800F040
:1006B00002000028F8D040482038C06840F002000E
:1006C0003D492039C86000BF3B482038806800F0B1
:1006D00020000028F8D13E483749203948610020E1
:1006E000086100BF34482038806800F0040000280A
:1006F000F8D03020287030482038006840F00400DE
:100700002D492039086000BF2B482038806800F050
:1007100002000028F8D028482038C06840F00200C5
:1007200025492039C86000BF23482038806800F080
:1007300020000028F8D100BF1F482038806800F052
:1007400020000028F8D11C492039C861EB2444F46A
:10075000407444F4406444F4005444F4404400BF02
:1007600044F4C01444F0407444F0406408464461CA
:100770001848006820F48030164908601548703029
:10078000006820F001001349703108600020091D45
:1007900008604FF01040091D08600F48091D0860EF
:1007A00005200C49703108600A48006840F4803028
:1007B000084908603CBD0000201000A0303802400D
:1007C000000402400014024010030001010416005E
:1007D000C003000324ED00E02D00030310B5002347
:1007E000234C236000BF00BF00BFBFF34F8F00BF8B
:1007F00000BF00BF231F1868C0F34E3100BFC0F315
:10080000C90200BF43F6E07303EA41134FF04044CE
:1008100004EA82742343174C236000BF00BF131EF9
:10082000A2F10102EED10B1EA1F10101E7D100BF3F
:1008300000BF00BFBFF34F8F00BF00BF00BF0C4B16
:10084000703B1B6843F48033094C703C236000BF4D
:1008500000BF00BFBFF34F8F00BF00BF00BF00BF8E
:1008600000BF00BFBFF36F8F00BF00BF00BF10BD50
:1008700084ED00E060EF00E000BF00BF00BFBFF309
:100880004F8F00BF00BF00BF00BF00BF00BFBFF35E
:100890006F8F00BF00BF00BF00201449086000BF79
:1008A00000BF00BFBFF34F8F00BF00BF00BF00BF3E
:1008B00000BF00BFBFF36F8F00BF00BF00BF0C4879
:1008C000006840F400300A49086000BF00BF00BF64
:1008D000BFF34F8F00BF00BF00BF00BF00BF00BF0E
:1008E000BFF36F8F00BF00BF00BF704750EF00E045
:1008F00014ED00E02DE9F04104460D4616461F4672
:100900001648006840F001001449086000201349AF
:100910000831086011480068114908400F49086013
:100920001048091D0860081F006820F48020091F76
:100930000860002009490C310860FFF717FEFFF737
:1009400017FD3B4632462946204600F00DF80021AF
:100950004FF00060FFF702FEBDE8F0810038024072
:10096000FFFFF6FE10300024F0B504460D460021CE
:1009700000203F4E366846F480363D4F3E6001E031
:100980004E1CB1B23A4E366806F400361EB941F636
:10099000FF76B142F4DB41F6FF76B14201D101208E
:1009A00065E0334E4036366846F08056304F40376B
:1009B0003E60304E366846F440462E4F3E603E461E
:1009C000366846F480363E603E46366846F4003669
:1009D0003E60274E0836366846F41446244F0837E2
:1009E0003E60234E366826F08076214F3E6045EA11
:1009F00084160127C7EB520746EA074646EA036614
:100A000046F480061A4F3F1D3E603E1F366846F092
:100A100080763F1F3E6000BF154E366806F00076B8
:100A2000002EF9D0144E366846F48076124F3E60A0
:100A30003E46366846F400763E603E46366846F0EE
:100A400007063E600A4E0836366826F00306084F51
:100A500008373E603E46366846F002063E6000BFFC
:100A6000034E0836366806F00C06082EF8D1F0BDA5
:100A70000038024000700040003C0240014802493A
:100A8000086070470400FA050CED00E01F49C969D1
:100A900001F0200109B31D49496AC8B21C490988FF
:100AA00001F40041C9B91A49098801F4804161B1D2
:100AB0000A2803D00021164A118020E01449098831
:100AC00041F40041124A118019E00D2806D1104965
:100AD000098841F480410E4A118010E00C490988D0
:100AE000C1F30D010B4A505409490988491C084AB1
:100AF000118011460988C72901DD002111800349B1
:100B0000096A41F00801014A116270470010014072
:100B1000080001201400012000BF70474FF0E021C1
:100B2000096921F004014FF0E0221161C21700EBC6
:100B30005272C2F3C702054B1A704FF47A714143E7
:100B4000C1F3CF01024A118070470000000001206C
:100B50000200012070B504464FF4077094FBF0F0DA
:100B6000C6B24FF4077094FBF0F100FB114085B260
:100B700005E04FF4077000F027F8701EC6B2002E93
:100B8000F7D115B1284600F01FF870BD01460D4A97
:100B900012784A434FF0E0235A6100229A61012201
:100BA0001A6100BF4FF0E022106900F001021AB193
:100BB00000F48032002AF5D000224FF0E0231A61C1
:100BC0009A6170470000012001460D4A12884A438D
:100BD0004FF0E0235A6100229A6101221A6100BF9E
:100BE0004FF0E022106900F001021AB100F48032E7
:100BF000002AF5D000224FF0E0231A619A61704775
:100C00000200012000BF054AD26902F04002002A1A
:100C1000F9D0C2B2014B9A62704700000010014047
:100C200086B0002401250923022219214FF4D8702F
:100C3000FFF760FED820FFF771FF4FF4E1316C2021
:100C400000F0C6F8FFF776FBFFF779FBFFF77CFBB8
:100C50004FF478404A4908604A4882884AA103A86C
:100C6000FFF777FB8BE00C2C41D2DFE804F0060B9A
:100C70000F13181D22272C31363B4FF6FF70FFF75C
:100C80006DFB34E00020FFF769FB30E01F20FFF729
:100C900065FB2CE04FF47840FFF760FB27E04FF650
:100CA0001F00FFF75BFB22E04FF4FC60FFF756FBF1
:100CB0001DE047F6FF70FFF751FB18E04FF6E070BC
:100CC000FFF74CFB13E04FF60740FFF747FB0EE042
:100CD00048F23040FFF742FB09E04CF21860FFF7A2
:100CE0003DFB04E04BF64040FFF738FB00BF00BF80
:100CF0004FF478402249086026A020210B46F022BC
:100D0000CDE9001028210A20FFF72DFB25A018218E
:100D10000B46F022CDE9001050210A20FFF723FBFB
:100D200023A010210B46F022CDE900106E210A20ED
:100D3000FFF719FB03A810210B46F022CDE90010A4
:100D400082210A20FFF70FFB1DA00C210B46F02289
:100D5000CDE9001096210A20FFF705FB601CC4B204
:100D60000C2C00D1002485F001000546024602212A
:100D70001648FFF72BFB4FF47A70FFF7EBFE72E794
:100D80000C000120DC0001204C43442049443A255A
:100D900030345800504F4C415249532053544D3336
:100DA000320000005446544C4344205445535400F0
:100DB00041544F4D40414C49454E54454B00000075
:100DC000323031392F352F32340000000004024018
:100DD0007CB505460C462948684300EB5400B0FB3F
:100DE000F4F62748006840F00100254908602448CF
:100DF0001430006840F010002149143108600120CF
:100E0000022100230A46CDE900104FF4C0611D48BD
:100E1000FFF7E4FA072209211A48FFF7B7FA072279
:100E20000A211848FFF7B2FA1748C6600020164991
:100E300008600846006808600846006808600846C0
:100E4000006808600846006840F00800086008462E
:100E5000006840F0040008600846006840F0200088
:100E600008600223252203210846FFF727FB0648D6
:100E7000006840F00100044908607CBD40420F005A
:100E80003038024000000240001001404FF0407036
:100E9000E1EE100A70470000B80E000800000120C3
:100EA0001400000004020008CC0E00081400012009
:100EB0003C090000200200080000000000000000C3
:0C0EC00000000000000000FFFFFFFFFF2B
:0200000490006A
:10000000782900F04B800020704700000FB40449AD
:1000100010B503AA029800F081F910BC5DF814FB3A
:10002000040001200FB41CB5074B06AA7B446946A7
:100030000090059800F059F90020694600F068F931
:100040001CBC5DF814FB0000E102000070B5044622
:1000500085690068C10601D5302600E02026C0076A
:1000600007D070BDD4E9012130469047206A401C7A
:1000700020626D1EF6D570BD70B5044685690078A6
:10008000C00707D170BDD4E9012120209047206A24
:10009000401C20626D1EF6D570BD000070B5044690
:1000A0000D4621461068AFF300802188090502D56E
:1000B0000F4A7A4402E00E4A7A440E32002104F1DB
:1000C000240305E000F00F060009965D5E54491C0C
:1000D0000028F7D120780023000704D5702D02D026
:1000E00009B1022311322046BDE8704000F09EB8ED
:1000F000667F00002DE9F05F894604464FF0000A54
:10010000DFF824B1FB44C0F820A02046E16888470E
:1001100000287DD0252806D0D4E901219047206A07
:10012000401C2062F1E700255F462046E1688847D1
:100130002028064607DB312E05D2B81910F8200C0E
:1001400008B10543F1E7A80701D525F00405C4F877
:100150001CA00027C4F818A02A2E09D0304603F0AE
:1001600077FA38B304EB8708303EC8F8186019E016
:1001700059F8041B204604EB87029161E168884727
:10018000012F064618D1E069002820DA25F0200565
:100190001DE0D8F8180000EB800006EB4000303876
:1001A000C8F818002046E1688847064603F050FA70
:1001B0000028EED1012F0AD02E2E08D12046E1686A
:1001C00088477F1C0646022F45F02005C4DBA06946
:1001D000002803DA404245F00105A061E80701D09C
:1001E00025F01005A6B1A6F14100192802D8203645
:1001F00045F400654A463146204625604D46FFF7E6
:10020000FFFE60B1012807D0ED1D25F0070000E0DA
:1002100007E000F1080978E705F1040975E73046C1
:100220007AE7206ABDE8F09F3C7F00002DE9F047A7
:100230000D4699469246044600F124080168880656
:1002400004D5E06921F01001216000E00120A842FE
:1002500001DD471B00E00027A1697A1902EB0900C4
:10026000081AA0612078C00602D42046FFF7EEFEEF
:10027000002608E0D4E901211AF806009047206A18
:10028000401C761C20624E45F4DB2078C0060AD55F
:100290002046FFF7DBFE06E0D4E90121302090473D
:1002A000206A401C2062381EA7F10107F4DC07E039
:1002B000D4E9012118F805009047206A401C20620B
:1002C000281EA5F10105F3DC2046FFF7D5FE2078B6
:1002D000000602D50220BDE8F0870120FBE7000000
:1002E00001694A1C02610878704700B58FB0CDE9FA
:1002F00001310021059105497944CDE903101146EA
:100300006846FFF7F7FE0FB000BD0000E5FFFFFFF6
:100310000A6802F8010B0A6070470000074B70B5CD
:100320000D467B44FFF7E1FF0446284600F008F83D
:1003300010B14FF0FF3070BD204670BDDF0800786F
:10034000007B00F08000704740F2DD3CC0F6000CFE
:10035000604740F28D3CC0F6000C604740F6553CCB
:10036000C0F6000C604740F68D3CC0F6000C6047BC
:1003700040F2CD3CC0F6000C604740F67D2CC0F644
:10038000000C604770B5044600260948058840887F
:1003900045430021084602F0B7FE03F041F800BFD4
:1003A00002E004490C80761CAE42FAD370BD000016
:1003B000DC0001200000086010B504465B48847131
:1003C000002C57D1F020594908804FF4A070488084
:1003D0000846808849F2413188420BD053488088D2
:1003E00045F21031884205D05048808847F2897123
:1003F000884214D12C204D4908812A2048812B2085
:1004000088810846808845F21031884206D14FF431
:10041000A070464908804FF4F070488081E043485E
:10042000808845F21051884210D14FF430503F4936
:1004300008814FF4285048814FF42C5088814FF4A4
:10044000F07008804FF4487048806AE03748808830
:1004500041F66311884264D12C20344908812B2055
:1004600048812A2088814FF4F07008804FF448704A
:10047000488056E04FF4A0702C490880F020488056
:100480000846808849F2413188420BD0274880884D
:1004900045F21031884205D02448808847F289719E
:1004A000884207D12C20214908812A2048812B200D
:1004B000888129E01D48808845F21051884210D17A
:1004C0004FF43050194908814FF4285048814FF4B7
:1004D0002C5088814FF4487008804FF4F0704880A9
:1004E00012E01248808841F6631188420CD12C201A
:1004F0000E4908812A2048812B2088814FF44870BA
:1005000008804FF4F07048800848808845F2103128
:10051000884206D14FF4F070044908804FF4A0706F
:100520004880002002F0B0FC10BD0000DC0001207B
:1005300030B504460D464148808849F24131884231
:100540000BD03E48808845F21031884205D03B48A8
:10055000808847F28971884214D13849488902F06D
:1005600053FF201202F044FFE0B202F041FF334992
:10057000888902F049FF281202F03AFFE8B202F03F
:1005800037FF54E02D48808845F21051884220D131
:100590002A49488902F038FF201202F029FF274932
:1005A0004989491C88B202F02FFFE0B202F020FF17
:1005B0002249888902F028FF281202F019FF1F49FA
:1005C0008989491C88B202F01FFFE8B202F010FFCF
:1005D0002DE01A48808841F66311884227D11748D8
:1005E000807920B915480088401E001B84B2134949
:1005F000488902F009FF201202F0FAFEE0B202F090
:10060000F7FE201202F0F4FEE0B202F0F1FE0B4918
:10061000888902F0F9FE281202F0EAFEE8B202F040
:10062000E7FE281202F0E4FEE8B202F0E1FE034821
:10063000008903490880891C0A8030BDDC00012044
:10064000FEFF07601CB5FE48006840F00200FC4950
:1006500008600846006840F018000860F848083054
:10066000006840F00100F6490831086001200321CC
:1006700000230246CDE900102021F248FFF764FE76
:100680000120032100230222CDE900104EF2B371B4
:10069000ED48FFF759FE0120032100230222CDE996
:1006A00000104FF68071E948FFF74EFE0C22002142
:1006B000E548FFF74EFE0C220121E348FFF749FE13
:1006C0000C220421E048FFF744FE0C220521DE48FD
:1006D000FFF73FFE0C220721DB48FFF73AFE0C2212
:1006E0000821D948FFF735FE0C220921D648FFF72B
:1006F00030FE0C220A21D448FFF72BFE0C220D21DC
:10070000D148FFF726FE0C220E21CF48FFF721FE2D
:100710000C220F21CC48FFF71CFE0C220721CB48EE
:10072000FFF717FE0C220821C848FFF712FE0C2223
:100730000921C648FFF70DFE0C220A21C348FFF726
:1007400008FE0C220B21C148FFF703FE0C221146C4
:10075000BE48FFF7FEFD0C220D21BC48FFF7F9FD56
:100760000C220E21B948FFF7F4FD0C220F21B748E7
:10077000FFF7EFFD00204FF0204108604860B449CA
:1007800008604FF02040006840F480504FF0204156
:1007900008600846006840F4804008600846006829
:1007A00040F010000860084640684860084640680D
:1007B00040F00F0048600846406840F4A0404860A0
:1007C000A3480068C1F804010846D0F8040140F0CD
:1007D0000F00C1F804010846D0F8040140F470602D
:1007E000C1F804010846006840F0010008603220AA
:1007F000FFF7B4FDD32002F007FE02F00BFB954992
:10080000888002F007FB9349888002F003FB91493E
:100810008880084680884FF6FF7101EA00208D49E4
:10082000888002F0F7FA8B498988084389498880D3
:100830000846808849F2413188427DD0042002F088
:10084000E3FD02F0E7FA8349888002F0E3FA814988
:10085000888002F0DFFA7F498880084680884FF65A
:10086000FF7101EA00207B49888002F0D3FA7949C0
:1008700089880843774988800846808848F2525121
:10088000884203D147F28970724988807148808814
:1008900047F289718842D0D0D42002F0B5FD02F031
:1008A000B9FA6C49888002F0B5FA6A49888002F08A
:1008B000B1FA68498880084680884FF6FF7101EADE
:1008C00000206449888002F0A5FA624989880843BB
:1008D000604988800846808845F2103188426BD094
:1008E00055214FF4704002F0A5FDAA214FF20100FE
:1008F00002F0A0FD52214FF2020002F09BFD082100
:100900004FF2030002F096FD01214FF2040002F0C5
:1009100091FD4FF4454002F077FD02F07BFA4D491E
:100920008880084680884FF6FF7101EA0020494917
:1009300088804CF2015000E03EE002F065FD02F0DC
:1009400069FA444989880843424988800520FFF7AD
:1009500005FD40488088B0F5004F03D145F21050A6
:100960003C4988803B48808845F21051884223D01A
:10097000A12002F049FD02F04DFA3649888002F0CC
:1009800049FA34498880084680884FF6FF7101EAA9
:1009900000203049888002F03DFA2E4989880843BA
:1009A0002C4988800846808845F26171884203D1CD
:1009B00041F66310274988802648818826A0FFF7E2
:1009C00025FB2448808849F2413188427DD1CF20DF
:1009D00002F01AFD002002F00BFDC12002F008FD1C
:1009E000302002F005FDED2002F00EFD642002F043
:1009F000FFFC032002F0FCFC122002F0F9FC812035
:100A000002F0F6FCE82002F0FFFC852002F0F0FC8A
:100A1000102002F0EDFC7A2002F0EAFCCB2002F07C
:100A2000F3FC392002F0E4FC2C2002F0E1FC002071
:100A300002F0DEFC342002F0DBFC022014E00000B7
:100A40003038024000040240000C02400010024016
:100A5000040100A0DC000120204C43442049443A1A
:100A600025780D0A0000000002F0C2FCF72002F019
:100A7000CBFC202002F0BCFCEA2002F0C5FC0020E8
:100A800002F0B6FC002002F0B3FCC02002F0BCFC77
:100A90001B2002F0ADFCC12002F0B6FC012002F0E8
:100AA000A7FCC52002F0B0FC302002F0A1FC3020F1
:100AB00002F09EFCC72002F0A7FCB72002F098FCD1
:100AC000362002F0A1FC482000E0AEE002F090FCED
:100AD0003A2002F099FC552002F08AFCB12002F085
:100AE00093FC002002F084FC1A2002F081FCB62066
:100AF00002F08AFC0A2002F07BFCA22002F078FCC3
:100B0000F22002F081FC002002F072FC262002F0AC
:100B10007BFC012002F06CFCE02002F075FC0F2051
:100B200002F066FC2A2002F063FC282002F060FC40
:100B3000082002F05DFC0E2002F05AFC082002F0B2
:100B400057FC542002F054FCA92002F051FC432031
:100B500002F04EFC0A2002F04BFC0F2002F048FC91
:100B6000002002F045FC002002F042FC002002F0D0
:100B70003FFC002002F03CFCE12002F045FC00209C
:100B800002F036FC152002F033FC172002F030FC96
:100B9000072002F02DFC112002F02AFC062002F0B2
:100BA00027FC2B2002F024FC562002F021FC3C20E4
:100BB00002F01EFC052002F01BFC102002F018FCC5
:100BC0000F2002F015FC3F2002F012FC3F2002F043
:100BD0000FFC0F2002F00CFC2B2002F015FC002073
:100BE00002F006FC002002F003FC012002F000FCF1
:100BF0003F2002F0FDFB2A2002F006FC002002F05C
:100C0000F7FB002002F0F4FB002002F0F1FBEF20E4
:100C100002F0EEFB112002F0F7FB7820FFF79EFBBD
:100C2000292002F0F1FB02F0A6B8FE48808847F2C6
:100C3000897188427ED1112002F0E6FB7820FFF70F
:100C40008DFB362002F0E0FB002002F0D1FB3A20C1
:100C500002F0DAFB052002F0CBFBB22002F0D4FB5D
:100C60000C2002F0C5FB0C2002F0C2FB002002F0B9
:100C7000BFFB332002F0BCFB332002F0B9FBB720EE
:100C800002F0C2FB352002F0B3FBBB2002F0BCFB3C
:100C9000322002F0ADFBC02002F0B6FB0C2002F0C7
:100CA000A7FBC22002F0B0FB012002F0A1FBC32091
:100CB00002F0AAFB102002F09BFBC42002F0A4FB70
:100CC000202002F095FBC62002F09EFB0F2002F0D0
:100CD0008FFBD02002F098FBA42002F089FBA1201A
:100CE00002F086FBE02002F08FFBD02002F080FBB8
:100CF000002002F07DFB022002F07AFB072002F0C8
:100D000077FB0A2002F074FB282002F071FB3220EE
:100D100002F06EFB442002F06BFB422002F068FB05
:100D2000062002F065FB0E2002F062FB122002F0AA
:100D30005FFB00E054E0142002F05AFB172002F0A1
:100D400057FBE12002F060FBD02002F051FB0020B5
:100D500002F04EFB022002F04BFB072002F048FBA2
:100D60000A2002F045FB282002F042FB312002F06D
:100D70003FFB542002F03CFB472002F039FB0E20E1
:100D800002F036FB1C2002F033FB172002F030FB90
:100D90001B2002F02DFB1E2002F02AFB2A2002F06D
:100DA00033FB002002F024FB002002F021FB002096
:100DB00002F01EFBEF2002F01BFB2B2002F024FBB5
:100DC000002002F015FB002002F012FB012002F0CF
:100DD0000FFB3F2002F00CFB292002F015FB22E75D
:100DE0009048808845F21031884240F07C87ED20A1
:100DF00002F00AFB012002F0FBFAFE2002F0F8FAF2
:100E0000EE2002F001FBDE2002F0F2FA212002F0D7
:100E1000EFFAF12002F0F8FA012002F0E9FADF20FF
:100E200002F0F2FA102002F0E3FAC42002F0ECFA29
:100E30008F2002F0DDFAC62002F0E6FA002002F070
:100E4000D7FAE22002F0D4FAE22002F0D1FAE2204E
:100E500002F0CEFABF2002F0D7FAAA2002F0C8FAB8
:100E6000B02002F0D1FA0D2002F0C2FA002002F008
:100E7000BFFA0D2002F0BCFA002002F0B9FA1120EE
:100E800002F0B6FA002002F0B3FA192002F0B0FA2C
:100E9000002002F0ADFA212002F0AAFA002002F0B0
:100EA000A7FA2D2002F0A4FA002002F0A1FA3D20BA
:100EB00002F09EFA002002F09BFA5D2002F098FA00
:100EC000002002F095FA5D2002F092FA002002F074
:100ED0008FFAB12002F098FA802002F089FA0020FF
:100EE00002F086FA8B2002F083FA002002F080FAEA
:100EF000962002F07DFA002002F07AFAB22002F089
:100F000083FA002002F074FA002002F071FA022045
:100F100002F06EFA002002F06BFA032002F068FA89
:100F2000002002F065FAB32002F06EFA002002F011
:100F30005FFA002002F05CFA002002F059FA00206B
:100F400002F056FA002002F053FA002002F050FAA4
:100F5000002002F04DFA002002F04AFA002002F0D0
:100F600047FA002002F044FA002002F041FA002083
:100F700002F03EFA002002F03BFA002002F038FABC
:100F8000002002F035FA002002F032FA002002F0D0
:100F90002FFA002002F02CFA002002F029FA00209B
:100FA00002F026FA002002F023FA002002F020FAD4
:100FB000002002F01DFA002002F01AFAB42002F01C
:100FC00023FA8B2002F014FA002002F011FA962086
:100FD00002F00EFA002002F00BFAA12002F008FA4B
:100FE000002002F005FAB52002F00EFA022002F00D
:100FF000FFF9002002F0FCF9032002F0F9F90020CB
:1010000002F0F6F9042002F0F3F9002002F0F0F902
:10101000B62002F0F9F9002002F0EAF9002002F00F
:10102000E7F901E0DC000120B72002F0EDF9002033
:1010300002F0DEF9002002F0DBF93F2002F0D8F9DF
:10104000002002F0D5F95E2002F0D2F9002002F073
:10105000CFF9642002F0CCF9002002F0C9F98C200D
:1010600002F0C6F9002002F0C3F9AC2002F0C0F98A
:10107000002002F0BDF9DC2002F0BAF9002002F0F5
:10108000B7F9702002F0B4F9002002F0B1F9902015
:1010900002F0AEF9002002F0ABF9EB2002F0A8F963
:1010A000002002F0A5F9DC2002F0A2F9002002F0F5
:1010B0009FF9B82002F0A8F9002002F099F9002069
:1010C00002F096F9002002F093F9002002F090F966
:1010D000002002F08DF9002002F08AF9002002F0D1
:1010E00087F9002002F084F9BA2002F08DF924205B
:1010F00002F07EF9002002F07BF9002002F078F97E
:10110000002002F075F9C12002F07EF9202002F0E3
:101110006FF9002002F06CF9542002F069F9002008
:1011200002F066F9FF2002F063F9002002F060F996
:10113000C22002F069F90A2002F05AF9002002F0F8
:1011400057F9042002F054F9002002F051F9C320AD
:1011500002F05AF93C2002F04BF9002002F048F965
:101160003A2002F045F9002002F042F9392002F05D
:101170003FF9002002F03CF9372002F039F9002055
:1011800002F036F93C2002F033F9002002F030F989
:10119000362002F02DF9002002F02AF9322002F068
:1011A00027F9002002F024F92F2002F021F9002075
:1011B00002F01EF92C2002F01BF9002002F018F9B1
:1011C000292002F015F9002002F012F9262002F081
:1011D0000FF9002002F00CF9242002F009F9002098
:1011E00002F006F9242002F003F9002002F000F9D1
:1011F000232002F0FDF8002002F0FAF83C2002F073
:10120000F7F8002002F0F4F8362002F0F1F80020A0
:1012100002F0EEF8322002F0EBF8002002F0E8F8DD
:101220002F2002F0E5F8002002F0E2F82C2002F076
:10123000DFF8002002F0DCF8292002F0D9F80020C5
:1012400002F0D6F8262002F0D3F8002002F0D0F801
:10125000242002F0CDF8002002F0CAF8242002F089
:10126000C7F8002002F0C4F8232002F0C1F80020E3
:1012700002F0BEF8C42002F0C7F8622002F0B8F80D
:10128000002002F0B5F8052002F0B2F8002002F0CC
:10129000AFF8842002F0ACF8002002F0A9F8F020AA
:1012A00002F0A6F8002002F0A3F8182002F0A0F83F
:1012B000002002F09DF8A42002F09AF8002002F02D
:1012C00097F8182002F094F8002002F091F85020CE
:1012D00002F08EF8002002F08BF80C2002F088F863
:1012E000002002F085F8172002F082F8002002F0BA
:1012F0007FF8952002F07CF8002002F079F8F320C6
:1013000002F076F8002002F073F8E62002F070F8A0
:10131000002002F06DF8C52002F076F8322002F0CD
:1013200067F8002002F064F8442002F061F8002021
:1013300002F05EF8652002F05BF8002002F058F839
:10134000762002F055F8002002F052F8882002F0D2
:101350004FF8002002F04CF8C62002F055F820208B
:1013600002F046F8002002F043F8172002F040F89F
:10137000002002F03DF8012002F03AF8002002F0CF
:1013800037F8C72002F040F8002002F031F80020C2
:1013900002F02EF8002002F02BF8002002F028F8CE
:1013A000C82002F031F8002002F022F8002002F0FC
:1013B0001FF8002002F01CF8002002F019F8C920E4
:1013C00002F022F8002002F013F8002002F010F8DA
:1013D000002002F00DF8002002F00AF8002002F0D0
:1013E00007F8002002F004F8002002F001F80020C5
:1013F00001F0FEFF002001F0FBFF002001F0F8FFEC
:10140000002001F0F5FF002001F0F2FF002001F0C4
:10141000EFFF002001F0ECFF002001F0E9FF0020C9
:1014200001F0E6FFE02001F0EFFF162001F0E0FF01
:10143000002001F0DDFF1C2001F0DAFF002001F0A8
:10144000D7FF212001F0D4FF002001F0D1FF36208A
:1014500001F0CEFF002001F0CBFF462001F0C8FFD5
:10146000002001F0C5FF522001F0C2FF002001F072
:10147000BFFF642001F0BCFF002001F0B9FF7A201B
:1014800001F0B6FF002001F0B3FF8B2001F0B0FFA8
:10149000002001F0ADFF992001F0AAFF002001F02B
:1014A000A7FFA82001F0A4FF002001F0A1FFB920B0
:1014B00001F09EFF002001F09BFFC42001F098FF87
:1014C000002001F095FFCA2001F092FF002001F0FA
:1014D0008FFFD22001F08CFF002001F089FFD9207E
:1014E00001F086FF002001F083FFE02001F080FF83
:1014F000002001F07DFFF32001F07AFF002001F0D1
:1015000077FFE12001F080FF162001F071FF00203D
:1015100001F06EFF1C2001F06BFF002001F068FF5E
:10152000222001F065FF002001F062FF362001F06B
:101530005FFF002001F05CFF452001F059FF002013
:1015400001F056FF522001F053FF002001F050FF40
:10155000642001F04DFF002001F04AFF7A2001F0E5
:1015600047FF002001F044FF8B2001F041FF0020E5
:1015700001F03EFF992001F03BFF002001F038FF11
:10158000A82001F035FF002001F032FFB92001F062
:101590002FFF002001F02CFFC42001F029FF0020C4
:1015A00001F026FFCA2001F023FF002001F020FFF8
:1015B000D22001F01DFF002001F01AFFD82001F019
:1015C00017FF002001F014FFE02001F011FF0020C0
:1015D00001F00EFFF32001F00BFF002001F008FFE7
:1015E000E22001F011FF052001F002FF002001F0D0
:1015F000FFFE0B2001F0FCFE002001F0F9FE1B2095
:1016000001F0F6FE002001F0F3FE342001F0F0FEC0
:10161000002001F0EDFE442001F0EAFE002001F080
:10162000E7FE4F2001F0E4FE002001F0E1FE612022
:1016300001F0DEFE002001F0DBFE792001F0D8FE93
:10164000002001F0D5FE882001F0D2FE002001F03C
:10165000CFFE972001F0CCFE002001F0C9FEA620AD
:1016600001F0C6FE002001F0C3FEB72001F0C0FE6D
:10167000002001F0BDFEC22001F0BAFE002001F002
:10168000B7FEC72001F0B4FE002001F0B1FED1206A
:1016900001F0AEFE002001F0ABFED62001F0A8FE66
:1016A000002001F0A5FEDD2001F0A2FE002001F0E7
:1016B0009FFEF32001F09CFE002001F099FEE32044
:1016C00001F0A2FE052001F093FE002001F090FE43
:1016D0000A2001F08DFE002001F08AFE1C2001F09E
:1016E00087FE002001F084FE332001F081FE0020FF
:1016F00001F07EFE442001F07BFE002001F078FE28
:10170000502001F075FE002001F072FE622001F011
:101710006FFE002001F06CFE782001F069FE0020D1
:1017200001F066FE882001F063FE002001F060FEFB
:10173000972001F05DFE002001F05AFEA62001F086
:1017400057FE002001F054FEB72001F051FE0020AA
:1017500001F04EFEC22001F04BFE002001F048FED9
:10176000C72001F045FE002001F042FED12001F02B
:101770003FFE002001F03CFED52001F039FE0020A4
:1017800001F036FEDD2001F033FE002001F030FED6
:10179000F32001F02DFE002001F02AFEE42001F0EC
:1017A00033FE012001F024FE002001F021FE012083
:1017B00001F01EFE002001F01BFE022001F018FEC9
:1017C000002001F015FE2A2001F012FE002001F099
:1017D0000FFE3C2001F00CFE002001F009FE4B2022
:1017E00001F006FE002001F003FE5D2001F000FE86
:1017F000002001F0FDFD742001F0FAFD002001F051
:10180000F7FD842001F0F4FD002001F0F1FD9320AC
:1018100001F0EEFD002001F0EBFDA22001F0E8FD5B
:10182000002001F0E5FDB32001F0E2FD002001F011
:10183000DFFDBE2001F0DCFD002001F0D9FDC42059
:1018400001F0D6FD002001F0D3FDCD2001F0D0FD48
:10185000002001F0CDFDD32001F0CAFD002001F0F1
:10186000C7FDDD2001F0C4FD002001F0C1FDF32023
:1018700001F0BEFD002001F0BBFDE52001F0C4FD3C
:10188000002001F0B5FD002001F0B2FD002001F0C4
:10189000AFFD002001F0ACFD022001F0A9FD002009
:1018A00001F0A6FD292001F0A3FD002001F0A0FD1C
:1018B0003C2001F09DFD002001F09AFD4B2001F03D
:1018C00097FD002001F094FD5D2001F091FD0020C6
:1018D00001F08EFD742001F08BFD002001F088FDE9
:1018E000842001F085FD002001F082FD932001F0AD
:1018F0007FFD002001F07CFDA22001F079FD002099
:1019000001F076FDB32001F073FD002001F070FDC1
:10191000BE2001F06DFD002001F06AFDC42001F041
:1019200067FD002001F064FDCD2001F061FD002085
:1019300001F05EFDD32001F05BFD002001F058FDB9
:10194000DC2001F055FD002001F052FDF32001F0F4
:101950004FFD002001F04CFDE62001F055FD112067
:1019600001F046FD002001F043FD342001F040FD70
:10197000002001F03DFD562001F03AFD002001F06D
:1019800037FD762001F034FD002001F031FD772095
:1019900001F02EFD002001F02BFD662001F028FD56
:1019A000002001F025FD882001F022FD002001F03B
:1019B0001FFD992001F01CFD002001F019FDBB2046
:1019C00001F016FD002001F013FD992001F010FD3B
:1019D000002001F00DFD662001F00AFD002001F05D
:1019E00007FD552001F004FD002001F001FD552008
:1019F00001F0FEFC002001F0FBFC452001F0F8FCAA
:101A0000002001F0F5FC432001F0F2FC002001F081
:101A1000EFFC442001F0ECFC002001F0E9FCE720A1
:101A200001F0F2FC322001F0E3FC002001F0E0FCC8
:101A3000552001F0DDFC002001F0DAFC762001F0F9
:101A4000D7FC002001F0D4FC662001F0D1FC00207E
:101A500001F0CEFC672001F0CBFC002001F0C8FCB7
:101A6000672001F0C5FC002001F0C2FC872001F0D6
:101A7000BFFC002001F0BCFC992001F0B9FC002063
:101A800001F0B6FCBB2001F0B3FC002001F0B0FC7B
:101A9000992001F0ADFC002001F0AAFC772001F0B4
:101AA000A7FC002001F0A4FC442001F0A1FC0020D0
:101AB00001F09EFC562001F09BFC002001F098FCF8
:101AC000232001F095FC002001F092FC332001F06E
:101AD0008FFC002001F08CFC452001F089FC0020E7
:101AE00001F086FCE82001F08FFC002001F080FC72
:101AF000002001F07DFC992001F07AFC002001F02B
:101B000077FC872001F074FC002001F071FC882034
:101B100001F06EFC002001F06BFC772001F068FC06
:101B2000002001F065FC662001F062FC002001F05D
:101B30005FFC882001F05CFC002001F059FCAA2029
:101B400001F056FC002001F053FCBB2001F050FCDA
:101B5000002001F04DFC992001F04AFC002001F02A
:101B600047FC662001F044FC002001F041FC5520B8
:101B700001F03EFC002001F03BFC552001F038FC58
:101B8000002001F035FC442001F032FC002001F07F
:101B90002FFC442001F02CFC002001F029FC5520F2
:101BA00001F026FC002001F023FCE92001F02CFCD0
:101BB000AA2001F01DFC002001F01AFC002001F019
:101BC00017FC002001F014FC002001F01DFCAA20ED
:101BD00001F00EFCCF2001F017FC002001F008FC02
:101BE000002001F005FC002001F002FC002001F0C3
:101BF000FFFB002001F0FCFB002001F0F9FB0020BE
:101C000001F0F6FB002001F0F3FB002001F0F0FBF7
:101C1000002001F0EDFB002001F0EAFB002001F0C4
:101C2000E7FB002001F0E4FB002001F0E1FB0020D5
:101C300001F0DEFB002001F0DBFB002001F0D8FB0F
:101C4000F02001F0E1FB002001F0D2FB502001F078
:101C5000CFFB002001F0CCFB002001F0C9FB0020ED
:101C600001F0C6FBF32001F0CFFB002001F0C0FB28
:101C7000F92001F0C9FB062001F0BAFB102001F0A9
:101C8000B7FB292001F0B4FB002001F0B1FB3A20A2
:101C900001F0BAFB552001F0ABFB112001F0B4FBC1
:101CA0006420FEF75BFB292001F0AEFB352001F03C
:101CB000ABFB002001F09CFB512001F0A5FBFF20B5
:101CC00001F096FB532001F09FFB2C2001F090FBCC
:101CD000552001F099FB822001F08AFB2C2001F0B5
:101CE00093FB01F048B8FE48808845F210518842C5
:101CF0007ED155214FF4704001F09CFBAA214FF298
:101D0000010001F097FB52214FF2020001F092FB1B
:101D100008214FF2030001F08DFB01214FF2040076
:101D200001F088FB0D214FF4304001F083FB0D21C1
:101D30004BF2010001F07EFB0D214BF2020001F09D
:101D400079FB34214FF4364001F074FB34214BF21F
:101D5000016001F06FFB34214BF2026001F06AFB7D
:101D60000D214FF4314001F065FB0D214BF20110C4
:101D700001F060FB0D214BF2021001F05BFB3421FE
:101D80004FF4374001F056FB34214BF2017001F063
:101D900051FB34214BF2027001F04CFB00214FF457
:101DA000324001F047FB00214BF2012001F042FBE1
:101DB00000214BF2022001F03DFB24214FF438407A
:101DC00001F038FB24214BF6010001F033FB242104
:101DD0004BF6020001F02EFB01214FF43F4001F0D1
:101DE00029FB0F214FF4334001F024FB0F2100E0C9
:101DF000FEE34BF2013001F01DFB0F214BF20230EC
:101E000001F018FB34214FF4394001F013FB342169
:101E10004BF6011001F00EFB34214BF6021001F0DD
:101E200009FB08214FF4354001F004FB08214BF277
:101E3000015001F0FFFA08214BF2025001F0FAFACA
:101E400003214FF4424001F0F5FA24214FF43A40C7
:101E500001F0F0FA24214BF6012001F0EBFA2421E5
:101E60004BF6022001F0E6FA00214FF43C4001F06D
:101E7000E1FA78214BF6014001F0DCFA00214BF643
:101E8000024001F0D7FA00214FF43D4001F0D2FAB0
:101E900078214BF6015001F0CDFA00214BF60250AB
:101EA00001F0C8FA00214FF43E4001F0C3FA64216A
:101EB0004BF6016001F0BEFA00214FF4514001F0F1
:101EC000B9FA33214DF2011001F0B4FA00214DF2BC
:101ED000021001F0AFFA34214DF2031001F0AAFA1A
:101EE00000214DF2041001F0A5FA3A214DF205103F
:101EF00001F0A0FA00214DF2061001F09BFA4A21F0
:101F00004DF2071001F096FA00214DF2081001F091
:101F100091FA5C214DF2091001F08CFA00214DF28A
:101F20000A1001F087FA81214DF20B1001F082FABC
:101F300000214DF20C1001F07DFAA6214DF20D109A
:101F400001F078FA00214DF20E1001F073FAE5214C
:101F50004DF20F1001F06EFA01214DF2101001F058
:101F600069FA13214DF2111001F064FA01214DF2CA
:101F7000121001F05FFA54214DF2131001F05AFAD9
:101F800001214DF2141001F055FA82214DF2151085
:101F900001F050FA01214DF2161001F04BFACA215E
:101FA0004DF2171001F046FA02214DF2181001F01F
:101FB00041FA00214DF2191001F03CFA02214DF2D4
:101FC0001A1001F037FA01214DF21B1001F032FA1C
:101FD00002214DF21C1001F02DFA34214DF21D109A
:101FE00001F028FA02214DF21E1001F023FA6721B8
:101FF0004DF21F1001F01EFA02214DF2201001F0E7
:1020000019FA84214DF2211001F014FA02214DF247
:10201000221001F00FFAA4214DF2231001F00AFA68
:1020200002214DF2241001F005FAB7214DF22510DE
:1020300001F000FA02214DF2261001F0FBF9CF2148
:102040004DF2271001F0F6F902214DF2281001F0AF
:10205000F1F9DE214DF2291001F0ECF902214DF2E7
:102060002A1001F0E7F9F2214DF22B1001F0E2F90C
:1020700002214DF22C1001F0DDF9FE214DF22D1060
:1020800001F0D8F903214DF22E1001F0D3F91021FF
:102090004DF22F1001F0CEF903214DF2301001F076
:1020A000C9F933214DF2311001F0C4F903214DF289
:1020B000321001F0BFF96D214DF2331001F0BAF981
:1020C00000214FF4524001F0B5F933214DF20120C7
:1020D00001F0B0F900214DF2022001F0ABF901E06E
:1020E000DC00012034214DF2032001F0A3F900218E
:1020F0004DF2042001F09EF93A214DF2052001F045
:1021000099F900214DF2062001F094F94A214DF28F
:10211000072001F08FF900214DF2082001F08AF923
:102120005C214DF2092001F085F900214DF20A20D1
:1021300001F080F981214DF20B2001F07BF90021A3
:102140004DF20C2001F076F9A6214DF20D2001F0A0
:1021500071F900214DF20E2001F06CF9E5214DF2EC
:102160000F2001F067F901214DF2102001F062F912
:1021700013214DF2112001F05DF901214DF21220E1
:1021800001F058F954214DF2132001F053F90121C7
:102190004DF2142001F04EF982214DF2152001F08C
:1021A00049F901214DF2162001F044F9CA214DF2FE
:1021B000172001F03FF902214DF2182001F03AF901
:1021C00000214DF2192001F035F902214DF21A20BB
:1021D00001F030F901214DF21B2001F02BF9022111
:1021E0004DF21C2001F026F934214DF21D2001F0A2
:1021F00021F902214DF21E2001F01CF967214DF258
:102200001F2001F017F902214DF2202001F012F9F0
:1022100084214DF2212001F00DF902214DF22220FE
:1022200001F008F9A4214DF2232001F003F9022165
:102230004DF2242001F0FEF8B7214DF2252001F0E7
:10224000F9F802214DF2262001F0F4F8CF214DF2E9
:10225000272001F0EFF802214DF2282001F0EAF8E2
:10226000DE214DF2292001F0E5F802214DF22A206D
:1022700001F0E0F8F2214DF22B2001F0DBF8022111
:102280004DF22C2001F0D6F8FE214DF22D2001F068
:10229000D1F803214DF22E2001F0CCF810214DF29F
:1022A0002F2001F0C7F803214DF2302001F0C2F8D1
:1022B00033214DF2312001F0BDF803214DF23220DF
:1022C00001F0B8F86D214DF2332001F0B3F8002190
:1022D0004FF4534001F0AEF833214DF2013001F0DC
:1022E000A9F800214DF2023001F0A4F834214DF29A
:1022F000033001F09FF800214DF2043001F09AF80C
:102300003A214DF2053001F095F800214DF20630EA
:1023100001F090F84A214DF2073001F08BF80021CE
:102320004DF2083001F086F85C214DF2093001F0E1
:1023300081F800214DF20A3001F07CF881214DF244
:102340000B3001F077F800214DF20C3001F072F8FB
:10235000A6214DF20D3001F06DF800214DF20E3046
:1023600001F068F8E5214DF20F3001F063F801212A
:102370004DF2103001F05EF813214DF2113001F0F2
:1023800059F801214DF2123001F054F854214DF268
:10239000133001F04FF801214DF2143001F04AF8EA
:1023A00082214DF2153001F045F801214DF2163031
:1023B00001F040F8CA214DF2173001F03BF802213C
:1023C0004DF2183001F036F800214DF2193001F0CD
:1023D00031F802214DF21A3001F02CF801214DF2B2
:1023E0001B3001F027F802214DF21C3001F022F8D9
:1023F00034214DF21D3001F01DF802214DF21E3046
:1024000001F018F867214DF21F3001F013F8022196
:102410004DF2203001F00EF884214DF2213001F010
:1024200009F802214DF2223001F004F8A4214DF206
:10243000233000F0FFFF02214DF2243000F0FAFFBC
:10244000B7214DF2253000F0F5FF02214DF2263084
:1024500000F0F0FFCF214DF2273000F0EBFF02211A
:102460004DF2283000F0E6FFDE214DF2293000F079
:10247000E1FF02214DF22A3000F0DCFFF2214DF2A3
:102480002B3000F0D7FF02214DF22C3000F0D2FFAC
:10249000FE214DF22D3000F0CDFF03214DF22E3004
:1024A00000F0C8FF10214DF22F3000F0C3FF0321D0
:1024B0004DF2303000F0BEFF33214DF2313000F0EC
:1024C000B9FF03214DF2323000F0B4FF6D214DF21F
:1024D000333000F0AFFF00214FF4544000F0AAFF6A
:1024E00033214DF2014000F0A5FF00214DF20240E2
:1024F00000F0A0FF34214DF2034000F09BFF0021CB
:102500004DF2044000F096FF3A214DF2054000F0F4
:1025100091FF00214DF2064000F08CFF4A214DF260
:10252000074000F087FF00214DF2084000F082FFD5
:102530005C214DF2094000F07DFF00214DF20A4080
:1025400000F078FF81214DF20B4000F073FF002175
:102550004DF20C4000F06EFFA6214DF20D4000F050
:1025600069FF00214DF20E4000F064FFE5214DF2BD
:102570000F4000F05FFF01214DF2104000F05AFFC4
:1025800013214DF2114000F055FF01214DF2124090
:1025900000F050FF54214DF2134000F04BFF012199
:1025A0004DF2144000F046FF82214DF2154000F03C
:1025B00041FF01214DF2164000F03CFFCA214DF2CF
:1025C000174000F037FF02214DF2184000F032FFB3
:1025D00000214DF2194000F02DFF02214DF21A406A
:1025E00000F028FF01214DF21B4000F023FF00E026
:1025F00003E302214DF21C4000F01CFF34214DF298
:102600001D4000F017FF02214DF21E4000F012FFA6
:1026100067214DF21F4000F00DFF02214DF22040D6
:1026200000F008FF84214DF2214000F003FF022159
:102630004DF2224000F0FEFEA4214DF2234000F0B6
:10264000F9FE02214DF2244000F0F4FEB7214DF2D4
:10265000254000F0EFFE02214DF2264000F0EAFE98
:10266000CF214DF2274000F0E5FE02214DF2284037
:1026700000F0E0FEDE214DF2294000F0DBFE0221F9
:102680004DF22A4000F0D6FEF2214DF22B4000F030
:10269000D1FE02214DF22C4000F0CCFEFE214DF285
:1026A0002D4000F0C7FE03214DF22E4000F0C2FE87
:1026B00010214DF22F4000F0BDFE03214DF23040BD
:1026C00000F0B8FE33214DF2314000F0B3FE03219B
:1026D0004DF2324000F0AEFE6D214DF2334000F07D
:1026E000A9FE00214FF4554000F0A4FE33214DF225
:1026F000015000F09FFE00214DF2025000F09AFEC2
:1027000034214DF2035000F095FE00214DF20450AB
:1027100000F090FE3A214DF2055000F08BFE0021B2
:102720004DF2065000F086FE4A214DF2075000F0AF
:1027300081FE00214DF2085000F07CFE5C214DF23C
:10274000095000F077FE00214DF20A5000F072FEB1
:1027500081214DF20B5000F06DFE00214DF20C5026
:1027600000F068FEA6214DF20D5000F063FE00213E
:102770004DF20E5000F05EFEE5214DF20F5000F0DC
:1027800059FE01214DF2105000F054FE13214DF27C
:10279000115000F04FFE01214DF2125000F04AFEA0
:1027A00054214DF2135000F045FE01214DF214501A
:1027B00000F040FE82214DF2155000F03BFE012159
:1027C0004DF2165000F036FECA214DF2175000F0BF
:1027D00031FE02214DF2185000F02CFE00214DF286
:1027E000195000F027FE02214DF21A5000F022FE8F
:1027F00001214DF21B5000F01DFE02214DF21C5034
:1028000000F018FE34214DF21D5000F013FE02219D
:102810004DF21E5000F00EFE67214DF21F5000F0E9
:1028200009FE02214DF2205000F004FE84214DF2F9
:10283000215000F0FFFD02214DF2225000F0FAFD80
:10284000A4214DF2235000F0F5FD02214DF2245059
:1028500000F0F0FDB7214DF2255000F0EBFD022114
:102860004DF2265000F0E6FDCF214DF2275000F04A
:10287000E1FD02214DF2285000F0DCFDDE214DF299
:10288000295000F0D7FD02214DF22A5000F0D2FD70
:10289000F2214DF22B5000F0CDFD02214DF22C50D3
:1028A00000F0C8FDFE214DF22D5000F0C3FD0321C4
:1028B0004DF22E5000F0BEFD10214DF22F5000F0D1
:1028C000B9FD03214DF2305000F0B4FD33214DF23B
:1028D000315000F0AFFD03214DF2325000F0AAFD5F
:1028E0006D214DF2335000F0A5FD00214FF456400C
:1028F00000F0A0FD33214DF2016000F09BFD0021AE
:102900004DF2026000F096FD34214DF2036000F0BC
:1029100091FD00214DF2046000F08CFD3A214DF252
:10292000056000F087FD00214DF2066000F082FD99
:102930004A214DF2076000F07DFD00214DF2086054
:1029400000F078FD5C214DF2096000F073FD00217C
:102950004DF20A6000F06EFD81214DF20B6000F037
:1029600069FD00214DF20C6000F064FDA6214DF2DE
:102970000D6000F05FFD00214DF20E6000F05AFD89
:10298000E5214DF20F6000F055FD01214DF2106080
:1029900000F050FD13214DF2116000F04BFD0121BC
:1029A0004DF2126000F046FD54214DF2136000F02C
:1029B00041FD01214DF2146000F03CFD82214DF2F9
:1029C000156000F037FD01214DF2166000F032FD78
:1029D000CA214DF2176000F02DFD02214DF2186062
:1029E00000F028FD00214DF2196000F023FD0221C6
:1029F0004DF21A6000F01EFD01214DF21B6000F047
:102A000019FD02214DF21C6000F014FD34214DF23D
:102A10001D6000F00FFD02214DF21E6000F00AFD66
:102A200067214DF21F6000F005FD02214DF220608C
:102A300000F000FD84214DF2216000F0FBFC02213A
:102A40004DF2226000F0F6FCA4214DF2236000F06C
:102A5000F1FC02214DF2246000F0ECFCB7214DF2B4
:102A6000256000F0E7FC02214DF2266000F0E2FC58
:102A7000CF214DF2276000F0DDFC02214DF22860ED
:102A800000F0D8FCDE214DF2296000F0D3FC0221D9
:102A90004DF22A6000F0CEFCF2214DF22B6000F0E6
:102AA000C9FC02214DF22C6000F0C4FCFE214DF265
:102AB0002D6000F0BFFC03214DF22E6000F0BAFC47
:102AC00010214DF22F6000F0B5FC03214DF2306073
:102AD00000F0B0FC33214DF2316000F0ABFC03217B
:102AE0004DF2326000F0A6FC6D214DF2336000F033
:102AF000A1FC55214FF4704000F09CFCAA214FF23C
:102B0000010000F097FC52214FF2020000F092FC0D
:102B100008214FF2030000F08DFC00214FF2040069
:102B200000F088FCCC214FF4314000F083FC002100
:102B30004BF2011000F07EFC05214FF4364000F00E
:102B400079FC70214FF4374000F074FC70214BF297
:102B5000017000F06FFC01214FF4384000F06AFC76
:102B600003214BF6010000F065FC03214BF6020047
:102B700000F060FC03214BF6030000F05BFC022137
:102B80004FF43C4000F056FC00214BF6014000F0B1
:102B900051FC00214BF6024000F04CFCD0214FF4D8
:102BA000494000F047FC02214CF6011000F042FCC5
:102BB00050214CF6021000F03DFC50214CF6031061
:102BC00000F038FC50214CF6041000F033FC0021DA
:102BD0004FF4545000F02EFC55214FF4685000F093
:102BE00029FC4FF4885000F00FFC7820FDF7BBFB68
:102BF0004FF4245000F008FCBDE08348808841F683
:102C000063118842F8D1E22000F0FEFB1D2000F0A5
:102C1000EFFB022000F0ECFB042000F0E9FB642055
:102C2000FDF7A1FBE02000F0EFFB012000F0E0FB4E
:102C30000A20FDF793FBE02000F0E6FB032000F004
:102C4000D7FB0C20FDF78AFB012000F0DDFB0A20FA
:102C5000FDF784FBE62000F0D7FB2F2000F0C8FB37
:102C6000FF2000F0C5FBFF2000F0C2FBB02000F009
:102C7000CBFB202000F0BCFB002000F0B9FB0320C0
:102C800000F0B6FB40F21F3000F0B2FB012000F074
:102C9000AFFB40F2DF1000F0ABFB002000F0A8FB20
:102CA000B42000F0B1FB042000F0A2FB40F21F4072
:102CB00000F09EFB002000F09BFB2E2000F098FB14
:102CC000002000F095FB002000F092FB002000F0B7
:102CD0008FFB002000F08CFBB62000F095FB02205B
:102CE00000F086FB4FF4037000F082FB002000F040
:102CF0007FFB172000F07CFB152000F079FB002003
:102D000000F076FB002000F073FBF02000F07CFB6D
:102D1000032000F06DFB292000F076FBD02000F0AE
:102D200073FB002000F064FBBE2000F06DFB05206B
:102D300000F05EFBFE2000F05BFB012000F058FB82
:102D4000002000F055FB002000F052FB002000F0B6
:102D50004FFBB82000F058FB032000F049FB012096
:102D600000F046FBBA2000F04FFB012000F040FBD2
:102D7000642000F059F82448808849F241318842A3
:102D800017D02148808845F21031884211D01E4862
:102D9000808845F2105188420BD01B48808841F64C
:102DA0006311884205D01848808847F289718842AB
:102DB0001CD11648006820F00F004FF02041C1F8E8
:102DC00004010846D0F8040120F47060C1F8040141
:102DD0000846D0F8040140F00500C1F80401084697
:102DE000D0F8040140F4A060C1F804010020FDF710
:102DF000E3FA012220210648FDF7BAFA4FF6FF70E8
:102E0000FDF7C0FA1CBD0000DC000120040100A099
:102E10000004024008B5034800880090BDF8000097
:102E200008BD00000000086070B52DED048B04465D
:102E3000BE2000F0E9FA052000F0DAFA204600F0A2
:102E40003CFC41EC190B9FED0E0B53EC102B00F0EA
:102E500047FC41EC180B00F003FC85B2284600F05B
:102E6000C7FA012000F0C4FAFF2000F0C1FA0020E8
:102E700000F0BEFA002000F0BBFABDEC048B70BD80
:102E80006666666666660440F0B50546002400275F
:102E90009C488079012805D19A48808841F66311C1
:102EA000884208D197488079F0B99648808841F6E1
:102EB0006311884218D1082D15D2DFE805F0040609
:102EC000080A0C0E101206250DE007250BE004255C
:102ED00009E0052507E0012505E0002503E00325BD
:102EE00001E0022500BF00BF8648808849F24131D9
:102EF000884217D08348808845F21031884211D02B
:102F00008048808845F2105188420BD07D488088E7
:102F100041F66311884205D07A48808847F289716A
:102F200088427DD1082D1CD2DFE805F00406090C8B
:102F30000F12151800BF14E044F0800411E044F0B3
:102F400040040EE044F0C0040BE044F0200408E02C
:102F500044F0600405E044F0A00402E044F0E00422
:102F600000BF00BF6748808845F21051884202D1F7
:102F70004FF4585700E036276248808845F21031F8
:102F800088420DD05F48808845F21051884207D0B2
:102F90005C48808841F66311884201D044F00804FF
:102FA0002146384600F046FA5648808841F66311BB
:102FB00088421DD004F0200068B152480088514971
:102FC0004988884214DA4F48068840884D4908806D
:102FD000084646800CE04B4800884A4949888842A8
:102FE00006DD4848068840884649088008464680ED
:102FF0004448808845F21051884254D1414948895B
:1030000000F002FA002000F0F3F93E494989491C1A
:1030100088B200F0F9F9002000F0EAF9394900E03F
:103020006FE04989891C88B200F0EEF935490988BA
:10303000491EC1F30F2000F0DBF932494989C91C50
:1030400088B200F0E1F92F490978491EC8B200F0B2
:10305000CFF92C49888900F0D7F9002000F0C8F991
:1030600028498989491C88B200F0CEF9002000F077
:10307000BFF924498989891C88B200F0C5F9214922
:103080004988491EC1F30F2000F0B2F91D49898912
:10309000C91C88B200F0B8F91A498978491EC8B22B
:1030A00000F0A6F92DE01749488900F0ADF900209D
:1030B00000F09EF9002000F09BF912490988491E92
:1030C000C1F30F2000F094F90E490978491EC8B2E7
:1030D00000F08EF90B49888900F096F9002000F085
:1030E00087F9002000F084F906494988491EC1F398
:1030F0000F2000F07DF903498978491EC8B200F01D
:1031000077F9F0BDDC00012010B502460C464E48B0
:10311000808849F2413188420BD04B48808845F283
:103120001031884205D04848808847F2897188422A
:1031300014D14549488900F067F9101200F058F998
:10314000D0B200F055F94049888900F05DF92012AD
:1031500000F04EF9E0B200F04BF973E03A48808895
:1031600041F66311884247D137488079A8B936487B
:103170000088401E801A82B23349488900F044F921
:10318000002000F035F9002000F032F9101200F0B4
:103190002FF9D0B200F02CF916E02B49488900F045
:1031A00033F9101200F024F9D0B200F021F92649C9
:1031B0000988491EC1F30F2000F01AF92249097845
:1031C000491EC8B200F014F91F49888900F01CF9A3
:1031D000201200F00DF9E0B200F00AF91A4949880E
:1031E000491EC1F30F2000F003F917498978491EE1
:1031F000C8B200F0FDF825E01348808845F2105170
:1032000088421FD11049488900F0FEF8101200F0E2
:10321000EFF80D494989491C88B200F0F5F8D0B2A1
:1032200000F0E6F80849888900F0EEF8201200F076
:10323000DFF805498989491C88B200F0E5F8E0B259
:1032400000F0D6F810BD0000DC0001202DE9F84F99
:1032500080460F4616461C46BB462046E31704EB45
:103260005373DB1021464FEAE47C04EB5C7C4FEAAD
:10327000EC0CA4EBCC0CBCF1000F02D04FF0010C15
:1032800001E04FF0000C6344224604EBD27C4FEA8D
:103290006C0C03FB0CF3DBB20093A6F12000C6B26A
:1032A00000255EE00C2C07D106EB46002F4901EB10
:1032B000800010F805901BE0102C05D12C4800EB85
:1032C000061010F8059013E0182C07D106EBC60085
:1032D000284901EB800010F8059009E0202C05D169
:1032E000254800EBC61010F8059001E0BDE8F88F06
:1032F0004FF0000A2FE009F0800030B11F48394636
:1033000002684046FDF714F907E00A9828B91C48FE
:10331000394602684046FDF70BF94FEA49604FEA2B
:103320001069781C87B217484088B84200DCDDE796
:10333000A7EB0B00A0420AD15F4608F101001FFA7B
:1033400080F810480088404500DCCFE706E00AF12D
:10335000010000F0FF0ABAF1080FCCDB00BF681CC7
:10336000C5B2009885429DDB00BFBFE7DC38009006
:10337000503D0090404300909C5000900C00012074
:1033800010000120DC0001202DE9F84704460D461D
:1033900090469946DDE9096704F0FF0A08EB04004E
:1033A0001FFA80F809EB05001FFA80F916E0444582
:1033B00002DB5446A81985B24D4500DB14E000201D
:1033C00000903A78334629462046FFF73FFF3046C3
:1033D00006EBD07104EB61018CB27F1C38787E283B
:1033E00002DC38782028E2DA00BFBDE8F887000068
:1033F00001B5BDF800000090BDF80000014908804B
:1034000008BD00000000086001B5BDF80000009094
:10341000BDF800000149088008BD0000FEFF0760FC
:10342000024800890249088070470000DC00012042
:10343000FEFF0760024A1080921C11807047000056
:10344000FEFF07601CB50D48006840F002000B4904
:103450000860012000210B460246CDE9001003213F
:103460000748FCF771FF012202210548FCF780FFA5
:10347000012211460248FCF77BFF1CBD3038024098
:10348000000402400146002002E04908421CD0B27C
:103490000129FAD1704700000748006820F4803005
:1034A0000549086004487030006820F001000249B6
:1034B000703108607047000024ED00E005200549E8
:1034C000086004487038006840F480300149703961
:1034D0000860704794ED00E00FB50120002203233F
:1034E000CDE90120009303901346024601044007F2
:1034F00000F044F8012000220323CDE901200093CD
:1035000003901346022281041B4800F037F8012083
:1035100000220323CDE901200093039013460322E8
:103520008103002000F02AF800200323CDE90030B9
:10353000029003460422110603904FF0C04000F0B1
:103540001DF8012000220323CDE901200093039000
:103550001346052281064FF0404000F00FF800208E
:103560000323CDE9003002900123062219070390BE
:10357000C80000F003F80FBD000001202DE9F04F56
:1035800005460C4616461F46DDE90A9ADDF82480FA
:1035900000239B4604F01F0000B914B90120BDE8C8
:1035A000F08F2046FFF76EFF401E00F0FF0BFFF785
:1035B00073FF0E480660001D056043EA077343EA87
:1035C000086300BF43EA894343EA4A430C9843EA4D
:1035D000004300BF43EA4B0343F0010303480830B4
:1035E0000360FFF76BFF0020D9E7000098ED00E0D3
:1035F00010B5002201210A48FCF7BAFE09A0FCF729
:1036000005FD4FF47A70FCF7A9FE0CA0FCF7FEFC58
:103610004FF47A70FCF7A2FEFCF7AFFE10BD00007D
:10362000000402404D656D2041636365737320455E
:1036300072726F7221210D0A00000000536F6674D0
:10364000205265736574696E672E2E2E0D0A000078
:1036500030380A2801D2012070470020704700004E
:103660004FEA1153A3F58063D3F11E03A8BFD3F132
:10367000200C08DB4FF0004242EAC12252EA5052CD
:1036800032FA03F0704709420BD4102BC4BF00205C
:10369000704703F5787CBCF1FF3F05D04FF0FF3059
:1036A00070474FF00000704770B500F0C3F800BFDE
:1036B0004992248000207047F0E7B0FA80F310FAB6
:1036C00003F10AD0C3F11D0303F580634FEA4150B3
:1036D0004FEA035202EBD12170474FF000007047D0
:1036E000DFF848C170B51CEA111E1EBF1CEA131595
:1036F0009EEA0C0F95EA0C0F00F06F8081EA03043C
:1037000023EA4C134EEAD47E21EA4C1141F4801195
:1037100043F48013AE44A1FB024CA0FB0365AEF161
:103720007F7E361955EB0C05A1FB034C4CF10003D1
:10373000A0FB021C16EB0C06654153F10003094285
:1037400018BF46F0010613F4007F0BD14FEA033196
:103750004FEA0530340341EA155140EA16506FF044
:1037600003020AE04FEAC3214FEAC520F40241EA0E
:10377000555140EA56506FF0020202EB2E4201EB27
:10378000025585EACE710AD05FEA440C18BF24F0D6
:10379000004450F1000041F1000120EAD47040F2F1
:1037A000FE7C624500D270BDA84214BF4FF0804439
:1037B0004FF04044002E08BF0024BEF1806FA8BF28
:1037C000A1F1C041BDE8704080F282804FF000005E
:1037D00001F1C04101F0004170479EEA0C0F0CEA74
:1037E000131518BF95EA0C0F06D04FF0000081EAC0
:1037F000030E0EF0004170BD00F01CF88900013E80
:1038000000F007B800F009B84FEA430C5FEA5C5CCF
:1038100008D081EA030100F05BB84FEA410C5FEA8F
:103820005C5CF6D14FF00000014970470000FF07D3
:103830000000F87F0EF1020E2EF0030E5EF8046B0E
:10384000364205D4012A43EB030515F5001F12D8B3
:10385000012841EB010C1CF5001F0CD80ED14FEADA
:10386000D17C15F5001F0CEB4C0C0CF1020C08BFC1
:103870004CEBD37C04E04FF0080C01E04FEAD37C22
:103880000CEB4C0526FA05F606F00706B6F1040C1B
:1038900006D20EEB860CBDE870404CF0010C604780
:1038A000DFE80CF0090B02024FF000414FF000007E
:1038B000A1F5002170BD19461046012851EB010405
:1038C00018BFD4F5001484BF002001F0004170BD82
:1038D0000808A0F500114FEA310170470000000010
:1038E0000000000000000000000000003F40000059
:1038F00000000000000030004000300040000000E8
:1039000009000BC03D000BC03D00090018C0244059
:103910007FE0224031800000180024C01B000D8091
:103920003240018003801C4027401C80074000403B
:103930001000600000000000000000000000000017
:1039400000001F80204040200000402020401F80B9
:1039500000000000090006001F80060009000000AA
:10396000040004003F800400040000000010006018
:103970000000000000000000040004000400040037
:1039800004000000000000400000000000000000F3
:10399000002001C006003800400000001F802040C9
:1039A000204020401F800000000010403FC0004029
:1039B0000000000018C021402240244018400000B0
:1039C00010802040244024401B80000002000D0095
:1039D00011003FC0014000003C80244024402440AE
:1039E000238000001F8024402440344003800000D6
:1039F0003000200027C03800200000001B80244039
:103A0000244024401B8000001C0022C02240224091
:103A10001F800000000000000840000000000000BF
:103A2000000000000460000000000000000004002E
:103A30000A00110020804040090009000900090027
:103A40000900000000004040208011000A0004002E
:103A50001800200023402400180000001F80204090
:103A6000274029401F400000004007C039000F00D8
:103A700001C0004020403FC0244024401B80000083
:103A80001F802040204020403080000020403FC068
:103A9000204020401F80000020403FC024402E4096
:103AA00030C0000020403FC024402E003000000005
:103AB0000F001080204022403380020020403FC091
:103AC000040004003FC02040204020403FC0204070
:103AD000204000000060202020203FC02000200067
:103AE00020403FC024400B0030C0204020403FC059
:103AF00020400040004000C03FC03C0003C03C00EC
:103B00003FC0000020403FC00C4023003FC02000C9
:103B10001F802040204020401F80000020403FC0E8
:103B200024402400180000001F802140214020E094
:103B30001FA0000020403FC02440260019C00040C4
:103B400018C0244024402240318000003000204032
:103B50003FC020403000000020003F800040004077
:103B60003F80200020003E0001C0070038002000F8
:103B7000380007C03C0007C038000000204039C0B2
:103B8000060039C0204000002000384007C03840FF
:103B900020000000304021C02640384020C00000F6
:103BA000000000007FE04020402000000000700086
:103BB0000C000380004000000000402040207FE017
:103BC0000000000000002000400020000000000075
:103BD0000010001000100010001000100000000085
:103BE0004000000000000000000002800540054089
:103BF00003C0004020003FC0044004400380000098
:103C000000000380044004400640000000000380E0
:103C1000044024403FC000400000038005400540B0
:103C200003400000000004401FC024402440200046
:103C3000000002E0055005500650042020403FC01F
:103C40000440040003C000400000044027C00040BE
:103C50000000000000100010041027E00000000029
:103C600020403FC00140070004C0044020402040E5
:103C70003FC000400040000007C0040007C004002F
:103C800003C00000044007C00440040003C000401B
:103C9000000003800440044003800000041007F08B
:103CA00004500440038000000000038004400450DE
:103CB00007F00010044007C00240040004000000A8
:103CC000000006400540054004C00000000004005C
:103CD0001F800440004000000400078000400440B2
:103CE00007C000400400070004C001800600040073
:103CF000060001C0070001C006000000044006C025
:103D0000010006C0044000000410071004E0018018
:103D1000060004000000044005C006400440000006
:103D20000000000004007BE04020000000000000D4
:103D30000000FFF000000000000040207BE00400D5
:103D400000000000400080004000200020004000F3
:103D50000000000000000000000000000000000063
:103D60000000000000001FCC000C0000000000005C
:103D70000000080030006000080030006000000013
:103D8000022003FC1E20022003FC1E200220000053
:103D900000000E1811043FFF10840C780000000092
:103DA0000F0010840F3800C00778188400780000D6
:103DB00000780F8410C411240E9800E400840008D9
:103DC0000800680070000000000000000000000013
:103DD00000000000000007E0181820044002000066
:103DE000000040022004181807E000000000000056
:103DF0000240024001800FF00180024002400000BA
:103E00000080008000800FF80080008000800000AB
:103E10000001000D000E0000000000000000000086
:103E20000000008000800080008000800080008012
:103E30000000000C000C000000000000000000006A
:103E40000000000600180060018006001800200035
:103E5000000007F0080810041004080807F000002C
:103E60000000080408041FFC000400040000000017
:103E700000000E0C10141024104411840E0C0000CD
:103E800000000C1810041104110412880C700000BA
:103E9000000000E00320042408241FFC002400008C
:103EA00000001F9810841104110410881070000085
:103EB000000007F008881104110418880070000041
:103EC00000001C00100010FC13001C00100000007B
:103ED00000000E3811441084108411440E38000084
:103EE00000000700088C10441044088807F0000008
:103EF000000000000000030C030C000000000000A4
:103F000000000000000101060000000000000000A9
:103F10000000008001400220041008081004000086
:103F200002200220022002200220022002200000A3
:103F30000000100408080410022001400080000066
:103F400000000E001200100C106C10800F0000001A
:103F500003E00C1813E4142417C4082807D0000049
:103F60000004003C03C41C40074000E4001C0004A3
:103F700010041FFC1104110411040E8800700000CD
:103F800003E00C1810041004100410081C100000AA
:103F900010041FFC100410041004080807F00000AF
:103FA00010041FFC1104110417C4100408180000A9
:103FB00010041FFC1104110017C0100008000000BD
:103FC00003E00C181004100410441C78004000009A
:103FD00010041FFC10840080008010841FFC10045B
:103FE0000000100410041FFC100410040000000066
:103FF00000030001100110011FFE1000100000005E
:1040000010041FFC110403801464181C1004000029
:1040100010041FFC1004000400040004000C000045
:1040200010041FFC1F0000FC1F001FFC10040000F8
:1040300010041FFC0C04030000E010181FFC10000B
:1040400007F00808100410041004080807F0000026
:1040500010041FFC10841080108010800F000000DE
:1040600007F0081810241024101C080A07F200009A
:1040700010041FFC1104110011C011300E0C0004BB
:1040800000000E1C11041084108410441C38000021
:104090001800100010041FFC10041000180000008D
:1040A00010001FF810040004000410041FF8100092
:1040B00010001E0011E0001C007013801C00100096
:1040C0001FC0103C00E01F0000E0103C1FC00000BB
:1040D0001004180C163401C001C01634180C10045A
:1040E00010001C00130400FC13041C00100000004E
:1040F0000804101C1064108413041C041018000021
:104100000000000000007FFE40024002400200006C
:10411000000030000C0003800060001C0003000061
:1041200000004002400240027FFE0000000000004C
:10413000000000002000400040004000200000007F
:104140000001000100010001000100010001000167
:1041500000004000400020000000000000000000BF
:1041600000000098012401440144014400FC0004C3
:1041700010001FFC0088010401040088007000008A
:1041800000000070008801040104010400880000A0
:104190000000007000880104010411081FFC0004E5
:1041A000000000F8014401440144014400C800003B
:1041B0000000010401040FFC110411041100180097
:1041C000000000D601290129012901C901060000CA
:1041D00010041FFC008401000100010400FC000425
:1041E00000000104190419FC000400040000000090
:1041F0000000000300010101190119FE0000000088
:1042000010041FFC0024004001B4010C0104000054
:104210000000100410041FFC000400040000000053
:10422000010401FC0104010001FC0104010000FC87
:10423000010401FC008401000100010400FC0004F1
:10424000000000F8010401040104010400F800006A
:10425000010101FF008501040104008800700000D5
:1042600000000070008801040104010501FF000145
:104270000104010401FC008401040100018000002C
:10428000000000CC01240124012401240198000035
:1042900000000100010007F8010401040000000013
:1042A000010001F8000400040004010801FC0004FE
:1042B000010001800170000C00100160018001000C
:1042C00001F0010C003001C00030010C01F00100D0
:1042D00000000104018C00740170018C01040000D5
:1042E000010101810171000E0018016001800100CF
:1042F00000000184010C013401440184010C000020
:10430000000000000000000001003EFC40024002EE
:104310000000000000000000FFFF0000000000009F
:104320000000400240023EFC0100000000000000CE
:10433000000060008000800040004000200020005D
:10434000000000000000000000000000000000006D
:10435000000000000000000000000000000000005D
:10436000000000000000000000000000000000004D
:104370000000000F80380FFE380F8038000000006A
:10438000000000000000000000000000000001002C
:10439000000600000C00003800003100000600009C
:1043A0000C00003800003000000000000000000099
:1043B00061800067F807F98000618000618000611A
:1043C000800061800067F807F980006180000000CC
:1043D00000000000000001C0E003E0F00630080427
:1043E00018081FFFFE040E080787F00381E0000095
:1043F0000000000001F000060C00040408060C7028
:1044000001F9C0000E00003BE000EC1807080804AA
:104410000C180003E00000000001E00007F003F8C2
:1044200018041C0804170807E1D003C0E00023B0FB
:10443000003C0800200800001000000000000001FF
:1044400000003100003200001C00000000000000ED
:10445000000000000000000000000000000000005C
:10446000000000000000000000000000000000004C
:104470007F0001FFC00780F00C001810000420002E
:10448000020000000000002000021000040C0018D0
:104490000780F001FFC0007F000000000000000066
:1044A0000000000000000000000000004200006664
:1044B00000006600003C0000180003FFC000180068
:1044C000003C0000660000660000420000000000A2
:1044D000080000080000080000080000080001FFB4
:1044E000C0000800000800000800000800000800E4
:1044F00000000000000100003100003200001C003C
:1045000000000000000000000000000000000000AB
:104510000000000000000000080000080000080083
:104520000008000008000008000008000008000063
:10453000080000080000000000000000000000006B
:1045400038000038000038000000000000000000C3
:10455000000000000000000000000000000000005B
:10456000000600001C000070000180000E000038F2
:104570000000C0000700001C000030000000000028
:10458000000000007F8001FFE00380700600180437
:10459000000804000806001803807001FFE0007F97
:1045A0008000000000000000000001000801000879
:1045B00001000803FFF807FFF800000800000800EA
:1045C000000800000000000000000001C03802C028
:1045D00058040098040118040218040418061C1852
:1045E00003F81801E0F800000000000000000001DE
:1045F000C0E003C0F0040008040808040808061816
:104600000803F41801E7F00001E0000000000000DA
:10461000000000000300000D000011000061000018
:10462000810803010807FFF80FFFF80001080001E7
:10463000080000000000000000E007FCD0060808A9
:10464000061008061008061008061838060FF006AF
:1046500007C0000000000000000000003F8001FFD4
:10466000E00384300208180410080410080410083D
:10467000071810030FF00007C00000000000000042
:10468000000003C0000700000600000600F806074F
:10469000F806180006E00007000006000000000011
:1046A00000000001E1E003F7F006341004180804EC
:1046B0001808040C08040C0806161803F3F001C1CE
:1046C000E000000000000000F80003FC30030638A2
:1046D0000402080402080402080404100308F0019C
:1046E000FFC0007F0000000000000000000000008C
:1046F00000000000000000007038007038007038C2
:1047000000000000000000000000000000000000A9
:10471000000000000000000000000000301A00301F
:104720001C0000000000000000000000000000006D
:10473000000000000000000800001400002200003B
:1047400041000080800100400200200400100800A9
:1047500008000000000000002100002100002100EE
:1047600000210000210000210000210000210000A4
:1047700021000021000000000000000000000800EF
:104780000804001002002001004000808000410069
:1047900000220000140000080000000000000003D8
:1047A000C00004C000040000080038080F380808E2
:1047B000380810000C300007E00003C000000000C3
:1047C000000000003F8000FFE0038070020F100631
:1047D000708804C088048308047F8802C0900301A5
:1047E0002000FE400000080000180001F8003E080C
:1047F00001C20007020007E20000FE00001FC8001F
:1048000001F800003800000804000807FFF807FF5F
:10481000F80408080408080408080408080618082A
:1048200003F41801E7F00001E000000000000000C0
:104830003F8001FFE00380700200180400080400BC
:10484000080400080400100600200780C0000000D3
:1048500004000807FFF807FFF80400080400080434
:10486000000804001802001003807001FFE0007FC0
:104870008000000004000807FFF807FFF80408089C
:10488000040808040808040808043E080400080690
:10489000001801006000000004000807FFF807FF8F
:1048A000F8040808040800040800040800043E0096
:1048B000060000060000018000000000000000006B
:1048C0003F8001FFE0038070060018040008040226
:1048D000080402080203F00783F00002000002004F
:1048E00004000807FFF807FFF804080800080000A4
:1048F000080000080000080004080807FFF807FF88
:10490000F80400080000000000000400080400088B
:1049100004000807FFF807FFF80400080400080473
:104920000008000000000000000000000006000079
:104930000700000104000104000104000307FFFE5A
:1049400007FFFC0400000400000400000400080746
:10495000FFF807FFF8040C08001800003E0004C729
:10496000800503C80600F804003804001800000899
:1049700004000807FFF807FFF8040008000008001B
:1049800000080000080000080000080000180000EF
:104990006000000004000807FFF807800807FC001B
:1049A000007FC00003F80007C000780007800807F8
:1049B000FFF807FFF804000804000807FFF80700E5
:1049C0000803C00000E000003800001E00000700DF
:1049D0000001C00400F007FFF80400000000000020
:1049E0007F8001FFE00380700600180400080400C7
:1049F0000806001803003001FFE0007F800000007F
:104A000004000807FFF807FFF80404080404000482
:104A10000400040400040400060C0003F80001F084
:104A200000000000000000007F8001FFE0038070B4
:104A30000600880400880400C806003C03003E010C
:104A4000FFE6007F8400000004000807FFF807FF6E
:104A5000F8040808040800040C00040F00040BC04C
:104A60000610F003F03801E0080000080000000123
:104A7000E0F803F030063010041808041808040C9D
:104A800008040C080206180207F00781E000000085
:104A90000180000600000400000400000400080774
:104AA000FFF807FFF80400080400000400000600F7
:104AB0000001800004000007FFE007FFF004001879
:104AC00000000800000800000800000800000804BA
:104AD000001007FFE004000004000006000007E0EB
:104AE0000007FE00041FE00001F80000380001E0AC
:104AF000043E0007C0000600000400000400000798
:104B0000E00007FFC0041FF80007C007F80007FF18
:104B100080043FF80007C004F8000700000400000C
:104B200000000004000806001807C07805F1C8005E
:104B30003E00001F800463E80780F80600180400A8
:104B40000800000004000006000007800007E008DD
:104B5000047C08001FF80007F800180804E00807A4
:104B6000000006000004000000000001000806002C
:104B7000380400F80403E8040F08047C0805F00872
:104B800007C00807001804006000000000000000D3
:104B900000000000000000000000003FFFFE2000B9
:104BA000022000022000022000022000020000007B
:104BB00000000000000008000007000000C0000026
:104BC00038000006000001C000003000000E0000A8
:104BD0000100000000000000000020000220000290
:104BE0002000022000022000023FFFFE0000000023
:104BF00000000000000000000000000000000000B5
:104C0000000800001000003000002000003000000C
